{
	"contracts/Test Mint Pass v12A.sol": {
		"TestMintPassv12A": {
			"abi": [
				{
					"inputs": [
						{
							"internalType": "string",
							"name": "_name",
							"type": "string"
						},
						{
							"internalType": "string",
							"name": "_symbol",
							"type": "string"
						},
						{
							"internalType": "address",
							"name": "_vaultAddress",
							"type": "address"
						},
						{
							"internalType": "string",
							"name": "_TestMintPassBlackTokenUri",
							"type": "string"
						},
						{
							"internalType": "string",
							"name": "_TestMintPassBlueTokenUri",
							"type": "string"
						}
					],
					"stateMutability": "nonpayable",
					"type": "constructor"
				},
				{
					"inputs": [],
					"name": "NoEthBalance",
					"type": "error"
				},
				{
					"anonymous": false,
					"inputs": [
						{
							"indexed": true,
							"internalType": "address",
							"name": "owner",
							"type": "address"
						},
						{
							"indexed": true,
							"internalType": "address",
							"name": "operator",
							"type": "address"
						},
						{
							"indexed": false,
							"internalType": "bool",
							"name": "approved",
							"type": "bool"
						}
					],
					"name": "ApprovalForAll",
					"type": "event"
				},
				{
					"anonymous": false,
					"inputs": [
						{
							"indexed": true,
							"internalType": "address",
							"name": "previousOwner",
							"type": "address"
						},
						{
							"indexed": true,
							"internalType": "address",
							"name": "newOwner",
							"type": "address"
						}
					],
					"name": "OwnershipTransferred",
					"type": "event"
				},
				{
					"anonymous": false,
					"inputs": [
						{
							"indexed": true,
							"internalType": "address",
							"name": "operator",
							"type": "address"
						},
						{
							"indexed": true,
							"internalType": "address",
							"name": "from",
							"type": "address"
						},
						{
							"indexed": true,
							"internalType": "address",
							"name": "to",
							"type": "address"
						},
						{
							"indexed": false,
							"internalType": "uint256[]",
							"name": "ids",
							"type": "uint256[]"
						},
						{
							"indexed": false,
							"internalType": "uint256[]",
							"name": "amounts",
							"type": "uint256[]"
						}
					],
					"name": "TransferBatch",
					"type": "event"
				},
				{
					"anonymous": false,
					"inputs": [
						{
							"indexed": true,
							"internalType": "address",
							"name": "operator",
							"type": "address"
						},
						{
							"indexed": true,
							"internalType": "address",
							"name": "from",
							"type": "address"
						},
						{
							"indexed": true,
							"internalType": "address",
							"name": "to",
							"type": "address"
						},
						{
							"indexed": false,
							"internalType": "uint256",
							"name": "id",
							"type": "uint256"
						},
						{
							"indexed": false,
							"internalType": "uint256",
							"name": "amount",
							"type": "uint256"
						}
					],
					"name": "TransferSingle",
					"type": "event"
				},
				{
					"anonymous": false,
					"inputs": [
						{
							"indexed": false,
							"internalType": "string",
							"name": "value",
							"type": "string"
						},
						{
							"indexed": true,
							"internalType": "uint256",
							"name": "id",
							"type": "uint256"
						}
					],
					"name": "URI",
					"type": "event"
				},
				{
					"inputs": [
						{
							"internalType": "address",
							"name": "",
							"type": "address"
						}
					],
					"name": "TestMintPassBlackMinted",
					"outputs": [
						{
							"internalType": "uint256",
							"name": "",
							"type": "uint256"
						}
					],
					"stateMutability": "view",
					"type": "function"
				},
				{
					"inputs": [
						{
							"internalType": "address",
							"name": "",
							"type": "address"
						}
					],
					"name": "TestMintPassBlueMinted",
					"outputs": [
						{
							"internalType": "uint256",
							"name": "",
							"type": "uint256"
						}
					],
					"stateMutability": "view",
					"type": "function"
				},
				{
					"inputs": [],
					"name": "Test_Mint_Pass_Black",
					"outputs": [
						{
							"internalType": "uint256",
							"name": "",
							"type": "uint256"
						}
					],
					"stateMutability": "view",
					"type": "function"
				},
				{
					"inputs": [],
					"name": "Test_Mint_Pass_BlackMaxSupply",
					"outputs": [
						{
							"internalType": "uint256",
							"name": "",
							"type": "uint256"
						}
					],
					"stateMutability": "view",
					"type": "function"
				},
				{
					"inputs": [],
					"name": "Test_Mint_Pass_BlackScholarshipTotal",
					"outputs": [
						{
							"internalType": "uint256",
							"name": "",
							"type": "uint256"
						}
					],
					"stateMutability": "view",
					"type": "function"
				},
				{
					"inputs": [],
					"name": "Test_Mint_Pass_BlackTokenId",
					"outputs": [
						{
							"internalType": "uint256",
							"name": "",
							"type": "uint256"
						}
					],
					"stateMutability": "view",
					"type": "function"
				},
				{
					"inputs": [],
					"name": "Test_Mint_Pass_Blue",
					"outputs": [
						{
							"internalType": "uint256",
							"name": "",
							"type": "uint256"
						}
					],
					"stateMutability": "view",
					"type": "function"
				},
				{
					"inputs": [],
					"name": "Test_Mint_Pass_BlueMaxSupply",
					"outputs": [
						{
							"internalType": "uint256",
							"name": "",
							"type": "uint256"
						}
					],
					"stateMutability": "view",
					"type": "function"
				},
				{
					"inputs": [],
					"name": "Test_Mint_Pass_BlueScholarshipTotal",
					"outputs": [
						{
							"internalType": "uint256",
							"name": "",
							"type": "uint256"
						}
					],
					"stateMutability": "view",
					"type": "function"
				},
				{
					"inputs": [],
					"name": "Test_Mint_Pass_BlueTokenId",
					"outputs": [
						{
							"internalType": "uint256",
							"name": "",
							"type": "uint256"
						}
					],
					"stateMutability": "view",
					"type": "function"
				},
				{
					"inputs": [
						{
							"internalType": "address",
							"name": "",
							"type": "address"
						},
						{
							"internalType": "uint256",
							"name": "",
							"type": "uint256"
						}
					],
					"name": "balanceOf",
					"outputs": [
						{
							"internalType": "uint256",
							"name": "",
							"type": "uint256"
						}
					],
					"stateMutability": "view",
					"type": "function"
				},
				{
					"inputs": [
						{
							"internalType": "address[]",
							"name": "owners",
							"type": "address[]"
						},
						{
							"internalType": "uint256[]",
							"name": "ids",
							"type": "uint256[]"
						}
					],
					"name": "balanceOfBatch",
					"outputs": [
						{
							"internalType": "uint256[]",
							"name": "balances",
							"type": "uint256[]"
						}
					],
					"stateMutability": "view",
					"type": "function"
				},
				{
					"inputs": [
						{
							"internalType": "address",
							"name": "",
							"type": "address"
						},
						{
							"internalType": "address",
							"name": "",
							"type": "address"
						}
					],
					"name": "isApprovedForAll",
					"outputs": [
						{
							"internalType": "bool",
							"name": "",
							"type": "bool"
						}
					],
					"stateMutability": "view",
					"type": "function"
				},
				{
					"inputs": [
						{
							"internalType": "address",
							"name": "to",
							"type": "address"
						}
					],
					"name": "mintScholarship",
					"outputs": [],
					"stateMutability": "nonpayable",
					"type": "function"
				},
				{
					"inputs": [],
					"name": "name",
					"outputs": [
						{
							"internalType": "string",
							"name": "",
							"type": "string"
						}
					],
					"stateMutability": "view",
					"type": "function"
				},
				{
					"inputs": [],
					"name": "owner",
					"outputs": [
						{
							"internalType": "address",
							"name": "",
							"type": "address"
						}
					],
					"stateMutability": "view",
					"type": "function"
				},
				{
					"inputs": [
						{
							"internalType": "address",
							"name": "to",
							"type": "address"
						},
						{
							"internalType": "uint256",
							"name": "amount",
							"type": "uint256"
						},
						{
							"internalType": "uint256",
							"name": "tokenId",
							"type": "uint256"
						}
					],
					"name": "ownerMint",
					"outputs": [],
					"stateMutability": "nonpayable",
					"type": "function"
				},
				{
					"inputs": [],
					"name": "renounceOwnership",
					"outputs": [],
					"stateMutability": "nonpayable",
					"type": "function"
				},
				{
					"inputs": [
						{
							"internalType": "address",
							"name": "from",
							"type": "address"
						},
						{
							"internalType": "address",
							"name": "to",
							"type": "address"
						},
						{
							"internalType": "uint256[]",
							"name": "ids",
							"type": "uint256[]"
						},
						{
							"internalType": "uint256[]",
							"name": "amounts",
							"type": "uint256[]"
						},
						{
							"internalType": "bytes",
							"name": "data",
							"type": "bytes"
						}
					],
					"name": "safeBatchTransferFrom",
					"outputs": [],
					"stateMutability": "nonpayable",
					"type": "function"
				},
				{
					"inputs": [
						{
							"internalType": "address",
							"name": "from",
							"type": "address"
						},
						{
							"internalType": "address",
							"name": "to",
							"type": "address"
						},
						{
							"internalType": "uint256",
							"name": "id",
							"type": "uint256"
						},
						{
							"internalType": "uint256",
							"name": "amount",
							"type": "uint256"
						},
						{
							"internalType": "bytes",
							"name": "data",
							"type": "bytes"
						}
					],
					"name": "safeTransferFrom",
					"outputs": [],
					"stateMutability": "nonpayable",
					"type": "function"
				},
				{
					"inputs": [
						{
							"internalType": "address",
							"name": "operator",
							"type": "address"
						},
						{
							"internalType": "bool",
							"name": "approved",
							"type": "bool"
						}
					],
					"name": "setApprovalForAll",
					"outputs": [],
					"stateMutability": "nonpayable",
					"type": "function"
				},
				{
					"inputs": [
						{
							"internalType": "string",
							"name": "_newTokenURI",
							"type": "string"
						},
						{
							"internalType": "uint256",
							"name": "tokenId",
							"type": "uint256"
						}
					],
					"name": "setTokenURI",
					"outputs": [],
					"stateMutability": "nonpayable",
					"type": "function"
				},
				{
					"inputs": [
						{
							"internalType": "address",
							"name": "_vaultAddress",
							"type": "address"
						}
					],
					"name": "setVault",
					"outputs": [],
					"stateMutability": "nonpayable",
					"type": "function"
				},
				{
					"inputs": [
						{
							"internalType": "bytes4",
							"name": "interfaceId",
							"type": "bytes4"
						}
					],
					"name": "supportsInterface",
					"outputs": [
						{
							"internalType": "bool",
							"name": "",
							"type": "bool"
						}
					],
					"stateMutability": "view",
					"type": "function"
				},
				{
					"inputs": [],
					"name": "symbol",
					"outputs": [
						{
							"internalType": "string",
							"name": "",
							"type": "string"
						}
					],
					"stateMutability": "view",
					"type": "function"
				},
				{
					"inputs": [
						{
							"internalType": "uint256",
							"name": "",
							"type": "uint256"
						}
					],
					"name": "tokenURI",
					"outputs": [
						{
							"internalType": "string",
							"name": "",
							"type": "string"
						}
					],
					"stateMutability": "view",
					"type": "function"
				},
				{
					"inputs": [
						{
							"internalType": "uint256",
							"name": "id",
							"type": "uint256"
						}
					],
					"name": "totalSupply",
					"outputs": [
						{
							"internalType": "uint256",
							"name": "",
							"type": "uint256"
						}
					],
					"stateMutability": "view",
					"type": "function"
				},
				{
					"inputs": [
						{
							"internalType": "address",
							"name": "newOwner",
							"type": "address"
						}
					],
					"name": "transferOwnership",
					"outputs": [],
					"stateMutability": "nonpayable",
					"type": "function"
				},
				{
					"inputs": [
						{
							"internalType": "uint256",
							"name": "tokenId",
							"type": "uint256"
						}
					],
					"name": "uri",
					"outputs": [
						{
							"internalType": "string",
							"name": "",
							"type": "string"
						}
					],
					"stateMutability": "view",
					"type": "function"
				},
				{
					"inputs": [],
					"name": "vaultAddress",
					"outputs": [
						{
							"internalType": "address",
							"name": "",
							"type": "address"
						}
					],
					"stateMutability": "view",
					"type": "function"
				},
				{
					"inputs": [],
					"name": "withdraw",
					"outputs": [],
					"stateMutability": "nonpayable",
					"type": "function"
				}
			],
			"devdoc": {
				"kind": "dev",
				"methods": {
					"mintScholarship(address)": {
						"params": {
							"to": "address to mint it to."
						}
					},
					"owner()": {
						"details": "Returns the address of the current owner."
					},
					"ownerMint(address,uint256,uint256)": {
						"params": {
							"amount": "the amount that the owner wants to mint.",
							"to": "address to mint it to.",
							"tokenId": "which token ID 1 for black 2 for general"
						}
					},
					"renounceOwnership()": {
						"details": "Leaves the contract without owner. It will not be possible to call `onlyOwner` functions anymore. Can only be called by the current owner. NOTE: Renouncing ownership will leave the contract without an owner, thereby removing any functionality that is only available to the owner."
					},
					"setTokenURI(string,uint256)": {
						"params": {
							"_newTokenURI": "this is the new token uri",
							"tokenId": "this is the token ID that will be set"
						}
					},
					"setVault(address)": {
						"params": {
							"_vaultAddress": "is the new vaultAddress"
						}
					},
					"totalSupply(uint256)": {
						"params": {
							"id": "is the ID, either generalTokenId or blackTokenId"
						}
					},
					"transferOwnership(address)": {
						"details": "Transfers ownership of the contract to a new account (`newOwner`). Can only be called by the current owner."
					},
					"uri(uint256)": {
						"params": {
							"tokenId": "which token ID to return 1 or 2."
						}
					}
				},
				"title": "TestMintPassv12A",
				"version": 1
			},
			"evm": {
				"assembly": "    /* \"contracts/Test Mint Pass v12A.sol\":502:6055  contract TestMintPassv12A is ERC1155, Ownable {... */\n  mstore(0x40, 0x0140)\n    /* \"contracts/Test Mint Pass v12A.sol\":1056:1059  166 */\n  0xa6\n    /* \"contracts/Test Mint Pass v12A.sol\":999:1059  uint256 public immutable Test_Mint_Pass_BlackMaxSupply = 166 */\n  0x80\n  mstore\n    /* \"contracts/Test Mint Pass v12A.sol\":1121:1124  330 */\n  0x014a\n    /* \"contracts/Test Mint Pass v12A.sol\":1065:1124  uint256 public immutable Test_Mint_Pass_BlueMaxSupply = 330 */\n  0xa0\n  mstore\n    /* \"contracts/Test Mint Pass v12A.sol\":1194:1196  17 */\n  0x11\n    /* \"contracts/Test Mint Pass v12A.sol\":1130:1196  uint256 public immutable Test_Mint_Pass_BlackScholarshipTotal = 17 */\n  0xc0\n  mstore\n    /* \"contracts/Test Mint Pass v12A.sol\":1265:1267  33 */\n  0x21\n    /* \"contracts/Test Mint Pass v12A.sol\":1202:1267  uint256 public immutable Test_Mint_Pass_BlueScholarshipTotal = 33 */\n  0xe0\n  mstore\n    /* \"contracts/Test Mint Pass v12A.sol\":1329:1330  1 */\n  0x01\n    /* \"contracts/Test Mint Pass v12A.sol\":1274:1330  uint256 public immutable Test_Mint_Pass_BlackTokenId = 1 */\n  0x0100\n  mstore\n    /* \"contracts/Test Mint Pass v12A.sol\":1390:1391  2 */\n  0x02\n    /* \"contracts/Test Mint Pass v12A.sol\":1336:1391  uint256 public immutable Test_Mint_Pass_BlueTokenId = 2 */\n  0x0120\n  mstore\n    /* \"contracts/Test Mint Pass v12A.sol\":2089:2775  constructor(... */\n  callvalue\n  dup1\n  iszero\n  tag_1\n  jumpi\n  0x00\n  dup1\n  revert\ntag_1:\n  pop\n  mload(0x40)\n  sub(codesize, bytecodeSize)\n  dup1\n  bytecodeSize\n  dup4\n  codecopy\n  dup2\n  add\n  0x40\n  dup2\n  swap1\n  mstore\n  tag_2\n  swap2\n  tag_3\n  jump\t// in\ntag_2:\n    /* \"contracts/Ownable.sol\":942:974  _transferOwnership(_msgSender()) */\n  tag_7\n    /* \"@openzeppelin/contracts/utils/Context.sol\":719:729  msg.sender */\n  caller\n    /* \"contracts/Ownable.sol\":942:960  _transferOwnership */\n  tag_10\n    /* \"contracts/Ownable.sol\":942:974  _transferOwnership(_msgSender()) */\n  jump\t// in\ntag_7:\n    /* \"contracts/Test Mint Pass v12A.sol\":2307:2336  _name = \"Test Mint Pass v12A\" */\n  mload(0x40)\n  dup1\n  0x40\n  add\n  0x40\n  mstore\n  dup1\n  0x13\n  dup2\n  mstore\n  0x20\n  add\n  0x54657374204d696e742050617373207631324100000000000000000000000000\n  dup2\n  mstore\n  pop\n  swap5\n  pop\n    /* \"contracts/Test Mint Pass v12A.sol\":2346:2373  _symbol = \"&#10047;TMPV10I\" */\n  mload(0x40)\n  dup1\n  0x40\n  add\n  0x40\n  mstore\n  dup1\n  0x0f\n  dup2\n  mstore\n  0x20\n  add\n  shl(0x88, 0x262331303034373b544d5056313049)\n  dup2\n  mstore\n  pop\n  swap4\n  pop\n    /* \"contracts/Test Mint Pass v12A.sol\":2539:2581  0xC83BeBa473Dd6Bd1890519Ee0EEe2aC4Fa5836B5 */\n  0xc83beba473dd6bd1890519ee0eee2ac4fa5836b5\n    /* \"contracts/Test Mint Pass v12A.sol\":2523:2581  _vaultAddress = 0xC83BeBa473Dd6Bd1890519Ee0EEe2aC4Fa5836B5 */\n  swap3\n  pop\n    /* \"contracts/Test Mint Pass v12A.sol\":2591:2674  _TestMintPassBlueTokenUri = \"ipfs://QmcF3UrWPvyn95QW1Bu92Zj6UvFZ9SJGU8FmpFXFd6exeH\" */\n  mload(0x40)\n  dup1\n  0x60\n  add\n  0x40\n  mstore\n  dup1\n  0x35\n  dup2\n  mstore\n  0x20\n  add\n  data_81e3e779d26b52f3b70cf1f316856bf926a1e9c7fa506456d5d886df98517a32\n  0x35\n  swap2\n  codecopy\n  swap1\n  pop\n    /* \"contracts/Test Mint Pass v12A.sol\":2684:2768  _TestMintPassBlackTokenUri = \"ipfs://QmQPHEhnjtRGo2mhuGVpUhUqzpqZM773baiCRt6AYVn8yk\" */\n  mload(0x40)\n  dup1\n  0x60\n  add\n  0x40\n  mstore\n  dup1\n  0x35\n  dup2\n  mstore\n  0x20\n  add\n  data_013979db04d5eaac7dba88b615b122267c4942f2d42bac3828de122531ec347e\n  0x35\n  swap2\n  codecopy\n  swap2\n  pop\n    /* \"contracts/Test Mint Pass v12A.sol\":2089:2775  constructor(... */\n  pop\n  pop\n  pop\n  pop\n  pop\n    /* \"contracts/Test Mint Pass v12A.sol\":502:6055  contract TestMintPassv12A is ERC1155, Ownable {... */\n  jump(tag_17)\n    /* \"contracts/Ownable.sol\":2291:2478  function _transferOwnership(address newOwner) internal virtual {... */\ntag_10:\n    /* \"contracts/Ownable.sol\":2383:2389  _owner */\n  0x02\n  dup1\n  sload\n  sub(shl(0xa0, 0x01), 0x01)\n    /* \"contracts/Ownable.sol\":2399:2416  _owner = newOwner */\n  dup4\n  dup2\n  and\n  not(sub(shl(0xa0, 0x01), 0x01))\n  dup4\n  and\n  dup2\n  or\n  swap1\n  swap4\n  sstore\n    /* \"contracts/Ownable.sol\":2431:2471  OwnershipTransferred(oldOwner, newOwner) */\n  mload(0x40)\n    /* \"contracts/Ownable.sol\":2383:2389  _owner */\n  swap2\n  and\n  swap2\n    /* \"contracts/Ownable.sol\":2399:2416  _owner = newOwner */\n  swap1\n    /* \"contracts/Ownable.sol\":2383:2389  _owner */\n  dup3\n  swap1\n    /* \"contracts/Ownable.sol\":2431:2471  OwnershipTransferred(oldOwner, newOwner) */\n  0x8be0079c531659141344cd1fd0a4f28419497f9722a3daafe3b4186f6b6457e0\n  swap1\n    /* \"contracts/Ownable.sol\":2364:2380  address oldOwner */\n  0x00\n  swap1\n    /* \"contracts/Ownable.sol\":2431:2471  OwnershipTransferred(oldOwner, newOwner) */\n  log3\n    /* \"contracts/Ownable.sol\":2354:2478  {... */\n  pop\n    /* \"contracts/Ownable.sol\":2291:2478  function _transferOwnership(address newOwner) internal virtual {... */\n  pop\n  jump\t// out\n    /* \"#utility.yul\":14:141   */\ntag_15:\n    /* \"#utility.yul\":75:85   */\n  0x4e487b71\n    /* \"#utility.yul\":70:73   */\n  0xe0\n    /* \"#utility.yul\":66:86   */\n  shl\n    /* \"#utility.yul\":63:64   */\n  0x00\n    /* \"#utility.yul\":56:87   */\n  mstore\n    /* \"#utility.yul\":106:110   */\n  0x41\n    /* \"#utility.yul\":103:104   */\n  0x04\n    /* \"#utility.yul\":96:111   */\n  mstore\n    /* \"#utility.yul\":130:134   */\n  0x24\n    /* \"#utility.yul\":127:128   */\n  0x00\n    /* \"#utility.yul\":120:135   */\n  revert\n    /* \"#utility.yul\":146:1031   */\ntag_16:\n    /* \"#utility.yul\":200:205   */\n  0x00\n    /* \"#utility.yul\":253:256   */\n  dup3\n    /* \"#utility.yul\":246:250   */\n  0x1f\n    /* \"#utility.yul\":238:244   */\n  dup4\n    /* \"#utility.yul\":234:251   */\n  add\n    /* \"#utility.yul\":230:257   */\n  slt\n    /* \"#utility.yul\":220:275   */\n  tag_20\n  jumpi\n    /* \"#utility.yul\":271:272   */\n  0x00\n    /* \"#utility.yul\":268:269   */\n  dup1\n    /* \"#utility.yul\":261:273   */\n  revert\n    /* \"#utility.yul\":220:275   */\ntag_20:\n    /* \"#utility.yul\":294:307   */\n  dup2\n  mload\n  sub(shl(0x40, 0x01), 0x01)\n    /* \"#utility.yul\":356:366   */\n  dup1\n  dup3\n  gt\n    /* \"#utility.yul\":353:389   */\n  iszero\n  tag_22\n  jumpi\n    /* \"#utility.yul\":369:387   */\n  tag_22\n  tag_15\n  jump\t// in\ntag_22:\n    /* \"#utility.yul\":444:446   */\n  0x40\n    /* \"#utility.yul\":438:447   */\n  mload\n    /* \"#utility.yul\":412:414   */\n  0x1f\n    /* \"#utility.yul\":498:511   */\n  dup4\n  add\n  not(0x1f)\n    /* \"#utility.yul\":494:516   */\n  swap1\n  dup2\n  and\n    /* \"#utility.yul\":518:520   */\n  0x3f\n    /* \"#utility.yul\":490:521   */\n  add\n    /* \"#utility.yul\":486:526   */\n  and\n    /* \"#utility.yul\":474:527   */\n  dup2\n  add\n  swap1\n    /* \"#utility.yul\":542:560   */\n  dup3\n  dup3\n  gt\n    /* \"#utility.yul\":562:584   */\n  dup2\n  dup4\n  lt\n    /* \"#utility.yul\":539:585   */\n  or\n    /* \"#utility.yul\":536:608   */\n  iszero\n  tag_24\n  jumpi\n    /* \"#utility.yul\":588:606   */\n  tag_24\n  tag_15\n  jump\t// in\ntag_24:\n    /* \"#utility.yul\":628:638   */\n  dup2\n    /* \"#utility.yul\":624:626   */\n  0x40\n    /* \"#utility.yul\":617:639   */\n  mstore\n    /* \"#utility.yul\":663:665   */\n  dup4\n    /* \"#utility.yul\":655:661   */\n  dup2\n    /* \"#utility.yul\":648:666   */\n  mstore\n    /* \"#utility.yul\":685:689   */\n  0x20\n    /* \"#utility.yul\":675:689   */\n  swap3\n  pop\n    /* \"#utility.yul\":730:733   */\n  dup7\n    /* \"#utility.yul\":725:727   */\n  dup4\n    /* \"#utility.yul\":720:722   */\n  dup6\n    /* \"#utility.yul\":712:718   */\n  dup9\n    /* \"#utility.yul\":708:723   */\n  add\n    /* \"#utility.yul\":704:728   */\n  add\n    /* \"#utility.yul\":701:734   */\n  gt\n    /* \"#utility.yul\":698:751   */\n  iszero\n  tag_25\n  jumpi\n    /* \"#utility.yul\":747:748   */\n  0x00\n    /* \"#utility.yul\":744:745   */\n  dup1\n    /* \"#utility.yul\":737:749   */\n  revert\n    /* \"#utility.yul\":698:751   */\ntag_25:\n    /* \"#utility.yul\":769:770   */\n  0x00\n    /* \"#utility.yul\":760:770   */\n  swap2\n  pop\n    /* \"#utility.yul\":779:912   */\ntag_26:\n    /* \"#utility.yul\":793:795   */\n  dup4\n    /* \"#utility.yul\":790:791   */\n  dup3\n    /* \"#utility.yul\":787:796   */\n  lt\n    /* \"#utility.yul\":779:912   */\n  iszero\n  tag_28\n  jumpi\n    /* \"#utility.yul\":881:895   */\n  dup6\n  dup3\n  add\n    /* \"#utility.yul\":877:900   */\n  dup4\n  add\n    /* \"#utility.yul\":871:901   */\n  mload\n    /* \"#utility.yul\":850:864   */\n  dup2\n  dup4\n  add\n    /* \"#utility.yul\":846:869   */\n  dup5\n  add\n    /* \"#utility.yul\":839:902   */\n  mstore\n    /* \"#utility.yul\":804:814   */\n  swap1\n  dup3\n  add\n  swap1\n    /* \"#utility.yul\":779:912   */\n  jump(tag_26)\ntag_28:\n    /* \"#utility.yul\":930:932   */\n  dup4\n    /* \"#utility.yul\":927:928   */\n  dup3\n    /* \"#utility.yul\":924:933   */\n  gt\n    /* \"#utility.yul\":921:1001   */\n  iszero\n  tag_29\n  jumpi\n    /* \"#utility.yul\":989:990   */\n  0x00\n    /* \"#utility.yul\":984:986   */\n  dup4\n    /* \"#utility.yul\":979:981   */\n  dup6\n    /* \"#utility.yul\":971:977   */\n  dup4\n    /* \"#utility.yul\":967:982   */\n  add\n    /* \"#utility.yul\":963:987   */\n  add\n    /* \"#utility.yul\":956:991   */\n  mstore\n    /* \"#utility.yul\":921:1001   */\ntag_29:\n    /* \"#utility.yul\":1019:1025   */\n  swap7\n    /* \"#utility.yul\":146:1031   */\n  swap6\n  pop\n  pop\n  pop\n  pop\n  pop\n  pop\n  jump\t// out\n    /* \"#utility.yul\":1036:2175   */\ntag_3:\n    /* \"#utility.yul\":1182:1188   */\n  0x00\n    /* \"#utility.yul\":1190:1196   */\n  dup1\n    /* \"#utility.yul\":1198:1204   */\n  0x00\n    /* \"#utility.yul\":1206:1212   */\n  dup1\n    /* \"#utility.yul\":1214:1220   */\n  0x00\n    /* \"#utility.yul\":1267:1270   */\n  0xa0\n    /* \"#utility.yul\":1255:1264   */\n  dup7\n    /* \"#utility.yul\":1246:1253   */\n  dup9\n    /* \"#utility.yul\":1242:1265   */\n  sub\n    /* \"#utility.yul\":1238:1271   */\n  slt\n    /* \"#utility.yul\":1235:1288   */\n  iszero\n  tag_31\n  jumpi\n    /* \"#utility.yul\":1284:1285   */\n  0x00\n    /* \"#utility.yul\":1281:1282   */\n  dup1\n    /* \"#utility.yul\":1274:1286   */\n  revert\n    /* \"#utility.yul\":1235:1288   */\ntag_31:\n    /* \"#utility.yul\":1311:1327   */\n  dup6\n  mload\n  sub(shl(0x40, 0x01), 0x01)\n    /* \"#utility.yul\":1376:1390   */\n  dup1\n  dup3\n  gt\n    /* \"#utility.yul\":1373:1407   */\n  iszero\n  tag_32\n  jumpi\n    /* \"#utility.yul\":1403:1404   */\n  0x00\n    /* \"#utility.yul\":1400:1401   */\n  dup1\n    /* \"#utility.yul\":1393:1405   */\n  revert\n    /* \"#utility.yul\":1373:1407   */\ntag_32:\n    /* \"#utility.yul\":1426:1487   */\n  tag_33\n    /* \"#utility.yul\":1479:1486   */\n  dup10\n    /* \"#utility.yul\":1470:1476   */\n  dup4\n    /* \"#utility.yul\":1459:1468   */\n  dup11\n    /* \"#utility.yul\":1455:1477   */\n  add\n    /* \"#utility.yul\":1426:1487   */\n  tag_16\n  jump\t// in\ntag_33:\n    /* \"#utility.yul\":1416:1487   */\n  swap7\n  pop\n    /* \"#utility.yul\":1533:1535   */\n  0x20\n    /* \"#utility.yul\":1522:1531   */\n  dup9\n    /* \"#utility.yul\":1518:1536   */\n  add\n    /* \"#utility.yul\":1512:1537   */\n  mload\n    /* \"#utility.yul\":1496:1537   */\n  swap2\n  pop\n    /* \"#utility.yul\":1562:1564   */\n  dup1\n    /* \"#utility.yul\":1552:1560   */\n  dup3\n    /* \"#utility.yul\":1549:1565   */\n  gt\n    /* \"#utility.yul\":1546:1582   */\n  iszero\n  tag_34\n  jumpi\n    /* \"#utility.yul\":1578:1579   */\n  0x00\n    /* \"#utility.yul\":1575:1576   */\n  dup1\n    /* \"#utility.yul\":1568:1580   */\n  revert\n    /* \"#utility.yul\":1546:1582   */\ntag_34:\n    /* \"#utility.yul\":1601:1664   */\n  tag_35\n    /* \"#utility.yul\":1656:1663   */\n  dup10\n    /* \"#utility.yul\":1645:1653   */\n  dup4\n    /* \"#utility.yul\":1634:1643   */\n  dup11\n    /* \"#utility.yul\":1630:1654   */\n  add\n    /* \"#utility.yul\":1601:1664   */\n  tag_16\n  jump\t// in\ntag_35:\n    /* \"#utility.yul\":1707:1709   */\n  0x40\n    /* \"#utility.yul\":1692:1710   */\n  dup10\n  add\n    /* \"#utility.yul\":1686:1711   */\n  mload\n    /* \"#utility.yul\":1591:1664   */\n  swap1\n  swap7\n  pop\n    /* \"#utility.yul\":1686:1711   */\n  swap2\n  pop\n  sub(shl(0xa0, 0x01), 0x01)\n    /* \"#utility.yul\":1740:1771   */\n  dup3\n  and\n    /* \"#utility.yul\":1730:1772   */\n  dup3\n  eq\n    /* \"#utility.yul\":1720:1790   */\n  tag_36\n  jumpi\n    /* \"#utility.yul\":1786:1787   */\n  0x00\n    /* \"#utility.yul\":1783:1784   */\n  dup1\n    /* \"#utility.yul\":1776:1788   */\n  revert\n    /* \"#utility.yul\":1720:1790   */\ntag_36:\n    /* \"#utility.yul\":1860:1862   */\n  0x60\n    /* \"#utility.yul\":1845:1863   */\n  dup9\n  add\n    /* \"#utility.yul\":1839:1864   */\n  mload\n    /* \"#utility.yul\":1809:1814   */\n  swap2\n  swap5\n  pop\n    /* \"#utility.yul\":1876:1892   */\n  dup1\n  dup3\n  gt\n    /* \"#utility.yul\":1873:1909   */\n  iszero\n  tag_37\n  jumpi\n    /* \"#utility.yul\":1905:1906   */\n  0x00\n    /* \"#utility.yul\":1902:1903   */\n  dup1\n    /* \"#utility.yul\":1895:1907   */\n  revert\n    /* \"#utility.yul\":1873:1909   */\ntag_37:\n    /* \"#utility.yul\":1928:1991   */\n  tag_38\n    /* \"#utility.yul\":1983:1990   */\n  dup10\n    /* \"#utility.yul\":1972:1980   */\n  dup4\n    /* \"#utility.yul\":1961:1970   */\n  dup11\n    /* \"#utility.yul\":1957:1981   */\n  add\n    /* \"#utility.yul\":1928:1991   */\n  tag_16\n  jump\t// in\ntag_38:\n    /* \"#utility.yul\":1918:1991   */\n  swap4\n  pop\n    /* \"#utility.yul\":2037:2040   */\n  0x80\n    /* \"#utility.yul\":2026:2035   */\n  dup9\n    /* \"#utility.yul\":2022:2041   */\n  add\n    /* \"#utility.yul\":2016:2042   */\n  mload\n    /* \"#utility.yul\":2000:2042   */\n  swap2\n  pop\n    /* \"#utility.yul\":2067:2069   */\n  dup1\n    /* \"#utility.yul\":2057:2065   */\n  dup3\n    /* \"#utility.yul\":2054:2070   */\n  gt\n    /* \"#utility.yul\":2051:2087   */\n  iszero\n  tag_39\n  jumpi\n    /* \"#utility.yul\":2083:2084   */\n  0x00\n    /* \"#utility.yul\":2080:2081   */\n  dup1\n    /* \"#utility.yul\":2073:2085   */\n  revert\n    /* \"#utility.yul\":2051:2087   */\ntag_39:\n  pop\n    /* \"#utility.yul\":2106:2169   */\n  tag_40\n    /* \"#utility.yul\":2161:2168   */\n  dup9\n    /* \"#utility.yul\":2150:2158   */\n  dup3\n    /* \"#utility.yul\":2139:2148   */\n  dup10\n    /* \"#utility.yul\":2135:2159   */\n  add\n    /* \"#utility.yul\":2106:2169   */\n  tag_16\n  jump\t// in\ntag_40:\n    /* \"#utility.yul\":2096:2169   */\n  swap2\n  pop\n  pop\n    /* \"#utility.yul\":1036:2175   */\n  swap3\n  swap6\n  pop\n  swap3\n  swap6\n  swap1\n  swap4\n  pop\n  jump\t// out\ntag_17:\n    /* \"contracts/Test Mint Pass v12A.sol\":502:6055  contract TestMintPassv12A is ERC1155, Ownable {... */\n  mload(0x80)\n  mload(0xa0)\n  mload(0xc0)\n  mload(0xe0)\n  mload(0x0100)\n  mload(0x0120)\n  codecopy(0x00, dataOffset(sub_0), dataSize(sub_0))\n  0x00\n  assignImmutable(\"0xdd6ebedecc3782991b040722d05346ae76115706b237b0f241066a60ee7c2169\")\n  0x00\n  assignImmutable(\"0xf598d05e51facafddb4666a870ba9c91ee31463df052628aed50dc3216257420\")\n  0x00\n  assignImmutable(\"0xd188a1da6d6dfc972f5d1614b9a5ea681202f643e26bdaa8898fb08d79dc84fc\")\n  0x00\n  assignImmutable(\"0x14502941cdfbd1b140f463b7c0eceb6872b4ceed672dc2d6c10bcedbce3171c9\")\n  0x00\n  assignImmutable(\"0x1cecd53757ff41334b0aac95136e45c28b8f0c7557fa90afd0025eaeb7956e02\")\n  0x00\n  assignImmutable(\"0x54d74a311c644ec85dcac6b0313416846d72906b540389d43ad99715f0c32312\")\n  return(0x00, dataSize(sub_0))\nstop\ndata_013979db04d5eaac7dba88b615b122267c4942f2d42bac3828de122531ec347e 697066733a2f2f516d51504845686e6a7452476f326d6875475670556855717a70715a4d373733626169435274364159566e38796b\ndata_81e3e779d26b52f3b70cf1f316856bf926a1e9c7fa506456d5d886df98517a32 697066733a2f2f516d6346335572575076796e3935515731427539325a6a365576465a39534a475538466d70465846643665786548\n\nsub_0: assembly {\n        /* \"contracts/Test Mint Pass v12A.sol\":502:6055  contract TestMintPassv12A is ERC1155, Ownable {... */\n      mstore(0x40, 0x80)\n      callvalue\n      dup1\n      iszero\n      tag_1\n      jumpi\n      0x00\n      dup1\n      revert\n    tag_1:\n      pop\n      jumpi(tag_2, lt(calldatasize, 0x04))\n      shr(0xe0, calldataload(0x00))\n      dup1\n      0x71d05aec\n      gt\n      tag_34\n      jumpi\n      dup1\n      0xcbf99084\n      gt\n      tag_35\n      jumpi\n      dup1\n      0xe985e9c5\n      gt\n      tag_36\n      jumpi\n      dup1\n      0xe985e9c5\n      eq\n      tag_30\n      jumpi\n      dup1\n      0xf242432a\n      eq\n      tag_31\n      jumpi\n      dup1\n      0xf2fde38b\n      eq\n      tag_32\n      jumpi\n      dup1\n      0xf48deaaa\n      eq\n      tag_33\n      jumpi\n      0x00\n      dup1\n      revert\n    tag_36:\n      dup1\n      0xcbf99084\n      eq\n      tag_26\n      jumpi\n      dup1\n      0xcc2851c6\n      eq\n      tag_27\n      jumpi\n      dup1\n      0xdec125ba\n      eq\n      tag_28\n      jumpi\n      dup1\n      0xdf52fa84\n      eq\n      tag_29\n      jumpi\n      0x00\n      dup1\n      revert\n    tag_35:\n      dup1\n      0x9fa3cda1\n      gt\n      tag_37\n      jumpi\n      dup1\n      0x9fa3cda1\n      eq\n      tag_22\n      jumpi\n      dup1\n      0xa22cb465\n      eq\n      tag_23\n      jumpi\n      dup1\n      0xbd85b039\n      eq\n      tag_24\n      jumpi\n      dup1\n      0xc87b56dd\n      eq\n      tag_25\n      jumpi\n      0x00\n      dup1\n      revert\n    tag_37:\n      dup1\n      0x71d05aec\n      eq\n      tag_18\n      jumpi\n      dup1\n      0x8da5cb5b\n      eq\n      tag_19\n      jumpi\n      dup1\n      0x95d89b41\n      eq\n      tag_20\n      jumpi\n      dup1\n      0x9e3cf643\n      eq\n      tag_21\n      jumpi\n      0x00\n      dup1\n      revert\n    tag_34:\n      dup1\n      0x2eb2c2d6\n      gt\n      tag_38\n      jumpi\n      dup1\n      0x45114990\n      gt\n      tag_39\n      jumpi\n      dup1\n      0x45114990\n      eq\n      tag_14\n      jumpi\n      dup1\n      0x4e1273f4\n      eq\n      tag_15\n      jumpi\n      dup1\n      0x6817031b\n      eq\n      tag_16\n      jumpi\n      dup1\n      0x715018a6\n      eq\n      tag_17\n      jumpi\n      0x00\n      dup1\n      revert\n    tag_39:\n      dup1\n      0x2eb2c2d6\n      eq\n      tag_10\n      jumpi\n      dup1\n      0x388b9fe0\n      eq\n      tag_11\n      jumpi\n      dup1\n      0x3ccfd60b\n      eq\n      tag_12\n      jumpi\n      dup1\n      0x430bf08a\n      eq\n      tag_13\n      jumpi\n      0x00\n      dup1\n      revert\n    tag_38:\n      dup1\n      0x09a3beef\n      gt\n      tag_40\n      jumpi\n      dup1\n      0x09a3beef\n      eq\n      tag_6\n      jumpi\n      dup1\n      0x0b22f540\n      eq\n      tag_7\n      jumpi\n      dup1\n      0x0e89341c\n      eq\n      tag_8\n      jumpi\n      dup1\n      0x16473cf7\n      eq\n      tag_9\n      jumpi\n      0x00\n      dup1\n      revert\n    tag_40:\n      dup1\n      0xfdd58e\n      eq\n      tag_3\n      jumpi\n      dup1\n      0x01ffc9a7\n      eq\n      tag_4\n      jumpi\n      dup1\n      0x06fdde03\n      eq\n      tag_5\n      jumpi\n    tag_2:\n      0x00\n      dup1\n      revert\n        /* \"contracts/ERC1155.sol\":1116:1180  mapping(address => mapping(uint256 => uint256)) public balanceOf */\n    tag_3:\n      tag_41\n      tag_42\n      calldatasize\n      0x04\n      tag_43\n      jump\t// in\n    tag_42:\n      0x00\n      0x20\n      dup2\n      dup2\n      mstore\n      swap3\n      dup2\n      mstore\n      0x40\n      dup1\n      dup3\n      keccak256\n      swap1\n      swap4\n      mstore\n      swap1\n      dup2\n      mstore\n      keccak256\n      sload\n      dup2\n      jump\n    tag_41:\n      mload(0x40)\n        /* \"#utility.yul\":597:622   */\n      swap1\n      dup2\n      mstore\n        /* \"#utility.yul\":585:587   */\n      0x20\n        /* \"#utility.yul\":570:588   */\n      add\n        /* \"contracts/ERC1155.sol\":1116:1180  mapping(address => mapping(uint256 => uint256)) public balanceOf */\n    tag_45:\n      mload(0x40)\n      dup1\n      swap2\n      sub\n      swap1\n      return\n        /* \"contracts/ERC1155.sol\":4603:4943  function supportsInterface(bytes4 interfaceId) public view virtual returns (bool) {... */\n    tag_4:\n      tag_47\n      tag_48\n      calldatasize\n      0x04\n      tag_49\n      jump\t// in\n    tag_48:\n      tag_50\n      jump\t// in\n    tag_47:\n      mload(0x40)\n        /* \"#utility.yul\":1184:1198   */\n      swap1\n      iszero\n        /* \"#utility.yul\":1177:1199   */\n      iszero\n        /* \"#utility.yul\":1159:1200   */\n      dup2\n      mstore\n        /* \"#utility.yul\":1147:1149   */\n      0x20\n        /* \"#utility.yul\":1132:1150   */\n      add\n        /* \"contracts/ERC1155.sol\":4603:4943  function supportsInterface(bytes4 interfaceId) public view virtual returns (bool) {... */\n      tag_45\n        /* \"#utility.yul\":1019:1206   */\n      jump\n        /* \"contracts/Test Mint Pass v12A.sol\":737:755  string public name */\n    tag_5:\n      tag_53\n      tag_54\n      jump\t// in\n    tag_53:\n      mload(0x40)\n      tag_45\n      swap2\n      swap1\n      tag_56\n      jump\t// in\n        /* \"contracts/Test Mint Pass v12A.sol\":3356:3500  function setTokenURI(string memory _newTokenURI, uint256 tokenId)... */\n    tag_6:\n      tag_57\n      tag_58\n      calldatasize\n      0x04\n      tag_59\n      jump\t// in\n    tag_58:\n      tag_60\n      jump\t// in\n    tag_57:\n      stop\n        /* \"contracts/Test Mint Pass v12A.sol\":1845:1903  mapping(address => uint256) public TestMintPassBlackMinted */\n    tag_7:\n      tag_41\n      tag_62\n      calldatasize\n      0x04\n      tag_63\n      jump\t// in\n    tag_62:\n      mstore(0x20, 0x09)\n      0x00\n      swap1\n      dup2\n      mstore\n      0x40\n      swap1\n      keccak256\n      sload\n      dup2\n      jump\n        /* \"contracts/Test Mint Pass v12A.sol\":5797:6051  function uri(uint256 tokenId)... */\n    tag_8:\n      tag_53\n      tag_67\n      calldatasize\n      0x04\n      tag_68\n      jump\t// in\n    tag_67:\n      tag_69\n      jump\t// in\n        /* \"contracts/Test Mint Pass v12A.sol\":3595:3880  function mintScholarship(address to) public onlyOwner {... */\n    tag_9:\n      tag_57\n      tag_72\n      calldatasize\n      0x04\n      tag_63\n      jump\t// in\n    tag_72:\n      tag_73\n      jump\t// in\n        /* \"contracts/ERC1155.sol\":2617:3826  function safeBatchTransferFrom(... */\n    tag_10:\n      tag_57\n      tag_75\n      calldatasize\n      0x04\n      tag_76\n      jump\t// in\n    tag_75:\n      tag_77\n      jump\t// in\n        /* \"contracts/Test Mint Pass v12A.sol\":4202:5049  function ownerMint(... */\n    tag_11:\n      tag_57\n      tag_79\n      calldatasize\n      0x04\n      tag_80\n      jump\t// in\n    tag_79:\n      tag_81\n      jump\t// in\n        /* \"contracts/Test Mint Pass v12A.sol\":5311:5496  function withdraw() public onlyOwner {... */\n    tag_12:\n      tag_57\n      tag_83\n      jump\t// in\n        /* \"contracts/Test Mint Pass v12A.sol\":787:814  address public vaultAddress */\n    tag_13:\n      sload(0x05)\n      tag_84\n      swap1\n      sub(shl(0xa0, 0x01), 0x01)\n      and\n      dup2\n      jump\n    tag_84:\n      mload(0x40)\n      sub(shl(0xa0, 0x01), 0x01)\n        /* \"#utility.yul\":5856:5888   */\n      swap1\n      swap2\n      and\n        /* \"#utility.yul\":5838:5889   */\n      dup2\n      mstore\n        /* \"#utility.yul\":5826:5828   */\n      0x20\n        /* \"#utility.yul\":5811:5829   */\n      add\n        /* \"contracts/Test Mint Pass v12A.sol\":787:814  address public vaultAddress */\n      tag_45\n        /* \"#utility.yul\":5692:5895   */\n      jump\n        /* \"contracts/Test Mint Pass v12A.sol\":1065:1124  uint256 public immutable Test_Mint_Pass_BlueMaxSupply = 330 */\n    tag_14:\n      tag_41\n      immutable(\"0x1cecd53757ff41334b0aac95136e45c28b8f0c7557fa90afd0025eaeb7956e02\")\n      dup2\n      jump\n        /* \"contracts/ERC1155.sol\":3832:4415  function balanceOfBatch(address[] calldata owners, uint256[] calldata ids)... */\n    tag_15:\n      tag_91\n      tag_92\n      calldatasize\n      0x04\n      tag_93\n      jump\t// in\n    tag_92:\n      tag_94\n      jump\t// in\n    tag_91:\n      mload(0x40)\n      tag_45\n      swap2\n      swap1\n      tag_96\n      jump\t// in\n        /* \"contracts/Test Mint Pass v12A.sol\":5594:5697  function setVault(address _vaultAddress) public onlyOwner {... */\n    tag_16:\n      tag_57\n      tag_98\n      calldatasize\n      0x04\n      tag_63\n      jump\t// in\n    tag_98:\n      tag_99\n      jump\t// in\n        /* \"contracts/Ownable.sol\":1689:1790  function renounceOwnership() public virtual onlyOwner {... */\n    tag_17:\n      tag_57\n      tag_101\n      jump\t// in\n        /* \"contracts/Test Mint Pass v12A.sol\":1336:1391  uint256 public immutable Test_Mint_Pass_BlueTokenId = 2 */\n    tag_18:\n      tag_41\n      immutable(\"0xdd6ebedecc3782991b040722d05346ae76115706b237b0f241066a60ee7c2169\")\n      dup2\n      jump\n        /* \"contracts/Ownable.sol\":1057:1142  function owner() public view virtual returns (address) {... */\n    tag_19:\n        /* \"contracts/Ownable.sol\":1129:1135  _owner */\n      and(sub(shl(0xa0, 0x01), 0x01), sload(0x02))\n        /* \"contracts/Ownable.sol\":1057:1142  function owner() public view virtual returns (address) {... */\n      jump(tag_84)\n        /* \"contracts/Test Mint Pass v12A.sol\":761:781  string public symbol */\n    tag_20:\n      tag_53\n      tag_109\n      jump\t// in\n        /* \"contracts/Test Mint Pass v12A.sol\":1274:1330  uint256 public immutable Test_Mint_Pass_BlackTokenId = 1 */\n    tag_21:\n      tag_41\n      immutable(\"0xf598d05e51facafddb4666a870ba9c91ee31463df052628aed50dc3216257420\")\n      dup2\n      jump\n        /* \"contracts/Test Mint Pass v12A.sol\":1782:1839  mapping(address => uint256) public TestMintPassBlueMinted */\n    tag_22:\n      tag_41\n      tag_115\n      calldatasize\n      0x04\n      tag_63\n      jump\t// in\n    tag_115:\n      mstore(0x20, 0x08)\n      0x00\n      swap1\n      dup2\n      mstore\n      0x40\n      swap1\n      keccak256\n      sload\n      dup2\n      jump\n        /* \"contracts/ERC1155.sol\":1703:1906  function setApprovalForAll(address operator, bool approved) public virtual {... */\n    tag_23:\n      tag_57\n      tag_119\n      calldatasize\n      0x04\n      tag_120\n      jump\t// in\n    tag_119:\n      tag_121\n      jump\t// in\n        /* \"contracts/Test Mint Pass v12A.sol\":2890:3001  function totalSupply(uint256 id) public view virtual returns (uint256) {... */\n    tag_24:\n      tag_41\n      tag_123\n      calldatasize\n      0x04\n      tag_68\n      jump\t// in\n    tag_123:\n        /* \"contracts/Test Mint Pass v12A.sol\":2952:2959  uint256 */\n      0x00\n        /* \"contracts/Test Mint Pass v12A.sol\":2978:2994  _totalSupply[id] */\n      swap1\n      dup2\n      mstore\n        /* \"contracts/Test Mint Pass v12A.sol\":2978:2990  _totalSupply */\n      0x06\n        /* \"contracts/Test Mint Pass v12A.sol\":2978:2994  _totalSupply[id] */\n      0x20\n      mstore\n      0x40\n      swap1\n      keccak256\n      sload\n      swap1\n        /* \"contracts/Test Mint Pass v12A.sol\":2890:3001  function totalSupply(uint256 id) public view virtual returns (uint256) {... */\n      jump\n        /* \"contracts/Test Mint Pass v12A.sol\":1734:1776  mapping(uint256 => string) public tokenURI */\n    tag_25:\n      tag_53\n      tag_127\n      calldatasize\n      0x04\n      tag_68\n      jump\t// in\n    tag_127:\n      tag_128\n      jump\t// in\n        /* \"contracts/Test Mint Pass v12A.sol\":1397:1445  uint256 public constant Test_Mint_Pass_Black = 1 */\n    tag_26:\n      tag_41\n        /* \"contracts/Test Mint Pass v12A.sol\":1444:1445  1 */\n      0x01\n        /* \"contracts/Test Mint Pass v12A.sol\":1397:1445  uint256 public constant Test_Mint_Pass_Black = 1 */\n      dup2\n      jump\n        /* \"contracts/Test Mint Pass v12A.sol\":1451:1498  uint256 public constant Test_Mint_Pass_Blue = 2 */\n    tag_27:\n      tag_41\n        /* \"contracts/Test Mint Pass v12A.sol\":1497:1498  2 */\n      0x02\n        /* \"contracts/Test Mint Pass v12A.sol\":1451:1498  uint256 public constant Test_Mint_Pass_Blue = 2 */\n      dup2\n      jump\n        /* \"contracts/Test Mint Pass v12A.sol\":1130:1196  uint256 public immutable Test_Mint_Pass_BlackScholarshipTotal = 17 */\n    tag_28:\n      tag_41\n      immutable(\"0x14502941cdfbd1b140f463b7c0eceb6872b4ceed672dc2d6c10bcedbce3171c9\")\n      dup2\n      jump\n        /* \"contracts/Test Mint Pass v12A.sol\":1202:1267  uint256 public immutable Test_Mint_Pass_BlueScholarshipTotal = 33 */\n    tag_29:\n      tag_41\n      immutable(\"0xd188a1da6d6dfc972f5d1614b9a5ea681202f643e26bdaa8898fb08d79dc84fc\")\n      dup2\n      jump\n        /* \"contracts/ERC1155.sol\":1187:1255  mapping(address => mapping(address => bool)) public isApprovedForAll */\n    tag_30:\n      tag_47\n      tag_143\n      calldatasize\n      0x04\n      tag_144\n      jump\t// in\n    tag_143:\n      0x01\n      0x20\n      swap1\n      dup2\n      mstore\n      0x00\n      swap3\n      dup4\n      mstore\n      0x40\n      dup1\n      dup5\n      keccak256\n      swap1\n      swap2\n      mstore\n      swap1\n      dup3\n      mstore\n      swap1\n      keccak256\n      sload\n      0xff\n      and\n      dup2\n      jump\n        /* \"contracts/ERC1155.sol\":1912:2611  function safeTransferFrom(... */\n    tag_31:\n      tag_57\n      tag_148\n      calldatasize\n      0x04\n      tag_149\n      jump\t// in\n    tag_148:\n      tag_150\n      jump\t// in\n        /* \"contracts/Ownable.sol\":1939:2137  function transferOwnership(address newOwner) public virtual onlyOwner {... */\n    tag_32:\n      tag_57\n      tag_152\n      calldatasize\n      0x04\n      tag_63\n      jump\t// in\n    tag_152:\n      tag_153\n      jump\t// in\n        /* \"contracts/Test Mint Pass v12A.sol\":999:1059  uint256 public immutable Test_Mint_Pass_BlackMaxSupply = 166 */\n    tag_33:\n      tag_41\n      immutable(\"0x54d74a311c644ec85dcac6b0313416846d72906b540389d43ad99715f0c32312\")\n      dup2\n      jump\n        /* \"contracts/ERC1155.sol\":4603:4943  function supportsInterface(bytes4 interfaceId) public view virtual returns (bool) {... */\n    tag_50:\n        /* \"contracts/ERC1155.sol\":4679:4683  bool */\n      0x00\n      shl(0xe0, 0x01ffc9a7)\n      not(sub(shl(0xe0, 0x01), 0x01))\n        /* \"contracts/ERC1155.sol\":4714:4739  interfaceId == 0x01ffc9a7 */\n      dup4\n      and\n      eq\n      dup1\n        /* \"contracts/ERC1155.sol\":4714:4814  interfaceId == 0x01ffc9a7 || // ERC165 Interface ID for ERC165... */\n      tag_158\n      jumpi\n      pop\n      shl(0xe1, 0x6cdb3d13)\n      not(sub(shl(0xe0, 0x01), 0x01))\n        /* \"contracts/ERC1155.sol\":4789:4814  interfaceId == 0xd9b67a26 */\n      dup4\n      and\n      eq\n        /* \"contracts/ERC1155.sol\":4714:4814  interfaceId == 0x01ffc9a7 || // ERC165 Interface ID for ERC165... */\n    tag_158:\n        /* \"contracts/ERC1155.sol\":4714:4890  interfaceId == 0x01ffc9a7 || // ERC165 Interface ID for ERC165... */\n      dup1\n      tag_159\n      jumpi\n      pop\n      shl(0xe2, 0x03a24d07)\n      not(sub(shl(0xe0, 0x01), 0x01))\n        /* \"contracts/ERC1155.sol\":4865:4890  interfaceId == 0x0e89341c */\n      dup4\n      and\n      eq\n        /* \"contracts/ERC1155.sol\":4714:4890  interfaceId == 0x01ffc9a7 || // ERC165 Interface ID for ERC165... */\n    tag_159:\n        /* \"contracts/ERC1155.sol\":4695:4890  return... */\n      swap3\n        /* \"contracts/ERC1155.sol\":4603:4943  function supportsInterface(bytes4 interfaceId) public view virtual returns (bool) {... */\n      swap2\n      pop\n      pop\n      jump\t// out\n        /* \"contracts/Test Mint Pass v12A.sol\":737:755  string public name */\n    tag_54:\n      0x03\n      dup1\n      sload\n      tag_160\n      swap1\n      tag_161\n      jump\t// in\n    tag_160:\n      dup1\n      0x1f\n      add\n      0x20\n      dup1\n      swap2\n      div\n      mul\n      0x20\n      add\n      mload(0x40)\n      swap1\n      dup2\n      add\n      0x40\n      mstore\n      dup1\n      swap3\n      swap2\n      swap1\n      dup2\n      dup2\n      mstore\n      0x20\n      add\n      dup3\n      dup1\n      sload\n      tag_162\n      swap1\n      tag_161\n      jump\t// in\n    tag_162:\n      dup1\n      iszero\n      tag_163\n      jumpi\n      dup1\n      0x1f\n      lt\n      tag_164\n      jumpi\n      0x0100\n      dup1\n      dup4\n      sload\n      div\n      mul\n      dup4\n      mstore\n      swap2\n      0x20\n      add\n      swap2\n      jump(tag_163)\n    tag_164:\n      dup3\n      add\n      swap2\n      swap1\n      0x00\n      mstore\n      keccak256(0x00, 0x20)\n      swap1\n    tag_165:\n      dup2\n      sload\n      dup2\n      mstore\n      swap1\n      0x01\n      add\n      swap1\n      0x20\n      add\n      dup1\n      dup4\n      gt\n      tag_165\n      jumpi\n      dup3\n      swap1\n      sub\n      0x1f\n      and\n      dup3\n      add\n      swap2\n    tag_163:\n      pop\n      pop\n      pop\n      pop\n      pop\n      dup2\n      jump\t// out\n        /* \"contracts/Test Mint Pass v12A.sol\":3356:3500  function setTokenURI(string memory _newTokenURI, uint256 tokenId)... */\n    tag_60:\n        /* \"contracts/Ownable.sol\":1129:1135  _owner */\n      and(sub(shl(0xa0, 0x01), 0x01), sload(0x02))\n        /* \"@openzeppelin/contracts/utils/Context.sol\":719:729  msg.sender */\n      caller\n        /* \"contracts/Ownable.sol\":1269:1292  owner() == _msgSender() */\n      eq\n        /* \"contracts/Ownable.sol\":1261:1329  require(owner() == _msgSender(), \"Ownable: caller is not the owner\") */\n      tag_170\n      jumpi\n      mload(0x40)\n      shl(0xe5, 0x461bcd)\n      dup2\n      mstore\n      0x04\n      add\n      tag_171\n      swap1\n      tag_172\n      jump\t// in\n    tag_171:\n      mload(0x40)\n      dup1\n      swap2\n      sub\n      swap1\n      revert\n    tag_170:\n        /* \"contracts/Test Mint Pass v12A.sol\":3461:3478  tokenURI[tokenId] */\n      0x00\n      dup2\n      dup2\n      mstore\n        /* \"contracts/Test Mint Pass v12A.sol\":3461:3469  tokenURI */\n      0x07\n        /* \"contracts/Test Mint Pass v12A.sol\":3461:3478  tokenURI[tokenId] */\n      0x20\n      swap1\n      dup2\n      mstore\n      0x40\n      swap1\n      swap2\n      keccak256\n        /* \"contracts/Test Mint Pass v12A.sol\":3461:3493  tokenURI[tokenId] = _newTokenURI */\n      dup4\n      mload\n      tag_174\n      swap3\n      dup6\n      add\n      swap1\n      tag_175\n      jump\t// in\n    tag_174:\n      pop\n        /* \"contracts/Test Mint Pass v12A.sol\":3356:3500  function setTokenURI(string memory _newTokenURI, uint256 tokenId)... */\n      pop\n      pop\n      jump\t// out\n        /* \"contracts/Test Mint Pass v12A.sol\":5797:6051  function uri(uint256 tokenId)... */\n    tag_69:\n        /* \"contracts/Test Mint Pass v12A.sol\":5944:5961  tokenURI[tokenId] */\n      0x00\n      dup2\n      dup2\n      mstore\n        /* \"contracts/Test Mint Pass v12A.sol\":5944:5952  tokenURI */\n      0x07\n        /* \"contracts/Test Mint Pass v12A.sol\":5944:5961  tokenURI[tokenId] */\n      0x20\n      mstore\n      0x40\n      swap1\n      keccak256\n        /* \"contracts/Test Mint Pass v12A.sol\":5938:5969  bytes(tokenURI[tokenId]).length */\n      dup1\n      sload\n        /* \"contracts/Test Mint Pass v12A.sol\":5905:5918  string memory */\n      0x60\n      swap2\n        /* \"contracts/Test Mint Pass v12A.sol\":5944:5961  tokenURI[tokenId] */\n      swap1\n        /* \"contracts/Test Mint Pass v12A.sol\":5938:5969  bytes(tokenURI[tokenId]).length */\n      tag_177\n      swap1\n      tag_161\n      jump\t// in\n    tag_177:\n        /* \"contracts/Test Mint Pass v12A.sol\":5938:5974  bytes(tokenURI[tokenId]).length == 0 */\n      iszero\n        /* \"contracts/Test Mint Pass v12A.sol\":5934:6010  if (bytes(tokenURI[tokenId]).length == 0) {... */\n      iszero\n      swap1\n      pop\n      tag_178\n      jumpi\n      pop\n      pop\n        /* \"contracts/Test Mint Pass v12A.sol\":5990:5999  return \"\" */\n      0x40\n      dup1\n      mload\n      0x20\n      dup2\n      add\n      swap1\n      swap2\n      mstore\n      0x00\n      dup2\n      mstore\n      swap1\n        /* \"contracts/Test Mint Pass v12A.sol\":5797:6051  function uri(uint256 tokenId)... */\n      jump\t// out\n        /* \"contracts/Test Mint Pass v12A.sol\":5934:6010  if (bytes(tokenURI[tokenId]).length == 0) {... */\n    tag_178:\n        /* \"contracts/Test Mint Pass v12A.sol\":6027:6044  tokenURI[tokenId] */\n      0x00\n      dup3\n      dup2\n      mstore\n        /* \"contracts/Test Mint Pass v12A.sol\":6027:6035  tokenURI */\n      0x07\n        /* \"contracts/Test Mint Pass v12A.sol\":6027:6044  tokenURI[tokenId] */\n      0x20\n      mstore\n      0x40\n      swap1\n      keccak256\n        /* \"contracts/Test Mint Pass v12A.sol\":6020:6044  return tokenURI[tokenId] */\n      dup1\n      sload\n      tag_179\n      swap1\n      tag_161\n      jump\t// in\n    tag_179:\n      dup1\n      0x1f\n      add\n      0x20\n      dup1\n      swap2\n      div\n      mul\n      0x20\n      add\n      mload(0x40)\n      swap1\n      dup2\n      add\n      0x40\n      mstore\n      dup1\n      swap3\n      swap2\n      swap1\n      dup2\n      dup2\n      mstore\n      0x20\n      add\n      dup3\n      dup1\n      sload\n      tag_180\n      swap1\n      tag_161\n      jump\t// in\n    tag_180:\n      dup1\n      iszero\n      tag_181\n      jumpi\n      dup1\n      0x1f\n      lt\n      tag_182\n      jumpi\n      0x0100\n      dup1\n      dup4\n      sload\n      div\n      mul\n      dup4\n      mstore\n      swap2\n      0x20\n      add\n      swap2\n      jump(tag_181)\n    tag_182:\n      dup3\n      add\n      swap2\n      swap1\n      0x00\n      mstore\n      keccak256(0x00, 0x20)\n      swap1\n    tag_183:\n      dup2\n      sload\n      dup2\n      mstore\n      swap1\n      0x01\n      add\n      swap1\n      0x20\n      add\n      dup1\n      dup4\n      gt\n      tag_183\n      jumpi\n      dup3\n      swap1\n      sub\n      0x1f\n      and\n      dup3\n      add\n      swap2\n    tag_181:\n      pop\n      pop\n      pop\n      pop\n      pop\n      swap1\n      pop\n        /* \"contracts/Test Mint Pass v12A.sol\":5797:6051  function uri(uint256 tokenId)... */\n      swap2\n      swap1\n      pop\n      jump\t// out\n        /* \"contracts/Test Mint Pass v12A.sol\":3595:3880  function mintScholarship(address to) public onlyOwner {... */\n    tag_73:\n        /* \"contracts/Ownable.sol\":1129:1135  _owner */\n      and(sub(shl(0xa0, 0x01), 0x01), sload(0x02))\n        /* \"@openzeppelin/contracts/utils/Context.sol\":719:729  msg.sender */\n      caller\n        /* \"contracts/Ownable.sol\":1269:1292  owner() == _msgSender() */\n      eq\n        /* \"contracts/Ownable.sol\":1261:1329  require(owner() == _msgSender(), \"Ownable: caller is not the owner\") */\n      tag_187\n      jumpi\n      mload(0x40)\n      shl(0xe5, 0x461bcd)\n      dup2\n      mstore\n      0x04\n      add\n      tag_171\n      swap1\n      tag_172\n      jump\t// in\n    tag_187:\n        /* \"contracts/Test Mint Pass v12A.sol\":3681:3761  _mint(to, Test_Mint_Pass_BlackTokenId, Test_Mint_Pass_BlackScholarshipTotal, \"\") */\n      tag_190\n        /* \"contracts/Test Mint Pass v12A.sol\":3687:3689  to */\n      dup2\n        /* \"contracts/Test Mint Pass v12A.sol\":3691:3718  Test_Mint_Pass_BlackTokenId */\n      immutable(\"0xf598d05e51facafddb4666a870ba9c91ee31463df052628aed50dc3216257420\")\n        /* \"contracts/Test Mint Pass v12A.sol\":3720:3756  Test_Mint_Pass_BlackScholarshipTotal */\n      immutable(\"0x14502941cdfbd1b140f463b7c0eceb6872b4ceed672dc2d6c10bcedbce3171c9\")\n        /* \"contracts/Test Mint Pass v12A.sol\":3681:3761  _mint(to, Test_Mint_Pass_BlackTokenId, Test_Mint_Pass_BlackScholarshipTotal, \"\") */\n      mload(0x40)\n      dup1\n      0x20\n      add\n      0x40\n      mstore\n      dup1\n      0x00\n      dup2\n      mstore\n      pop\n        /* \"contracts/Test Mint Pass v12A.sol\":3681:3686  _mint */\n      tag_191\n        /* \"contracts/Test Mint Pass v12A.sol\":3681:3761  _mint(to, Test_Mint_Pass_BlackTokenId, Test_Mint_Pass_BlackScholarshipTotal, \"\") */\n      jump\t// in\n    tag_190:\n        /* \"contracts/Test Mint Pass v12A.sol\":3795:3873  _mint(to, Test_Mint_Pass_BlueTokenId, Test_Mint_Pass_BlueScholarshipTotal, \"\") */\n      tag_192\n        /* \"contracts/Test Mint Pass v12A.sol\":3801:3803  to */\n      dup2\n        /* \"contracts/Test Mint Pass v12A.sol\":3805:3831  Test_Mint_Pass_BlueTokenId */\n      immutable(\"0xdd6ebedecc3782991b040722d05346ae76115706b237b0f241066a60ee7c2169\")\n        /* \"contracts/Test Mint Pass v12A.sol\":3833:3868  Test_Mint_Pass_BlueScholarshipTotal */\n      immutable(\"0xd188a1da6d6dfc972f5d1614b9a5ea681202f643e26bdaa8898fb08d79dc84fc\")\n        /* \"contracts/Test Mint Pass v12A.sol\":3795:3873  _mint(to, Test_Mint_Pass_BlueTokenId, Test_Mint_Pass_BlueScholarshipTotal, \"\") */\n      mload(0x40)\n      dup1\n      0x20\n      add\n      0x40\n      mstore\n      dup1\n      0x00\n      dup2\n      mstore\n      pop\n        /* \"contracts/Test Mint Pass v12A.sol\":3795:3800  _mint */\n      tag_191\n        /* \"contracts/Test Mint Pass v12A.sol\":3795:3873  _mint(to, Test_Mint_Pass_BlueTokenId, Test_Mint_Pass_BlueScholarshipTotal, \"\") */\n      jump\t// in\n    tag_192:\n        /* \"contracts/Test Mint Pass v12A.sol\":3595:3880  function mintScholarship(address to) public onlyOwner {... */\n      pop\n      jump\t// out\n        /* \"contracts/ERC1155.sol\":2617:3826  function safeBatchTransferFrom(... */\n    tag_77:\n        /* \"contracts/ERC1155.sol\":2826:2854  ids.length == amounts.length */\n      dup5\n      dup4\n      eq\n        /* \"contracts/ERC1155.sol\":2818:2874  require(ids.length == amounts.length, \"LENGTH_MISMATCH\") */\n      tag_194\n      jumpi\n      mload(0x40)\n      shl(0xe5, 0x461bcd)\n      dup2\n      mstore\n        /* \"#utility.yul\":9580:9582   */\n      0x20\n        /* \"contracts/ERC1155.sol\":2818:2874  require(ids.length == amounts.length, \"LENGTH_MISMATCH\") */\n      0x04\n      dup3\n      add\n        /* \"#utility.yul\":9562:9583   */\n      mstore\n        /* \"#utility.yul\":9619:9621   */\n      0x0f\n        /* \"#utility.yul\":9599:9617   */\n      0x24\n      dup3\n      add\n        /* \"#utility.yul\":9592:9622   */\n      mstore\n      shl(0x8b, 0x0988a9c8ea890be9a92a69a82a8869)\n        /* \"#utility.yul\":9638:9656   */\n      0x44\n      dup3\n      add\n        /* \"#utility.yul\":9631:9676   */\n      mstore\n        /* \"#utility.yul\":9693:9711   */\n      0x64\n      add\n        /* \"contracts/ERC1155.sol\":2818:2874  require(ids.length == amounts.length, \"LENGTH_MISMATCH\") */\n      tag_171\n        /* \"#utility.yul\":9378:9717   */\n      jump\n        /* \"contracts/ERC1155.sol\":2818:2874  require(ids.length == amounts.length, \"LENGTH_MISMATCH\") */\n    tag_194:\n        /* \"contracts/ERC1155.sol\":2893:2903  msg.sender */\n      caller\n      sub(shl(0xa0, 0x01), 0x01)\n        /* \"contracts/ERC1155.sol\":2893:2911  msg.sender == from */\n      dup10\n      and\n      eq\n      dup1\n        /* \"contracts/ERC1155.sol\":2893:2949  msg.sender == from || isApprovedForAll[from][msg.sender] */\n      tag_197\n      jumpi\n      pop\n      sub(shl(0xa0, 0x01), 0x01)\n        /* \"contracts/ERC1155.sol\":2915:2937  isApprovedForAll[from] */\n      dup9\n      and\n      0x00\n      swap1\n      dup2\n      mstore\n        /* \"contracts/ERC1155.sol\":2915:2931  isApprovedForAll */\n      0x01\n        /* \"contracts/ERC1155.sol\":2915:2937  isApprovedForAll[from] */\n      0x20\n      swap1\n      dup2\n      mstore\n      0x40\n      dup1\n      dup4\n      keccak256\n        /* \"contracts/ERC1155.sol\":2938:2948  msg.sender */\n      caller\n        /* \"contracts/ERC1155.sol\":2915:2949  isApprovedForAll[from][msg.sender] */\n      dup5\n      mstore\n      swap1\n      swap2\n      mstore\n      swap1\n      keccak256\n      sload\n      0xff\n      and\n        /* \"contracts/ERC1155.sol\":2893:2949  msg.sender == from || isApprovedForAll[from][msg.sender] */\n    tag_197:\n        /* \"contracts/ERC1155.sol\":2885:2968  require(msg.sender == from || isApprovedForAll[from][msg.sender], \"NOT_AUTHORIZED\") */\n      tag_198\n      jumpi\n      mload(0x40)\n      shl(0xe5, 0x461bcd)\n      dup2\n      mstore\n        /* \"#utility.yul\":9924:9926   */\n      0x20\n        /* \"contracts/ERC1155.sol\":2885:2968  require(msg.sender == from || isApprovedForAll[from][msg.sender], \"NOT_AUTHORIZED\") */\n      0x04\n      dup3\n      add\n        /* \"#utility.yul\":9906:9927   */\n      mstore\n        /* \"#utility.yul\":9963:9965   */\n      0x0e\n        /* \"#utility.yul\":9943:9961   */\n      0x24\n      dup3\n      add\n        /* \"#utility.yul\":9936:9966   */\n      mstore\n      shl(0x92, 0x1393d517d055551213d492569151)\n        /* \"#utility.yul\":9982:10000   */\n      0x44\n      dup3\n      add\n        /* \"#utility.yul\":9975:10019   */\n      mstore\n        /* \"#utility.yul\":10036:10054   */\n      0x64\n      add\n        /* \"contracts/ERC1155.sol\":2885:2968  require(msg.sender == from || isApprovedForAll[from][msg.sender], \"NOT_AUTHORIZED\") */\n      tag_171\n        /* \"#utility.yul\":9722:10060   */\n      jump\n        /* \"contracts/ERC1155.sol\":2885:2968  require(msg.sender == from || isApprovedForAll[from][msg.sender], \"NOT_AUTHORIZED\") */\n    tag_198:\n        /* \"contracts/ERC1155.sol\":3050:3060  uint256 id */\n      0x00\n        /* \"contracts/ERC1155.sol\":3070:3084  uint256 amount */\n      dup1\n        /* \"contracts/ERC1155.sol\":3100:3109  uint256 i */\n      0x00\n        /* \"contracts/ERC1155.sol\":3095:3447  for (uint256 i = 0; i < ids.length; ) {... */\n    tag_201:\n        /* \"contracts/ERC1155.sol\":3115:3129  i < ids.length */\n      dup8\n      dup2\n      lt\n        /* \"contracts/ERC1155.sol\":3095:3447  for (uint256 i = 0; i < ids.length; ) {... */\n      iszero\n      tag_202\n      jumpi\n        /* \"contracts/ERC1155.sol\":3152:3155  ids */\n      dup9\n      dup9\n        /* \"contracts/ERC1155.sol\":3156:3157  i */\n      dup3\n        /* \"contracts/ERC1155.sol\":3152:3158  ids[i] */\n      dup2\n      dup2\n      lt\n      tag_205\n      jumpi\n      tag_205\n      tag_206\n      jump\t// in\n    tag_205:\n      swap1\n      pop\n      0x20\n      mul\n      add\n      calldataload\n        /* \"contracts/ERC1155.sol\":3147:3158  id = ids[i] */\n      swap3\n      pop\n        /* \"contracts/ERC1155.sol\":3181:3188  amounts */\n      dup7\n      dup7\n        /* \"contracts/ERC1155.sol\":3189:3190  i */\n      dup3\n        /* \"contracts/ERC1155.sol\":3181:3191  amounts[i] */\n      dup2\n      dup2\n      lt\n      tag_208\n      jumpi\n      tag_208\n      tag_206\n      jump\t// in\n    tag_208:\n      sub(shl(0xa0, 0x01), 0x01)\n        /* \"contracts/ERC1155.sol\":3206:3221  balanceOf[from] */\n      dup15\n      and\n        /* \"contracts/ERC1155.sol\":3206:3215  balanceOf */\n      0x00\n        /* \"contracts/ERC1155.sol\":3206:3221  balanceOf[from] */\n      swap1\n      dup2\n      mstore\n        /* \"contracts/ERC1155.sol\":3181:3191  amounts[i] */\n      0x20\n        /* \"contracts/ERC1155.sol\":3206:3221  balanceOf[from] */\n      dup2\n      dup2\n      mstore\n      0x40\n      dup1\n      dup4\n      keccak256\n        /* \"contracts/ERC1155.sol\":3206:3225  balanceOf[from][id] */\n      dup10\n      dup5\n      mstore\n      dup3\n      mstore\n      dup3\n      keccak256\n        /* \"contracts/ERC1155.sol\":3206:3235  balanceOf[from][id] -= amount */\n      dup1\n      sload\n        /* \"contracts/ERC1155.sol\":3181:3191  amounts[i] */\n      swap4\n      swap1\n      swap2\n      mul\n      swap5\n      swap1\n      swap5\n      add\n      calldataload\n      swap6\n      pop\n      dup6\n      swap4\n        /* \"contracts/ERC1155.sol\":3206:3225  balanceOf[from][id] */\n      swap3\n      pop\n        /* \"contracts/ERC1155.sol\":3206:3215  balanceOf */\n      swap1\n        /* \"contracts/ERC1155.sol\":3206:3235  balanceOf[from][id] -= amount */\n      tag_209\n      swap1\n        /* \"contracts/ERC1155.sol\":3181:3191  amounts[i] */\n      dup5\n      swap1\n        /* \"contracts/ERC1155.sol\":3206:3235  balanceOf[from][id] -= amount */\n      tag_210\n      jump\t// in\n    tag_209:\n      swap1\n      swap2\n      sstore\n      pop\n      pop\n      sub(shl(0xa0, 0x01), 0x01)\n        /* \"contracts/ERC1155.sol\":3249:3262  balanceOf[to] */\n      dup11\n      and\n        /* \"contracts/ERC1155.sol\":3249:3258  balanceOf */\n      0x00\n        /* \"contracts/ERC1155.sol\":3249:3262  balanceOf[to] */\n      swap1\n      dup2\n      mstore\n      0x20\n      dup2\n      dup2\n      mstore\n      0x40\n      dup1\n      dup4\n      keccak256\n        /* \"contracts/ERC1155.sol\":3249:3266  balanceOf[to][id] */\n      dup7\n      dup5\n      mstore\n      swap1\n      swap2\n      mstore\n      dup2\n      keccak256\n        /* \"contracts/ERC1155.sol\":3249:3276  balanceOf[to][id] += amount */\n      dup1\n      sload\n        /* \"contracts/ERC1155.sol\":3270:3276  amount */\n      dup5\n      swap3\n        /* \"contracts/ERC1155.sol\":3249:3258  balanceOf */\n      swap1\n        /* \"contracts/ERC1155.sol\":3249:3276  balanceOf[to][id] += amount */\n      tag_211\n      swap1\n        /* \"contracts/ERC1155.sol\":3270:3276  amount */\n      dup5\n      swap1\n        /* \"contracts/ERC1155.sol\":3249:3276  balanceOf[to][id] += amount */\n      tag_212\n      jump\t// in\n    tag_211:\n      swap1\n      swap2\n      sstore\n      pop\n      pop\n        /* \"contracts/ERC1155.sol\":3419:3422  ++i */\n      0x01\n      add\n        /* \"contracts/ERC1155.sol\":3095:3447  for (uint256 i = 0; i < ids.length; ) {... */\n      jump(tag_201)\n    tag_202:\n      pop\n        /* \"contracts/ERC1155.sol\":3494:3496  to */\n      dup9\n      sub(shl(0xa0, 0x01), 0x01)\n        /* \"contracts/ERC1155.sol\":3462:3511  TransferBatch(msg.sender, from, to, ids, amounts) */\n      and\n        /* \"contracts/ERC1155.sol\":3488:3492  from */\n      dup11\n      sub(shl(0xa0, 0x01), 0x01)\n        /* \"contracts/ERC1155.sol\":3462:3511  TransferBatch(msg.sender, from, to, ids, amounts) */\n      and\n        /* \"contracts/ERC1155.sol\":3476:3486  msg.sender */\n      caller\n      sub(shl(0xa0, 0x01), 0x01)\n        /* \"contracts/ERC1155.sol\":3462:3511  TransferBatch(msg.sender, from, to, ids, amounts) */\n      and\n      0x4a39dc06d4c0dbc64b70af90fd698a233a518aa5d07e595d983b8c0526c8f7fb\n        /* \"contracts/ERC1155.sol\":3498:3501  ids */\n      dup12\n      dup12\n        /* \"contracts/ERC1155.sol\":3503:3510  amounts */\n      dup12\n      dup12\n        /* \"contracts/ERC1155.sol\":3462:3511  TransferBatch(msg.sender, from, to, ids, amounts) */\n      mload(0x40)\n      tag_213\n      swap5\n      swap4\n      swap3\n      swap2\n      swap1\n      tag_214\n      jump\t// in\n    tag_213:\n      mload(0x40)\n      dup1\n      swap2\n      sub\n      swap1\n      log4\n      sub(shl(0xa0, 0x01), 0x01)\n        /* \"contracts/ERC1155.sol\":3543:3557  to.code.length */\n      dup10\n      and\n      extcodesize\n        /* \"contracts/ERC1155.sol\":3543:3562  to.code.length == 0 */\n      iszero\n        /* \"contracts/ERC1155.sol\":3543:3777  to.code.length == 0... */\n      tag_215\n      jumpi\n        /* \"contracts/ERC1155.sol\":3616:3701  ERC1155TokenReceiver(to).onERC1155BatchReceived(msg.sender, from, ids, amounts, data) */\n      mload(0x40)\n      shl(0xe0, 0xbc197c81)\n      dup1\n      dup3\n      mstore\n        /* \"contracts/ERC1155.sol\":3725:3777  ERC1155TokenReceiver.onERC1155BatchReceived.selector */\n      swap1\n      sub(shl(0xa0, 0x01), 0x01)\n        /* \"contracts/ERC1155.sol\":3616:3663  ERC1155TokenReceiver(to).onERC1155BatchReceived */\n      dup12\n      and\n      swap1\n        /* \"contracts/ERC1155.sol\":3725:3777  ERC1155TokenReceiver.onERC1155BatchReceived.selector */\n      0xbc197c81\n      swap1\n        /* \"contracts/ERC1155.sol\":3616:3701  ERC1155TokenReceiver(to).onERC1155BatchReceived(msg.sender, from, ids, amounts, data) */\n      tag_216\n      swap1\n        /* \"contracts/ERC1155.sol\":3664:3674  msg.sender */\n      caller\n      swap1\n        /* \"contracts/ERC1155.sol\":3676:3680  from */\n      dup16\n      swap1\n        /* \"contracts/ERC1155.sol\":3682:3685  ids */\n      dup15\n      swap1\n      dup15\n      swap1\n        /* \"contracts/ERC1155.sol\":3687:3694  amounts */\n      dup15\n      swap1\n      dup15\n      swap1\n        /* \"contracts/ERC1155.sol\":3696:3700  data */\n      dup15\n      swap1\n      dup15\n      swap1\n        /* \"contracts/ERC1155.sol\":3616:3701  ERC1155TokenReceiver(to).onERC1155BatchReceived(msg.sender, from, ids, amounts, data) */\n      0x04\n      add\n      tag_217\n      jump\t// in\n    tag_216:\n      0x20\n      mload(0x40)\n      dup1\n      dup4\n      sub\n      dup2\n      0x00\n      dup8\n      gas\n      call\n      iszero\n      dup1\n      iszero\n      tag_219\n      jumpi\n      returndatasize\n      0x00\n      dup1\n      returndatacopy\n      revert(0x00, returndatasize)\n    tag_219:\n      pop\n      pop\n      pop\n      pop\n      mload(0x40)\n      returndatasize\n      not(0x1f)\n      0x1f\n      dup3\n      add\n      and\n      dup3\n      add\n      dup1\n      0x40\n      mstore\n      pop\n      dup2\n      add\n      swap1\n      tag_220\n      swap2\n      swap1\n      tag_221\n      jump\t// in\n    tag_220:\n      not(sub(shl(0xe0, 0x01), 0x01))\n        /* \"contracts/ERC1155.sol\":3616:3777  ERC1155TokenReceiver(to).onERC1155BatchReceived(msg.sender, from, ids, amounts, data) ==... */\n      and\n      eq\n        /* \"contracts/ERC1155.sol\":3543:3777  to.code.length == 0... */\n      jump(tag_222)\n    tag_215:\n      sub(shl(0xa0, 0x01), 0x01)\n        /* \"contracts/ERC1155.sol\":3581:3597  to != address(0) */\n      dup10\n      and\n      iszero\n      iszero\n        /* \"contracts/ERC1155.sol\":3543:3777  to.code.length == 0... */\n    tag_222:\n        /* \"contracts/ERC1155.sol\":3522:3819  require(... */\n      tag_223\n      jumpi\n      mload(0x40)\n      shl(0xe5, 0x461bcd)\n      dup2\n      mstore\n      0x04\n      add\n      tag_171\n      swap1\n      tag_225\n      jump\t// in\n    tag_223:\n        /* \"contracts/ERC1155.sol\":2808:3826  {... */\n      pop\n      pop\n        /* \"contracts/ERC1155.sol\":2617:3826  function safeBatchTransferFrom(... */\n      pop\n      pop\n      pop\n      pop\n      pop\n      pop\n      pop\n      pop\n      jump\t// out\n        /* \"contracts/Test Mint Pass v12A.sol\":4202:5049  function ownerMint(... */\n    tag_81:\n        /* \"contracts/Ownable.sol\":1129:1135  _owner */\n      and(sub(shl(0xa0, 0x01), 0x01), sload(0x02))\n        /* \"@openzeppelin/contracts/utils/Context.sol\":719:729  msg.sender */\n      caller\n        /* \"contracts/Ownable.sol\":1269:1292  owner() == _msgSender() */\n      eq\n        /* \"contracts/Ownable.sol\":1261:1329  require(owner() == _msgSender(), \"Ownable: caller is not the owner\") */\n      tag_229\n      jumpi\n      mload(0x40)\n      shl(0xe5, 0x461bcd)\n      dup2\n      mstore\n      0x04\n      add\n      tag_171\n      swap1\n      tag_172\n      jump\t// in\n    tag_229:\n        /* \"contracts/Test Mint Pass v12A.sol\":4355:4381  Test_Mint_Pass_BlueTokenId */\n      immutable(\"0xdd6ebedecc3782991b040722d05346ae76115706b237b0f241066a60ee7c2169\")\n        /* \"contracts/Test Mint Pass v12A.sol\":4344:4351  tokenId */\n      dup2\n        /* \"contracts/Test Mint Pass v12A.sol\":4344:4381  tokenId == Test_Mint_Pass_BlueTokenId */\n      eq\n        /* \"contracts/Test Mint Pass v12A.sol\":4344:4423  tokenId == Test_Mint_Pass_BlueTokenId || tokenId == Test_Mint_Pass_BlackTokenId */\n      dup1\n      tag_232\n      jumpi\n      pop\n        /* \"contracts/Test Mint Pass v12A.sol\":4396:4423  Test_Mint_Pass_BlackTokenId */\n      immutable(\"0xf598d05e51facafddb4666a870ba9c91ee31463df052628aed50dc3216257420\")\n        /* \"contracts/Test Mint Pass v12A.sol\":4385:4392  tokenId */\n      dup2\n        /* \"contracts/Test Mint Pass v12A.sol\":4385:4423  tokenId == Test_Mint_Pass_BlackTokenId */\n      eq\n        /* \"contracts/Test Mint Pass v12A.sol\":4344:4423  tokenId == Test_Mint_Pass_BlueTokenId || tokenId == Test_Mint_Pass_BlackTokenId */\n    tag_232:\n        /* \"contracts/Test Mint Pass v12A.sol\":4323:4479  require(... */\n      tag_233\n      jumpi\n      mload(0x40)\n      shl(0xe5, 0x461bcd)\n      dup2\n      mstore\n        /* \"#utility.yul\":13459:13461   */\n      0x20\n        /* \"contracts/Test Mint Pass v12A.sol\":4323:4479  require(... */\n      0x04\n      dup3\n      add\n        /* \"#utility.yul\":13441:13462   */\n      mstore\n        /* \"#utility.yul\":13498:13500   */\n      0x1e\n        /* \"#utility.yul\":13478:13496   */\n      0x24\n      dup3\n      add\n        /* \"#utility.yul\":13471:13501   */\n      mstore\n        /* \"#utility.yul\":13537:13569   */\n      0x544d50563132413a204e6f6e6578697374656e7420746f6b656e2049442e0000\n        /* \"#utility.yul\":13517:13535   */\n      0x44\n      dup3\n      add\n        /* \"#utility.yul\":13510:13570   */\n      mstore\n        /* \"#utility.yul\":13587:13605   */\n      0x64\n      add\n        /* \"contracts/Test Mint Pass v12A.sol\":4323:4479  require(... */\n      tag_171\n        /* \"#utility.yul\":13257:13611   */\n      jump\n        /* \"contracts/Test Mint Pass v12A.sol\":4323:4479  require(... */\n    tag_233:\n        /* \"contracts/Test Mint Pass v12A.sol\":4505:4531  Test_Mint_Pass_BlueTokenId */\n      immutable(\"0xdd6ebedecc3782991b040722d05346ae76115706b237b0f241066a60ee7c2169\")\n        /* \"contracts/Test Mint Pass v12A.sol\":4494:4501  tokenId */\n      dup2\n        /* \"contracts/Test Mint Pass v12A.sol\":4494:4531  tokenId == Test_Mint_Pass_BlueTokenId */\n      eq\n        /* \"contracts/Test Mint Pass v12A.sol\":4490:5043  if (tokenId == Test_Mint_Pass_BlueTokenId) {... */\n      iszero\n      tag_236\n      jumpi\n        /* \"contracts/Test Mint Pass v12A.sol\":4624:4652  Test_Mint_Pass_BlueMaxSupply */\n      immutable(\"0x1cecd53757ff41334b0aac95136e45c28b8f0c7557fa90afd0025eaeb7956e02\")\n        /* \"contracts/Test Mint Pass v12A.sol\":4581:4620  totalSupply(Test_Mint_Pass_BlueTokenId) */\n      tag_237\n        /* \"contracts/Test Mint Pass v12A.sol\":4593:4619  Test_Mint_Pass_BlueTokenId */\n      immutable(\"0xdd6ebedecc3782991b040722d05346ae76115706b237b0f241066a60ee7c2169\")\n        /* \"contracts/Test Mint Pass v12A.sol\":2952:2959  uint256 */\n      0x00\n        /* \"contracts/Test Mint Pass v12A.sol\":2978:2994  _totalSupply[id] */\n      swap1\n      dup2\n      mstore\n        /* \"contracts/Test Mint Pass v12A.sol\":2978:2990  _totalSupply */\n      0x06\n        /* \"contracts/Test Mint Pass v12A.sol\":2978:2994  _totalSupply[id] */\n      0x20\n      mstore\n      0x40\n      swap1\n      keccak256\n      sload\n      swap1\n        /* \"contracts/Test Mint Pass v12A.sol\":2890:3001  function totalSupply(uint256 id) public view virtual returns (uint256) {... */\n      jump\n        /* \"contracts/Test Mint Pass v12A.sol\":4581:4620  totalSupply(Test_Mint_Pass_BlueTokenId) */\n    tag_237:\n        /* \"contracts/Test Mint Pass v12A.sol\":4572:4620  amount + totalSupply(Test_Mint_Pass_BlueTokenId) */\n      tag_238\n      swap1\n        /* \"contracts/Test Mint Pass v12A.sol\":4572:4578  amount */\n      dup5\n        /* \"contracts/Test Mint Pass v12A.sol\":4572:4620  amount + totalSupply(Test_Mint_Pass_BlueTokenId) */\n      tag_212\n      jump\t// in\n    tag_238:\n        /* \"contracts/Test Mint Pass v12A.sol\":4572:4652  amount + totalSupply(Test_Mint_Pass_BlueTokenId) <= Test_Mint_Pass_BlueMaxSupply */\n      gt\n      iszero\n        /* \"contracts/Test Mint Pass v12A.sol\":4547:4729  require(... */\n      tag_239\n      jumpi\n      mload(0x40)\n      shl(0xe5, 0x461bcd)\n      dup2\n      mstore\n        /* \"#utility.yul\":13818:13820   */\n      0x20\n        /* \"contracts/Test Mint Pass v12A.sol\":4547:4729  require(... */\n      0x04\n      dup3\n      add\n        /* \"#utility.yul\":13800:13821   */\n      mstore\n        /* \"#utility.yul\":13857:13859   */\n      0x2b\n        /* \"#utility.yul\":13837:13855   */\n      0x24\n      dup3\n      add\n        /* \"#utility.yul\":13830:13860   */\n      mstore\n        /* \"#utility.yul\":13896:13930   */\n      0x544d50563132413a20416d6f756e74206973206c6172676572207468616e2074\n        /* \"#utility.yul\":13876:13894   */\n      0x44\n      dup3\n      add\n        /* \"#utility.yul\":13869:13931   */\n      mstore\n      shl(0xa9, 0x37ba30b629bab838363c97)\n        /* \"#utility.yul\":13947:13965   */\n      0x64\n      dup3\n      add\n        /* \"#utility.yul\":13940:13981   */\n      mstore\n        /* \"#utility.yul\":13998:14017   */\n      0x84\n      add\n        /* \"contracts/Test Mint Pass v12A.sol\":4547:4729  require(... */\n      tag_171\n        /* \"#utility.yul\":13616:14023   */\n      jump\n        /* \"contracts/Test Mint Pass v12A.sol\":4547:4729  require(... */\n    tag_239:\n        /* \"contracts/Test Mint Pass v12A.sol\":4743:4773  _mint(to, tokenId, amount, \"\") */\n      tag_174\n        /* \"contracts/Test Mint Pass v12A.sol\":4749:4751  to */\n      dup4\n        /* \"contracts/Test Mint Pass v12A.sol\":4753:4760  tokenId */\n      dup3\n        /* \"contracts/Test Mint Pass v12A.sol\":4762:4768  amount */\n      dup5\n        /* \"contracts/Test Mint Pass v12A.sol\":4743:4773  _mint(to, tokenId, amount, \"\") */\n      mload(0x40)\n      dup1\n      0x20\n      add\n      0x40\n      mstore\n      dup1\n      0x00\n      dup2\n      mstore\n      pop\n        /* \"contracts/Test Mint Pass v12A.sol\":4743:4748  _mint */\n      tag_191\n        /* \"contracts/Test Mint Pass v12A.sol\":4743:4773  _mint(to, tokenId, amount, \"\") */\n      jump\t// in\n        /* \"contracts/Test Mint Pass v12A.sol\":4490:5043  if (tokenId == Test_Mint_Pass_BlueTokenId) {... */\n    tag_236:\n        /* \"contracts/Test Mint Pass v12A.sol\":4882:4911  Test_Mint_Pass_BlackMaxSupply */\n      immutable(\"0x54d74a311c644ec85dcac6b0313416846d72906b540389d43ad99715f0c32312\")\n        /* \"contracts/Test Mint Pass v12A.sol\":4838:4878  totalSupply(Test_Mint_Pass_BlackTokenId) */\n      tag_237\n        /* \"contracts/Test Mint Pass v12A.sol\":4850:4877  Test_Mint_Pass_BlackTokenId */\n      immutable(\"0xf598d05e51facafddb4666a870ba9c91ee31463df052628aed50dc3216257420\")\n        /* \"contracts/Test Mint Pass v12A.sol\":2952:2959  uint256 */\n      0x00\n        /* \"contracts/Test Mint Pass v12A.sol\":2978:2994  _totalSupply[id] */\n      swap1\n      dup2\n      mstore\n        /* \"contracts/Test Mint Pass v12A.sol\":2978:2990  _totalSupply */\n      0x06\n        /* \"contracts/Test Mint Pass v12A.sol\":2978:2994  _totalSupply[id] */\n      0x20\n      mstore\n      0x40\n      swap1\n      keccak256\n      sload\n      swap1\n        /* \"contracts/Test Mint Pass v12A.sol\":2890:3001  function totalSupply(uint256 id) public view virtual returns (uint256) {... */\n      jump\n        /* \"contracts/Test Mint Pass v12A.sol\":5311:5496  function withdraw() public onlyOwner {... */\n    tag_83:\n        /* \"contracts/Ownable.sol\":1129:1135  _owner */\n      and(sub(shl(0xa0, 0x01), 0x01), sload(0x02))\n        /* \"@openzeppelin/contracts/utils/Context.sol\":719:729  msg.sender */\n      caller\n        /* \"contracts/Ownable.sol\":1269:1292  owner() == _msgSender() */\n      eq\n        /* \"contracts/Ownable.sol\":1261:1329  require(owner() == _msgSender(), \"Ownable: caller is not the owner\") */\n      tag_252\n      jumpi\n      mload(0x40)\n      shl(0xe5, 0x461bcd)\n      dup2\n      mstore\n      0x04\n      add\n      tag_171\n      swap1\n      tag_172\n      jump\t// in\n    tag_252:\n        /* \"contracts/Test Mint Pass v12A.sol\":5362:5383  address(this).balance */\n      selfbalance\n        /* \"contracts/Test Mint Pass v12A.sol\":5358:5411  if (address(this).balance == 0) revert NoEthBalance() */\n      tag_255\n      jumpi\n        /* \"contracts/Test Mint Pass v12A.sol\":5397:5411  NoEthBalance() */\n      mload(0x40)\n      shl(0xe3, 0x150111e7)\n      dup2\n      mstore\n      0x04\n      add\n      mload(0x40)\n      dup1\n      swap2\n      sub\n      swap1\n      revert\n        /* \"contracts/Test Mint Pass v12A.sol\":5358:5411  if (address(this).balance == 0) revert NoEthBalance() */\n    tag_255:\n        /* \"contracts/Test Mint Pass v12A.sol\":5453:5465  vaultAddress */\n      sload(0x05)\n        /* \"contracts/Test Mint Pass v12A.sol\":5421:5489  SafeTransferLib.safeTransferETH(vaultAddress, address(this).balance) */\n      tag_256\n      swap1\n      sub(shl(0xa0, 0x01), 0x01)\n        /* \"contracts/Test Mint Pass v12A.sol\":5453:5465  vaultAddress */\n      and\n        /* \"contracts/Test Mint Pass v12A.sol\":5467:5488  address(this).balance */\n      selfbalance\n        /* \"contracts/Test Mint Pass v12A.sol\":5421:5452  SafeTransferLib.safeTransferETH */\n      tag_257\n        /* \"contracts/Test Mint Pass v12A.sol\":5421:5489  SafeTransferLib.safeTransferETH(vaultAddress, address(this).balance) */\n      jump\t// in\n    tag_256:\n        /* \"contracts/Test Mint Pass v12A.sol\":5311:5496  function withdraw() public onlyOwner {... */\n      jump\t// out\n        /* \"contracts/ERC1155.sol\":3832:4415  function balanceOfBatch(address[] calldata owners, uint256[] calldata ids)... */\n    tag_94:\n        /* \"contracts/ERC1155.sol\":3968:3993  uint256[] memory balances */\n      0x60\n        /* \"contracts/ERC1155.sol\":4017:4044  owners.length == ids.length */\n      dup4\n      dup3\n      eq\n        /* \"contracts/ERC1155.sol\":4009:4064  require(owners.length == ids.length, \"LENGTH_MISMATCH\") */\n      tag_259\n      jumpi\n      mload(0x40)\n      shl(0xe5, 0x461bcd)\n      dup2\n      mstore\n        /* \"#utility.yul\":9580:9582   */\n      0x20\n        /* \"contracts/ERC1155.sol\":4009:4064  require(owners.length == ids.length, \"LENGTH_MISMATCH\") */\n      0x04\n      dup3\n      add\n        /* \"#utility.yul\":9562:9583   */\n      mstore\n        /* \"#utility.yul\":9619:9621   */\n      0x0f\n        /* \"#utility.yul\":9599:9617   */\n      0x24\n      dup3\n      add\n        /* \"#utility.yul\":9592:9622   */\n      mstore\n      shl(0x8b, 0x0988a9c8ea890be9a92a69a82a8869)\n        /* \"#utility.yul\":9638:9656   */\n      0x44\n      dup3\n      add\n        /* \"#utility.yul\":9631:9676   */\n      mstore\n        /* \"#utility.yul\":9693:9711   */\n      0x64\n      add\n        /* \"contracts/ERC1155.sol\":4009:4064  require(owners.length == ids.length, \"LENGTH_MISMATCH\") */\n      tag_171\n        /* \"#utility.yul\":9378:9717   */\n      jump\n        /* \"contracts/ERC1155.sol\":4009:4064  require(owners.length == ids.length, \"LENGTH_MISMATCH\") */\n    tag_259:\n        /* \"contracts/ERC1155.sol\":4100:4106  owners */\n      dup4\n        /* \"contracts/ERC1155.sol\":4086:4114  new uint256[](owners.length) */\n      0xffffffffffffffff\n      dup2\n      gt\n      iszero\n      tag_262\n      jumpi\n      tag_262\n      tag_263\n      jump\t// in\n    tag_262:\n      mload(0x40)\n      swap1\n      dup1\n      dup3\n      mstore\n      dup1\n      0x20\n      mul\n      0x20\n      add\n      dup3\n      add\n      0x40\n      mstore\n      dup1\n      iszero\n      tag_264\n      jumpi\n      dup2\n      0x20\n      add\n      0x20\n      dup3\n      mul\n      dup1\n      calldatasize\n      dup4\n      calldatacopy\n      add\n      swap1\n      pop\n    tag_264:\n      pop\n        /* \"contracts/ERC1155.sol\":4075:4114  balances = new uint256[](owners.length) */\n      swap1\n      pop\n        /* \"contracts/ERC1155.sol\":4285:4294  uint256 i */\n      0x00\n        /* \"contracts/ERC1155.sol\":4280:4399  for (uint256 i = 0; i < owners.length; ++i) {... */\n    tag_265:\n        /* \"contracts/ERC1155.sol\":4300:4317  i < owners.length */\n      dup5\n      dup2\n      lt\n        /* \"contracts/ERC1155.sol\":4280:4399  for (uint256 i = 0; i < owners.length; ++i) {... */\n      iszero\n      tag_266\n      jumpi\n        /* \"contracts/ERC1155.sol\":4356:4365  balanceOf */\n      0x00\n        /* \"contracts/ERC1155.sol\":4356:4376  balanceOf[owners[i]] */\n      dup1\n        /* \"contracts/ERC1155.sol\":4366:4372  owners */\n      dup8\n      dup8\n        /* \"contracts/ERC1155.sol\":4373:4374  i */\n      dup5\n        /* \"contracts/ERC1155.sol\":4366:4375  owners[i] */\n      dup2\n      dup2\n      lt\n      tag_269\n      jumpi\n      tag_269\n      tag_206\n      jump\t// in\n    tag_269:\n      swap1\n      pop\n      0x20\n      mul\n      add\n      0x20\n      dup2\n      add\n      swap1\n      tag_270\n      swap2\n      swap1\n      tag_63\n      jump\t// in\n    tag_270:\n      sub(shl(0xa0, 0x01), 0x01)\n        /* \"contracts/ERC1155.sol\":4356:4376  balanceOf[owners[i]] */\n      and\n      sub(shl(0xa0, 0x01), 0x01)\n      and\n      dup2\n      mstore\n      0x20\n      add\n      swap1\n      dup2\n      mstore\n      0x20\n      add\n      0x00\n      keccak256\n        /* \"contracts/ERC1155.sol\":4356:4384  balanceOf[owners[i]][ids[i]] */\n      0x00\n        /* \"contracts/ERC1155.sol\":4377:4380  ids */\n      dup6\n      dup6\n        /* \"contracts/ERC1155.sol\":4381:4382  i */\n      dup5\n        /* \"contracts/ERC1155.sol\":4377:4383  ids[i] */\n      dup2\n      dup2\n      lt\n      tag_272\n      jumpi\n      tag_272\n      tag_206\n      jump\t// in\n    tag_272:\n      swap1\n      pop\n      0x20\n      mul\n      add\n      calldataload\n        /* \"contracts/ERC1155.sol\":4356:4384  balanceOf[owners[i]][ids[i]] */\n      dup2\n      mstore\n      0x20\n      add\n      swap1\n      dup2\n      mstore\n      0x20\n      add\n      0x00\n      keccak256\n      sload\n        /* \"contracts/ERC1155.sol\":4342:4350  balances */\n      dup3\n        /* \"contracts/ERC1155.sol\":4351:4352  i */\n      dup3\n        /* \"contracts/ERC1155.sol\":4342:4353  balances[i] */\n      dup2\n      mload\n      dup2\n      lt\n      tag_274\n      jumpi\n      tag_274\n      tag_206\n      jump\t// in\n    tag_274:\n      0x20\n      swap1\n      dup2\n      mul\n      swap2\n      swap1\n      swap2\n      add\n      add\n        /* \"contracts/ERC1155.sol\":4342:4384  balances[i] = balanceOf[owners[i]][ids[i]] */\n      mstore\n        /* \"contracts/ERC1155.sol\":4319:4322  ++i */\n      0x01\n      add\n        /* \"contracts/ERC1155.sol\":4280:4399  for (uint256 i = 0; i < owners.length; ++i) {... */\n      jump(tag_265)\n    tag_266:\n      pop\n        /* \"contracts/ERC1155.sol\":3832:4415  function balanceOfBatch(address[] calldata owners, uint256[] calldata ids)... */\n      swap5\n      swap4\n      pop\n      pop\n      pop\n      pop\n      jump\t// out\n        /* \"contracts/Test Mint Pass v12A.sol\":5594:5697  function setVault(address _vaultAddress) public onlyOwner {... */\n    tag_99:\n        /* \"contracts/Ownable.sol\":1129:1135  _owner */\n      and(sub(shl(0xa0, 0x01), 0x01), sload(0x02))\n        /* \"@openzeppelin/contracts/utils/Context.sol\":719:729  msg.sender */\n      caller\n        /* \"contracts/Ownable.sol\":1269:1292  owner() == _msgSender() */\n      eq\n        /* \"contracts/Ownable.sol\":1261:1329  require(owner() == _msgSender(), \"Ownable: caller is not the owner\") */\n      tag_278\n      jumpi\n      mload(0x40)\n      shl(0xe5, 0x461bcd)\n      dup2\n      mstore\n      0x04\n      add\n      tag_171\n      swap1\n      tag_172\n      jump\t// in\n    tag_278:\n        /* \"contracts/Test Mint Pass v12A.sol\":5662:5674  vaultAddress */\n      0x05\n        /* \"contracts/Test Mint Pass v12A.sol\":5662:5690  vaultAddress = _vaultAddress */\n      dup1\n      sload\n      not(sub(shl(0xa0, 0x01), 0x01))\n      and\n      sub(shl(0xa0, 0x01), 0x01)\n      swap3\n      swap1\n      swap3\n      and\n      swap2\n      swap1\n      swap2\n      or\n      swap1\n      sstore\n        /* \"contracts/Test Mint Pass v12A.sol\":5594:5697  function setVault(address _vaultAddress) public onlyOwner {... */\n      jump\t// out\n        /* \"contracts/Ownable.sol\":1689:1790  function renounceOwnership() public virtual onlyOwner {... */\n    tag_101:\n        /* \"contracts/Ownable.sol\":1129:1135  _owner */\n      and(sub(shl(0xa0, 0x01), 0x01), sload(0x02))\n        /* \"@openzeppelin/contracts/utils/Context.sol\":719:729  msg.sender */\n      caller\n        /* \"contracts/Ownable.sol\":1269:1292  owner() == _msgSender() */\n      eq\n        /* \"contracts/Ownable.sol\":1261:1329  require(owner() == _msgSender(), \"Ownable: caller is not the owner\") */\n      tag_284\n      jumpi\n      mload(0x40)\n      shl(0xe5, 0x461bcd)\n      dup2\n      mstore\n      0x04\n      add\n      tag_171\n      swap1\n      tag_172\n      jump\t// in\n    tag_284:\n        /* \"contracts/Ownable.sol\":1753:1783  _transferOwnership(address(0)) */\n      tag_256\n        /* \"contracts/Ownable.sol\":1780:1781  0 */\n      0x00\n        /* \"contracts/Ownable.sol\":1753:1771  _transferOwnership */\n      tag_288\n        /* \"contracts/Ownable.sol\":1753:1783  _transferOwnership(address(0)) */\n      jump\t// in\n        /* \"contracts/Test Mint Pass v12A.sol\":761:781  string public symbol */\n    tag_109:\n      0x04\n      dup1\n      sload\n      tag_160\n      swap1\n      tag_161\n      jump\t// in\n        /* \"contracts/ERC1155.sol\":1703:1906  function setApprovalForAll(address operator, bool approved) public virtual {... */\n    tag_121:\n        /* \"contracts/ERC1155.sol\":1805:1815  msg.sender */\n      caller\n        /* \"contracts/ERC1155.sol\":1788:1816  isApprovedForAll[msg.sender] */\n      0x00\n      dup2\n      dup2\n      mstore\n        /* \"contracts/ERC1155.sol\":1788:1804  isApprovedForAll */\n      0x01\n        /* \"contracts/ERC1155.sol\":1788:1816  isApprovedForAll[msg.sender] */\n      0x20\n      swap1\n      dup2\n      mstore\n      0x40\n      dup1\n      dup4\n      keccak256\n      sub(shl(0xa0, 0x01), 0x01)\n        /* \"contracts/ERC1155.sol\":1788:1826  isApprovedForAll[msg.sender][operator] */\n      dup8\n      and\n      dup1\n      dup6\n      mstore\n      swap1\n      dup4\n      mstore\n      swap3\n      dup2\n      swap1\n      keccak256\n        /* \"contracts/ERC1155.sol\":1788:1837  isApprovedForAll[msg.sender][operator] = approved */\n      dup1\n      sload\n      not(0xff)\n      and\n      dup7\n      iszero\n      iszero\n      swap1\n      dup2\n      or\n      swap1\n      swap2\n      sstore\n        /* \"contracts/ERC1155.sol\":1853:1899  ApprovalForAll(msg.sender, operator, approved) */\n      swap1\n      mload\n        /* \"#utility.yul\":1159:1200   */\n      swap1\n      dup2\n      mstore\n        /* \"contracts/ERC1155.sol\":1788:1826  isApprovedForAll[msg.sender][operator] */\n      swap2\n      swap3\n        /* \"contracts/ERC1155.sol\":1805:1815  msg.sender */\n      swap2\n        /* \"contracts/ERC1155.sol\":1853:1899  ApprovalForAll(msg.sender, operator, approved) */\n      0x17307eab39ab6107e8899845ad3d59bd9653f200f220920489ca2b5937696c31\n      swap2\n        /* \"#utility.yul\":1132:1150   */\n      add\n        /* \"contracts/ERC1155.sol\":1853:1899  ApprovalForAll(msg.sender, operator, approved) */\n      mload(0x40)\n      dup1\n      swap2\n      sub\n      swap1\n      log3\n        /* \"contracts/ERC1155.sol\":1703:1906  function setApprovalForAll(address operator, bool approved) public virtual {... */\n      pop\n      pop\n      jump\t// out\n        /* \"contracts/Test Mint Pass v12A.sol\":1734:1776  mapping(uint256 => string) public tokenURI */\n    tag_128:\n      mstore(0x20, 0x07)\n      0x00\n      swap1\n      dup2\n      mstore\n      0x40\n      swap1\n      keccak256\n      dup1\n      sload\n      tag_160\n      swap1\n      tag_161\n      jump\t// in\n        /* \"contracts/ERC1155.sol\":1912:2611  function safeTransferFrom(... */\n    tag_150:\n        /* \"contracts/ERC1155.sol\":2092:2102  msg.sender */\n      caller\n      sub(shl(0xa0, 0x01), 0x01)\n        /* \"contracts/ERC1155.sol\":2092:2110  msg.sender == from */\n      dup8\n      and\n      eq\n      dup1\n        /* \"contracts/ERC1155.sol\":2092:2148  msg.sender == from || isApprovedForAll[from][msg.sender] */\n      tag_304\n      jumpi\n      pop\n      sub(shl(0xa0, 0x01), 0x01)\n        /* \"contracts/ERC1155.sol\":2114:2136  isApprovedForAll[from] */\n      dup7\n      and\n      0x00\n      swap1\n      dup2\n      mstore\n        /* \"contracts/ERC1155.sol\":2114:2130  isApprovedForAll */\n      0x01\n        /* \"contracts/ERC1155.sol\":2114:2136  isApprovedForAll[from] */\n      0x20\n      swap1\n      dup2\n      mstore\n      0x40\n      dup1\n      dup4\n      keccak256\n        /* \"contracts/ERC1155.sol\":2137:2147  msg.sender */\n      caller\n        /* \"contracts/ERC1155.sol\":2114:2148  isApprovedForAll[from][msg.sender] */\n      dup5\n      mstore\n      swap1\n      swap2\n      mstore\n      swap1\n      keccak256\n      sload\n      0xff\n      and\n        /* \"contracts/ERC1155.sol\":2092:2148  msg.sender == from || isApprovedForAll[from][msg.sender] */\n    tag_304:\n        /* \"contracts/ERC1155.sol\":2084:2167  require(msg.sender == from || isApprovedForAll[from][msg.sender], \"NOT_AUTHORIZED\") */\n      tag_305\n      jumpi\n      mload(0x40)\n      shl(0xe5, 0x461bcd)\n      dup2\n      mstore\n        /* \"#utility.yul\":9924:9926   */\n      0x20\n        /* \"contracts/ERC1155.sol\":2084:2167  require(msg.sender == from || isApprovedForAll[from][msg.sender], \"NOT_AUTHORIZED\") */\n      0x04\n      dup3\n      add\n        /* \"#utility.yul\":9906:9927   */\n      mstore\n        /* \"#utility.yul\":9963:9965   */\n      0x0e\n        /* \"#utility.yul\":9943:9961   */\n      0x24\n      dup3\n      add\n        /* \"#utility.yul\":9936:9966   */\n      mstore\n      shl(0x92, 0x1393d517d055551213d492569151)\n        /* \"#utility.yul\":9982:10000   */\n      0x44\n      dup3\n      add\n        /* \"#utility.yul\":9975:10019   */\n      mstore\n        /* \"#utility.yul\":10036:10054   */\n      0x64\n      add\n        /* \"contracts/ERC1155.sol\":2084:2167  require(msg.sender == from || isApprovedForAll[from][msg.sender], \"NOT_AUTHORIZED\") */\n      tag_171\n        /* \"#utility.yul\":9722:10060   */\n      jump\n        /* \"contracts/ERC1155.sol\":2084:2167  require(msg.sender == from || isApprovedForAll[from][msg.sender], \"NOT_AUTHORIZED\") */\n    tag_305:\n      sub(shl(0xa0, 0x01), 0x01)\n        /* \"contracts/ERC1155.sol\":2178:2193  balanceOf[from] */\n      dup7\n      and\n        /* \"contracts/ERC1155.sol\":2178:2187  balanceOf */\n      0x00\n        /* \"contracts/ERC1155.sol\":2178:2193  balanceOf[from] */\n      swap1\n      dup2\n      mstore\n      0x20\n      dup2\n      dup2\n      mstore\n      0x40\n      dup1\n      dup4\n      keccak256\n        /* \"contracts/ERC1155.sol\":2178:2197  balanceOf[from][id] */\n      dup8\n      dup5\n      mstore\n      swap1\n      swap2\n      mstore\n      dup2\n      keccak256\n        /* \"contracts/ERC1155.sol\":2178:2207  balanceOf[from][id] -= amount */\n      dup1\n      sload\n        /* \"contracts/ERC1155.sol\":2201:2207  amount */\n      dup6\n      swap3\n        /* \"contracts/ERC1155.sol\":2178:2187  balanceOf */\n      swap1\n        /* \"contracts/ERC1155.sol\":2178:2207  balanceOf[from][id] -= amount */\n      tag_307\n      swap1\n        /* \"contracts/ERC1155.sol\":2201:2207  amount */\n      dup5\n      swap1\n        /* \"contracts/ERC1155.sol\":2178:2207  balanceOf[from][id] -= amount */\n      tag_210\n      jump\t// in\n    tag_307:\n      swap1\n      swap2\n      sstore\n      pop\n      pop\n      sub(shl(0xa0, 0x01), 0x01)\n        /* \"contracts/ERC1155.sol\":2217:2230  balanceOf[to] */\n      dup6\n      and\n        /* \"contracts/ERC1155.sol\":2217:2226  balanceOf */\n      0x00\n        /* \"contracts/ERC1155.sol\":2217:2230  balanceOf[to] */\n      swap1\n      dup2\n      mstore\n      0x20\n      dup2\n      dup2\n      mstore\n      0x40\n      dup1\n      dup4\n      keccak256\n        /* \"contracts/ERC1155.sol\":2217:2234  balanceOf[to][id] */\n      dup8\n      dup5\n      mstore\n      swap1\n      swap2\n      mstore\n      dup2\n      keccak256\n        /* \"contracts/ERC1155.sol\":2217:2244  balanceOf[to][id] += amount */\n      dup1\n      sload\n        /* \"contracts/ERC1155.sol\":2238:2244  amount */\n      dup6\n      swap3\n        /* \"contracts/ERC1155.sol\":2217:2226  balanceOf */\n      swap1\n        /* \"contracts/ERC1155.sol\":2217:2244  balanceOf[to][id] += amount */\n      tag_308\n      swap1\n        /* \"contracts/ERC1155.sol\":2238:2244  amount */\n      dup5\n      swap1\n        /* \"contracts/ERC1155.sol\":2217:2244  balanceOf[to][id] += amount */\n      tag_212\n      jump\t// in\n    tag_308:\n      swap1\n      swap2\n      sstore\n      pop\n      pop\n        /* \"contracts/ERC1155.sol\":2260:2308  TransferSingle(msg.sender, from, to, id, amount) */\n      0x40\n      dup1\n      mload\n        /* \"#utility.yul\":14202:14227   */\n      dup6\n      dup2\n      mstore\n        /* \"#utility.yul\":14258:14260   */\n      0x20\n        /* \"#utility.yul\":14243:14261   */\n      dup2\n      add\n        /* \"#utility.yul\":14236:14270   */\n      dup6\n      swap1\n      mstore\n      sub(shl(0xa0, 0x01), 0x01)\n        /* \"contracts/ERC1155.sol\":2260:2308  TransferSingle(msg.sender, from, to, id, amount) */\n      dup1\n      dup9\n      and\n      swap3\n      swap1\n      dup10\n      and\n      swap2\n        /* \"contracts/ERC1155.sol\":2275:2285  msg.sender */\n      caller\n      swap2\n        /* \"contracts/ERC1155.sol\":2260:2308  TransferSingle(msg.sender, from, to, id, amount) */\n      0xc3d58168c5ae7397731d063d5bbf3d657854427343f4c083240f7aacaa2d0f62\n      swap2\n        /* \"#utility.yul\":14175:14193   */\n      add\n        /* \"contracts/ERC1155.sol\":2260:2308  TransferSingle(msg.sender, from, to, id, amount) */\n      mload(0x40)\n      dup1\n      swap2\n      sub\n      swap1\n      log4\n      sub(shl(0xa0, 0x01), 0x01)\n        /* \"contracts/ERC1155.sol\":2340:2354  to.code.length */\n      dup6\n      and\n      extcodesize\n        /* \"contracts/ERC1155.sol\":2340:2359  to.code.length == 0 */\n      iszero\n        /* \"contracts/ERC1155.sol\":2340:2562  to.code.length == 0... */\n      tag_311\n      jumpi\n        /* \"contracts/ERC1155.sol\":2413:2491  ERC1155TokenReceiver(to).onERC1155Received(msg.sender, from, id, amount, data) */\n      mload(0x40)\n      shl(0xe0, 0xf23a6e61)\n      dup1\n      dup3\n      mstore\n        /* \"contracts/ERC1155.sol\":2515:2562  ERC1155TokenReceiver.onERC1155Received.selector */\n      swap1\n      sub(shl(0xa0, 0x01), 0x01)\n        /* \"contracts/ERC1155.sol\":2413:2455  ERC1155TokenReceiver(to).onERC1155Received */\n      dup8\n      and\n      swap1\n        /* \"contracts/ERC1155.sol\":2515:2562  ERC1155TokenReceiver.onERC1155Received.selector */\n      0xf23a6e61\n      swap1\n        /* \"contracts/ERC1155.sol\":2413:2491  ERC1155TokenReceiver(to).onERC1155Received(msg.sender, from, id, amount, data) */\n      tag_312\n      swap1\n        /* \"contracts/ERC1155.sol\":2456:2466  msg.sender */\n      caller\n      swap1\n        /* \"contracts/ERC1155.sol\":2468:2472  from */\n      dup12\n      swap1\n        /* \"contracts/ERC1155.sol\":2474:2476  id */\n      dup11\n      swap1\n        /* \"contracts/ERC1155.sol\":2478:2484  amount */\n      dup11\n      swap1\n        /* \"contracts/ERC1155.sol\":2486:2490  data */\n      dup11\n      swap1\n      dup11\n      swap1\n        /* \"contracts/ERC1155.sol\":2413:2491  ERC1155TokenReceiver(to).onERC1155Received(msg.sender, from, id, amount, data) */\n      0x04\n      add\n      tag_313\n      jump\t// in\n    tag_312:\n      0x20\n      mload(0x40)\n      dup1\n      dup4\n      sub\n      dup2\n      0x00\n      dup8\n      gas\n      call\n      iszero\n      dup1\n      iszero\n      tag_315\n      jumpi\n      returndatasize\n      0x00\n      dup1\n      returndatacopy\n      revert(0x00, returndatasize)\n    tag_315:\n      pop\n      pop\n      pop\n      pop\n      mload(0x40)\n      returndatasize\n      not(0x1f)\n      0x1f\n      dup3\n      add\n      and\n      dup3\n      add\n      dup1\n      0x40\n      mstore\n      pop\n      dup2\n      add\n      swap1\n      tag_316\n      swap2\n      swap1\n      tag_221\n      jump\t// in\n    tag_316:\n      not(sub(shl(0xe0, 0x01), 0x01))\n        /* \"contracts/ERC1155.sol\":2413:2562  ERC1155TokenReceiver(to).onERC1155Received(msg.sender, from, id, amount, data) ==... */\n      and\n      eq\n        /* \"contracts/ERC1155.sol\":2340:2562  to.code.length == 0... */\n      jump(tag_317)\n    tag_311:\n      sub(shl(0xa0, 0x01), 0x01)\n        /* \"contracts/ERC1155.sol\":2378:2394  to != address(0) */\n      dup6\n      and\n      iszero\n      iszero\n        /* \"contracts/ERC1155.sol\":2340:2562  to.code.length == 0... */\n    tag_317:\n        /* \"contracts/ERC1155.sol\":2319:2604  require(... */\n      tag_318\n      jumpi\n      mload(0x40)\n      shl(0xe5, 0x461bcd)\n      dup2\n      mstore\n      0x04\n      add\n      tag_171\n      swap1\n      tag_225\n      jump\t// in\n    tag_318:\n        /* \"contracts/ERC1155.sol\":1912:2611  function safeTransferFrom(... */\n      pop\n      pop\n      pop\n      pop\n      pop\n      pop\n      jump\t// out\n        /* \"contracts/Ownable.sol\":1939:2137  function transferOwnership(address newOwner) public virtual onlyOwner {... */\n    tag_153:\n        /* \"contracts/Ownable.sol\":1129:1135  _owner */\n      and(sub(shl(0xa0, 0x01), 0x01), sload(0x02))\n        /* \"@openzeppelin/contracts/utils/Context.sol\":719:729  msg.sender */\n      caller\n        /* \"contracts/Ownable.sol\":1269:1292  owner() == _msgSender() */\n      eq\n        /* \"contracts/Ownable.sol\":1261:1329  require(owner() == _msgSender(), \"Ownable: caller is not the owner\") */\n      tag_323\n      jumpi\n      mload(0x40)\n      shl(0xe5, 0x461bcd)\n      dup2\n      mstore\n      0x04\n      add\n      tag_171\n      swap1\n      tag_172\n      jump\t// in\n    tag_323:\n      sub(shl(0xa0, 0x01), 0x01)\n        /* \"contracts/Ownable.sol\":2027:2049  newOwner != address(0) */\n      dup2\n      and\n        /* \"contracts/Ownable.sol\":2019:2092  require(newOwner != address(0), \"Ownable: new owner is the zero address\") */\n      tag_326\n      jumpi\n      mload(0x40)\n      shl(0xe5, 0x461bcd)\n      dup2\n      mstore\n        /* \"#utility.yul\":15075:15077   */\n      0x20\n        /* \"contracts/Ownable.sol\":2019:2092  require(newOwner != address(0), \"Ownable: new owner is the zero address\") */\n      0x04\n      dup3\n      add\n        /* \"#utility.yul\":15057:15078   */\n      mstore\n        /* \"#utility.yul\":15114:15116   */\n      0x26\n        /* \"#utility.yul\":15094:15112   */\n      0x24\n      dup3\n      add\n        /* \"#utility.yul\":15087:15117   */\n      mstore\n        /* \"#utility.yul\":15153:15187   */\n      0x4f776e61626c653a206e6577206f776e657220697320746865207a65726f2061\n        /* \"#utility.yul\":15133:15151   */\n      0x44\n      dup3\n      add\n        /* \"#utility.yul\":15126:15188   */\n      mstore\n      shl(0xd0, 0x646472657373)\n        /* \"#utility.yul\":15204:15222   */\n      0x64\n      dup3\n      add\n        /* \"#utility.yul\":15197:15233   */\n      mstore\n        /* \"#utility.yul\":15250:15269   */\n      0x84\n      add\n        /* \"contracts/Ownable.sol\":2019:2092  require(newOwner != address(0), \"Ownable: new owner is the zero address\") */\n      tag_171\n        /* \"#utility.yul\":14873:15275   */\n      jump\n        /* \"contracts/Ownable.sol\":2019:2092  require(newOwner != address(0), \"Ownable: new owner is the zero address\") */\n    tag_326:\n        /* \"contracts/Ownable.sol\":2102:2130  _transferOwnership(newOwner) */\n      tag_192\n        /* \"contracts/Ownable.sol\":2121:2129  newOwner */\n      dup2\n        /* \"contracts/Ownable.sol\":2102:2120  _transferOwnership */\n      tag_288\n        /* \"contracts/Ownable.sol\":2102:2130  _transferOwnership(newOwner) */\n      jump\t// in\n        /* \"contracts/ERC1155.sol\":5137:5682  function _mint(... */\n    tag_191:\n      sub(shl(0xa0, 0x01), 0x01)\n        /* \"contracts/ERC1155.sol\":5276:5289  balanceOf[to] */\n      dup5\n      and\n        /* \"contracts/ERC1155.sol\":5276:5285  balanceOf */\n      0x00\n        /* \"contracts/ERC1155.sol\":5276:5289  balanceOf[to] */\n      swap1\n      dup2\n      mstore\n      0x20\n      dup2\n      dup2\n      mstore\n      0x40\n      dup1\n      dup4\n      keccak256\n        /* \"contracts/ERC1155.sol\":5276:5293  balanceOf[to][id] */\n      dup7\n      dup5\n      mstore\n      swap1\n      swap2\n      mstore\n      dup2\n      keccak256\n        /* \"contracts/ERC1155.sol\":5276:5303  balanceOf[to][id] += amount */\n      dup1\n      sload\n        /* \"contracts/ERC1155.sol\":5297:5303  amount */\n      dup5\n      swap3\n        /* \"contracts/ERC1155.sol\":5276:5285  balanceOf */\n      swap1\n        /* \"contracts/ERC1155.sol\":5276:5303  balanceOf[to][id] += amount */\n      tag_332\n      swap1\n        /* \"contracts/ERC1155.sol\":5297:5303  amount */\n      dup5\n      swap1\n        /* \"contracts/ERC1155.sol\":5276:5303  balanceOf[to][id] += amount */\n      tag_212\n      jump\t// in\n    tag_332:\n      swap1\n      swap2\n      sstore\n      pop\n      pop\n        /* \"contracts/ERC1155.sol\":5319:5373  TransferSingle(msg.sender, address(0), to, id, amount) */\n      0x40\n      dup1\n      mload\n        /* \"#utility.yul\":14202:14227   */\n      dup5\n      dup2\n      mstore\n        /* \"#utility.yul\":14258:14260   */\n      0x20\n        /* \"#utility.yul\":14243:14261   */\n      dup2\n      add\n        /* \"#utility.yul\":14236:14270   */\n      dup5\n      swap1\n      mstore\n      sub(shl(0xa0, 0x01), 0x01)\n        /* \"contracts/ERC1155.sol\":5319:5373  TransferSingle(msg.sender, address(0), to, id, amount) */\n      dup7\n      and\n      swap2\n        /* \"contracts/ERC1155.sol\":5354:5355  0 */\n      0x00\n      swap2\n        /* \"contracts/ERC1155.sol\":5334:5344  msg.sender */\n      caller\n      swap2\n        /* \"contracts/ERC1155.sol\":5319:5373  TransferSingle(msg.sender, address(0), to, id, amount) */\n      0xc3d58168c5ae7397731d063d5bbf3d657854427343f4c083240f7aacaa2d0f62\n      swap2\n        /* \"#utility.yul\":14175:14193   */\n      add\n        /* \"contracts/ERC1155.sol\":5319:5373  TransferSingle(msg.sender, address(0), to, id, amount) */\n      mload(0x40)\n      dup1\n      swap2\n      sub\n      swap1\n      log4\n      sub(shl(0xa0, 0x01), 0x01)\n        /* \"contracts/ERC1155.sol\":5405:5419  to.code.length */\n      dup5\n      and\n      extcodesize\n        /* \"contracts/ERC1155.sol\":5405:5424  to.code.length == 0 */\n      iszero\n        /* \"contracts/ERC1155.sol\":5405:5633  to.code.length == 0... */\n      tag_334\n      jumpi\n        /* \"contracts/ERC1155.sol\":5478:5562  ERC1155TokenReceiver(to).onERC1155Received(msg.sender, address(0), id, amount, data) */\n      mload(0x40)\n      shl(0xe0, 0xf23a6e61)\n      dup1\n      dup3\n      mstore\n        /* \"contracts/ERC1155.sol\":5586:5633  ERC1155TokenReceiver.onERC1155Received.selector */\n      swap1\n      sub(shl(0xa0, 0x01), 0x01)\n        /* \"contracts/ERC1155.sol\":5478:5520  ERC1155TokenReceiver(to).onERC1155Received */\n      dup7\n      and\n      swap1\n        /* \"contracts/ERC1155.sol\":5586:5633  ERC1155TokenReceiver.onERC1155Received.selector */\n      0xf23a6e61\n      swap1\n        /* \"contracts/ERC1155.sol\":5478:5562  ERC1155TokenReceiver(to).onERC1155Received(msg.sender, address(0), id, amount, data) */\n      tag_335\n      swap1\n        /* \"contracts/ERC1155.sol\":5521:5531  msg.sender */\n      caller\n      swap1\n        /* \"contracts/ERC1155.sol\":5541:5542  0 */\n      0x00\n      swap1\n        /* \"contracts/ERC1155.sol\":5545:5547  id */\n      dup10\n      swap1\n        /* \"contracts/ERC1155.sol\":5549:5555  amount */\n      dup10\n      swap1\n        /* \"contracts/ERC1155.sol\":5557:5561  data */\n      dup10\n      swap1\n        /* \"contracts/ERC1155.sol\":5478:5562  ERC1155TokenReceiver(to).onERC1155Received(msg.sender, address(0), id, amount, data) */\n      0x04\n      add\n      tag_336\n      jump\t// in\n    tag_335:\n      0x20\n      mload(0x40)\n      dup1\n      dup4\n      sub\n      dup2\n      0x00\n      dup8\n      gas\n      call\n      iszero\n      dup1\n      iszero\n      tag_338\n      jumpi\n      returndatasize\n      0x00\n      dup1\n      returndatacopy\n      revert(0x00, returndatasize)\n    tag_338:\n      pop\n      pop\n      pop\n      pop\n      mload(0x40)\n      returndatasize\n      not(0x1f)\n      0x1f\n      dup3\n      add\n      and\n      dup3\n      add\n      dup1\n      0x40\n      mstore\n      pop\n      dup2\n      add\n      swap1\n      tag_339\n      swap2\n      swap1\n      tag_221\n      jump\t// in\n    tag_339:\n      not(sub(shl(0xe0, 0x01), 0x01))\n        /* \"contracts/ERC1155.sol\":5478:5633  ERC1155TokenReceiver(to).onERC1155Received(msg.sender, address(0), id, amount, data) ==... */\n      and\n      eq\n        /* \"contracts/ERC1155.sol\":5405:5633  to.code.length == 0... */\n      jump(tag_340)\n    tag_334:\n      sub(shl(0xa0, 0x01), 0x01)\n        /* \"contracts/ERC1155.sol\":5443:5459  to != address(0) */\n      dup5\n      and\n      iszero\n      iszero\n        /* \"contracts/ERC1155.sol\":5405:5633  to.code.length == 0... */\n    tag_340:\n        /* \"contracts/ERC1155.sol\":5384:5675  require(... */\n      tag_341\n      jumpi\n      mload(0x40)\n      shl(0xe5, 0x461bcd)\n      dup2\n      mstore\n      0x04\n      add\n      tag_171\n      swap1\n      tag_225\n      jump\t// in\n    tag_341:\n        /* \"contracts/ERC1155.sol\":5137:5682  function _mint(... */\n      pop\n      pop\n      pop\n      pop\n      jump\t// out\n        /* \"contracts/SafeTransferLib.sol\":831:1127  function safeTransferETH(address to, uint256 amount) internal {... */\n    tag_257:\n        /* \"contracts/SafeTransferLib.sol\":903:915  bool success */\n      0x00\n        /* \"contracts/SafeTransferLib.sol\":1059:1060  0 */\n      dup1\n        /* \"contracts/SafeTransferLib.sol\":1056:1057  0 */\n      0x00\n        /* \"contracts/SafeTransferLib.sol\":1053:1054  0 */\n      dup1\n        /* \"contracts/SafeTransferLib.sol\":1050:1051  0 */\n      0x00\n        /* \"contracts/SafeTransferLib.sol\":1042:1048  amount */\n      dup6\n        /* \"contracts/SafeTransferLib.sol\":1038:1040  to */\n      dup8\n        /* \"contracts/SafeTransferLib.sol\":1031:1036  gas() */\n      gas\n        /* \"contracts/SafeTransferLib.sol\":1026:1061  call(gas(), to, amount, 0, 0, 0, 0) */\n      call\n        /* \"contracts/SafeTransferLib.sol\":1015:1061  success := call(gas(), to, amount, 0, 0, 0, 0) */\n      swap1\n      pop\n        /* \"contracts/SafeTransferLib.sol\":1089:1096  success */\n      dup1\n        /* \"contracts/SafeTransferLib.sol\":1081:1120  require(success, \"ETH_TRANSFER_FAILED\") */\n      tag_174\n      jumpi\n      mload(0x40)\n      shl(0xe5, 0x461bcd)\n      dup2\n      mstore\n        /* \"#utility.yul\":16048:16050   */\n      0x20\n        /* \"contracts/SafeTransferLib.sol\":1081:1120  require(success, \"ETH_TRANSFER_FAILED\") */\n      0x04\n      dup3\n      add\n        /* \"#utility.yul\":16030:16051   */\n      mstore\n        /* \"#utility.yul\":16087:16089   */\n      0x13\n        /* \"#utility.yul\":16067:16085   */\n      0x24\n      dup3\n      add\n        /* \"#utility.yul\":16060:16090   */\n      mstore\n      shl(0x6a, 0x11551217d514905394d1915497d19052531151)\n        /* \"#utility.yul\":16106:16124   */\n      0x44\n      dup3\n      add\n        /* \"#utility.yul\":16099:16148   */\n      mstore\n        /* \"#utility.yul\":16165:16183   */\n      0x64\n      add\n        /* \"contracts/SafeTransferLib.sol\":1081:1120  require(success, \"ETH_TRANSFER_FAILED\") */\n      tag_171\n        /* \"#utility.yul\":15846:16189   */\n      jump\n        /* \"contracts/Ownable.sol\":2291:2478  function _transferOwnership(address newOwner) internal virtual {... */\n    tag_288:\n        /* \"contracts/Ownable.sol\":2383:2389  _owner */\n      0x02\n      dup1\n      sload\n      sub(shl(0xa0, 0x01), 0x01)\n        /* \"contracts/Ownable.sol\":2399:2416  _owner = newOwner */\n      dup4\n      dup2\n      and\n      not(sub(shl(0xa0, 0x01), 0x01))\n      dup4\n      and\n      dup2\n      or\n      swap1\n      swap4\n      sstore\n        /* \"contracts/Ownable.sol\":2431:2471  OwnershipTransferred(oldOwner, newOwner) */\n      mload(0x40)\n        /* \"contracts/Ownable.sol\":2383:2389  _owner */\n      swap2\n      and\n      swap2\n        /* \"contracts/Ownable.sol\":2399:2416  _owner = newOwner */\n      swap1\n        /* \"contracts/Ownable.sol\":2383:2389  _owner */\n      dup3\n      swap1\n        /* \"contracts/Ownable.sol\":2431:2471  OwnershipTransferred(oldOwner, newOwner) */\n      0x8be0079c531659141344cd1fd0a4f28419497f9722a3daafe3b4186f6b6457e0\n      swap1\n        /* \"contracts/Ownable.sol\":2364:2380  address oldOwner */\n      0x00\n      swap1\n        /* \"contracts/Ownable.sol\":2431:2471  OwnershipTransferred(oldOwner, newOwner) */\n      log3\n        /* \"contracts/Ownable.sol\":2354:2478  {... */\n      pop\n        /* \"contracts/Ownable.sol\":2291:2478  function _transferOwnership(address newOwner) internal virtual {... */\n      pop\n      jump\t// out\n    tag_175:\n      dup3\n      dup1\n      sload\n      tag_348\n      swap1\n      tag_161\n      jump\t// in\n    tag_348:\n      swap1\n      0x00\n      mstore\n      keccak256(0x00, 0x20)\n      swap1\n      0x1f\n      add\n      0x20\n      swap1\n      div\n      dup2\n      add\n      swap3\n      dup3\n      tag_350\n      jumpi\n      0x00\n      dup6\n      sstore\n      jump(tag_353)\n    tag_350:\n      dup3\n      0x1f\n      lt\n      tag_351\n      jumpi\n      dup1\n      mload\n      not(0xff)\n      and\n      dup4\n      dup1\n      add\n      or\n      dup6\n      sstore\n      jump(tag_353)\n    tag_351:\n      dup3\n      dup1\n      add\n      0x01\n      add\n      dup6\n      sstore\n      dup3\n      iszero\n      tag_353\n      jumpi\n      swap2\n      dup3\n      add\n    tag_352:\n      dup3\n      dup2\n      gt\n      iszero\n      tag_353\n      jumpi\n      dup3\n      mload\n      dup3\n      sstore\n      swap2\n      0x20\n      add\n      swap2\n      swap1\n      0x01\n      add\n      swap1\n      jump(tag_352)\n    tag_353:\n      pop\n      tag_354\n      swap3\n      swap2\n      pop\n      tag_355\n      jump\t// in\n    tag_354:\n      pop\n      swap1\n      jump\t// out\n    tag_355:\n    tag_356:\n      dup1\n      dup3\n      gt\n      iszero\n      tag_354\n      jumpi\n      0x00\n      dup2\n      sstore\n      0x01\n      add\n      jump(tag_356)\n        /* \"#utility.yul\":14:187   */\n    tag_358:\n        /* \"#utility.yul\":82:102   */\n      dup1\n      calldataload\n      sub(shl(0xa0, 0x01), 0x01)\n        /* \"#utility.yul\":131:162   */\n      dup2\n      and\n        /* \"#utility.yul\":121:163   */\n      dup2\n      eq\n        /* \"#utility.yul\":111:181   */\n      tag_368\n      jumpi\n        /* \"#utility.yul\":177:178   */\n      0x00\n        /* \"#utility.yul\":174:175   */\n      dup1\n        /* \"#utility.yul\":167:179   */\n      revert\n        /* \"#utility.yul\":111:181   */\n    tag_368:\n        /* \"#utility.yul\":14:187   */\n      swap2\n      swap1\n      pop\n      jump\t// out\n        /* \"#utility.yul\":192:446   */\n    tag_43:\n        /* \"#utility.yul\":260:266   */\n      0x00\n        /* \"#utility.yul\":268:274   */\n      dup1\n        /* \"#utility.yul\":321:323   */\n      0x40\n        /* \"#utility.yul\":309:318   */\n      dup4\n        /* \"#utility.yul\":300:307   */\n      dup6\n        /* \"#utility.yul\":296:319   */\n      sub\n        /* \"#utility.yul\":292:324   */\n      slt\n        /* \"#utility.yul\":289:341   */\n      iszero\n      tag_370\n      jumpi\n        /* \"#utility.yul\":337:338   */\n      0x00\n        /* \"#utility.yul\":334:335   */\n      dup1\n        /* \"#utility.yul\":327:339   */\n      revert\n        /* \"#utility.yul\":289:341   */\n    tag_370:\n        /* \"#utility.yul\":360:389   */\n      tag_371\n        /* \"#utility.yul\":379:388   */\n      dup4\n        /* \"#utility.yul\":360:389   */\n      tag_358\n      jump\t// in\n    tag_371:\n        /* \"#utility.yul\":350:389   */\n      swap5\n        /* \"#utility.yul\":436:438   */\n      0x20\n        /* \"#utility.yul\":421:439   */\n      swap4\n      swap1\n      swap4\n      add\n        /* \"#utility.yul\":408:440   */\n      calldataload\n      swap4\n      pop\n      pop\n      pop\n        /* \"#utility.yul\":192:446   */\n      jump\t// out\n        /* \"#utility.yul\":633:764   */\n    tag_359:\n      not(sub(shl(0xe0, 0x01), 0x01))\n        /* \"#utility.yul\":707:739   */\n      dup2\n      and\n        /* \"#utility.yul\":697:740   */\n      dup2\n      eq\n        /* \"#utility.yul\":687:758   */\n      tag_192\n      jumpi\n        /* \"#utility.yul\":754:755   */\n      0x00\n        /* \"#utility.yul\":751:752   */\n      dup1\n        /* \"#utility.yul\":744:756   */\n      revert\n        /* \"#utility.yul\":769:1014   */\n    tag_49:\n        /* \"#utility.yul\":827:833   */\n      0x00\n        /* \"#utility.yul\":880:882   */\n      0x20\n        /* \"#utility.yul\":868:877   */\n      dup3\n        /* \"#utility.yul\":859:866   */\n      dup5\n        /* \"#utility.yul\":855:878   */\n      sub\n        /* \"#utility.yul\":851:883   */\n      slt\n        /* \"#utility.yul\":848:900   */\n      iszero\n      tag_376\n      jumpi\n        /* \"#utility.yul\":896:897   */\n      0x00\n        /* \"#utility.yul\":893:894   */\n      dup1\n        /* \"#utility.yul\":886:898   */\n      revert\n        /* \"#utility.yul\":848:900   */\n    tag_376:\n        /* \"#utility.yul\":935:944   */\n      dup2\n        /* \"#utility.yul\":922:945   */\n      calldataload\n        /* \"#utility.yul\":954:984   */\n      tag_377\n        /* \"#utility.yul\":978:983   */\n      dup2\n        /* \"#utility.yul\":954:984   */\n      tag_359\n      jump\t// in\n    tag_377:\n        /* \"#utility.yul\":1003:1008   */\n      swap4\n        /* \"#utility.yul\":769:1014   */\n      swap3\n      pop\n      pop\n      pop\n      jump\t// out\n        /* \"#utility.yul\":1211:1683   */\n    tag_360:\n        /* \"#utility.yul\":1253:1256   */\n      0x00\n        /* \"#utility.yul\":1291:1296   */\n      dup2\n        /* \"#utility.yul\":1285:1297   */\n      mload\n        /* \"#utility.yul\":1318:1324   */\n      dup1\n        /* \"#utility.yul\":1313:1316   */\n      dup5\n        /* \"#utility.yul\":1306:1325   */\n      mstore\n        /* \"#utility.yul\":1343:1344   */\n      0x00\n        /* \"#utility.yul\":1353:1515   */\n    tag_380:\n        /* \"#utility.yul\":1367:1373   */\n      dup2\n        /* \"#utility.yul\":1364:1365   */\n      dup2\n        /* \"#utility.yul\":1361:1374   */\n      lt\n        /* \"#utility.yul\":1353:1515   */\n      iszero\n      tag_382\n      jumpi\n        /* \"#utility.yul\":1429:1433   */\n      0x20\n        /* \"#utility.yul\":1485:1498   */\n      dup2\n      dup6\n      add\n        /* \"#utility.yul\":1481:1503   */\n      dup2\n      add\n        /* \"#utility.yul\":1475:1504   */\n      mload\n        /* \"#utility.yul\":1457:1468   */\n      dup7\n      dup4\n      add\n        /* \"#utility.yul\":1453:1473   */\n      dup3\n      add\n        /* \"#utility.yul\":1446:1505   */\n      mstore\n        /* \"#utility.yul\":1382:1394   */\n      add\n        /* \"#utility.yul\":1353:1515   */\n      jump(tag_380)\n    tag_382:\n        /* \"#utility.yul\":1533:1539   */\n      dup2\n        /* \"#utility.yul\":1530:1531   */\n      dup2\n        /* \"#utility.yul\":1527:1540   */\n      gt\n        /* \"#utility.yul\":1524:1611   */\n      iszero\n      tag_383\n      jumpi\n        /* \"#utility.yul\":1599:1600   */\n      0x00\n        /* \"#utility.yul\":1592:1596   */\n      0x20\n        /* \"#utility.yul\":1583:1589   */\n      dup4\n        /* \"#utility.yul\":1578:1581   */\n      dup8\n        /* \"#utility.yul\":1574:1590   */\n      add\n        /* \"#utility.yul\":1570:1597   */\n      add\n        /* \"#utility.yul\":1563:1601   */\n      mstore\n        /* \"#utility.yul\":1524:1611   */\n    tag_383:\n      pop\n        /* \"#utility.yul\":1665:1667   */\n      0x1f\n        /* \"#utility.yul\":1644:1659   */\n      add\n      not(0x1f)\n        /* \"#utility.yul\":1640:1669   */\n      and\n        /* \"#utility.yul\":1631:1670   */\n      swap3\n      swap1\n      swap3\n      add\n        /* \"#utility.yul\":1672:1676   */\n      0x20\n        /* \"#utility.yul\":1627:1677   */\n      add\n      swap3\n        /* \"#utility.yul\":1211:1683   */\n      swap2\n      pop\n      pop\n      jump\t// out\n        /* \"#utility.yul\":1688:1908   */\n    tag_56:\n        /* \"#utility.yul\":1837:1839   */\n      0x20\n        /* \"#utility.yul\":1826:1835   */\n      dup2\n        /* \"#utility.yul\":1819:1840   */\n      mstore\n        /* \"#utility.yul\":1800:1804   */\n      0x00\n        /* \"#utility.yul\":1857:1902   */\n      tag_377\n        /* \"#utility.yul\":1898:1900   */\n      0x20\n        /* \"#utility.yul\":1887:1896   */\n      dup4\n        /* \"#utility.yul\":1883:1901   */\n      add\n        /* \"#utility.yul\":1875:1881   */\n      dup5\n        /* \"#utility.yul\":1857:1902   */\n      tag_360\n      jump\t// in\n        /* \"#utility.yul\":1913:2040   */\n    tag_263:\n        /* \"#utility.yul\":1974:1984   */\n      0x4e487b71\n        /* \"#utility.yul\":1969:1972   */\n      0xe0\n        /* \"#utility.yul\":1965:1985   */\n      shl\n        /* \"#utility.yul\":1962:1963   */\n      0x00\n        /* \"#utility.yul\":1955:1986   */\n      mstore\n        /* \"#utility.yul\":2005:2009   */\n      0x41\n        /* \"#utility.yul\":2002:2003   */\n      0x04\n        /* \"#utility.yul\":1995:2010   */\n      mstore\n        /* \"#utility.yul\":2029:2033   */\n      0x24\n        /* \"#utility.yul\":2026:2027   */\n      0x00\n        /* \"#utility.yul\":2019:2034   */\n      revert\n        /* \"#utility.yul\":2045:3045   */\n    tag_59:\n        /* \"#utility.yul\":2123:2129   */\n      0x00\n        /* \"#utility.yul\":2131:2137   */\n      dup1\n        /* \"#utility.yul\":2184:2186   */\n      0x40\n        /* \"#utility.yul\":2172:2181   */\n      dup4\n        /* \"#utility.yul\":2163:2170   */\n      dup6\n        /* \"#utility.yul\":2159:2182   */\n      sub\n        /* \"#utility.yul\":2155:2187   */\n      slt\n        /* \"#utility.yul\":2152:2204   */\n      iszero\n      tag_388\n      jumpi\n        /* \"#utility.yul\":2200:2201   */\n      0x00\n        /* \"#utility.yul\":2197:2198   */\n      dup1\n        /* \"#utility.yul\":2190:2202   */\n      revert\n        /* \"#utility.yul\":2152:2204   */\n    tag_388:\n        /* \"#utility.yul\":2240:2249   */\n      dup3\n        /* \"#utility.yul\":2227:2250   */\n      calldataload\n        /* \"#utility.yul\":2269:2287   */\n      0xffffffffffffffff\n        /* \"#utility.yul\":2310:2312   */\n      dup1\n        /* \"#utility.yul\":2302:2308   */\n      dup3\n        /* \"#utility.yul\":2299:2313   */\n      gt\n        /* \"#utility.yul\":2296:2330   */\n      iszero\n      tag_389\n      jumpi\n        /* \"#utility.yul\":2326:2327   */\n      0x00\n        /* \"#utility.yul\":2323:2324   */\n      dup1\n        /* \"#utility.yul\":2316:2328   */\n      revert\n        /* \"#utility.yul\":2296:2330   */\n    tag_389:\n        /* \"#utility.yul\":2364:2370   */\n      dup2\n        /* \"#utility.yul\":2353:2362   */\n      dup6\n        /* \"#utility.yul\":2349:2371   */\n      add\n        /* \"#utility.yul\":2339:2371   */\n      swap2\n      pop\n        /* \"#utility.yul\":2409:2416   */\n      dup6\n        /* \"#utility.yul\":2402:2406   */\n      0x1f\n        /* \"#utility.yul\":2398:2400   */\n      dup4\n        /* \"#utility.yul\":2394:2407   */\n      add\n        /* \"#utility.yul\":2390:2417   */\n      slt\n        /* \"#utility.yul\":2380:2435   */\n      tag_390\n      jumpi\n        /* \"#utility.yul\":2431:2432   */\n      0x00\n        /* \"#utility.yul\":2428:2429   */\n      dup1\n        /* \"#utility.yul\":2421:2433   */\n      revert\n        /* \"#utility.yul\":2380:2435   */\n    tag_390:\n        /* \"#utility.yul\":2467:2469   */\n      dup2\n        /* \"#utility.yul\":2454:2470   */\n      calldataload\n        /* \"#utility.yul\":2489:2491   */\n      dup2\n        /* \"#utility.yul\":2485:2487   */\n      dup2\n        /* \"#utility.yul\":2482:2492   */\n      gt\n        /* \"#utility.yul\":2479:2515   */\n      iszero\n      tag_392\n      jumpi\n        /* \"#utility.yul\":2495:2513   */\n      tag_392\n      tag_263\n      jump\t// in\n    tag_392:\n        /* \"#utility.yul\":2570:2572   */\n      0x40\n        /* \"#utility.yul\":2564:2573   */\n      mload\n        /* \"#utility.yul\":2538:2540   */\n      0x1f\n        /* \"#utility.yul\":2624:2637   */\n      dup3\n      add\n      not(0x1f)\n        /* \"#utility.yul\":2620:2642   */\n      swap1\n      dup2\n      and\n        /* \"#utility.yul\":2644:2646   */\n      0x3f\n        /* \"#utility.yul\":2616:2647   */\n      add\n        /* \"#utility.yul\":2612:2652   */\n      and\n        /* \"#utility.yul\":2600:2653   */\n      dup2\n      add\n      swap1\n        /* \"#utility.yul\":2668:2686   */\n      dup4\n      dup3\n      gt\n        /* \"#utility.yul\":2688:2710   */\n      dup2\n      dup4\n      lt\n        /* \"#utility.yul\":2665:2711   */\n      or\n        /* \"#utility.yul\":2662:2734   */\n      iszero\n      tag_394\n      jumpi\n        /* \"#utility.yul\":2714:2732   */\n      tag_394\n      tag_263\n      jump\t// in\n    tag_394:\n        /* \"#utility.yul\":2754:2764   */\n      dup2\n        /* \"#utility.yul\":2750:2752   */\n      0x40\n        /* \"#utility.yul\":2743:2765   */\n      mstore\n        /* \"#utility.yul\":2789:2791   */\n      dup3\n        /* \"#utility.yul\":2781:2787   */\n      dup2\n        /* \"#utility.yul\":2774:2792   */\n      mstore\n        /* \"#utility.yul\":2831:2838   */\n      dup9\n        /* \"#utility.yul\":2824:2828   */\n      0x20\n        /* \"#utility.yul\":2819:2821   */\n      dup5\n        /* \"#utility.yul\":2815:2817   */\n      dup8\n        /* \"#utility.yul\":2811:2822   */\n      add\n        /* \"#utility.yul\":2807:2829   */\n      add\n        /* \"#utility.yul\":2804:2839   */\n      gt\n        /* \"#utility.yul\":2801:2856   */\n      iszero\n      tag_395\n      jumpi\n        /* \"#utility.yul\":2852:2853   */\n      0x00\n        /* \"#utility.yul\":2849:2850   */\n      dup1\n        /* \"#utility.yul\":2842:2854   */\n      revert\n        /* \"#utility.yul\":2801:2856   */\n    tag_395:\n        /* \"#utility.yul\":2912:2914   */\n      dup3\n        /* \"#utility.yul\":2905:2909   */\n      0x20\n        /* \"#utility.yul\":2901:2903   */\n      dup7\n        /* \"#utility.yul\":2897:2910   */\n      add\n        /* \"#utility.yul\":2890:2894   */\n      0x20\n        /* \"#utility.yul\":2882:2888   */\n      dup4\n        /* \"#utility.yul\":2878:2895   */\n      add\n        /* \"#utility.yul\":2865:2915   */\n      calldatacopy\n        /* \"#utility.yul\":2959:2960   */\n      0x00\n        /* \"#utility.yul\":2952:2956   */\n      0x20\n        /* \"#utility.yul\":2935:2950   */\n      swap4\n      dup3\n      add\n        /* \"#utility.yul\":2931:2957   */\n      dup5\n      add\n        /* \"#utility.yul\":2924:2961   */\n      mstore\n        /* \"#utility.yul\":2935:2950   */\n      swap9\n        /* \"#utility.yul\":3018:3038   */\n      swap7\n      swap1\n      swap2\n      add\n        /* \"#utility.yul\":3005:3039   */\n      calldataload\n      swap7\n      pop\n      pop\n      pop\n      pop\n      pop\n      pop\n        /* \"#utility.yul\":2045:3045   */\n      jump\t// out\n        /* \"#utility.yul\":3050:3236   */\n    tag_63:\n        /* \"#utility.yul\":3109:3115   */\n      0x00\n        /* \"#utility.yul\":3162:3164   */\n      0x20\n        /* \"#utility.yul\":3150:3159   */\n      dup3\n        /* \"#utility.yul\":3141:3148   */\n      dup5\n        /* \"#utility.yul\":3137:3160   */\n      sub\n        /* \"#utility.yul\":3133:3165   */\n      slt\n        /* \"#utility.yul\":3130:3182   */\n      iszero\n      tag_397\n      jumpi\n        /* \"#utility.yul\":3178:3179   */\n      0x00\n        /* \"#utility.yul\":3175:3176   */\n      dup1\n        /* \"#utility.yul\":3168:3180   */\n      revert\n        /* \"#utility.yul\":3130:3182   */\n    tag_397:\n        /* \"#utility.yul\":3201:3230   */\n      tag_377\n        /* \"#utility.yul\":3220:3229   */\n      dup3\n        /* \"#utility.yul\":3201:3230   */\n      tag_358\n      jump\t// in\n        /* \"#utility.yul\":3241:3421   */\n    tag_68:\n        /* \"#utility.yul\":3300:3306   */\n      0x00\n        /* \"#utility.yul\":3353:3355   */\n      0x20\n        /* \"#utility.yul\":3341:3350   */\n      dup3\n        /* \"#utility.yul\":3332:3339   */\n      dup5\n        /* \"#utility.yul\":3328:3351   */\n      sub\n        /* \"#utility.yul\":3324:3356   */\n      slt\n        /* \"#utility.yul\":3321:3373   */\n      iszero\n      tag_400\n      jumpi\n        /* \"#utility.yul\":3369:3370   */\n      0x00\n        /* \"#utility.yul\":3366:3367   */\n      dup1\n        /* \"#utility.yul\":3359:3371   */\n      revert\n        /* \"#utility.yul\":3321:3373   */\n    tag_400:\n      pop\n        /* \"#utility.yul\":3392:3415   */\n      calldataload\n      swap2\n        /* \"#utility.yul\":3241:3421   */\n      swap1\n      pop\n      jump\t// out\n        /* \"#utility.yul\":3426:3793   */\n    tag_361:\n        /* \"#utility.yul\":3489:3497   */\n      0x00\n        /* \"#utility.yul\":3499:3505   */\n      dup1\n        /* \"#utility.yul\":3553:3556   */\n      dup4\n        /* \"#utility.yul\":3546:3550   */\n      0x1f\n        /* \"#utility.yul\":3538:3544   */\n      dup5\n        /* \"#utility.yul\":3534:3551   */\n      add\n        /* \"#utility.yul\":3530:3557   */\n      slt\n        /* \"#utility.yul\":3520:3575   */\n      tag_402\n      jumpi\n        /* \"#utility.yul\":3571:3572   */\n      0x00\n        /* \"#utility.yul\":3568:3569   */\n      dup1\n        /* \"#utility.yul\":3561:3573   */\n      revert\n        /* \"#utility.yul\":3520:3575   */\n    tag_402:\n      pop\n        /* \"#utility.yul\":3594:3614   */\n      dup2\n      calldataload\n        /* \"#utility.yul\":3637:3655   */\n      0xffffffffffffffff\n        /* \"#utility.yul\":3626:3656   */\n      dup2\n      gt\n        /* \"#utility.yul\":3623:3673   */\n      iszero\n      tag_403\n      jumpi\n        /* \"#utility.yul\":3669:3670   */\n      0x00\n        /* \"#utility.yul\":3666:3667   */\n      dup1\n        /* \"#utility.yul\":3659:3671   */\n      revert\n        /* \"#utility.yul\":3623:3673   */\n    tag_403:\n        /* \"#utility.yul\":3706:3710   */\n      0x20\n        /* \"#utility.yul\":3698:3704   */\n      dup4\n        /* \"#utility.yul\":3694:3711   */\n      add\n        /* \"#utility.yul\":3682:3711   */\n      swap2\n      pop\n        /* \"#utility.yul\":3766:3769   */\n      dup4\n        /* \"#utility.yul\":3759:3763   */\n      0x20\n        /* \"#utility.yul\":3749:3755   */\n      dup3\n        /* \"#utility.yul\":3746:3747   */\n      0x05\n        /* \"#utility.yul\":3742:3756   */\n      shl\n        /* \"#utility.yul\":3734:3740   */\n      dup6\n        /* \"#utility.yul\":3730:3757   */\n      add\n        /* \"#utility.yul\":3726:3764   */\n      add\n        /* \"#utility.yul\":3723:3770   */\n      gt\n        /* \"#utility.yul\":3720:3787   */\n      iszero\n      tag_404\n      jumpi\n        /* \"#utility.yul\":3783:3784   */\n      0x00\n        /* \"#utility.yul\":3780:3781   */\n      dup1\n        /* \"#utility.yul\":3773:3785   */\n      revert\n        /* \"#utility.yul\":3720:3787   */\n    tag_404:\n        /* \"#utility.yul\":3426:3793   */\n      swap3\n      pop\n      swap3\n      swap1\n      pop\n      jump\t// out\n        /* \"#utility.yul\":3798:4145   */\n    tag_362:\n        /* \"#utility.yul\":3849:3857   */\n      0x00\n        /* \"#utility.yul\":3859:3865   */\n      dup1\n        /* \"#utility.yul\":3913:3916   */\n      dup4\n        /* \"#utility.yul\":3906:3910   */\n      0x1f\n        /* \"#utility.yul\":3898:3904   */\n      dup5\n        /* \"#utility.yul\":3894:3911   */\n      add\n        /* \"#utility.yul\":3890:3917   */\n      slt\n        /* \"#utility.yul\":3880:3935   */\n      tag_406\n      jumpi\n        /* \"#utility.yul\":3931:3932   */\n      0x00\n        /* \"#utility.yul\":3928:3929   */\n      dup1\n        /* \"#utility.yul\":3921:3933   */\n      revert\n        /* \"#utility.yul\":3880:3935   */\n    tag_406:\n      pop\n        /* \"#utility.yul\":3954:3974   */\n      dup2\n      calldataload\n        /* \"#utility.yul\":3997:4015   */\n      0xffffffffffffffff\n        /* \"#utility.yul\":3986:4016   */\n      dup2\n      gt\n        /* \"#utility.yul\":3983:4033   */\n      iszero\n      tag_407\n      jumpi\n        /* \"#utility.yul\":4029:4030   */\n      0x00\n        /* \"#utility.yul\":4026:4027   */\n      dup1\n        /* \"#utility.yul\":4019:4031   */\n      revert\n        /* \"#utility.yul\":3983:4033   */\n    tag_407:\n        /* \"#utility.yul\":4066:4070   */\n      0x20\n        /* \"#utility.yul\":4058:4064   */\n      dup4\n        /* \"#utility.yul\":4054:4071   */\n      add\n        /* \"#utility.yul\":4042:4071   */\n      swap2\n      pop\n        /* \"#utility.yul\":4118:4121   */\n      dup4\n        /* \"#utility.yul\":4111:4115   */\n      0x20\n        /* \"#utility.yul\":4102:4108   */\n      dup3\n        /* \"#utility.yul\":4094:4100   */\n      dup6\n        /* \"#utility.yul\":4090:4109   */\n      add\n        /* \"#utility.yul\":4086:4116   */\n      add\n        /* \"#utility.yul\":4083:4122   */\n      gt\n        /* \"#utility.yul\":4080:4139   */\n      iszero\n      tag_404\n      jumpi\n        /* \"#utility.yul\":4135:4136   */\n      0x00\n        /* \"#utility.yul\":4132:4133   */\n      dup1\n        /* \"#utility.yul\":4125:4137   */\n      revert\n        /* \"#utility.yul\":4150:5360   */\n    tag_76:\n        /* \"#utility.yul\":4310:4316   */\n      0x00\n        /* \"#utility.yul\":4318:4324   */\n      dup1\n        /* \"#utility.yul\":4326:4332   */\n      0x00\n        /* \"#utility.yul\":4334:4340   */\n      dup1\n        /* \"#utility.yul\":4342:4348   */\n      0x00\n        /* \"#utility.yul\":4350:4356   */\n      dup1\n        /* \"#utility.yul\":4358:4364   */\n      0x00\n        /* \"#utility.yul\":4366:4372   */\n      dup1\n        /* \"#utility.yul\":4419:4422   */\n      0xa0\n        /* \"#utility.yul\":4407:4416   */\n      dup10\n        /* \"#utility.yul\":4398:4405   */\n      dup12\n        /* \"#utility.yul\":4394:4417   */\n      sub\n        /* \"#utility.yul\":4390:4423   */\n      slt\n        /* \"#utility.yul\":4387:4440   */\n      iszero\n      tag_410\n      jumpi\n        /* \"#utility.yul\":4436:4437   */\n      0x00\n        /* \"#utility.yul\":4433:4434   */\n      dup1\n        /* \"#utility.yul\":4426:4438   */\n      revert\n        /* \"#utility.yul\":4387:4440   */\n    tag_410:\n        /* \"#utility.yul\":4459:4488   */\n      tag_411\n        /* \"#utility.yul\":4478:4487   */\n      dup10\n        /* \"#utility.yul\":4459:4488   */\n      tag_358\n      jump\t// in\n    tag_411:\n        /* \"#utility.yul\":4449:4488   */\n      swap8\n      pop\n        /* \"#utility.yul\":4507:4545   */\n      tag_412\n        /* \"#utility.yul\":4541:4543   */\n      0x20\n        /* \"#utility.yul\":4530:4539   */\n      dup11\n        /* \"#utility.yul\":4526:4544   */\n      add\n        /* \"#utility.yul\":4507:4545   */\n      tag_358\n      jump\t// in\n    tag_412:\n        /* \"#utility.yul\":4497:4545   */\n      swap7\n      pop\n        /* \"#utility.yul\":4596:4598   */\n      0x40\n        /* \"#utility.yul\":4585:4594   */\n      dup10\n        /* \"#utility.yul\":4581:4599   */\n      add\n        /* \"#utility.yul\":4568:4600   */\n      calldataload\n        /* \"#utility.yul\":4619:4637   */\n      0xffffffffffffffff\n        /* \"#utility.yul\":4660:4662   */\n      dup1\n        /* \"#utility.yul\":4652:4658   */\n      dup3\n        /* \"#utility.yul\":4649:4663   */\n      gt\n        /* \"#utility.yul\":4646:4680   */\n      iszero\n      tag_413\n      jumpi\n        /* \"#utility.yul\":4676:4677   */\n      0x00\n        /* \"#utility.yul\":4673:4674   */\n      dup1\n        /* \"#utility.yul\":4666:4678   */\n      revert\n        /* \"#utility.yul\":4646:4680   */\n    tag_413:\n        /* \"#utility.yul\":4715:4785   */\n      tag_414\n        /* \"#utility.yul\":4777:4784   */\n      dup13\n        /* \"#utility.yul\":4768:4774   */\n      dup4\n        /* \"#utility.yul\":4757:4766   */\n      dup14\n        /* \"#utility.yul\":4753:4775   */\n      add\n        /* \"#utility.yul\":4715:4785   */\n      tag_361\n      jump\t// in\n    tag_414:\n        /* \"#utility.yul\":4804:4812   */\n      swap1\n      swap9\n      pop\n        /* \"#utility.yul\":4689:4785   */\n      swap7\n      pop\n        /* \"#utility.yul\":4892:4894   */\n      0x60\n        /* \"#utility.yul\":4877:4895   */\n      dup12\n      add\n        /* \"#utility.yul\":4864:4896   */\n      calldataload\n      swap2\n      pop\n        /* \"#utility.yul\":4908:4924   */\n      dup1\n      dup3\n      gt\n        /* \"#utility.yul\":4905:4941   */\n      iszero\n      tag_415\n      jumpi\n        /* \"#utility.yul\":4937:4938   */\n      0x00\n        /* \"#utility.yul\":4934:4935   */\n      dup1\n        /* \"#utility.yul\":4927:4939   */\n      revert\n        /* \"#utility.yul\":4905:4941   */\n    tag_415:\n        /* \"#utility.yul\":4976:5048   */\n      tag_416\n        /* \"#utility.yul\":5040:5047   */\n      dup13\n        /* \"#utility.yul\":5029:5037   */\n      dup4\n        /* \"#utility.yul\":5018:5027   */\n      dup14\n        /* \"#utility.yul\":5014:5038   */\n      add\n        /* \"#utility.yul\":4976:5048   */\n      tag_361\n      jump\t// in\n    tag_416:\n        /* \"#utility.yul\":5067:5075   */\n      swap1\n      swap7\n      pop\n        /* \"#utility.yul\":4950:5048   */\n      swap5\n      pop\n        /* \"#utility.yul\":5155:5158   */\n      0x80\n        /* \"#utility.yul\":5140:5159   */\n      dup12\n      add\n        /* \"#utility.yul\":5127:5160   */\n      calldataload\n      swap2\n      pop\n        /* \"#utility.yul\":5172:5188   */\n      dup1\n      dup3\n      gt\n        /* \"#utility.yul\":5169:5205   */\n      iszero\n      tag_417\n      jumpi\n        /* \"#utility.yul\":5201:5202   */\n      0x00\n        /* \"#utility.yul\":5198:5199   */\n      dup1\n        /* \"#utility.yul\":5191:5203   */\n      revert\n        /* \"#utility.yul\":5169:5205   */\n    tag_417:\n      pop\n        /* \"#utility.yul\":5240:5300   */\n      tag_418\n        /* \"#utility.yul\":5292:5299   */\n      dup12\n        /* \"#utility.yul\":5281:5289   */\n      dup3\n        /* \"#utility.yul\":5270:5279   */\n      dup13\n        /* \"#utility.yul\":5266:5290   */\n      add\n        /* \"#utility.yul\":5240:5300   */\n      tag_362\n      jump\t// in\n    tag_418:\n        /* \"#utility.yul\":4150:5360   */\n      swap10\n      swap13\n      swap9\n      swap12\n      pop\n      swap7\n      swap10\n      pop\n      swap5\n      swap8\n      swap4\n      swap7\n      swap3\n      swap6\n        /* \"#utility.yul\":5319:5327   */\n      swap5\n      pop\n      pop\n      pop\n        /* \"#utility.yul\":4150:5360   */\n      jump\t// out\n        /* \"#utility.yul\":5365:5687   */\n    tag_80:\n        /* \"#utility.yul\":5442:5448   */\n      0x00\n        /* \"#utility.yul\":5450:5456   */\n      dup1\n        /* \"#utility.yul\":5458:5464   */\n      0x00\n        /* \"#utility.yul\":5511:5513   */\n      0x60\n        /* \"#utility.yul\":5499:5508   */\n      dup5\n        /* \"#utility.yul\":5490:5497   */\n      dup7\n        /* \"#utility.yul\":5486:5509   */\n      sub\n        /* \"#utility.yul\":5482:5514   */\n      slt\n        /* \"#utility.yul\":5479:5531   */\n      iszero\n      tag_420\n      jumpi\n        /* \"#utility.yul\":5527:5528   */\n      0x00\n        /* \"#utility.yul\":5524:5525   */\n      dup1\n        /* \"#utility.yul\":5517:5529   */\n      revert\n        /* \"#utility.yul\":5479:5531   */\n    tag_420:\n        /* \"#utility.yul\":5550:5579   */\n      tag_421\n        /* \"#utility.yul\":5569:5578   */\n      dup5\n        /* \"#utility.yul\":5550:5579   */\n      tag_358\n      jump\t// in\n    tag_421:\n        /* \"#utility.yul\":5540:5579   */\n      swap6\n        /* \"#utility.yul\":5626:5628   */\n      0x20\n        /* \"#utility.yul\":5611:5629   */\n      dup6\n      add\n        /* \"#utility.yul\":5598:5630   */\n      calldataload\n      swap6\n      pop\n        /* \"#utility.yul\":5677:5679   */\n      0x40\n        /* \"#utility.yul\":5662:5680   */\n      swap1\n      swap5\n      add\n        /* \"#utility.yul\":5649:5681   */\n      calldataload\n      swap4\n        /* \"#utility.yul\":5365:5687   */\n      swap3\n      pop\n      pop\n      pop\n      jump\t// out\n        /* \"#utility.yul\":5900:6673   */\n    tag_93:\n        /* \"#utility.yul\":6022:6028   */\n      0x00\n        /* \"#utility.yul\":6030:6036   */\n      dup1\n        /* \"#utility.yul\":6038:6044   */\n      0x00\n        /* \"#utility.yul\":6046:6052   */\n      dup1\n        /* \"#utility.yul\":6099:6101   */\n      0x40\n        /* \"#utility.yul\":6087:6096   */\n      dup6\n        /* \"#utility.yul\":6078:6085   */\n      dup8\n        /* \"#utility.yul\":6074:6097   */\n      sub\n        /* \"#utility.yul\":6070:6102   */\n      slt\n        /* \"#utility.yul\":6067:6119   */\n      iszero\n      tag_424\n      jumpi\n        /* \"#utility.yul\":6115:6116   */\n      0x00\n        /* \"#utility.yul\":6112:6113   */\n      dup1\n        /* \"#utility.yul\":6105:6117   */\n      revert\n        /* \"#utility.yul\":6067:6119   */\n    tag_424:\n        /* \"#utility.yul\":6155:6164   */\n      dup5\n        /* \"#utility.yul\":6142:6165   */\n      calldataload\n        /* \"#utility.yul\":6184:6202   */\n      0xffffffffffffffff\n        /* \"#utility.yul\":6225:6227   */\n      dup1\n        /* \"#utility.yul\":6217:6223   */\n      dup3\n        /* \"#utility.yul\":6214:6228   */\n      gt\n        /* \"#utility.yul\":6211:6245   */\n      iszero\n      tag_425\n      jumpi\n        /* \"#utility.yul\":6241:6242   */\n      0x00\n        /* \"#utility.yul\":6238:6239   */\n      dup1\n        /* \"#utility.yul\":6231:6243   */\n      revert\n        /* \"#utility.yul\":6211:6245   */\n    tag_425:\n        /* \"#utility.yul\":6280:6350   */\n      tag_426\n        /* \"#utility.yul\":6342:6349   */\n      dup9\n        /* \"#utility.yul\":6333:6339   */\n      dup4\n        /* \"#utility.yul\":6322:6331   */\n      dup10\n        /* \"#utility.yul\":6318:6340   */\n      add\n        /* \"#utility.yul\":6280:6350   */\n      tag_361\n      jump\t// in\n    tag_426:\n        /* \"#utility.yul\":6369:6377   */\n      swap1\n      swap7\n      pop\n        /* \"#utility.yul\":6254:6350   */\n      swap5\n      pop\n        /* \"#utility.yul\":6457:6459   */\n      0x20\n        /* \"#utility.yul\":6442:6460   */\n      dup8\n      add\n        /* \"#utility.yul\":6429:6461   */\n      calldataload\n      swap2\n      pop\n        /* \"#utility.yul\":6473:6489   */\n      dup1\n      dup3\n      gt\n        /* \"#utility.yul\":6470:6506   */\n      iszero\n      tag_427\n      jumpi\n        /* \"#utility.yul\":6502:6503   */\n      0x00\n        /* \"#utility.yul\":6499:6500   */\n      dup1\n        /* \"#utility.yul\":6492:6504   */\n      revert\n        /* \"#utility.yul\":6470:6506   */\n    tag_427:\n      pop\n        /* \"#utility.yul\":6541:6613   */\n      tag_428\n        /* \"#utility.yul\":6605:6612   */\n      dup8\n        /* \"#utility.yul\":6594:6602   */\n      dup3\n        /* \"#utility.yul\":6583:6592   */\n      dup9\n        /* \"#utility.yul\":6579:6603   */\n      add\n        /* \"#utility.yul\":6541:6613   */\n      tag_361\n      jump\t// in\n    tag_428:\n        /* \"#utility.yul\":5900:6673   */\n      swap6\n      swap9\n      swap5\n      swap8\n      pop\n        /* \"#utility.yul\":6632:6640   */\n      swap6\n      pop\n      pop\n      pop\n      pop\n        /* \"#utility.yul\":5900:6673   */\n      jump\t// out\n        /* \"#utility.yul\":6678:7310   */\n    tag_96:\n        /* \"#utility.yul\":6849:6851   */\n      0x20\n        /* \"#utility.yul\":6901:6922   */\n      dup1\n      dup3\n      mstore\n        /* \"#utility.yul\":6971:6984   */\n      dup3\n      mload\n        /* \"#utility.yul\":6874:6892   */\n      dup3\n      dup3\n      add\n        /* \"#utility.yul\":6993:7015   */\n      dup2\n      swap1\n      mstore\n        /* \"#utility.yul\":6820:6824   */\n      0x00\n      swap2\n        /* \"#utility.yul\":6849:6851   */\n      swap1\n        /* \"#utility.yul\":7072:7087   */\n      dup5\n      dup3\n      add\n      swap1\n        /* \"#utility.yul\":7046:7048   */\n      0x40\n        /* \"#utility.yul\":7031:7049   */\n      dup6\n      add\n      swap1\n        /* \"#utility.yul\":6820:6824   */\n      dup5\n        /* \"#utility.yul\":7115:7284   */\n    tag_430:\n        /* \"#utility.yul\":7129:7135   */\n      dup2\n        /* \"#utility.yul\":7126:7127   */\n      dup2\n        /* \"#utility.yul\":7123:7136   */\n      lt\n        /* \"#utility.yul\":7115:7284   */\n      iszero\n      tag_432\n      jumpi\n        /* \"#utility.yul\":7190:7203   */\n      dup4\n      mload\n        /* \"#utility.yul\":7178:7204   */\n      dup4\n      mstore\n        /* \"#utility.yul\":7259:7274   */\n      swap3\n      dup5\n      add\n      swap3\n        /* \"#utility.yul\":7224:7236   */\n      swap2\n      dup5\n      add\n      swap2\n        /* \"#utility.yul\":7151:7152   */\n      0x01\n        /* \"#utility.yul\":7144:7153   */\n      add\n        /* \"#utility.yul\":7115:7284   */\n      jump(tag_430)\n    tag_432:\n      pop\n        /* \"#utility.yul\":7301:7304   */\n      swap1\n      swap7\n        /* \"#utility.yul\":6678:7310   */\n      swap6\n      pop\n      pop\n      pop\n      pop\n      pop\n      pop\n      jump\t// out\n        /* \"#utility.yul\":7315:7662   */\n    tag_120:\n        /* \"#utility.yul\":7380:7386   */\n      0x00\n        /* \"#utility.yul\":7388:7394   */\n      dup1\n        /* \"#utility.yul\":7441:7443   */\n      0x40\n        /* \"#utility.yul\":7429:7438   */\n      dup4\n        /* \"#utility.yul\":7420:7427   */\n      dup6\n        /* \"#utility.yul\":7416:7439   */\n      sub\n        /* \"#utility.yul\":7412:7444   */\n      slt\n        /* \"#utility.yul\":7409:7461   */\n      iszero\n      tag_434\n      jumpi\n        /* \"#utility.yul\":7457:7458   */\n      0x00\n        /* \"#utility.yul\":7454:7455   */\n      dup1\n        /* \"#utility.yul\":7447:7459   */\n      revert\n        /* \"#utility.yul\":7409:7461   */\n    tag_434:\n        /* \"#utility.yul\":7480:7509   */\n      tag_435\n        /* \"#utility.yul\":7499:7508   */\n      dup4\n        /* \"#utility.yul\":7480:7509   */\n      tag_358\n      jump\t// in\n    tag_435:\n        /* \"#utility.yul\":7470:7509   */\n      swap2\n      pop\n        /* \"#utility.yul\":7559:7561   */\n      0x20\n        /* \"#utility.yul\":7548:7557   */\n      dup4\n        /* \"#utility.yul\":7544:7562   */\n      add\n        /* \"#utility.yul\":7531:7563   */\n      calldataload\n        /* \"#utility.yul\":7606:7611   */\n      dup1\n        /* \"#utility.yul\":7599:7612   */\n      iszero\n        /* \"#utility.yul\":7592:7613   */\n      iszero\n        /* \"#utility.yul\":7585:7590   */\n      dup2\n        /* \"#utility.yul\":7582:7614   */\n      eq\n        /* \"#utility.yul\":7572:7632   */\n      tag_436\n      jumpi\n        /* \"#utility.yul\":7628:7629   */\n      0x00\n        /* \"#utility.yul\":7625:7626   */\n      dup1\n        /* \"#utility.yul\":7618:7630   */\n      revert\n        /* \"#utility.yul\":7572:7632   */\n    tag_436:\n        /* \"#utility.yul\":7651:7656   */\n      dup1\n        /* \"#utility.yul\":7641:7656   */\n      swap2\n      pop\n      pop\n        /* \"#utility.yul\":7315:7662   */\n      swap3\n      pop\n      swap3\n      swap1\n      pop\n      jump\t// out\n        /* \"#utility.yul\":7667:7927   */\n    tag_144:\n        /* \"#utility.yul\":7735:7741   */\n      0x00\n        /* \"#utility.yul\":7743:7749   */\n      dup1\n        /* \"#utility.yul\":7796:7798   */\n      0x40\n        /* \"#utility.yul\":7784:7793   */\n      dup4\n        /* \"#utility.yul\":7775:7782   */\n      dup6\n        /* \"#utility.yul\":7771:7794   */\n      sub\n        /* \"#utility.yul\":7767:7799   */\n      slt\n        /* \"#utility.yul\":7764:7816   */\n      iszero\n      tag_438\n      jumpi\n        /* \"#utility.yul\":7812:7813   */\n      0x00\n        /* \"#utility.yul\":7809:7810   */\n      dup1\n        /* \"#utility.yul\":7802:7814   */\n      revert\n        /* \"#utility.yul\":7764:7816   */\n    tag_438:\n        /* \"#utility.yul\":7835:7864   */\n      tag_439\n        /* \"#utility.yul\":7854:7863   */\n      dup4\n        /* \"#utility.yul\":7835:7864   */\n      tag_358\n      jump\t// in\n    tag_439:\n        /* \"#utility.yul\":7825:7864   */\n      swap2\n      pop\n        /* \"#utility.yul\":7883:7921   */\n      tag_440\n        /* \"#utility.yul\":7917:7919   */\n      0x20\n        /* \"#utility.yul\":7906:7915   */\n      dup5\n        /* \"#utility.yul\":7902:7920   */\n      add\n        /* \"#utility.yul\":7883:7921   */\n      tag_358\n      jump\t// in\n    tag_440:\n        /* \"#utility.yul\":7873:7921   */\n      swap1\n      pop\n        /* \"#utility.yul\":7667:7927   */\n      swap3\n      pop\n      swap3\n      swap1\n      pop\n      jump\t// out\n        /* \"#utility.yul\":7932:8627   */\n    tag_149:\n        /* \"#utility.yul\":8038:8044   */\n      0x00\n        /* \"#utility.yul\":8046:8052   */\n      dup1\n        /* \"#utility.yul\":8054:8060   */\n      0x00\n        /* \"#utility.yul\":8062:8068   */\n      dup1\n        /* \"#utility.yul\":8070:8076   */\n      0x00\n        /* \"#utility.yul\":8078:8084   */\n      dup1\n        /* \"#utility.yul\":8131:8134   */\n      0xa0\n        /* \"#utility.yul\":8119:8128   */\n      dup8\n        /* \"#utility.yul\":8110:8117   */\n      dup10\n        /* \"#utility.yul\":8106:8129   */\n      sub\n        /* \"#utility.yul\":8102:8135   */\n      slt\n        /* \"#utility.yul\":8099:8152   */\n      iszero\n      tag_442\n      jumpi\n        /* \"#utility.yul\":8148:8149   */\n      0x00\n        /* \"#utility.yul\":8145:8146   */\n      dup1\n        /* \"#utility.yul\":8138:8150   */\n      revert\n        /* \"#utility.yul\":8099:8152   */\n    tag_442:\n        /* \"#utility.yul\":8171:8200   */\n      tag_443\n        /* \"#utility.yul\":8190:8199   */\n      dup8\n        /* \"#utility.yul\":8171:8200   */\n      tag_358\n      jump\t// in\n    tag_443:\n        /* \"#utility.yul\":8161:8200   */\n      swap6\n      pop\n        /* \"#utility.yul\":8219:8257   */\n      tag_444\n        /* \"#utility.yul\":8253:8255   */\n      0x20\n        /* \"#utility.yul\":8242:8251   */\n      dup9\n        /* \"#utility.yul\":8238:8256   */\n      add\n        /* \"#utility.yul\":8219:8257   */\n      tag_358\n      jump\t// in\n    tag_444:\n        /* \"#utility.yul\":8209:8257   */\n      swap5\n      pop\n        /* \"#utility.yul\":8304:8306   */\n      0x40\n        /* \"#utility.yul\":8293:8302   */\n      dup8\n        /* \"#utility.yul\":8289:8307   */\n      add\n        /* \"#utility.yul\":8276:8308   */\n      calldataload\n        /* \"#utility.yul\":8266:8308   */\n      swap4\n      pop\n        /* \"#utility.yul\":8355:8357   */\n      0x60\n        /* \"#utility.yul\":8344:8353   */\n      dup8\n        /* \"#utility.yul\":8340:8358   */\n      add\n        /* \"#utility.yul\":8327:8359   */\n      calldataload\n        /* \"#utility.yul\":8317:8359   */\n      swap3\n      pop\n        /* \"#utility.yul\":8410:8413   */\n      0x80\n        /* \"#utility.yul\":8399:8408   */\n      dup8\n        /* \"#utility.yul\":8395:8414   */\n      add\n        /* \"#utility.yul\":8382:8415   */\n      calldataload\n        /* \"#utility.yul\":8438:8456   */\n      0xffffffffffffffff\n        /* \"#utility.yul\":8430:8436   */\n      dup2\n        /* \"#utility.yul\":8427:8457   */\n      gt\n        /* \"#utility.yul\":8424:8474   */\n      iszero\n      tag_445\n      jumpi\n        /* \"#utility.yul\":8470:8471   */\n      0x00\n        /* \"#utility.yul\":8467:8468   */\n      dup1\n        /* \"#utility.yul\":8460:8472   */\n      revert\n        /* \"#utility.yul\":8424:8474   */\n    tag_445:\n        /* \"#utility.yul\":8509:8567   */\n      tag_446\n        /* \"#utility.yul\":8559:8566   */\n      dup10\n        /* \"#utility.yul\":8550:8556   */\n      dup3\n        /* \"#utility.yul\":8539:8548   */\n      dup11\n        /* \"#utility.yul\":8535:8557   */\n      add\n        /* \"#utility.yul\":8509:8567   */\n      tag_362\n      jump\t// in\n    tag_446:\n        /* \"#utility.yul\":7932:8627   */\n      swap8\n      swap11\n      swap7\n      swap10\n      pop\n      swap5\n      swap8\n      pop\n      swap3\n      swap6\n        /* \"#utility.yul\":8586:8594   */\n      swap4\n      swap5\n        /* \"#utility.yul\":7932:8627   */\n      swap3\n      pop\n      pop\n      pop\n      jump\t// out\n        /* \"#utility.yul\":8632:9012   */\n    tag_161:\n        /* \"#utility.yul\":8711:8712   */\n      0x01\n        /* \"#utility.yul\":8707:8719   */\n      dup2\n      dup2\n      shr\n      swap1\n        /* \"#utility.yul\":8754:8766   */\n      dup3\n      and\n      dup1\n        /* \"#utility.yul\":8775:8836   */\n      tag_448\n      jumpi\n        /* \"#utility.yul\":8829:8833   */\n      0x7f\n        /* \"#utility.yul\":8821:8827   */\n      dup3\n        /* \"#utility.yul\":8817:8834   */\n      and\n        /* \"#utility.yul\":8807:8834   */\n      swap2\n      pop\n        /* \"#utility.yul\":8775:8836   */\n    tag_448:\n        /* \"#utility.yul\":8882:8884   */\n      0x20\n        /* \"#utility.yul\":8874:8880   */\n      dup3\n        /* \"#utility.yul\":8871:8885   */\n      lt\n        /* \"#utility.yul\":8851:8869   */\n      dup2\n        /* \"#utility.yul\":8848:8886   */\n      eq\n        /* \"#utility.yul\":8845:9006   */\n      iszero\n      tag_449\n      jumpi\n        /* \"#utility.yul\":8928:8938   */\n      0x4e487b71\n        /* \"#utility.yul\":8923:8926   */\n      0xe0\n        /* \"#utility.yul\":8919:8939   */\n      shl\n        /* \"#utility.yul\":8916:8917   */\n      0x00\n        /* \"#utility.yul\":8909:8940   */\n      mstore\n        /* \"#utility.yul\":8963:8967   */\n      0x22\n        /* \"#utility.yul\":8960:8961   */\n      0x04\n        /* \"#utility.yul\":8953:8968   */\n      mstore\n        /* \"#utility.yul\":8991:8995   */\n      0x24\n        /* \"#utility.yul\":8988:8989   */\n      0x00\n        /* \"#utility.yul\":8981:8996   */\n      revert\n        /* \"#utility.yul\":8845:9006   */\n    tag_449:\n      pop\n        /* \"#utility.yul\":8632:9012   */\n      swap2\n      swap1\n      pop\n      jump\t// out\n        /* \"#utility.yul\":9017:9373   */\n    tag_172:\n        /* \"#utility.yul\":9219:9221   */\n      0x20\n        /* \"#utility.yul\":9201:9222   */\n      dup1\n      dup3\n      mstore\n        /* \"#utility.yul\":9238:9256   */\n      dup2\n      dup2\n      add\n        /* \"#utility.yul\":9231:9261   */\n      mstore\n        /* \"#utility.yul\":9297:9331   */\n      0x4f776e61626c653a2063616c6c6572206973206e6f7420746865206f776e6572\n        /* \"#utility.yul\":9292:9294   */\n      0x40\n        /* \"#utility.yul\":9277:9295   */\n      dup3\n      add\n        /* \"#utility.yul\":9270:9332   */\n      mstore\n        /* \"#utility.yul\":9364:9366   */\n      0x60\n        /* \"#utility.yul\":9349:9367   */\n      add\n      swap1\n        /* \"#utility.yul\":9017:9373   */\n      jump\t// out\n        /* \"#utility.yul\":10065:10192   */\n    tag_206:\n        /* \"#utility.yul\":10126:10136   */\n      0x4e487b71\n        /* \"#utility.yul\":10121:10124   */\n      0xe0\n        /* \"#utility.yul\":10117:10137   */\n      shl\n        /* \"#utility.yul\":10114:10115   */\n      0x00\n        /* \"#utility.yul\":10107:10138   */\n      mstore\n        /* \"#utility.yul\":10157:10161   */\n      0x32\n        /* \"#utility.yul\":10154:10155   */\n      0x04\n        /* \"#utility.yul\":10147:10162   */\n      mstore\n        /* \"#utility.yul\":10181:10185   */\n      0x24\n        /* \"#utility.yul\":10178:10179   */\n      0x00\n        /* \"#utility.yul\":10171:10186   */\n      revert\n        /* \"#utility.yul\":10197:10324   */\n    tag_363:\n        /* \"#utility.yul\":10258:10268   */\n      0x4e487b71\n        /* \"#utility.yul\":10253:10256   */\n      0xe0\n        /* \"#utility.yul\":10249:10269   */\n      shl\n        /* \"#utility.yul\":10246:10247   */\n      0x00\n        /* \"#utility.yul\":10239:10270   */\n      mstore\n        /* \"#utility.yul\":10289:10293   */\n      0x11\n        /* \"#utility.yul\":10286:10287   */\n      0x04\n        /* \"#utility.yul\":10279:10294   */\n      mstore\n        /* \"#utility.yul\":10313:10317   */\n      0x24\n        /* \"#utility.yul\":10310:10311   */\n      0x00\n        /* \"#utility.yul\":10303:10318   */\n      revert\n        /* \"#utility.yul\":10329:10454   */\n    tag_210:\n        /* \"#utility.yul\":10369:10373   */\n      0x00\n        /* \"#utility.yul\":10397:10398   */\n      dup3\n        /* \"#utility.yul\":10394:10395   */\n      dup3\n        /* \"#utility.yul\":10391:10399   */\n      lt\n        /* \"#utility.yul\":10388:10422   */\n      iszero\n      tag_457\n      jumpi\n        /* \"#utility.yul\":10402:10420   */\n      tag_457\n      tag_363\n      jump\t// in\n    tag_457:\n      pop\n        /* \"#utility.yul\":10439:10448   */\n      sub\n      swap1\n        /* \"#utility.yul\":10329:10454   */\n      jump\t// out\n        /* \"#utility.yul\":10459:10587   */\n    tag_212:\n        /* \"#utility.yul\":10499:10502   */\n      0x00\n        /* \"#utility.yul\":10530:10531   */\n      dup3\n        /* \"#utility.yul\":10526:10532   */\n      not\n        /* \"#utility.yul\":10523:10524   */\n      dup3\n        /* \"#utility.yul\":10520:10533   */\n      gt\n        /* \"#utility.yul\":10517:10556   */\n      iszero\n      tag_460\n      jumpi\n        /* \"#utility.yul\":10536:10554   */\n      tag_460\n      tag_363\n      jump\t// in\n    tag_460:\n      pop\n        /* \"#utility.yul\":10572:10581   */\n      add\n      swap1\n        /* \"#utility.yul\":10459:10587   */\n      jump\t// out\n        /* \"#utility.yul\":10592:10946   */\n    tag_364:\n        /* \"#utility.yul\":10680:10699   */\n      dup2\n      dup4\n      mstore\n        /* \"#utility.yul\":10662:10665   */\n      0x00\n      sub(shl(0xfb, 0x01), 0x01)\n        /* \"#utility.yul\":10711:10742   */\n      dup4\n      gt\n        /* \"#utility.yul\":10708:10759   */\n      iszero\n      tag_462\n      jumpi\n        /* \"#utility.yul\":10755:10756   */\n      0x00\n        /* \"#utility.yul\":10752:10753   */\n      dup1\n        /* \"#utility.yul\":10745:10757   */\n      revert\n        /* \"#utility.yul\":10708:10759   */\n    tag_462:\n        /* \"#utility.yul\":10791:10797   */\n      dup3\n        /* \"#utility.yul\":10788:10789   */\n      0x05\n        /* \"#utility.yul\":10784:10798   */\n      shl\n        /* \"#utility.yul\":10843:10851   */\n      dup1\n        /* \"#utility.yul\":10836:10841   */\n      dup4\n        /* \"#utility.yul\":10829:10833   */\n      0x20\n        /* \"#utility.yul\":10824:10827   */\n      dup8\n        /* \"#utility.yul\":10820:10834   */\n      add\n        /* \"#utility.yul\":10807:10852   */\n      calldatacopy\n        /* \"#utility.yul\":10920:10921   */\n      0x00\n        /* \"#utility.yul\":10875:10893   */\n      swap5\n      add\n        /* \"#utility.yul\":10895:10899   */\n      0x20\n        /* \"#utility.yul\":10871:10900   */\n      add\n        /* \"#utility.yul\":10909:10922   */\n      swap4\n      dup5\n      mstore\n      pop\n        /* \"#utility.yul\":10871:10900   */\n      swap2\n      swap3\n        /* \"#utility.yul\":10592:10946   */\n      swap2\n      pop\n      pop\n      jump\t// out\n        /* \"#utility.yul\":10951:11470   */\n    tag_214:\n        /* \"#utility.yul\":11228:11230   */\n      0x40\n        /* \"#utility.yul\":11217:11226   */\n      dup2\n        /* \"#utility.yul\":11210:11231   */\n      mstore\n        /* \"#utility.yul\":11191:11195   */\n      0x00\n        /* \"#utility.yul\":11254:11327   */\n      tag_464\n        /* \"#utility.yul\":11323:11325   */\n      0x40\n        /* \"#utility.yul\":11312:11321   */\n      dup4\n        /* \"#utility.yul\":11308:11326   */\n      add\n        /* \"#utility.yul\":11300:11306   */\n      dup7\n        /* \"#utility.yul\":11292:11298   */\n      dup9\n        /* \"#utility.yul\":11254:11327   */\n      tag_364\n      jump\t// in\n    tag_464:\n        /* \"#utility.yul\":11375:11384   */\n      dup3\n        /* \"#utility.yul\":11367:11373   */\n      dup2\n        /* \"#utility.yul\":11363:11385   */\n      sub\n        /* \"#utility.yul\":11358:11360   */\n      0x20\n        /* \"#utility.yul\":11347:11356   */\n      dup5\n        /* \"#utility.yul\":11343:11361   */\n      add\n        /* \"#utility.yul\":11336:11386   */\n      mstore\n        /* \"#utility.yul\":11403:11464   */\n      tag_465\n        /* \"#utility.yul\":11457:11463   */\n      dup2\n        /* \"#utility.yul\":11449:11455   */\n      dup6\n        /* \"#utility.yul\":11441:11447   */\n      dup8\n        /* \"#utility.yul\":11403:11464   */\n      tag_364\n      jump\t// in\n    tag_465:\n        /* \"#utility.yul\":11395:11464   */\n      swap8\n        /* \"#utility.yul\":10951:11470   */\n      swap7\n      pop\n      pop\n      pop\n      pop\n      pop\n      pop\n      pop\n      jump\t// out\n        /* \"#utility.yul\":11475:11741   */\n    tag_365:\n        /* \"#utility.yul\":11563:11569   */\n      dup2\n        /* \"#utility.yul\":11558:11561   */\n      dup4\n        /* \"#utility.yul\":11551:11570   */\n      mstore\n        /* \"#utility.yul\":11615:11621   */\n      dup2\n        /* \"#utility.yul\":11608:11613   */\n      dup2\n        /* \"#utility.yul\":11601:11605   */\n      0x20\n        /* \"#utility.yul\":11596:11599   */\n      dup6\n        /* \"#utility.yul\":11592:11606   */\n      add\n        /* \"#utility.yul\":11579:11622   */\n      calldatacopy\n      pop\n        /* \"#utility.yul\":11667:11668   */\n      0x00\n        /* \"#utility.yul\":11642:11658   */\n      dup3\n      dup3\n      add\n        /* \"#utility.yul\":11660:11664   */\n      0x20\n        /* \"#utility.yul\":11638:11665   */\n      swap1\n      dup2\n      add\n        /* \"#utility.yul\":11631:11669   */\n      swap2\n      swap1\n      swap2\n      mstore\n        /* \"#utility.yul\":11723:11725   */\n      0x1f\n        /* \"#utility.yul\":11702:11717   */\n      swap1\n      swap2\n      add\n      not(0x1f)\n        /* \"#utility.yul\":11698:11727   */\n      and\n        /* \"#utility.yul\":11689:11728   */\n      swap1\n      swap2\n      add\n        /* \"#utility.yul\":11685:11735   */\n      add\n      swap1\n        /* \"#utility.yul\":11475:11741   */\n      jump\t// out\n        /* \"#utility.yul\":11746:12653   */\n    tag_217:\n      sub(shl(0xa0, 0x01), 0x01)\n        /* \"#utility.yul\":12173:12188   */\n      dup10\n      dup2\n      and\n        /* \"#utility.yul\":12155:12189   */\n      dup3\n      mstore\n        /* \"#utility.yul\":12225:12240   */\n      dup9\n      and\n        /* \"#utility.yul\":12220:12222   */\n      0x20\n        /* \"#utility.yul\":12205:12223   */\n      dup3\n      add\n        /* \"#utility.yul\":12198:12241   */\n      mstore\n        /* \"#utility.yul\":12135:12138   */\n      0xa0\n        /* \"#utility.yul\":12272:12274   */\n      0x40\n        /* \"#utility.yul\":12257:12275   */\n      dup3\n      add\n        /* \"#utility.yul\":12250:12281   */\n      dup2\n      swap1\n      mstore\n        /* \"#utility.yul\":12098:12102   */\n      0x00\n      swap1\n        /* \"#utility.yul\":12304:12378   */\n      tag_468\n      swap1\n        /* \"#utility.yul\":12358:12377   */\n      dup4\n      add\n        /* \"#utility.yul\":12350:12356   */\n      dup9\n        /* \"#utility.yul\":12342:12348   */\n      dup11\n        /* \"#utility.yul\":12304:12378   */\n      tag_364\n      jump\t// in\n    tag_468:\n        /* \"#utility.yul\":12426:12435   */\n      dup3\n        /* \"#utility.yul\":12418:12424   */\n      dup2\n        /* \"#utility.yul\":12414:12436   */\n      sub\n        /* \"#utility.yul\":12409:12411   */\n      0x60\n        /* \"#utility.yul\":12398:12407   */\n      dup5\n        /* \"#utility.yul\":12394:12412   */\n      add\n        /* \"#utility.yul\":12387:12437   */\n      mstore\n        /* \"#utility.yul\":12460:12521   */\n      tag_469\n        /* \"#utility.yul\":12514:12520   */\n      dup2\n        /* \"#utility.yul\":12506:12512   */\n      dup8\n        /* \"#utility.yul\":12498:12504   */\n      dup10\n        /* \"#utility.yul\":12460:12521   */\n      tag_364\n      jump\t// in\n    tag_469:\n        /* \"#utility.yul\":12446:12521   */\n      swap1\n      pop\n        /* \"#utility.yul\":12570:12579   */\n      dup3\n        /* \"#utility.yul\":12562:12568   */\n      dup2\n        /* \"#utility.yul\":12558:12580   */\n      sub\n        /* \"#utility.yul\":12552:12555   */\n      0x80\n        /* \"#utility.yul\":12541:12550   */\n      dup5\n        /* \"#utility.yul\":12537:12556   */\n      add\n        /* \"#utility.yul\":12530:12581   */\n      mstore\n        /* \"#utility.yul\":12598:12647   */\n      tag_470\n        /* \"#utility.yul\":12640:12646   */\n      dup2\n        /* \"#utility.yul\":12632:12638   */\n      dup6\n        /* \"#utility.yul\":12624:12630   */\n      dup8\n        /* \"#utility.yul\":12598:12647   */\n      tag_365\n      jump\t// in\n    tag_470:\n        /* \"#utility.yul\":12590:12647   */\n      swap12\n        /* \"#utility.yul\":11746:12653   */\n      swap11\n      pop\n      pop\n      pop\n      pop\n      pop\n      pop\n      pop\n      pop\n      pop\n      pop\n      pop\n      jump\t// out\n        /* \"#utility.yul\":12658:12907   */\n    tag_221:\n        /* \"#utility.yul\":12727:12733   */\n      0x00\n        /* \"#utility.yul\":12780:12782   */\n      0x20\n        /* \"#utility.yul\":12768:12777   */\n      dup3\n        /* \"#utility.yul\":12759:12766   */\n      dup5\n        /* \"#utility.yul\":12755:12778   */\n      sub\n        /* \"#utility.yul\":12751:12783   */\n      slt\n        /* \"#utility.yul\":12748:12800   */\n      iszero\n      tag_472\n      jumpi\n        /* \"#utility.yul\":12796:12797   */\n      0x00\n        /* \"#utility.yul\":12793:12794   */\n      dup1\n        /* \"#utility.yul\":12786:12798   */\n      revert\n        /* \"#utility.yul\":12748:12800   */\n    tag_472:\n        /* \"#utility.yul\":12828:12837   */\n      dup2\n        /* \"#utility.yul\":12822:12838   */\n      mload\n        /* \"#utility.yul\":12847:12877   */\n      tag_377\n        /* \"#utility.yul\":12871:12876   */\n      dup2\n        /* \"#utility.yul\":12847:12877   */\n      tag_359\n      jump\t// in\n        /* \"#utility.yul\":12912:13252   */\n    tag_225:\n        /* \"#utility.yul\":13114:13116   */\n      0x20\n        /* \"#utility.yul\":13096:13117   */\n      dup1\n      dup3\n      mstore\n        /* \"#utility.yul\":13153:13155   */\n      0x10\n        /* \"#utility.yul\":13133:13151   */\n      swap1\n      dup3\n      add\n        /* \"#utility.yul\":13126:13156   */\n      mstore\n      shl(0x82, 0x155394d0519157d49150d25412515395)\n        /* \"#utility.yul\":13187:13189   */\n      0x40\n        /* \"#utility.yul\":13172:13190   */\n      dup3\n      add\n        /* \"#utility.yul\":13165:13211   */\n      mstore\n        /* \"#utility.yul\":13243:13245   */\n      0x60\n        /* \"#utility.yul\":13228:13246   */\n      add\n      swap1\n        /* \"#utility.yul\":12912:13252   */\n      jump\t// out\n        /* \"#utility.yul\":14281:14868   */\n    tag_313:\n      sub(shl(0xa0, 0x01), 0x01)\n        /* \"#utility.yul\":14588:14603   */\n      dup8\n      dup2\n      and\n        /* \"#utility.yul\":14570:14604   */\n      dup3\n      mstore\n        /* \"#utility.yul\":14640:14655   */\n      dup7\n      and\n        /* \"#utility.yul\":14635:14637   */\n      0x20\n        /* \"#utility.yul\":14620:14638   */\n      dup3\n      add\n        /* \"#utility.yul\":14613:14656   */\n      mstore\n        /* \"#utility.yul\":14687:14689   */\n      0x40\n        /* \"#utility.yul\":14672:14690   */\n      dup2\n      add\n        /* \"#utility.yul\":14665:14699   */\n      dup6\n      swap1\n      mstore\n        /* \"#utility.yul\":14730:14732   */\n      0x60\n        /* \"#utility.yul\":14715:14733   */\n      dup2\n      add\n        /* \"#utility.yul\":14708:14742   */\n      dup5\n      swap1\n      mstore\n        /* \"#utility.yul\":14550:14553   */\n      0xa0\n        /* \"#utility.yul\":14773:14776   */\n      0x80\n        /* \"#utility.yul\":14758:14777   */\n      dup3\n      add\n        /* \"#utility.yul\":14751:14783   */\n      dup2\n      swap1\n      mstore\n        /* \"#utility.yul\":14513:14517   */\n      0x00\n      swap1\n        /* \"#utility.yul\":14800:14862   */\n      tag_479\n      swap1\n        /* \"#utility.yul\":14842:14861   */\n      dup4\n      add\n        /* \"#utility.yul\":14834:14840   */\n      dup5\n        /* \"#utility.yul\":14826:14832   */\n      dup7\n        /* \"#utility.yul\":14800:14862   */\n      tag_365\n      jump\t// in\n    tag_479:\n        /* \"#utility.yul\":14792:14862   */\n      swap9\n        /* \"#utility.yul\":14281:14868   */\n      swap8\n      pop\n      pop\n      pop\n      pop\n      pop\n      pop\n      pop\n      pop\n      jump\t// out\n        /* \"#utility.yul\":15280:15841   */\n    tag_336:\n      sub(shl(0xa0, 0x01), 0x01)\n        /* \"#utility.yul\":15577:15592   */\n      dup7\n      dup2\n      and\n        /* \"#utility.yul\":15559:15593   */\n      dup3\n      mstore\n        /* \"#utility.yul\":15629:15644   */\n      dup6\n      and\n        /* \"#utility.yul\":15624:15626   */\n      0x20\n        /* \"#utility.yul\":15609:15627   */\n      dup3\n      add\n        /* \"#utility.yul\":15602:15645   */\n      mstore\n        /* \"#utility.yul\":15676:15678   */\n      0x40\n        /* \"#utility.yul\":15661:15679   */\n      dup2\n      add\n        /* \"#utility.yul\":15654:15688   */\n      dup5\n      swap1\n      mstore\n        /* \"#utility.yul\":15719:15721   */\n      0x60\n        /* \"#utility.yul\":15704:15722   */\n      dup2\n      add\n        /* \"#utility.yul\":15697:15731   */\n      dup4\n      swap1\n      mstore\n        /* \"#utility.yul\":15539:15542   */\n      0xa0\n        /* \"#utility.yul\":15762:15765   */\n      0x80\n        /* \"#utility.yul\":15747:15766   */\n      dup3\n      add\n        /* \"#utility.yul\":15740:15772   */\n      dup2\n      swap1\n      mstore\n        /* \"#utility.yul\":15502:15506   */\n      0x00\n      swap1\n        /* \"#utility.yul\":15789:15835   */\n      tag_465\n      swap1\n        /* \"#utility.yul\":15815:15834   */\n      dup4\n      add\n        /* \"#utility.yul\":15807:15813   */\n      dup5\n        /* \"#utility.yul\":15789:15835   */\n      tag_360\n      jump\t// in\n\n    auxdata: 0xa26469706673582212204a740a2d2425e6cdf9f9e2a669314faefedc3a0f2a644a6dc489b9cfb57a9f6c64736f6c634300080b0033\n}\n",
				"bytecode": {
					"linkReferences": {},
					"object": "61014060405260a660805261014a60a052601160c052602160e0526001610100526002610120523480156200003357600080fd5b50604051620020573803806200205783398101604081905262000056916200023c565b62000061336200011d565b6040518060400160405280601381526020017f54657374204d696e74205061737320763132410000000000000000000000000081525094506040518060400160405280600f81526020016e262331303034373b544d505631304960881b815250935073c83beba473dd6bd1890519ee0eee2ac4fa5836b592506040518060600160405280603581526020016200202260359139905060405180606001604052806035815260200162001fed603591399150505050505062000317565b600280546001600160a01b038381166001600160a01b0319831681179093556040519116919082907f8be0079c531659141344cd1fd0a4f28419497f9722a3daafe3b4186f6b6457e090600090a35050565b634e487b7160e01b600052604160045260246000fd5b600082601f8301126200019757600080fd5b81516001600160401b0380821115620001b457620001b46200016f565b604051601f8301601f19908116603f01168101908282118183101715620001df57620001df6200016f565b81604052838152602092508683858801011115620001fc57600080fd5b600091505b8382101562000220578582018301518183018401529082019062000201565b83821115620002325760008385830101525b9695505050505050565b600080600080600060a086880312156200025557600080fd5b85516001600160401b03808211156200026d57600080fd5b6200027b89838a0162000185565b965060208801519150808211156200029257600080fd5b620002a089838a0162000185565b604089015190965091506001600160a01b0382168214620002c057600080fd5b606088015191945080821115620002d657600080fd5b620002e489838a0162000185565b93506080880151915080821115620002fb57600080fd5b506200030a8882890162000185565b9150509295509295909350565b60805160a05160c05160e0516101005161012051611c39620003b460003960008181610377015281816107b101528181610ad801528181610b710152610bbd0152600081816103b70152818161075601528181610b010152610c9b01526000818161047b01526107d201526000818161045401526107770152600081816103150152610b990152600081816104f60152610c770152611c396000f3fe608060405234801561001057600080fd5b50600436106101e45760003560e01c806371d05aec1161010f578063cbf99084116100a2578063e985e9c511610071578063e985e9c51461049d578063f242432a146104cb578063f2fde38b146104de578063f48deaaa146104f157600080fd5b8063cbf990841461043f578063cc2851c614610447578063dec125ba1461044f578063df52fa841461047657600080fd5b80639fa3cda1116100de5780639fa3cda1146103d9578063a22cb465146103f9578063bd85b0391461040c578063c87b56dd1461042c57600080fd5b806371d05aec146103725780638da5cb5b1461039957806395d89b41146103aa5780639e3cf643146103b257600080fd5b80632eb2c2d611610187578063451149901161015657806345114990146103105780634e1273f4146103375780636817031b14610357578063715018a61461036a57600080fd5b80632eb2c2d6146102b7578063388b9fe0146102ca5780633ccfd60b146102dd578063430bf08a146102e557600080fd5b806309a3beef116101c357806309a3beef1461025c5780630b22f540146102715780630e89341c1461029157806316473cf7146102a457600080fd5b8062fdd58e146101e957806301ffc9a71461022457806306fdde0314610247575b600080fd5b6102116101f73660046114a5565b600060208181529281526040808220909352908152205481565b6040519081526020015b60405180910390f35b6102376102323660046114e5565b610518565b604051901515815260200161021b565b61024f61056a565b60405161021b9190611556565b61026f61026a36600461157f565b6105f8565b005b61021161027f366004611634565b60096020526000908152604090205481565b61024f61029f36600461164f565b61064f565b61026f6102b2366004611634565b610726565b61026f6102c53660046116f6565b610809565b61026f6102d83660046117b1565b610aac565b61026f610ccc565b6005546102f8906001600160a01b031681565b6040516001600160a01b03909116815260200161021b565b6102117f000000000000000000000000000000000000000000000000000000000000000081565b61034a6103453660046117e4565b610d2c565b60405161021b9190611850565b61026f610365366004611634565b610e61565b61026f610ead565b6102117f000000000000000000000000000000000000000000000000000000000000000081565b6002546001600160a01b03166102f8565b61024f610ee1565b6102117f000000000000000000000000000000000000000000000000000000000000000081565b6102116103e7366004611634565b60086020526000908152604090205481565b61026f610407366004611894565b610eee565b61021161041a36600461164f565b60009081526006602052604090205490565b61024f61043a36600461164f565b610f5a565b610211600181565b610211600281565b6102117f000000000000000000000000000000000000000000000000000000000000000081565b6102117f000000000000000000000000000000000000000000000000000000000000000081565b6102376104ab3660046118d0565b600160209081526000928352604080842090915290825290205460ff1681565b61026f6104d9366004611903565b610f73565b61026f6104ec366004611634565b61116d565b6102117f000000000000000000000000000000000000000000000000000000000000000081565b60006301ffc9a760e01b6001600160e01b0319831614806105495750636cdb3d1360e11b6001600160e01b03198316145b8061056457506303a24d0760e21b6001600160e01b03198316145b92915050565b600380546105779061197b565b80601f01602080910402602001604051908101604052809291908181526020018280546105a39061197b565b80156105f05780601f106105c5576101008083540402835291602001916105f0565b820191906000526020600020905b8154815290600101906020018083116105d357829003601f168201915b505050505081565b6002546001600160a01b0316331461062b5760405162461bcd60e51b8152600401610622906119b6565b60405180910390fd5b6000818152600760209081526040909120835161064a928501906113f0565b505050565b600081815260076020526040902080546060919061066c9061197b565b1515905061068857505060408051602081019091526000815290565b600082815260076020526040902080546106a19061197b565b80601f01602080910402602001604051908101604052809291908181526020018280546106cd9061197b565b801561071a5780601f106106ef5761010080835404028352916020019161071a565b820191906000526020600020905b8154815290600101906020018083116106fd57829003601f168201915b50505050509050919050565b6002546001600160a01b031633146107505760405162461bcd60e51b8152600401610622906119b6565b6107ab817f00000000000000000000000000000000000000000000000000000000000000007f000000000000000000000000000000000000000000000000000000000000000060405180602001604052806000815250611205565b610806817f00000000000000000000000000000000000000000000000000000000000000007f000000000000000000000000000000000000000000000000000000000000000060405180602001604052806000815250611205565b50565b84831461084a5760405162461bcd60e51b815260206004820152600f60248201526e0988a9c8ea890be9a92a69a82a8869608b1b6044820152606401610622565b336001600160a01b038916148061088457506001600160a01b038816600090815260016020908152604080832033845290915290205460ff165b6108c15760405162461bcd60e51b815260206004820152600e60248201526d1393d517d055551213d49256915160921b6044820152606401610622565b60008060005b8781101561097c578888828181106108e1576108e16119eb565b9050602002013592508686828181106108fc576108fc6119eb565b6001600160a01b038e1660009081526020818152604080832089845282528220805493909102949094013595508593925090610939908490611a17565b90915550506001600160a01b038a166000908152602081815260408083208684529091528120805484929061096f908490611a2e565b90915550506001016108c7565b50886001600160a01b03168a6001600160a01b0316336001600160a01b03167f4a39dc06d4c0dbc64b70af90fd698a233a518aa5d07e595d983b8c0526c8f7fb8b8b8b8b6040516109d09493929190611a7c565b60405180910390a46001600160a01b0389163b15610a775760405163bc197c8160e01b808252906001600160a01b038b169063bc197c8190610a249033908f908e908e908e908e908e908e90600401611ad7565b6020604051808303816000875af1158015610a43573d6000803e3d6000fd5b505050506040513d601f19601f82011682018060405250810190610a679190611b3b565b6001600160e01b03191614610a84565b6001600160a01b03891615155b610aa05760405162461bcd60e51b815260040161062290611b58565b50505050505050505050565b6002546001600160a01b03163314610ad65760405162461bcd60e51b8152600401610622906119b6565b7f0000000000000000000000000000000000000000000000000000000000000000811480610b2357507f000000000000000000000000000000000000000000000000000000000000000081145b610b6f5760405162461bcd60e51b815260206004820152601e60248201527f544d50563132413a204e6f6e6578697374656e7420746f6b656e2049442e00006044820152606401610622565b7f0000000000000000000000000000000000000000000000000000000000000000811415610c75577f0000000000000000000000000000000000000000000000000000000000000000610bee7f000000000000000000000000000000000000000000000000000000000000000060009081526006602052604090205490565b610bf89084611a2e565b1115610c5a5760405162461bcd60e51b815260206004820152602b60248201527f544d50563132413a20416d6f756e74206973206c6172676572207468616e207460448201526a37ba30b629bab838363c9760a91b6064820152608401610622565b61064a83828460405180602001604052806000815250611205565b7f0000000000000000000000000000000000000000000000000000000000000000610bee7f000000000000000000000000000000000000000000000000000000000000000060009081526006602052604090205490565b6002546001600160a01b03163314610cf65760405162461bcd60e51b8152600401610622906119b6565b47610d145760405163150111e760e31b815260040160405180910390fd5b600554610d2a906001600160a01b03164761134d565b565b6060838214610d6f5760405162461bcd60e51b815260206004820152600f60248201526e0988a9c8ea890be9a92a69a82a8869608b1b6044820152606401610622565b8367ffffffffffffffff811115610d8857610d88611569565b604051908082528060200260200182016040528015610db1578160200160208202803683370190505b50905060005b84811015610e5857600080878784818110610dd457610dd46119eb565b9050602002016020810190610de99190611634565b6001600160a01b03166001600160a01b031681526020019081526020016000206000858584818110610e1d57610e1d6119eb565b90506020020135815260200190815260200160002054828281518110610e4557610e456119eb565b6020908102919091010152600101610db7565b50949350505050565b6002546001600160a01b03163314610e8b5760405162461bcd60e51b8152600401610622906119b6565b600580546001600160a01b0319166001600160a01b0392909216919091179055565b6002546001600160a01b03163314610ed75760405162461bcd60e51b8152600401610622906119b6565b610d2a600061139e565b600480546105779061197b565b3360008181526001602090815260408083206001600160a01b03871680855290835292819020805460ff191686151590811790915590519081529192917f17307eab39ab6107e8899845ad3d59bd9653f200f220920489ca2b5937696c31910160405180910390a35050565b600760205260009081526040902080546105779061197b565b336001600160a01b0387161480610fad57506001600160a01b038616600090815260016020908152604080832033845290915290205460ff165b610fea5760405162461bcd60e51b815260206004820152600e60248201526d1393d517d055551213d49256915160921b6044820152606401610622565b6001600160a01b0386166000908152602081815260408083208784529091528120805485929061101b908490611a17565b90915550506001600160a01b03851660009081526020818152604080832087845290915281208054859290611051908490611a2e565b909155505060408051858152602081018590526001600160a01b03808816929089169133917fc3d58168c5ae7397731d063d5bbf3d657854427343f4c083240f7aacaa2d0f62910160405180910390a46001600160a01b0385163b1561113c5760405163f23a6e6160e01b808252906001600160a01b0387169063f23a6e61906110e99033908b908a908a908a908a90600401611b82565b6020604051808303816000875af1158015611108573d6000803e3d6000fd5b505050506040513d601f19601f8201168201806040525081019061112c9190611b3b565b6001600160e01b03191614611149565b6001600160a01b03851615155b6111655760405162461bcd60e51b815260040161062290611b58565b505050505050565b6002546001600160a01b031633146111975760405162461bcd60e51b8152600401610622906119b6565b6001600160a01b0381166111fc5760405162461bcd60e51b815260206004820152602660248201527f4f776e61626c653a206e6577206f776e657220697320746865207a65726f206160448201526564647265737360d01b6064820152608401610622565b6108068161139e565b6001600160a01b03841660009081526020818152604080832086845290915281208054849290611236908490611a2e565b909155505060408051848152602081018490526001600160a01b0386169160009133917fc3d58168c5ae7397731d063d5bbf3d657854427343f4c083240f7aacaa2d0f62910160405180910390a46001600160a01b0384163b1561131e5760405163f23a6e6160e01b808252906001600160a01b0386169063f23a6e61906112cb903390600090899089908990600401611bc9565b6020604051808303816000875af11580156112ea573d6000803e3d6000fd5b505050506040513d601f19601f8201168201806040525081019061130e9190611b3b565b6001600160e01b0319161461132b565b6001600160a01b03841615155b6113475760405162461bcd60e51b815260040161062290611b58565b50505050565b600080600080600085875af190508061064a5760405162461bcd60e51b815260206004820152601360248201527211551217d514905394d1915497d19052531151606a1b6044820152606401610622565b600280546001600160a01b038381166001600160a01b0319831681179093556040519116919082907f8be0079c531659141344cd1fd0a4f28419497f9722a3daafe3b4186f6b6457e090600090a35050565b8280546113fc9061197b565b90600052602060002090601f01602090048101928261141e5760008555611464565b82601f1061143757805160ff1916838001178555611464565b82800160010185558215611464579182015b82811115611464578251825591602001919060010190611449565b50611470929150611474565b5090565b5b808211156114705760008155600101611475565b80356001600160a01b03811681146114a057600080fd5b919050565b600080604083850312156114b857600080fd5b6114c183611489565b946020939093013593505050565b6001600160e01b03198116811461080657600080fd5b6000602082840312156114f757600080fd5b8135611502816114cf565b9392505050565b6000815180845260005b8181101561152f57602081850181015186830182015201611513565b81811115611541576000602083870101525b50601f01601f19169290920160200192915050565b6020815260006115026020830184611509565b634e487b7160e01b600052604160045260246000fd5b6000806040838503121561159257600080fd5b823567ffffffffffffffff808211156115aa57600080fd5b818501915085601f8301126115be57600080fd5b8135818111156115d0576115d0611569565b604051601f8201601f19908116603f011681019083821181831017156115f8576115f8611569565b8160405282815288602084870101111561161157600080fd5b826020860160208301376000602093820184015298969091013596505050505050565b60006020828403121561164657600080fd5b61150282611489565b60006020828403121561166157600080fd5b5035919050565b60008083601f84011261167a57600080fd5b50813567ffffffffffffffff81111561169257600080fd5b6020830191508360208260051b85010111156116ad57600080fd5b9250929050565b60008083601f8401126116c657600080fd5b50813567ffffffffffffffff8111156116de57600080fd5b6020830191508360208285010111156116ad57600080fd5b60008060008060008060008060a0898b03121561171257600080fd5b61171b89611489565b975061172960208a01611489565b9650604089013567ffffffffffffffff8082111561174657600080fd5b6117528c838d01611668565b909850965060608b013591508082111561176b57600080fd5b6117778c838d01611668565b909650945060808b013591508082111561179057600080fd5b5061179d8b828c016116b4565b999c989b5096995094979396929594505050565b6000806000606084860312156117c657600080fd5b6117cf84611489565b95602085013595506040909401359392505050565b600080600080604085870312156117fa57600080fd5b843567ffffffffffffffff8082111561181257600080fd5b61181e88838901611668565b9096509450602087013591508082111561183757600080fd5b5061184487828801611668565b95989497509550505050565b6020808252825182820181905260009190848201906040850190845b818110156118885783518352928401929184019160010161186c565b50909695505050505050565b600080604083850312156118a757600080fd5b6118b083611489565b9150602083013580151581146118c557600080fd5b809150509250929050565b600080604083850312156118e357600080fd5b6118ec83611489565b91506118fa60208401611489565b90509250929050565b60008060008060008060a0878903121561191c57600080fd5b61192587611489565b955061193360208801611489565b94506040870135935060608701359250608087013567ffffffffffffffff81111561195d57600080fd5b61196989828a016116b4565b979a9699509497509295939492505050565b600181811c9082168061198f57607f821691505b602082108114156119b057634e487b7160e01b600052602260045260246000fd5b50919050565b6020808252818101527f4f776e61626c653a2063616c6c6572206973206e6f7420746865206f776e6572604082015260600190565b634e487b7160e01b600052603260045260246000fd5b634e487b7160e01b600052601160045260246000fd5b600082821015611a2957611a29611a01565b500390565b60008219821115611a4157611a41611a01565b500190565b81835260006001600160fb1b03831115611a5f57600080fd5b8260051b8083602087013760009401602001938452509192915050565b604081526000611a90604083018688611a46565b8281036020840152611aa3818587611a46565b979650505050505050565b81835281816020850137506000828201602090810191909152601f909101601f19169091010190565b6001600160a01b0389811682528816602082015260a060408201819052600090611b04908301888a611a46565b8281036060840152611b17818789611a46565b90508281036080840152611b2c818587611aae565b9b9a5050505050505050505050565b600060208284031215611b4d57600080fd5b8151611502816114cf565b60208082526010908201526f155394d0519157d49150d2541251539560821b604082015260600190565b6001600160a01b03878116825286166020820152604081018590526060810184905260a060808201819052600090611bbd9083018486611aae565b98975050505050505050565b6001600160a01b03868116825285166020820152604081018490526060810183905260a060808201819052600090611aa39083018461150956fea26469706673582212204a740a2d2425e6cdf9f9e2a669314faefedc3a0f2a644a6dc489b9cfb57a9f6c64736f6c634300080b0033697066733a2f2f516d51504845686e6a7452476f326d6875475670556855717a70715a4d373733626169435274364159566e38796b697066733a2f2f516d6346335572575076796e3935515731427539325a6a365576465a39534a475538466d70465846643665786548",
					"opcodes": "PUSH2 0x140 PUSH1 0x40 MSTORE PUSH1 0xA6 PUSH1 0x80 MSTORE PUSH2 0x14A PUSH1 0xA0 MSTORE PUSH1 0x11 PUSH1 0xC0 MSTORE PUSH1 0x21 PUSH1 0xE0 MSTORE PUSH1 0x1 PUSH2 0x100 MSTORE PUSH1 0x2 PUSH2 0x120 MSTORE CALLVALUE DUP1 ISZERO PUSH3 0x33 JUMPI PUSH1 0x0 DUP1 REVERT JUMPDEST POP PUSH1 0x40 MLOAD PUSH3 0x2057 CODESIZE SUB DUP1 PUSH3 0x2057 DUP4 CODECOPY DUP2 ADD PUSH1 0x40 DUP2 SWAP1 MSTORE PUSH3 0x56 SWAP2 PUSH3 0x23C JUMP JUMPDEST PUSH3 0x61 CALLER PUSH3 0x11D JUMP JUMPDEST PUSH1 0x40 MLOAD DUP1 PUSH1 0x40 ADD PUSH1 0x40 MSTORE DUP1 PUSH1 0x13 DUP2 MSTORE PUSH1 0x20 ADD PUSH32 0x54657374204D696E742050617373207631324100000000000000000000000000 DUP2 MSTORE POP SWAP5 POP PUSH1 0x40 MLOAD DUP1 PUSH1 0x40 ADD PUSH1 0x40 MSTORE DUP1 PUSH1 0xF DUP2 MSTORE PUSH1 0x20 ADD PUSH15 0x262331303034373B544D5056313049 PUSH1 0x88 SHL DUP2 MSTORE POP SWAP4 POP PUSH20 0xC83BEBA473DD6BD1890519EE0EEE2AC4FA5836B5 SWAP3 POP PUSH1 0x40 MLOAD DUP1 PUSH1 0x60 ADD PUSH1 0x40 MSTORE DUP1 PUSH1 0x35 DUP2 MSTORE PUSH1 0x20 ADD PUSH3 0x2022 PUSH1 0x35 SWAP2 CODECOPY SWAP1 POP PUSH1 0x40 MLOAD DUP1 PUSH1 0x60 ADD PUSH1 0x40 MSTORE DUP1 PUSH1 0x35 DUP2 MSTORE PUSH1 0x20 ADD PUSH3 0x1FED PUSH1 0x35 SWAP2 CODECOPY SWAP2 POP POP POP POP POP POP PUSH3 0x317 JUMP JUMPDEST PUSH1 0x2 DUP1 SLOAD PUSH1 0x1 PUSH1 0x1 PUSH1 0xA0 SHL SUB DUP4 DUP2 AND PUSH1 0x1 PUSH1 0x1 PUSH1 0xA0 SHL SUB NOT DUP4 AND DUP2 OR SWAP1 SWAP4 SSTORE PUSH1 0x40 MLOAD SWAP2 AND SWAP2 SWAP1 DUP3 SWAP1 PUSH32 0x8BE0079C531659141344CD1FD0A4F28419497F9722A3DAAFE3B4186F6B6457E0 SWAP1 PUSH1 0x0 SWAP1 LOG3 POP POP JUMP JUMPDEST PUSH4 0x4E487B71 PUSH1 0xE0 SHL PUSH1 0x0 MSTORE PUSH1 0x41 PUSH1 0x4 MSTORE PUSH1 0x24 PUSH1 0x0 REVERT JUMPDEST PUSH1 0x0 DUP3 PUSH1 0x1F DUP4 ADD SLT PUSH3 0x197 JUMPI PUSH1 0x0 DUP1 REVERT JUMPDEST DUP2 MLOAD PUSH1 0x1 PUSH1 0x1 PUSH1 0x40 SHL SUB DUP1 DUP3 GT ISZERO PUSH3 0x1B4 JUMPI PUSH3 0x1B4 PUSH3 0x16F JUMP JUMPDEST PUSH1 0x40 MLOAD PUSH1 0x1F DUP4 ADD PUSH1 0x1F NOT SWAP1 DUP2 AND PUSH1 0x3F ADD AND DUP2 ADD SWAP1 DUP3 DUP3 GT DUP2 DUP4 LT OR ISZERO PUSH3 0x1DF JUMPI PUSH3 0x1DF PUSH3 0x16F JUMP JUMPDEST DUP2 PUSH1 0x40 MSTORE DUP4 DUP2 MSTORE PUSH1 0x20 SWAP3 POP DUP7 DUP4 DUP6 DUP9 ADD ADD GT ISZERO PUSH3 0x1FC JUMPI PUSH1 0x0 DUP1 REVERT JUMPDEST PUSH1 0x0 SWAP2 POP JUMPDEST DUP4 DUP3 LT ISZERO PUSH3 0x220 JUMPI DUP6 DUP3 ADD DUP4 ADD MLOAD DUP2 DUP4 ADD DUP5 ADD MSTORE SWAP1 DUP3 ADD SWAP1 PUSH3 0x201 JUMP JUMPDEST DUP4 DUP3 GT ISZERO PUSH3 0x232 JUMPI PUSH1 0x0 DUP4 DUP6 DUP4 ADD ADD MSTORE JUMPDEST SWAP7 SWAP6 POP POP POP POP POP POP JUMP JUMPDEST PUSH1 0x0 DUP1 PUSH1 0x0 DUP1 PUSH1 0x0 PUSH1 0xA0 DUP7 DUP9 SUB SLT ISZERO PUSH3 0x255 JUMPI PUSH1 0x0 DUP1 REVERT JUMPDEST DUP6 MLOAD PUSH1 0x1 PUSH1 0x1 PUSH1 0x40 SHL SUB DUP1 DUP3 GT ISZERO PUSH3 0x26D JUMPI PUSH1 0x0 DUP1 REVERT JUMPDEST PUSH3 0x27B DUP10 DUP4 DUP11 ADD PUSH3 0x185 JUMP JUMPDEST SWAP7 POP PUSH1 0x20 DUP9 ADD MLOAD SWAP2 POP DUP1 DUP3 GT ISZERO PUSH3 0x292 JUMPI PUSH1 0x0 DUP1 REVERT JUMPDEST PUSH3 0x2A0 DUP10 DUP4 DUP11 ADD PUSH3 0x185 JUMP JUMPDEST PUSH1 0x40 DUP10 ADD MLOAD SWAP1 SWAP7 POP SWAP2 POP PUSH1 0x1 PUSH1 0x1 PUSH1 0xA0 SHL SUB DUP3 AND DUP3 EQ PUSH3 0x2C0 JUMPI PUSH1 0x0 DUP1 REVERT JUMPDEST PUSH1 0x60 DUP9 ADD MLOAD SWAP2 SWAP5 POP DUP1 DUP3 GT ISZERO PUSH3 0x2D6 JUMPI PUSH1 0x0 DUP1 REVERT JUMPDEST PUSH3 0x2E4 DUP10 DUP4 DUP11 ADD PUSH3 0x185 JUMP JUMPDEST SWAP4 POP PUSH1 0x80 DUP9 ADD MLOAD SWAP2 POP DUP1 DUP3 GT ISZERO PUSH3 0x2FB JUMPI PUSH1 0x0 DUP1 REVERT JUMPDEST POP PUSH3 0x30A DUP9 DUP3 DUP10 ADD PUSH3 0x185 JUMP JUMPDEST SWAP2 POP POP SWAP3 SWAP6 POP SWAP3 SWAP6 SWAP1 SWAP4 POP JUMP JUMPDEST PUSH1 0x80 MLOAD PUSH1 0xA0 MLOAD PUSH1 0xC0 MLOAD PUSH1 0xE0 MLOAD PUSH2 0x100 MLOAD PUSH2 0x120 MLOAD PUSH2 0x1C39 PUSH3 0x3B4 PUSH1 0x0 CODECOPY PUSH1 0x0 DUP2 DUP2 PUSH2 0x377 ADD MSTORE DUP2 DUP2 PUSH2 0x7B1 ADD MSTORE DUP2 DUP2 PUSH2 0xAD8 ADD MSTORE DUP2 DUP2 PUSH2 0xB71 ADD MSTORE PUSH2 0xBBD ADD MSTORE PUSH1 0x0 DUP2 DUP2 PUSH2 0x3B7 ADD MSTORE DUP2 DUP2 PUSH2 0x756 ADD MSTORE DUP2 DUP2 PUSH2 0xB01 ADD MSTORE PUSH2 0xC9B ADD MSTORE PUSH1 0x0 DUP2 DUP2 PUSH2 0x47B ADD MSTORE PUSH2 0x7D2 ADD MSTORE PUSH1 0x0 DUP2 DUP2 PUSH2 0x454 ADD MSTORE PUSH2 0x777 ADD MSTORE PUSH1 0x0 DUP2 DUP2 PUSH2 0x315 ADD MSTORE PUSH2 0xB99 ADD MSTORE PUSH1 0x0 DUP2 DUP2 PUSH2 0x4F6 ADD MSTORE PUSH2 0xC77 ADD MSTORE PUSH2 0x1C39 PUSH1 0x0 RETURN INVALID PUSH1 0x80 PUSH1 0x40 MSTORE CALLVALUE DUP1 ISZERO PUSH2 0x10 JUMPI PUSH1 0x0 DUP1 REVERT JUMPDEST POP PUSH1 0x4 CALLDATASIZE LT PUSH2 0x1E4 JUMPI PUSH1 0x0 CALLDATALOAD PUSH1 0xE0 SHR DUP1 PUSH4 0x71D05AEC GT PUSH2 0x10F JUMPI DUP1 PUSH4 0xCBF99084 GT PUSH2 0xA2 JUMPI DUP1 PUSH4 0xE985E9C5 GT PUSH2 0x71 JUMPI DUP1 PUSH4 0xE985E9C5 EQ PUSH2 0x49D JUMPI DUP1 PUSH4 0xF242432A EQ PUSH2 0x4CB JUMPI DUP1 PUSH4 0xF2FDE38B EQ PUSH2 0x4DE JUMPI DUP1 PUSH4 0xF48DEAAA EQ PUSH2 0x4F1 JUMPI PUSH1 0x0 DUP1 REVERT JUMPDEST DUP1 PUSH4 0xCBF99084 EQ PUSH2 0x43F JUMPI DUP1 PUSH4 0xCC2851C6 EQ PUSH2 0x447 JUMPI DUP1 PUSH4 0xDEC125BA EQ PUSH2 0x44F JUMPI DUP1 PUSH4 0xDF52FA84 EQ PUSH2 0x476 JUMPI PUSH1 0x0 DUP1 REVERT JUMPDEST DUP1 PUSH4 0x9FA3CDA1 GT PUSH2 0xDE JUMPI DUP1 PUSH4 0x9FA3CDA1 EQ PUSH2 0x3D9 JUMPI DUP1 PUSH4 0xA22CB465 EQ PUSH2 0x3F9 JUMPI DUP1 PUSH4 0xBD85B039 EQ PUSH2 0x40C JUMPI DUP1 PUSH4 0xC87B56DD EQ PUSH2 0x42C JUMPI PUSH1 0x0 DUP1 REVERT JUMPDEST DUP1 PUSH4 0x71D05AEC EQ PUSH2 0x372 JUMPI DUP1 PUSH4 0x8DA5CB5B EQ PUSH2 0x399 JUMPI DUP1 PUSH4 0x95D89B41 EQ PUSH2 0x3AA JUMPI DUP1 PUSH4 0x9E3CF643 EQ PUSH2 0x3B2 JUMPI PUSH1 0x0 DUP1 REVERT JUMPDEST DUP1 PUSH4 0x2EB2C2D6 GT PUSH2 0x187 JUMPI DUP1 PUSH4 0x45114990 GT PUSH2 0x156 JUMPI DUP1 PUSH4 0x45114990 EQ PUSH2 0x310 JUMPI DUP1 PUSH4 0x4E1273F4 EQ PUSH2 0x337 JUMPI DUP1 PUSH4 0x6817031B EQ PUSH2 0x357 JUMPI DUP1 PUSH4 0x715018A6 EQ PUSH2 0x36A JUMPI PUSH1 0x0 DUP1 REVERT JUMPDEST DUP1 PUSH4 0x2EB2C2D6 EQ PUSH2 0x2B7 JUMPI DUP1 PUSH4 0x388B9FE0 EQ PUSH2 0x2CA JUMPI DUP1 PUSH4 0x3CCFD60B EQ PUSH2 0x2DD JUMPI DUP1 PUSH4 0x430BF08A EQ PUSH2 0x2E5 JUMPI PUSH1 0x0 DUP1 REVERT JUMPDEST DUP1 PUSH4 0x9A3BEEF GT PUSH2 0x1C3 JUMPI DUP1 PUSH4 0x9A3BEEF EQ PUSH2 0x25C JUMPI DUP1 PUSH4 0xB22F540 EQ PUSH2 0x271 JUMPI DUP1 PUSH4 0xE89341C EQ PUSH2 0x291 JUMPI DUP1 PUSH4 0x16473CF7 EQ PUSH2 0x2A4 JUMPI PUSH1 0x0 DUP1 REVERT JUMPDEST DUP1 PUSH3 0xFDD58E EQ PUSH2 0x1E9 JUMPI DUP1 PUSH4 0x1FFC9A7 EQ PUSH2 0x224 JUMPI DUP1 PUSH4 0x6FDDE03 EQ PUSH2 0x247 JUMPI JUMPDEST PUSH1 0x0 DUP1 REVERT JUMPDEST PUSH2 0x211 PUSH2 0x1F7 CALLDATASIZE PUSH1 0x4 PUSH2 0x14A5 JUMP JUMPDEST PUSH1 0x0 PUSH1 0x20 DUP2 DUP2 MSTORE SWAP3 DUP2 MSTORE PUSH1 0x40 DUP1 DUP3 KECCAK256 SWAP1 SWAP4 MSTORE SWAP1 DUP2 MSTORE KECCAK256 SLOAD DUP2 JUMP JUMPDEST PUSH1 0x40 MLOAD SWAP1 DUP2 MSTORE PUSH1 0x20 ADD JUMPDEST PUSH1 0x40 MLOAD DUP1 SWAP2 SUB SWAP1 RETURN JUMPDEST PUSH2 0x237 PUSH2 0x232 CALLDATASIZE PUSH1 0x4 PUSH2 0x14E5 JUMP JUMPDEST PUSH2 0x518 JUMP JUMPDEST PUSH1 0x40 MLOAD SWAP1 ISZERO ISZERO DUP2 MSTORE PUSH1 0x20 ADD PUSH2 0x21B JUMP JUMPDEST PUSH2 0x24F PUSH2 0x56A JUMP JUMPDEST PUSH1 0x40 MLOAD PUSH2 0x21B SWAP2 SWAP1 PUSH2 0x1556 JUMP JUMPDEST PUSH2 0x26F PUSH2 0x26A CALLDATASIZE PUSH1 0x4 PUSH2 0x157F JUMP JUMPDEST PUSH2 0x5F8 JUMP JUMPDEST STOP JUMPDEST PUSH2 0x211 PUSH2 0x27F CALLDATASIZE PUSH1 0x4 PUSH2 0x1634 JUMP JUMPDEST PUSH1 0x9 PUSH1 0x20 MSTORE PUSH1 0x0 SWAP1 DUP2 MSTORE PUSH1 0x40 SWAP1 KECCAK256 SLOAD DUP2 JUMP JUMPDEST PUSH2 0x24F PUSH2 0x29F CALLDATASIZE PUSH1 0x4 PUSH2 0x164F JUMP JUMPDEST PUSH2 0x64F JUMP JUMPDEST PUSH2 0x26F PUSH2 0x2B2 CALLDATASIZE PUSH1 0x4 PUSH2 0x1634 JUMP JUMPDEST PUSH2 0x726 JUMP JUMPDEST PUSH2 0x26F PUSH2 0x2C5 CALLDATASIZE PUSH1 0x4 PUSH2 0x16F6 JUMP JUMPDEST PUSH2 0x809 JUMP JUMPDEST PUSH2 0x26F PUSH2 0x2D8 CALLDATASIZE PUSH1 0x4 PUSH2 0x17B1 JUMP JUMPDEST PUSH2 0xAAC JUMP JUMPDEST PUSH2 0x26F PUSH2 0xCCC JUMP JUMPDEST PUSH1 0x5 SLOAD PUSH2 0x2F8 SWAP1 PUSH1 0x1 PUSH1 0x1 PUSH1 0xA0 SHL SUB AND DUP2 JUMP JUMPDEST PUSH1 0x40 MLOAD PUSH1 0x1 PUSH1 0x1 PUSH1 0xA0 SHL SUB SWAP1 SWAP2 AND DUP2 MSTORE PUSH1 0x20 ADD PUSH2 0x21B JUMP JUMPDEST PUSH2 0x211 PUSH32 0x0 DUP2 JUMP JUMPDEST PUSH2 0x34A PUSH2 0x345 CALLDATASIZE PUSH1 0x4 PUSH2 0x17E4 JUMP JUMPDEST PUSH2 0xD2C JUMP JUMPDEST PUSH1 0x40 MLOAD PUSH2 0x21B SWAP2 SWAP1 PUSH2 0x1850 JUMP JUMPDEST PUSH2 0x26F PUSH2 0x365 CALLDATASIZE PUSH1 0x4 PUSH2 0x1634 JUMP JUMPDEST PUSH2 0xE61 JUMP JUMPDEST PUSH2 0x26F PUSH2 0xEAD JUMP JUMPDEST PUSH2 0x211 PUSH32 0x0 DUP2 JUMP JUMPDEST PUSH1 0x2 SLOAD PUSH1 0x1 PUSH1 0x1 PUSH1 0xA0 SHL SUB AND PUSH2 0x2F8 JUMP JUMPDEST PUSH2 0x24F PUSH2 0xEE1 JUMP JUMPDEST PUSH2 0x211 PUSH32 0x0 DUP2 JUMP JUMPDEST PUSH2 0x211 PUSH2 0x3E7 CALLDATASIZE PUSH1 0x4 PUSH2 0x1634 JUMP JUMPDEST PUSH1 0x8 PUSH1 0x20 MSTORE PUSH1 0x0 SWAP1 DUP2 MSTORE PUSH1 0x40 SWAP1 KECCAK256 SLOAD DUP2 JUMP JUMPDEST PUSH2 0x26F PUSH2 0x407 CALLDATASIZE PUSH1 0x4 PUSH2 0x1894 JUMP JUMPDEST PUSH2 0xEEE JUMP JUMPDEST PUSH2 0x211 PUSH2 0x41A CALLDATASIZE PUSH1 0x4 PUSH2 0x164F JUMP JUMPDEST PUSH1 0x0 SWAP1 DUP2 MSTORE PUSH1 0x6 PUSH1 0x20 MSTORE PUSH1 0x40 SWAP1 KECCAK256 SLOAD SWAP1 JUMP JUMPDEST PUSH2 0x24F PUSH2 0x43A CALLDATASIZE PUSH1 0x4 PUSH2 0x164F JUMP JUMPDEST PUSH2 0xF5A JUMP JUMPDEST PUSH2 0x211 PUSH1 0x1 DUP2 JUMP JUMPDEST PUSH2 0x211 PUSH1 0x2 DUP2 JUMP JUMPDEST PUSH2 0x211 PUSH32 0x0 DUP2 JUMP JUMPDEST PUSH2 0x211 PUSH32 0x0 DUP2 JUMP JUMPDEST PUSH2 0x237 PUSH2 0x4AB CALLDATASIZE PUSH1 0x4 PUSH2 0x18D0 JUMP JUMPDEST PUSH1 0x1 PUSH1 0x20 SWAP1 DUP2 MSTORE PUSH1 0x0 SWAP3 DUP4 MSTORE PUSH1 0x40 DUP1 DUP5 KECCAK256 SWAP1 SWAP2 MSTORE SWAP1 DUP3 MSTORE SWAP1 KECCAK256 SLOAD PUSH1 0xFF AND DUP2 JUMP JUMPDEST PUSH2 0x26F PUSH2 0x4D9 CALLDATASIZE PUSH1 0x4 PUSH2 0x1903 JUMP JUMPDEST PUSH2 0xF73 JUMP JUMPDEST PUSH2 0x26F PUSH2 0x4EC CALLDATASIZE PUSH1 0x4 PUSH2 0x1634 JUMP JUMPDEST PUSH2 0x116D JUMP JUMPDEST PUSH2 0x211 PUSH32 0x0 DUP2 JUMP JUMPDEST PUSH1 0x0 PUSH4 0x1FFC9A7 PUSH1 0xE0 SHL PUSH1 0x1 PUSH1 0x1 PUSH1 0xE0 SHL SUB NOT DUP4 AND EQ DUP1 PUSH2 0x549 JUMPI POP PUSH4 0x6CDB3D13 PUSH1 0xE1 SHL PUSH1 0x1 PUSH1 0x1 PUSH1 0xE0 SHL SUB NOT DUP4 AND EQ JUMPDEST DUP1 PUSH2 0x564 JUMPI POP PUSH4 0x3A24D07 PUSH1 0xE2 SHL PUSH1 0x1 PUSH1 0x1 PUSH1 0xE0 SHL SUB NOT DUP4 AND EQ JUMPDEST SWAP3 SWAP2 POP POP JUMP JUMPDEST PUSH1 0x3 DUP1 SLOAD PUSH2 0x577 SWAP1 PUSH2 0x197B JUMP JUMPDEST DUP1 PUSH1 0x1F ADD PUSH1 0x20 DUP1 SWAP2 DIV MUL PUSH1 0x20 ADD PUSH1 0x40 MLOAD SWAP1 DUP2 ADD PUSH1 0x40 MSTORE DUP1 SWAP3 SWAP2 SWAP1 DUP2 DUP2 MSTORE PUSH1 0x20 ADD DUP3 DUP1 SLOAD PUSH2 0x5A3 SWAP1 PUSH2 0x197B JUMP JUMPDEST DUP1 ISZERO PUSH2 0x5F0 JUMPI DUP1 PUSH1 0x1F LT PUSH2 0x5C5 JUMPI PUSH2 0x100 DUP1 DUP4 SLOAD DIV MUL DUP4 MSTORE SWAP2 PUSH1 0x20 ADD SWAP2 PUSH2 0x5F0 JUMP JUMPDEST DUP3 ADD SWAP2 SWAP1 PUSH1 0x0 MSTORE PUSH1 0x20 PUSH1 0x0 KECCAK256 SWAP1 JUMPDEST DUP2 SLOAD DUP2 MSTORE SWAP1 PUSH1 0x1 ADD SWAP1 PUSH1 0x20 ADD DUP1 DUP4 GT PUSH2 0x5D3 JUMPI DUP3 SWAP1 SUB PUSH1 0x1F AND DUP3 ADD SWAP2 JUMPDEST POP POP POP POP POP DUP2 JUMP JUMPDEST PUSH1 0x2 SLOAD PUSH1 0x1 PUSH1 0x1 PUSH1 0xA0 SHL SUB AND CALLER EQ PUSH2 0x62B JUMPI PUSH1 0x40 MLOAD PUSH3 0x461BCD PUSH1 0xE5 SHL DUP2 MSTORE PUSH1 0x4 ADD PUSH2 0x622 SWAP1 PUSH2 0x19B6 JUMP JUMPDEST PUSH1 0x40 MLOAD DUP1 SWAP2 SUB SWAP1 REVERT JUMPDEST PUSH1 0x0 DUP2 DUP2 MSTORE PUSH1 0x7 PUSH1 0x20 SWAP1 DUP2 MSTORE PUSH1 0x40 SWAP1 SWAP2 KECCAK256 DUP4 MLOAD PUSH2 0x64A SWAP3 DUP6 ADD SWAP1 PUSH2 0x13F0 JUMP JUMPDEST POP POP POP JUMP JUMPDEST PUSH1 0x0 DUP2 DUP2 MSTORE PUSH1 0x7 PUSH1 0x20 MSTORE PUSH1 0x40 SWAP1 KECCAK256 DUP1 SLOAD PUSH1 0x60 SWAP2 SWAP1 PUSH2 0x66C SWAP1 PUSH2 0x197B JUMP JUMPDEST ISZERO ISZERO SWAP1 POP PUSH2 0x688 JUMPI POP POP PUSH1 0x40 DUP1 MLOAD PUSH1 0x20 DUP2 ADD SWAP1 SWAP2 MSTORE PUSH1 0x0 DUP2 MSTORE SWAP1 JUMP JUMPDEST PUSH1 0x0 DUP3 DUP2 MSTORE PUSH1 0x7 PUSH1 0x20 MSTORE PUSH1 0x40 SWAP1 KECCAK256 DUP1 SLOAD PUSH2 0x6A1 SWAP1 PUSH2 0x197B JUMP JUMPDEST DUP1 PUSH1 0x1F ADD PUSH1 0x20 DUP1 SWAP2 DIV MUL PUSH1 0x20 ADD PUSH1 0x40 MLOAD SWAP1 DUP2 ADD PUSH1 0x40 MSTORE DUP1 SWAP3 SWAP2 SWAP1 DUP2 DUP2 MSTORE PUSH1 0x20 ADD DUP3 DUP1 SLOAD PUSH2 0x6CD SWAP1 PUSH2 0x197B JUMP JUMPDEST DUP1 ISZERO PUSH2 0x71A JUMPI DUP1 PUSH1 0x1F LT PUSH2 0x6EF JUMPI PUSH2 0x100 DUP1 DUP4 SLOAD DIV MUL DUP4 MSTORE SWAP2 PUSH1 0x20 ADD SWAP2 PUSH2 0x71A JUMP JUMPDEST DUP3 ADD SWAP2 SWAP1 PUSH1 0x0 MSTORE PUSH1 0x20 PUSH1 0x0 KECCAK256 SWAP1 JUMPDEST DUP2 SLOAD DUP2 MSTORE SWAP1 PUSH1 0x1 ADD SWAP1 PUSH1 0x20 ADD DUP1 DUP4 GT PUSH2 0x6FD JUMPI DUP3 SWAP1 SUB PUSH1 0x1F AND DUP3 ADD SWAP2 JUMPDEST POP POP POP POP POP SWAP1 POP SWAP2 SWAP1 POP JUMP JUMPDEST PUSH1 0x2 SLOAD PUSH1 0x1 PUSH1 0x1 PUSH1 0xA0 SHL SUB AND CALLER EQ PUSH2 0x750 JUMPI PUSH1 0x40 MLOAD PUSH3 0x461BCD PUSH1 0xE5 SHL DUP2 MSTORE PUSH1 0x4 ADD PUSH2 0x622 SWAP1 PUSH2 0x19B6 JUMP JUMPDEST PUSH2 0x7AB DUP2 PUSH32 0x0 PUSH32 0x0 PUSH1 0x40 MLOAD DUP1 PUSH1 0x20 ADD PUSH1 0x40 MSTORE DUP1 PUSH1 0x0 DUP2 MSTORE POP PUSH2 0x1205 JUMP JUMPDEST PUSH2 0x806 DUP2 PUSH32 0x0 PUSH32 0x0 PUSH1 0x40 MLOAD DUP1 PUSH1 0x20 ADD PUSH1 0x40 MSTORE DUP1 PUSH1 0x0 DUP2 MSTORE POP PUSH2 0x1205 JUMP JUMPDEST POP JUMP JUMPDEST DUP5 DUP4 EQ PUSH2 0x84A JUMPI PUSH1 0x40 MLOAD PUSH3 0x461BCD PUSH1 0xE5 SHL DUP2 MSTORE PUSH1 0x20 PUSH1 0x4 DUP3 ADD MSTORE PUSH1 0xF PUSH1 0x24 DUP3 ADD MSTORE PUSH15 0x988A9C8EA890BE9A92A69A82A8869 PUSH1 0x8B SHL PUSH1 0x44 DUP3 ADD MSTORE PUSH1 0x64 ADD PUSH2 0x622 JUMP JUMPDEST CALLER PUSH1 0x1 PUSH1 0x1 PUSH1 0xA0 SHL SUB DUP10 AND EQ DUP1 PUSH2 0x884 JUMPI POP PUSH1 0x1 PUSH1 0x1 PUSH1 0xA0 SHL SUB DUP9 AND PUSH1 0x0 SWAP1 DUP2 MSTORE PUSH1 0x1 PUSH1 0x20 SWAP1 DUP2 MSTORE PUSH1 0x40 DUP1 DUP4 KECCAK256 CALLER DUP5 MSTORE SWAP1 SWAP2 MSTORE SWAP1 KECCAK256 SLOAD PUSH1 0xFF AND JUMPDEST PUSH2 0x8C1 JUMPI PUSH1 0x40 MLOAD PUSH3 0x461BCD PUSH1 0xE5 SHL DUP2 MSTORE PUSH1 0x20 PUSH1 0x4 DUP3 ADD MSTORE PUSH1 0xE PUSH1 0x24 DUP3 ADD MSTORE PUSH14 0x1393D517D055551213D492569151 PUSH1 0x92 SHL PUSH1 0x44 DUP3 ADD MSTORE PUSH1 0x64 ADD PUSH2 0x622 JUMP JUMPDEST PUSH1 0x0 DUP1 PUSH1 0x0 JUMPDEST DUP8 DUP2 LT ISZERO PUSH2 0x97C JUMPI DUP9 DUP9 DUP3 DUP2 DUP2 LT PUSH2 0x8E1 JUMPI PUSH2 0x8E1 PUSH2 0x19EB JUMP JUMPDEST SWAP1 POP PUSH1 0x20 MUL ADD CALLDATALOAD SWAP3 POP DUP7 DUP7 DUP3 DUP2 DUP2 LT PUSH2 0x8FC JUMPI PUSH2 0x8FC PUSH2 0x19EB JUMP JUMPDEST PUSH1 0x1 PUSH1 0x1 PUSH1 0xA0 SHL SUB DUP15 AND PUSH1 0x0 SWAP1 DUP2 MSTORE PUSH1 0x20 DUP2 DUP2 MSTORE PUSH1 0x40 DUP1 DUP4 KECCAK256 DUP10 DUP5 MSTORE DUP3 MSTORE DUP3 KECCAK256 DUP1 SLOAD SWAP4 SWAP1 SWAP2 MUL SWAP5 SWAP1 SWAP5 ADD CALLDATALOAD SWAP6 POP DUP6 SWAP4 SWAP3 POP SWAP1 PUSH2 0x939 SWAP1 DUP5 SWAP1 PUSH2 0x1A17 JUMP JUMPDEST SWAP1 SWAP2 SSTORE POP POP PUSH1 0x1 PUSH1 0x1 PUSH1 0xA0 SHL SUB DUP11 AND PUSH1 0x0 SWAP1 DUP2 MSTORE PUSH1 0x20 DUP2 DUP2 MSTORE PUSH1 0x40 DUP1 DUP4 KECCAK256 DUP7 DUP5 MSTORE SWAP1 SWAP2 MSTORE DUP2 KECCAK256 DUP1 SLOAD DUP5 SWAP3 SWAP1 PUSH2 0x96F SWAP1 DUP5 SWAP1 PUSH2 0x1A2E JUMP JUMPDEST SWAP1 SWAP2 SSTORE POP POP PUSH1 0x1 ADD PUSH2 0x8C7 JUMP JUMPDEST POP DUP9 PUSH1 0x1 PUSH1 0x1 PUSH1 0xA0 SHL SUB AND DUP11 PUSH1 0x1 PUSH1 0x1 PUSH1 0xA0 SHL SUB AND CALLER PUSH1 0x1 PUSH1 0x1 PUSH1 0xA0 SHL SUB AND PUSH32 0x4A39DC06D4C0DBC64B70AF90FD698A233A518AA5D07E595D983B8C0526C8F7FB DUP12 DUP12 DUP12 DUP12 PUSH1 0x40 MLOAD PUSH2 0x9D0 SWAP5 SWAP4 SWAP3 SWAP2 SWAP1 PUSH2 0x1A7C JUMP JUMPDEST PUSH1 0x40 MLOAD DUP1 SWAP2 SUB SWAP1 LOG4 PUSH1 0x1 PUSH1 0x1 PUSH1 0xA0 SHL SUB DUP10 AND EXTCODESIZE ISZERO PUSH2 0xA77 JUMPI PUSH1 0x40 MLOAD PUSH4 0xBC197C81 PUSH1 0xE0 SHL DUP1 DUP3 MSTORE SWAP1 PUSH1 0x1 PUSH1 0x1 PUSH1 0xA0 SHL SUB DUP12 AND SWAP1 PUSH4 0xBC197C81 SWAP1 PUSH2 0xA24 SWAP1 CALLER SWAP1 DUP16 SWAP1 DUP15 SWAP1 DUP15 SWAP1 DUP15 SWAP1 DUP15 SWAP1 DUP15 SWAP1 DUP15 SWAP1 PUSH1 0x4 ADD PUSH2 0x1AD7 JUMP JUMPDEST PUSH1 0x20 PUSH1 0x40 MLOAD DUP1 DUP4 SUB DUP2 PUSH1 0x0 DUP8 GAS CALL ISZERO DUP1 ISZERO PUSH2 0xA43 JUMPI RETURNDATASIZE PUSH1 0x0 DUP1 RETURNDATACOPY RETURNDATASIZE PUSH1 0x0 REVERT JUMPDEST POP POP POP POP PUSH1 0x40 MLOAD RETURNDATASIZE PUSH1 0x1F NOT PUSH1 0x1F DUP3 ADD AND DUP3 ADD DUP1 PUSH1 0x40 MSTORE POP DUP2 ADD SWAP1 PUSH2 0xA67 SWAP2 SWAP1 PUSH2 0x1B3B JUMP JUMPDEST PUSH1 0x1 PUSH1 0x1 PUSH1 0xE0 SHL SUB NOT AND EQ PUSH2 0xA84 JUMP JUMPDEST PUSH1 0x1 PUSH1 0x1 PUSH1 0xA0 SHL SUB DUP10 AND ISZERO ISZERO JUMPDEST PUSH2 0xAA0 JUMPI PUSH1 0x40 MLOAD PUSH3 0x461BCD PUSH1 0xE5 SHL DUP2 MSTORE PUSH1 0x4 ADD PUSH2 0x622 SWAP1 PUSH2 0x1B58 JUMP JUMPDEST POP POP POP POP POP POP POP POP POP POP JUMP JUMPDEST PUSH1 0x2 SLOAD PUSH1 0x1 PUSH1 0x1 PUSH1 0xA0 SHL SUB AND CALLER EQ PUSH2 0xAD6 JUMPI PUSH1 0x40 MLOAD PUSH3 0x461BCD PUSH1 0xE5 SHL DUP2 MSTORE PUSH1 0x4 ADD PUSH2 0x622 SWAP1 PUSH2 0x19B6 JUMP JUMPDEST PUSH32 0x0 DUP2 EQ DUP1 PUSH2 0xB23 JUMPI POP PUSH32 0x0 DUP2 EQ JUMPDEST PUSH2 0xB6F JUMPI PUSH1 0x40 MLOAD PUSH3 0x461BCD PUSH1 0xE5 SHL DUP2 MSTORE PUSH1 0x20 PUSH1 0x4 DUP3 ADD MSTORE PUSH1 0x1E PUSH1 0x24 DUP3 ADD MSTORE PUSH32 0x544D50563132413A204E6F6E6578697374656E7420746F6B656E2049442E0000 PUSH1 0x44 DUP3 ADD MSTORE PUSH1 0x64 ADD PUSH2 0x622 JUMP JUMPDEST PUSH32 0x0 DUP2 EQ ISZERO PUSH2 0xC75 JUMPI PUSH32 0x0 PUSH2 0xBEE PUSH32 0x0 PUSH1 0x0 SWAP1 DUP2 MSTORE PUSH1 0x6 PUSH1 0x20 MSTORE PUSH1 0x40 SWAP1 KECCAK256 SLOAD SWAP1 JUMP JUMPDEST PUSH2 0xBF8 SWAP1 DUP5 PUSH2 0x1A2E JUMP JUMPDEST GT ISZERO PUSH2 0xC5A JUMPI PUSH1 0x40 MLOAD PUSH3 0x461BCD PUSH1 0xE5 SHL DUP2 MSTORE PUSH1 0x20 PUSH1 0x4 DUP3 ADD MSTORE PUSH1 0x2B PUSH1 0x24 DUP3 ADD MSTORE PUSH32 0x544D50563132413A20416D6F756E74206973206C6172676572207468616E2074 PUSH1 0x44 DUP3 ADD MSTORE PUSH11 0x37BA30B629BAB838363C97 PUSH1 0xA9 SHL PUSH1 0x64 DUP3 ADD MSTORE PUSH1 0x84 ADD PUSH2 0x622 JUMP JUMPDEST PUSH2 0x64A DUP4 DUP3 DUP5 PUSH1 0x40 MLOAD DUP1 PUSH1 0x20 ADD PUSH1 0x40 MSTORE DUP1 PUSH1 0x0 DUP2 MSTORE POP PUSH2 0x1205 JUMP JUMPDEST PUSH32 0x0 PUSH2 0xBEE PUSH32 0x0 PUSH1 0x0 SWAP1 DUP2 MSTORE PUSH1 0x6 PUSH1 0x20 MSTORE PUSH1 0x40 SWAP1 KECCAK256 SLOAD SWAP1 JUMP JUMPDEST PUSH1 0x2 SLOAD PUSH1 0x1 PUSH1 0x1 PUSH1 0xA0 SHL SUB AND CALLER EQ PUSH2 0xCF6 JUMPI PUSH1 0x40 MLOAD PUSH3 0x461BCD PUSH1 0xE5 SHL DUP2 MSTORE PUSH1 0x4 ADD PUSH2 0x622 SWAP1 PUSH2 0x19B6 JUMP JUMPDEST SELFBALANCE PUSH2 0xD14 JUMPI PUSH1 0x40 MLOAD PUSH4 0x150111E7 PUSH1 0xE3 SHL DUP2 MSTORE PUSH1 0x4 ADD PUSH1 0x40 MLOAD DUP1 SWAP2 SUB SWAP1 REVERT JUMPDEST PUSH1 0x5 SLOAD PUSH2 0xD2A SWAP1 PUSH1 0x1 PUSH1 0x1 PUSH1 0xA0 SHL SUB AND SELFBALANCE PUSH2 0x134D JUMP JUMPDEST JUMP JUMPDEST PUSH1 0x60 DUP4 DUP3 EQ PUSH2 0xD6F JUMPI PUSH1 0x40 MLOAD PUSH3 0x461BCD PUSH1 0xE5 SHL DUP2 MSTORE PUSH1 0x20 PUSH1 0x4 DUP3 ADD MSTORE PUSH1 0xF PUSH1 0x24 DUP3 ADD MSTORE PUSH15 0x988A9C8EA890BE9A92A69A82A8869 PUSH1 0x8B SHL PUSH1 0x44 DUP3 ADD MSTORE PUSH1 0x64 ADD PUSH2 0x622 JUMP JUMPDEST DUP4 PUSH8 0xFFFFFFFFFFFFFFFF DUP2 GT ISZERO PUSH2 0xD88 JUMPI PUSH2 0xD88 PUSH2 0x1569 JUMP JUMPDEST PUSH1 0x40 MLOAD SWAP1 DUP1 DUP3 MSTORE DUP1 PUSH1 0x20 MUL PUSH1 0x20 ADD DUP3 ADD PUSH1 0x40 MSTORE DUP1 ISZERO PUSH2 0xDB1 JUMPI DUP2 PUSH1 0x20 ADD PUSH1 0x20 DUP3 MUL DUP1 CALLDATASIZE DUP4 CALLDATACOPY ADD SWAP1 POP JUMPDEST POP SWAP1 POP PUSH1 0x0 JUMPDEST DUP5 DUP2 LT ISZERO PUSH2 0xE58 JUMPI PUSH1 0x0 DUP1 DUP8 DUP8 DUP5 DUP2 DUP2 LT PUSH2 0xDD4 JUMPI PUSH2 0xDD4 PUSH2 0x19EB JUMP JUMPDEST SWAP1 POP PUSH1 0x20 MUL ADD PUSH1 0x20 DUP2 ADD SWAP1 PUSH2 0xDE9 SWAP2 SWAP1 PUSH2 0x1634 JUMP JUMPDEST PUSH1 0x1 PUSH1 0x1 PUSH1 0xA0 SHL SUB AND PUSH1 0x1 PUSH1 0x1 PUSH1 0xA0 SHL SUB AND DUP2 MSTORE PUSH1 0x20 ADD SWAP1 DUP2 MSTORE PUSH1 0x20 ADD PUSH1 0x0 KECCAK256 PUSH1 0x0 DUP6 DUP6 DUP5 DUP2 DUP2 LT PUSH2 0xE1D JUMPI PUSH2 0xE1D PUSH2 0x19EB JUMP JUMPDEST SWAP1 POP PUSH1 0x20 MUL ADD CALLDATALOAD DUP2 MSTORE PUSH1 0x20 ADD SWAP1 DUP2 MSTORE PUSH1 0x20 ADD PUSH1 0x0 KECCAK256 SLOAD DUP3 DUP3 DUP2 MLOAD DUP2 LT PUSH2 0xE45 JUMPI PUSH2 0xE45 PUSH2 0x19EB JUMP JUMPDEST PUSH1 0x20 SWAP1 DUP2 MUL SWAP2 SWAP1 SWAP2 ADD ADD MSTORE PUSH1 0x1 ADD PUSH2 0xDB7 JUMP JUMPDEST POP SWAP5 SWAP4 POP POP POP POP JUMP JUMPDEST PUSH1 0x2 SLOAD PUSH1 0x1 PUSH1 0x1 PUSH1 0xA0 SHL SUB AND CALLER EQ PUSH2 0xE8B JUMPI PUSH1 0x40 MLOAD PUSH3 0x461BCD PUSH1 0xE5 SHL DUP2 MSTORE PUSH1 0x4 ADD PUSH2 0x622 SWAP1 PUSH2 0x19B6 JUMP JUMPDEST PUSH1 0x5 DUP1 SLOAD PUSH1 0x1 PUSH1 0x1 PUSH1 0xA0 SHL SUB NOT AND PUSH1 0x1 PUSH1 0x1 PUSH1 0xA0 SHL SUB SWAP3 SWAP1 SWAP3 AND SWAP2 SWAP1 SWAP2 OR SWAP1 SSTORE JUMP JUMPDEST PUSH1 0x2 SLOAD PUSH1 0x1 PUSH1 0x1 PUSH1 0xA0 SHL SUB AND CALLER EQ PUSH2 0xED7 JUMPI PUSH1 0x40 MLOAD PUSH3 0x461BCD PUSH1 0xE5 SHL DUP2 MSTORE PUSH1 0x4 ADD PUSH2 0x622 SWAP1 PUSH2 0x19B6 JUMP JUMPDEST PUSH2 0xD2A PUSH1 0x0 PUSH2 0x139E JUMP JUMPDEST PUSH1 0x4 DUP1 SLOAD PUSH2 0x577 SWAP1 PUSH2 0x197B JUMP JUMPDEST CALLER PUSH1 0x0 DUP2 DUP2 MSTORE PUSH1 0x1 PUSH1 0x20 SWAP1 DUP2 MSTORE PUSH1 0x40 DUP1 DUP4 KECCAK256 PUSH1 0x1 PUSH1 0x1 PUSH1 0xA0 SHL SUB DUP8 AND DUP1 DUP6 MSTORE SWAP1 DUP4 MSTORE SWAP3 DUP2 SWAP1 KECCAK256 DUP1 SLOAD PUSH1 0xFF NOT AND DUP7 ISZERO ISZERO SWAP1 DUP2 OR SWAP1 SWAP2 SSTORE SWAP1 MLOAD SWAP1 DUP2 MSTORE SWAP2 SWAP3 SWAP2 PUSH32 0x17307EAB39AB6107E8899845AD3D59BD9653F200F220920489CA2B5937696C31 SWAP2 ADD PUSH1 0x40 MLOAD DUP1 SWAP2 SUB SWAP1 LOG3 POP POP JUMP JUMPDEST PUSH1 0x7 PUSH1 0x20 MSTORE PUSH1 0x0 SWAP1 DUP2 MSTORE PUSH1 0x40 SWAP1 KECCAK256 DUP1 SLOAD PUSH2 0x577 SWAP1 PUSH2 0x197B JUMP JUMPDEST CALLER PUSH1 0x1 PUSH1 0x1 PUSH1 0xA0 SHL SUB DUP8 AND EQ DUP1 PUSH2 0xFAD JUMPI POP PUSH1 0x1 PUSH1 0x1 PUSH1 0xA0 SHL SUB DUP7 AND PUSH1 0x0 SWAP1 DUP2 MSTORE PUSH1 0x1 PUSH1 0x20 SWAP1 DUP2 MSTORE PUSH1 0x40 DUP1 DUP4 KECCAK256 CALLER DUP5 MSTORE SWAP1 SWAP2 MSTORE SWAP1 KECCAK256 SLOAD PUSH1 0xFF AND JUMPDEST PUSH2 0xFEA JUMPI PUSH1 0x40 MLOAD PUSH3 0x461BCD PUSH1 0xE5 SHL DUP2 MSTORE PUSH1 0x20 PUSH1 0x4 DUP3 ADD MSTORE PUSH1 0xE PUSH1 0x24 DUP3 ADD MSTORE PUSH14 0x1393D517D055551213D492569151 PUSH1 0x92 SHL PUSH1 0x44 DUP3 ADD MSTORE PUSH1 0x64 ADD PUSH2 0x622 JUMP JUMPDEST PUSH1 0x1 PUSH1 0x1 PUSH1 0xA0 SHL SUB DUP7 AND PUSH1 0x0 SWAP1 DUP2 MSTORE PUSH1 0x20 DUP2 DUP2 MSTORE PUSH1 0x40 DUP1 DUP4 KECCAK256 DUP8 DUP5 MSTORE SWAP1 SWAP2 MSTORE DUP2 KECCAK256 DUP1 SLOAD DUP6 SWAP3 SWAP1 PUSH2 0x101B SWAP1 DUP5 SWAP1 PUSH2 0x1A17 JUMP JUMPDEST SWAP1 SWAP2 SSTORE POP POP PUSH1 0x1 PUSH1 0x1 PUSH1 0xA0 SHL SUB DUP6 AND PUSH1 0x0 SWAP1 DUP2 MSTORE PUSH1 0x20 DUP2 DUP2 MSTORE PUSH1 0x40 DUP1 DUP4 KECCAK256 DUP8 DUP5 MSTORE SWAP1 SWAP2 MSTORE DUP2 KECCAK256 DUP1 SLOAD DUP6 SWAP3 SWAP1 PUSH2 0x1051 SWAP1 DUP5 SWAP1 PUSH2 0x1A2E JUMP JUMPDEST SWAP1 SWAP2 SSTORE POP POP PUSH1 0x40 DUP1 MLOAD DUP6 DUP2 MSTORE PUSH1 0x20 DUP2 ADD DUP6 SWAP1 MSTORE PUSH1 0x1 PUSH1 0x1 PUSH1 0xA0 SHL SUB DUP1 DUP9 AND SWAP3 SWAP1 DUP10 AND SWAP2 CALLER SWAP2 PUSH32 0xC3D58168C5AE7397731D063D5BBF3D657854427343F4C083240F7AACAA2D0F62 SWAP2 ADD PUSH1 0x40 MLOAD DUP1 SWAP2 SUB SWAP1 LOG4 PUSH1 0x1 PUSH1 0x1 PUSH1 0xA0 SHL SUB DUP6 AND EXTCODESIZE ISZERO PUSH2 0x113C JUMPI PUSH1 0x40 MLOAD PUSH4 0xF23A6E61 PUSH1 0xE0 SHL DUP1 DUP3 MSTORE SWAP1 PUSH1 0x1 PUSH1 0x1 PUSH1 0xA0 SHL SUB DUP8 AND SWAP1 PUSH4 0xF23A6E61 SWAP1 PUSH2 0x10E9 SWAP1 CALLER SWAP1 DUP12 SWAP1 DUP11 SWAP1 DUP11 SWAP1 DUP11 SWAP1 DUP11 SWAP1 PUSH1 0x4 ADD PUSH2 0x1B82 JUMP JUMPDEST PUSH1 0x20 PUSH1 0x40 MLOAD DUP1 DUP4 SUB DUP2 PUSH1 0x0 DUP8 GAS CALL ISZERO DUP1 ISZERO PUSH2 0x1108 JUMPI RETURNDATASIZE PUSH1 0x0 DUP1 RETURNDATACOPY RETURNDATASIZE PUSH1 0x0 REVERT JUMPDEST POP POP POP POP PUSH1 0x40 MLOAD RETURNDATASIZE PUSH1 0x1F NOT PUSH1 0x1F DUP3 ADD AND DUP3 ADD DUP1 PUSH1 0x40 MSTORE POP DUP2 ADD SWAP1 PUSH2 0x112C SWAP2 SWAP1 PUSH2 0x1B3B JUMP JUMPDEST PUSH1 0x1 PUSH1 0x1 PUSH1 0xE0 SHL SUB NOT AND EQ PUSH2 0x1149 JUMP JUMPDEST PUSH1 0x1 PUSH1 0x1 PUSH1 0xA0 SHL SUB DUP6 AND ISZERO ISZERO JUMPDEST PUSH2 0x1165 JUMPI PUSH1 0x40 MLOAD PUSH3 0x461BCD PUSH1 0xE5 SHL DUP2 MSTORE PUSH1 0x4 ADD PUSH2 0x622 SWAP1 PUSH2 0x1B58 JUMP JUMPDEST POP POP POP POP POP POP JUMP JUMPDEST PUSH1 0x2 SLOAD PUSH1 0x1 PUSH1 0x1 PUSH1 0xA0 SHL SUB AND CALLER EQ PUSH2 0x1197 JUMPI PUSH1 0x40 MLOAD PUSH3 0x461BCD PUSH1 0xE5 SHL DUP2 MSTORE PUSH1 0x4 ADD PUSH2 0x622 SWAP1 PUSH2 0x19B6 JUMP JUMPDEST PUSH1 0x1 PUSH1 0x1 PUSH1 0xA0 SHL SUB DUP2 AND PUSH2 0x11FC JUMPI PUSH1 0x40 MLOAD PUSH3 0x461BCD PUSH1 0xE5 SHL DUP2 MSTORE PUSH1 0x20 PUSH1 0x4 DUP3 ADD MSTORE PUSH1 0x26 PUSH1 0x24 DUP3 ADD MSTORE PUSH32 0x4F776E61626C653A206E6577206F776E657220697320746865207A65726F2061 PUSH1 0x44 DUP3 ADD MSTORE PUSH6 0x646472657373 PUSH1 0xD0 SHL PUSH1 0x64 DUP3 ADD MSTORE PUSH1 0x84 ADD PUSH2 0x622 JUMP JUMPDEST PUSH2 0x806 DUP2 PUSH2 0x139E JUMP JUMPDEST PUSH1 0x1 PUSH1 0x1 PUSH1 0xA0 SHL SUB DUP5 AND PUSH1 0x0 SWAP1 DUP2 MSTORE PUSH1 0x20 DUP2 DUP2 MSTORE PUSH1 0x40 DUP1 DUP4 KECCAK256 DUP7 DUP5 MSTORE SWAP1 SWAP2 MSTORE DUP2 KECCAK256 DUP1 SLOAD DUP5 SWAP3 SWAP1 PUSH2 0x1236 SWAP1 DUP5 SWAP1 PUSH2 0x1A2E JUMP JUMPDEST SWAP1 SWAP2 SSTORE POP POP PUSH1 0x40 DUP1 MLOAD DUP5 DUP2 MSTORE PUSH1 0x20 DUP2 ADD DUP5 SWAP1 MSTORE PUSH1 0x1 PUSH1 0x1 PUSH1 0xA0 SHL SUB DUP7 AND SWAP2 PUSH1 0x0 SWAP2 CALLER SWAP2 PUSH32 0xC3D58168C5AE7397731D063D5BBF3D657854427343F4C083240F7AACAA2D0F62 SWAP2 ADD PUSH1 0x40 MLOAD DUP1 SWAP2 SUB SWAP1 LOG4 PUSH1 0x1 PUSH1 0x1 PUSH1 0xA0 SHL SUB DUP5 AND EXTCODESIZE ISZERO PUSH2 0x131E JUMPI PUSH1 0x40 MLOAD PUSH4 0xF23A6E61 PUSH1 0xE0 SHL DUP1 DUP3 MSTORE SWAP1 PUSH1 0x1 PUSH1 0x1 PUSH1 0xA0 SHL SUB DUP7 AND SWAP1 PUSH4 0xF23A6E61 SWAP1 PUSH2 0x12CB SWAP1 CALLER SWAP1 PUSH1 0x0 SWAP1 DUP10 SWAP1 DUP10 SWAP1 DUP10 SWAP1 PUSH1 0x4 ADD PUSH2 0x1BC9 JUMP JUMPDEST PUSH1 0x20 PUSH1 0x40 MLOAD DUP1 DUP4 SUB DUP2 PUSH1 0x0 DUP8 GAS CALL ISZERO DUP1 ISZERO PUSH2 0x12EA JUMPI RETURNDATASIZE PUSH1 0x0 DUP1 RETURNDATACOPY RETURNDATASIZE PUSH1 0x0 REVERT JUMPDEST POP POP POP POP PUSH1 0x40 MLOAD RETURNDATASIZE PUSH1 0x1F NOT PUSH1 0x1F DUP3 ADD AND DUP3 ADD DUP1 PUSH1 0x40 MSTORE POP DUP2 ADD SWAP1 PUSH2 0x130E SWAP2 SWAP1 PUSH2 0x1B3B JUMP JUMPDEST PUSH1 0x1 PUSH1 0x1 PUSH1 0xE0 SHL SUB NOT AND EQ PUSH2 0x132B JUMP JUMPDEST PUSH1 0x1 PUSH1 0x1 PUSH1 0xA0 SHL SUB DUP5 AND ISZERO ISZERO JUMPDEST PUSH2 0x1347 JUMPI PUSH1 0x40 MLOAD PUSH3 0x461BCD PUSH1 0xE5 SHL DUP2 MSTORE PUSH1 0x4 ADD PUSH2 0x622 SWAP1 PUSH2 0x1B58 JUMP JUMPDEST POP POP POP POP JUMP JUMPDEST PUSH1 0x0 DUP1 PUSH1 0x0 DUP1 PUSH1 0x0 DUP6 DUP8 GAS CALL SWAP1 POP DUP1 PUSH2 0x64A JUMPI PUSH1 0x40 MLOAD PUSH3 0x461BCD PUSH1 0xE5 SHL DUP2 MSTORE PUSH1 0x20 PUSH1 0x4 DUP3 ADD MSTORE PUSH1 0x13 PUSH1 0x24 DUP3 ADD MSTORE PUSH19 0x11551217D514905394D1915497D19052531151 PUSH1 0x6A SHL PUSH1 0x44 DUP3 ADD MSTORE PUSH1 0x64 ADD PUSH2 0x622 JUMP JUMPDEST PUSH1 0x2 DUP1 SLOAD PUSH1 0x1 PUSH1 0x1 PUSH1 0xA0 SHL SUB DUP4 DUP2 AND PUSH1 0x1 PUSH1 0x1 PUSH1 0xA0 SHL SUB NOT DUP4 AND DUP2 OR SWAP1 SWAP4 SSTORE PUSH1 0x40 MLOAD SWAP2 AND SWAP2 SWAP1 DUP3 SWAP1 PUSH32 0x8BE0079C531659141344CD1FD0A4F28419497F9722A3DAAFE3B4186F6B6457E0 SWAP1 PUSH1 0x0 SWAP1 LOG3 POP POP JUMP JUMPDEST DUP3 DUP1 SLOAD PUSH2 0x13FC SWAP1 PUSH2 0x197B JUMP JUMPDEST SWAP1 PUSH1 0x0 MSTORE PUSH1 0x20 PUSH1 0x0 KECCAK256 SWAP1 PUSH1 0x1F ADD PUSH1 0x20 SWAP1 DIV DUP2 ADD SWAP3 DUP3 PUSH2 0x141E JUMPI PUSH1 0x0 DUP6 SSTORE PUSH2 0x1464 JUMP JUMPDEST DUP3 PUSH1 0x1F LT PUSH2 0x1437 JUMPI DUP1 MLOAD PUSH1 0xFF NOT AND DUP4 DUP1 ADD OR DUP6 SSTORE PUSH2 0x1464 JUMP JUMPDEST DUP3 DUP1 ADD PUSH1 0x1 ADD DUP6 SSTORE DUP3 ISZERO PUSH2 0x1464 JUMPI SWAP2 DUP3 ADD JUMPDEST DUP3 DUP2 GT ISZERO PUSH2 0x1464 JUMPI DUP3 MLOAD DUP3 SSTORE SWAP2 PUSH1 0x20 ADD SWAP2 SWAP1 PUSH1 0x1 ADD SWAP1 PUSH2 0x1449 JUMP JUMPDEST POP PUSH2 0x1470 SWAP3 SWAP2 POP PUSH2 0x1474 JUMP JUMPDEST POP SWAP1 JUMP JUMPDEST JUMPDEST DUP1 DUP3 GT ISZERO PUSH2 0x1470 JUMPI PUSH1 0x0 DUP2 SSTORE PUSH1 0x1 ADD PUSH2 0x1475 JUMP JUMPDEST DUP1 CALLDATALOAD PUSH1 0x1 PUSH1 0x1 PUSH1 0xA0 SHL SUB DUP2 AND DUP2 EQ PUSH2 0x14A0 JUMPI PUSH1 0x0 DUP1 REVERT JUMPDEST SWAP2 SWAP1 POP JUMP JUMPDEST PUSH1 0x0 DUP1 PUSH1 0x40 DUP4 DUP6 SUB SLT ISZERO PUSH2 0x14B8 JUMPI PUSH1 0x0 DUP1 REVERT JUMPDEST PUSH2 0x14C1 DUP4 PUSH2 0x1489 JUMP JUMPDEST SWAP5 PUSH1 0x20 SWAP4 SWAP1 SWAP4 ADD CALLDATALOAD SWAP4 POP POP POP JUMP JUMPDEST PUSH1 0x1 PUSH1 0x1 PUSH1 0xE0 SHL SUB NOT DUP2 AND DUP2 EQ PUSH2 0x806 JUMPI PUSH1 0x0 DUP1 REVERT JUMPDEST PUSH1 0x0 PUSH1 0x20 DUP3 DUP5 SUB SLT ISZERO PUSH2 0x14F7 JUMPI PUSH1 0x0 DUP1 REVERT JUMPDEST DUP2 CALLDATALOAD PUSH2 0x1502 DUP2 PUSH2 0x14CF JUMP JUMPDEST SWAP4 SWAP3 POP POP POP JUMP JUMPDEST PUSH1 0x0 DUP2 MLOAD DUP1 DUP5 MSTORE PUSH1 0x0 JUMPDEST DUP2 DUP2 LT ISZERO PUSH2 0x152F JUMPI PUSH1 0x20 DUP2 DUP6 ADD DUP2 ADD MLOAD DUP7 DUP4 ADD DUP3 ADD MSTORE ADD PUSH2 0x1513 JUMP JUMPDEST DUP2 DUP2 GT ISZERO PUSH2 0x1541 JUMPI PUSH1 0x0 PUSH1 0x20 DUP4 DUP8 ADD ADD MSTORE JUMPDEST POP PUSH1 0x1F ADD PUSH1 0x1F NOT AND SWAP3 SWAP1 SWAP3 ADD PUSH1 0x20 ADD SWAP3 SWAP2 POP POP JUMP JUMPDEST PUSH1 0x20 DUP2 MSTORE PUSH1 0x0 PUSH2 0x1502 PUSH1 0x20 DUP4 ADD DUP5 PUSH2 0x1509 JUMP JUMPDEST PUSH4 0x4E487B71 PUSH1 0xE0 SHL PUSH1 0x0 MSTORE PUSH1 0x41 PUSH1 0x4 MSTORE PUSH1 0x24 PUSH1 0x0 REVERT JUMPDEST PUSH1 0x0 DUP1 PUSH1 0x40 DUP4 DUP6 SUB SLT ISZERO PUSH2 0x1592 JUMPI PUSH1 0x0 DUP1 REVERT JUMPDEST DUP3 CALLDATALOAD PUSH8 0xFFFFFFFFFFFFFFFF DUP1 DUP3 GT ISZERO PUSH2 0x15AA JUMPI PUSH1 0x0 DUP1 REVERT JUMPDEST DUP2 DUP6 ADD SWAP2 POP DUP6 PUSH1 0x1F DUP4 ADD SLT PUSH2 0x15BE JUMPI PUSH1 0x0 DUP1 REVERT JUMPDEST DUP2 CALLDATALOAD DUP2 DUP2 GT ISZERO PUSH2 0x15D0 JUMPI PUSH2 0x15D0 PUSH2 0x1569 JUMP JUMPDEST PUSH1 0x40 MLOAD PUSH1 0x1F DUP3 ADD PUSH1 0x1F NOT SWAP1 DUP2 AND PUSH1 0x3F ADD AND DUP2 ADD SWAP1 DUP4 DUP3 GT DUP2 DUP4 LT OR ISZERO PUSH2 0x15F8 JUMPI PUSH2 0x15F8 PUSH2 0x1569 JUMP JUMPDEST DUP2 PUSH1 0x40 MSTORE DUP3 DUP2 MSTORE DUP9 PUSH1 0x20 DUP5 DUP8 ADD ADD GT ISZERO PUSH2 0x1611 JUMPI PUSH1 0x0 DUP1 REVERT JUMPDEST DUP3 PUSH1 0x20 DUP7 ADD PUSH1 0x20 DUP4 ADD CALLDATACOPY PUSH1 0x0 PUSH1 0x20 SWAP4 DUP3 ADD DUP5 ADD MSTORE SWAP9 SWAP7 SWAP1 SWAP2 ADD CALLDATALOAD SWAP7 POP POP POP POP POP POP JUMP JUMPDEST PUSH1 0x0 PUSH1 0x20 DUP3 DUP5 SUB SLT ISZERO PUSH2 0x1646 JUMPI PUSH1 0x0 DUP1 REVERT JUMPDEST PUSH2 0x1502 DUP3 PUSH2 0x1489 JUMP JUMPDEST PUSH1 0x0 PUSH1 0x20 DUP3 DUP5 SUB SLT ISZERO PUSH2 0x1661 JUMPI PUSH1 0x0 DUP1 REVERT JUMPDEST POP CALLDATALOAD SWAP2 SWAP1 POP JUMP JUMPDEST PUSH1 0x0 DUP1 DUP4 PUSH1 0x1F DUP5 ADD SLT PUSH2 0x167A JUMPI PUSH1 0x0 DUP1 REVERT JUMPDEST POP DUP2 CALLDATALOAD PUSH8 0xFFFFFFFFFFFFFFFF DUP2 GT ISZERO PUSH2 0x1692 JUMPI PUSH1 0x0 DUP1 REVERT JUMPDEST PUSH1 0x20 DUP4 ADD SWAP2 POP DUP4 PUSH1 0x20 DUP3 PUSH1 0x5 SHL DUP6 ADD ADD GT ISZERO PUSH2 0x16AD JUMPI PUSH1 0x0 DUP1 REVERT JUMPDEST SWAP3 POP SWAP3 SWAP1 POP JUMP JUMPDEST PUSH1 0x0 DUP1 DUP4 PUSH1 0x1F DUP5 ADD SLT PUSH2 0x16C6 JUMPI PUSH1 0x0 DUP1 REVERT JUMPDEST POP DUP2 CALLDATALOAD PUSH8 0xFFFFFFFFFFFFFFFF DUP2 GT ISZERO PUSH2 0x16DE JUMPI PUSH1 0x0 DUP1 REVERT JUMPDEST PUSH1 0x20 DUP4 ADD SWAP2 POP DUP4 PUSH1 0x20 DUP3 DUP6 ADD ADD GT ISZERO PUSH2 0x16AD JUMPI PUSH1 0x0 DUP1 REVERT JUMPDEST PUSH1 0x0 DUP1 PUSH1 0x0 DUP1 PUSH1 0x0 DUP1 PUSH1 0x0 DUP1 PUSH1 0xA0 DUP10 DUP12 SUB SLT ISZERO PUSH2 0x1712 JUMPI PUSH1 0x0 DUP1 REVERT JUMPDEST PUSH2 0x171B DUP10 PUSH2 0x1489 JUMP JUMPDEST SWAP8 POP PUSH2 0x1729 PUSH1 0x20 DUP11 ADD PUSH2 0x1489 JUMP JUMPDEST SWAP7 POP PUSH1 0x40 DUP10 ADD CALLDATALOAD PUSH8 0xFFFFFFFFFFFFFFFF DUP1 DUP3 GT ISZERO PUSH2 0x1746 JUMPI PUSH1 0x0 DUP1 REVERT JUMPDEST PUSH2 0x1752 DUP13 DUP4 DUP14 ADD PUSH2 0x1668 JUMP JUMPDEST SWAP1 SWAP9 POP SWAP7 POP PUSH1 0x60 DUP12 ADD CALLDATALOAD SWAP2 POP DUP1 DUP3 GT ISZERO PUSH2 0x176B JUMPI PUSH1 0x0 DUP1 REVERT JUMPDEST PUSH2 0x1777 DUP13 DUP4 DUP14 ADD PUSH2 0x1668 JUMP JUMPDEST SWAP1 SWAP7 POP SWAP5 POP PUSH1 0x80 DUP12 ADD CALLDATALOAD SWAP2 POP DUP1 DUP3 GT ISZERO PUSH2 0x1790 JUMPI PUSH1 0x0 DUP1 REVERT JUMPDEST POP PUSH2 0x179D DUP12 DUP3 DUP13 ADD PUSH2 0x16B4 JUMP JUMPDEST SWAP10 SWAP13 SWAP9 SWAP12 POP SWAP7 SWAP10 POP SWAP5 SWAP8 SWAP4 SWAP7 SWAP3 SWAP6 SWAP5 POP POP POP JUMP JUMPDEST PUSH1 0x0 DUP1 PUSH1 0x0 PUSH1 0x60 DUP5 DUP7 SUB SLT ISZERO PUSH2 0x17C6 JUMPI PUSH1 0x0 DUP1 REVERT JUMPDEST PUSH2 0x17CF DUP5 PUSH2 0x1489 JUMP JUMPDEST SWAP6 PUSH1 0x20 DUP6 ADD CALLDATALOAD SWAP6 POP PUSH1 0x40 SWAP1 SWAP5 ADD CALLDATALOAD SWAP4 SWAP3 POP POP POP JUMP JUMPDEST PUSH1 0x0 DUP1 PUSH1 0x0 DUP1 PUSH1 0x40 DUP6 DUP8 SUB SLT ISZERO PUSH2 0x17FA JUMPI PUSH1 0x0 DUP1 REVERT JUMPDEST DUP5 CALLDATALOAD PUSH8 0xFFFFFFFFFFFFFFFF DUP1 DUP3 GT ISZERO PUSH2 0x1812 JUMPI PUSH1 0x0 DUP1 REVERT JUMPDEST PUSH2 0x181E DUP9 DUP4 DUP10 ADD PUSH2 0x1668 JUMP JUMPDEST SWAP1 SWAP7 POP SWAP5 POP PUSH1 0x20 DUP8 ADD CALLDATALOAD SWAP2 POP DUP1 DUP3 GT ISZERO PUSH2 0x1837 JUMPI PUSH1 0x0 DUP1 REVERT JUMPDEST POP PUSH2 0x1844 DUP8 DUP3 DUP9 ADD PUSH2 0x1668 JUMP JUMPDEST SWAP6 SWAP9 SWAP5 SWAP8 POP SWAP6 POP POP POP POP JUMP JUMPDEST PUSH1 0x20 DUP1 DUP3 MSTORE DUP3 MLOAD DUP3 DUP3 ADD DUP2 SWAP1 MSTORE PUSH1 0x0 SWAP2 SWAP1 DUP5 DUP3 ADD SWAP1 PUSH1 0x40 DUP6 ADD SWAP1 DUP5 JUMPDEST DUP2 DUP2 LT ISZERO PUSH2 0x1888 JUMPI DUP4 MLOAD DUP4 MSTORE SWAP3 DUP5 ADD SWAP3 SWAP2 DUP5 ADD SWAP2 PUSH1 0x1 ADD PUSH2 0x186C JUMP JUMPDEST POP SWAP1 SWAP7 SWAP6 POP POP POP POP POP POP JUMP JUMPDEST PUSH1 0x0 DUP1 PUSH1 0x40 DUP4 DUP6 SUB SLT ISZERO PUSH2 0x18A7 JUMPI PUSH1 0x0 DUP1 REVERT JUMPDEST PUSH2 0x18B0 DUP4 PUSH2 0x1489 JUMP JUMPDEST SWAP2 POP PUSH1 0x20 DUP4 ADD CALLDATALOAD DUP1 ISZERO ISZERO DUP2 EQ PUSH2 0x18C5 JUMPI PUSH1 0x0 DUP1 REVERT JUMPDEST DUP1 SWAP2 POP POP SWAP3 POP SWAP3 SWAP1 POP JUMP JUMPDEST PUSH1 0x0 DUP1 PUSH1 0x40 DUP4 DUP6 SUB SLT ISZERO PUSH2 0x18E3 JUMPI PUSH1 0x0 DUP1 REVERT JUMPDEST PUSH2 0x18EC DUP4 PUSH2 0x1489 JUMP JUMPDEST SWAP2 POP PUSH2 0x18FA PUSH1 0x20 DUP5 ADD PUSH2 0x1489 JUMP JUMPDEST SWAP1 POP SWAP3 POP SWAP3 SWAP1 POP JUMP JUMPDEST PUSH1 0x0 DUP1 PUSH1 0x0 DUP1 PUSH1 0x0 DUP1 PUSH1 0xA0 DUP8 DUP10 SUB SLT ISZERO PUSH2 0x191C JUMPI PUSH1 0x0 DUP1 REVERT JUMPDEST PUSH2 0x1925 DUP8 PUSH2 0x1489 JUMP JUMPDEST SWAP6 POP PUSH2 0x1933 PUSH1 0x20 DUP9 ADD PUSH2 0x1489 JUMP JUMPDEST SWAP5 POP PUSH1 0x40 DUP8 ADD CALLDATALOAD SWAP4 POP PUSH1 0x60 DUP8 ADD CALLDATALOAD SWAP3 POP PUSH1 0x80 DUP8 ADD CALLDATALOAD PUSH8 0xFFFFFFFFFFFFFFFF DUP2 GT ISZERO PUSH2 0x195D JUMPI PUSH1 0x0 DUP1 REVERT JUMPDEST PUSH2 0x1969 DUP10 DUP3 DUP11 ADD PUSH2 0x16B4 JUMP JUMPDEST SWAP8 SWAP11 SWAP7 SWAP10 POP SWAP5 SWAP8 POP SWAP3 SWAP6 SWAP4 SWAP5 SWAP3 POP POP POP JUMP JUMPDEST PUSH1 0x1 DUP2 DUP2 SHR SWAP1 DUP3 AND DUP1 PUSH2 0x198F JUMPI PUSH1 0x7F DUP3 AND SWAP2 POP JUMPDEST PUSH1 0x20 DUP3 LT DUP2 EQ ISZERO PUSH2 0x19B0 JUMPI PUSH4 0x4E487B71 PUSH1 0xE0 SHL PUSH1 0x0 MSTORE PUSH1 0x22 PUSH1 0x4 MSTORE PUSH1 0x24 PUSH1 0x0 REVERT JUMPDEST POP SWAP2 SWAP1 POP JUMP JUMPDEST PUSH1 0x20 DUP1 DUP3 MSTORE DUP2 DUP2 ADD MSTORE PUSH32 0x4F776E61626C653A2063616C6C6572206973206E6F7420746865206F776E6572 PUSH1 0x40 DUP3 ADD MSTORE PUSH1 0x60 ADD SWAP1 JUMP JUMPDEST PUSH4 0x4E487B71 PUSH1 0xE0 SHL PUSH1 0x0 MSTORE PUSH1 0x32 PUSH1 0x4 MSTORE PUSH1 0x24 PUSH1 0x0 REVERT JUMPDEST PUSH4 0x4E487B71 PUSH1 0xE0 SHL PUSH1 0x0 MSTORE PUSH1 0x11 PUSH1 0x4 MSTORE PUSH1 0x24 PUSH1 0x0 REVERT JUMPDEST PUSH1 0x0 DUP3 DUP3 LT ISZERO PUSH2 0x1A29 JUMPI PUSH2 0x1A29 PUSH2 0x1A01 JUMP JUMPDEST POP SUB SWAP1 JUMP JUMPDEST PUSH1 0x0 DUP3 NOT DUP3 GT ISZERO PUSH2 0x1A41 JUMPI PUSH2 0x1A41 PUSH2 0x1A01 JUMP JUMPDEST POP ADD SWAP1 JUMP JUMPDEST DUP2 DUP4 MSTORE PUSH1 0x0 PUSH1 0x1 PUSH1 0x1 PUSH1 0xFB SHL SUB DUP4 GT ISZERO PUSH2 0x1A5F JUMPI PUSH1 0x0 DUP1 REVERT JUMPDEST DUP3 PUSH1 0x5 SHL DUP1 DUP4 PUSH1 0x20 DUP8 ADD CALLDATACOPY PUSH1 0x0 SWAP5 ADD PUSH1 0x20 ADD SWAP4 DUP5 MSTORE POP SWAP2 SWAP3 SWAP2 POP POP JUMP JUMPDEST PUSH1 0x40 DUP2 MSTORE PUSH1 0x0 PUSH2 0x1A90 PUSH1 0x40 DUP4 ADD DUP7 DUP9 PUSH2 0x1A46 JUMP JUMPDEST DUP3 DUP2 SUB PUSH1 0x20 DUP5 ADD MSTORE PUSH2 0x1AA3 DUP2 DUP6 DUP8 PUSH2 0x1A46 JUMP JUMPDEST SWAP8 SWAP7 POP POP POP POP POP POP POP JUMP JUMPDEST DUP2 DUP4 MSTORE DUP2 DUP2 PUSH1 0x20 DUP6 ADD CALLDATACOPY POP PUSH1 0x0 DUP3 DUP3 ADD PUSH1 0x20 SWAP1 DUP2 ADD SWAP2 SWAP1 SWAP2 MSTORE PUSH1 0x1F SWAP1 SWAP2 ADD PUSH1 0x1F NOT AND SWAP1 SWAP2 ADD ADD SWAP1 JUMP JUMPDEST PUSH1 0x1 PUSH1 0x1 PUSH1 0xA0 SHL SUB DUP10 DUP2 AND DUP3 MSTORE DUP9 AND PUSH1 0x20 DUP3 ADD MSTORE PUSH1 0xA0 PUSH1 0x40 DUP3 ADD DUP2 SWAP1 MSTORE PUSH1 0x0 SWAP1 PUSH2 0x1B04 SWAP1 DUP4 ADD DUP9 DUP11 PUSH2 0x1A46 JUMP JUMPDEST DUP3 DUP2 SUB PUSH1 0x60 DUP5 ADD MSTORE PUSH2 0x1B17 DUP2 DUP8 DUP10 PUSH2 0x1A46 JUMP JUMPDEST SWAP1 POP DUP3 DUP2 SUB PUSH1 0x80 DUP5 ADD MSTORE PUSH2 0x1B2C DUP2 DUP6 DUP8 PUSH2 0x1AAE JUMP JUMPDEST SWAP12 SWAP11 POP POP POP POP POP POP POP POP POP POP POP JUMP JUMPDEST PUSH1 0x0 PUSH1 0x20 DUP3 DUP5 SUB SLT ISZERO PUSH2 0x1B4D JUMPI PUSH1 0x0 DUP1 REVERT JUMPDEST DUP2 MLOAD PUSH2 0x1502 DUP2 PUSH2 0x14CF JUMP JUMPDEST PUSH1 0x20 DUP1 DUP3 MSTORE PUSH1 0x10 SWAP1 DUP3 ADD MSTORE PUSH16 0x155394D0519157D49150D25412515395 PUSH1 0x82 SHL PUSH1 0x40 DUP3 ADD MSTORE PUSH1 0x60 ADD SWAP1 JUMP JUMPDEST PUSH1 0x1 PUSH1 0x1 PUSH1 0xA0 SHL SUB DUP8 DUP2 AND DUP3 MSTORE DUP7 AND PUSH1 0x20 DUP3 ADD MSTORE PUSH1 0x40 DUP2 ADD DUP6 SWAP1 MSTORE PUSH1 0x60 DUP2 ADD DUP5 SWAP1 MSTORE PUSH1 0xA0 PUSH1 0x80 DUP3 ADD DUP2 SWAP1 MSTORE PUSH1 0x0 SWAP1 PUSH2 0x1BBD SWAP1 DUP4 ADD DUP5 DUP7 PUSH2 0x1AAE JUMP JUMPDEST SWAP9 SWAP8 POP POP POP POP POP POP POP POP JUMP JUMPDEST PUSH1 0x1 PUSH1 0x1 PUSH1 0xA0 SHL SUB DUP7 DUP2 AND DUP3 MSTORE DUP6 AND PUSH1 0x20 DUP3 ADD MSTORE PUSH1 0x40 DUP2 ADD DUP5 SWAP1 MSTORE PUSH1 0x60 DUP2 ADD DUP4 SWAP1 MSTORE PUSH1 0xA0 PUSH1 0x80 DUP3 ADD DUP2 SWAP1 MSTORE PUSH1 0x0 SWAP1 PUSH2 0x1AA3 SWAP1 DUP4 ADD DUP5 PUSH2 0x1509 JUMP INVALID LOG2 PUSH5 0x6970667358 0x22 SLT KECCAK256 0x4A PUSH21 0xA2D2425E6CDF9F9E2A669314FAEFEDC3A0F2A644A PUSH14 0xC489B9CFB57A9F6C64736F6C6343 STOP ADDMOD SIGNEXTEND STOP CALLER PUSH10 0x7066733A2F2F516D5150 BASEFEE GASLIMIT PUSH9 0x6E6A7452476F326D68 PUSH22 0x475670556855717A70715A4D37373362616943527436 COINBASE MSIZE JUMP PUSH15 0x38796B697066733A2F2F516D634633 SSTORE PUSH19 0x575076796E3935515731427539325A6A365576 CHAINID GAS CODECOPY MSTORE8 0x4A SELFBALANCE SSTORE CODESIZE CHAINID PUSH14 0x7046584664366578654800000000 "
				},
				"gasEstimates": {
					"creation": {
						"codeDepositCost": "1445000",
						"executionCost": "infinite",
						"totalCost": "infinite"
					},
					"external": {
						"TestMintPassBlackMinted(address)": "2576",
						"TestMintPassBlueMinted(address)": "2553",
						"Test_Mint_Pass_Black()": "229",
						"Test_Mint_Pass_BlackMaxSupply()": "infinite",
						"Test_Mint_Pass_BlackScholarshipTotal()": "infinite",
						"Test_Mint_Pass_BlackTokenId()": "infinite",
						"Test_Mint_Pass_Blue()": "251",
						"Test_Mint_Pass_BlueMaxSupply()": "infinite",
						"Test_Mint_Pass_BlueScholarshipTotal()": "infinite",
						"Test_Mint_Pass_BlueTokenId()": "infinite",
						"balanceOf(address,uint256)": "2642",
						"balanceOfBatch(address[],uint256[])": "infinite",
						"isApprovedForAll(address,address)": "infinite",
						"mintScholarship(address)": "infinite",
						"name()": "infinite",
						"owner()": "2399",
						"ownerMint(address,uint256,uint256)": "infinite",
						"renounceOwnership()": "28228",
						"safeBatchTransferFrom(address,address,uint256[],uint256[],bytes)": "infinite",
						"safeTransferFrom(address,address,uint256,uint256,bytes)": "infinite",
						"setApprovalForAll(address,bool)": "26652",
						"setTokenURI(string,uint256)": "infinite",
						"setVault(address)": "26800",
						"supportsInterface(bytes4)": "590",
						"symbol()": "infinite",
						"tokenURI(uint256)": "infinite",
						"totalSupply(uint256)": "2516",
						"transferOwnership(address)": "28400",
						"uri(uint256)": "infinite",
						"vaultAddress()": "2449",
						"withdraw()": "infinite"
					}
				},
				"methodIdentifiers": {
					"TestMintPassBlackMinted(address)": "0b22f540",
					"TestMintPassBlueMinted(address)": "9fa3cda1",
					"Test_Mint_Pass_Black()": "cbf99084",
					"Test_Mint_Pass_BlackMaxSupply()": "f48deaaa",
					"Test_Mint_Pass_BlackScholarshipTotal()": "dec125ba",
					"Test_Mint_Pass_BlackTokenId()": "9e3cf643",
					"Test_Mint_Pass_Blue()": "cc2851c6",
					"Test_Mint_Pass_BlueMaxSupply()": "45114990",
					"Test_Mint_Pass_BlueScholarshipTotal()": "df52fa84",
					"Test_Mint_Pass_BlueTokenId()": "71d05aec",
					"balanceOf(address,uint256)": "00fdd58e",
					"balanceOfBatch(address[],uint256[])": "4e1273f4",
					"isApprovedForAll(address,address)": "e985e9c5",
					"mintScholarship(address)": "16473cf7",
					"name()": "06fdde03",
					"owner()": "8da5cb5b",
					"ownerMint(address,uint256,uint256)": "388b9fe0",
					"renounceOwnership()": "715018a6",
					"safeBatchTransferFrom(address,address,uint256[],uint256[],bytes)": "2eb2c2d6",
					"safeTransferFrom(address,address,uint256,uint256,bytes)": "f242432a",
					"setApprovalForAll(address,bool)": "a22cb465",
					"setTokenURI(string,uint256)": "09a3beef",
					"setVault(address)": "6817031b",
					"supportsInterface(bytes4)": "01ffc9a7",
					"symbol()": "95d89b41",
					"tokenURI(uint256)": "c87b56dd",
					"totalSupply(uint256)": "bd85b039",
					"transferOwnership(address)": "f2fde38b",
					"uri(uint256)": "0e89341c",
					"vaultAddress()": "430bf08a",
					"withdraw()": "3ccfd60b"
				}
			},
			"storageLayout": {
				"storage": [
					{
						"astId": 816,
						"contract": "contracts/Test Mint Pass v12A.sol:TestMintPassv12A",
						"label": "balanceOf",
						"offset": 0,
						"slot": "0",
						"type": "t_mapping(t_address,t_mapping(t_uint256,t_uint256))"
					},
					{
						"astId": 822,
						"contract": "contracts/Test Mint Pass v12A.sol:TestMintPassv12A",
						"label": "isApprovedForAll",
						"offset": 0,
						"slot": "1",
						"type": "t_mapping(t_address,t_mapping(t_address,t_bool))"
					},
					{
						"astId": 1842,
						"contract": "contracts/Test Mint Pass v12A.sol:TestMintPassv12A",
						"label": "_owner",
						"offset": 0,
						"slot": "2",
						"type": "t_address"
					},
					{
						"astId": 2049,
						"contract": "contracts/Test Mint Pass v12A.sol:TestMintPassv12A",
						"label": "name",
						"offset": 0,
						"slot": "3",
						"type": "t_string_storage"
					},
					{
						"astId": 2051,
						"contract": "contracts/Test Mint Pass v12A.sol:TestMintPassv12A",
						"label": "symbol",
						"offset": 0,
						"slot": "4",
						"type": "t_string_storage"
					},
					{
						"astId": 2053,
						"contract": "contracts/Test Mint Pass v12A.sol:TestMintPassv12A",
						"label": "vaultAddress",
						"offset": 0,
						"slot": "5",
						"type": "t_address"
					},
					{
						"astId": 2081,
						"contract": "contracts/Test Mint Pass v12A.sol:TestMintPassv12A",
						"label": "_totalSupply",
						"offset": 0,
						"slot": "6",
						"type": "t_mapping(t_uint256,t_uint256)"
					},
					{
						"astId": 2085,
						"contract": "contracts/Test Mint Pass v12A.sol:TestMintPassv12A",
						"label": "tokenURI",
						"offset": 0,
						"slot": "7",
						"type": "t_mapping(t_uint256,t_string_storage)"
					},
					{
						"astId": 2089,
						"contract": "contracts/Test Mint Pass v12A.sol:TestMintPassv12A",
						"label": "TestMintPassBlueMinted",
						"offset": 0,
						"slot": "8",
						"type": "t_mapping(t_address,t_uint256)"
					},
					{
						"astId": 2093,
						"contract": "contracts/Test Mint Pass v12A.sol:TestMintPassv12A",
						"label": "TestMintPassBlackMinted",
						"offset": 0,
						"slot": "9",
						"type": "t_mapping(t_address,t_uint256)"
					}
				],
				"types": {
					"t_address": {
						"encoding": "inplace",
						"label": "address",
						"numberOfBytes": "20"
					},
					"t_bool": {
						"encoding": "inplace",
						"label": "bool",
						"numberOfBytes": "1"
					},
					"t_mapping(t_address,t_bool)": {
						"encoding": "mapping",
						"key": "t_address",
						"label": "mapping(address => bool)",
						"numberOfBytes": "32",
						"value": "t_bool"
					},
					"t_mapping(t_address,t_mapping(t_address,t_bool))": {
						"encoding": "mapping",
						"key": "t_address",
						"label": "mapping(address => mapping(address => bool))",
						"numberOfBytes": "32",
						"value": "t_mapping(t_address,t_bool)"
					},
					"t_mapping(t_address,t_mapping(t_uint256,t_uint256))": {
						"encoding": "mapping",
						"key": "t_address",
						"label": "mapping(address => mapping(uint256 => uint256))",
						"numberOfBytes": "32",
						"value": "t_mapping(t_uint256,t_uint256)"
					},
					"t_mapping(t_address,t_uint256)": {
						"encoding": "mapping",
						"key": "t_address",
						"label": "mapping(address => uint256)",
						"numberOfBytes": "32",
						"value": "t_uint256"
					},
					"t_mapping(t_uint256,t_string_storage)": {
						"encoding": "mapping",
						"key": "t_uint256",
						"label": "mapping(uint256 => string)",
						"numberOfBytes": "32",
						"value": "t_string_storage"
					},
					"t_mapping(t_uint256,t_uint256)": {
						"encoding": "mapping",
						"key": "t_uint256",
						"label": "mapping(uint256 => uint256)",
						"numberOfBytes": "32",
						"value": "t_uint256"
					},
					"t_string_storage": {
						"encoding": "bytes",
						"label": "string",
						"numberOfBytes": "32"
					},
					"t_uint256": {
						"encoding": "inplace",
						"label": "uint256",
						"numberOfBytes": "32"
					}
				}
			},
			"userdoc": {
				"kind": "user",
				"methods": {
					"mintScholarship(address)": {
						"notice": "function for owner to mint (LC)"
					},
					"ownerMint(address,uint256,uint256)": {
						"notice": "function for owner to mint the token, just in case it's needed, mintScholarship() will be used to mint all the scholarships"
					},
					"setTokenURI(string,uint256)": {
						"notice": "function to change the tokenURI"
					},
					"setVault(address)": {
						"notice": "changing vault address"
					},
					"totalSupply(uint256)": {
						"notice": "totalSupply of a token ID"
					},
					"uri(uint256)": {
						"notice": "returns the token URI"
					},
					"withdraw()": {
						"notice": "Withdraw all ETH from the contract to the vault address."
					}
				},
				"version": 1
			}
		}
	}
}