{
	"contracts/Test Mint Pass v12A.sol": {
		"TestMintPassv12A": {
			"abi": [
				{
					"inputs": [
						{
							"internalType": "string",
							"name": "_name",
							"type": "string"
						},
						{
							"internalType": "string",
							"name": "_symbol",
							"type": "string"
						},
						{
							"internalType": "address",
							"name": "_vaultAddress",
							"type": "address"
						},
						{
							"internalType": "string",
							"name": "_TestMintPassBlackTokenUri",
							"type": "string"
						},
						{
							"internalType": "string",
							"name": "_TestMintPassBlueTokenUri",
							"type": "string"
						}
					],
					"stateMutability": "nonpayable",
					"type": "constructor"
				},
				{
					"inputs": [],
					"name": "NoEthBalance",
					"type": "error"
				},
				{
					"anonymous": false,
					"inputs": [
						{
							"indexed": true,
							"internalType": "address",
							"name": "owner",
							"type": "address"
						},
						{
							"indexed": true,
							"internalType": "address",
							"name": "operator",
							"type": "address"
						},
						{
							"indexed": false,
							"internalType": "bool",
							"name": "approved",
							"type": "bool"
						}
					],
					"name": "ApprovalForAll",
					"type": "event"
				},
				{
					"anonymous": false,
					"inputs": [
						{
							"indexed": true,
							"internalType": "address",
							"name": "previousOwner",
							"type": "address"
						},
						{
							"indexed": true,
							"internalType": "address",
							"name": "newOwner",
							"type": "address"
						}
					],
					"name": "OwnershipTransferred",
					"type": "event"
				},
				{
					"anonymous": false,
					"inputs": [
						{
							"indexed": true,
							"internalType": "address",
							"name": "operator",
							"type": "address"
						},
						{
							"indexed": true,
							"internalType": "address",
							"name": "from",
							"type": "address"
						},
						{
							"indexed": true,
							"internalType": "address",
							"name": "to",
							"type": "address"
						},
						{
							"indexed": false,
							"internalType": "uint256[]",
							"name": "ids",
							"type": "uint256[]"
						},
						{
							"indexed": false,
							"internalType": "uint256[]",
							"name": "amounts",
							"type": "uint256[]"
						}
					],
					"name": "TransferBatch",
					"type": "event"
				},
				{
					"anonymous": false,
					"inputs": [
						{
							"indexed": true,
							"internalType": "address",
							"name": "operator",
							"type": "address"
						},
						{
							"indexed": true,
							"internalType": "address",
							"name": "from",
							"type": "address"
						},
						{
							"indexed": true,
							"internalType": "address",
							"name": "to",
							"type": "address"
						},
						{
							"indexed": false,
							"internalType": "uint256",
							"name": "id",
							"type": "uint256"
						},
						{
							"indexed": false,
							"internalType": "uint256",
							"name": "amount",
							"type": "uint256"
						}
					],
					"name": "TransferSingle",
					"type": "event"
				},
				{
					"anonymous": false,
					"inputs": [
						{
							"indexed": false,
							"internalType": "string",
							"name": "value",
							"type": "string"
						},
						{
							"indexed": true,
							"internalType": "uint256",
							"name": "id",
							"type": "uint256"
						}
					],
					"name": "URI",
					"type": "event"
				},
				{
					"inputs": [],
					"name": "MINTER_ROLE",
					"outputs": [
						{
							"internalType": "bytes32",
							"name": "",
							"type": "bytes32"
						}
					],
					"stateMutability": "view",
					"type": "function"
				},
				{
					"inputs": [],
					"name": "PAUSER_ROLE",
					"outputs": [
						{
							"internalType": "bytes32",
							"name": "",
							"type": "bytes32"
						}
					],
					"stateMutability": "view",
					"type": "function"
				},
				{
					"inputs": [],
					"name": "TEST_MINT_PASS_BLACK",
					"outputs": [
						{
							"internalType": "uint256",
							"name": "",
							"type": "uint256"
						}
					],
					"stateMutability": "view",
					"type": "function"
				},
				{
					"inputs": [],
					"name": "TEST_MINT_PASS_BLACKMaxSupply",
					"outputs": [
						{
							"internalType": "uint256",
							"name": "",
							"type": "uint256"
						}
					],
					"stateMutability": "view",
					"type": "function"
				},
				{
					"inputs": [],
					"name": "TEST_MINT_PASS_BLACKScholarshipTotal",
					"outputs": [
						{
							"internalType": "uint256",
							"name": "",
							"type": "uint256"
						}
					],
					"stateMutability": "view",
					"type": "function"
				},
				{
					"inputs": [],
					"name": "TEST_MINT_PASS_BLACKTokenId",
					"outputs": [
						{
							"internalType": "uint256",
							"name": "",
							"type": "uint256"
						}
					],
					"stateMutability": "view",
					"type": "function"
				},
				{
					"inputs": [],
					"name": "TEST_MINT_PASS_BLUE",
					"outputs": [
						{
							"internalType": "uint256",
							"name": "",
							"type": "uint256"
						}
					],
					"stateMutability": "view",
					"type": "function"
				},
				{
					"inputs": [],
					"name": "TEST_MINT_PASS_BLUEMaxSupply",
					"outputs": [
						{
							"internalType": "uint256",
							"name": "",
							"type": "uint256"
						}
					],
					"stateMutability": "view",
					"type": "function"
				},
				{
					"inputs": [],
					"name": "TEST_MINT_PASS_BLUEScholarshipTotal",
					"outputs": [
						{
							"internalType": "uint256",
							"name": "",
							"type": "uint256"
						}
					],
					"stateMutability": "view",
					"type": "function"
				},
				{
					"inputs": [],
					"name": "TEST_MINT_PASS_BLUETokenId",
					"outputs": [
						{
							"internalType": "uint256",
							"name": "",
							"type": "uint256"
						}
					],
					"stateMutability": "view",
					"type": "function"
				},
				{
					"inputs": [
						{
							"internalType": "address",
							"name": "",
							"type": "address"
						}
					],
					"name": "TestMintPassBlackMinted",
					"outputs": [
						{
							"internalType": "uint256",
							"name": "",
							"type": "uint256"
						}
					],
					"stateMutability": "view",
					"type": "function"
				},
				{
					"inputs": [
						{
							"internalType": "address",
							"name": "",
							"type": "address"
						}
					],
					"name": "TestMintPassBlueMinted",
					"outputs": [
						{
							"internalType": "uint256",
							"name": "",
							"type": "uint256"
						}
					],
					"stateMutability": "view",
					"type": "function"
				},
				{
					"inputs": [],
					"name": "URI_SETTER_ROLE",
					"outputs": [
						{
							"internalType": "bytes32",
							"name": "",
							"type": "bytes32"
						}
					],
					"stateMutability": "view",
					"type": "function"
				},
				{
					"inputs": [
						{
							"internalType": "address",
							"name": "",
							"type": "address"
						},
						{
							"internalType": "uint256",
							"name": "",
							"type": "uint256"
						}
					],
					"name": "balanceOf",
					"outputs": [
						{
							"internalType": "uint256",
							"name": "",
							"type": "uint256"
						}
					],
					"stateMutability": "view",
					"type": "function"
				},
				{
					"inputs": [
						{
							"internalType": "address[]",
							"name": "owners",
							"type": "address[]"
						},
						{
							"internalType": "uint256[]",
							"name": "ids",
							"type": "uint256[]"
						}
					],
					"name": "balanceOfBatch",
					"outputs": [
						{
							"internalType": "uint256[]",
							"name": "balances",
							"type": "uint256[]"
						}
					],
					"stateMutability": "view",
					"type": "function"
				},
				{
					"inputs": [
						{
							"internalType": "address",
							"name": "",
							"type": "address"
						},
						{
							"internalType": "address",
							"name": "",
							"type": "address"
						}
					],
					"name": "isApprovedForAll",
					"outputs": [
						{
							"internalType": "bool",
							"name": "",
							"type": "bool"
						}
					],
					"stateMutability": "view",
					"type": "function"
				},
				{
					"inputs": [
						{
							"internalType": "address",
							"name": "to",
							"type": "address"
						}
					],
					"name": "mintScholarship",
					"outputs": [],
					"stateMutability": "nonpayable",
					"type": "function"
				},
				{
					"inputs": [],
					"name": "name",
					"outputs": [
						{
							"internalType": "string",
							"name": "",
							"type": "string"
						}
					],
					"stateMutability": "view",
					"type": "function"
				},
				{
					"inputs": [],
					"name": "owner",
					"outputs": [
						{
							"internalType": "address",
							"name": "",
							"type": "address"
						}
					],
					"stateMutability": "view",
					"type": "function"
				},
				{
					"inputs": [
						{
							"internalType": "address",
							"name": "to",
							"type": "address"
						},
						{
							"internalType": "uint256",
							"name": "amount",
							"type": "uint256"
						},
						{
							"internalType": "uint256",
							"name": "tokenId",
							"type": "uint256"
						}
					],
					"name": "ownerMint",
					"outputs": [],
					"stateMutability": "nonpayable",
					"type": "function"
				},
				{
					"inputs": [],
					"name": "renounceOwnership",
					"outputs": [],
					"stateMutability": "nonpayable",
					"type": "function"
				},
				{
					"inputs": [
						{
							"internalType": "address",
							"name": "from",
							"type": "address"
						},
						{
							"internalType": "address",
							"name": "to",
							"type": "address"
						},
						{
							"internalType": "uint256[]",
							"name": "ids",
							"type": "uint256[]"
						},
						{
							"internalType": "uint256[]",
							"name": "amounts",
							"type": "uint256[]"
						},
						{
							"internalType": "bytes",
							"name": "data",
							"type": "bytes"
						}
					],
					"name": "safeBatchTransferFrom",
					"outputs": [],
					"stateMutability": "nonpayable",
					"type": "function"
				},
				{
					"inputs": [
						{
							"internalType": "address",
							"name": "from",
							"type": "address"
						},
						{
							"internalType": "address",
							"name": "to",
							"type": "address"
						},
						{
							"internalType": "uint256",
							"name": "id",
							"type": "uint256"
						},
						{
							"internalType": "uint256",
							"name": "amount",
							"type": "uint256"
						},
						{
							"internalType": "bytes",
							"name": "data",
							"type": "bytes"
						}
					],
					"name": "safeTransferFrom",
					"outputs": [],
					"stateMutability": "nonpayable",
					"type": "function"
				},
				{
					"inputs": [
						{
							"internalType": "address",
							"name": "operator",
							"type": "address"
						},
						{
							"internalType": "bool",
							"name": "approved",
							"type": "bool"
						}
					],
					"name": "setApprovalForAll",
					"outputs": [],
					"stateMutability": "nonpayable",
					"type": "function"
				},
				{
					"inputs": [
						{
							"internalType": "string",
							"name": "_newTokenURI",
							"type": "string"
						},
						{
							"internalType": "uint256",
							"name": "tokenId",
							"type": "uint256"
						}
					],
					"name": "setTokenURI",
					"outputs": [],
					"stateMutability": "nonpayable",
					"type": "function"
				},
				{
					"inputs": [
						{
							"internalType": "address",
							"name": "_vaultAddress",
							"type": "address"
						}
					],
					"name": "setVault",
					"outputs": [],
					"stateMutability": "nonpayable",
					"type": "function"
				},
				{
					"inputs": [
						{
							"internalType": "bytes4",
							"name": "interfaceId",
							"type": "bytes4"
						}
					],
					"name": "supportsInterface",
					"outputs": [
						{
							"internalType": "bool",
							"name": "",
							"type": "bool"
						}
					],
					"stateMutability": "view",
					"type": "function"
				},
				{
					"inputs": [],
					"name": "symbol",
					"outputs": [
						{
							"internalType": "string",
							"name": "",
							"type": "string"
						}
					],
					"stateMutability": "view",
					"type": "function"
				},
				{
					"inputs": [
						{
							"internalType": "uint256",
							"name": "",
							"type": "uint256"
						}
					],
					"name": "tokenURI",
					"outputs": [
						{
							"internalType": "string",
							"name": "",
							"type": "string"
						}
					],
					"stateMutability": "view",
					"type": "function"
				},
				{
					"inputs": [
						{
							"internalType": "uint256",
							"name": "id",
							"type": "uint256"
						}
					],
					"name": "totalSupply",
					"outputs": [
						{
							"internalType": "uint256",
							"name": "",
							"type": "uint256"
						}
					],
					"stateMutability": "view",
					"type": "function"
				},
				{
					"inputs": [
						{
							"internalType": "address",
							"name": "newOwner",
							"type": "address"
						}
					],
					"name": "transferOwnership",
					"outputs": [],
					"stateMutability": "nonpayable",
					"type": "function"
				},
				{
					"inputs": [
						{
							"internalType": "uint256",
							"name": "tokenId",
							"type": "uint256"
						}
					],
					"name": "uri",
					"outputs": [
						{
							"internalType": "string",
							"name": "",
							"type": "string"
						}
					],
					"stateMutability": "view",
					"type": "function"
				},
				{
					"inputs": [],
					"name": "vaultAddress",
					"outputs": [
						{
							"internalType": "address",
							"name": "",
							"type": "address"
						}
					],
					"stateMutability": "view",
					"type": "function"
				},
				{
					"inputs": [],
					"name": "withdraw",
					"outputs": [],
					"stateMutability": "nonpayable",
					"type": "function"
				}
			],
			"devdoc": {
				"kind": "dev",
				"methods": {
					"mintScholarship(address)": {
						"params": {
							"to": "address to mint it to."
						}
					},
					"owner()": {
						"details": "Returns the address of the current owner."
					},
					"ownerMint(address,uint256,uint256)": {
						"params": {
							"amount": "the amount that the owner wants to mint.",
							"to": "address to mint it to.",
							"tokenId": "which token ID 1 for black 2 for general"
						}
					},
					"renounceOwnership()": {
						"details": "Leaves the contract without owner. It will not be possible to call `onlyOwner` functions anymore. Can only be called by the current owner. NOTE: Renouncing ownership will leave the contract without an owner, thereby removing any functionality that is only available to the owner."
					},
					"setTokenURI(string,uint256)": {
						"params": {
							"_newTokenURI": "this is the new token uri",
							"tokenId": "this is the token ID that will be set"
						}
					},
					"setVault(address)": {
						"params": {
							"_vaultAddress": "is the new vaultAddress"
						}
					},
					"totalSupply(uint256)": {
						"params": {
							"id": "is the ID, either generalTokenId or blackTokenId"
						}
					},
					"transferOwnership(address)": {
						"details": "Transfers ownership of the contract to a new account (`newOwner`). Can only be called by the current owner."
					},
					"uri(uint256)": {
						"params": {
							"tokenId": "which token ID to return 1 or 2."
						}
					}
				},
				"title": "TestMintPassv12A",
				"version": 1
			},
			"evm": {
				"assembly": "    /* \"contracts/Test Mint Pass v12A.sol\":869:6868  contract TestMintPassv12A is ERC1155, Ownable {... */\n  mstore(0x40, 0x0140)\n    /* \"contracts/Test Mint Pass v12A.sol\":1635:1638  166 */\n  0xa6\n    /* \"contracts/Test Mint Pass v12A.sol\":1578:1638  uint256 public immutable TEST_MINT_PASS_BLACKMaxSupply = 166 */\n  0x80\n  swap1\n  dup2\n  mstore\n  pop\n    /* \"contracts/Test Mint Pass v12A.sol\":1700:1703  330 */\n  0x014a\n    /* \"contracts/Test Mint Pass v12A.sol\":1644:1703  uint256 public immutable TEST_MINT_PASS_BLUEMaxSupply = 330 */\n  0xa0\n  swap1\n  dup2\n  mstore\n  pop\n    /* \"contracts/Test Mint Pass v12A.sol\":1773:1775  17 */\n  0x11\n    /* \"contracts/Test Mint Pass v12A.sol\":1709:1775  uint256 public immutable TEST_MINT_PASS_BLACKScholarshipTotal = 17 */\n  0xc0\n  swap1\n  dup2\n  mstore\n  pop\n    /* \"contracts/Test Mint Pass v12A.sol\":1844:1846  33 */\n  0x21\n    /* \"contracts/Test Mint Pass v12A.sol\":1781:1846  uint256 public immutable TEST_MINT_PASS_BLUEScholarshipTotal = 33 */\n  0xe0\n  swap1\n  dup2\n  mstore\n  pop\n    /* \"contracts/Test Mint Pass v12A.sol\":1908:1909  1 */\n  0x01\n    /* \"contracts/Test Mint Pass v12A.sol\":1853:1909  uint256 public immutable TEST_MINT_PASS_BLACKTokenId = 1 */\n  0x0100\n  swap1\n  dup2\n  mstore\n  pop\n    /* \"contracts/Test Mint Pass v12A.sol\":1969:1970  2 */\n  0x02\n    /* \"contracts/Test Mint Pass v12A.sol\":1915:1970  uint256 public immutable TEST_MINT_PASS_BLUETokenId = 2 */\n  0x0120\n  swap1\n  dup2\n  mstore\n  pop\n    /* \"contracts/Test Mint Pass v12A.sol\":2668:3597  constructor(... */\n  callvalue\n  dup1\n  iszero\n  tag_1\n  jumpi\n  0x00\n  dup1\n  revert\ntag_1:\n  pop\n  mload(0x40)\n  sub(codesize, bytecodeSize)\n  dup1\n  bytecodeSize\n  dup4\n  codecopy\n  dup2\n  dup2\n  add\n  0x40\n  mstore\n  dup2\n  add\n  swap1\n  tag_2\n  swap2\n  swap1\n  tag_3\n  jump\t// in\ntag_2:\n    /* \"contracts/Ownable.sol\":942:974  _transferOwnership(_msgSender()) */\n  tag_7\n    /* \"contracts/Ownable.sol\":961:973  _msgSender() */\n  tag_8\n    /* \"contracts/Ownable.sol\":961:971  _msgSender */\n  shl(0x20, tag_9)\n    /* \"contracts/Ownable.sol\":961:973  _msgSender() */\n  0x20\n  shr\n  jump\t// in\ntag_8:\n    /* \"contracts/Ownable.sol\":942:960  _transferOwnership */\n  shl(0x20, tag_10)\n    /* \"contracts/Ownable.sol\":942:974  _transferOwnership(_msgSender()) */\n  0x20\n  shr\n  jump\t// in\ntag_7:\n    /* \"contracts/Test Mint Pass v12A.sol\":2886:2915  _name = \"Test Mint Pass v10I\" */\n  mload(0x40)\n  dup1\n  0x40\n  add\n  0x40\n  mstore\n  dup1\n  0x13\n  dup2\n  mstore\n  0x20\n  add\n  0x54657374204d696e742050617373207631304900000000000000000000000000\n  dup2\n  mstore\n  pop\n  swap5\n  pop\n    /* \"contracts/Test Mint Pass v12A.sol\":2925:2952  _symbol = \"&#10047;TMPV10I\" */\n  mload(0x40)\n  dup1\n  0x40\n  add\n  0x40\n  mstore\n  dup1\n  0x0f\n  dup2\n  mstore\n  0x20\n  add\n  0x262331303034373b544d50563130490000000000000000000000000000000000\n  dup2\n  mstore\n  pop\n  swap4\n  pop\n    /* \"contracts/Test Mint Pass v12A.sol\":3102:3205  _mint(msg.sender, TEST_MINT_PASS_BLACK, 1, \"ipfs://QmSBVG6bxAbnPpG7FKW6bu7ULHFHE9vJM9G7eUcYMmtJnz.png\") */\n  tag_12\n    /* \"contracts/Test Mint Pass v12A.sol\":3108:3118  msg.sender */\n  caller\n    /* \"contracts/Test Mint Pass v12A.sol\":2023:2024  1 */\n  0x01\n    /* \"contracts/Test Mint Pass v12A.sol\":3142:3143  1 */\n  dup1\n    /* \"contracts/Test Mint Pass v12A.sol\":3102:3205  _mint(msg.sender, TEST_MINT_PASS_BLACK, 1, \"ipfs://QmSBVG6bxAbnPpG7FKW6bu7ULHFHE9vJM9G7eUcYMmtJnz.png\") */\n  mload(0x40)\n  dup1\n  0x60\n  add\n  0x40\n  mstore\n  dup1\n  0x39\n  dup2\n  mstore\n  0x20\n  add\n  data_9b2a84cc690791bd41a97973f2b4d21ee621e26229fb8185cad5b0d6dc50203c\n  0x39\n  swap2\n  codecopy\n    /* \"contracts/Test Mint Pass v12A.sol\":3102:3107  _mint */\n  shl(0x20, tag_13)\n    /* \"contracts/Test Mint Pass v12A.sol\":3102:3205  _mint(msg.sender, TEST_MINT_PASS_BLACK, 1, \"ipfs://QmSBVG6bxAbnPpG7FKW6bu7ULHFHE9vJM9G7eUcYMmtJnz.png\") */\n  0x20\n  shr\n  jump\t// in\ntag_12:\n    /* \"contracts/Test Mint Pass v12A.sol\":3215:3313  _mint(msg.sender, TEST_MINT_PASS_BLUE, 2, \"ipfs://QmRmLcK7maEU5Uxw4rPvywVwioDZj3PVYhMwUEC5cLtLsN\") */\n  tag_14\n    /* \"contracts/Test Mint Pass v12A.sol\":3221:3231  msg.sender */\n  caller\n    /* \"contracts/Test Mint Pass v12A.sol\":2076:2077  2 */\n  0x02\n    /* \"contracts/Test Mint Pass v12A.sol\":3254:3255  2 */\n  dup1\n    /* \"contracts/Test Mint Pass v12A.sol\":3215:3313  _mint(msg.sender, TEST_MINT_PASS_BLUE, 2, \"ipfs://QmRmLcK7maEU5Uxw4rPvywVwioDZj3PVYhMwUEC5cLtLsN\") */\n  mload(0x40)\n  dup1\n  0x60\n  add\n  0x40\n  mstore\n  dup1\n  0x35\n  dup2\n  mstore\n  0x20\n  add\n  data_b50854baa3414e38b8fbd26c16643d27c284249af37f951d8232271e21dbb551\n  0x35\n  swap2\n  codecopy\n    /* \"contracts/Test Mint Pass v12A.sol\":3215:3220  _mint */\n  shl(0x20, tag_13)\n    /* \"contracts/Test Mint Pass v12A.sol\":3215:3313  _mint(msg.sender, TEST_MINT_PASS_BLUE, 2, \"ipfs://QmRmLcK7maEU5Uxw4rPvywVwioDZj3PVYhMwUEC5cLtLsN\") */\n  0x20\n  shr\n  jump\t// in\ntag_14:\n    /* \"contracts/Test Mint Pass v12A.sol\":3339:3381  0x4E322A20eD891fF77De2F774d2824F55B7152C73 */\n  0x4e322a20ed891ff77de2f774d2824f55b7152c73\n    /* \"contracts/Test Mint Pass v12A.sol\":3323:3381  _vaultAddress = 0x4E322A20eD891fF77De2F774d2824F55B7152C73 */\n  swap3\n  pop\n    /* \"contracts/Test Mint Pass v12A.sol\":3391:3485  tokenURI[TEST_MINT_PASS_BLUETokenId] = \"ipfs://QmYNCpsDncHEqqC7MrV5oceM6oVW3mjDKms2FvrgtcCtSd\" */\n  mload(0x40)\n  dup1\n  0x60\n  add\n  0x40\n  mstore\n  dup1\n  0x35\n  dup2\n  mstore\n  0x20\n  add\n  data_1958797ec7b9a91e8c1b9e545c336ef6d4476c0e925fc3ce9c248910079db3eb\n  0x35\n  swap2\n  codecopy\n    /* \"contracts/Test Mint Pass v12A.sol\":3391:3399  tokenURI */\n  0x07\n    /* \"contracts/Test Mint Pass v12A.sol\":3391:3427  tokenURI[TEST_MINT_PASS_BLUETokenId] */\n  0x00\n    /* \"contracts/Test Mint Pass v12A.sol\":3400:3426  TEST_MINT_PASS_BLUETokenId */\n  mload(0x0120)\n    /* \"contracts/Test Mint Pass v12A.sol\":3391:3427  tokenURI[TEST_MINT_PASS_BLUETokenId] */\n  dup2\n  mstore\n  0x20\n  add\n  swap1\n  dup2\n  mstore\n  0x20\n  add\n  0x00\n  keccak256\n    /* \"contracts/Test Mint Pass v12A.sol\":3391:3485  tokenURI[TEST_MINT_PASS_BLUETokenId] = \"ipfs://QmYNCpsDncHEqqC7MrV5oceM6oVW3mjDKms2FvrgtcCtSd\" */\n  swap1\n  dup1\n  mload\n  swap1\n  0x20\n  add\n  swap1\n  tag_15\n  swap3\n  swap2\n  swap1\n  tag_16\n  jump\t// in\ntag_15:\n  pop\n    /* \"contracts/Test Mint Pass v12A.sol\":3495:3590  tokenURI[TEST_MINT_PASS_BLACKTokenId] = \"ipfs://QmYNCpsDncHEqqC7MrV5oceM6oVW3mjDKms2FvrgtcCtSd\" */\n  mload(0x40)\n  dup1\n  0x60\n  add\n  0x40\n  mstore\n  dup1\n  0x35\n  dup2\n  mstore\n  0x20\n  add\n  data_1958797ec7b9a91e8c1b9e545c336ef6d4476c0e925fc3ce9c248910079db3eb\n  0x35\n  swap2\n  codecopy\n    /* \"contracts/Test Mint Pass v12A.sol\":3495:3503  tokenURI */\n  0x07\n    /* \"contracts/Test Mint Pass v12A.sol\":3495:3532  tokenURI[TEST_MINT_PASS_BLACKTokenId] */\n  0x00\n    /* \"contracts/Test Mint Pass v12A.sol\":3504:3531  TEST_MINT_PASS_BLACKTokenId */\n  mload(0x0100)\n    /* \"contracts/Test Mint Pass v12A.sol\":3495:3532  tokenURI[TEST_MINT_PASS_BLACKTokenId] */\n  dup2\n  mstore\n  0x20\n  add\n  swap1\n  dup2\n  mstore\n  0x20\n  add\n  0x00\n  keccak256\n    /* \"contracts/Test Mint Pass v12A.sol\":3495:3590  tokenURI[TEST_MINT_PASS_BLACKTokenId] = \"ipfs://QmYNCpsDncHEqqC7MrV5oceM6oVW3mjDKms2FvrgtcCtSd\" */\n  swap1\n  dup1\n  mload\n  swap1\n  0x20\n  add\n  swap1\n  tag_17\n  swap3\n  swap2\n  swap1\n  tag_16\n  jump\t// in\ntag_17:\n  pop\n    /* \"contracts/Test Mint Pass v12A.sol\":2668:3597  constructor(... */\n  pop\n  pop\n  pop\n  pop\n  pop\n    /* \"contracts/Test Mint Pass v12A.sol\":869:6868  contract TestMintPassv12A is ERC1155, Ownable {... */\n  jump(tag_18)\n    /* \"@openzeppelin/contracts/utils/Context.sol\":640:736  function _msgSender() internal view virtual returns (address) {... */\ntag_9:\n    /* \"@openzeppelin/contracts/utils/Context.sol\":693:700  address */\n  0x00\n    /* \"@openzeppelin/contracts/utils/Context.sol\":719:729  msg.sender */\n  caller\n    /* \"@openzeppelin/contracts/utils/Context.sol\":712:729  return msg.sender */\n  swap1\n  pop\n    /* \"@openzeppelin/contracts/utils/Context.sol\":640:736  function _msgSender() internal view virtual returns (address) {... */\n  swap1\n  jump\t// out\n    /* \"contracts/Ownable.sol\":2291:2478  function _transferOwnership(address newOwner) internal virtual {... */\ntag_10:\n    /* \"contracts/Ownable.sol\":2364:2380  address oldOwner */\n  0x00\n    /* \"contracts/Ownable.sol\":2383:2389  _owner */\n  0x02\n  0x00\n  swap1\n  sload\n  swap1\n  0x0100\n  exp\n  swap1\n  div\n  0xffffffffffffffffffffffffffffffffffffffff\n  and\n    /* \"contracts/Ownable.sol\":2364:2389  address oldOwner = _owner */\n  swap1\n  pop\n    /* \"contracts/Ownable.sol\":2408:2416  newOwner */\n  dup2\n    /* \"contracts/Ownable.sol\":2399:2405  _owner */\n  0x02\n  0x00\n    /* \"contracts/Ownable.sol\":2399:2416  _owner = newOwner */\n  0x0100\n  exp\n  dup2\n  sload\n  dup2\n  0xffffffffffffffffffffffffffffffffffffffff\n  mul\n  not\n  and\n  swap1\n  dup4\n  0xffffffffffffffffffffffffffffffffffffffff\n  and\n  mul\n  or\n  swap1\n  sstore\n  pop\n    /* \"contracts/Ownable.sol\":2462:2470  newOwner */\n  dup2\n    /* \"contracts/Ownable.sol\":2431:2471  OwnershipTransferred(oldOwner, newOwner) */\n  0xffffffffffffffffffffffffffffffffffffffff\n  and\n    /* \"contracts/Ownable.sol\":2452:2460  oldOwner */\n  dup2\n    /* \"contracts/Ownable.sol\":2431:2471  OwnershipTransferred(oldOwner, newOwner) */\n  0xffffffffffffffffffffffffffffffffffffffff\n  and\n  0x8be0079c531659141344cd1fd0a4f28419497f9722a3daafe3b4186f6b6457e0\n  mload(0x40)\n  mload(0x40)\n  dup1\n  swap2\n  sub\n  swap1\n  log3\n    /* \"contracts/Ownable.sol\":2354:2478  {... */\n  pop\n    /* \"contracts/Ownable.sol\":2291:2478  function _transferOwnership(address newOwner) internal virtual {... */\n  pop\n  jump\t// out\n    /* \"contracts/ERC1155.sol\":5137:5682  function _mint(... */\ntag_13:\n    /* \"contracts/ERC1155.sol\":5297:5303  amount */\n  dup2\n    /* \"contracts/ERC1155.sol\":5276:5285  balanceOf */\n  0x00\n    /* \"contracts/ERC1155.sol\":5276:5289  balanceOf[to] */\n  dup1\n    /* \"contracts/ERC1155.sol\":5286:5288  to */\n  dup7\n    /* \"contracts/ERC1155.sol\":5276:5289  balanceOf[to] */\n  0xffffffffffffffffffffffffffffffffffffffff\n  and\n  0xffffffffffffffffffffffffffffffffffffffff\n  and\n  dup2\n  mstore\n  0x20\n  add\n  swap1\n  dup2\n  mstore\n  0x20\n  add\n  0x00\n  keccak256\n    /* \"contracts/ERC1155.sol\":5276:5293  balanceOf[to][id] */\n  0x00\n    /* \"contracts/ERC1155.sol\":5290:5292  id */\n  dup6\n    /* \"contracts/ERC1155.sol\":5276:5293  balanceOf[to][id] */\n  dup2\n  mstore\n  0x20\n  add\n  swap1\n  dup2\n  mstore\n  0x20\n  add\n  0x00\n  keccak256\n  0x00\n    /* \"contracts/ERC1155.sol\":5276:5303  balanceOf[to][id] += amount */\n  dup3\n  dup3\n  sload\n  tag_22\n  swap2\n  swap1\n  tag_23\n  jump\t// in\ntag_22:\n  swap3\n  pop\n  pop\n  dup2\n  swap1\n  sstore\n  pop\n    /* \"contracts/ERC1155.sol\":5358:5360  to */\n  dup4\n    /* \"contracts/ERC1155.sol\":5319:5373  TransferSingle(msg.sender, address(0), to, id, amount) */\n  0xffffffffffffffffffffffffffffffffffffffff\n  and\n    /* \"contracts/ERC1155.sol\":5354:5355  0 */\n  0x00\n    /* \"contracts/ERC1155.sol\":5319:5373  TransferSingle(msg.sender, address(0), to, id, amount) */\n  0xffffffffffffffffffffffffffffffffffffffff\n  and\n    /* \"contracts/ERC1155.sol\":5334:5344  msg.sender */\n  caller\n    /* \"contracts/ERC1155.sol\":5319:5373  TransferSingle(msg.sender, address(0), to, id, amount) */\n  0xffffffffffffffffffffffffffffffffffffffff\n  and\n  0xc3d58168c5ae7397731d063d5bbf3d657854427343f4c083240f7aacaa2d0f62\n    /* \"contracts/ERC1155.sol\":5362:5364  id */\n  dup7\n    /* \"contracts/ERC1155.sol\":5366:5372  amount */\n  dup7\n    /* \"contracts/ERC1155.sol\":5319:5373  TransferSingle(msg.sender, address(0), to, id, amount) */\n  mload(0x40)\n  tag_24\n  swap3\n  swap2\n  swap1\n  tag_25\n  jump\t// in\ntag_24:\n  mload(0x40)\n  dup1\n  swap2\n  sub\n  swap1\n  log4\n    /* \"contracts/ERC1155.sol\":5423:5424  0 */\n  0x00\n    /* \"contracts/ERC1155.sol\":5405:5407  to */\n  dup5\n    /* \"contracts/ERC1155.sol\":5405:5419  to.code.length */\n  0xffffffffffffffffffffffffffffffffffffffff\n  and\n  extcodesize\n    /* \"contracts/ERC1155.sol\":5405:5424  to.code.length == 0 */\n  eq\n    /* \"contracts/ERC1155.sol\":5405:5633  to.code.length == 0... */\n  tag_26\n  jumpi\n    /* \"contracts/ERC1155.sol\":5586:5633  ERC1155TokenReceiver.onERC1155Received.selector */\n  shl(0xe0, 0xf23a6e61)\n    /* \"contracts/ERC1155.sol\":5478:5633  ERC1155TokenReceiver(to).onERC1155Received(msg.sender, address(0), id, amount, data) ==... */\n  not(0xffffffffffffffffffffffffffffffffffffffffffffffffffffffff)\n  and\n    /* \"contracts/ERC1155.sol\":5499:5501  to */\n  dup5\n    /* \"contracts/ERC1155.sol\":5478:5520  ERC1155TokenReceiver(to).onERC1155Received */\n  0xffffffffffffffffffffffffffffffffffffffff\n  and\n  0xf23a6e61\n    /* \"contracts/ERC1155.sol\":5521:5531  msg.sender */\n  caller\n    /* \"contracts/ERC1155.sol\":5541:5542  0 */\n  0x00\n    /* \"contracts/ERC1155.sol\":5545:5547  id */\n  dup8\n    /* \"contracts/ERC1155.sol\":5549:5555  amount */\n  dup8\n    /* \"contracts/ERC1155.sol\":5557:5561  data */\n  dup8\n    /* \"contracts/ERC1155.sol\":5478:5562  ERC1155TokenReceiver(to).onERC1155Received(msg.sender, address(0), id, amount, data) */\n  mload(0x40)\n  dup7\n  0xffffffff\n  and\n  0xe0\n  shl\n  dup2\n  mstore\n  0x04\n  add\n  tag_27\n  swap6\n  swap5\n  swap4\n  swap3\n  swap2\n  swap1\n  tag_28\n  jump\t// in\ntag_27:\n  0x20\n  mload(0x40)\n  dup1\n  dup4\n  sub\n  dup2\n  0x00\n  dup8\n  gas\n  call\n  iszero\n  dup1\n  iszero\n  tag_30\n  jumpi\n  returndatasize\n  0x00\n  dup1\n  returndatacopy\n  revert(0x00, returndatasize)\ntag_30:\n  pop\n  pop\n  pop\n  pop\n  mload(0x40)\n  returndatasize\n  not(0x1f)\n  0x1f\n  dup3\n  add\n  and\n  dup3\n  add\n  dup1\n  0x40\n  mstore\n  pop\n  dup2\n  add\n  swap1\n  tag_31\n  swap2\n  swap1\n  tag_32\n  jump\t// in\ntag_31:\n    /* \"contracts/ERC1155.sol\":5478:5633  ERC1155TokenReceiver(to).onERC1155Received(msg.sender, address(0), id, amount, data) ==... */\n  not(0xffffffffffffffffffffffffffffffffffffffffffffffffffffffff)\n  and\n  eq\n    /* \"contracts/ERC1155.sol\":5405:5633  to.code.length == 0... */\n  jump(tag_33)\ntag_26:\n    /* \"contracts/ERC1155.sol\":5457:5458  0 */\n  0x00\n    /* \"contracts/ERC1155.sol\":5443:5459  to != address(0) */\n  0xffffffffffffffffffffffffffffffffffffffff\n  and\n    /* \"contracts/ERC1155.sol\":5443:5445  to */\n  dup5\n    /* \"contracts/ERC1155.sol\":5443:5459  to != address(0) */\n  0xffffffffffffffffffffffffffffffffffffffff\n  and\n  eq\n  iszero\n    /* \"contracts/ERC1155.sol\":5405:5633  to.code.length == 0... */\ntag_33:\n    /* \"contracts/ERC1155.sol\":5384:5675  require(... */\n  tag_34\n  jumpi\n  mload(0x40)\n  0x08c379a000000000000000000000000000000000000000000000000000000000\n  dup2\n  mstore\n  0x04\n  add\n  tag_35\n  swap1\n  tag_36\n  jump\t// in\ntag_35:\n  mload(0x40)\n  dup1\n  swap2\n  sub\n  swap1\n  revert\ntag_34:\n    /* \"contracts/ERC1155.sol\":5137:5682  function _mint(... */\n  pop\n  pop\n  pop\n  pop\n  jump\t// out\n    /* \"contracts/Test Mint Pass v12A.sol\":869:6868  contract TestMintPassv12A is ERC1155, Ownable {... */\ntag_16:\n  dup3\n  dup1\n  sload\n  tag_37\n  swap1\n  tag_38\n  jump\t// in\ntag_37:\n  swap1\n  0x00\n  mstore\n  keccak256(0x00, 0x20)\n  swap1\n  0x1f\n  add\n  0x20\n  swap1\n  div\n  dup2\n  add\n  swap3\n  dup3\n  tag_40\n  jumpi\n  0x00\n  dup6\n  sstore\n  jump(tag_39)\ntag_40:\n  dup3\n  0x1f\n  lt\n  tag_41\n  jumpi\n  dup1\n  mload\n  not(0xff)\n  and\n  dup4\n  dup1\n  add\n  or\n  dup6\n  sstore\n  jump(tag_39)\ntag_41:\n  dup3\n  dup1\n  add\n  0x01\n  add\n  dup6\n  sstore\n  dup3\n  iszero\n  tag_39\n  jumpi\n  swap2\n  dup3\n  add\ntag_42:\n  dup3\n  dup2\n  gt\n  iszero\n  tag_43\n  jumpi\n  dup3\n  mload\n  dup3\n  sstore\n  swap2\n  0x20\n  add\n  swap2\n  swap1\n  0x01\n  add\n  swap1\n  jump(tag_42)\ntag_43:\ntag_39:\n  pop\n  swap1\n  pop\n  tag_44\n  swap2\n  swap1\n  tag_45\n  jump\t// in\ntag_44:\n  pop\n  swap1\n  jump\t// out\ntag_45:\ntag_46:\n  dup1\n  dup3\n  gt\n  iszero\n  tag_47\n  jumpi\n  0x00\n  dup2\n  0x00\n  swap1\n  sstore\n  pop\n  0x01\n  add\n  jump(tag_46)\ntag_47:\n  pop\n  swap1\n  jump\t// out\n    /* \"#utility.yul\":7:82   */\ntag_48:\n    /* \"#utility.yul\":40:46   */\n  0x00\n    /* \"#utility.yul\":73:75   */\n  0x40\n    /* \"#utility.yul\":67:76   */\n  mload\n    /* \"#utility.yul\":57:76   */\n  swap1\n  pop\n    /* \"#utility.yul\":7:82   */\n  swap1\n  jump\t// out\n    /* \"#utility.yul\":88:205   */\ntag_49:\n    /* \"#utility.yul\":197:198   */\n  0x00\n    /* \"#utility.yul\":194:195   */\n  dup1\n    /* \"#utility.yul\":187:199   */\n  revert\n    /* \"#utility.yul\":211:328   */\ntag_50:\n    /* \"#utility.yul\":320:321   */\n  0x00\n    /* \"#utility.yul\":317:318   */\n  dup1\n    /* \"#utility.yul\":310:322   */\n  revert\n    /* \"#utility.yul\":334:451   */\ntag_51:\n    /* \"#utility.yul\":443:444   */\n  0x00\n    /* \"#utility.yul\":440:441   */\n  dup1\n    /* \"#utility.yul\":433:445   */\n  revert\n    /* \"#utility.yul\":457:574   */\ntag_52:\n    /* \"#utility.yul\":566:567   */\n  0x00\n    /* \"#utility.yul\":563:564   */\n  dup1\n    /* \"#utility.yul\":556:568   */\n  revert\n    /* \"#utility.yul\":580:682   */\ntag_53:\n    /* \"#utility.yul\":621:627   */\n  0x00\n    /* \"#utility.yul\":672:674   */\n  0x1f\n    /* \"#utility.yul\":668:675   */\n  not\n    /* \"#utility.yul\":663:665   */\n  0x1f\n    /* \"#utility.yul\":656:661   */\n  dup4\n    /* \"#utility.yul\":652:666   */\n  add\n    /* \"#utility.yul\":648:676   */\n  and\n    /* \"#utility.yul\":638:676   */\n  swap1\n  pop\n    /* \"#utility.yul\":580:682   */\n  swap2\n  swap1\n  pop\n  jump\t// out\n    /* \"#utility.yul\":688:868   */\ntag_54:\n    /* \"#utility.yul\":736:813   */\n  0x4e487b7100000000000000000000000000000000000000000000000000000000\n    /* \"#utility.yul\":733:734   */\n  0x00\n    /* \"#utility.yul\":726:814   */\n  mstore\n    /* \"#utility.yul\":833:837   */\n  0x41\n    /* \"#utility.yul\":830:831   */\n  0x04\n    /* \"#utility.yul\":823:838   */\n  mstore\n    /* \"#utility.yul\":857:861   */\n  0x24\n    /* \"#utility.yul\":854:855   */\n  0x00\n    /* \"#utility.yul\":847:862   */\n  revert\n    /* \"#utility.yul\":874:1155   */\ntag_55:\n    /* \"#utility.yul\":957:984   */\n  tag_88\n    /* \"#utility.yul\":979:983   */\n  dup3\n    /* \"#utility.yul\":957:984   */\n  tag_53\n  jump\t// in\ntag_88:\n    /* \"#utility.yul\":949:955   */\n  dup2\n    /* \"#utility.yul\":945:985   */\n  add\n    /* \"#utility.yul\":1087:1093   */\n  dup2\n    /* \"#utility.yul\":1075:1085   */\n  dup2\n    /* \"#utility.yul\":1072:1094   */\n  lt\n    /* \"#utility.yul\":1051:1069   */\n  0xffffffffffffffff\n    /* \"#utility.yul\":1039:1049   */\n  dup3\n    /* \"#utility.yul\":1036:1070   */\n  gt\n    /* \"#utility.yul\":1033:1095   */\n  or\n    /* \"#utility.yul\":1030:1118   */\n  iszero\n  tag_89\n  jumpi\n    /* \"#utility.yul\":1098:1116   */\n  tag_90\n  tag_54\n  jump\t// in\ntag_90:\n    /* \"#utility.yul\":1030:1118   */\ntag_89:\n    /* \"#utility.yul\":1138:1148   */\n  dup1\n    /* \"#utility.yul\":1134:1136   */\n  0x40\n    /* \"#utility.yul\":1127:1149   */\n  mstore\n    /* \"#utility.yul\":917:1155   */\n  pop\n    /* \"#utility.yul\":874:1155   */\n  pop\n  pop\n  jump\t// out\n    /* \"#utility.yul\":1161:1290   */\ntag_56:\n    /* \"#utility.yul\":1195:1201   */\n  0x00\n    /* \"#utility.yul\":1222:1242   */\n  tag_92\n  tag_48\n  jump\t// in\ntag_92:\n    /* \"#utility.yul\":1212:1242   */\n  swap1\n  pop\n    /* \"#utility.yul\":1251:1284   */\n  tag_93\n    /* \"#utility.yul\":1279:1283   */\n  dup3\n    /* \"#utility.yul\":1271:1277   */\n  dup3\n    /* \"#utility.yul\":1251:1284   */\n  tag_55\n  jump\t// in\ntag_93:\n    /* \"#utility.yul\":1161:1290   */\n  swap2\n  swap1\n  pop\n  jump\t// out\n    /* \"#utility.yul\":1296:1604   */\ntag_57:\n    /* \"#utility.yul\":1358:1362   */\n  0x00\n    /* \"#utility.yul\":1448:1466   */\n  0xffffffffffffffff\n    /* \"#utility.yul\":1440:1446   */\n  dup3\n    /* \"#utility.yul\":1437:1467   */\n  gt\n    /* \"#utility.yul\":1434:1490   */\n  iszero\n  tag_95\n  jumpi\n    /* \"#utility.yul\":1470:1488   */\n  tag_96\n  tag_54\n  jump\t// in\ntag_96:\n    /* \"#utility.yul\":1434:1490   */\ntag_95:\n    /* \"#utility.yul\":1508:1537   */\n  tag_97\n    /* \"#utility.yul\":1530:1536   */\n  dup3\n    /* \"#utility.yul\":1508:1537   */\n  tag_53\n  jump\t// in\ntag_97:\n    /* \"#utility.yul\":1500:1537   */\n  swap1\n  pop\n    /* \"#utility.yul\":1592:1596   */\n  0x20\n    /* \"#utility.yul\":1586:1590   */\n  dup2\n    /* \"#utility.yul\":1582:1597   */\n  add\n    /* \"#utility.yul\":1574:1597   */\n  swap1\n  pop\n    /* \"#utility.yul\":1296:1604   */\n  swap2\n  swap1\n  pop\n  jump\t// out\n    /* \"#utility.yul\":1610:1917   */\ntag_58:\n    /* \"#utility.yul\":1678:1679   */\n  0x00\n    /* \"#utility.yul\":1688:1801   */\ntag_99:\n    /* \"#utility.yul\":1702:1708   */\n  dup4\n    /* \"#utility.yul\":1699:1700   */\n  dup2\n    /* \"#utility.yul\":1696:1709   */\n  lt\n    /* \"#utility.yul\":1688:1801   */\n  iszero\n  tag_101\n  jumpi\n    /* \"#utility.yul\":1787:1788   */\n  dup1\n    /* \"#utility.yul\":1782:1785   */\n  dup3\n    /* \"#utility.yul\":1778:1789   */\n  add\n    /* \"#utility.yul\":1772:1790   */\n  mload\n    /* \"#utility.yul\":1768:1769   */\n  dup2\n    /* \"#utility.yul\":1763:1766   */\n  dup5\n    /* \"#utility.yul\":1759:1770   */\n  add\n    /* \"#utility.yul\":1752:1791   */\n  mstore\n    /* \"#utility.yul\":1724:1726   */\n  0x20\n    /* \"#utility.yul\":1721:1722   */\n  dup2\n    /* \"#utility.yul\":1717:1727   */\n  add\n    /* \"#utility.yul\":1712:1727   */\n  swap1\n  pop\n    /* \"#utility.yul\":1688:1801   */\n  jump(tag_99)\ntag_101:\n    /* \"#utility.yul\":1819:1825   */\n  dup4\n    /* \"#utility.yul\":1816:1817   */\n  dup2\n    /* \"#utility.yul\":1813:1826   */\n  gt\n    /* \"#utility.yul\":1810:1911   */\n  iszero\n  tag_102\n  jumpi\n    /* \"#utility.yul\":1899:1900   */\n  0x00\n    /* \"#utility.yul\":1890:1896   */\n  dup5\n    /* \"#utility.yul\":1885:1888   */\n  dup5\n    /* \"#utility.yul\":1881:1897   */\n  add\n    /* \"#utility.yul\":1874:1901   */\n  mstore\n    /* \"#utility.yul\":1810:1911   */\ntag_102:\n    /* \"#utility.yul\":1659:1917   */\n  pop\n    /* \"#utility.yul\":1610:1917   */\n  pop\n  pop\n  pop\n  jump\t// out\n    /* \"#utility.yul\":1923:2344   */\ntag_59:\n    /* \"#utility.yul\":2012:2017   */\n  0x00\n    /* \"#utility.yul\":2037:2103   */\n  tag_104\n    /* \"#utility.yul\":2053:2102   */\n  tag_105\n    /* \"#utility.yul\":2095:2101   */\n  dup5\n    /* \"#utility.yul\":2053:2102   */\n  tag_57\n  jump\t// in\ntag_105:\n    /* \"#utility.yul\":2037:2103   */\n  tag_56\n  jump\t// in\ntag_104:\n    /* \"#utility.yul\":2028:2103   */\n  swap1\n  pop\n    /* \"#utility.yul\":2126:2132   */\n  dup3\n    /* \"#utility.yul\":2119:2124   */\n  dup2\n    /* \"#utility.yul\":2112:2133   */\n  mstore\n    /* \"#utility.yul\":2164:2168   */\n  0x20\n    /* \"#utility.yul\":2157:2162   */\n  dup2\n    /* \"#utility.yul\":2153:2169   */\n  add\n    /* \"#utility.yul\":2202:2205   */\n  dup5\n    /* \"#utility.yul\":2193:2199   */\n  dup5\n    /* \"#utility.yul\":2188:2191   */\n  dup5\n    /* \"#utility.yul\":2184:2200   */\n  add\n    /* \"#utility.yul\":2181:2206   */\n  gt\n    /* \"#utility.yul\":2178:2290   */\n  iszero\n  tag_106\n  jumpi\n    /* \"#utility.yul\":2209:2288   */\n  tag_107\n  tag_52\n  jump\t// in\ntag_107:\n    /* \"#utility.yul\":2178:2290   */\ntag_106:\n    /* \"#utility.yul\":2299:2338   */\n  tag_108\n    /* \"#utility.yul\":2331:2337   */\n  dup5\n    /* \"#utility.yul\":2326:2329   */\n  dup3\n    /* \"#utility.yul\":2321:2324   */\n  dup6\n    /* \"#utility.yul\":2299:2338   */\n  tag_58\n  jump\t// in\ntag_108:\n    /* \"#utility.yul\":2018:2344   */\n  pop\n    /* \"#utility.yul\":1923:2344   */\n  swap4\n  swap3\n  pop\n  pop\n  pop\n  jump\t// out\n    /* \"#utility.yul\":2364:2719   */\ntag_60:\n    /* \"#utility.yul\":2431:2436   */\n  0x00\n    /* \"#utility.yul\":2480:2483   */\n  dup3\n    /* \"#utility.yul\":2473:2477   */\n  0x1f\n    /* \"#utility.yul\":2465:2471   */\n  dup4\n    /* \"#utility.yul\":2461:2478   */\n  add\n    /* \"#utility.yul\":2457:2484   */\n  slt\n    /* \"#utility.yul\":2447:2569   */\n  tag_110\n  jumpi\n    /* \"#utility.yul\":2488:2567   */\n  tag_111\n  tag_51\n  jump\t// in\ntag_111:\n    /* \"#utility.yul\":2447:2569   */\ntag_110:\n    /* \"#utility.yul\":2598:2604   */\n  dup2\n    /* \"#utility.yul\":2592:2605   */\n  mload\n    /* \"#utility.yul\":2623:2713   */\n  tag_112\n    /* \"#utility.yul\":2709:2712   */\n  dup5\n    /* \"#utility.yul\":2701:2707   */\n  dup3\n    /* \"#utility.yul\":2694:2698   */\n  0x20\n    /* \"#utility.yul\":2686:2692   */\n  dup7\n    /* \"#utility.yul\":2682:2699   */\n  add\n    /* \"#utility.yul\":2623:2713   */\n  tag_59\n  jump\t// in\ntag_112:\n    /* \"#utility.yul\":2614:2713   */\n  swap2\n  pop\n    /* \"#utility.yul\":2437:2719   */\n  pop\n    /* \"#utility.yul\":2364:2719   */\n  swap3\n  swap2\n  pop\n  pop\n  jump\t// out\n    /* \"#utility.yul\":2725:2851   */\ntag_61:\n    /* \"#utility.yul\":2762:2769   */\n  0x00\n    /* \"#utility.yul\":2802:2844   */\n  0xffffffffffffffffffffffffffffffffffffffff\n    /* \"#utility.yul\":2795:2800   */\n  dup3\n    /* \"#utility.yul\":2791:2845   */\n  and\n    /* \"#utility.yul\":2780:2845   */\n  swap1\n  pop\n    /* \"#utility.yul\":2725:2851   */\n  swap2\n  swap1\n  pop\n  jump\t// out\n    /* \"#utility.yul\":2857:2953   */\ntag_62:\n    /* \"#utility.yul\":2894:2901   */\n  0x00\n    /* \"#utility.yul\":2923:2947   */\n  tag_115\n    /* \"#utility.yul\":2941:2946   */\n  dup3\n    /* \"#utility.yul\":2923:2947   */\n  tag_61\n  jump\t// in\ntag_115:\n    /* \"#utility.yul\":2912:2947   */\n  swap1\n  pop\n    /* \"#utility.yul\":2857:2953   */\n  swap2\n  swap1\n  pop\n  jump\t// out\n    /* \"#utility.yul\":2959:3081   */\ntag_63:\n    /* \"#utility.yul\":3032:3056   */\n  tag_117\n    /* \"#utility.yul\":3050:3055   */\n  dup2\n    /* \"#utility.yul\":3032:3056   */\n  tag_62\n  jump\t// in\ntag_117:\n    /* \"#utility.yul\":3025:3030   */\n  dup2\n    /* \"#utility.yul\":3022:3057   */\n  eq\n    /* \"#utility.yul\":3012:3075   */\n  tag_118\n  jumpi\n    /* \"#utility.yul\":3071:3072   */\n  0x00\n    /* \"#utility.yul\":3068:3069   */\n  dup1\n    /* \"#utility.yul\":3061:3073   */\n  revert\n    /* \"#utility.yul\":3012:3075   */\ntag_118:\n    /* \"#utility.yul\":2959:3081   */\n  pop\n  jump\t// out\n    /* \"#utility.yul\":3087:3230   */\ntag_64:\n    /* \"#utility.yul\":3144:3149   */\n  0x00\n    /* \"#utility.yul\":3175:3181   */\n  dup2\n    /* \"#utility.yul\":3169:3182   */\n  mload\n    /* \"#utility.yul\":3160:3182   */\n  swap1\n  pop\n    /* \"#utility.yul\":3191:3224   */\n  tag_120\n    /* \"#utility.yul\":3218:3223   */\n  dup2\n    /* \"#utility.yul\":3191:3224   */\n  tag_63\n  jump\t// in\ntag_120:\n    /* \"#utility.yul\":3087:3230   */\n  swap3\n  swap2\n  pop\n  pop\n  jump\t// out\n    /* \"#utility.yul\":3236:4905   */\ntag_3:\n    /* \"#utility.yul\":3382:3388   */\n  0x00\n    /* \"#utility.yul\":3390:3396   */\n  dup1\n    /* \"#utility.yul\":3398:3404   */\n  0x00\n    /* \"#utility.yul\":3406:3412   */\n  dup1\n    /* \"#utility.yul\":3414:3420   */\n  0x00\n    /* \"#utility.yul\":3463:3466   */\n  0xa0\n    /* \"#utility.yul\":3451:3460   */\n  dup7\n    /* \"#utility.yul\":3442:3449   */\n  dup9\n    /* \"#utility.yul\":3438:3461   */\n  sub\n    /* \"#utility.yul\":3434:3467   */\n  slt\n    /* \"#utility.yul\":3431:3551   */\n  iszero\n  tag_122\n  jumpi\n    /* \"#utility.yul\":3470:3549   */\n  tag_123\n  tag_49\n  jump\t// in\ntag_123:\n    /* \"#utility.yul\":3431:3551   */\ntag_122:\n    /* \"#utility.yul\":3611:3612   */\n  0x00\n    /* \"#utility.yul\":3600:3609   */\n  dup7\n    /* \"#utility.yul\":3596:3613   */\n  add\n    /* \"#utility.yul\":3590:3614   */\n  mload\n    /* \"#utility.yul\":3641:3659   */\n  0xffffffffffffffff\n    /* \"#utility.yul\":3633:3639   */\n  dup2\n    /* \"#utility.yul\":3630:3660   */\n  gt\n    /* \"#utility.yul\":3627:3744   */\n  iszero\n  tag_124\n  jumpi\n    /* \"#utility.yul\":3663:3742   */\n  tag_125\n  tag_50\n  jump\t// in\ntag_125:\n    /* \"#utility.yul\":3627:3744   */\ntag_124:\n    /* \"#utility.yul\":3768:3842   */\n  tag_126\n    /* \"#utility.yul\":3834:3841   */\n  dup9\n    /* \"#utility.yul\":3825:3831   */\n  dup3\n    /* \"#utility.yul\":3814:3823   */\n  dup10\n    /* \"#utility.yul\":3810:3832   */\n  add\n    /* \"#utility.yul\":3768:3842   */\n  tag_60\n  jump\t// in\ntag_126:\n    /* \"#utility.yul\":3758:3842   */\n  swap6\n  pop\n    /* \"#utility.yul\":3561:3852   */\n  pop\n    /* \"#utility.yul\":3912:3914   */\n  0x20\n    /* \"#utility.yul\":3901:3910   */\n  dup7\n    /* \"#utility.yul\":3897:3915   */\n  add\n    /* \"#utility.yul\":3891:3916   */\n  mload\n    /* \"#utility.yul\":3943:3961   */\n  0xffffffffffffffff\n    /* \"#utility.yul\":3935:3941   */\n  dup2\n    /* \"#utility.yul\":3932:3962   */\n  gt\n    /* \"#utility.yul\":3929:4046   */\n  iszero\n  tag_127\n  jumpi\n    /* \"#utility.yul\":3965:4044   */\n  tag_128\n  tag_50\n  jump\t// in\ntag_128:\n    /* \"#utility.yul\":3929:4046   */\ntag_127:\n    /* \"#utility.yul\":4070:4144   */\n  tag_129\n    /* \"#utility.yul\":4136:4143   */\n  dup9\n    /* \"#utility.yul\":4127:4133   */\n  dup3\n    /* \"#utility.yul\":4116:4125   */\n  dup10\n    /* \"#utility.yul\":4112:4134   */\n  add\n    /* \"#utility.yul\":4070:4144   */\n  tag_60\n  jump\t// in\ntag_129:\n    /* \"#utility.yul\":4060:4144   */\n  swap5\n  pop\n    /* \"#utility.yul\":3862:4154   */\n  pop\n    /* \"#utility.yul\":4193:4195   */\n  0x40\n    /* \"#utility.yul\":4219:4283   */\n  tag_130\n    /* \"#utility.yul\":4275:4282   */\n  dup9\n    /* \"#utility.yul\":4266:4272   */\n  dup3\n    /* \"#utility.yul\":4255:4264   */\n  dup10\n    /* \"#utility.yul\":4251:4273   */\n  add\n    /* \"#utility.yul\":4219:4283   */\n  tag_64\n  jump\t// in\ntag_130:\n    /* \"#utility.yul\":4209:4283   */\n  swap4\n  pop\n    /* \"#utility.yul\":4164:4293   */\n  pop\n    /* \"#utility.yul\":4353:4355   */\n  0x60\n    /* \"#utility.yul\":4342:4351   */\n  dup7\n    /* \"#utility.yul\":4338:4356   */\n  add\n    /* \"#utility.yul\":4332:4357   */\n  mload\n    /* \"#utility.yul\":4384:4402   */\n  0xffffffffffffffff\n    /* \"#utility.yul\":4376:4382   */\n  dup2\n    /* \"#utility.yul\":4373:4403   */\n  gt\n    /* \"#utility.yul\":4370:4487   */\n  iszero\n  tag_131\n  jumpi\n    /* \"#utility.yul\":4406:4485   */\n  tag_132\n  tag_50\n  jump\t// in\ntag_132:\n    /* \"#utility.yul\":4370:4487   */\ntag_131:\n    /* \"#utility.yul\":4511:4585   */\n  tag_133\n    /* \"#utility.yul\":4577:4584   */\n  dup9\n    /* \"#utility.yul\":4568:4574   */\n  dup3\n    /* \"#utility.yul\":4557:4566   */\n  dup10\n    /* \"#utility.yul\":4553:4575   */\n  add\n    /* \"#utility.yul\":4511:4585   */\n  tag_60\n  jump\t// in\ntag_133:\n    /* \"#utility.yul\":4501:4585   */\n  swap3\n  pop\n    /* \"#utility.yul\":4303:4595   */\n  pop\n    /* \"#utility.yul\":4655:4658   */\n  0x80\n    /* \"#utility.yul\":4644:4653   */\n  dup7\n    /* \"#utility.yul\":4640:4659   */\n  add\n    /* \"#utility.yul\":4634:4660   */\n  mload\n    /* \"#utility.yul\":4687:4705   */\n  0xffffffffffffffff\n    /* \"#utility.yul\":4679:4685   */\n  dup2\n    /* \"#utility.yul\":4676:4706   */\n  gt\n    /* \"#utility.yul\":4673:4790   */\n  iszero\n  tag_134\n  jumpi\n    /* \"#utility.yul\":4709:4788   */\n  tag_135\n  tag_50\n  jump\t// in\ntag_135:\n    /* \"#utility.yul\":4673:4790   */\ntag_134:\n    /* \"#utility.yul\":4814:4888   */\n  tag_136\n    /* \"#utility.yul\":4880:4887   */\n  dup9\n    /* \"#utility.yul\":4871:4877   */\n  dup3\n    /* \"#utility.yul\":4860:4869   */\n  dup10\n    /* \"#utility.yul\":4856:4878   */\n  add\n    /* \"#utility.yul\":4814:4888   */\n  tag_60\n  jump\t// in\ntag_136:\n    /* \"#utility.yul\":4804:4888   */\n  swap2\n  pop\n    /* \"#utility.yul\":4605:4898   */\n  pop\n    /* \"#utility.yul\":3236:4905   */\n  swap3\n  swap6\n  pop\n  swap3\n  swap6\n  swap1\n  swap4\n  pop\n  jump\t// out\n    /* \"#utility.yul\":4911:4988   */\ntag_65:\n    /* \"#utility.yul\":4948:4955   */\n  0x00\n    /* \"#utility.yul\":4977:4982   */\n  dup2\n    /* \"#utility.yul\":4966:4982   */\n  swap1\n  pop\n    /* \"#utility.yul\":4911:4988   */\n  swap2\n  swap1\n  pop\n  jump\t// out\n    /* \"#utility.yul\":4994:5174   */\ntag_66:\n    /* \"#utility.yul\":5042:5119   */\n  0x4e487b7100000000000000000000000000000000000000000000000000000000\n    /* \"#utility.yul\":5039:5040   */\n  0x00\n    /* \"#utility.yul\":5032:5120   */\n  mstore\n    /* \"#utility.yul\":5139:5143   */\n  0x11\n    /* \"#utility.yul\":5136:5137   */\n  0x04\n    /* \"#utility.yul\":5129:5144   */\n  mstore\n    /* \"#utility.yul\":5163:5167   */\n  0x24\n    /* \"#utility.yul\":5160:5161   */\n  0x00\n    /* \"#utility.yul\":5153:5168   */\n  revert\n    /* \"#utility.yul\":5180:5485   */\ntag_23:\n    /* \"#utility.yul\":5220:5223   */\n  0x00\n    /* \"#utility.yul\":5239:5259   */\n  tag_140\n    /* \"#utility.yul\":5257:5258   */\n  dup3\n    /* \"#utility.yul\":5239:5259   */\n  tag_65\n  jump\t// in\ntag_140:\n    /* \"#utility.yul\":5234:5259   */\n  swap2\n  pop\n    /* \"#utility.yul\":5273:5293   */\n  tag_141\n    /* \"#utility.yul\":5291:5292   */\n  dup4\n    /* \"#utility.yul\":5273:5293   */\n  tag_65\n  jump\t// in\ntag_141:\n    /* \"#utility.yul\":5268:5293   */\n  swap3\n  pop\n    /* \"#utility.yul\":5427:5428   */\n  dup3\n    /* \"#utility.yul\":5359:5425   */\n  0xffffffffffffffffffffffffffffffffffffffffffffffffffffffffffffffff\n    /* \"#utility.yul\":5355:5429   */\n  sub\n    /* \"#utility.yul\":5352:5353   */\n  dup3\n    /* \"#utility.yul\":5349:5430   */\n  gt\n    /* \"#utility.yul\":5346:5453   */\n  iszero\n  tag_142\n  jumpi\n    /* \"#utility.yul\":5433:5451   */\n  tag_143\n  tag_66\n  jump\t// in\ntag_143:\n    /* \"#utility.yul\":5346:5453   */\ntag_142:\n    /* \"#utility.yul\":5477:5478   */\n  dup3\n    /* \"#utility.yul\":5474:5475   */\n  dup3\n    /* \"#utility.yul\":5470:5479   */\n  add\n    /* \"#utility.yul\":5463:5479   */\n  swap1\n  pop\n    /* \"#utility.yul\":5180:5485   */\n  swap3\n  swap2\n  pop\n  pop\n  jump\t// out\n    /* \"#utility.yul\":5491:5609   */\ntag_67:\n    /* \"#utility.yul\":5578:5602   */\n  tag_145\n    /* \"#utility.yul\":5596:5601   */\n  dup2\n    /* \"#utility.yul\":5578:5602   */\n  tag_65\n  jump\t// in\ntag_145:\n    /* \"#utility.yul\":5573:5576   */\n  dup3\n    /* \"#utility.yul\":5566:5603   */\n  mstore\n    /* \"#utility.yul\":5491:5609   */\n  pop\n  pop\n  jump\t// out\n    /* \"#utility.yul\":5615:5947   */\ntag_25:\n    /* \"#utility.yul\":5736:5740   */\n  0x00\n    /* \"#utility.yul\":5774:5776   */\n  0x40\n    /* \"#utility.yul\":5763:5772   */\n  dup3\n    /* \"#utility.yul\":5759:5777   */\n  add\n    /* \"#utility.yul\":5751:5777   */\n  swap1\n  pop\n    /* \"#utility.yul\":5787:5858   */\n  tag_147\n    /* \"#utility.yul\":5855:5856   */\n  0x00\n    /* \"#utility.yul\":5844:5853   */\n  dup4\n    /* \"#utility.yul\":5840:5857   */\n  add\n    /* \"#utility.yul\":5831:5837   */\n  dup6\n    /* \"#utility.yul\":5787:5858   */\n  tag_67\n  jump\t// in\ntag_147:\n    /* \"#utility.yul\":5868:5940   */\n  tag_148\n    /* \"#utility.yul\":5936:5938   */\n  0x20\n    /* \"#utility.yul\":5925:5934   */\n  dup4\n    /* \"#utility.yul\":5921:5939   */\n  add\n    /* \"#utility.yul\":5912:5918   */\n  dup5\n    /* \"#utility.yul\":5868:5940   */\n  tag_67\n  jump\t// in\ntag_148:\n    /* \"#utility.yul\":5615:5947   */\n  swap4\n  swap3\n  pop\n  pop\n  pop\n  jump\t// out\n    /* \"#utility.yul\":5953:6071   */\ntag_68:\n    /* \"#utility.yul\":6040:6064   */\n  tag_150\n    /* \"#utility.yul\":6058:6063   */\n  dup2\n    /* \"#utility.yul\":6040:6064   */\n  tag_62\n  jump\t// in\ntag_150:\n    /* \"#utility.yul\":6035:6038   */\n  dup3\n    /* \"#utility.yul\":6028:6065   */\n  mstore\n    /* \"#utility.yul\":5953:6071   */\n  pop\n  pop\n  jump\t// out\n    /* \"#utility.yul\":6077:6175   */\ntag_69:\n    /* \"#utility.yul\":6128:6134   */\n  0x00\n    /* \"#utility.yul\":6162:6167   */\n  dup2\n    /* \"#utility.yul\":6156:6168   */\n  mload\n    /* \"#utility.yul\":6146:6168   */\n  swap1\n  pop\n    /* \"#utility.yul\":6077:6175   */\n  swap2\n  swap1\n  pop\n  jump\t// out\n    /* \"#utility.yul\":6181:6349   */\ntag_70:\n    /* \"#utility.yul\":6264:6275   */\n  0x00\n    /* \"#utility.yul\":6298:6304   */\n  dup3\n    /* \"#utility.yul\":6293:6296   */\n  dup3\n    /* \"#utility.yul\":6286:6305   */\n  mstore\n    /* \"#utility.yul\":6338:6342   */\n  0x20\n    /* \"#utility.yul\":6333:6336   */\n  dup3\n    /* \"#utility.yul\":6329:6343   */\n  add\n    /* \"#utility.yul\":6314:6343   */\n  swap1\n  pop\n    /* \"#utility.yul\":6181:6349   */\n  swap3\n  swap2\n  pop\n  pop\n  jump\t// out\n    /* \"#utility.yul\":6355:6715   */\ntag_71:\n    /* \"#utility.yul\":6441:6444   */\n  0x00\n    /* \"#utility.yul\":6469:6507   */\n  tag_154\n    /* \"#utility.yul\":6501:6506   */\n  dup3\n    /* \"#utility.yul\":6469:6507   */\n  tag_69\n  jump\t// in\ntag_154:\n    /* \"#utility.yul\":6523:6593   */\n  tag_155\n    /* \"#utility.yul\":6586:6592   */\n  dup2\n    /* \"#utility.yul\":6581:6584   */\n  dup6\n    /* \"#utility.yul\":6523:6593   */\n  tag_70\n  jump\t// in\ntag_155:\n    /* \"#utility.yul\":6516:6593   */\n  swap4\n  pop\n    /* \"#utility.yul\":6602:6654   */\n  tag_156\n    /* \"#utility.yul\":6647:6653   */\n  dup2\n    /* \"#utility.yul\":6642:6645   */\n  dup6\n    /* \"#utility.yul\":6635:6639   */\n  0x20\n    /* \"#utility.yul\":6628:6633   */\n  dup7\n    /* \"#utility.yul\":6624:6640   */\n  add\n    /* \"#utility.yul\":6602:6654   */\n  tag_58\n  jump\t// in\ntag_156:\n    /* \"#utility.yul\":6679:6708   */\n  tag_157\n    /* \"#utility.yul\":6701:6707   */\n  dup2\n    /* \"#utility.yul\":6679:6708   */\n  tag_53\n  jump\t// in\ntag_157:\n    /* \"#utility.yul\":6674:6677   */\n  dup5\n    /* \"#utility.yul\":6670:6709   */\n  add\n    /* \"#utility.yul\":6663:6709   */\n  swap2\n  pop\n    /* \"#utility.yul\":6445:6715   */\n  pop\n    /* \"#utility.yul\":6355:6715   */\n  swap3\n  swap2\n  pop\n  pop\n  jump\t// out\n    /* \"#utility.yul\":6721:7472   */\ntag_28:\n    /* \"#utility.yul\":6944:6948   */\n  0x00\n    /* \"#utility.yul\":6982:6985   */\n  0xa0\n    /* \"#utility.yul\":6971:6980   */\n  dup3\n    /* \"#utility.yul\":6967:6986   */\n  add\n    /* \"#utility.yul\":6959:6986   */\n  swap1\n  pop\n    /* \"#utility.yul\":6996:7067   */\n  tag_159\n    /* \"#utility.yul\":7064:7065   */\n  0x00\n    /* \"#utility.yul\":7053:7062   */\n  dup4\n    /* \"#utility.yul\":7049:7066   */\n  add\n    /* \"#utility.yul\":7040:7046   */\n  dup9\n    /* \"#utility.yul\":6996:7067   */\n  tag_68\n  jump\t// in\ntag_159:\n    /* \"#utility.yul\":7077:7149   */\n  tag_160\n    /* \"#utility.yul\":7145:7147   */\n  0x20\n    /* \"#utility.yul\":7134:7143   */\n  dup4\n    /* \"#utility.yul\":7130:7148   */\n  add\n    /* \"#utility.yul\":7121:7127   */\n  dup8\n    /* \"#utility.yul\":7077:7149   */\n  tag_68\n  jump\t// in\ntag_160:\n    /* \"#utility.yul\":7159:7231   */\n  tag_161\n    /* \"#utility.yul\":7227:7229   */\n  0x40\n    /* \"#utility.yul\":7216:7225   */\n  dup4\n    /* \"#utility.yul\":7212:7230   */\n  add\n    /* \"#utility.yul\":7203:7209   */\n  dup7\n    /* \"#utility.yul\":7159:7231   */\n  tag_67\n  jump\t// in\ntag_161:\n    /* \"#utility.yul\":7241:7313   */\n  tag_162\n    /* \"#utility.yul\":7309:7311   */\n  0x60\n    /* \"#utility.yul\":7298:7307   */\n  dup4\n    /* \"#utility.yul\":7294:7312   */\n  add\n    /* \"#utility.yul\":7285:7291   */\n  dup6\n    /* \"#utility.yul\":7241:7313   */\n  tag_67\n  jump\t// in\ntag_162:\n    /* \"#utility.yul\":7361:7370   */\n  dup2\n    /* \"#utility.yul\":7355:7359   */\n  dup2\n    /* \"#utility.yul\":7351:7371   */\n  sub\n    /* \"#utility.yul\":7345:7348   */\n  0x80\n    /* \"#utility.yul\":7334:7343   */\n  dup4\n    /* \"#utility.yul\":7330:7349   */\n  add\n    /* \"#utility.yul\":7323:7372   */\n  mstore\n    /* \"#utility.yul\":7389:7465   */\n  tag_163\n    /* \"#utility.yul\":7460:7464   */\n  dup2\n    /* \"#utility.yul\":7451:7457   */\n  dup5\n    /* \"#utility.yul\":7389:7465   */\n  tag_71\n  jump\t// in\ntag_163:\n    /* \"#utility.yul\":7381:7465   */\n  swap1\n  pop\n    /* \"#utility.yul\":6721:7472   */\n  swap7\n  swap6\n  pop\n  pop\n  pop\n  pop\n  pop\n  pop\n  jump\t// out\n    /* \"#utility.yul\":7478:7627   */\ntag_72:\n    /* \"#utility.yul\":7514:7521   */\n  0x00\n    /* \"#utility.yul\":7554:7620   */\n  0xffffffff00000000000000000000000000000000000000000000000000000000\n    /* \"#utility.yul\":7547:7552   */\n  dup3\n    /* \"#utility.yul\":7543:7621   */\n  and\n    /* \"#utility.yul\":7532:7621   */\n  swap1\n  pop\n    /* \"#utility.yul\":7478:7627   */\n  swap2\n  swap1\n  pop\n  jump\t// out\n    /* \"#utility.yul\":7633:7753   */\ntag_73:\n    /* \"#utility.yul\":7705:7728   */\n  tag_166\n    /* \"#utility.yul\":7722:7727   */\n  dup2\n    /* \"#utility.yul\":7705:7728   */\n  tag_72\n  jump\t// in\ntag_166:\n    /* \"#utility.yul\":7698:7703   */\n  dup2\n    /* \"#utility.yul\":7695:7729   */\n  eq\n    /* \"#utility.yul\":7685:7747   */\n  tag_167\n  jumpi\n    /* \"#utility.yul\":7743:7744   */\n  0x00\n    /* \"#utility.yul\":7740:7741   */\n  dup1\n    /* \"#utility.yul\":7733:7745   */\n  revert\n    /* \"#utility.yul\":7685:7747   */\ntag_167:\n    /* \"#utility.yul\":7633:7753   */\n  pop\n  jump\t// out\n    /* \"#utility.yul\":7759:7900   */\ntag_74:\n    /* \"#utility.yul\":7815:7820   */\n  0x00\n    /* \"#utility.yul\":7846:7852   */\n  dup2\n    /* \"#utility.yul\":7840:7853   */\n  mload\n    /* \"#utility.yul\":7831:7853   */\n  swap1\n  pop\n    /* \"#utility.yul\":7862:7894   */\n  tag_169\n    /* \"#utility.yul\":7888:7893   */\n  dup2\n    /* \"#utility.yul\":7862:7894   */\n  tag_73\n  jump\t// in\ntag_169:\n    /* \"#utility.yul\":7759:7900   */\n  swap3\n  swap2\n  pop\n  pop\n  jump\t// out\n    /* \"#utility.yul\":7906:8255   */\ntag_32:\n    /* \"#utility.yul\":7975:7981   */\n  0x00\n    /* \"#utility.yul\":8024:8026   */\n  0x20\n    /* \"#utility.yul\":8012:8021   */\n  dup3\n    /* \"#utility.yul\":8003:8010   */\n  dup5\n    /* \"#utility.yul\":7999:8022   */\n  sub\n    /* \"#utility.yul\":7995:8027   */\n  slt\n    /* \"#utility.yul\":7992:8111   */\n  iszero\n  tag_171\n  jumpi\n    /* \"#utility.yul\":8030:8109   */\n  tag_172\n  tag_49\n  jump\t// in\ntag_172:\n    /* \"#utility.yul\":7992:8111   */\ntag_171:\n    /* \"#utility.yul\":8150:8151   */\n  0x00\n    /* \"#utility.yul\":8175:8238   */\n  tag_173\n    /* \"#utility.yul\":8230:8237   */\n  dup5\n    /* \"#utility.yul\":8221:8227   */\n  dup3\n    /* \"#utility.yul\":8210:8219   */\n  dup6\n    /* \"#utility.yul\":8206:8228   */\n  add\n    /* \"#utility.yul\":8175:8238   */\n  tag_74\n  jump\t// in\ntag_173:\n    /* \"#utility.yul\":8165:8238   */\n  swap2\n  pop\n    /* \"#utility.yul\":8121:8248   */\n  pop\n    /* \"#utility.yul\":7906:8255   */\n  swap3\n  swap2\n  pop\n  pop\n  jump\t// out\n    /* \"#utility.yul\":8261:8430   */\ntag_75:\n    /* \"#utility.yul\":8345:8356   */\n  0x00\n    /* \"#utility.yul\":8379:8385   */\n  dup3\n    /* \"#utility.yul\":8374:8377   */\n  dup3\n    /* \"#utility.yul\":8367:8386   */\n  mstore\n    /* \"#utility.yul\":8419:8423   */\n  0x20\n    /* \"#utility.yul\":8414:8417   */\n  dup3\n    /* \"#utility.yul\":8410:8424   */\n  add\n    /* \"#utility.yul\":8395:8424   */\n  swap1\n  pop\n    /* \"#utility.yul\":8261:8430   */\n  swap3\n  swap2\n  pop\n  pop\n  jump\t// out\n    /* \"#utility.yul\":8436:8602   */\ntag_76:\n    /* \"#utility.yul\":8576:8594   */\n  0x554e534146455f524543495049454e5400000000000000000000000000000000\n    /* \"#utility.yul\":8572:8573   */\n  0x00\n    /* \"#utility.yul\":8564:8570   */\n  dup3\n    /* \"#utility.yul\":8560:8574   */\n  add\n    /* \"#utility.yul\":8553:8595   */\n  mstore\n    /* \"#utility.yul\":8436:8602   */\n  pop\n  jump\t// out\n    /* \"#utility.yul\":8608:8974   */\ntag_77:\n    /* \"#utility.yul\":8750:8753   */\n  0x00\n    /* \"#utility.yul\":8771:8838   */\n  tag_177\n    /* \"#utility.yul\":8835:8837   */\n  0x10\n    /* \"#utility.yul\":8830:8833   */\n  dup4\n    /* \"#utility.yul\":8771:8838   */\n  tag_75\n  jump\t// in\ntag_177:\n    /* \"#utility.yul\":8764:8838   */\n  swap2\n  pop\n    /* \"#utility.yul\":8847:8940   */\n  tag_178\n    /* \"#utility.yul\":8936:8939   */\n  dup3\n    /* \"#utility.yul\":8847:8940   */\n  tag_76\n  jump\t// in\ntag_178:\n    /* \"#utility.yul\":8965:8967   */\n  0x20\n    /* \"#utility.yul\":8960:8963   */\n  dup3\n    /* \"#utility.yul\":8956:8968   */\n  add\n    /* \"#utility.yul\":8949:8968   */\n  swap1\n  pop\n    /* \"#utility.yul\":8608:8974   */\n  swap2\n  swap1\n  pop\n  jump\t// out\n    /* \"#utility.yul\":8980:9399   */\ntag_36:\n    /* \"#utility.yul\":9146:9150   */\n  0x00\n    /* \"#utility.yul\":9184:9186   */\n  0x20\n    /* \"#utility.yul\":9173:9182   */\n  dup3\n    /* \"#utility.yul\":9169:9187   */\n  add\n    /* \"#utility.yul\":9161:9187   */\n  swap1\n  pop\n    /* \"#utility.yul\":9233:9242   */\n  dup2\n    /* \"#utility.yul\":9227:9231   */\n  dup2\n    /* \"#utility.yul\":9223:9243   */\n  sub\n    /* \"#utility.yul\":9219:9220   */\n  0x00\n    /* \"#utility.yul\":9208:9217   */\n  dup4\n    /* \"#utility.yul\":9204:9221   */\n  add\n    /* \"#utility.yul\":9197:9244   */\n  mstore\n    /* \"#utility.yul\":9261:9392   */\n  tag_180\n    /* \"#utility.yul\":9387:9391   */\n  dup2\n    /* \"#utility.yul\":9261:9392   */\n  tag_77\n  jump\t// in\ntag_180:\n    /* \"#utility.yul\":9253:9392   */\n  swap1\n  pop\n    /* \"#utility.yul\":8980:9399   */\n  swap2\n  swap1\n  pop\n  jump\t// out\n    /* \"#utility.yul\":9405:9585   */\ntag_78:\n    /* \"#utility.yul\":9453:9530   */\n  0x4e487b7100000000000000000000000000000000000000000000000000000000\n    /* \"#utility.yul\":9450:9451   */\n  0x00\n    /* \"#utility.yul\":9443:9531   */\n  mstore\n    /* \"#utility.yul\":9550:9554   */\n  0x22\n    /* \"#utility.yul\":9547:9548   */\n  0x04\n    /* \"#utility.yul\":9540:9555   */\n  mstore\n    /* \"#utility.yul\":9574:9578   */\n  0x24\n    /* \"#utility.yul\":9571:9572   */\n  0x00\n    /* \"#utility.yul\":9564:9579   */\n  revert\n    /* \"#utility.yul\":9591:9911   */\ntag_38:\n    /* \"#utility.yul\":9635:9641   */\n  0x00\n    /* \"#utility.yul\":9672:9673   */\n  0x02\n    /* \"#utility.yul\":9666:9670   */\n  dup3\n    /* \"#utility.yul\":9662:9674   */\n  div\n    /* \"#utility.yul\":9652:9674   */\n  swap1\n  pop\n    /* \"#utility.yul\":9719:9720   */\n  0x01\n    /* \"#utility.yul\":9713:9717   */\n  dup3\n    /* \"#utility.yul\":9709:9721   */\n  and\n    /* \"#utility.yul\":9740:9758   */\n  dup1\n    /* \"#utility.yul\":9730:9811   */\n  tag_183\n  jumpi\n    /* \"#utility.yul\":9796:9800   */\n  0x7f\n    /* \"#utility.yul\":9788:9794   */\n  dup3\n    /* \"#utility.yul\":9784:9801   */\n  and\n    /* \"#utility.yul\":9774:9801   */\n  swap2\n  pop\n    /* \"#utility.yul\":9730:9811   */\ntag_183:\n    /* \"#utility.yul\":9858:9860   */\n  0x20\n    /* \"#utility.yul\":9850:9856   */\n  dup3\n    /* \"#utility.yul\":9847:9861   */\n  lt\n    /* \"#utility.yul\":9827:9845   */\n  dup2\n    /* \"#utility.yul\":9824:9862   */\n  eq\n    /* \"#utility.yul\":9821:9905   */\n  iszero\n  tag_184\n  jumpi\n    /* \"#utility.yul\":9877:9895   */\n  tag_185\n  tag_78\n  jump\t// in\ntag_185:\n    /* \"#utility.yul\":9821:9905   */\ntag_184:\n    /* \"#utility.yul\":9642:9911   */\n  pop\n    /* \"#utility.yul\":9591:9911   */\n  swap2\n  swap1\n  pop\n  jump\t// out\n    /* \"contracts/Test Mint Pass v12A.sol\":869:6868  contract TestMintPassv12A is ERC1155, Ownable {... */\ntag_18:\n  mload(0x80)\n  mload(0xa0)\n  mload(0xc0)\n  mload(0xe0)\n  mload(0x0100)\n  mload(0x0120)\n  codecopy(0x00, dataOffset(sub_0), dataSize(sub_0))\n  0x00\n  assignImmutable(\"0xc12e889213a54234ecab10d0fd59c43e0e5b48719136487538674073c10f27f2\")\n  0x00\n  assignImmutable(\"0x4f722aad0315bc3832e551ccf6da3e098baeb8ee055023fde26c377410bf01b8\")\n  0x00\n  assignImmutable(\"0xe5e82e592b73b06cea933a767f307627bbcb87945b2bc32056ccefc4b7919085\")\n  0x00\n  assignImmutable(\"0x923831463c3a49e9922442ac185c857970685647ffa411016bb09cd1e1a613f6\")\n  0x00\n  assignImmutable(\"0x033d1c3708859491ac29ccd35510f6bd0beea213c20356f3746be06c273b5a0b\")\n  0x00\n  assignImmutable(\"0xdd6ebedecc3782991b040722d05346ae76115706b237b0f241066a60ee7c2169\")\n  return(0x00, dataSize(sub_0))\nstop\ndata_1958797ec7b9a91e8c1b9e545c336ef6d4476c0e925fc3ce9c248910079db3eb 697066733a2f2f516d594e437073446e634845717143374d7256356f63654d366f5657336d6a444b6d733246767267746343745364\ndata_9b2a84cc690791bd41a97973f2b4d21ee621e26229fb8185cad5b0d6dc50203c 697066733a2f2f516d5342564736627841626e50704737464b5736627537554c4846484539764a4d394737655563594d6d744a6e7a2e706e67\ndata_b50854baa3414e38b8fbd26c16643d27c284249af37f951d8232271e21dbb551 697066733a2f2f516d526d4c634b376d614555355578773472507679775677696f445a6a33505659684d7755454335634c744c734e\n\nsub_0: assembly {\n        /* \"contracts/Test Mint Pass v12A.sol\":869:6868  contract TestMintPassv12A is ERC1155, Ownable {... */\n      mstore(0x40, 0x80)\n      callvalue\n      dup1\n      iszero\n      tag_1\n      jumpi\n      0x00\n      dup1\n      revert\n    tag_1:\n      pop\n      jumpi(tag_2, lt(calldatasize, 0x04))\n      shr(0xe0, calldataload(0x00))\n      dup1\n      0x715018a6\n      gt\n      tag_37\n      jumpi\n      dup1\n      0xbd85b039\n      gt\n      tag_38\n      jumpi\n      dup1\n      0xe985e9c5\n      gt\n      tag_39\n      jumpi\n      dup1\n      0xe985e9c5\n      eq\n      tag_32\n      jumpi\n      dup1\n      0xea41c2b7\n      eq\n      tag_33\n      jumpi\n      dup1\n      0xf0f9f1cb\n      eq\n      tag_34\n      jumpi\n      dup1\n      0xf242432a\n      eq\n      tag_35\n      jumpi\n      dup1\n      0xf2fde38b\n      eq\n      tag_36\n      jumpi\n      jump(tag_2)\n    tag_39:\n      dup1\n      0xbd85b039\n      eq\n      tag_28\n      jumpi\n      dup1\n      0xc87b56dd\n      eq\n      tag_29\n      jumpi\n      dup1\n      0xd5391393\n      eq\n      tag_30\n      jumpi\n      dup1\n      0xe63ab1e9\n      eq\n      tag_31\n      jumpi\n      jump(tag_2)\n    tag_38:\n      dup1\n      0x98d78f51\n      gt\n      tag_40\n      jumpi\n      dup1\n      0x98d78f51\n      eq\n      tag_24\n      jumpi\n      dup1\n      0x9fa3cda1\n      eq\n      tag_25\n      jumpi\n      dup1\n      0xa22cb465\n      eq\n      tag_26\n      jumpi\n      dup1\n      0xb8a22687\n      eq\n      tag_27\n      jumpi\n      jump(tag_2)\n    tag_40:\n      dup1\n      0x715018a6\n      eq\n      tag_20\n      jumpi\n      dup1\n      0x7f345710\n      eq\n      tag_21\n      jumpi\n      dup1\n      0x8da5cb5b\n      eq\n      tag_22\n      jumpi\n      dup1\n      0x95d89b41\n      eq\n      tag_23\n      jumpi\n      jump(tag_2)\n    tag_37:\n      dup1\n      0x2eb2c2d6\n      gt\n      tag_41\n      jumpi\n      dup1\n      0x3ccfd60b\n      gt\n      tag_42\n      jumpi\n      dup1\n      0x3ccfd60b\n      eq\n      tag_15\n      jumpi\n      dup1\n      0x3dbd5921\n      eq\n      tag_16\n      jumpi\n      dup1\n      0x430bf08a\n      eq\n      tag_17\n      jumpi\n      dup1\n      0x4e1273f4\n      eq\n      tag_18\n      jumpi\n      dup1\n      0x6817031b\n      eq\n      tag_19\n      jumpi\n      jump(tag_2)\n    tag_42:\n      dup1\n      0x2eb2c2d6\n      eq\n      tag_11\n      jumpi\n      dup1\n      0x317c7f62\n      eq\n      tag_12\n      jumpi\n      dup1\n      0x388b9fe0\n      eq\n      tag_13\n      jumpi\n      dup1\n      0x3c9e6c41\n      eq\n      tag_14\n      jumpi\n      jump(tag_2)\n    tag_41:\n      dup1\n      0x0b22f540\n      gt\n      tag_43\n      jumpi\n      dup1\n      0x0b22f540\n      eq\n      tag_7\n      jumpi\n      dup1\n      0x0e89341c\n      eq\n      tag_8\n      jumpi\n      dup1\n      0x16473cf7\n      eq\n      tag_9\n      jumpi\n      dup1\n      0x22f1e489\n      eq\n      tag_10\n      jumpi\n      jump(tag_2)\n    tag_43:\n      dup1\n      0xfdd58e\n      eq\n      tag_3\n      jumpi\n      dup1\n      0x01ffc9a7\n      eq\n      tag_4\n      jumpi\n      dup1\n      0x06fdde03\n      eq\n      tag_5\n      jumpi\n      dup1\n      0x09a3beef\n      eq\n      tag_6\n      jumpi\n    tag_2:\n      0x00\n      dup1\n      revert\n        /* \"contracts/ERC1155.sol\":1116:1180  mapping(address => mapping(uint256 => uint256)) public balanceOf */\n    tag_3:\n      tag_44\n      0x04\n      dup1\n      calldatasize\n      sub\n      dup2\n      add\n      swap1\n      tag_45\n      swap2\n      swap1\n      tag_46\n      jump\t// in\n    tag_45:\n      tag_47\n      jump\t// in\n    tag_44:\n      mload(0x40)\n      tag_48\n      swap2\n      swap1\n      tag_49\n      jump\t// in\n    tag_48:\n      mload(0x40)\n      dup1\n      swap2\n      sub\n      swap1\n      return\n        /* \"contracts/ERC1155.sol\":4603:4943  function supportsInterface(bytes4 interfaceId) public view virtual returns (bool) {... */\n    tag_4:\n      tag_50\n      0x04\n      dup1\n      calldatasize\n      sub\n      dup2\n      add\n      swap1\n      tag_51\n      swap2\n      swap1\n      tag_52\n      jump\t// in\n    tag_51:\n      tag_53\n      jump\t// in\n    tag_50:\n      mload(0x40)\n      tag_54\n      swap2\n      swap1\n      tag_55\n      jump\t// in\n    tag_54:\n      mload(0x40)\n      dup1\n      swap2\n      sub\n      swap1\n      return\n        /* \"contracts/Test Mint Pass v12A.sol\":1316:1334  string public name */\n    tag_5:\n      tag_56\n      tag_57\n      jump\t// in\n    tag_56:\n      mload(0x40)\n      tag_58\n      swap2\n      swap1\n      tag_59\n      jump\t// in\n    tag_58:\n      mload(0x40)\n      dup1\n      swap2\n      sub\n      swap1\n      return\n        /* \"contracts/Test Mint Pass v12A.sol\":4178:4322  function setTokenURI(string memory _newTokenURI, uint256 tokenId)... */\n    tag_6:\n      tag_60\n      0x04\n      dup1\n      calldatasize\n      sub\n      dup2\n      add\n      swap1\n      tag_61\n      swap2\n      swap1\n      tag_62\n      jump\t// in\n    tag_61:\n      tag_63\n      jump\t// in\n    tag_60:\n      stop\n        /* \"contracts/Test Mint Pass v12A.sol\":2424:2482  mapping(address => uint256) public TestMintPassBlackMinted */\n    tag_7:\n      tag_64\n      0x04\n      dup1\n      calldatasize\n      sub\n      dup2\n      add\n      swap1\n      tag_65\n      swap2\n      swap1\n      tag_66\n      jump\t// in\n    tag_65:\n      tag_67\n      jump\t// in\n    tag_64:\n      mload(0x40)\n      tag_68\n      swap2\n      swap1\n      tag_49\n      jump\t// in\n    tag_68:\n      mload(0x40)\n      dup1\n      swap2\n      sub\n      swap1\n      return\n        /* \"contracts/Test Mint Pass v12A.sol\":6610:6864  function uri(uint256 tokenId)... */\n    tag_8:\n      tag_69\n      0x04\n      dup1\n      calldatasize\n      sub\n      dup2\n      add\n      swap1\n      tag_70\n      swap2\n      swap1\n      tag_71\n      jump\t// in\n    tag_70:\n      tag_72\n      jump\t// in\n    tag_69:\n      mload(0x40)\n      tag_73\n      swap2\n      swap1\n      tag_59\n      jump\t// in\n    tag_73:\n      mload(0x40)\n      dup1\n      swap2\n      sub\n      swap1\n      return\n        /* \"contracts/Test Mint Pass v12A.sol\":4417:4702  function mintScholarship(address to) public onlyOwner {... */\n    tag_9:\n      tag_74\n      0x04\n      dup1\n      calldatasize\n      sub\n      dup2\n      add\n      swap1\n      tag_75\n      swap2\n      swap1\n      tag_66\n      jump\t// in\n    tag_75:\n      tag_76\n      jump\t// in\n    tag_74:\n      stop\n        /* \"contracts/Test Mint Pass v12A.sol\":1976:2024  uint256 public constant TEST_MINT_PASS_BLACK = 1 */\n    tag_10:\n      tag_77\n      tag_78\n      jump\t// in\n    tag_77:\n      mload(0x40)\n      tag_79\n      swap2\n      swap1\n      tag_49\n      jump\t// in\n    tag_79:\n      mload(0x40)\n      dup1\n      swap2\n      sub\n      swap1\n      return\n        /* \"contracts/ERC1155.sol\":2617:3826  function safeBatchTransferFrom(... */\n    tag_11:\n      tag_80\n      0x04\n      dup1\n      calldatasize\n      sub\n      dup2\n      add\n      swap1\n      tag_81\n      swap2\n      swap1\n      tag_82\n      jump\t// in\n    tag_81:\n      tag_83\n      jump\t// in\n    tag_80:\n      stop\n        /* \"contracts/Test Mint Pass v12A.sol\":1644:1703  uint256 public immutable TEST_MINT_PASS_BLUEMaxSupply = 330 */\n    tag_12:\n      tag_84\n      tag_85\n      jump\t// in\n    tag_84:\n      mload(0x40)\n      tag_86\n      swap2\n      swap1\n      tag_49\n      jump\t// in\n    tag_86:\n      mload(0x40)\n      dup1\n      swap2\n      sub\n      swap1\n      return\n        /* \"contracts/Test Mint Pass v12A.sol\":5024:5862  function ownerMint(... */\n    tag_13:\n      tag_87\n      0x04\n      dup1\n      calldatasize\n      sub\n      dup2\n      add\n      swap1\n      tag_88\n      swap2\n      swap1\n      tag_89\n      jump\t// in\n    tag_88:\n      tag_90\n      jump\t// in\n    tag_87:\n      stop\n        /* \"contracts/Test Mint Pass v12A.sol\":1578:1638  uint256 public immutable TEST_MINT_PASS_BLACKMaxSupply = 166 */\n    tag_14:\n      tag_91\n      tag_92\n      jump\t// in\n    tag_91:\n      mload(0x40)\n      tag_93\n      swap2\n      swap1\n      tag_49\n      jump\t// in\n    tag_93:\n      mload(0x40)\n      dup1\n      swap2\n      sub\n      swap1\n      return\n        /* \"contracts/Test Mint Pass v12A.sol\":6124:6309  function withdraw() public onlyOwner {... */\n    tag_15:\n      tag_94\n      tag_95\n      jump\t// in\n    tag_94:\n      stop\n        /* \"contracts/Test Mint Pass v12A.sol\":2030:2077  uint256 public constant TEST_MINT_PASS_BLUE = 2 */\n    tag_16:\n      tag_96\n      tag_97\n      jump\t// in\n    tag_96:\n      mload(0x40)\n      tag_98\n      swap2\n      swap1\n      tag_49\n      jump\t// in\n    tag_98:\n      mload(0x40)\n      dup1\n      swap2\n      sub\n      swap1\n      return\n        /* \"contracts/Test Mint Pass v12A.sol\":1366:1393  address public vaultAddress */\n    tag_17:\n      tag_99\n      tag_100\n      jump\t// in\n    tag_99:\n      mload(0x40)\n      tag_101\n      swap2\n      swap1\n      tag_102\n      jump\t// in\n    tag_101:\n      mload(0x40)\n      dup1\n      swap2\n      sub\n      swap1\n      return\n        /* \"contracts/ERC1155.sol\":3832:4415  function balanceOfBatch(address[] calldata owners, uint256[] calldata ids)... */\n    tag_18:\n      tag_103\n      0x04\n      dup1\n      calldatasize\n      sub\n      dup2\n      add\n      swap1\n      tag_104\n      swap2\n      swap1\n      tag_105\n      jump\t// in\n    tag_104:\n      tag_106\n      jump\t// in\n    tag_103:\n      mload(0x40)\n      tag_107\n      swap2\n      swap1\n      tag_108\n      jump\t// in\n    tag_107:\n      mload(0x40)\n      dup1\n      swap2\n      sub\n      swap1\n      return\n        /* \"contracts/Test Mint Pass v12A.sol\":6407:6510  function setVault(address _vaultAddress) public onlyOwner {... */\n    tag_19:\n      tag_109\n      0x04\n      dup1\n      calldatasize\n      sub\n      dup2\n      add\n      swap1\n      tag_110\n      swap2\n      swap1\n      tag_66\n      jump\t// in\n    tag_110:\n      tag_111\n      jump\t// in\n    tag_109:\n      stop\n        /* \"contracts/Ownable.sol\":1689:1790  function renounceOwnership() public virtual onlyOwner {... */\n    tag_20:\n      tag_112\n      tag_113\n      jump\t// in\n    tag_112:\n      stop\n        /* \"contracts/Test Mint Pass v12A.sol\":921:991  bytes32 public constant URI_SETTER_ROLE = keccak256(\"URI_SETTER_ROLE\") */\n    tag_21:\n      tag_114\n      tag_115\n      jump\t// in\n    tag_114:\n      mload(0x40)\n      tag_116\n      swap2\n      swap1\n      tag_117\n      jump\t// in\n    tag_116:\n      mload(0x40)\n      dup1\n      swap2\n      sub\n      swap1\n      return\n        /* \"contracts/Ownable.sol\":1057:1142  function owner() public view virtual returns (address) {... */\n    tag_22:\n      tag_118\n      tag_119\n      jump\t// in\n    tag_118:\n      mload(0x40)\n      tag_120\n      swap2\n      swap1\n      tag_102\n      jump\t// in\n    tag_120:\n      mload(0x40)\n      dup1\n      swap2\n      sub\n      swap1\n      return\n        /* \"contracts/Test Mint Pass v12A.sol\":1340:1360  string public symbol */\n    tag_23:\n      tag_121\n      tag_122\n      jump\t// in\n    tag_121:\n      mload(0x40)\n      tag_123\n      swap2\n      swap1\n      tag_59\n      jump\t// in\n    tag_123:\n      mload(0x40)\n      dup1\n      swap2\n      sub\n      swap1\n      return\n        /* \"contracts/Test Mint Pass v12A.sol\":1709:1775  uint256 public immutable TEST_MINT_PASS_BLACKScholarshipTotal = 17 */\n    tag_24:\n      tag_124\n      tag_125\n      jump\t// in\n    tag_124:\n      mload(0x40)\n      tag_126\n      swap2\n      swap1\n      tag_49\n      jump\t// in\n    tag_126:\n      mload(0x40)\n      dup1\n      swap2\n      sub\n      swap1\n      return\n        /* \"contracts/Test Mint Pass v12A.sol\":2361:2418  mapping(address => uint256) public TestMintPassBlueMinted */\n    tag_25:\n      tag_127\n      0x04\n      dup1\n      calldatasize\n      sub\n      dup2\n      add\n      swap1\n      tag_128\n      swap2\n      swap1\n      tag_66\n      jump\t// in\n    tag_128:\n      tag_129\n      jump\t// in\n    tag_127:\n      mload(0x40)\n      tag_130\n      swap2\n      swap1\n      tag_49\n      jump\t// in\n    tag_130:\n      mload(0x40)\n      dup1\n      swap2\n      sub\n      swap1\n      return\n        /* \"contracts/ERC1155.sol\":1703:1906  function setApprovalForAll(address operator, bool approved) public virtual {... */\n    tag_26:\n      tag_131\n      0x04\n      dup1\n      calldatasize\n      sub\n      dup2\n      add\n      swap1\n      tag_132\n      swap2\n      swap1\n      tag_133\n      jump\t// in\n    tag_132:\n      tag_134\n      jump\t// in\n    tag_131:\n      stop\n        /* \"contracts/Test Mint Pass v12A.sol\":1915:1970  uint256 public immutable TEST_MINT_PASS_BLUETokenId = 2 */\n    tag_27:\n      tag_135\n      tag_136\n      jump\t// in\n    tag_135:\n      mload(0x40)\n      tag_137\n      swap2\n      swap1\n      tag_49\n      jump\t// in\n    tag_137:\n      mload(0x40)\n      dup1\n      swap2\n      sub\n      swap1\n      return\n        /* \"contracts/Test Mint Pass v12A.sol\":3712:3823  function totalSupply(uint256 id) public view virtual returns (uint256) {... */\n    tag_28:\n      tag_138\n      0x04\n      dup1\n      calldatasize\n      sub\n      dup2\n      add\n      swap1\n      tag_139\n      swap2\n      swap1\n      tag_71\n      jump\t// in\n    tag_139:\n      tag_140\n      jump\t// in\n    tag_138:\n      mload(0x40)\n      tag_141\n      swap2\n      swap1\n      tag_49\n      jump\t// in\n    tag_141:\n      mload(0x40)\n      dup1\n      swap2\n      sub\n      swap1\n      return\n        /* \"contracts/Test Mint Pass v12A.sol\":2313:2355  mapping(uint256 => string) public tokenURI */\n    tag_29:\n      tag_142\n      0x04\n      dup1\n      calldatasize\n      sub\n      dup2\n      add\n      swap1\n      tag_143\n      swap2\n      swap1\n      tag_71\n      jump\t// in\n    tag_143:\n      tag_144\n      jump\t// in\n    tag_142:\n      mload(0x40)\n      tag_145\n      swap2\n      swap1\n      tag_59\n      jump\t// in\n    tag_145:\n      mload(0x40)\n      dup1\n      swap2\n      sub\n      swap1\n      return\n        /* \"contracts/Test Mint Pass v12A.sol\":1065:1127  bytes32 public constant MINTER_ROLE = keccak256(\"MINTER_ROLE\") */\n    tag_30:\n      tag_146\n      tag_147\n      jump\t// in\n    tag_146:\n      mload(0x40)\n      tag_148\n      swap2\n      swap1\n      tag_117\n      jump\t// in\n    tag_148:\n      mload(0x40)\n      dup1\n      swap2\n      sub\n      swap1\n      return\n        /* \"contracts/Test Mint Pass v12A.sol\":997:1059  bytes32 public constant PAUSER_ROLE = keccak256(\"PAUSER_ROLE\") */\n    tag_31:\n      tag_149\n      tag_150\n      jump\t// in\n    tag_149:\n      mload(0x40)\n      tag_151\n      swap2\n      swap1\n      tag_117\n      jump\t// in\n    tag_151:\n      mload(0x40)\n      dup1\n      swap2\n      sub\n      swap1\n      return\n        /* \"contracts/ERC1155.sol\":1187:1255  mapping(address => mapping(address => bool)) public isApprovedForAll */\n    tag_32:\n      tag_152\n      0x04\n      dup1\n      calldatasize\n      sub\n      dup2\n      add\n      swap1\n      tag_153\n      swap2\n      swap1\n      tag_154\n      jump\t// in\n    tag_153:\n      tag_155\n      jump\t// in\n    tag_152:\n      mload(0x40)\n      tag_156\n      swap2\n      swap1\n      tag_55\n      jump\t// in\n    tag_156:\n      mload(0x40)\n      dup1\n      swap2\n      sub\n      swap1\n      return\n        /* \"contracts/Test Mint Pass v12A.sol\":1781:1846  uint256 public immutable TEST_MINT_PASS_BLUEScholarshipTotal = 33 */\n    tag_33:\n      tag_157\n      tag_158\n      jump\t// in\n    tag_157:\n      mload(0x40)\n      tag_159\n      swap2\n      swap1\n      tag_49\n      jump\t// in\n    tag_159:\n      mload(0x40)\n      dup1\n      swap2\n      sub\n      swap1\n      return\n        /* \"contracts/Test Mint Pass v12A.sol\":1853:1909  uint256 public immutable TEST_MINT_PASS_BLACKTokenId = 1 */\n    tag_34:\n      tag_160\n      tag_161\n      jump\t// in\n    tag_160:\n      mload(0x40)\n      tag_162\n      swap2\n      swap1\n      tag_49\n      jump\t// in\n    tag_162:\n      mload(0x40)\n      dup1\n      swap2\n      sub\n      swap1\n      return\n        /* \"contracts/ERC1155.sol\":1912:2611  function safeTransferFrom(... */\n    tag_35:\n      tag_163\n      0x04\n      dup1\n      calldatasize\n      sub\n      dup2\n      add\n      swap1\n      tag_164\n      swap2\n      swap1\n      tag_165\n      jump\t// in\n    tag_164:\n      tag_166\n      jump\t// in\n    tag_163:\n      stop\n        /* \"contracts/Ownable.sol\":1939:2137  function transferOwnership(address newOwner) public virtual onlyOwner {... */\n    tag_36:\n      tag_167\n      0x04\n      dup1\n      calldatasize\n      sub\n      dup2\n      add\n      swap1\n      tag_168\n      swap2\n      swap1\n      tag_66\n      jump\t// in\n    tag_168:\n      tag_169\n      jump\t// in\n    tag_167:\n      stop\n        /* \"contracts/ERC1155.sol\":1116:1180  mapping(address => mapping(uint256 => uint256)) public balanceOf */\n    tag_47:\n      mstore(0x20, 0x00)\n      dup2\n      0x00\n      mstore\n      mstore(0x20, keccak256(0x00, 0x40))\n      dup1\n      0x00\n      mstore\n      keccak256(0x00, 0x40)\n      0x00\n      swap2\n      pop\n      swap2\n      pop\n      pop\n      sload\n      dup2\n      jump\t// out\n        /* \"contracts/ERC1155.sol\":4603:4943  function supportsInterface(bytes4 interfaceId) public view virtual returns (bool) {... */\n    tag_53:\n        /* \"contracts/ERC1155.sol\":4679:4683  bool */\n      0x00\n        /* \"contracts/ERC1155.sol\":4729:4739  0x01ffc9a7 */\n      0x01ffc9a7\n        /* \"contracts/ERC1155.sol\":4714:4739  interfaceId == 0x01ffc9a7 */\n      0xe0\n      shl\n        /* \"contracts/ERC1155.sol\":4714:4725  interfaceId */\n      dup3\n        /* \"contracts/ERC1155.sol\":4714:4739  interfaceId == 0x01ffc9a7 */\n      not(0xffffffffffffffffffffffffffffffffffffffffffffffffffffffff)\n      and\n      eq\n        /* \"contracts/ERC1155.sol\":4714:4814  interfaceId == 0x01ffc9a7 || // ERC165 Interface ID for ERC165... */\n      dup1\n      tag_171\n      jumpi\n      pop\n        /* \"contracts/ERC1155.sol\":4804:4814  0xd9b67a26 */\n      0xd9b67a26\n        /* \"contracts/ERC1155.sol\":4789:4814  interfaceId == 0xd9b67a26 */\n      0xe0\n      shl\n        /* \"contracts/ERC1155.sol\":4789:4800  interfaceId */\n      dup3\n        /* \"contracts/ERC1155.sol\":4789:4814  interfaceId == 0xd9b67a26 */\n      not(0xffffffffffffffffffffffffffffffffffffffffffffffffffffffff)\n      and\n      eq\n        /* \"contracts/ERC1155.sol\":4714:4814  interfaceId == 0x01ffc9a7 || // ERC165 Interface ID for ERC165... */\n    tag_171:\n        /* \"contracts/ERC1155.sol\":4714:4890  interfaceId == 0x01ffc9a7 || // ERC165 Interface ID for ERC165... */\n      dup1\n      tag_172\n      jumpi\n      pop\n        /* \"contracts/ERC1155.sol\":4880:4890  0x0e89341c */\n      0x0e89341c\n        /* \"contracts/ERC1155.sol\":4865:4890  interfaceId == 0x0e89341c */\n      0xe0\n      shl\n        /* \"contracts/ERC1155.sol\":4865:4876  interfaceId */\n      dup3\n        /* \"contracts/ERC1155.sol\":4865:4890  interfaceId == 0x0e89341c */\n      not(0xffffffffffffffffffffffffffffffffffffffffffffffffffffffff)\n      and\n      eq\n        /* \"contracts/ERC1155.sol\":4714:4890  interfaceId == 0x01ffc9a7 || // ERC165 Interface ID for ERC165... */\n    tag_172:\n        /* \"contracts/ERC1155.sol\":4695:4890  return... */\n      swap1\n      pop\n        /* \"contracts/ERC1155.sol\":4603:4943  function supportsInterface(bytes4 interfaceId) public view virtual returns (bool) {... */\n      swap2\n      swap1\n      pop\n      jump\t// out\n        /* \"contracts/Test Mint Pass v12A.sol\":1316:1334  string public name */\n    tag_57:\n      0x03\n      dup1\n      sload\n      tag_173\n      swap1\n      tag_174\n      jump\t// in\n    tag_173:\n      dup1\n      0x1f\n      add\n      0x20\n      dup1\n      swap2\n      div\n      mul\n      0x20\n      add\n      mload(0x40)\n      swap1\n      dup2\n      add\n      0x40\n      mstore\n      dup1\n      swap3\n      swap2\n      swap1\n      dup2\n      dup2\n      mstore\n      0x20\n      add\n      dup3\n      dup1\n      sload\n      tag_175\n      swap1\n      tag_174\n      jump\t// in\n    tag_175:\n      dup1\n      iszero\n      tag_176\n      jumpi\n      dup1\n      0x1f\n      lt\n      tag_177\n      jumpi\n      0x0100\n      dup1\n      dup4\n      sload\n      div\n      mul\n      dup4\n      mstore\n      swap2\n      0x20\n      add\n      swap2\n      jump(tag_176)\n    tag_177:\n      dup3\n      add\n      swap2\n      swap1\n      0x00\n      mstore\n      keccak256(0x00, 0x20)\n      swap1\n    tag_178:\n      dup2\n      sload\n      dup2\n      mstore\n      swap1\n      0x01\n      add\n      swap1\n      0x20\n      add\n      dup1\n      dup4\n      gt\n      tag_178\n      jumpi\n      dup3\n      swap1\n      sub\n      0x1f\n      and\n      dup3\n      add\n      swap2\n    tag_176:\n      pop\n      pop\n      pop\n      pop\n      pop\n      dup2\n      jump\t// out\n        /* \"contracts/Test Mint Pass v12A.sol\":4178:4322  function setTokenURI(string memory _newTokenURI, uint256 tokenId)... */\n    tag_63:\n        /* \"contracts/Ownable.sol\":1280:1292  _msgSender() */\n      tag_180\n        /* \"contracts/Ownable.sol\":1280:1290  _msgSender */\n      tag_181\n        /* \"contracts/Ownable.sol\":1280:1292  _msgSender() */\n      jump\t// in\n    tag_180:\n        /* \"contracts/Ownable.sol\":1269:1292  owner() == _msgSender() */\n      0xffffffffffffffffffffffffffffffffffffffff\n      and\n        /* \"contracts/Ownable.sol\":1269:1276  owner() */\n      tag_182\n        /* \"contracts/Ownable.sol\":1269:1274  owner */\n      tag_119\n        /* \"contracts/Ownable.sol\":1269:1276  owner() */\n      jump\t// in\n    tag_182:\n        /* \"contracts/Ownable.sol\":1269:1292  owner() == _msgSender() */\n      0xffffffffffffffffffffffffffffffffffffffff\n      and\n      eq\n        /* \"contracts/Ownable.sol\":1261:1329  require(owner() == _msgSender(), \"Ownable: caller is not the owner\") */\n      tag_183\n      jumpi\n      mload(0x40)\n      0x08c379a000000000000000000000000000000000000000000000000000000000\n      dup2\n      mstore\n      0x04\n      add\n      tag_184\n      swap1\n      tag_185\n      jump\t// in\n    tag_184:\n      mload(0x40)\n      dup1\n      swap2\n      sub\n      swap1\n      revert\n    tag_183:\n        /* \"contracts/Test Mint Pass v12A.sol\":4303:4315  _newTokenURI */\n      dup2\n        /* \"contracts/Test Mint Pass v12A.sol\":4283:4291  tokenURI */\n      0x07\n        /* \"contracts/Test Mint Pass v12A.sol\":4283:4300  tokenURI[tokenId] */\n      0x00\n        /* \"contracts/Test Mint Pass v12A.sol\":4292:4299  tokenId */\n      dup4\n        /* \"contracts/Test Mint Pass v12A.sol\":4283:4300  tokenURI[tokenId] */\n      dup2\n      mstore\n      0x20\n      add\n      swap1\n      dup2\n      mstore\n      0x20\n      add\n      0x00\n      keccak256\n        /* \"contracts/Test Mint Pass v12A.sol\":4283:4315  tokenURI[tokenId] = _newTokenURI */\n      swap1\n      dup1\n      mload\n      swap1\n      0x20\n      add\n      swap1\n      tag_187\n      swap3\n      swap2\n      swap1\n      tag_188\n      jump\t// in\n    tag_187:\n      pop\n        /* \"contracts/Test Mint Pass v12A.sol\":4178:4322  function setTokenURI(string memory _newTokenURI, uint256 tokenId)... */\n      pop\n      pop\n      jump\t// out\n        /* \"contracts/Test Mint Pass v12A.sol\":2424:2482  mapping(address => uint256) public TestMintPassBlackMinted */\n    tag_67:\n      mstore(0x20, 0x09)\n      dup1\n      0x00\n      mstore\n      keccak256(0x00, 0x40)\n      0x00\n      swap2\n      pop\n      swap1\n      pop\n      sload\n      dup2\n      jump\t// out\n        /* \"contracts/Test Mint Pass v12A.sol\":6610:6864  function uri(uint256 tokenId)... */\n    tag_72:\n        /* \"contracts/Test Mint Pass v12A.sol\":6718:6731  string memory */\n      0x60\n        /* \"contracts/Test Mint Pass v12A.sol\":6786:6787  0 */\n      0x00\n        /* \"contracts/Test Mint Pass v12A.sol\":6757:6765  tokenURI */\n      0x07\n        /* \"contracts/Test Mint Pass v12A.sol\":6757:6774  tokenURI[tokenId] */\n      0x00\n        /* \"contracts/Test Mint Pass v12A.sol\":6766:6773  tokenId */\n      dup5\n        /* \"contracts/Test Mint Pass v12A.sol\":6757:6774  tokenURI[tokenId] */\n      dup2\n      mstore\n      0x20\n      add\n      swap1\n      dup2\n      mstore\n      0x20\n      add\n      0x00\n      keccak256\n        /* \"contracts/Test Mint Pass v12A.sol\":6751:6782  bytes(tokenURI[tokenId]).length */\n      dup1\n      sload\n      tag_190\n      swap1\n      tag_174\n      jump\t// in\n    tag_190:\n      swap1\n      pop\n        /* \"contracts/Test Mint Pass v12A.sol\":6751:6787  bytes(tokenURI[tokenId]).length == 0 */\n      eq\n        /* \"contracts/Test Mint Pass v12A.sol\":6747:6823  if (bytes(tokenURI[tokenId]).length == 0) {... */\n      iszero\n      tag_191\n      jumpi\n        /* \"contracts/Test Mint Pass v12A.sol\":6803:6812  return \"\" */\n      mload(0x40)\n      dup1\n      0x20\n      add\n      0x40\n      mstore\n      dup1\n      0x00\n      dup2\n      mstore\n      pop\n      swap1\n      pop\n      jump(tag_189)\n        /* \"contracts/Test Mint Pass v12A.sol\":6747:6823  if (bytes(tokenURI[tokenId]).length == 0) {... */\n    tag_191:\n        /* \"contracts/Test Mint Pass v12A.sol\":6840:6848  tokenURI */\n      0x07\n        /* \"contracts/Test Mint Pass v12A.sol\":6840:6857  tokenURI[tokenId] */\n      0x00\n        /* \"contracts/Test Mint Pass v12A.sol\":6849:6856  tokenId */\n      dup4\n        /* \"contracts/Test Mint Pass v12A.sol\":6840:6857  tokenURI[tokenId] */\n      dup2\n      mstore\n      0x20\n      add\n      swap1\n      dup2\n      mstore\n      0x20\n      add\n      0x00\n      keccak256\n        /* \"contracts/Test Mint Pass v12A.sol\":6833:6857  return tokenURI[tokenId] */\n      dup1\n      sload\n      tag_192\n      swap1\n      tag_174\n      jump\t// in\n    tag_192:\n      dup1\n      0x1f\n      add\n      0x20\n      dup1\n      swap2\n      div\n      mul\n      0x20\n      add\n      mload(0x40)\n      swap1\n      dup2\n      add\n      0x40\n      mstore\n      dup1\n      swap3\n      swap2\n      swap1\n      dup2\n      dup2\n      mstore\n      0x20\n      add\n      dup3\n      dup1\n      sload\n      tag_193\n      swap1\n      tag_174\n      jump\t// in\n    tag_193:\n      dup1\n      iszero\n      tag_194\n      jumpi\n      dup1\n      0x1f\n      lt\n      tag_195\n      jumpi\n      0x0100\n      dup1\n      dup4\n      sload\n      div\n      mul\n      dup4\n      mstore\n      swap2\n      0x20\n      add\n      swap2\n      jump(tag_194)\n    tag_195:\n      dup3\n      add\n      swap2\n      swap1\n      0x00\n      mstore\n      keccak256(0x00, 0x20)\n      swap1\n    tag_196:\n      dup2\n      sload\n      dup2\n      mstore\n      swap1\n      0x01\n      add\n      swap1\n      0x20\n      add\n      dup1\n      dup4\n      gt\n      tag_196\n      jumpi\n      dup3\n      swap1\n      sub\n      0x1f\n      and\n      dup3\n      add\n      swap2\n    tag_194:\n      pop\n      pop\n      pop\n      pop\n      pop\n      swap1\n      pop\n        /* \"contracts/Test Mint Pass v12A.sol\":6610:6864  function uri(uint256 tokenId)... */\n    tag_189:\n      swap2\n      swap1\n      pop\n      jump\t// out\n        /* \"contracts/Test Mint Pass v12A.sol\":4417:4702  function mintScholarship(address to) public onlyOwner {... */\n    tag_76:\n        /* \"contracts/Ownable.sol\":1280:1292  _msgSender() */\n      tag_198\n        /* \"contracts/Ownable.sol\":1280:1290  _msgSender */\n      tag_181\n        /* \"contracts/Ownable.sol\":1280:1292  _msgSender() */\n      jump\t// in\n    tag_198:\n        /* \"contracts/Ownable.sol\":1269:1292  owner() == _msgSender() */\n      0xffffffffffffffffffffffffffffffffffffffff\n      and\n        /* \"contracts/Ownable.sol\":1269:1276  owner() */\n      tag_199\n        /* \"contracts/Ownable.sol\":1269:1274  owner */\n      tag_119\n        /* \"contracts/Ownable.sol\":1269:1276  owner() */\n      jump\t// in\n    tag_199:\n        /* \"contracts/Ownable.sol\":1269:1292  owner() == _msgSender() */\n      0xffffffffffffffffffffffffffffffffffffffff\n      and\n      eq\n        /* \"contracts/Ownable.sol\":1261:1329  require(owner() == _msgSender(), \"Ownable: caller is not the owner\") */\n      tag_200\n      jumpi\n      mload(0x40)\n      0x08c379a000000000000000000000000000000000000000000000000000000000\n      dup2\n      mstore\n      0x04\n      add\n      tag_201\n      swap1\n      tag_185\n      jump\t// in\n    tag_201:\n      mload(0x40)\n      dup1\n      swap2\n      sub\n      swap1\n      revert\n    tag_200:\n        /* \"contracts/Test Mint Pass v12A.sol\":4503:4583  _mint(to, TEST_MINT_PASS_BLACKTokenId, TEST_MINT_PASS_BLACKScholarshipTotal, \"\") */\n      tag_203\n        /* \"contracts/Test Mint Pass v12A.sol\":4509:4511  to */\n      dup2\n        /* \"contracts/Test Mint Pass v12A.sol\":4513:4540  TEST_MINT_PASS_BLACKTokenId */\n      immutable(\"0x4f722aad0315bc3832e551ccf6da3e098baeb8ee055023fde26c377410bf01b8\")\n        /* \"contracts/Test Mint Pass v12A.sol\":4542:4578  TEST_MINT_PASS_BLACKScholarshipTotal */\n      immutable(\"0x923831463c3a49e9922442ac185c857970685647ffa411016bb09cd1e1a613f6\")\n        /* \"contracts/Test Mint Pass v12A.sol\":4503:4583  _mint(to, TEST_MINT_PASS_BLACKTokenId, TEST_MINT_PASS_BLACKScholarshipTotal, \"\") */\n      mload(0x40)\n      dup1\n      0x20\n      add\n      0x40\n      mstore\n      dup1\n      0x00\n      dup2\n      mstore\n      pop\n        /* \"contracts/Test Mint Pass v12A.sol\":4503:4508  _mint */\n      tag_204\n        /* \"contracts/Test Mint Pass v12A.sol\":4503:4583  _mint(to, TEST_MINT_PASS_BLACKTokenId, TEST_MINT_PASS_BLACKScholarshipTotal, \"\") */\n      jump\t// in\n    tag_203:\n        /* \"contracts/Test Mint Pass v12A.sol\":4617:4695  _mint(to, TEST_MINT_PASS_BLUETokenId, TEST_MINT_PASS_BLUEScholarshipTotal, \"\") */\n      tag_205\n        /* \"contracts/Test Mint Pass v12A.sol\":4623:4625  to */\n      dup2\n        /* \"contracts/Test Mint Pass v12A.sol\":4627:4653  TEST_MINT_PASS_BLUETokenId */\n      immutable(\"0xc12e889213a54234ecab10d0fd59c43e0e5b48719136487538674073c10f27f2\")\n        /* \"contracts/Test Mint Pass v12A.sol\":4655:4690  TEST_MINT_PASS_BLUEScholarshipTotal */\n      immutable(\"0xe5e82e592b73b06cea933a767f307627bbcb87945b2bc32056ccefc4b7919085\")\n        /* \"contracts/Test Mint Pass v12A.sol\":4617:4695  _mint(to, TEST_MINT_PASS_BLUETokenId, TEST_MINT_PASS_BLUEScholarshipTotal, \"\") */\n      mload(0x40)\n      dup1\n      0x20\n      add\n      0x40\n      mstore\n      dup1\n      0x00\n      dup2\n      mstore\n      pop\n        /* \"contracts/Test Mint Pass v12A.sol\":4617:4622  _mint */\n      tag_204\n        /* \"contracts/Test Mint Pass v12A.sol\":4617:4695  _mint(to, TEST_MINT_PASS_BLUETokenId, TEST_MINT_PASS_BLUEScholarshipTotal, \"\") */\n      jump\t// in\n    tag_205:\n        /* \"contracts/Test Mint Pass v12A.sol\":4417:4702  function mintScholarship(address to) public onlyOwner {... */\n      pop\n      jump\t// out\n        /* \"contracts/Test Mint Pass v12A.sol\":1976:2024  uint256 public constant TEST_MINT_PASS_BLACK = 1 */\n    tag_78:\n        /* \"contracts/Test Mint Pass v12A.sol\":2023:2024  1 */\n      0x01\n        /* \"contracts/Test Mint Pass v12A.sol\":1976:2024  uint256 public constant TEST_MINT_PASS_BLACK = 1 */\n      dup2\n      jump\t// out\n        /* \"contracts/ERC1155.sol\":2617:3826  function safeBatchTransferFrom(... */\n    tag_83:\n        /* \"contracts/ERC1155.sol\":2840:2847  amounts */\n      dup4\n      dup4\n        /* \"contracts/ERC1155.sol\":2840:2854  amounts.length */\n      swap1\n      pop\n        /* \"contracts/ERC1155.sol\":2826:2829  ids */\n      dup7\n      dup7\n        /* \"contracts/ERC1155.sol\":2826:2836  ids.length */\n      swap1\n      pop\n        /* \"contracts/ERC1155.sol\":2826:2854  ids.length == amounts.length */\n      eq\n        /* \"contracts/ERC1155.sol\":2818:2874  require(ids.length == amounts.length, \"LENGTH_MISMATCH\") */\n      tag_207\n      jumpi\n      mload(0x40)\n      0x08c379a000000000000000000000000000000000000000000000000000000000\n      dup2\n      mstore\n      0x04\n      add\n      tag_208\n      swap1\n      tag_209\n      jump\t// in\n    tag_208:\n      mload(0x40)\n      dup1\n      swap2\n      sub\n      swap1\n      revert\n    tag_207:\n        /* \"contracts/ERC1155.sol\":2907:2911  from */\n      dup8\n        /* \"contracts/ERC1155.sol\":2893:2911  msg.sender == from */\n      0xffffffffffffffffffffffffffffffffffffffff\n      and\n        /* \"contracts/ERC1155.sol\":2893:2903  msg.sender */\n      caller\n        /* \"contracts/ERC1155.sol\":2893:2911  msg.sender == from */\n      0xffffffffffffffffffffffffffffffffffffffff\n      and\n      eq\n        /* \"contracts/ERC1155.sol\":2893:2949  msg.sender == from || isApprovedForAll[from][msg.sender] */\n      dup1\n      tag_210\n      jumpi\n      pop\n        /* \"contracts/ERC1155.sol\":2915:2931  isApprovedForAll */\n      0x01\n        /* \"contracts/ERC1155.sol\":2915:2937  isApprovedForAll[from] */\n      0x00\n        /* \"contracts/ERC1155.sol\":2932:2936  from */\n      dup10\n        /* \"contracts/ERC1155.sol\":2915:2937  isApprovedForAll[from] */\n      0xffffffffffffffffffffffffffffffffffffffff\n      and\n      0xffffffffffffffffffffffffffffffffffffffff\n      and\n      dup2\n      mstore\n      0x20\n      add\n      swap1\n      dup2\n      mstore\n      0x20\n      add\n      0x00\n      keccak256\n        /* \"contracts/ERC1155.sol\":2915:2949  isApprovedForAll[from][msg.sender] */\n      0x00\n        /* \"contracts/ERC1155.sol\":2938:2948  msg.sender */\n      caller\n        /* \"contracts/ERC1155.sol\":2915:2949  isApprovedForAll[from][msg.sender] */\n      0xffffffffffffffffffffffffffffffffffffffff\n      and\n      0xffffffffffffffffffffffffffffffffffffffff\n      and\n      dup2\n      mstore\n      0x20\n      add\n      swap1\n      dup2\n      mstore\n      0x20\n      add\n      0x00\n      keccak256\n      0x00\n      swap1\n      sload\n      swap1\n      0x0100\n      exp\n      swap1\n      div\n      0xff\n      and\n        /* \"contracts/ERC1155.sol\":2893:2949  msg.sender == from || isApprovedForAll[from][msg.sender] */\n    tag_210:\n        /* \"contracts/ERC1155.sol\":2885:2968  require(msg.sender == from || isApprovedForAll[from][msg.sender], \"NOT_AUTHORIZED\") */\n      tag_211\n      jumpi\n      mload(0x40)\n      0x08c379a000000000000000000000000000000000000000000000000000000000\n      dup2\n      mstore\n      0x04\n      add\n      tag_212\n      swap1\n      tag_213\n      jump\t// in\n    tag_212:\n      mload(0x40)\n      dup1\n      swap2\n      sub\n      swap1\n      revert\n    tag_211:\n        /* \"contracts/ERC1155.sol\":3050:3060  uint256 id */\n      0x00\n        /* \"contracts/ERC1155.sol\":3070:3084  uint256 amount */\n      dup1\n        /* \"contracts/ERC1155.sol\":3100:3109  uint256 i */\n      0x00\n        /* \"contracts/ERC1155.sol\":3095:3447  for (uint256 i = 0; i < ids.length; ) {... */\n    tag_214:\n        /* \"contracts/ERC1155.sol\":3119:3122  ids */\n      dup9\n      dup9\n        /* \"contracts/ERC1155.sol\":3119:3129  ids.length */\n      swap1\n      pop\n        /* \"contracts/ERC1155.sol\":3115:3116  i */\n      dup2\n        /* \"contracts/ERC1155.sol\":3115:3129  i < ids.length */\n      lt\n        /* \"contracts/ERC1155.sol\":3095:3447  for (uint256 i = 0; i < ids.length; ) {... */\n      iszero\n      tag_215\n      jumpi\n        /* \"contracts/ERC1155.sol\":3152:3155  ids */\n      dup9\n      dup9\n        /* \"contracts/ERC1155.sol\":3156:3157  i */\n      dup3\n        /* \"contracts/ERC1155.sol\":3152:3158  ids[i] */\n      dup2\n      dup2\n      lt\n      tag_217\n      jumpi\n      tag_218\n      tag_219\n      jump\t// in\n    tag_218:\n    tag_217:\n      swap1\n      pop\n      0x20\n      mul\n      add\n      calldataload\n        /* \"contracts/ERC1155.sol\":3147:3158  id = ids[i] */\n      swap3\n      pop\n        /* \"contracts/ERC1155.sol\":3181:3188  amounts */\n      dup7\n      dup7\n        /* \"contracts/ERC1155.sol\":3189:3190  i */\n      dup3\n        /* \"contracts/ERC1155.sol\":3181:3191  amounts[i] */\n      dup2\n      dup2\n      lt\n      tag_220\n      jumpi\n      tag_221\n      tag_219\n      jump\t// in\n    tag_221:\n    tag_220:\n      swap1\n      pop\n      0x20\n      mul\n      add\n      calldataload\n        /* \"contracts/ERC1155.sol\":3172:3191  amount = amounts[i] */\n      swap2\n      pop\n        /* \"contracts/ERC1155.sol\":3229:3235  amount */\n      dup2\n        /* \"contracts/ERC1155.sol\":3206:3215  balanceOf */\n      0x00\n        /* \"contracts/ERC1155.sol\":3206:3221  balanceOf[from] */\n      dup1\n        /* \"contracts/ERC1155.sol\":3216:3220  from */\n      dup14\n        /* \"contracts/ERC1155.sol\":3206:3221  balanceOf[from] */\n      0xffffffffffffffffffffffffffffffffffffffff\n      and\n      0xffffffffffffffffffffffffffffffffffffffff\n      and\n      dup2\n      mstore\n      0x20\n      add\n      swap1\n      dup2\n      mstore\n      0x20\n      add\n      0x00\n      keccak256\n        /* \"contracts/ERC1155.sol\":3206:3225  balanceOf[from][id] */\n      0x00\n        /* \"contracts/ERC1155.sol\":3222:3224  id */\n      dup6\n        /* \"contracts/ERC1155.sol\":3206:3225  balanceOf[from][id] */\n      dup2\n      mstore\n      0x20\n      add\n      swap1\n      dup2\n      mstore\n      0x20\n      add\n      0x00\n      keccak256\n      0x00\n        /* \"contracts/ERC1155.sol\":3206:3235  balanceOf[from][id] -= amount */\n      dup3\n      dup3\n      sload\n      tag_222\n      swap2\n      swap1\n      tag_223\n      jump\t// in\n    tag_222:\n      swap3\n      pop\n      pop\n      dup2\n      swap1\n      sstore\n      pop\n        /* \"contracts/ERC1155.sol\":3270:3276  amount */\n      dup2\n        /* \"contracts/ERC1155.sol\":3249:3258  balanceOf */\n      0x00\n        /* \"contracts/ERC1155.sol\":3249:3262  balanceOf[to] */\n      dup1\n        /* \"contracts/ERC1155.sol\":3259:3261  to */\n      dup13\n        /* \"contracts/ERC1155.sol\":3249:3262  balanceOf[to] */\n      0xffffffffffffffffffffffffffffffffffffffff\n      and\n      0xffffffffffffffffffffffffffffffffffffffff\n      and\n      dup2\n      mstore\n      0x20\n      add\n      swap1\n      dup2\n      mstore\n      0x20\n      add\n      0x00\n      keccak256\n        /* \"contracts/ERC1155.sol\":3249:3266  balanceOf[to][id] */\n      0x00\n        /* \"contracts/ERC1155.sol\":3263:3265  id */\n      dup6\n        /* \"contracts/ERC1155.sol\":3249:3266  balanceOf[to][id] */\n      dup2\n      mstore\n      0x20\n      add\n      swap1\n      dup2\n      mstore\n      0x20\n      add\n      0x00\n      keccak256\n      0x00\n        /* \"contracts/ERC1155.sol\":3249:3276  balanceOf[to][id] += amount */\n      dup3\n      dup3\n      sload\n      tag_224\n      swap2\n      swap1\n      tag_225\n      jump\t// in\n    tag_224:\n      swap3\n      pop\n      pop\n      dup2\n      swap1\n      sstore\n      pop\n        /* \"contracts/ERC1155.sol\":3419:3422  ++i */\n      dup1\n      0x01\n      add\n      swap1\n      pop\n        /* \"contracts/ERC1155.sol\":3095:3447  for (uint256 i = 0; i < ids.length; ) {... */\n      jump(tag_214)\n    tag_215:\n      pop\n        /* \"contracts/ERC1155.sol\":3494:3496  to */\n      dup9\n        /* \"contracts/ERC1155.sol\":3462:3511  TransferBatch(msg.sender, from, to, ids, amounts) */\n      0xffffffffffffffffffffffffffffffffffffffff\n      and\n        /* \"contracts/ERC1155.sol\":3488:3492  from */\n      dup11\n        /* \"contracts/ERC1155.sol\":3462:3511  TransferBatch(msg.sender, from, to, ids, amounts) */\n      0xffffffffffffffffffffffffffffffffffffffff\n      and\n        /* \"contracts/ERC1155.sol\":3476:3486  msg.sender */\n      caller\n        /* \"contracts/ERC1155.sol\":3462:3511  TransferBatch(msg.sender, from, to, ids, amounts) */\n      0xffffffffffffffffffffffffffffffffffffffff\n      and\n      0x4a39dc06d4c0dbc64b70af90fd698a233a518aa5d07e595d983b8c0526c8f7fb\n        /* \"contracts/ERC1155.sol\":3498:3501  ids */\n      dup12\n      dup12\n        /* \"contracts/ERC1155.sol\":3503:3510  amounts */\n      dup12\n      dup12\n        /* \"contracts/ERC1155.sol\":3462:3511  TransferBatch(msg.sender, from, to, ids, amounts) */\n      mload(0x40)\n      tag_226\n      swap5\n      swap4\n      swap3\n      swap2\n      swap1\n      tag_227\n      jump\t// in\n    tag_226:\n      mload(0x40)\n      dup1\n      swap2\n      sub\n      swap1\n      log4\n        /* \"contracts/ERC1155.sol\":3561:3562  0 */\n      0x00\n        /* \"contracts/ERC1155.sol\":3543:3545  to */\n      dup10\n        /* \"contracts/ERC1155.sol\":3543:3557  to.code.length */\n      0xffffffffffffffffffffffffffffffffffffffff\n      and\n      extcodesize\n        /* \"contracts/ERC1155.sol\":3543:3562  to.code.length == 0 */\n      eq\n        /* \"contracts/ERC1155.sol\":3543:3777  to.code.length == 0... */\n      tag_228\n      jumpi\n        /* \"contracts/ERC1155.sol\":3725:3777  ERC1155TokenReceiver.onERC1155BatchReceived.selector */\n      shl(0xe0, 0xbc197c81)\n        /* \"contracts/ERC1155.sol\":3616:3777  ERC1155TokenReceiver(to).onERC1155BatchReceived(msg.sender, from, ids, amounts, data) ==... */\n      not(0xffffffffffffffffffffffffffffffffffffffffffffffffffffffff)\n      and\n        /* \"contracts/ERC1155.sol\":3637:3639  to */\n      dup10\n        /* \"contracts/ERC1155.sol\":3616:3663  ERC1155TokenReceiver(to).onERC1155BatchReceived */\n      0xffffffffffffffffffffffffffffffffffffffff\n      and\n      0xbc197c81\n        /* \"contracts/ERC1155.sol\":3664:3674  msg.sender */\n      caller\n        /* \"contracts/ERC1155.sol\":3676:3680  from */\n      dup14\n        /* \"contracts/ERC1155.sol\":3682:3685  ids */\n      dup13\n      dup13\n        /* \"contracts/ERC1155.sol\":3687:3694  amounts */\n      dup13\n      dup13\n        /* \"contracts/ERC1155.sol\":3696:3700  data */\n      dup13\n      dup13\n        /* \"contracts/ERC1155.sol\":3616:3701  ERC1155TokenReceiver(to).onERC1155BatchReceived(msg.sender, from, ids, amounts, data) */\n      mload(0x40)\n      dup10\n      0xffffffff\n      and\n      0xe0\n      shl\n      dup2\n      mstore\n      0x04\n      add\n      tag_229\n      swap9\n      swap8\n      swap7\n      swap6\n      swap5\n      swap4\n      swap3\n      swap2\n      swap1\n      tag_230\n      jump\t// in\n    tag_229:\n      0x20\n      mload(0x40)\n      dup1\n      dup4\n      sub\n      dup2\n      0x00\n      dup8\n      gas\n      call\n      iszero\n      dup1\n      iszero\n      tag_232\n      jumpi\n      returndatasize\n      0x00\n      dup1\n      returndatacopy\n      revert(0x00, returndatasize)\n    tag_232:\n      pop\n      pop\n      pop\n      pop\n      mload(0x40)\n      returndatasize\n      not(0x1f)\n      0x1f\n      dup3\n      add\n      and\n      dup3\n      add\n      dup1\n      0x40\n      mstore\n      pop\n      dup2\n      add\n      swap1\n      tag_233\n      swap2\n      swap1\n      tag_234\n      jump\t// in\n    tag_233:\n        /* \"contracts/ERC1155.sol\":3616:3777  ERC1155TokenReceiver(to).onERC1155BatchReceived(msg.sender, from, ids, amounts, data) ==... */\n      not(0xffffffffffffffffffffffffffffffffffffffffffffffffffffffff)\n      and\n      eq\n        /* \"contracts/ERC1155.sol\":3543:3777  to.code.length == 0... */\n      jump(tag_235)\n    tag_228:\n        /* \"contracts/ERC1155.sol\":3595:3596  0 */\n      0x00\n        /* \"contracts/ERC1155.sol\":3581:3597  to != address(0) */\n      0xffffffffffffffffffffffffffffffffffffffff\n      and\n        /* \"contracts/ERC1155.sol\":3581:3583  to */\n      dup10\n        /* \"contracts/ERC1155.sol\":3581:3597  to != address(0) */\n      0xffffffffffffffffffffffffffffffffffffffff\n      and\n      eq\n      iszero\n        /* \"contracts/ERC1155.sol\":3543:3777  to.code.length == 0... */\n    tag_235:\n        /* \"contracts/ERC1155.sol\":3522:3819  require(... */\n      tag_236\n      jumpi\n      mload(0x40)\n      0x08c379a000000000000000000000000000000000000000000000000000000000\n      dup2\n      mstore\n      0x04\n      add\n      tag_237\n      swap1\n      tag_238\n      jump\t// in\n    tag_237:\n      mload(0x40)\n      dup1\n      swap2\n      sub\n      swap1\n      revert\n    tag_236:\n        /* \"contracts/ERC1155.sol\":2808:3826  {... */\n      pop\n      pop\n        /* \"contracts/ERC1155.sol\":2617:3826  function safeBatchTransferFrom(... */\n      pop\n      pop\n      pop\n      pop\n      pop\n      pop\n      pop\n      pop\n      jump\t// out\n        /* \"contracts/Test Mint Pass v12A.sol\":1644:1703  uint256 public immutable TEST_MINT_PASS_BLUEMaxSupply = 330 */\n    tag_85:\n      immutable(\"0x033d1c3708859491ac29ccd35510f6bd0beea213c20356f3746be06c273b5a0b\")\n      dup2\n      jump\t// out\n        /* \"contracts/Test Mint Pass v12A.sol\":5024:5862  function ownerMint(... */\n    tag_90:\n        /* \"contracts/Ownable.sol\":1280:1292  _msgSender() */\n      tag_240\n        /* \"contracts/Ownable.sol\":1280:1290  _msgSender */\n      tag_181\n        /* \"contracts/Ownable.sol\":1280:1292  _msgSender() */\n      jump\t// in\n    tag_240:\n        /* \"contracts/Ownable.sol\":1269:1292  owner() == _msgSender() */\n      0xffffffffffffffffffffffffffffffffffffffff\n      and\n        /* \"contracts/Ownable.sol\":1269:1276  owner() */\n      tag_241\n        /* \"contracts/Ownable.sol\":1269:1274  owner */\n      tag_119\n        /* \"contracts/Ownable.sol\":1269:1276  owner() */\n      jump\t// in\n    tag_241:\n        /* \"contracts/Ownable.sol\":1269:1292  owner() == _msgSender() */\n      0xffffffffffffffffffffffffffffffffffffffff\n      and\n      eq\n        /* \"contracts/Ownable.sol\":1261:1329  require(owner() == _msgSender(), \"Ownable: caller is not the owner\") */\n      tag_242\n      jumpi\n      mload(0x40)\n      0x08c379a000000000000000000000000000000000000000000000000000000000\n      dup2\n      mstore\n      0x04\n      add\n      tag_243\n      swap1\n      tag_185\n      jump\t// in\n    tag_243:\n      mload(0x40)\n      dup1\n      swap2\n      sub\n      swap1\n      revert\n    tag_242:\n        /* \"contracts/Test Mint Pass v12A.sol\":5177:5203  TEST_MINT_PASS_BLUETokenId */\n      immutable(\"0xc12e889213a54234ecab10d0fd59c43e0e5b48719136487538674073c10f27f2\")\n        /* \"contracts/Test Mint Pass v12A.sol\":5166:5173  tokenId */\n      dup2\n        /* \"contracts/Test Mint Pass v12A.sol\":5166:5203  tokenId == TEST_MINT_PASS_BLUETokenId */\n      eq\n        /* \"contracts/Test Mint Pass v12A.sol\":5166:5245  tokenId == TEST_MINT_PASS_BLUETokenId || tokenId == TEST_MINT_PASS_BLACKTokenId */\n      dup1\n      tag_245\n      jumpi\n      pop\n        /* \"contracts/Test Mint Pass v12A.sol\":5218:5245  TEST_MINT_PASS_BLACKTokenId */\n      immutable(\"0x4f722aad0315bc3832e551ccf6da3e098baeb8ee055023fde26c377410bf01b8\")\n        /* \"contracts/Test Mint Pass v12A.sol\":5207:5214  tokenId */\n      dup2\n        /* \"contracts/Test Mint Pass v12A.sol\":5207:5245  tokenId == TEST_MINT_PASS_BLACKTokenId */\n      eq\n        /* \"contracts/Test Mint Pass v12A.sol\":5166:5245  tokenId == TEST_MINT_PASS_BLUETokenId || tokenId == TEST_MINT_PASS_BLACKTokenId */\n    tag_245:\n        /* \"contracts/Test Mint Pass v12A.sol\":5145:5298  require(... */\n      tag_246\n      jumpi\n      mload(0x40)\n      0x08c379a000000000000000000000000000000000000000000000000000000000\n      dup2\n      mstore\n      0x04\n      add\n      tag_247\n      swap1\n      tag_248\n      jump\t// in\n    tag_247:\n      mload(0x40)\n      dup1\n      swap2\n      sub\n      swap1\n      revert\n    tag_246:\n        /* \"contracts/Test Mint Pass v12A.sol\":5324:5350  TEST_MINT_PASS_BLUETokenId */\n      immutable(\"0xc12e889213a54234ecab10d0fd59c43e0e5b48719136487538674073c10f27f2\")\n        /* \"contracts/Test Mint Pass v12A.sol\":5313:5320  tokenId */\n      dup2\n        /* \"contracts/Test Mint Pass v12A.sol\":5313:5350  tokenId == TEST_MINT_PASS_BLUETokenId */\n      eq\n        /* \"contracts/Test Mint Pass v12A.sol\":5309:5856  if (tokenId == TEST_MINT_PASS_BLUETokenId) {... */\n      iszero\n      tag_249\n      jumpi\n        /* \"contracts/Test Mint Pass v12A.sol\":5443:5471  TEST_MINT_PASS_BLUEMaxSupply */\n      immutable(\"0x033d1c3708859491ac29ccd35510f6bd0beea213c20356f3746be06c273b5a0b\")\n        /* \"contracts/Test Mint Pass v12A.sol\":5400:5439  totalSupply(TEST_MINT_PASS_BLUETokenId) */\n      tag_250\n        /* \"contracts/Test Mint Pass v12A.sol\":5412:5438  TEST_MINT_PASS_BLUETokenId */\n      immutable(\"0xc12e889213a54234ecab10d0fd59c43e0e5b48719136487538674073c10f27f2\")\n        /* \"contracts/Test Mint Pass v12A.sol\":5400:5411  totalSupply */\n      tag_140\n        /* \"contracts/Test Mint Pass v12A.sol\":5400:5439  totalSupply(TEST_MINT_PASS_BLUETokenId) */\n      jump\t// in\n    tag_250:\n        /* \"contracts/Test Mint Pass v12A.sol\":5391:5397  amount */\n      dup4\n        /* \"contracts/Test Mint Pass v12A.sol\":5391:5439  amount + totalSupply(TEST_MINT_PASS_BLUETokenId) */\n      tag_251\n      swap2\n      swap1\n      tag_225\n      jump\t// in\n    tag_251:\n        /* \"contracts/Test Mint Pass v12A.sol\":5391:5471  amount + totalSupply(TEST_MINT_PASS_BLUETokenId) <= TEST_MINT_PASS_BLUEMaxSupply */\n      gt\n      iszero\n        /* \"contracts/Test Mint Pass v12A.sol\":5366:5545  require(... */\n      tag_252\n      jumpi\n      mload(0x40)\n      0x08c379a000000000000000000000000000000000000000000000000000000000\n      dup2\n      mstore\n      0x04\n      add\n      tag_253\n      swap1\n      tag_254\n      jump\t// in\n    tag_253:\n      mload(0x40)\n      dup1\n      swap2\n      sub\n      swap1\n      revert\n    tag_252:\n        /* \"contracts/Test Mint Pass v12A.sol\":5559:5589  _mint(to, tokenId, amount, \"\") */\n      tag_255\n        /* \"contracts/Test Mint Pass v12A.sol\":5565:5567  to */\n      dup4\n        /* \"contracts/Test Mint Pass v12A.sol\":5569:5576  tokenId */\n      dup3\n        /* \"contracts/Test Mint Pass v12A.sol\":5578:5584  amount */\n      dup5\n        /* \"contracts/Test Mint Pass v12A.sol\":5559:5589  _mint(to, tokenId, amount, \"\") */\n      mload(0x40)\n      dup1\n      0x20\n      add\n      0x40\n      mstore\n      dup1\n      0x00\n      dup2\n      mstore\n      pop\n        /* \"contracts/Test Mint Pass v12A.sol\":5559:5564  _mint */\n      tag_204\n        /* \"contracts/Test Mint Pass v12A.sol\":5559:5589  _mint(to, tokenId, amount, \"\") */\n      jump\t// in\n    tag_255:\n        /* \"contracts/Test Mint Pass v12A.sol\":5309:5856  if (tokenId == TEST_MINT_PASS_BLUETokenId) {... */\n      jump(tag_256)\n    tag_249:\n        /* \"contracts/Test Mint Pass v12A.sol\":5698:5727  TEST_MINT_PASS_BLACKMaxSupply */\n      immutable(\"0xdd6ebedecc3782991b040722d05346ae76115706b237b0f241066a60ee7c2169\")\n        /* \"contracts/Test Mint Pass v12A.sol\":5654:5694  totalSupply(TEST_MINT_PASS_BLACKTokenId) */\n      tag_257\n        /* \"contracts/Test Mint Pass v12A.sol\":5666:5693  TEST_MINT_PASS_BLACKTokenId */\n      immutable(\"0x4f722aad0315bc3832e551ccf6da3e098baeb8ee055023fde26c377410bf01b8\")\n        /* \"contracts/Test Mint Pass v12A.sol\":5654:5665  totalSupply */\n      tag_140\n        /* \"contracts/Test Mint Pass v12A.sol\":5654:5694  totalSupply(TEST_MINT_PASS_BLACKTokenId) */\n      jump\t// in\n    tag_257:\n        /* \"contracts/Test Mint Pass v12A.sol\":5645:5651  amount */\n      dup4\n        /* \"contracts/Test Mint Pass v12A.sol\":5645:5694  amount + totalSupply(TEST_MINT_PASS_BLACKTokenId) */\n      tag_258\n      swap2\n      swap1\n      tag_225\n      jump\t// in\n    tag_258:\n        /* \"contracts/Test Mint Pass v12A.sol\":5645:5727  amount + totalSupply(TEST_MINT_PASS_BLACKTokenId) <= TEST_MINT_PASS_BLACKMaxSupply */\n      gt\n      iszero\n        /* \"contracts/Test Mint Pass v12A.sol\":5620:5801  require(... */\n      tag_259\n      jumpi\n      mload(0x40)\n      0x08c379a000000000000000000000000000000000000000000000000000000000\n      dup2\n      mstore\n      0x04\n      add\n      tag_260\n      swap1\n      tag_254\n      jump\t// in\n    tag_260:\n      mload(0x40)\n      dup1\n      swap2\n      sub\n      swap1\n      revert\n    tag_259:\n        /* \"contracts/Test Mint Pass v12A.sol\":5815:5845  _mint(to, tokenId, amount, \"\") */\n      tag_261\n        /* \"contracts/Test Mint Pass v12A.sol\":5821:5823  to */\n      dup4\n        /* \"contracts/Test Mint Pass v12A.sol\":5825:5832  tokenId */\n      dup3\n        /* \"contracts/Test Mint Pass v12A.sol\":5834:5840  amount */\n      dup5\n        /* \"contracts/Test Mint Pass v12A.sol\":5815:5845  _mint(to, tokenId, amount, \"\") */\n      mload(0x40)\n      dup1\n      0x20\n      add\n      0x40\n      mstore\n      dup1\n      0x00\n      dup2\n      mstore\n      pop\n        /* \"contracts/Test Mint Pass v12A.sol\":5815:5820  _mint */\n      tag_204\n        /* \"contracts/Test Mint Pass v12A.sol\":5815:5845  _mint(to, tokenId, amount, \"\") */\n      jump\t// in\n    tag_261:\n        /* \"contracts/Test Mint Pass v12A.sol\":5309:5856  if (tokenId == TEST_MINT_PASS_BLUETokenId) {... */\n    tag_256:\n        /* \"contracts/Test Mint Pass v12A.sol\":5024:5862  function ownerMint(... */\n      pop\n      pop\n      pop\n      jump\t// out\n        /* \"contracts/Test Mint Pass v12A.sol\":1578:1638  uint256 public immutable TEST_MINT_PASS_BLACKMaxSupply = 166 */\n    tag_92:\n      immutable(\"0xdd6ebedecc3782991b040722d05346ae76115706b237b0f241066a60ee7c2169\")\n      dup2\n      jump\t// out\n        /* \"contracts/Test Mint Pass v12A.sol\":6124:6309  function withdraw() public onlyOwner {... */\n    tag_95:\n        /* \"contracts/Ownable.sol\":1280:1292  _msgSender() */\n      tag_263\n        /* \"contracts/Ownable.sol\":1280:1290  _msgSender */\n      tag_181\n        /* \"contracts/Ownable.sol\":1280:1292  _msgSender() */\n      jump\t// in\n    tag_263:\n        /* \"contracts/Ownable.sol\":1269:1292  owner() == _msgSender() */\n      0xffffffffffffffffffffffffffffffffffffffff\n      and\n        /* \"contracts/Ownable.sol\":1269:1276  owner() */\n      tag_264\n        /* \"contracts/Ownable.sol\":1269:1274  owner */\n      tag_119\n        /* \"contracts/Ownable.sol\":1269:1276  owner() */\n      jump\t// in\n    tag_264:\n        /* \"contracts/Ownable.sol\":1269:1292  owner() == _msgSender() */\n      0xffffffffffffffffffffffffffffffffffffffff\n      and\n      eq\n        /* \"contracts/Ownable.sol\":1261:1329  require(owner() == _msgSender(), \"Ownable: caller is not the owner\") */\n      tag_265\n      jumpi\n      mload(0x40)\n      0x08c379a000000000000000000000000000000000000000000000000000000000\n      dup2\n      mstore\n      0x04\n      add\n      tag_266\n      swap1\n      tag_185\n      jump\t// in\n    tag_266:\n      mload(0x40)\n      dup1\n      swap2\n      sub\n      swap1\n      revert\n    tag_265:\n        /* \"contracts/Test Mint Pass v12A.sol\":6200:6201  0 */\n      0x00\n        /* \"contracts/Test Mint Pass v12A.sol\":6175:6196  address(this).balance */\n      selfbalance\n        /* \"contracts/Test Mint Pass v12A.sol\":6175:6201  address(this).balance == 0 */\n      eq\n        /* \"contracts/Test Mint Pass v12A.sol\":6171:6224  if (address(this).balance == 0) revert NoEthBalance() */\n      iszero\n      tag_268\n      jumpi\n        /* \"contracts/Test Mint Pass v12A.sol\":6210:6224  NoEthBalance() */\n      mload(0x40)\n      0xa8088f3800000000000000000000000000000000000000000000000000000000\n      dup2\n      mstore\n      0x04\n      add\n      mload(0x40)\n      dup1\n      swap2\n      sub\n      swap1\n      revert\n        /* \"contracts/Test Mint Pass v12A.sol\":6171:6224  if (address(this).balance == 0) revert NoEthBalance() */\n    tag_268:\n        /* \"contracts/Test Mint Pass v12A.sol\":6234:6302  SafeTransferLib.safeTransferETH(vaultAddress, address(this).balance) */\n      tag_269\n        /* \"contracts/Test Mint Pass v12A.sol\":6266:6278  vaultAddress */\n      0x05\n      0x00\n      swap1\n      sload\n      swap1\n      0x0100\n      exp\n      swap1\n      div\n      0xffffffffffffffffffffffffffffffffffffffff\n      and\n        /* \"contracts/Test Mint Pass v12A.sol\":6280:6301  address(this).balance */\n      selfbalance\n        /* \"contracts/Test Mint Pass v12A.sol\":6234:6265  SafeTransferLib.safeTransferETH */\n      tag_270\n        /* \"contracts/Test Mint Pass v12A.sol\":6234:6302  SafeTransferLib.safeTransferETH(vaultAddress, address(this).balance) */\n      jump\t// in\n    tag_269:\n        /* \"contracts/Test Mint Pass v12A.sol\":6124:6309  function withdraw() public onlyOwner {... */\n      jump\t// out\n        /* \"contracts/Test Mint Pass v12A.sol\":2030:2077  uint256 public constant TEST_MINT_PASS_BLUE = 2 */\n    tag_97:\n        /* \"contracts/Test Mint Pass v12A.sol\":2076:2077  2 */\n      0x02\n        /* \"contracts/Test Mint Pass v12A.sol\":2030:2077  uint256 public constant TEST_MINT_PASS_BLUE = 2 */\n      dup2\n      jump\t// out\n        /* \"contracts/Test Mint Pass v12A.sol\":1366:1393  address public vaultAddress */\n    tag_100:\n      0x05\n      0x00\n      swap1\n      sload\n      swap1\n      0x0100\n      exp\n      swap1\n      div\n      0xffffffffffffffffffffffffffffffffffffffff\n      and\n      dup2\n      jump\t// out\n        /* \"contracts/ERC1155.sol\":3832:4415  function balanceOfBatch(address[] calldata owners, uint256[] calldata ids)... */\n    tag_106:\n        /* \"contracts/ERC1155.sol\":3968:3993  uint256[] memory balances */\n      0x60\n        /* \"contracts/ERC1155.sol\":4034:4037  ids */\n      dup3\n      dup3\n        /* \"contracts/ERC1155.sol\":4034:4044  ids.length */\n      swap1\n      pop\n        /* \"contracts/ERC1155.sol\":4017:4023  owners */\n      dup6\n      dup6\n        /* \"contracts/ERC1155.sol\":4017:4030  owners.length */\n      swap1\n      pop\n        /* \"contracts/ERC1155.sol\":4017:4044  owners.length == ids.length */\n      eq\n        /* \"contracts/ERC1155.sol\":4009:4064  require(owners.length == ids.length, \"LENGTH_MISMATCH\") */\n      tag_272\n      jumpi\n      mload(0x40)\n      0x08c379a000000000000000000000000000000000000000000000000000000000\n      dup2\n      mstore\n      0x04\n      add\n      tag_273\n      swap1\n      tag_209\n      jump\t// in\n    tag_273:\n      mload(0x40)\n      dup1\n      swap2\n      sub\n      swap1\n      revert\n    tag_272:\n        /* \"contracts/ERC1155.sol\":4100:4106  owners */\n      dup5\n      dup5\n        /* \"contracts/ERC1155.sol\":4100:4113  owners.length */\n      swap1\n      pop\n        /* \"contracts/ERC1155.sol\":4086:4114  new uint256[](owners.length) */\n      0xffffffffffffffff\n      dup2\n      gt\n      iszero\n      tag_274\n      jumpi\n      tag_275\n      tag_276\n      jump\t// in\n    tag_275:\n    tag_274:\n      mload(0x40)\n      swap1\n      dup1\n      dup3\n      mstore\n      dup1\n      0x20\n      mul\n      0x20\n      add\n      dup3\n      add\n      0x40\n      mstore\n      dup1\n      iszero\n      tag_277\n      jumpi\n      dup2\n      0x20\n      add\n      0x20\n      dup3\n      mul\n      dup1\n      calldatasize\n      dup4\n      calldatacopy\n      dup1\n      dup3\n      add\n      swap2\n      pop\n      pop\n      swap1\n      pop\n    tag_277:\n      pop\n        /* \"contracts/ERC1155.sol\":4075:4114  balances = new uint256[](owners.length) */\n      swap1\n      pop\n        /* \"contracts/ERC1155.sol\":4285:4294  uint256 i */\n      0x00\n        /* \"contracts/ERC1155.sol\":4280:4399  for (uint256 i = 0; i < owners.length; ++i) {... */\n    tag_278:\n        /* \"contracts/ERC1155.sol\":4304:4310  owners */\n      dup6\n      dup6\n        /* \"contracts/ERC1155.sol\":4304:4317  owners.length */\n      swap1\n      pop\n        /* \"contracts/ERC1155.sol\":4300:4301  i */\n      dup2\n        /* \"contracts/ERC1155.sol\":4300:4317  i < owners.length */\n      lt\n        /* \"contracts/ERC1155.sol\":4280:4399  for (uint256 i = 0; i < owners.length; ++i) {... */\n      iszero\n      tag_279\n      jumpi\n        /* \"contracts/ERC1155.sol\":4356:4365  balanceOf */\n      0x00\n        /* \"contracts/ERC1155.sol\":4356:4376  balanceOf[owners[i]] */\n      dup1\n        /* \"contracts/ERC1155.sol\":4366:4372  owners */\n      dup8\n      dup8\n        /* \"contracts/ERC1155.sol\":4373:4374  i */\n      dup5\n        /* \"contracts/ERC1155.sol\":4366:4375  owners[i] */\n      dup2\n      dup2\n      lt\n      tag_281\n      jumpi\n      tag_282\n      tag_219\n      jump\t// in\n    tag_282:\n    tag_281:\n      swap1\n      pop\n      0x20\n      mul\n      add\n      0x20\n      dup2\n      add\n      swap1\n      tag_283\n      swap2\n      swap1\n      tag_66\n      jump\t// in\n    tag_283:\n        /* \"contracts/ERC1155.sol\":4356:4376  balanceOf[owners[i]] */\n      0xffffffffffffffffffffffffffffffffffffffff\n      and\n      0xffffffffffffffffffffffffffffffffffffffff\n      and\n      dup2\n      mstore\n      0x20\n      add\n      swap1\n      dup2\n      mstore\n      0x20\n      add\n      0x00\n      keccak256\n        /* \"contracts/ERC1155.sol\":4356:4384  balanceOf[owners[i]][ids[i]] */\n      0x00\n        /* \"contracts/ERC1155.sol\":4377:4380  ids */\n      dup6\n      dup6\n        /* \"contracts/ERC1155.sol\":4381:4382  i */\n      dup5\n        /* \"contracts/ERC1155.sol\":4377:4383  ids[i] */\n      dup2\n      dup2\n      lt\n      tag_284\n      jumpi\n      tag_285\n      tag_219\n      jump\t// in\n    tag_285:\n    tag_284:\n      swap1\n      pop\n      0x20\n      mul\n      add\n      calldataload\n        /* \"contracts/ERC1155.sol\":4356:4384  balanceOf[owners[i]][ids[i]] */\n      dup2\n      mstore\n      0x20\n      add\n      swap1\n      dup2\n      mstore\n      0x20\n      add\n      0x00\n      keccak256\n      sload\n        /* \"contracts/ERC1155.sol\":4342:4350  balances */\n      dup3\n        /* \"contracts/ERC1155.sol\":4351:4352  i */\n      dup3\n        /* \"contracts/ERC1155.sol\":4342:4353  balances[i] */\n      dup2\n      mload\n      dup2\n      lt\n      tag_286\n      jumpi\n      tag_287\n      tag_219\n      jump\t// in\n    tag_287:\n    tag_286:\n      0x20\n      mul\n      0x20\n      add\n      add\n        /* \"contracts/ERC1155.sol\":4342:4384  balances[i] = balanceOf[owners[i]][ids[i]] */\n      dup2\n      dup2\n      mstore\n      pop\n      pop\n        /* \"contracts/ERC1155.sol\":4319:4322  ++i */\n      dup1\n      0x01\n      add\n      swap1\n      pop\n        /* \"contracts/ERC1155.sol\":4280:4399  for (uint256 i = 0; i < owners.length; ++i) {... */\n      jump(tag_278)\n    tag_279:\n      pop\n        /* \"contracts/ERC1155.sol\":3832:4415  function balanceOfBatch(address[] calldata owners, uint256[] calldata ids)... */\n      swap5\n      swap4\n      pop\n      pop\n      pop\n      pop\n      jump\t// out\n        /* \"contracts/Test Mint Pass v12A.sol\":6407:6510  function setVault(address _vaultAddress) public onlyOwner {... */\n    tag_111:\n        /* \"contracts/Ownable.sol\":1280:1292  _msgSender() */\n      tag_289\n        /* \"contracts/Ownable.sol\":1280:1290  _msgSender */\n      tag_181\n        /* \"contracts/Ownable.sol\":1280:1292  _msgSender() */\n      jump\t// in\n    tag_289:\n        /* \"contracts/Ownable.sol\":1269:1292  owner() == _msgSender() */\n      0xffffffffffffffffffffffffffffffffffffffff\n      and\n        /* \"contracts/Ownable.sol\":1269:1276  owner() */\n      tag_290\n        /* \"contracts/Ownable.sol\":1269:1274  owner */\n      tag_119\n        /* \"contracts/Ownable.sol\":1269:1276  owner() */\n      jump\t// in\n    tag_290:\n        /* \"contracts/Ownable.sol\":1269:1292  owner() == _msgSender() */\n      0xffffffffffffffffffffffffffffffffffffffff\n      and\n      eq\n        /* \"contracts/Ownable.sol\":1261:1329  require(owner() == _msgSender(), \"Ownable: caller is not the owner\") */\n      tag_291\n      jumpi\n      mload(0x40)\n      0x08c379a000000000000000000000000000000000000000000000000000000000\n      dup2\n      mstore\n      0x04\n      add\n      tag_292\n      swap1\n      tag_185\n      jump\t// in\n    tag_292:\n      mload(0x40)\n      dup1\n      swap2\n      sub\n      swap1\n      revert\n    tag_291:\n        /* \"contracts/Test Mint Pass v12A.sol\":6490:6503  _vaultAddress */\n      dup1\n        /* \"contracts/Test Mint Pass v12A.sol\":6475:6487  vaultAddress */\n      0x05\n      0x00\n        /* \"contracts/Test Mint Pass v12A.sol\":6475:6503  vaultAddress = _vaultAddress */\n      0x0100\n      exp\n      dup2\n      sload\n      dup2\n      0xffffffffffffffffffffffffffffffffffffffff\n      mul\n      not\n      and\n      swap1\n      dup4\n      0xffffffffffffffffffffffffffffffffffffffff\n      and\n      mul\n      or\n      swap1\n      sstore\n      pop\n        /* \"contracts/Test Mint Pass v12A.sol\":6407:6510  function setVault(address _vaultAddress) public onlyOwner {... */\n      pop\n      jump\t// out\n        /* \"contracts/Ownable.sol\":1689:1790  function renounceOwnership() public virtual onlyOwner {... */\n    tag_113:\n        /* \"contracts/Ownable.sol\":1280:1292  _msgSender() */\n      tag_295\n        /* \"contracts/Ownable.sol\":1280:1290  _msgSender */\n      tag_181\n        /* \"contracts/Ownable.sol\":1280:1292  _msgSender() */\n      jump\t// in\n    tag_295:\n        /* \"contracts/Ownable.sol\":1269:1292  owner() == _msgSender() */\n      0xffffffffffffffffffffffffffffffffffffffff\n      and\n        /* \"contracts/Ownable.sol\":1269:1276  owner() */\n      tag_296\n        /* \"contracts/Ownable.sol\":1269:1274  owner */\n      tag_119\n        /* \"contracts/Ownable.sol\":1269:1276  owner() */\n      jump\t// in\n    tag_296:\n        /* \"contracts/Ownable.sol\":1269:1292  owner() == _msgSender() */\n      0xffffffffffffffffffffffffffffffffffffffff\n      and\n      eq\n        /* \"contracts/Ownable.sol\":1261:1329  require(owner() == _msgSender(), \"Ownable: caller is not the owner\") */\n      tag_297\n      jumpi\n      mload(0x40)\n      0x08c379a000000000000000000000000000000000000000000000000000000000\n      dup2\n      mstore\n      0x04\n      add\n      tag_298\n      swap1\n      tag_185\n      jump\t// in\n    tag_298:\n      mload(0x40)\n      dup1\n      swap2\n      sub\n      swap1\n      revert\n    tag_297:\n        /* \"contracts/Ownable.sol\":1753:1783  _transferOwnership(address(0)) */\n      tag_300\n        /* \"contracts/Ownable.sol\":1780:1781  0 */\n      0x00\n        /* \"contracts/Ownable.sol\":1753:1771  _transferOwnership */\n      tag_301\n        /* \"contracts/Ownable.sol\":1753:1783  _transferOwnership(address(0)) */\n      jump\t// in\n    tag_300:\n        /* \"contracts/Ownable.sol\":1689:1790  function renounceOwnership() public virtual onlyOwner {... */\n      jump\t// out\n        /* \"contracts/Test Mint Pass v12A.sol\":921:991  bytes32 public constant URI_SETTER_ROLE = keccak256(\"URI_SETTER_ROLE\") */\n    tag_115:\n        /* \"contracts/Test Mint Pass v12A.sol\":963:991  keccak256(\"URI_SETTER_ROLE\") */\n      0x7804d923f43a17d325d77e781528e0793b2edd9890ab45fc64efd7b4b427744c\n        /* \"contracts/Test Mint Pass v12A.sol\":921:991  bytes32 public constant URI_SETTER_ROLE = keccak256(\"URI_SETTER_ROLE\") */\n      dup2\n      jump\t// out\n        /* \"contracts/Ownable.sol\":1057:1142  function owner() public view virtual returns (address) {... */\n    tag_119:\n        /* \"contracts/Ownable.sol\":1103:1110  address */\n      0x00\n        /* \"contracts/Ownable.sol\":1129:1135  _owner */\n      0x02\n      0x00\n      swap1\n      sload\n      swap1\n      0x0100\n      exp\n      swap1\n      div\n      0xffffffffffffffffffffffffffffffffffffffff\n      and\n        /* \"contracts/Ownable.sol\":1122:1135  return _owner */\n      swap1\n      pop\n        /* \"contracts/Ownable.sol\":1057:1142  function owner() public view virtual returns (address) {... */\n      swap1\n      jump\t// out\n        /* \"contracts/Test Mint Pass v12A.sol\":1340:1360  string public symbol */\n    tag_122:\n      0x04\n      dup1\n      sload\n      tag_303\n      swap1\n      tag_174\n      jump\t// in\n    tag_303:\n      dup1\n      0x1f\n      add\n      0x20\n      dup1\n      swap2\n      div\n      mul\n      0x20\n      add\n      mload(0x40)\n      swap1\n      dup2\n      add\n      0x40\n      mstore\n      dup1\n      swap3\n      swap2\n      swap1\n      dup2\n      dup2\n      mstore\n      0x20\n      add\n      dup3\n      dup1\n      sload\n      tag_304\n      swap1\n      tag_174\n      jump\t// in\n    tag_304:\n      dup1\n      iszero\n      tag_305\n      jumpi\n      dup1\n      0x1f\n      lt\n      tag_306\n      jumpi\n      0x0100\n      dup1\n      dup4\n      sload\n      div\n      mul\n      dup4\n      mstore\n      swap2\n      0x20\n      add\n      swap2\n      jump(tag_305)\n    tag_306:\n      dup3\n      add\n      swap2\n      swap1\n      0x00\n      mstore\n      keccak256(0x00, 0x20)\n      swap1\n    tag_307:\n      dup2\n      sload\n      dup2\n      mstore\n      swap1\n      0x01\n      add\n      swap1\n      0x20\n      add\n      dup1\n      dup4\n      gt\n      tag_307\n      jumpi\n      dup3\n      swap1\n      sub\n      0x1f\n      and\n      dup3\n      add\n      swap2\n    tag_305:\n      pop\n      pop\n      pop\n      pop\n      pop\n      dup2\n      jump\t// out\n        /* \"contracts/Test Mint Pass v12A.sol\":1709:1775  uint256 public immutable TEST_MINT_PASS_BLACKScholarshipTotal = 17 */\n    tag_125:\n      immutable(\"0x923831463c3a49e9922442ac185c857970685647ffa411016bb09cd1e1a613f6\")\n      dup2\n      jump\t// out\n        /* \"contracts/Test Mint Pass v12A.sol\":2361:2418  mapping(address => uint256) public TestMintPassBlueMinted */\n    tag_129:\n      mstore(0x20, 0x08)\n      dup1\n      0x00\n      mstore\n      keccak256(0x00, 0x40)\n      0x00\n      swap2\n      pop\n      swap1\n      pop\n      sload\n      dup2\n      jump\t// out\n        /* \"contracts/ERC1155.sol\":1703:1906  function setApprovalForAll(address operator, bool approved) public virtual {... */\n    tag_134:\n        /* \"contracts/ERC1155.sol\":1829:1837  approved */\n      dup1\n        /* \"contracts/ERC1155.sol\":1788:1804  isApprovedForAll */\n      0x01\n        /* \"contracts/ERC1155.sol\":1788:1816  isApprovedForAll[msg.sender] */\n      0x00\n        /* \"contracts/ERC1155.sol\":1805:1815  msg.sender */\n      caller\n        /* \"contracts/ERC1155.sol\":1788:1816  isApprovedForAll[msg.sender] */\n      0xffffffffffffffffffffffffffffffffffffffff\n      and\n      0xffffffffffffffffffffffffffffffffffffffff\n      and\n      dup2\n      mstore\n      0x20\n      add\n      swap1\n      dup2\n      mstore\n      0x20\n      add\n      0x00\n      keccak256\n        /* \"contracts/ERC1155.sol\":1788:1826  isApprovedForAll[msg.sender][operator] */\n      0x00\n        /* \"contracts/ERC1155.sol\":1817:1825  operator */\n      dup5\n        /* \"contracts/ERC1155.sol\":1788:1826  isApprovedForAll[msg.sender][operator] */\n      0xffffffffffffffffffffffffffffffffffffffff\n      and\n      0xffffffffffffffffffffffffffffffffffffffff\n      and\n      dup2\n      mstore\n      0x20\n      add\n      swap1\n      dup2\n      mstore\n      0x20\n      add\n      0x00\n      keccak256\n      0x00\n        /* \"contracts/ERC1155.sol\":1788:1837  isApprovedForAll[msg.sender][operator] = approved */\n      0x0100\n      exp\n      dup2\n      sload\n      dup2\n      0xff\n      mul\n      not\n      and\n      swap1\n      dup4\n      iszero\n      iszero\n      mul\n      or\n      swap1\n      sstore\n      pop\n        /* \"contracts/ERC1155.sol\":1880:1888  operator */\n      dup2\n        /* \"contracts/ERC1155.sol\":1853:1899  ApprovalForAll(msg.sender, operator, approved) */\n      0xffffffffffffffffffffffffffffffffffffffff\n      and\n        /* \"contracts/ERC1155.sol\":1868:1878  msg.sender */\n      caller\n        /* \"contracts/ERC1155.sol\":1853:1899  ApprovalForAll(msg.sender, operator, approved) */\n      0xffffffffffffffffffffffffffffffffffffffff\n      and\n      0x17307eab39ab6107e8899845ad3d59bd9653f200f220920489ca2b5937696c31\n        /* \"contracts/ERC1155.sol\":1890:1898  approved */\n      dup4\n        /* \"contracts/ERC1155.sol\":1853:1899  ApprovalForAll(msg.sender, operator, approved) */\n      mload(0x40)\n      tag_309\n      swap2\n      swap1\n      tag_55\n      jump\t// in\n    tag_309:\n      mload(0x40)\n      dup1\n      swap2\n      sub\n      swap1\n      log3\n        /* \"contracts/ERC1155.sol\":1703:1906  function setApprovalForAll(address operator, bool approved) public virtual {... */\n      pop\n      pop\n      jump\t// out\n        /* \"contracts/Test Mint Pass v12A.sol\":1915:1970  uint256 public immutable TEST_MINT_PASS_BLUETokenId = 2 */\n    tag_136:\n      immutable(\"0xc12e889213a54234ecab10d0fd59c43e0e5b48719136487538674073c10f27f2\")\n      dup2\n      jump\t// out\n        /* \"contracts/Test Mint Pass v12A.sol\":3712:3823  function totalSupply(uint256 id) public view virtual returns (uint256) {... */\n    tag_140:\n        /* \"contracts/Test Mint Pass v12A.sol\":3774:3781  uint256 */\n      0x00\n        /* \"contracts/Test Mint Pass v12A.sol\":3800:3812  _totalSupply */\n      0x06\n        /* \"contracts/Test Mint Pass v12A.sol\":3800:3816  _totalSupply[id] */\n      0x00\n        /* \"contracts/Test Mint Pass v12A.sol\":3813:3815  id */\n      dup4\n        /* \"contracts/Test Mint Pass v12A.sol\":3800:3816  _totalSupply[id] */\n      dup2\n      mstore\n      0x20\n      add\n      swap1\n      dup2\n      mstore\n      0x20\n      add\n      0x00\n      keccak256\n      sload\n        /* \"contracts/Test Mint Pass v12A.sol\":3793:3816  return _totalSupply[id] */\n      swap1\n      pop\n        /* \"contracts/Test Mint Pass v12A.sol\":3712:3823  function totalSupply(uint256 id) public view virtual returns (uint256) {... */\n      swap2\n      swap1\n      pop\n      jump\t// out\n        /* \"contracts/Test Mint Pass v12A.sol\":2313:2355  mapping(uint256 => string) public tokenURI */\n    tag_144:\n      mstore(0x20, 0x07)\n      dup1\n      0x00\n      mstore\n      keccak256(0x00, 0x40)\n      0x00\n      swap2\n      pop\n      swap1\n      pop\n      dup1\n      sload\n      tag_311\n      swap1\n      tag_174\n      jump\t// in\n    tag_311:\n      dup1\n      0x1f\n      add\n      0x20\n      dup1\n      swap2\n      div\n      mul\n      0x20\n      add\n      mload(0x40)\n      swap1\n      dup2\n      add\n      0x40\n      mstore\n      dup1\n      swap3\n      swap2\n      swap1\n      dup2\n      dup2\n      mstore\n      0x20\n      add\n      dup3\n      dup1\n      sload\n      tag_312\n      swap1\n      tag_174\n      jump\t// in\n    tag_312:\n      dup1\n      iszero\n      tag_313\n      jumpi\n      dup1\n      0x1f\n      lt\n      tag_314\n      jumpi\n      0x0100\n      dup1\n      dup4\n      sload\n      div\n      mul\n      dup4\n      mstore\n      swap2\n      0x20\n      add\n      swap2\n      jump(tag_313)\n    tag_314:\n      dup3\n      add\n      swap2\n      swap1\n      0x00\n      mstore\n      keccak256(0x00, 0x20)\n      swap1\n    tag_315:\n      dup2\n      sload\n      dup2\n      mstore\n      swap1\n      0x01\n      add\n      swap1\n      0x20\n      add\n      dup1\n      dup4\n      gt\n      tag_315\n      jumpi\n      dup3\n      swap1\n      sub\n      0x1f\n      and\n      dup3\n      add\n      swap2\n    tag_313:\n      pop\n      pop\n      pop\n      pop\n      pop\n      dup2\n      jump\t// out\n        /* \"contracts/Test Mint Pass v12A.sol\":1065:1127  bytes32 public constant MINTER_ROLE = keccak256(\"MINTER_ROLE\") */\n    tag_147:\n        /* \"contracts/Test Mint Pass v12A.sol\":1103:1127  keccak256(\"MINTER_ROLE\") */\n      0x9f2df0fed2c77648de5860a4cc508cd0818c85b8b8a1ab4ceeef8d981c8956a6\n        /* \"contracts/Test Mint Pass v12A.sol\":1065:1127  bytes32 public constant MINTER_ROLE = keccak256(\"MINTER_ROLE\") */\n      dup2\n      jump\t// out\n        /* \"contracts/Test Mint Pass v12A.sol\":997:1059  bytes32 public constant PAUSER_ROLE = keccak256(\"PAUSER_ROLE\") */\n    tag_150:\n        /* \"contracts/Test Mint Pass v12A.sol\":1035:1059  keccak256(\"PAUSER_ROLE\") */\n      0x65d7a28e3265b37a6474929f336521b332c1681b933f6cb9f3376673440d862a\n        /* \"contracts/Test Mint Pass v12A.sol\":997:1059  bytes32 public constant PAUSER_ROLE = keccak256(\"PAUSER_ROLE\") */\n      dup2\n      jump\t// out\n        /* \"contracts/ERC1155.sol\":1187:1255  mapping(address => mapping(address => bool)) public isApprovedForAll */\n    tag_155:\n      mstore(0x20, 0x01)\n      dup2\n      0x00\n      mstore\n      mstore(0x20, keccak256(0x00, 0x40))\n      dup1\n      0x00\n      mstore\n      keccak256(0x00, 0x40)\n      0x00\n      swap2\n      pop\n      swap2\n      pop\n      swap1\n      sload\n      swap1\n      0x0100\n      exp\n      swap1\n      div\n      0xff\n      and\n      dup2\n      jump\t// out\n        /* \"contracts/Test Mint Pass v12A.sol\":1781:1846  uint256 public immutable TEST_MINT_PASS_BLUEScholarshipTotal = 33 */\n    tag_158:\n      immutable(\"0xe5e82e592b73b06cea933a767f307627bbcb87945b2bc32056ccefc4b7919085\")\n      dup2\n      jump\t// out\n        /* \"contracts/Test Mint Pass v12A.sol\":1853:1909  uint256 public immutable TEST_MINT_PASS_BLACKTokenId = 1 */\n    tag_161:\n      immutable(\"0x4f722aad0315bc3832e551ccf6da3e098baeb8ee055023fde26c377410bf01b8\")\n      dup2\n      jump\t// out\n        /* \"contracts/ERC1155.sol\":1912:2611  function safeTransferFrom(... */\n    tag_166:\n        /* \"contracts/ERC1155.sol\":2106:2110  from */\n      dup6\n        /* \"contracts/ERC1155.sol\":2092:2110  msg.sender == from */\n      0xffffffffffffffffffffffffffffffffffffffff\n      and\n        /* \"contracts/ERC1155.sol\":2092:2102  msg.sender */\n      caller\n        /* \"contracts/ERC1155.sol\":2092:2110  msg.sender == from */\n      0xffffffffffffffffffffffffffffffffffffffff\n      and\n      eq\n        /* \"contracts/ERC1155.sol\":2092:2148  msg.sender == from || isApprovedForAll[from][msg.sender] */\n      dup1\n      tag_317\n      jumpi\n      pop\n        /* \"contracts/ERC1155.sol\":2114:2130  isApprovedForAll */\n      0x01\n        /* \"contracts/ERC1155.sol\":2114:2136  isApprovedForAll[from] */\n      0x00\n        /* \"contracts/ERC1155.sol\":2131:2135  from */\n      dup8\n        /* \"contracts/ERC1155.sol\":2114:2136  isApprovedForAll[from] */\n      0xffffffffffffffffffffffffffffffffffffffff\n      and\n      0xffffffffffffffffffffffffffffffffffffffff\n      and\n      dup2\n      mstore\n      0x20\n      add\n      swap1\n      dup2\n      mstore\n      0x20\n      add\n      0x00\n      keccak256\n        /* \"contracts/ERC1155.sol\":2114:2148  isApprovedForAll[from][msg.sender] */\n      0x00\n        /* \"contracts/ERC1155.sol\":2137:2147  msg.sender */\n      caller\n        /* \"contracts/ERC1155.sol\":2114:2148  isApprovedForAll[from][msg.sender] */\n      0xffffffffffffffffffffffffffffffffffffffff\n      and\n      0xffffffffffffffffffffffffffffffffffffffff\n      and\n      dup2\n      mstore\n      0x20\n      add\n      swap1\n      dup2\n      mstore\n      0x20\n      add\n      0x00\n      keccak256\n      0x00\n      swap1\n      sload\n      swap1\n      0x0100\n      exp\n      swap1\n      div\n      0xff\n      and\n        /* \"contracts/ERC1155.sol\":2092:2148  msg.sender == from || isApprovedForAll[from][msg.sender] */\n    tag_317:\n        /* \"contracts/ERC1155.sol\":2084:2167  require(msg.sender == from || isApprovedForAll[from][msg.sender], \"NOT_AUTHORIZED\") */\n      tag_318\n      jumpi\n      mload(0x40)\n      0x08c379a000000000000000000000000000000000000000000000000000000000\n      dup2\n      mstore\n      0x04\n      add\n      tag_319\n      swap1\n      tag_213\n      jump\t// in\n    tag_319:\n      mload(0x40)\n      dup1\n      swap2\n      sub\n      swap1\n      revert\n    tag_318:\n        /* \"contracts/ERC1155.sol\":2201:2207  amount */\n      dup3\n        /* \"contracts/ERC1155.sol\":2178:2187  balanceOf */\n      0x00\n        /* \"contracts/ERC1155.sol\":2178:2193  balanceOf[from] */\n      dup1\n        /* \"contracts/ERC1155.sol\":2188:2192  from */\n      dup9\n        /* \"contracts/ERC1155.sol\":2178:2193  balanceOf[from] */\n      0xffffffffffffffffffffffffffffffffffffffff\n      and\n      0xffffffffffffffffffffffffffffffffffffffff\n      and\n      dup2\n      mstore\n      0x20\n      add\n      swap1\n      dup2\n      mstore\n      0x20\n      add\n      0x00\n      keccak256\n        /* \"contracts/ERC1155.sol\":2178:2197  balanceOf[from][id] */\n      0x00\n        /* \"contracts/ERC1155.sol\":2194:2196  id */\n      dup7\n        /* \"contracts/ERC1155.sol\":2178:2197  balanceOf[from][id] */\n      dup2\n      mstore\n      0x20\n      add\n      swap1\n      dup2\n      mstore\n      0x20\n      add\n      0x00\n      keccak256\n      0x00\n        /* \"contracts/ERC1155.sol\":2178:2207  balanceOf[from][id] -= amount */\n      dup3\n      dup3\n      sload\n      tag_320\n      swap2\n      swap1\n      tag_223\n      jump\t// in\n    tag_320:\n      swap3\n      pop\n      pop\n      dup2\n      swap1\n      sstore\n      pop\n        /* \"contracts/ERC1155.sol\":2238:2244  amount */\n      dup3\n        /* \"contracts/ERC1155.sol\":2217:2226  balanceOf */\n      0x00\n        /* \"contracts/ERC1155.sol\":2217:2230  balanceOf[to] */\n      dup1\n        /* \"contracts/ERC1155.sol\":2227:2229  to */\n      dup8\n        /* \"contracts/ERC1155.sol\":2217:2230  balanceOf[to] */\n      0xffffffffffffffffffffffffffffffffffffffff\n      and\n      0xffffffffffffffffffffffffffffffffffffffff\n      and\n      dup2\n      mstore\n      0x20\n      add\n      swap1\n      dup2\n      mstore\n      0x20\n      add\n      0x00\n      keccak256\n        /* \"contracts/ERC1155.sol\":2217:2234  balanceOf[to][id] */\n      0x00\n        /* \"contracts/ERC1155.sol\":2231:2233  id */\n      dup7\n        /* \"contracts/ERC1155.sol\":2217:2234  balanceOf[to][id] */\n      dup2\n      mstore\n      0x20\n      add\n      swap1\n      dup2\n      mstore\n      0x20\n      add\n      0x00\n      keccak256\n      0x00\n        /* \"contracts/ERC1155.sol\":2217:2244  balanceOf[to][id] += amount */\n      dup3\n      dup3\n      sload\n      tag_321\n      swap2\n      swap1\n      tag_225\n      jump\t// in\n    tag_321:\n      swap3\n      pop\n      pop\n      dup2\n      swap1\n      sstore\n      pop\n        /* \"contracts/ERC1155.sol\":2293:2295  to */\n      dup5\n        /* \"contracts/ERC1155.sol\":2260:2308  TransferSingle(msg.sender, from, to, id, amount) */\n      0xffffffffffffffffffffffffffffffffffffffff\n      and\n        /* \"contracts/ERC1155.sol\":2287:2291  from */\n      dup7\n        /* \"contracts/ERC1155.sol\":2260:2308  TransferSingle(msg.sender, from, to, id, amount) */\n      0xffffffffffffffffffffffffffffffffffffffff\n      and\n        /* \"contracts/ERC1155.sol\":2275:2285  msg.sender */\n      caller\n        /* \"contracts/ERC1155.sol\":2260:2308  TransferSingle(msg.sender, from, to, id, amount) */\n      0xffffffffffffffffffffffffffffffffffffffff\n      and\n      0xc3d58168c5ae7397731d063d5bbf3d657854427343f4c083240f7aacaa2d0f62\n        /* \"contracts/ERC1155.sol\":2297:2299  id */\n      dup8\n        /* \"contracts/ERC1155.sol\":2301:2307  amount */\n      dup8\n        /* \"contracts/ERC1155.sol\":2260:2308  TransferSingle(msg.sender, from, to, id, amount) */\n      mload(0x40)\n      tag_322\n      swap3\n      swap2\n      swap1\n      tag_323\n      jump\t// in\n    tag_322:\n      mload(0x40)\n      dup1\n      swap2\n      sub\n      swap1\n      log4\n        /* \"contracts/ERC1155.sol\":2358:2359  0 */\n      0x00\n        /* \"contracts/ERC1155.sol\":2340:2342  to */\n      dup6\n        /* \"contracts/ERC1155.sol\":2340:2354  to.code.length */\n      0xffffffffffffffffffffffffffffffffffffffff\n      and\n      extcodesize\n        /* \"contracts/ERC1155.sol\":2340:2359  to.code.length == 0 */\n      eq\n        /* \"contracts/ERC1155.sol\":2340:2562  to.code.length == 0... */\n      tag_324\n      jumpi\n        /* \"contracts/ERC1155.sol\":2515:2562  ERC1155TokenReceiver.onERC1155Received.selector */\n      shl(0xe0, 0xf23a6e61)\n        /* \"contracts/ERC1155.sol\":2413:2562  ERC1155TokenReceiver(to).onERC1155Received(msg.sender, from, id, amount, data) ==... */\n      not(0xffffffffffffffffffffffffffffffffffffffffffffffffffffffff)\n      and\n        /* \"contracts/ERC1155.sol\":2434:2436  to */\n      dup6\n        /* \"contracts/ERC1155.sol\":2413:2455  ERC1155TokenReceiver(to).onERC1155Received */\n      0xffffffffffffffffffffffffffffffffffffffff\n      and\n      0xf23a6e61\n        /* \"contracts/ERC1155.sol\":2456:2466  msg.sender */\n      caller\n        /* \"contracts/ERC1155.sol\":2468:2472  from */\n      dup10\n        /* \"contracts/ERC1155.sol\":2474:2476  id */\n      dup9\n        /* \"contracts/ERC1155.sol\":2478:2484  amount */\n      dup9\n        /* \"contracts/ERC1155.sol\":2486:2490  data */\n      dup9\n      dup9\n        /* \"contracts/ERC1155.sol\":2413:2491  ERC1155TokenReceiver(to).onERC1155Received(msg.sender, from, id, amount, data) */\n      mload(0x40)\n      dup8\n      0xffffffff\n      and\n      0xe0\n      shl\n      dup2\n      mstore\n      0x04\n      add\n      tag_325\n      swap7\n      swap6\n      swap5\n      swap4\n      swap3\n      swap2\n      swap1\n      tag_326\n      jump\t// in\n    tag_325:\n      0x20\n      mload(0x40)\n      dup1\n      dup4\n      sub\n      dup2\n      0x00\n      dup8\n      gas\n      call\n      iszero\n      dup1\n      iszero\n      tag_328\n      jumpi\n      returndatasize\n      0x00\n      dup1\n      returndatacopy\n      revert(0x00, returndatasize)\n    tag_328:\n      pop\n      pop\n      pop\n      pop\n      mload(0x40)\n      returndatasize\n      not(0x1f)\n      0x1f\n      dup3\n      add\n      and\n      dup3\n      add\n      dup1\n      0x40\n      mstore\n      pop\n      dup2\n      add\n      swap1\n      tag_329\n      swap2\n      swap1\n      tag_234\n      jump\t// in\n    tag_329:\n        /* \"contracts/ERC1155.sol\":2413:2562  ERC1155TokenReceiver(to).onERC1155Received(msg.sender, from, id, amount, data) ==... */\n      not(0xffffffffffffffffffffffffffffffffffffffffffffffffffffffff)\n      and\n      eq\n        /* \"contracts/ERC1155.sol\":2340:2562  to.code.length == 0... */\n      jump(tag_330)\n    tag_324:\n        /* \"contracts/ERC1155.sol\":2392:2393  0 */\n      0x00\n        /* \"contracts/ERC1155.sol\":2378:2394  to != address(0) */\n      0xffffffffffffffffffffffffffffffffffffffff\n      and\n        /* \"contracts/ERC1155.sol\":2378:2380  to */\n      dup6\n        /* \"contracts/ERC1155.sol\":2378:2394  to != address(0) */\n      0xffffffffffffffffffffffffffffffffffffffff\n      and\n      eq\n      iszero\n        /* \"contracts/ERC1155.sol\":2340:2562  to.code.length == 0... */\n    tag_330:\n        /* \"contracts/ERC1155.sol\":2319:2604  require(... */\n      tag_331\n      jumpi\n      mload(0x40)\n      0x08c379a000000000000000000000000000000000000000000000000000000000\n      dup2\n      mstore\n      0x04\n      add\n      tag_332\n      swap1\n      tag_238\n      jump\t// in\n    tag_332:\n      mload(0x40)\n      dup1\n      swap2\n      sub\n      swap1\n      revert\n    tag_331:\n        /* \"contracts/ERC1155.sol\":1912:2611  function safeTransferFrom(... */\n      pop\n      pop\n      pop\n      pop\n      pop\n      pop\n      jump\t// out\n        /* \"contracts/Ownable.sol\":1939:2137  function transferOwnership(address newOwner) public virtual onlyOwner {... */\n    tag_169:\n        /* \"contracts/Ownable.sol\":1280:1292  _msgSender() */\n      tag_334\n        /* \"contracts/Ownable.sol\":1280:1290  _msgSender */\n      tag_181\n        /* \"contracts/Ownable.sol\":1280:1292  _msgSender() */\n      jump\t// in\n    tag_334:\n        /* \"contracts/Ownable.sol\":1269:1292  owner() == _msgSender() */\n      0xffffffffffffffffffffffffffffffffffffffff\n      and\n        /* \"contracts/Ownable.sol\":1269:1276  owner() */\n      tag_335\n        /* \"contracts/Ownable.sol\":1269:1274  owner */\n      tag_119\n        /* \"contracts/Ownable.sol\":1269:1276  owner() */\n      jump\t// in\n    tag_335:\n        /* \"contracts/Ownable.sol\":1269:1292  owner() == _msgSender() */\n      0xffffffffffffffffffffffffffffffffffffffff\n      and\n      eq\n        /* \"contracts/Ownable.sol\":1261:1329  require(owner() == _msgSender(), \"Ownable: caller is not the owner\") */\n      tag_336\n      jumpi\n      mload(0x40)\n      0x08c379a000000000000000000000000000000000000000000000000000000000\n      dup2\n      mstore\n      0x04\n      add\n      tag_337\n      swap1\n      tag_185\n      jump\t// in\n    tag_337:\n      mload(0x40)\n      dup1\n      swap2\n      sub\n      swap1\n      revert\n    tag_336:\n        /* \"contracts/Ownable.sol\":2047:2048  0 */\n      0x00\n        /* \"contracts/Ownable.sol\":2027:2049  newOwner != address(0) */\n      0xffffffffffffffffffffffffffffffffffffffff\n      and\n        /* \"contracts/Ownable.sol\":2027:2035  newOwner */\n      dup2\n        /* \"contracts/Ownable.sol\":2027:2049  newOwner != address(0) */\n      0xffffffffffffffffffffffffffffffffffffffff\n      and\n      eq\n      iszero\n        /* \"contracts/Ownable.sol\":2019:2092  require(newOwner != address(0), \"Ownable: new owner is the zero address\") */\n      tag_339\n      jumpi\n      mload(0x40)\n      0x08c379a000000000000000000000000000000000000000000000000000000000\n      dup2\n      mstore\n      0x04\n      add\n      tag_340\n      swap1\n      tag_341\n      jump\t// in\n    tag_340:\n      mload(0x40)\n      dup1\n      swap2\n      sub\n      swap1\n      revert\n    tag_339:\n        /* \"contracts/Ownable.sol\":2102:2130  _transferOwnership(newOwner) */\n      tag_342\n        /* \"contracts/Ownable.sol\":2121:2129  newOwner */\n      dup2\n        /* \"contracts/Ownable.sol\":2102:2120  _transferOwnership */\n      tag_301\n        /* \"contracts/Ownable.sol\":2102:2130  _transferOwnership(newOwner) */\n      jump\t// in\n    tag_342:\n        /* \"contracts/Ownable.sol\":1939:2137  function transferOwnership(address newOwner) public virtual onlyOwner {... */\n      pop\n      jump\t// out\n        /* \"@openzeppelin/contracts/utils/Context.sol\":640:736  function _msgSender() internal view virtual returns (address) {... */\n    tag_181:\n        /* \"@openzeppelin/contracts/utils/Context.sol\":693:700  address */\n      0x00\n        /* \"@openzeppelin/contracts/utils/Context.sol\":719:729  msg.sender */\n      caller\n        /* \"@openzeppelin/contracts/utils/Context.sol\":712:729  return msg.sender */\n      swap1\n      pop\n        /* \"@openzeppelin/contracts/utils/Context.sol\":640:736  function _msgSender() internal view virtual returns (address) {... */\n      swap1\n      jump\t// out\n        /* \"contracts/ERC1155.sol\":5137:5682  function _mint(... */\n    tag_204:\n        /* \"contracts/ERC1155.sol\":5297:5303  amount */\n      dup2\n        /* \"contracts/ERC1155.sol\":5276:5285  balanceOf */\n      0x00\n        /* \"contracts/ERC1155.sol\":5276:5289  balanceOf[to] */\n      dup1\n        /* \"contracts/ERC1155.sol\":5286:5288  to */\n      dup7\n        /* \"contracts/ERC1155.sol\":5276:5289  balanceOf[to] */\n      0xffffffffffffffffffffffffffffffffffffffff\n      and\n      0xffffffffffffffffffffffffffffffffffffffff\n      and\n      dup2\n      mstore\n      0x20\n      add\n      swap1\n      dup2\n      mstore\n      0x20\n      add\n      0x00\n      keccak256\n        /* \"contracts/ERC1155.sol\":5276:5293  balanceOf[to][id] */\n      0x00\n        /* \"contracts/ERC1155.sol\":5290:5292  id */\n      dup6\n        /* \"contracts/ERC1155.sol\":5276:5293  balanceOf[to][id] */\n      dup2\n      mstore\n      0x20\n      add\n      swap1\n      dup2\n      mstore\n      0x20\n      add\n      0x00\n      keccak256\n      0x00\n        /* \"contracts/ERC1155.sol\":5276:5303  balanceOf[to][id] += amount */\n      dup3\n      dup3\n      sload\n      tag_345\n      swap2\n      swap1\n      tag_225\n      jump\t// in\n    tag_345:\n      swap3\n      pop\n      pop\n      dup2\n      swap1\n      sstore\n      pop\n        /* \"contracts/ERC1155.sol\":5358:5360  to */\n      dup4\n        /* \"contracts/ERC1155.sol\":5319:5373  TransferSingle(msg.sender, address(0), to, id, amount) */\n      0xffffffffffffffffffffffffffffffffffffffff\n      and\n        /* \"contracts/ERC1155.sol\":5354:5355  0 */\n      0x00\n        /* \"contracts/ERC1155.sol\":5319:5373  TransferSingle(msg.sender, address(0), to, id, amount) */\n      0xffffffffffffffffffffffffffffffffffffffff\n      and\n        /* \"contracts/ERC1155.sol\":5334:5344  msg.sender */\n      caller\n        /* \"contracts/ERC1155.sol\":5319:5373  TransferSingle(msg.sender, address(0), to, id, amount) */\n      0xffffffffffffffffffffffffffffffffffffffff\n      and\n      0xc3d58168c5ae7397731d063d5bbf3d657854427343f4c083240f7aacaa2d0f62\n        /* \"contracts/ERC1155.sol\":5362:5364  id */\n      dup7\n        /* \"contracts/ERC1155.sol\":5366:5372  amount */\n      dup7\n        /* \"contracts/ERC1155.sol\":5319:5373  TransferSingle(msg.sender, address(0), to, id, amount) */\n      mload(0x40)\n      tag_346\n      swap3\n      swap2\n      swap1\n      tag_323\n      jump\t// in\n    tag_346:\n      mload(0x40)\n      dup1\n      swap2\n      sub\n      swap1\n      log4\n        /* \"contracts/ERC1155.sol\":5423:5424  0 */\n      0x00\n        /* \"contracts/ERC1155.sol\":5405:5407  to */\n      dup5\n        /* \"contracts/ERC1155.sol\":5405:5419  to.code.length */\n      0xffffffffffffffffffffffffffffffffffffffff\n      and\n      extcodesize\n        /* \"contracts/ERC1155.sol\":5405:5424  to.code.length == 0 */\n      eq\n        /* \"contracts/ERC1155.sol\":5405:5633  to.code.length == 0... */\n      tag_347\n      jumpi\n        /* \"contracts/ERC1155.sol\":5586:5633  ERC1155TokenReceiver.onERC1155Received.selector */\n      shl(0xe0, 0xf23a6e61)\n        /* \"contracts/ERC1155.sol\":5478:5633  ERC1155TokenReceiver(to).onERC1155Received(msg.sender, address(0), id, amount, data) ==... */\n      not(0xffffffffffffffffffffffffffffffffffffffffffffffffffffffff)\n      and\n        /* \"contracts/ERC1155.sol\":5499:5501  to */\n      dup5\n        /* \"contracts/ERC1155.sol\":5478:5520  ERC1155TokenReceiver(to).onERC1155Received */\n      0xffffffffffffffffffffffffffffffffffffffff\n      and\n      0xf23a6e61\n        /* \"contracts/ERC1155.sol\":5521:5531  msg.sender */\n      caller\n        /* \"contracts/ERC1155.sol\":5541:5542  0 */\n      0x00\n        /* \"contracts/ERC1155.sol\":5545:5547  id */\n      dup8\n        /* \"contracts/ERC1155.sol\":5549:5555  amount */\n      dup8\n        /* \"contracts/ERC1155.sol\":5557:5561  data */\n      dup8\n        /* \"contracts/ERC1155.sol\":5478:5562  ERC1155TokenReceiver(to).onERC1155Received(msg.sender, address(0), id, amount, data) */\n      mload(0x40)\n      dup7\n      0xffffffff\n      and\n      0xe0\n      shl\n      dup2\n      mstore\n      0x04\n      add\n      tag_348\n      swap6\n      swap5\n      swap4\n      swap3\n      swap2\n      swap1\n      tag_349\n      jump\t// in\n    tag_348:\n      0x20\n      mload(0x40)\n      dup1\n      dup4\n      sub\n      dup2\n      0x00\n      dup8\n      gas\n      call\n      iszero\n      dup1\n      iszero\n      tag_351\n      jumpi\n      returndatasize\n      0x00\n      dup1\n      returndatacopy\n      revert(0x00, returndatasize)\n    tag_351:\n      pop\n      pop\n      pop\n      pop\n      mload(0x40)\n      returndatasize\n      not(0x1f)\n      0x1f\n      dup3\n      add\n      and\n      dup3\n      add\n      dup1\n      0x40\n      mstore\n      pop\n      dup2\n      add\n      swap1\n      tag_352\n      swap2\n      swap1\n      tag_234\n      jump\t// in\n    tag_352:\n        /* \"contracts/ERC1155.sol\":5478:5633  ERC1155TokenReceiver(to).onERC1155Received(msg.sender, address(0), id, amount, data) ==... */\n      not(0xffffffffffffffffffffffffffffffffffffffffffffffffffffffff)\n      and\n      eq\n        /* \"contracts/ERC1155.sol\":5405:5633  to.code.length == 0... */\n      jump(tag_353)\n    tag_347:\n        /* \"contracts/ERC1155.sol\":5457:5458  0 */\n      0x00\n        /* \"contracts/ERC1155.sol\":5443:5459  to != address(0) */\n      0xffffffffffffffffffffffffffffffffffffffff\n      and\n        /* \"contracts/ERC1155.sol\":5443:5445  to */\n      dup5\n        /* \"contracts/ERC1155.sol\":5443:5459  to != address(0) */\n      0xffffffffffffffffffffffffffffffffffffffff\n      and\n      eq\n      iszero\n        /* \"contracts/ERC1155.sol\":5405:5633  to.code.length == 0... */\n    tag_353:\n        /* \"contracts/ERC1155.sol\":5384:5675  require(... */\n      tag_354\n      jumpi\n      mload(0x40)\n      0x08c379a000000000000000000000000000000000000000000000000000000000\n      dup2\n      mstore\n      0x04\n      add\n      tag_355\n      swap1\n      tag_238\n      jump\t// in\n    tag_355:\n      mload(0x40)\n      dup1\n      swap2\n      sub\n      swap1\n      revert\n    tag_354:\n        /* \"contracts/ERC1155.sol\":5137:5682  function _mint(... */\n      pop\n      pop\n      pop\n      pop\n      jump\t// out\n        /* \"contracts/SafeTransferLib.sol\":831:1127  function safeTransferETH(address to, uint256 amount) internal {... */\n    tag_270:\n        /* \"contracts/SafeTransferLib.sol\":903:915  bool success */\n      0x00\n        /* \"contracts/SafeTransferLib.sol\":1059:1060  0 */\n      dup1\n        /* \"contracts/SafeTransferLib.sol\":1056:1057  0 */\n      0x00\n        /* \"contracts/SafeTransferLib.sol\":1053:1054  0 */\n      dup1\n        /* \"contracts/SafeTransferLib.sol\":1050:1051  0 */\n      0x00\n        /* \"contracts/SafeTransferLib.sol\":1042:1048  amount */\n      dup6\n        /* \"contracts/SafeTransferLib.sol\":1038:1040  to */\n      dup8\n        /* \"contracts/SafeTransferLib.sol\":1031:1036  gas() */\n      gas\n        /* \"contracts/SafeTransferLib.sol\":1026:1061  call(gas(), to, amount, 0, 0, 0, 0) */\n      call\n        /* \"contracts/SafeTransferLib.sol\":1015:1061  success := call(gas(), to, amount, 0, 0, 0, 0) */\n      swap1\n      pop\n        /* \"contracts/SafeTransferLib.sol\":1089:1096  success */\n      dup1\n        /* \"contracts/SafeTransferLib.sol\":1081:1120  require(success, \"ETH_TRANSFER_FAILED\") */\n      tag_357\n      jumpi\n      mload(0x40)\n      0x08c379a000000000000000000000000000000000000000000000000000000000\n      dup2\n      mstore\n      0x04\n      add\n      tag_358\n      swap1\n      tag_359\n      jump\t// in\n    tag_358:\n      mload(0x40)\n      dup1\n      swap2\n      sub\n      swap1\n      revert\n    tag_357:\n        /* \"contracts/SafeTransferLib.sol\":893:1127  {... */\n      pop\n        /* \"contracts/SafeTransferLib.sol\":831:1127  function safeTransferETH(address to, uint256 amount) internal {... */\n      pop\n      pop\n      jump\t// out\n        /* \"contracts/Ownable.sol\":2291:2478  function _transferOwnership(address newOwner) internal virtual {... */\n    tag_301:\n        /* \"contracts/Ownable.sol\":2364:2380  address oldOwner */\n      0x00\n        /* \"contracts/Ownable.sol\":2383:2389  _owner */\n      0x02\n      0x00\n      swap1\n      sload\n      swap1\n      0x0100\n      exp\n      swap1\n      div\n      0xffffffffffffffffffffffffffffffffffffffff\n      and\n        /* \"contracts/Ownable.sol\":2364:2389  address oldOwner = _owner */\n      swap1\n      pop\n        /* \"contracts/Ownable.sol\":2408:2416  newOwner */\n      dup2\n        /* \"contracts/Ownable.sol\":2399:2405  _owner */\n      0x02\n      0x00\n        /* \"contracts/Ownable.sol\":2399:2416  _owner = newOwner */\n      0x0100\n      exp\n      dup2\n      sload\n      dup2\n      0xffffffffffffffffffffffffffffffffffffffff\n      mul\n      not\n      and\n      swap1\n      dup4\n      0xffffffffffffffffffffffffffffffffffffffff\n      and\n      mul\n      or\n      swap1\n      sstore\n      pop\n        /* \"contracts/Ownable.sol\":2462:2470  newOwner */\n      dup2\n        /* \"contracts/Ownable.sol\":2431:2471  OwnershipTransferred(oldOwner, newOwner) */\n      0xffffffffffffffffffffffffffffffffffffffff\n      and\n        /* \"contracts/Ownable.sol\":2452:2460  oldOwner */\n      dup2\n        /* \"contracts/Ownable.sol\":2431:2471  OwnershipTransferred(oldOwner, newOwner) */\n      0xffffffffffffffffffffffffffffffffffffffff\n      and\n      0x8be0079c531659141344cd1fd0a4f28419497f9722a3daafe3b4186f6b6457e0\n      mload(0x40)\n      mload(0x40)\n      dup1\n      swap2\n      sub\n      swap1\n      log3\n        /* \"contracts/Ownable.sol\":2354:2478  {... */\n      pop\n        /* \"contracts/Ownable.sol\":2291:2478  function _transferOwnership(address newOwner) internal virtual {... */\n      pop\n      jump\t// out\n    tag_188:\n      dup3\n      dup1\n      sload\n      tag_361\n      swap1\n      tag_174\n      jump\t// in\n    tag_361:\n      swap1\n      0x00\n      mstore\n      keccak256(0x00, 0x20)\n      swap1\n      0x1f\n      add\n      0x20\n      swap1\n      div\n      dup2\n      add\n      swap3\n      dup3\n      tag_363\n      jumpi\n      0x00\n      dup6\n      sstore\n      jump(tag_362)\n    tag_363:\n      dup3\n      0x1f\n      lt\n      tag_364\n      jumpi\n      dup1\n      mload\n      not(0xff)\n      and\n      dup4\n      dup1\n      add\n      or\n      dup6\n      sstore\n      jump(tag_362)\n    tag_364:\n      dup3\n      dup1\n      add\n      0x01\n      add\n      dup6\n      sstore\n      dup3\n      iszero\n      tag_362\n      jumpi\n      swap2\n      dup3\n      add\n    tag_365:\n      dup3\n      dup2\n      gt\n      iszero\n      tag_366\n      jumpi\n      dup3\n      mload\n      dup3\n      sstore\n      swap2\n      0x20\n      add\n      swap2\n      swap1\n      0x01\n      add\n      swap1\n      jump(tag_365)\n    tag_366:\n    tag_362:\n      pop\n      swap1\n      pop\n      tag_367\n      swap2\n      swap1\n      tag_368\n      jump\t// in\n    tag_367:\n      pop\n      swap1\n      jump\t// out\n    tag_368:\n    tag_369:\n      dup1\n      dup3\n      gt\n      iszero\n      tag_370\n      jumpi\n      0x00\n      dup2\n      0x00\n      swap1\n      sstore\n      pop\n      0x01\n      add\n      jump(tag_369)\n    tag_370:\n      pop\n      swap1\n      jump\t// out\n        /* \"#utility.yul\":7:82   */\n    tag_371:\n        /* \"#utility.yul\":40:46   */\n      0x00\n        /* \"#utility.yul\":73:75   */\n      0x40\n        /* \"#utility.yul\":67:76   */\n      mload\n        /* \"#utility.yul\":57:76   */\n      swap1\n      pop\n        /* \"#utility.yul\":7:82   */\n      swap1\n      jump\t// out\n        /* \"#utility.yul\":88:205   */\n    tag_372:\n        /* \"#utility.yul\":197:198   */\n      0x00\n        /* \"#utility.yul\":194:195   */\n      dup1\n        /* \"#utility.yul\":187:199   */\n      revert\n        /* \"#utility.yul\":211:328   */\n    tag_373:\n        /* \"#utility.yul\":320:321   */\n      0x00\n        /* \"#utility.yul\":317:318   */\n      dup1\n        /* \"#utility.yul\":310:322   */\n      revert\n        /* \"#utility.yul\":334:460   */\n    tag_374:\n        /* \"#utility.yul\":371:378   */\n      0x00\n        /* \"#utility.yul\":411:453   */\n      0xffffffffffffffffffffffffffffffffffffffff\n        /* \"#utility.yul\":404:409   */\n      dup3\n        /* \"#utility.yul\":400:454   */\n      and\n        /* \"#utility.yul\":389:454   */\n      swap1\n      pop\n        /* \"#utility.yul\":334:460   */\n      swap2\n      swap1\n      pop\n      jump\t// out\n        /* \"#utility.yul\":466:562   */\n    tag_375:\n        /* \"#utility.yul\":503:510   */\n      0x00\n        /* \"#utility.yul\":532:556   */\n      tag_448\n        /* \"#utility.yul\":550:555   */\n      dup3\n        /* \"#utility.yul\":532:556   */\n      tag_374\n      jump\t// in\n    tag_448:\n        /* \"#utility.yul\":521:556   */\n      swap1\n      pop\n        /* \"#utility.yul\":466:562   */\n      swap2\n      swap1\n      pop\n      jump\t// out\n        /* \"#utility.yul\":568:690   */\n    tag_376:\n        /* \"#utility.yul\":641:665   */\n      tag_450\n        /* \"#utility.yul\":659:664   */\n      dup2\n        /* \"#utility.yul\":641:665   */\n      tag_375\n      jump\t// in\n    tag_450:\n        /* \"#utility.yul\":634:639   */\n      dup2\n        /* \"#utility.yul\":631:666   */\n      eq\n        /* \"#utility.yul\":621:684   */\n      tag_451\n      jumpi\n        /* \"#utility.yul\":680:681   */\n      0x00\n        /* \"#utility.yul\":677:678   */\n      dup1\n        /* \"#utility.yul\":670:682   */\n      revert\n        /* \"#utility.yul\":621:684   */\n    tag_451:\n        /* \"#utility.yul\":568:690   */\n      pop\n      jump\t// out\n        /* \"#utility.yul\":696:835   */\n    tag_377:\n        /* \"#utility.yul\":742:747   */\n      0x00\n        /* \"#utility.yul\":780:786   */\n      dup2\n        /* \"#utility.yul\":767:787   */\n      calldataload\n        /* \"#utility.yul\":758:787   */\n      swap1\n      pop\n        /* \"#utility.yul\":796:829   */\n      tag_453\n        /* \"#utility.yul\":823:828   */\n      dup2\n        /* \"#utility.yul\":796:829   */\n      tag_376\n      jump\t// in\n    tag_453:\n        /* \"#utility.yul\":696:835   */\n      swap3\n      swap2\n      pop\n      pop\n      jump\t// out\n        /* \"#utility.yul\":841:918   */\n    tag_378:\n        /* \"#utility.yul\":878:885   */\n      0x00\n        /* \"#utility.yul\":907:912   */\n      dup2\n        /* \"#utility.yul\":896:912   */\n      swap1\n      pop\n        /* \"#utility.yul\":841:918   */\n      swap2\n      swap1\n      pop\n      jump\t// out\n        /* \"#utility.yul\":924:1046   */\n    tag_379:\n        /* \"#utility.yul\":997:1021   */\n      tag_456\n        /* \"#utility.yul\":1015:1020   */\n      dup2\n        /* \"#utility.yul\":997:1021   */\n      tag_378\n      jump\t// in\n    tag_456:\n        /* \"#utility.yul\":990:995   */\n      dup2\n        /* \"#utility.yul\":987:1022   */\n      eq\n        /* \"#utility.yul\":977:1040   */\n      tag_457\n      jumpi\n        /* \"#utility.yul\":1036:1037   */\n      0x00\n        /* \"#utility.yul\":1033:1034   */\n      dup1\n        /* \"#utility.yul\":1026:1038   */\n      revert\n        /* \"#utility.yul\":977:1040   */\n    tag_457:\n        /* \"#utility.yul\":924:1046   */\n      pop\n      jump\t// out\n        /* \"#utility.yul\":1052:1191   */\n    tag_380:\n        /* \"#utility.yul\":1098:1103   */\n      0x00\n        /* \"#utility.yul\":1136:1142   */\n      dup2\n        /* \"#utility.yul\":1123:1143   */\n      calldataload\n        /* \"#utility.yul\":1114:1143   */\n      swap1\n      pop\n        /* \"#utility.yul\":1152:1185   */\n      tag_459\n        /* \"#utility.yul\":1179:1184   */\n      dup2\n        /* \"#utility.yul\":1152:1185   */\n      tag_379\n      jump\t// in\n    tag_459:\n        /* \"#utility.yul\":1052:1191   */\n      swap3\n      swap2\n      pop\n      pop\n      jump\t// out\n        /* \"#utility.yul\":1197:1671   */\n    tag_46:\n        /* \"#utility.yul\":1265:1271   */\n      0x00\n        /* \"#utility.yul\":1273:1279   */\n      dup1\n        /* \"#utility.yul\":1322:1324   */\n      0x40\n        /* \"#utility.yul\":1310:1319   */\n      dup4\n        /* \"#utility.yul\":1301:1308   */\n      dup6\n        /* \"#utility.yul\":1297:1320   */\n      sub\n        /* \"#utility.yul\":1293:1325   */\n      slt\n        /* \"#utility.yul\":1290:1409   */\n      iszero\n      tag_461\n      jumpi\n        /* \"#utility.yul\":1328:1407   */\n      tag_462\n      tag_372\n      jump\t// in\n    tag_462:\n        /* \"#utility.yul\":1290:1409   */\n    tag_461:\n        /* \"#utility.yul\":1448:1449   */\n      0x00\n        /* \"#utility.yul\":1473:1526   */\n      tag_463\n        /* \"#utility.yul\":1518:1525   */\n      dup6\n        /* \"#utility.yul\":1509:1515   */\n      dup3\n        /* \"#utility.yul\":1498:1507   */\n      dup7\n        /* \"#utility.yul\":1494:1516   */\n      add\n        /* \"#utility.yul\":1473:1526   */\n      tag_377\n      jump\t// in\n    tag_463:\n        /* \"#utility.yul\":1463:1526   */\n      swap3\n      pop\n        /* \"#utility.yul\":1419:1536   */\n      pop\n        /* \"#utility.yul\":1575:1577   */\n      0x20\n        /* \"#utility.yul\":1601:1654   */\n      tag_464\n        /* \"#utility.yul\":1646:1653   */\n      dup6\n        /* \"#utility.yul\":1637:1643   */\n      dup3\n        /* \"#utility.yul\":1626:1635   */\n      dup7\n        /* \"#utility.yul\":1622:1644   */\n      add\n        /* \"#utility.yul\":1601:1654   */\n      tag_380\n      jump\t// in\n    tag_464:\n        /* \"#utility.yul\":1591:1654   */\n      swap2\n      pop\n        /* \"#utility.yul\":1546:1664   */\n      pop\n        /* \"#utility.yul\":1197:1671   */\n      swap3\n      pop\n      swap3\n      swap1\n      pop\n      jump\t// out\n        /* \"#utility.yul\":1677:1795   */\n    tag_381:\n        /* \"#utility.yul\":1764:1788   */\n      tag_466\n        /* \"#utility.yul\":1782:1787   */\n      dup2\n        /* \"#utility.yul\":1764:1788   */\n      tag_378\n      jump\t// in\n    tag_466:\n        /* \"#utility.yul\":1759:1762   */\n      dup3\n        /* \"#utility.yul\":1752:1789   */\n      mstore\n        /* \"#utility.yul\":1677:1795   */\n      pop\n      pop\n      jump\t// out\n        /* \"#utility.yul\":1801:2023   */\n    tag_49:\n        /* \"#utility.yul\":1894:1898   */\n      0x00\n        /* \"#utility.yul\":1932:1934   */\n      0x20\n        /* \"#utility.yul\":1921:1930   */\n      dup3\n        /* \"#utility.yul\":1917:1935   */\n      add\n        /* \"#utility.yul\":1909:1935   */\n      swap1\n      pop\n        /* \"#utility.yul\":1945:2016   */\n      tag_468\n        /* \"#utility.yul\":2013:2014   */\n      0x00\n        /* \"#utility.yul\":2002:2011   */\n      dup4\n        /* \"#utility.yul\":1998:2015   */\n      add\n        /* \"#utility.yul\":1989:1995   */\n      dup5\n        /* \"#utility.yul\":1945:2016   */\n      tag_381\n      jump\t// in\n    tag_468:\n        /* \"#utility.yul\":1801:2023   */\n      swap3\n      swap2\n      pop\n      pop\n      jump\t// out\n        /* \"#utility.yul\":2029:2178   */\n    tag_382:\n        /* \"#utility.yul\":2065:2072   */\n      0x00\n        /* \"#utility.yul\":2105:2171   */\n      0xffffffff00000000000000000000000000000000000000000000000000000000\n        /* \"#utility.yul\":2098:2103   */\n      dup3\n        /* \"#utility.yul\":2094:2172   */\n      and\n        /* \"#utility.yul\":2083:2172   */\n      swap1\n      pop\n        /* \"#utility.yul\":2029:2178   */\n      swap2\n      swap1\n      pop\n      jump\t// out\n        /* \"#utility.yul\":2184:2304   */\n    tag_383:\n        /* \"#utility.yul\":2256:2279   */\n      tag_471\n        /* \"#utility.yul\":2273:2278   */\n      dup2\n        /* \"#utility.yul\":2256:2279   */\n      tag_382\n      jump\t// in\n    tag_471:\n        /* \"#utility.yul\":2249:2254   */\n      dup2\n        /* \"#utility.yul\":2246:2280   */\n      eq\n        /* \"#utility.yul\":2236:2298   */\n      tag_472\n      jumpi\n        /* \"#utility.yul\":2294:2295   */\n      0x00\n        /* \"#utility.yul\":2291:2292   */\n      dup1\n        /* \"#utility.yul\":2284:2296   */\n      revert\n        /* \"#utility.yul\":2236:2298   */\n    tag_472:\n        /* \"#utility.yul\":2184:2304   */\n      pop\n      jump\t// out\n        /* \"#utility.yul\":2310:2447   */\n    tag_384:\n        /* \"#utility.yul\":2355:2360   */\n      0x00\n        /* \"#utility.yul\":2393:2399   */\n      dup2\n        /* \"#utility.yul\":2380:2400   */\n      calldataload\n        /* \"#utility.yul\":2371:2400   */\n      swap1\n      pop\n        /* \"#utility.yul\":2409:2441   */\n      tag_474\n        /* \"#utility.yul\":2435:2440   */\n      dup2\n        /* \"#utility.yul\":2409:2441   */\n      tag_383\n      jump\t// in\n    tag_474:\n        /* \"#utility.yul\":2310:2447   */\n      swap3\n      swap2\n      pop\n      pop\n      jump\t// out\n        /* \"#utility.yul\":2453:2780   */\n    tag_52:\n        /* \"#utility.yul\":2511:2517   */\n      0x00\n        /* \"#utility.yul\":2560:2562   */\n      0x20\n        /* \"#utility.yul\":2548:2557   */\n      dup3\n        /* \"#utility.yul\":2539:2546   */\n      dup5\n        /* \"#utility.yul\":2535:2558   */\n      sub\n        /* \"#utility.yul\":2531:2563   */\n      slt\n        /* \"#utility.yul\":2528:2647   */\n      iszero\n      tag_476\n      jumpi\n        /* \"#utility.yul\":2566:2645   */\n      tag_477\n      tag_372\n      jump\t// in\n    tag_477:\n        /* \"#utility.yul\":2528:2647   */\n    tag_476:\n        /* \"#utility.yul\":2686:2687   */\n      0x00\n        /* \"#utility.yul\":2711:2763   */\n      tag_478\n        /* \"#utility.yul\":2755:2762   */\n      dup5\n        /* \"#utility.yul\":2746:2752   */\n      dup3\n        /* \"#utility.yul\":2735:2744   */\n      dup6\n        /* \"#utility.yul\":2731:2753   */\n      add\n        /* \"#utility.yul\":2711:2763   */\n      tag_384\n      jump\t// in\n    tag_478:\n        /* \"#utility.yul\":2701:2763   */\n      swap2\n      pop\n        /* \"#utility.yul\":2657:2773   */\n      pop\n        /* \"#utility.yul\":2453:2780   */\n      swap3\n      swap2\n      pop\n      pop\n      jump\t// out\n        /* \"#utility.yul\":2786:2876   */\n    tag_385:\n        /* \"#utility.yul\":2820:2827   */\n      0x00\n        /* \"#utility.yul\":2863:2868   */\n      dup2\n        /* \"#utility.yul\":2856:2869   */\n      iszero\n        /* \"#utility.yul\":2849:2870   */\n      iszero\n        /* \"#utility.yul\":2838:2870   */\n      swap1\n      pop\n        /* \"#utility.yul\":2786:2876   */\n      swap2\n      swap1\n      pop\n      jump\t// out\n        /* \"#utility.yul\":2882:2991   */\n    tag_386:\n        /* \"#utility.yul\":2963:2984   */\n      tag_481\n        /* \"#utility.yul\":2978:2983   */\n      dup2\n        /* \"#utility.yul\":2963:2984   */\n      tag_385\n      jump\t// in\n    tag_481:\n        /* \"#utility.yul\":2958:2961   */\n      dup3\n        /* \"#utility.yul\":2951:2985   */\n      mstore\n        /* \"#utility.yul\":2882:2991   */\n      pop\n      pop\n      jump\t// out\n        /* \"#utility.yul\":2997:3207   */\n    tag_55:\n        /* \"#utility.yul\":3084:3088   */\n      0x00\n        /* \"#utility.yul\":3122:3124   */\n      0x20\n        /* \"#utility.yul\":3111:3120   */\n      dup3\n        /* \"#utility.yul\":3107:3125   */\n      add\n        /* \"#utility.yul\":3099:3125   */\n      swap1\n      pop\n        /* \"#utility.yul\":3135:3200   */\n      tag_483\n        /* \"#utility.yul\":3197:3198   */\n      0x00\n        /* \"#utility.yul\":3186:3195   */\n      dup4\n        /* \"#utility.yul\":3182:3199   */\n      add\n        /* \"#utility.yul\":3173:3179   */\n      dup5\n        /* \"#utility.yul\":3135:3200   */\n      tag_386\n      jump\t// in\n    tag_483:\n        /* \"#utility.yul\":2997:3207   */\n      swap3\n      swap2\n      pop\n      pop\n      jump\t// out\n        /* \"#utility.yul\":3213:3312   */\n    tag_387:\n        /* \"#utility.yul\":3265:3271   */\n      0x00\n        /* \"#utility.yul\":3299:3304   */\n      dup2\n        /* \"#utility.yul\":3293:3305   */\n      mload\n        /* \"#utility.yul\":3283:3305   */\n      swap1\n      pop\n        /* \"#utility.yul\":3213:3312   */\n      swap2\n      swap1\n      pop\n      jump\t// out\n        /* \"#utility.yul\":3318:3487   */\n    tag_388:\n        /* \"#utility.yul\":3402:3413   */\n      0x00\n        /* \"#utility.yul\":3436:3442   */\n      dup3\n        /* \"#utility.yul\":3431:3434   */\n      dup3\n        /* \"#utility.yul\":3424:3443   */\n      mstore\n        /* \"#utility.yul\":3476:3480   */\n      0x20\n        /* \"#utility.yul\":3471:3474   */\n      dup3\n        /* \"#utility.yul\":3467:3481   */\n      add\n        /* \"#utility.yul\":3452:3481   */\n      swap1\n      pop\n        /* \"#utility.yul\":3318:3487   */\n      swap3\n      swap2\n      pop\n      pop\n      jump\t// out\n        /* \"#utility.yul\":3493:3800   */\n    tag_389:\n        /* \"#utility.yul\":3561:3562   */\n      0x00\n        /* \"#utility.yul\":3571:3684   */\n    tag_487:\n        /* \"#utility.yul\":3585:3591   */\n      dup4\n        /* \"#utility.yul\":3582:3583   */\n      dup2\n        /* \"#utility.yul\":3579:3592   */\n      lt\n        /* \"#utility.yul\":3571:3684   */\n      iszero\n      tag_489\n      jumpi\n        /* \"#utility.yul\":3670:3671   */\n      dup1\n        /* \"#utility.yul\":3665:3668   */\n      dup3\n        /* \"#utility.yul\":3661:3672   */\n      add\n        /* \"#utility.yul\":3655:3673   */\n      mload\n        /* \"#utility.yul\":3651:3652   */\n      dup2\n        /* \"#utility.yul\":3646:3649   */\n      dup5\n        /* \"#utility.yul\":3642:3653   */\n      add\n        /* \"#utility.yul\":3635:3674   */\n      mstore\n        /* \"#utility.yul\":3607:3609   */\n      0x20\n        /* \"#utility.yul\":3604:3605   */\n      dup2\n        /* \"#utility.yul\":3600:3610   */\n      add\n        /* \"#utility.yul\":3595:3610   */\n      swap1\n      pop\n        /* \"#utility.yul\":3571:3684   */\n      jump(tag_487)\n    tag_489:\n        /* \"#utility.yul\":3702:3708   */\n      dup4\n        /* \"#utility.yul\":3699:3700   */\n      dup2\n        /* \"#utility.yul\":3696:3709   */\n      gt\n        /* \"#utility.yul\":3693:3794   */\n      iszero\n      tag_490\n      jumpi\n        /* \"#utility.yul\":3782:3783   */\n      0x00\n        /* \"#utility.yul\":3773:3779   */\n      dup5\n        /* \"#utility.yul\":3768:3771   */\n      dup5\n        /* \"#utility.yul\":3764:3780   */\n      add\n        /* \"#utility.yul\":3757:3784   */\n      mstore\n        /* \"#utility.yul\":3693:3794   */\n    tag_490:\n        /* \"#utility.yul\":3542:3800   */\n      pop\n        /* \"#utility.yul\":3493:3800   */\n      pop\n      pop\n      pop\n      jump\t// out\n        /* \"#utility.yul\":3806:3908   */\n    tag_390:\n        /* \"#utility.yul\":3847:3853   */\n      0x00\n        /* \"#utility.yul\":3898:3900   */\n      0x1f\n        /* \"#utility.yul\":3894:3901   */\n      not\n        /* \"#utility.yul\":3889:3891   */\n      0x1f\n        /* \"#utility.yul\":3882:3887   */\n      dup4\n        /* \"#utility.yul\":3878:3892   */\n      add\n        /* \"#utility.yul\":3874:3902   */\n      and\n        /* \"#utility.yul\":3864:3902   */\n      swap1\n      pop\n        /* \"#utility.yul\":3806:3908   */\n      swap2\n      swap1\n      pop\n      jump\t// out\n        /* \"#utility.yul\":3914:4278   */\n    tag_391:\n        /* \"#utility.yul\":4002:4005   */\n      0x00\n        /* \"#utility.yul\":4030:4069   */\n      tag_493\n        /* \"#utility.yul\":4063:4068   */\n      dup3\n        /* \"#utility.yul\":4030:4069   */\n      tag_387\n      jump\t// in\n    tag_493:\n        /* \"#utility.yul\":4085:4156   */\n      tag_494\n        /* \"#utility.yul\":4149:4155   */\n      dup2\n        /* \"#utility.yul\":4144:4147   */\n      dup6\n        /* \"#utility.yul\":4085:4156   */\n      tag_388\n      jump\t// in\n    tag_494:\n        /* \"#utility.yul\":4078:4156   */\n      swap4\n      pop\n        /* \"#utility.yul\":4165:4217   */\n      tag_495\n        /* \"#utility.yul\":4210:4216   */\n      dup2\n        /* \"#utility.yul\":4205:4208   */\n      dup6\n        /* \"#utility.yul\":4198:4202   */\n      0x20\n        /* \"#utility.yul\":4191:4196   */\n      dup7\n        /* \"#utility.yul\":4187:4203   */\n      add\n        /* \"#utility.yul\":4165:4217   */\n      tag_389\n      jump\t// in\n    tag_495:\n        /* \"#utility.yul\":4242:4271   */\n      tag_496\n        /* \"#utility.yul\":4264:4270   */\n      dup2\n        /* \"#utility.yul\":4242:4271   */\n      tag_390\n      jump\t// in\n    tag_496:\n        /* \"#utility.yul\":4237:4240   */\n      dup5\n        /* \"#utility.yul\":4233:4272   */\n      add\n        /* \"#utility.yul\":4226:4272   */\n      swap2\n      pop\n        /* \"#utility.yul\":4006:4278   */\n      pop\n        /* \"#utility.yul\":3914:4278   */\n      swap3\n      swap2\n      pop\n      pop\n      jump\t// out\n        /* \"#utility.yul\":4284:4597   */\n    tag_59:\n        /* \"#utility.yul\":4397:4401   */\n      0x00\n        /* \"#utility.yul\":4435:4437   */\n      0x20\n        /* \"#utility.yul\":4424:4433   */\n      dup3\n        /* \"#utility.yul\":4420:4438   */\n      add\n        /* \"#utility.yul\":4412:4438   */\n      swap1\n      pop\n        /* \"#utility.yul\":4484:4493   */\n      dup2\n        /* \"#utility.yul\":4478:4482   */\n      dup2\n        /* \"#utility.yul\":4474:4494   */\n      sub\n        /* \"#utility.yul\":4470:4471   */\n      0x00\n        /* \"#utility.yul\":4459:4468   */\n      dup4\n        /* \"#utility.yul\":4455:4472   */\n      add\n        /* \"#utility.yul\":4448:4495   */\n      mstore\n        /* \"#utility.yul\":4512:4590   */\n      tag_498\n        /* \"#utility.yul\":4585:4589   */\n      dup2\n        /* \"#utility.yul\":4576:4582   */\n      dup5\n        /* \"#utility.yul\":4512:4590   */\n      tag_391\n      jump\t// in\n    tag_498:\n        /* \"#utility.yul\":4504:4590   */\n      swap1\n      pop\n        /* \"#utility.yul\":4284:4597   */\n      swap3\n      swap2\n      pop\n      pop\n      jump\t// out\n        /* \"#utility.yul\":4603:4720   */\n    tag_392:\n        /* \"#utility.yul\":4712:4713   */\n      0x00\n        /* \"#utility.yul\":4709:4710   */\n      dup1\n        /* \"#utility.yul\":4702:4714   */\n      revert\n        /* \"#utility.yul\":4726:4843   */\n    tag_393:\n        /* \"#utility.yul\":4835:4836   */\n      0x00\n        /* \"#utility.yul\":4832:4833   */\n      dup1\n        /* \"#utility.yul\":4825:4837   */\n      revert\n        /* \"#utility.yul\":4849:5029   */\n    tag_276:\n        /* \"#utility.yul\":4897:4974   */\n      0x4e487b7100000000000000000000000000000000000000000000000000000000\n        /* \"#utility.yul\":4894:4895   */\n      0x00\n        /* \"#utility.yul\":4887:4975   */\n      mstore\n        /* \"#utility.yul\":4994:4998   */\n      0x41\n        /* \"#utility.yul\":4991:4992   */\n      0x04\n        /* \"#utility.yul\":4984:4999   */\n      mstore\n        /* \"#utility.yul\":5018:5022   */\n      0x24\n        /* \"#utility.yul\":5015:5016   */\n      0x00\n        /* \"#utility.yul\":5008:5023   */\n      revert\n        /* \"#utility.yul\":5035:5316   */\n    tag_394:\n        /* \"#utility.yul\":5118:5145   */\n      tag_503\n        /* \"#utility.yul\":5140:5144   */\n      dup3\n        /* \"#utility.yul\":5118:5145   */\n      tag_390\n      jump\t// in\n    tag_503:\n        /* \"#utility.yul\":5110:5116   */\n      dup2\n        /* \"#utility.yul\":5106:5146   */\n      add\n        /* \"#utility.yul\":5248:5254   */\n      dup2\n        /* \"#utility.yul\":5236:5246   */\n      dup2\n        /* \"#utility.yul\":5233:5255   */\n      lt\n        /* \"#utility.yul\":5212:5230   */\n      0xffffffffffffffff\n        /* \"#utility.yul\":5200:5210   */\n      dup3\n        /* \"#utility.yul\":5197:5231   */\n      gt\n        /* \"#utility.yul\":5194:5256   */\n      or\n        /* \"#utility.yul\":5191:5279   */\n      iszero\n      tag_504\n      jumpi\n        /* \"#utility.yul\":5259:5277   */\n      tag_505\n      tag_276\n      jump\t// in\n    tag_505:\n        /* \"#utility.yul\":5191:5279   */\n    tag_504:\n        /* \"#utility.yul\":5299:5309   */\n      dup1\n        /* \"#utility.yul\":5295:5297   */\n      0x40\n        /* \"#utility.yul\":5288:5310   */\n      mstore\n        /* \"#utility.yul\":5078:5316   */\n      pop\n        /* \"#utility.yul\":5035:5316   */\n      pop\n      pop\n      jump\t// out\n        /* \"#utility.yul\":5322:5451   */\n    tag_395:\n        /* \"#utility.yul\":5356:5362   */\n      0x00\n        /* \"#utility.yul\":5383:5403   */\n      tag_507\n      tag_371\n      jump\t// in\n    tag_507:\n        /* \"#utility.yul\":5373:5403   */\n      swap1\n      pop\n        /* \"#utility.yul\":5412:5445   */\n      tag_508\n        /* \"#utility.yul\":5440:5444   */\n      dup3\n        /* \"#utility.yul\":5432:5438   */\n      dup3\n        /* \"#utility.yul\":5412:5445   */\n      tag_394\n      jump\t// in\n    tag_508:\n        /* \"#utility.yul\":5322:5451   */\n      swap2\n      swap1\n      pop\n      jump\t// out\n        /* \"#utility.yul\":5457:5765   */\n    tag_396:\n        /* \"#utility.yul\":5519:5523   */\n      0x00\n        /* \"#utility.yul\":5609:5627   */\n      0xffffffffffffffff\n        /* \"#utility.yul\":5601:5607   */\n      dup3\n        /* \"#utility.yul\":5598:5628   */\n      gt\n        /* \"#utility.yul\":5595:5651   */\n      iszero\n      tag_510\n      jumpi\n        /* \"#utility.yul\":5631:5649   */\n      tag_511\n      tag_276\n      jump\t// in\n    tag_511:\n        /* \"#utility.yul\":5595:5651   */\n    tag_510:\n        /* \"#utility.yul\":5669:5698   */\n      tag_512\n        /* \"#utility.yul\":5691:5697   */\n      dup3\n        /* \"#utility.yul\":5669:5698   */\n      tag_390\n      jump\t// in\n    tag_512:\n        /* \"#utility.yul\":5661:5698   */\n      swap1\n      pop\n        /* \"#utility.yul\":5753:5757   */\n      0x20\n        /* \"#utility.yul\":5747:5751   */\n      dup2\n        /* \"#utility.yul\":5743:5758   */\n      add\n        /* \"#utility.yul\":5735:5758   */\n      swap1\n      pop\n        /* \"#utility.yul\":5457:5765   */\n      swap2\n      swap1\n      pop\n      jump\t// out\n        /* \"#utility.yul\":5771:5925   */\n    tag_397:\n        /* \"#utility.yul\":5855:5861   */\n      dup3\n        /* \"#utility.yul\":5850:5853   */\n      dup2\n        /* \"#utility.yul\":5845:5848   */\n      dup4\n        /* \"#utility.yul\":5832:5862   */\n      calldatacopy\n        /* \"#utility.yul\":5917:5918   */\n      0x00\n        /* \"#utility.yul\":5908:5914   */\n      dup4\n        /* \"#utility.yul\":5903:5906   */\n      dup4\n        /* \"#utility.yul\":5899:5915   */\n      add\n        /* \"#utility.yul\":5892:5919   */\n      mstore\n        /* \"#utility.yul\":5771:5925   */\n      pop\n      pop\n      pop\n      jump\t// out\n        /* \"#utility.yul\":5931:6343   */\n    tag_398:\n        /* \"#utility.yul\":6009:6014   */\n      0x00\n        /* \"#utility.yul\":6034:6100   */\n      tag_515\n        /* \"#utility.yul\":6050:6099   */\n      tag_516\n        /* \"#utility.yul\":6092:6098   */\n      dup5\n        /* \"#utility.yul\":6050:6099   */\n      tag_396\n      jump\t// in\n    tag_516:\n        /* \"#utility.yul\":6034:6100   */\n      tag_395\n      jump\t// in\n    tag_515:\n        /* \"#utility.yul\":6025:6100   */\n      swap1\n      pop\n        /* \"#utility.yul\":6123:6129   */\n      dup3\n        /* \"#utility.yul\":6116:6121   */\n      dup2\n        /* \"#utility.yul\":6109:6130   */\n      mstore\n        /* \"#utility.yul\":6161:6165   */\n      0x20\n        /* \"#utility.yul\":6154:6159   */\n      dup2\n        /* \"#utility.yul\":6150:6166   */\n      add\n        /* \"#utility.yul\":6199:6202   */\n      dup5\n        /* \"#utility.yul\":6190:6196   */\n      dup5\n        /* \"#utility.yul\":6185:6188   */\n      dup5\n        /* \"#utility.yul\":6181:6197   */\n      add\n        /* \"#utility.yul\":6178:6203   */\n      gt\n        /* \"#utility.yul\":6175:6287   */\n      iszero\n      tag_517\n      jumpi\n        /* \"#utility.yul\":6206:6285   */\n      tag_518\n      tag_393\n      jump\t// in\n    tag_518:\n        /* \"#utility.yul\":6175:6287   */\n    tag_517:\n        /* \"#utility.yul\":6296:6337   */\n      tag_519\n        /* \"#utility.yul\":6330:6336   */\n      dup5\n        /* \"#utility.yul\":6325:6328   */\n      dup3\n        /* \"#utility.yul\":6320:6323   */\n      dup6\n        /* \"#utility.yul\":6296:6337   */\n      tag_397\n      jump\t// in\n    tag_519:\n        /* \"#utility.yul\":6015:6343   */\n      pop\n        /* \"#utility.yul\":5931:6343   */\n      swap4\n      swap3\n      pop\n      pop\n      pop\n      jump\t// out\n        /* \"#utility.yul\":6363:6703   */\n    tag_399:\n        /* \"#utility.yul\":6419:6424   */\n      0x00\n        /* \"#utility.yul\":6468:6471   */\n      dup3\n        /* \"#utility.yul\":6461:6465   */\n      0x1f\n        /* \"#utility.yul\":6453:6459   */\n      dup4\n        /* \"#utility.yul\":6449:6466   */\n      add\n        /* \"#utility.yul\":6445:6472   */\n      slt\n        /* \"#utility.yul\":6435:6557   */\n      tag_521\n      jumpi\n        /* \"#utility.yul\":6476:6555   */\n      tag_522\n      tag_392\n      jump\t// in\n    tag_522:\n        /* \"#utility.yul\":6435:6557   */\n    tag_521:\n        /* \"#utility.yul\":6593:6599   */\n      dup2\n        /* \"#utility.yul\":6580:6600   */\n      calldataload\n        /* \"#utility.yul\":6618:6697   */\n      tag_523\n        /* \"#utility.yul\":6693:6696   */\n      dup5\n        /* \"#utility.yul\":6685:6691   */\n      dup3\n        /* \"#utility.yul\":6678:6682   */\n      0x20\n        /* \"#utility.yul\":6670:6676   */\n      dup7\n        /* \"#utility.yul\":6666:6683   */\n      add\n        /* \"#utility.yul\":6618:6697   */\n      tag_398\n      jump\t// in\n    tag_523:\n        /* \"#utility.yul\":6609:6697   */\n      swap2\n      pop\n        /* \"#utility.yul\":6425:6703   */\n      pop\n        /* \"#utility.yul\":6363:6703   */\n      swap3\n      swap2\n      pop\n      pop\n      jump\t// out\n        /* \"#utility.yul\":6709:7363   */\n    tag_62:\n        /* \"#utility.yul\":6787:6793   */\n      0x00\n        /* \"#utility.yul\":6795:6801   */\n      dup1\n        /* \"#utility.yul\":6844:6846   */\n      0x40\n        /* \"#utility.yul\":6832:6841   */\n      dup4\n        /* \"#utility.yul\":6823:6830   */\n      dup6\n        /* \"#utility.yul\":6819:6842   */\n      sub\n        /* \"#utility.yul\":6815:6847   */\n      slt\n        /* \"#utility.yul\":6812:6931   */\n      iszero\n      tag_525\n      jumpi\n        /* \"#utility.yul\":6850:6929   */\n      tag_526\n      tag_372\n      jump\t// in\n    tag_526:\n        /* \"#utility.yul\":6812:6931   */\n    tag_525:\n        /* \"#utility.yul\":6998:6999   */\n      0x00\n        /* \"#utility.yul\":6987:6996   */\n      dup4\n        /* \"#utility.yul\":6983:7000   */\n      add\n        /* \"#utility.yul\":6970:7001   */\n      calldataload\n        /* \"#utility.yul\":7028:7046   */\n      0xffffffffffffffff\n        /* \"#utility.yul\":7020:7026   */\n      dup2\n        /* \"#utility.yul\":7017:7047   */\n      gt\n        /* \"#utility.yul\":7014:7131   */\n      iszero\n      tag_527\n      jumpi\n        /* \"#utility.yul\":7050:7129   */\n      tag_528\n      tag_373\n      jump\t// in\n    tag_528:\n        /* \"#utility.yul\":7014:7131   */\n    tag_527:\n        /* \"#utility.yul\":7155:7218   */\n      tag_529\n        /* \"#utility.yul\":7210:7217   */\n      dup6\n        /* \"#utility.yul\":7201:7207   */\n      dup3\n        /* \"#utility.yul\":7190:7199   */\n      dup7\n        /* \"#utility.yul\":7186:7208   */\n      add\n        /* \"#utility.yul\":7155:7218   */\n      tag_399\n      jump\t// in\n    tag_529:\n        /* \"#utility.yul\":7145:7218   */\n      swap3\n      pop\n        /* \"#utility.yul\":6941:7228   */\n      pop\n        /* \"#utility.yul\":7267:7269   */\n      0x20\n        /* \"#utility.yul\":7293:7346   */\n      tag_530\n        /* \"#utility.yul\":7338:7345   */\n      dup6\n        /* \"#utility.yul\":7329:7335   */\n      dup3\n        /* \"#utility.yul\":7318:7327   */\n      dup7\n        /* \"#utility.yul\":7314:7336   */\n      add\n        /* \"#utility.yul\":7293:7346   */\n      tag_380\n      jump\t// in\n    tag_530:\n        /* \"#utility.yul\":7283:7346   */\n      swap2\n      pop\n        /* \"#utility.yul\":7238:7356   */\n      pop\n        /* \"#utility.yul\":6709:7363   */\n      swap3\n      pop\n      swap3\n      swap1\n      pop\n      jump\t// out\n        /* \"#utility.yul\":7369:7698   */\n    tag_66:\n        /* \"#utility.yul\":7428:7434   */\n      0x00\n        /* \"#utility.yul\":7477:7479   */\n      0x20\n        /* \"#utility.yul\":7465:7474   */\n      dup3\n        /* \"#utility.yul\":7456:7463   */\n      dup5\n        /* \"#utility.yul\":7452:7475   */\n      sub\n        /* \"#utility.yul\":7448:7480   */\n      slt\n        /* \"#utility.yul\":7445:7564   */\n      iszero\n      tag_532\n      jumpi\n        /* \"#utility.yul\":7483:7562   */\n      tag_533\n      tag_372\n      jump\t// in\n    tag_533:\n        /* \"#utility.yul\":7445:7564   */\n    tag_532:\n        /* \"#utility.yul\":7603:7604   */\n      0x00\n        /* \"#utility.yul\":7628:7681   */\n      tag_534\n        /* \"#utility.yul\":7673:7680   */\n      dup5\n        /* \"#utility.yul\":7664:7670   */\n      dup3\n        /* \"#utility.yul\":7653:7662   */\n      dup6\n        /* \"#utility.yul\":7649:7671   */\n      add\n        /* \"#utility.yul\":7628:7681   */\n      tag_377\n      jump\t// in\n    tag_534:\n        /* \"#utility.yul\":7618:7681   */\n      swap2\n      pop\n        /* \"#utility.yul\":7574:7691   */\n      pop\n        /* \"#utility.yul\":7369:7698   */\n      swap3\n      swap2\n      pop\n      pop\n      jump\t// out\n        /* \"#utility.yul\":7704:8033   */\n    tag_71:\n        /* \"#utility.yul\":7763:7769   */\n      0x00\n        /* \"#utility.yul\":7812:7814   */\n      0x20\n        /* \"#utility.yul\":7800:7809   */\n      dup3\n        /* \"#utility.yul\":7791:7798   */\n      dup5\n        /* \"#utility.yul\":7787:7810   */\n      sub\n        /* \"#utility.yul\":7783:7815   */\n      slt\n        /* \"#utility.yul\":7780:7899   */\n      iszero\n      tag_536\n      jumpi\n        /* \"#utility.yul\":7818:7897   */\n      tag_537\n      tag_372\n      jump\t// in\n    tag_537:\n        /* \"#utility.yul\":7780:7899   */\n    tag_536:\n        /* \"#utility.yul\":7938:7939   */\n      0x00\n        /* \"#utility.yul\":7963:8016   */\n      tag_538\n        /* \"#utility.yul\":8008:8015   */\n      dup5\n        /* \"#utility.yul\":7999:8005   */\n      dup3\n        /* \"#utility.yul\":7988:7997   */\n      dup6\n        /* \"#utility.yul\":7984:8006   */\n      add\n        /* \"#utility.yul\":7963:8016   */\n      tag_380\n      jump\t// in\n    tag_538:\n        /* \"#utility.yul\":7953:8016   */\n      swap2\n      pop\n        /* \"#utility.yul\":7909:8026   */\n      pop\n        /* \"#utility.yul\":7704:8033   */\n      swap3\n      swap2\n      pop\n      pop\n      jump\t// out\n        /* \"#utility.yul\":8039:8156   */\n    tag_400:\n        /* \"#utility.yul\":8148:8149   */\n      0x00\n        /* \"#utility.yul\":8145:8146   */\n      dup1\n        /* \"#utility.yul\":8138:8150   */\n      revert\n        /* \"#utility.yul\":8162:8279   */\n    tag_401:\n        /* \"#utility.yul\":8271:8272   */\n      0x00\n        /* \"#utility.yul\":8268:8269   */\n      dup1\n        /* \"#utility.yul\":8261:8273   */\n      revert\n        /* \"#utility.yul\":8302:8870   */\n    tag_402:\n        /* \"#utility.yul\":8375:8383   */\n      0x00\n        /* \"#utility.yul\":8385:8391   */\n      dup1\n        /* \"#utility.yul\":8435:8438   */\n      dup4\n        /* \"#utility.yul\":8428:8432   */\n      0x1f\n        /* \"#utility.yul\":8420:8426   */\n      dup5\n        /* \"#utility.yul\":8416:8433   */\n      add\n        /* \"#utility.yul\":8412:8439   */\n      slt\n        /* \"#utility.yul\":8402:8524   */\n      tag_542\n      jumpi\n        /* \"#utility.yul\":8443:8522   */\n      tag_543\n      tag_392\n      jump\t// in\n    tag_543:\n        /* \"#utility.yul\":8402:8524   */\n    tag_542:\n        /* \"#utility.yul\":8556:8562   */\n      dup3\n        /* \"#utility.yul\":8543:8563   */\n      calldataload\n        /* \"#utility.yul\":8533:8563   */\n      swap1\n      pop\n        /* \"#utility.yul\":8586:8604   */\n      0xffffffffffffffff\n        /* \"#utility.yul\":8578:8584   */\n      dup2\n        /* \"#utility.yul\":8575:8605   */\n      gt\n        /* \"#utility.yul\":8572:8689   */\n      iszero\n      tag_544\n      jumpi\n        /* \"#utility.yul\":8608:8687   */\n      tag_545\n      tag_400\n      jump\t// in\n    tag_545:\n        /* \"#utility.yul\":8572:8689   */\n    tag_544:\n        /* \"#utility.yul\":8722:8726   */\n      0x20\n        /* \"#utility.yul\":8714:8720   */\n      dup4\n        /* \"#utility.yul\":8710:8727   */\n      add\n        /* \"#utility.yul\":8698:8727   */\n      swap2\n      pop\n        /* \"#utility.yul\":8776:8779   */\n      dup4\n        /* \"#utility.yul\":8768:8772   */\n      0x20\n        /* \"#utility.yul\":8760:8766   */\n      dup3\n        /* \"#utility.yul\":8756:8773   */\n      mul\n        /* \"#utility.yul\":8746:8754   */\n      dup4\n        /* \"#utility.yul\":8742:8774   */\n      add\n        /* \"#utility.yul\":8739:8780   */\n      gt\n        /* \"#utility.yul\":8736:8864   */\n      iszero\n      tag_546\n      jumpi\n        /* \"#utility.yul\":8783:8862   */\n      tag_547\n      tag_401\n      jump\t// in\n    tag_547:\n        /* \"#utility.yul\":8736:8864   */\n    tag_546:\n        /* \"#utility.yul\":8302:8870   */\n      swap3\n      pop\n      swap3\n      swap1\n      pop\n      jump\t// out\n        /* \"#utility.yul\":8889:9441   */\n    tag_403:\n        /* \"#utility.yul\":8946:8954   */\n      0x00\n        /* \"#utility.yul\":8956:8962   */\n      dup1\n        /* \"#utility.yul\":9006:9009   */\n      dup4\n        /* \"#utility.yul\":8999:9003   */\n      0x1f\n        /* \"#utility.yul\":8991:8997   */\n      dup5\n        /* \"#utility.yul\":8987:9004   */\n      add\n        /* \"#utility.yul\":8983:9010   */\n      slt\n        /* \"#utility.yul\":8973:9095   */\n      tag_549\n      jumpi\n        /* \"#utility.yul\":9014:9093   */\n      tag_550\n      tag_392\n      jump\t// in\n    tag_550:\n        /* \"#utility.yul\":8973:9095   */\n    tag_549:\n        /* \"#utility.yul\":9127:9133   */\n      dup3\n        /* \"#utility.yul\":9114:9134   */\n      calldataload\n        /* \"#utility.yul\":9104:9134   */\n      swap1\n      pop\n        /* \"#utility.yul\":9157:9175   */\n      0xffffffffffffffff\n        /* \"#utility.yul\":9149:9155   */\n      dup2\n        /* \"#utility.yul\":9146:9176   */\n      gt\n        /* \"#utility.yul\":9143:9260   */\n      iszero\n      tag_551\n      jumpi\n        /* \"#utility.yul\":9179:9258   */\n      tag_552\n      tag_400\n      jump\t// in\n    tag_552:\n        /* \"#utility.yul\":9143:9260   */\n    tag_551:\n        /* \"#utility.yul\":9293:9297   */\n      0x20\n        /* \"#utility.yul\":9285:9291   */\n      dup4\n        /* \"#utility.yul\":9281:9298   */\n      add\n        /* \"#utility.yul\":9269:9298   */\n      swap2\n      pop\n        /* \"#utility.yul\":9347:9350   */\n      dup4\n        /* \"#utility.yul\":9339:9343   */\n      0x01\n        /* \"#utility.yul\":9331:9337   */\n      dup3\n        /* \"#utility.yul\":9327:9344   */\n      mul\n        /* \"#utility.yul\":9317:9325   */\n      dup4\n        /* \"#utility.yul\":9313:9345   */\n      add\n        /* \"#utility.yul\":9310:9351   */\n      gt\n        /* \"#utility.yul\":9307:9435   */\n      iszero\n      tag_553\n      jumpi\n        /* \"#utility.yul\":9354:9433   */\n      tag_554\n      tag_401\n      jump\t// in\n    tag_554:\n        /* \"#utility.yul\":9307:9435   */\n    tag_553:\n        /* \"#utility.yul\":8889:9441   */\n      swap3\n      pop\n      swap3\n      swap1\n      pop\n      jump\t// out\n        /* \"#utility.yul\":9447:11016   */\n    tag_82:\n        /* \"#utility.yul\":9607:9613   */\n      0x00\n        /* \"#utility.yul\":9615:9621   */\n      dup1\n        /* \"#utility.yul\":9623:9629   */\n      0x00\n        /* \"#utility.yul\":9631:9637   */\n      dup1\n        /* \"#utility.yul\":9639:9645   */\n      0x00\n        /* \"#utility.yul\":9647:9653   */\n      dup1\n        /* \"#utility.yul\":9655:9661   */\n      0x00\n        /* \"#utility.yul\":9663:9669   */\n      dup1\n        /* \"#utility.yul\":9712:9715   */\n      0xa0\n        /* \"#utility.yul\":9700:9709   */\n      dup10\n        /* \"#utility.yul\":9691:9698   */\n      dup12\n        /* \"#utility.yul\":9687:9710   */\n      sub\n        /* \"#utility.yul\":9683:9716   */\n      slt\n        /* \"#utility.yul\":9680:9800   */\n      iszero\n      tag_556\n      jumpi\n        /* \"#utility.yul\":9719:9798   */\n      tag_557\n      tag_372\n      jump\t// in\n    tag_557:\n        /* \"#utility.yul\":9680:9800   */\n    tag_556:\n        /* \"#utility.yul\":9839:9840   */\n      0x00\n        /* \"#utility.yul\":9864:9917   */\n      tag_558\n        /* \"#utility.yul\":9909:9916   */\n      dup12\n        /* \"#utility.yul\":9900:9906   */\n      dup3\n        /* \"#utility.yul\":9889:9898   */\n      dup13\n        /* \"#utility.yul\":9885:9907   */\n      add\n        /* \"#utility.yul\":9864:9917   */\n      tag_377\n      jump\t// in\n    tag_558:\n        /* \"#utility.yul\":9854:9917   */\n      swap9\n      pop\n        /* \"#utility.yul\":9810:9927   */\n      pop\n        /* \"#utility.yul\":9966:9968   */\n      0x20\n        /* \"#utility.yul\":9992:10045   */\n      tag_559\n        /* \"#utility.yul\":10037:10044   */\n      dup12\n        /* \"#utility.yul\":10028:10034   */\n      dup3\n        /* \"#utility.yul\":10017:10026   */\n      dup13\n        /* \"#utility.yul\":10013:10035   */\n      add\n        /* \"#utility.yul\":9992:10045   */\n      tag_377\n      jump\t// in\n    tag_559:\n        /* \"#utility.yul\":9982:10045   */\n      swap8\n      pop\n        /* \"#utility.yul\":9937:10055   */\n      pop\n        /* \"#utility.yul\":10122:10124   */\n      0x40\n        /* \"#utility.yul\":10111:10120   */\n      dup10\n        /* \"#utility.yul\":10107:10125   */\n      add\n        /* \"#utility.yul\":10094:10126   */\n      calldataload\n        /* \"#utility.yul\":10153:10171   */\n      0xffffffffffffffff\n        /* \"#utility.yul\":10145:10151   */\n      dup2\n        /* \"#utility.yul\":10142:10172   */\n      gt\n        /* \"#utility.yul\":10139:10256   */\n      iszero\n      tag_560\n      jumpi\n        /* \"#utility.yul\":10175:10254   */\n      tag_561\n      tag_373\n      jump\t// in\n    tag_561:\n        /* \"#utility.yul\":10139:10256   */\n    tag_560:\n        /* \"#utility.yul\":10288:10368   */\n      tag_562\n        /* \"#utility.yul\":10360:10367   */\n      dup12\n        /* \"#utility.yul\":10351:10357   */\n      dup3\n        /* \"#utility.yul\":10340:10349   */\n      dup13\n        /* \"#utility.yul\":10336:10358   */\n      add\n        /* \"#utility.yul\":10288:10368   */\n      tag_402\n      jump\t// in\n    tag_562:\n        /* \"#utility.yul\":10270:10368   */\n      swap7\n      pop\n      swap7\n      pop\n        /* \"#utility.yul\":10065:10378   */\n      pop\n        /* \"#utility.yul\":10445:10447   */\n      0x60\n        /* \"#utility.yul\":10434:10443   */\n      dup10\n        /* \"#utility.yul\":10430:10448   */\n      add\n        /* \"#utility.yul\":10417:10449   */\n      calldataload\n        /* \"#utility.yul\":10476:10494   */\n      0xffffffffffffffff\n        /* \"#utility.yul\":10468:10474   */\n      dup2\n        /* \"#utility.yul\":10465:10495   */\n      gt\n        /* \"#utility.yul\":10462:10579   */\n      iszero\n      tag_563\n      jumpi\n        /* \"#utility.yul\":10498:10577   */\n      tag_564\n      tag_373\n      jump\t// in\n    tag_564:\n        /* \"#utility.yul\":10462:10579   */\n    tag_563:\n        /* \"#utility.yul\":10611:10691   */\n      tag_565\n        /* \"#utility.yul\":10683:10690   */\n      dup12\n        /* \"#utility.yul\":10674:10680   */\n      dup3\n        /* \"#utility.yul\":10663:10672   */\n      dup13\n        /* \"#utility.yul\":10659:10681   */\n      add\n        /* \"#utility.yul\":10611:10691   */\n      tag_402\n      jump\t// in\n    tag_565:\n        /* \"#utility.yul\":10593:10691   */\n      swap5\n      pop\n      swap5\n      pop\n        /* \"#utility.yul\":10388:10701   */\n      pop\n        /* \"#utility.yul\":10768:10771   */\n      0x80\n        /* \"#utility.yul\":10757:10766   */\n      dup10\n        /* \"#utility.yul\":10753:10772   */\n      add\n        /* \"#utility.yul\":10740:10773   */\n      calldataload\n        /* \"#utility.yul\":10800:10818   */\n      0xffffffffffffffff\n        /* \"#utility.yul\":10792:10798   */\n      dup2\n        /* \"#utility.yul\":10789:10819   */\n      gt\n        /* \"#utility.yul\":10786:10903   */\n      iszero\n      tag_566\n      jumpi\n        /* \"#utility.yul\":10822:10901   */\n      tag_567\n      tag_373\n      jump\t// in\n    tag_567:\n        /* \"#utility.yul\":10786:10903   */\n    tag_566:\n        /* \"#utility.yul\":10935:10999   */\n      tag_568\n        /* \"#utility.yul\":10991:10998   */\n      dup12\n        /* \"#utility.yul\":10982:10988   */\n      dup3\n        /* \"#utility.yul\":10971:10980   */\n      dup13\n        /* \"#utility.yul\":10967:10989   */\n      add\n        /* \"#utility.yul\":10935:10999   */\n      tag_403\n      jump\t// in\n    tag_568:\n        /* \"#utility.yul\":10917:10999   */\n      swap3\n      pop\n      swap3\n      pop\n        /* \"#utility.yul\":10711:11009   */\n      pop\n        /* \"#utility.yul\":9447:11016   */\n      swap3\n      swap6\n      swap9\n      pop\n      swap3\n      swap6\n      swap9\n      swap1\n      swap4\n      swap7\n      pop\n      jump\t// out\n        /* \"#utility.yul\":11022:11641   */\n    tag_89:\n        /* \"#utility.yul\":11099:11105   */\n      0x00\n        /* \"#utility.yul\":11107:11113   */\n      dup1\n        /* \"#utility.yul\":11115:11121   */\n      0x00\n        /* \"#utility.yul\":11164:11166   */\n      0x60\n        /* \"#utility.yul\":11152:11161   */\n      dup5\n        /* \"#utility.yul\":11143:11150   */\n      dup7\n        /* \"#utility.yul\":11139:11162   */\n      sub\n        /* \"#utility.yul\":11135:11167   */\n      slt\n        /* \"#utility.yul\":11132:11251   */\n      iszero\n      tag_570\n      jumpi\n        /* \"#utility.yul\":11170:11249   */\n      tag_571\n      tag_372\n      jump\t// in\n    tag_571:\n        /* \"#utility.yul\":11132:11251   */\n    tag_570:\n        /* \"#utility.yul\":11290:11291   */\n      0x00\n        /* \"#utility.yul\":11315:11368   */\n      tag_572\n        /* \"#utility.yul\":11360:11367   */\n      dup7\n        /* \"#utility.yul\":11351:11357   */\n      dup3\n        /* \"#utility.yul\":11340:11349   */\n      dup8\n        /* \"#utility.yul\":11336:11358   */\n      add\n        /* \"#utility.yul\":11315:11368   */\n      tag_377\n      jump\t// in\n    tag_572:\n        /* \"#utility.yul\":11305:11368   */\n      swap4\n      pop\n        /* \"#utility.yul\":11261:11378   */\n      pop\n        /* \"#utility.yul\":11417:11419   */\n      0x20\n        /* \"#utility.yul\":11443:11496   */\n      tag_573\n        /* \"#utility.yul\":11488:11495   */\n      dup7\n        /* \"#utility.yul\":11479:11485   */\n      dup3\n        /* \"#utility.yul\":11468:11477   */\n      dup8\n        /* \"#utility.yul\":11464:11486   */\n      add\n        /* \"#utility.yul\":11443:11496   */\n      tag_380\n      jump\t// in\n    tag_573:\n        /* \"#utility.yul\":11433:11496   */\n      swap3\n      pop\n        /* \"#utility.yul\":11388:11506   */\n      pop\n        /* \"#utility.yul\":11545:11547   */\n      0x40\n        /* \"#utility.yul\":11571:11624   */\n      tag_574\n        /* \"#utility.yul\":11616:11623   */\n      dup7\n        /* \"#utility.yul\":11607:11613   */\n      dup3\n        /* \"#utility.yul\":11596:11605   */\n      dup8\n        /* \"#utility.yul\":11592:11614   */\n      add\n        /* \"#utility.yul\":11571:11624   */\n      tag_380\n      jump\t// in\n    tag_574:\n        /* \"#utility.yul\":11561:11624   */\n      swap2\n      pop\n        /* \"#utility.yul\":11516:11634   */\n      pop\n        /* \"#utility.yul\":11022:11641   */\n      swap3\n      pop\n      swap3\n      pop\n      swap3\n      jump\t// out\n        /* \"#utility.yul\":11647:11765   */\n    tag_404:\n        /* \"#utility.yul\":11734:11758   */\n      tag_576\n        /* \"#utility.yul\":11752:11757   */\n      dup2\n        /* \"#utility.yul\":11734:11758   */\n      tag_375\n      jump\t// in\n    tag_576:\n        /* \"#utility.yul\":11729:11732   */\n      dup3\n        /* \"#utility.yul\":11722:11759   */\n      mstore\n        /* \"#utility.yul\":11647:11765   */\n      pop\n      pop\n      jump\t// out\n        /* \"#utility.yul\":11771:11993   */\n    tag_102:\n        /* \"#utility.yul\":11864:11868   */\n      0x00\n        /* \"#utility.yul\":11902:11904   */\n      0x20\n        /* \"#utility.yul\":11891:11900   */\n      dup3\n        /* \"#utility.yul\":11887:11905   */\n      add\n        /* \"#utility.yul\":11879:11905   */\n      swap1\n      pop\n        /* \"#utility.yul\":11915:11986   */\n      tag_578\n        /* \"#utility.yul\":11983:11984   */\n      0x00\n        /* \"#utility.yul\":11972:11981   */\n      dup4\n        /* \"#utility.yul\":11968:11985   */\n      add\n        /* \"#utility.yul\":11959:11965   */\n      dup5\n        /* \"#utility.yul\":11915:11986   */\n      tag_404\n      jump\t// in\n    tag_578:\n        /* \"#utility.yul\":11771:11993   */\n      swap3\n      swap2\n      pop\n      pop\n      jump\t// out\n        /* \"#utility.yul\":12016:12584   */\n    tag_405:\n        /* \"#utility.yul\":12089:12097   */\n      0x00\n        /* \"#utility.yul\":12099:12105   */\n      dup1\n        /* \"#utility.yul\":12149:12152   */\n      dup4\n        /* \"#utility.yul\":12142:12146   */\n      0x1f\n        /* \"#utility.yul\":12134:12140   */\n      dup5\n        /* \"#utility.yul\":12130:12147   */\n      add\n        /* \"#utility.yul\":12126:12153   */\n      slt\n        /* \"#utility.yul\":12116:12238   */\n      tag_580\n      jumpi\n        /* \"#utility.yul\":12157:12236   */\n      tag_581\n      tag_392\n      jump\t// in\n    tag_581:\n        /* \"#utility.yul\":12116:12238   */\n    tag_580:\n        /* \"#utility.yul\":12270:12276   */\n      dup3\n        /* \"#utility.yul\":12257:12277   */\n      calldataload\n        /* \"#utility.yul\":12247:12277   */\n      swap1\n      pop\n        /* \"#utility.yul\":12300:12318   */\n      0xffffffffffffffff\n        /* \"#utility.yul\":12292:12298   */\n      dup2\n        /* \"#utility.yul\":12289:12319   */\n      gt\n        /* \"#utility.yul\":12286:12403   */\n      iszero\n      tag_582\n      jumpi\n        /* \"#utility.yul\":12322:12401   */\n      tag_583\n      tag_400\n      jump\t// in\n    tag_583:\n        /* \"#utility.yul\":12286:12403   */\n    tag_582:\n        /* \"#utility.yul\":12436:12440   */\n      0x20\n        /* \"#utility.yul\":12428:12434   */\n      dup4\n        /* \"#utility.yul\":12424:12441   */\n      add\n        /* \"#utility.yul\":12412:12441   */\n      swap2\n      pop\n        /* \"#utility.yul\":12490:12493   */\n      dup4\n        /* \"#utility.yul\":12482:12486   */\n      0x20\n        /* \"#utility.yul\":12474:12480   */\n      dup3\n        /* \"#utility.yul\":12470:12487   */\n      mul\n        /* \"#utility.yul\":12460:12468   */\n      dup4\n        /* \"#utility.yul\":12456:12488   */\n      add\n        /* \"#utility.yul\":12453:12494   */\n      gt\n        /* \"#utility.yul\":12450:12578   */\n      iszero\n      tag_584\n      jumpi\n        /* \"#utility.yul\":12497:12576   */\n      tag_585\n      tag_401\n      jump\t// in\n    tag_585:\n        /* \"#utility.yul\":12450:12578   */\n    tag_584:\n        /* \"#utility.yul\":12016:12584   */\n      swap3\n      pop\n      swap3\n      swap1\n      pop\n      jump\t// out\n        /* \"#utility.yul\":12590:13524   */\n    tag_105:\n        /* \"#utility.yul\":12712:12718   */\n      0x00\n        /* \"#utility.yul\":12720:12726   */\n      dup1\n        /* \"#utility.yul\":12728:12734   */\n      0x00\n        /* \"#utility.yul\":12736:12742   */\n      dup1\n        /* \"#utility.yul\":12785:12787   */\n      0x40\n        /* \"#utility.yul\":12773:12782   */\n      dup6\n        /* \"#utility.yul\":12764:12771   */\n      dup8\n        /* \"#utility.yul\":12760:12783   */\n      sub\n        /* \"#utility.yul\":12756:12788   */\n      slt\n        /* \"#utility.yul\":12753:12872   */\n      iszero\n      tag_587\n      jumpi\n        /* \"#utility.yul\":12791:12870   */\n      tag_588\n      tag_372\n      jump\t// in\n    tag_588:\n        /* \"#utility.yul\":12753:12872   */\n    tag_587:\n        /* \"#utility.yul\":12939:12940   */\n      0x00\n        /* \"#utility.yul\":12928:12937   */\n      dup6\n        /* \"#utility.yul\":12924:12941   */\n      add\n        /* \"#utility.yul\":12911:12942   */\n      calldataload\n        /* \"#utility.yul\":12969:12987   */\n      0xffffffffffffffff\n        /* \"#utility.yul\":12961:12967   */\n      dup2\n        /* \"#utility.yul\":12958:12988   */\n      gt\n        /* \"#utility.yul\":12955:13072   */\n      iszero\n      tag_589\n      jumpi\n        /* \"#utility.yul\":12991:13070   */\n      tag_590\n      tag_373\n      jump\t// in\n    tag_590:\n        /* \"#utility.yul\":12955:13072   */\n    tag_589:\n        /* \"#utility.yul\":13104:13184   */\n      tag_591\n        /* \"#utility.yul\":13176:13183   */\n      dup8\n        /* \"#utility.yul\":13167:13173   */\n      dup3\n        /* \"#utility.yul\":13156:13165   */\n      dup9\n        /* \"#utility.yul\":13152:13174   */\n      add\n        /* \"#utility.yul\":13104:13184   */\n      tag_405\n      jump\t// in\n    tag_591:\n        /* \"#utility.yul\":13086:13184   */\n      swap5\n      pop\n      swap5\n      pop\n        /* \"#utility.yul\":12882:13194   */\n      pop\n        /* \"#utility.yul\":13261:13263   */\n      0x20\n        /* \"#utility.yul\":13250:13259   */\n      dup6\n        /* \"#utility.yul\":13246:13264   */\n      add\n        /* \"#utility.yul\":13233:13265   */\n      calldataload\n        /* \"#utility.yul\":13292:13310   */\n      0xffffffffffffffff\n        /* \"#utility.yul\":13284:13290   */\n      dup2\n        /* \"#utility.yul\":13281:13311   */\n      gt\n        /* \"#utility.yul\":13278:13395   */\n      iszero\n      tag_592\n      jumpi\n        /* \"#utility.yul\":13314:13393   */\n      tag_593\n      tag_373\n      jump\t// in\n    tag_593:\n        /* \"#utility.yul\":13278:13395   */\n    tag_592:\n        /* \"#utility.yul\":13427:13507   */\n      tag_594\n        /* \"#utility.yul\":13499:13506   */\n      dup8\n        /* \"#utility.yul\":13490:13496   */\n      dup3\n        /* \"#utility.yul\":13479:13488   */\n      dup9\n        /* \"#utility.yul\":13475:13497   */\n      add\n        /* \"#utility.yul\":13427:13507   */\n      tag_402\n      jump\t// in\n    tag_594:\n        /* \"#utility.yul\":13409:13507   */\n      swap3\n      pop\n      swap3\n      pop\n        /* \"#utility.yul\":13204:13517   */\n      pop\n        /* \"#utility.yul\":12590:13524   */\n      swap3\n      swap6\n      swap2\n      swap5\n      pop\n      swap3\n      pop\n      jump\t// out\n        /* \"#utility.yul\":13530:13644   */\n    tag_406:\n        /* \"#utility.yul\":13597:13603   */\n      0x00\n        /* \"#utility.yul\":13631:13636   */\n      dup2\n        /* \"#utility.yul\":13625:13637   */\n      mload\n        /* \"#utility.yul\":13615:13637   */\n      swap1\n      pop\n        /* \"#utility.yul\":13530:13644   */\n      swap2\n      swap1\n      pop\n      jump\t// out\n        /* \"#utility.yul\":13650:13834   */\n    tag_407:\n        /* \"#utility.yul\":13749:13760   */\n      0x00\n        /* \"#utility.yul\":13783:13789   */\n      dup3\n        /* \"#utility.yul\":13778:13781   */\n      dup3\n        /* \"#utility.yul\":13771:13790   */\n      mstore\n        /* \"#utility.yul\":13823:13827   */\n      0x20\n        /* \"#utility.yul\":13818:13821   */\n      dup3\n        /* \"#utility.yul\":13814:13828   */\n      add\n        /* \"#utility.yul\":13799:13828   */\n      swap1\n      pop\n        /* \"#utility.yul\":13650:13834   */\n      swap3\n      swap2\n      pop\n      pop\n      jump\t// out\n        /* \"#utility.yul\":13840:13972   */\n    tag_408:\n        /* \"#utility.yul\":13907:13911   */\n      0x00\n        /* \"#utility.yul\":13930:13933   */\n      dup2\n        /* \"#utility.yul\":13922:13933   */\n      swap1\n      pop\n        /* \"#utility.yul\":13960:13964   */\n      0x20\n        /* \"#utility.yul\":13955:13958   */\n      dup3\n        /* \"#utility.yul\":13951:13965   */\n      add\n        /* \"#utility.yul\":13943:13965   */\n      swap1\n      pop\n        /* \"#utility.yul\":13840:13972   */\n      swap2\n      swap1\n      pop\n      jump\t// out\n        /* \"#utility.yul\":13978:14086   */\n    tag_409:\n        /* \"#utility.yul\":14055:14079   */\n      tag_599\n        /* \"#utility.yul\":14073:14078   */\n      dup2\n        /* \"#utility.yul\":14055:14079   */\n      tag_378\n      jump\t// in\n    tag_599:\n        /* \"#utility.yul\":14050:14053   */\n      dup3\n        /* \"#utility.yul\":14043:14080   */\n      mstore\n        /* \"#utility.yul\":13978:14086   */\n      pop\n      pop\n      jump\t// out\n        /* \"#utility.yul\":14092:14271   */\n    tag_410:\n        /* \"#utility.yul\":14161:14171   */\n      0x00\n        /* \"#utility.yul\":14182:14228   */\n      tag_601\n        /* \"#utility.yul\":14224:14227   */\n      dup4\n        /* \"#utility.yul\":14216:14222   */\n      dup4\n        /* \"#utility.yul\":14182:14228   */\n      tag_409\n      jump\t// in\n    tag_601:\n        /* \"#utility.yul\":14260:14264   */\n      0x20\n        /* \"#utility.yul\":14255:14258   */\n      dup4\n        /* \"#utility.yul\":14251:14265   */\n      add\n        /* \"#utility.yul\":14237:14265   */\n      swap1\n      pop\n        /* \"#utility.yul\":14092:14271   */\n      swap3\n      swap2\n      pop\n      pop\n      jump\t// out\n        /* \"#utility.yul\":14277:14390   */\n    tag_411:\n        /* \"#utility.yul\":14347:14351   */\n      0x00\n        /* \"#utility.yul\":14379:14383   */\n      0x20\n        /* \"#utility.yul\":14374:14377   */\n      dup3\n        /* \"#utility.yul\":14370:14384   */\n      add\n        /* \"#utility.yul\":14362:14384   */\n      swap1\n      pop\n        /* \"#utility.yul\":14277:14390   */\n      swap2\n      swap1\n      pop\n      jump\t// out\n        /* \"#utility.yul\":14426:15158   */\n    tag_412:\n        /* \"#utility.yul\":14545:14548   */\n      0x00\n        /* \"#utility.yul\":14574:14628   */\n      tag_604\n        /* \"#utility.yul\":14622:14627   */\n      dup3\n        /* \"#utility.yul\":14574:14628   */\n      tag_406\n      jump\t// in\n    tag_604:\n        /* \"#utility.yul\":14644:14730   */\n      tag_605\n        /* \"#utility.yul\":14723:14729   */\n      dup2\n        /* \"#utility.yul\":14718:14721   */\n      dup6\n        /* \"#utility.yul\":14644:14730   */\n      tag_407\n      jump\t// in\n    tag_605:\n        /* \"#utility.yul\":14637:14730   */\n      swap4\n      pop\n        /* \"#utility.yul\":14754:14810   */\n      tag_606\n        /* \"#utility.yul\":14804:14809   */\n      dup4\n        /* \"#utility.yul\":14754:14810   */\n      tag_408\n      jump\t// in\n    tag_606:\n        /* \"#utility.yul\":14833:14840   */\n      dup1\n        /* \"#utility.yul\":14864:14865   */\n      0x00\n        /* \"#utility.yul\":14849:15133   */\n    tag_607:\n        /* \"#utility.yul\":14874:14880   */\n      dup4\n        /* \"#utility.yul\":14871:14872   */\n      dup2\n        /* \"#utility.yul\":14868:14881   */\n      lt\n        /* \"#utility.yul\":14849:15133   */\n      iszero\n      tag_609\n      jumpi\n        /* \"#utility.yul\":14950:14956   */\n      dup2\n        /* \"#utility.yul\":14944:14957   */\n      mload\n        /* \"#utility.yul\":14977:15040   */\n      tag_610\n        /* \"#utility.yul\":15036:15039   */\n      dup9\n        /* \"#utility.yul\":15021:15034   */\n      dup3\n        /* \"#utility.yul\":14977:15040   */\n      tag_410\n      jump\t// in\n    tag_610:\n        /* \"#utility.yul\":14970:15040   */\n      swap8\n      pop\n        /* \"#utility.yul\":15063:15123   */\n      tag_611\n        /* \"#utility.yul\":15116:15122   */\n      dup4\n        /* \"#utility.yul\":15063:15123   */\n      tag_411\n      jump\t// in\n    tag_611:\n        /* \"#utility.yul\":15053:15123   */\n      swap3\n      pop\n        /* \"#utility.yul\":14909:15133   */\n      pop\n        /* \"#utility.yul\":14896:14897   */\n      0x01\n        /* \"#utility.yul\":14893:14894   */\n      dup2\n        /* \"#utility.yul\":14889:14898   */\n      add\n        /* \"#utility.yul\":14884:14898   */\n      swap1\n      pop\n        /* \"#utility.yul\":14849:15133   */\n      jump(tag_607)\n    tag_609:\n        /* \"#utility.yul\":14853:14867   */\n      pop\n        /* \"#utility.yul\":15149:15152   */\n      dup6\n        /* \"#utility.yul\":15142:15152   */\n      swap4\n      pop\n        /* \"#utility.yul\":14550:15158   */\n      pop\n      pop\n      pop\n        /* \"#utility.yul\":14426:15158   */\n      swap3\n      swap2\n      pop\n      pop\n      jump\t// out\n        /* \"#utility.yul\":15164:15537   */\n    tag_108:\n        /* \"#utility.yul\":15307:15311   */\n      0x00\n        /* \"#utility.yul\":15345:15347   */\n      0x20\n        /* \"#utility.yul\":15334:15343   */\n      dup3\n        /* \"#utility.yul\":15330:15348   */\n      add\n        /* \"#utility.yul\":15322:15348   */\n      swap1\n      pop\n        /* \"#utility.yul\":15394:15403   */\n      dup2\n        /* \"#utility.yul\":15388:15392   */\n      dup2\n        /* \"#utility.yul\":15384:15404   */\n      sub\n        /* \"#utility.yul\":15380:15381   */\n      0x00\n        /* \"#utility.yul\":15369:15378   */\n      dup4\n        /* \"#utility.yul\":15365:15382   */\n      add\n        /* \"#utility.yul\":15358:15405   */\n      mstore\n        /* \"#utility.yul\":15422:15530   */\n      tag_613\n        /* \"#utility.yul\":15525:15529   */\n      dup2\n        /* \"#utility.yul\":15516:15522   */\n      dup5\n        /* \"#utility.yul\":15422:15530   */\n      tag_412\n      jump\t// in\n    tag_613:\n        /* \"#utility.yul\":15414:15530   */\n      swap1\n      pop\n        /* \"#utility.yul\":15164:15537   */\n      swap3\n      swap2\n      pop\n      pop\n      jump\t// out\n        /* \"#utility.yul\":15543:15620   */\n    tag_413:\n        /* \"#utility.yul\":15580:15587   */\n      0x00\n        /* \"#utility.yul\":15609:15614   */\n      dup2\n        /* \"#utility.yul\":15598:15614   */\n      swap1\n      pop\n        /* \"#utility.yul\":15543:15620   */\n      swap2\n      swap1\n      pop\n      jump\t// out\n        /* \"#utility.yul\":15626:15744   */\n    tag_414:\n        /* \"#utility.yul\":15713:15737   */\n      tag_616\n        /* \"#utility.yul\":15731:15736   */\n      dup2\n        /* \"#utility.yul\":15713:15737   */\n      tag_413\n      jump\t// in\n    tag_616:\n        /* \"#utility.yul\":15708:15711   */\n      dup3\n        /* \"#utility.yul\":15701:15738   */\n      mstore\n        /* \"#utility.yul\":15626:15744   */\n      pop\n      pop\n      jump\t// out\n        /* \"#utility.yul\":15750:15972   */\n    tag_117:\n        /* \"#utility.yul\":15843:15847   */\n      0x00\n        /* \"#utility.yul\":15881:15883   */\n      0x20\n        /* \"#utility.yul\":15870:15879   */\n      dup3\n        /* \"#utility.yul\":15866:15884   */\n      add\n        /* \"#utility.yul\":15858:15884   */\n      swap1\n      pop\n        /* \"#utility.yul\":15894:15965   */\n      tag_618\n        /* \"#utility.yul\":15962:15963   */\n      0x00\n        /* \"#utility.yul\":15951:15960   */\n      dup4\n        /* \"#utility.yul\":15947:15964   */\n      add\n        /* \"#utility.yul\":15938:15944   */\n      dup5\n        /* \"#utility.yul\":15894:15965   */\n      tag_414\n      jump\t// in\n    tag_618:\n        /* \"#utility.yul\":15750:15972   */\n      swap3\n      swap2\n      pop\n      pop\n      jump\t// out\n        /* \"#utility.yul\":15978:16094   */\n    tag_415:\n        /* \"#utility.yul\":16048:16069   */\n      tag_620\n        /* \"#utility.yul\":16063:16068   */\n      dup2\n        /* \"#utility.yul\":16048:16069   */\n      tag_385\n      jump\t// in\n    tag_620:\n        /* \"#utility.yul\":16041:16046   */\n      dup2\n        /* \"#utility.yul\":16038:16070   */\n      eq\n        /* \"#utility.yul\":16028:16088   */\n      tag_621\n      jumpi\n        /* \"#utility.yul\":16084:16085   */\n      0x00\n        /* \"#utility.yul\":16081:16082   */\n      dup1\n        /* \"#utility.yul\":16074:16086   */\n      revert\n        /* \"#utility.yul\":16028:16088   */\n    tag_621:\n        /* \"#utility.yul\":15978:16094   */\n      pop\n      jump\t// out\n        /* \"#utility.yul\":16100:16233   */\n    tag_416:\n        /* \"#utility.yul\":16143:16148   */\n      0x00\n        /* \"#utility.yul\":16181:16187   */\n      dup2\n        /* \"#utility.yul\":16168:16188   */\n      calldataload\n        /* \"#utility.yul\":16159:16188   */\n      swap1\n      pop\n        /* \"#utility.yul\":16197:16227   */\n      tag_623\n        /* \"#utility.yul\":16221:16226   */\n      dup2\n        /* \"#utility.yul\":16197:16227   */\n      tag_415\n      jump\t// in\n    tag_623:\n        /* \"#utility.yul\":16100:16233   */\n      swap3\n      swap2\n      pop\n      pop\n      jump\t// out\n        /* \"#utility.yul\":16239:16707   */\n    tag_133:\n        /* \"#utility.yul\":16304:16310   */\n      0x00\n        /* \"#utility.yul\":16312:16318   */\n      dup1\n        /* \"#utility.yul\":16361:16363   */\n      0x40\n        /* \"#utility.yul\":16349:16358   */\n      dup4\n        /* \"#utility.yul\":16340:16347   */\n      dup6\n        /* \"#utility.yul\":16336:16359   */\n      sub\n        /* \"#utility.yul\":16332:16364   */\n      slt\n        /* \"#utility.yul\":16329:16448   */\n      iszero\n      tag_625\n      jumpi\n        /* \"#utility.yul\":16367:16446   */\n      tag_626\n      tag_372\n      jump\t// in\n    tag_626:\n        /* \"#utility.yul\":16329:16448   */\n    tag_625:\n        /* \"#utility.yul\":16487:16488   */\n      0x00\n        /* \"#utility.yul\":16512:16565   */\n      tag_627\n        /* \"#utility.yul\":16557:16564   */\n      dup6\n        /* \"#utility.yul\":16548:16554   */\n      dup3\n        /* \"#utility.yul\":16537:16546   */\n      dup7\n        /* \"#utility.yul\":16533:16555   */\n      add\n        /* \"#utility.yul\":16512:16565   */\n      tag_377\n      jump\t// in\n    tag_627:\n        /* \"#utility.yul\":16502:16565   */\n      swap3\n      pop\n        /* \"#utility.yul\":16458:16575   */\n      pop\n        /* \"#utility.yul\":16614:16616   */\n      0x20\n        /* \"#utility.yul\":16640:16690   */\n      tag_628\n        /* \"#utility.yul\":16682:16689   */\n      dup6\n        /* \"#utility.yul\":16673:16679   */\n      dup3\n        /* \"#utility.yul\":16662:16671   */\n      dup7\n        /* \"#utility.yul\":16658:16680   */\n      add\n        /* \"#utility.yul\":16640:16690   */\n      tag_416\n      jump\t// in\n    tag_628:\n        /* \"#utility.yul\":16630:16690   */\n      swap2\n      pop\n        /* \"#utility.yul\":16585:16700   */\n      pop\n        /* \"#utility.yul\":16239:16707   */\n      swap3\n      pop\n      swap3\n      swap1\n      pop\n      jump\t// out\n        /* \"#utility.yul\":16713:17187   */\n    tag_154:\n        /* \"#utility.yul\":16781:16787   */\n      0x00\n        /* \"#utility.yul\":16789:16795   */\n      dup1\n        /* \"#utility.yul\":16838:16840   */\n      0x40\n        /* \"#utility.yul\":16826:16835   */\n      dup4\n        /* \"#utility.yul\":16817:16824   */\n      dup6\n        /* \"#utility.yul\":16813:16836   */\n      sub\n        /* \"#utility.yul\":16809:16841   */\n      slt\n        /* \"#utility.yul\":16806:16925   */\n      iszero\n      tag_630\n      jumpi\n        /* \"#utility.yul\":16844:16923   */\n      tag_631\n      tag_372\n      jump\t// in\n    tag_631:\n        /* \"#utility.yul\":16806:16925   */\n    tag_630:\n        /* \"#utility.yul\":16964:16965   */\n      0x00\n        /* \"#utility.yul\":16989:17042   */\n      tag_632\n        /* \"#utility.yul\":17034:17041   */\n      dup6\n        /* \"#utility.yul\":17025:17031   */\n      dup3\n        /* \"#utility.yul\":17014:17023   */\n      dup7\n        /* \"#utility.yul\":17010:17032   */\n      add\n        /* \"#utility.yul\":16989:17042   */\n      tag_377\n      jump\t// in\n    tag_632:\n        /* \"#utility.yul\":16979:17042   */\n      swap3\n      pop\n        /* \"#utility.yul\":16935:17052   */\n      pop\n        /* \"#utility.yul\":17091:17093   */\n      0x20\n        /* \"#utility.yul\":17117:17170   */\n      tag_633\n        /* \"#utility.yul\":17162:17169   */\n      dup6\n        /* \"#utility.yul\":17153:17159   */\n      dup3\n        /* \"#utility.yul\":17142:17151   */\n      dup7\n        /* \"#utility.yul\":17138:17160   */\n      add\n        /* \"#utility.yul\":17117:17170   */\n      tag_377\n      jump\t// in\n    tag_633:\n        /* \"#utility.yul\":17107:17170   */\n      swap2\n      pop\n        /* \"#utility.yul\":17062:17180   */\n      pop\n        /* \"#utility.yul\":16713:17187   */\n      swap3\n      pop\n      swap3\n      swap1\n      pop\n      jump\t// out\n        /* \"#utility.yul\":17193:18302   */\n    tag_165:\n        /* \"#utility.yul\":17299:17305   */\n      0x00\n        /* \"#utility.yul\":17307:17313   */\n      dup1\n        /* \"#utility.yul\":17315:17321   */\n      0x00\n        /* \"#utility.yul\":17323:17329   */\n      dup1\n        /* \"#utility.yul\":17331:17337   */\n      0x00\n        /* \"#utility.yul\":17339:17345   */\n      dup1\n        /* \"#utility.yul\":17388:17391   */\n      0xa0\n        /* \"#utility.yul\":17376:17385   */\n      dup8\n        /* \"#utility.yul\":17367:17374   */\n      dup10\n        /* \"#utility.yul\":17363:17386   */\n      sub\n        /* \"#utility.yul\":17359:17392   */\n      slt\n        /* \"#utility.yul\":17356:17476   */\n      iszero\n      tag_635\n      jumpi\n        /* \"#utility.yul\":17395:17474   */\n      tag_636\n      tag_372\n      jump\t// in\n    tag_636:\n        /* \"#utility.yul\":17356:17476   */\n    tag_635:\n        /* \"#utility.yul\":17515:17516   */\n      0x00\n        /* \"#utility.yul\":17540:17593   */\n      tag_637\n        /* \"#utility.yul\":17585:17592   */\n      dup10\n        /* \"#utility.yul\":17576:17582   */\n      dup3\n        /* \"#utility.yul\":17565:17574   */\n      dup11\n        /* \"#utility.yul\":17561:17583   */\n      add\n        /* \"#utility.yul\":17540:17593   */\n      tag_377\n      jump\t// in\n    tag_637:\n        /* \"#utility.yul\":17530:17593   */\n      swap7\n      pop\n        /* \"#utility.yul\":17486:17603   */\n      pop\n        /* \"#utility.yul\":17642:17644   */\n      0x20\n        /* \"#utility.yul\":17668:17721   */\n      tag_638\n        /* \"#utility.yul\":17713:17720   */\n      dup10\n        /* \"#utility.yul\":17704:17710   */\n      dup3\n        /* \"#utility.yul\":17693:17702   */\n      dup11\n        /* \"#utility.yul\":17689:17711   */\n      add\n        /* \"#utility.yul\":17668:17721   */\n      tag_377\n      jump\t// in\n    tag_638:\n        /* \"#utility.yul\":17658:17721   */\n      swap6\n      pop\n        /* \"#utility.yul\":17613:17731   */\n      pop\n        /* \"#utility.yul\":17770:17772   */\n      0x40\n        /* \"#utility.yul\":17796:17849   */\n      tag_639\n        /* \"#utility.yul\":17841:17848   */\n      dup10\n        /* \"#utility.yul\":17832:17838   */\n      dup3\n        /* \"#utility.yul\":17821:17830   */\n      dup11\n        /* \"#utility.yul\":17817:17839   */\n      add\n        /* \"#utility.yul\":17796:17849   */\n      tag_380\n      jump\t// in\n    tag_639:\n        /* \"#utility.yul\":17786:17849   */\n      swap5\n      pop\n        /* \"#utility.yul\":17741:17859   */\n      pop\n        /* \"#utility.yul\":17898:17900   */\n      0x60\n        /* \"#utility.yul\":17924:17977   */\n      tag_640\n        /* \"#utility.yul\":17969:17976   */\n      dup10\n        /* \"#utility.yul\":17960:17966   */\n      dup3\n        /* \"#utility.yul\":17949:17958   */\n      dup11\n        /* \"#utility.yul\":17945:17967   */\n      add\n        /* \"#utility.yul\":17924:17977   */\n      tag_380\n      jump\t// in\n    tag_640:\n        /* \"#utility.yul\":17914:17977   */\n      swap4\n      pop\n        /* \"#utility.yul\":17869:17987   */\n      pop\n        /* \"#utility.yul\":18054:18057   */\n      0x80\n        /* \"#utility.yul\":18043:18052   */\n      dup8\n        /* \"#utility.yul\":18039:18058   */\n      add\n        /* \"#utility.yul\":18026:18059   */\n      calldataload\n        /* \"#utility.yul\":18086:18104   */\n      0xffffffffffffffff\n        /* \"#utility.yul\":18078:18084   */\n      dup2\n        /* \"#utility.yul\":18075:18105   */\n      gt\n        /* \"#utility.yul\":18072:18189   */\n      iszero\n      tag_641\n      jumpi\n        /* \"#utility.yul\":18108:18187   */\n      tag_642\n      tag_373\n      jump\t// in\n    tag_642:\n        /* \"#utility.yul\":18072:18189   */\n    tag_641:\n        /* \"#utility.yul\":18221:18285   */\n      tag_643\n        /* \"#utility.yul\":18277:18284   */\n      dup10\n        /* \"#utility.yul\":18268:18274   */\n      dup3\n        /* \"#utility.yul\":18257:18266   */\n      dup11\n        /* \"#utility.yul\":18253:18275   */\n      add\n        /* \"#utility.yul\":18221:18285   */\n      tag_403\n      jump\t// in\n    tag_643:\n        /* \"#utility.yul\":18203:18285   */\n      swap3\n      pop\n      swap3\n      pop\n        /* \"#utility.yul\":17997:18295   */\n      pop\n        /* \"#utility.yul\":17193:18302   */\n      swap3\n      swap6\n      pop\n      swap3\n      swap6\n      pop\n      swap3\n      swap6\n      jump\t// out\n        /* \"#utility.yul\":18308:18488   */\n    tag_417:\n        /* \"#utility.yul\":18356:18433   */\n      0x4e487b7100000000000000000000000000000000000000000000000000000000\n        /* \"#utility.yul\":18353:18354   */\n      0x00\n        /* \"#utility.yul\":18346:18434   */\n      mstore\n        /* \"#utility.yul\":18453:18457   */\n      0x22\n        /* \"#utility.yul\":18450:18451   */\n      0x04\n        /* \"#utility.yul\":18443:18458   */\n      mstore\n        /* \"#utility.yul\":18477:18481   */\n      0x24\n        /* \"#utility.yul\":18474:18475   */\n      0x00\n        /* \"#utility.yul\":18467:18482   */\n      revert\n        /* \"#utility.yul\":18494:18814   */\n    tag_174:\n        /* \"#utility.yul\":18538:18544   */\n      0x00\n        /* \"#utility.yul\":18575:18576   */\n      0x02\n        /* \"#utility.yul\":18569:18573   */\n      dup3\n        /* \"#utility.yul\":18565:18577   */\n      div\n        /* \"#utility.yul\":18555:18577   */\n      swap1\n      pop\n        /* \"#utility.yul\":18622:18623   */\n      0x01\n        /* \"#utility.yul\":18616:18620   */\n      dup3\n        /* \"#utility.yul\":18612:18624   */\n      and\n        /* \"#utility.yul\":18643:18661   */\n      dup1\n        /* \"#utility.yul\":18633:18714   */\n      tag_646\n      jumpi\n        /* \"#utility.yul\":18699:18703   */\n      0x7f\n        /* \"#utility.yul\":18691:18697   */\n      dup3\n        /* \"#utility.yul\":18687:18704   */\n      and\n        /* \"#utility.yul\":18677:18704   */\n      swap2\n      pop\n        /* \"#utility.yul\":18633:18714   */\n    tag_646:\n        /* \"#utility.yul\":18761:18763   */\n      0x20\n        /* \"#utility.yul\":18753:18759   */\n      dup3\n        /* \"#utility.yul\":18750:18764   */\n      lt\n        /* \"#utility.yul\":18730:18748   */\n      dup2\n        /* \"#utility.yul\":18727:18765   */\n      eq\n        /* \"#utility.yul\":18724:18808   */\n      iszero\n      tag_647\n      jumpi\n        /* \"#utility.yul\":18780:18798   */\n      tag_648\n      tag_417\n      jump\t// in\n    tag_648:\n        /* \"#utility.yul\":18724:18808   */\n    tag_647:\n        /* \"#utility.yul\":18545:18814   */\n      pop\n        /* \"#utility.yul\":18494:18814   */\n      swap2\n      swap1\n      pop\n      jump\t// out\n        /* \"#utility.yul\":18820:19002   */\n    tag_418:\n        /* \"#utility.yul\":18960:18994   */\n      0x4f776e61626c653a2063616c6c6572206973206e6f7420746865206f776e6572\n        /* \"#utility.yul\":18956:18957   */\n      0x00\n        /* \"#utility.yul\":18948:18954   */\n      dup3\n        /* \"#utility.yul\":18944:18958   */\n      add\n        /* \"#utility.yul\":18937:18995   */\n      mstore\n        /* \"#utility.yul\":18820:19002   */\n      pop\n      jump\t// out\n        /* \"#utility.yul\":19008:19374   */\n    tag_419:\n        /* \"#utility.yul\":19150:19153   */\n      0x00\n        /* \"#utility.yul\":19171:19238   */\n      tag_651\n        /* \"#utility.yul\":19235:19237   */\n      0x20\n        /* \"#utility.yul\":19230:19233   */\n      dup4\n        /* \"#utility.yul\":19171:19238   */\n      tag_388\n      jump\t// in\n    tag_651:\n        /* \"#utility.yul\":19164:19238   */\n      swap2\n      pop\n        /* \"#utility.yul\":19247:19340   */\n      tag_652\n        /* \"#utility.yul\":19336:19339   */\n      dup3\n        /* \"#utility.yul\":19247:19340   */\n      tag_418\n      jump\t// in\n    tag_652:\n        /* \"#utility.yul\":19365:19367   */\n      0x20\n        /* \"#utility.yul\":19360:19363   */\n      dup3\n        /* \"#utility.yul\":19356:19368   */\n      add\n        /* \"#utility.yul\":19349:19368   */\n      swap1\n      pop\n        /* \"#utility.yul\":19008:19374   */\n      swap2\n      swap1\n      pop\n      jump\t// out\n        /* \"#utility.yul\":19380:19799   */\n    tag_185:\n        /* \"#utility.yul\":19546:19550   */\n      0x00\n        /* \"#utility.yul\":19584:19586   */\n      0x20\n        /* \"#utility.yul\":19573:19582   */\n      dup3\n        /* \"#utility.yul\":19569:19587   */\n      add\n        /* \"#utility.yul\":19561:19587   */\n      swap1\n      pop\n        /* \"#utility.yul\":19633:19642   */\n      dup2\n        /* \"#utility.yul\":19627:19631   */\n      dup2\n        /* \"#utility.yul\":19623:19643   */\n      sub\n        /* \"#utility.yul\":19619:19620   */\n      0x00\n        /* \"#utility.yul\":19608:19617   */\n      dup4\n        /* \"#utility.yul\":19604:19621   */\n      add\n        /* \"#utility.yul\":19597:19644   */\n      mstore\n        /* \"#utility.yul\":19661:19792   */\n      tag_654\n        /* \"#utility.yul\":19787:19791   */\n      dup2\n        /* \"#utility.yul\":19661:19792   */\n      tag_419\n      jump\t// in\n    tag_654:\n        /* \"#utility.yul\":19653:19792   */\n      swap1\n      pop\n        /* \"#utility.yul\":19380:19799   */\n      swap2\n      swap1\n      pop\n      jump\t// out\n        /* \"#utility.yul\":19805:19970   */\n    tag_420:\n        /* \"#utility.yul\":19945:19962   */\n      0x4c454e4754485f4d49534d415443480000000000000000000000000000000000\n        /* \"#utility.yul\":19941:19942   */\n      0x00\n        /* \"#utility.yul\":19933:19939   */\n      dup3\n        /* \"#utility.yul\":19929:19943   */\n      add\n        /* \"#utility.yul\":19922:19963   */\n      mstore\n        /* \"#utility.yul\":19805:19970   */\n      pop\n      jump\t// out\n        /* \"#utility.yul\":19976:20342   */\n    tag_421:\n        /* \"#utility.yul\":20118:20121   */\n      0x00\n        /* \"#utility.yul\":20139:20206   */\n      tag_657\n        /* \"#utility.yul\":20203:20205   */\n      0x0f\n        /* \"#utility.yul\":20198:20201   */\n      dup4\n        /* \"#utility.yul\":20139:20206   */\n      tag_388\n      jump\t// in\n    tag_657:\n        /* \"#utility.yul\":20132:20206   */\n      swap2\n      pop\n        /* \"#utility.yul\":20215:20308   */\n      tag_658\n        /* \"#utility.yul\":20304:20307   */\n      dup3\n        /* \"#utility.yul\":20215:20308   */\n      tag_420\n      jump\t// in\n    tag_658:\n        /* \"#utility.yul\":20333:20335   */\n      0x20\n        /* \"#utility.yul\":20328:20331   */\n      dup3\n        /* \"#utility.yul\":20324:20336   */\n      add\n        /* \"#utility.yul\":20317:20336   */\n      swap1\n      pop\n        /* \"#utility.yul\":19976:20342   */\n      swap2\n      swap1\n      pop\n      jump\t// out\n        /* \"#utility.yul\":20348:20767   */\n    tag_209:\n        /* \"#utility.yul\":20514:20518   */\n      0x00\n        /* \"#utility.yul\":20552:20554   */\n      0x20\n        /* \"#utility.yul\":20541:20550   */\n      dup3\n        /* \"#utility.yul\":20537:20555   */\n      add\n        /* \"#utility.yul\":20529:20555   */\n      swap1\n      pop\n        /* \"#utility.yul\":20601:20610   */\n      dup2\n        /* \"#utility.yul\":20595:20599   */\n      dup2\n        /* \"#utility.yul\":20591:20611   */\n      sub\n        /* \"#utility.yul\":20587:20588   */\n      0x00\n        /* \"#utility.yul\":20576:20585   */\n      dup4\n        /* \"#utility.yul\":20572:20589   */\n      add\n        /* \"#utility.yul\":20565:20612   */\n      mstore\n        /* \"#utility.yul\":20629:20760   */\n      tag_660\n        /* \"#utility.yul\":20755:20759   */\n      dup2\n        /* \"#utility.yul\":20629:20760   */\n      tag_421\n      jump\t// in\n    tag_660:\n        /* \"#utility.yul\":20621:20760   */\n      swap1\n      pop\n        /* \"#utility.yul\":20348:20767   */\n      swap2\n      swap1\n      pop\n      jump\t// out\n        /* \"#utility.yul\":20773:20937   */\n    tag_422:\n        /* \"#utility.yul\":20913:20929   */\n      0x4e4f545f415554484f52495a4544000000000000000000000000000000000000\n        /* \"#utility.yul\":20909:20910   */\n      0x00\n        /* \"#utility.yul\":20901:20907   */\n      dup3\n        /* \"#utility.yul\":20897:20911   */\n      add\n        /* \"#utility.yul\":20890:20930   */\n      mstore\n        /* \"#utility.yul\":20773:20937   */\n      pop\n      jump\t// out\n        /* \"#utility.yul\":20943:21309   */\n    tag_423:\n        /* \"#utility.yul\":21085:21088   */\n      0x00\n        /* \"#utility.yul\":21106:21173   */\n      tag_663\n        /* \"#utility.yul\":21170:21172   */\n      0x0e\n        /* \"#utility.yul\":21165:21168   */\n      dup4\n        /* \"#utility.yul\":21106:21173   */\n      tag_388\n      jump\t// in\n    tag_663:\n        /* \"#utility.yul\":21099:21173   */\n      swap2\n      pop\n        /* \"#utility.yul\":21182:21275   */\n      tag_664\n        /* \"#utility.yul\":21271:21274   */\n      dup3\n        /* \"#utility.yul\":21182:21275   */\n      tag_422\n      jump\t// in\n    tag_664:\n        /* \"#utility.yul\":21300:21302   */\n      0x20\n        /* \"#utility.yul\":21295:21298   */\n      dup3\n        /* \"#utility.yul\":21291:21303   */\n      add\n        /* \"#utility.yul\":21284:21303   */\n      swap1\n      pop\n        /* \"#utility.yul\":20943:21309   */\n      swap2\n      swap1\n      pop\n      jump\t// out\n        /* \"#utility.yul\":21315:21734   */\n    tag_213:\n        /* \"#utility.yul\":21481:21485   */\n      0x00\n        /* \"#utility.yul\":21519:21521   */\n      0x20\n        /* \"#utility.yul\":21508:21517   */\n      dup3\n        /* \"#utility.yul\":21504:21522   */\n      add\n        /* \"#utility.yul\":21496:21522   */\n      swap1\n      pop\n        /* \"#utility.yul\":21568:21577   */\n      dup2\n        /* \"#utility.yul\":21562:21566   */\n      dup2\n        /* \"#utility.yul\":21558:21578   */\n      sub\n        /* \"#utility.yul\":21554:21555   */\n      0x00\n        /* \"#utility.yul\":21543:21552   */\n      dup4\n        /* \"#utility.yul\":21539:21556   */\n      add\n        /* \"#utility.yul\":21532:21579   */\n      mstore\n        /* \"#utility.yul\":21596:21727   */\n      tag_666\n        /* \"#utility.yul\":21722:21726   */\n      dup2\n        /* \"#utility.yul\":21596:21727   */\n      tag_423\n      jump\t// in\n    tag_666:\n        /* \"#utility.yul\":21588:21727   */\n      swap1\n      pop\n        /* \"#utility.yul\":21315:21734   */\n      swap2\n      swap1\n      pop\n      jump\t// out\n        /* \"#utility.yul\":21740:21920   */\n    tag_219:\n        /* \"#utility.yul\":21788:21865   */\n      0x4e487b7100000000000000000000000000000000000000000000000000000000\n        /* \"#utility.yul\":21785:21786   */\n      0x00\n        /* \"#utility.yul\":21778:21866   */\n      mstore\n        /* \"#utility.yul\":21885:21889   */\n      0x32\n        /* \"#utility.yul\":21882:21883   */\n      0x04\n        /* \"#utility.yul\":21875:21890   */\n      mstore\n        /* \"#utility.yul\":21909:21913   */\n      0x24\n        /* \"#utility.yul\":21906:21907   */\n      0x00\n        /* \"#utility.yul\":21899:21914   */\n      revert\n        /* \"#utility.yul\":21926:22106   */\n    tag_424:\n        /* \"#utility.yul\":21974:22051   */\n      0x4e487b7100000000000000000000000000000000000000000000000000000000\n        /* \"#utility.yul\":21971:21972   */\n      0x00\n        /* \"#utility.yul\":21964:22052   */\n      mstore\n        /* \"#utility.yul\":22071:22075   */\n      0x11\n        /* \"#utility.yul\":22068:22069   */\n      0x04\n        /* \"#utility.yul\":22061:22076   */\n      mstore\n        /* \"#utility.yul\":22095:22099   */\n      0x24\n        /* \"#utility.yul\":22092:22093   */\n      0x00\n        /* \"#utility.yul\":22085:22100   */\n      revert\n        /* \"#utility.yul\":22112:22303   */\n    tag_223:\n        /* \"#utility.yul\":22152:22156   */\n      0x00\n        /* \"#utility.yul\":22172:22192   */\n      tag_670\n        /* \"#utility.yul\":22190:22191   */\n      dup3\n        /* \"#utility.yul\":22172:22192   */\n      tag_378\n      jump\t// in\n    tag_670:\n        /* \"#utility.yul\":22167:22192   */\n      swap2\n      pop\n        /* \"#utility.yul\":22206:22226   */\n      tag_671\n        /* \"#utility.yul\":22224:22225   */\n      dup4\n        /* \"#utility.yul\":22206:22226   */\n      tag_378\n      jump\t// in\n    tag_671:\n        /* \"#utility.yul\":22201:22226   */\n      swap3\n      pop\n        /* \"#utility.yul\":22245:22246   */\n      dup3\n        /* \"#utility.yul\":22242:22243   */\n      dup3\n        /* \"#utility.yul\":22239:22247   */\n      lt\n        /* \"#utility.yul\":22236:22270   */\n      iszero\n      tag_672\n      jumpi\n        /* \"#utility.yul\":22250:22268   */\n      tag_673\n      tag_424\n      jump\t// in\n    tag_673:\n        /* \"#utility.yul\":22236:22270   */\n    tag_672:\n        /* \"#utility.yul\":22295:22296   */\n      dup3\n        /* \"#utility.yul\":22292:22293   */\n      dup3\n        /* \"#utility.yul\":22288:22297   */\n      sub\n        /* \"#utility.yul\":22280:22297   */\n      swap1\n      pop\n        /* \"#utility.yul\":22112:22303   */\n      swap3\n      swap2\n      pop\n      pop\n      jump\t// out\n        /* \"#utility.yul\":22309:22614   */\n    tag_225:\n        /* \"#utility.yul\":22349:22352   */\n      0x00\n        /* \"#utility.yul\":22368:22388   */\n      tag_675\n        /* \"#utility.yul\":22386:22387   */\n      dup3\n        /* \"#utility.yul\":22368:22388   */\n      tag_378\n      jump\t// in\n    tag_675:\n        /* \"#utility.yul\":22363:22388   */\n      swap2\n      pop\n        /* \"#utility.yul\":22402:22422   */\n      tag_676\n        /* \"#utility.yul\":22420:22421   */\n      dup4\n        /* \"#utility.yul\":22402:22422   */\n      tag_378\n      jump\t// in\n    tag_676:\n        /* \"#utility.yul\":22397:22422   */\n      swap3\n      pop\n        /* \"#utility.yul\":22556:22557   */\n      dup3\n        /* \"#utility.yul\":22488:22554   */\n      0xffffffffffffffffffffffffffffffffffffffffffffffffffffffffffffffff\n        /* \"#utility.yul\":22484:22558   */\n      sub\n        /* \"#utility.yul\":22481:22482   */\n      dup3\n        /* \"#utility.yul\":22478:22559   */\n      gt\n        /* \"#utility.yul\":22475:22582   */\n      iszero\n      tag_677\n      jumpi\n        /* \"#utility.yul\":22562:22580   */\n      tag_678\n      tag_424\n      jump\t// in\n    tag_678:\n        /* \"#utility.yul\":22475:22582   */\n    tag_677:\n        /* \"#utility.yul\":22606:22607   */\n      dup3\n        /* \"#utility.yul\":22603:22604   */\n      dup3\n        /* \"#utility.yul\":22599:22608   */\n      add\n        /* \"#utility.yul\":22592:22608   */\n      swap1\n      pop\n        /* \"#utility.yul\":22309:22614   */\n      swap3\n      swap2\n      pop\n      pop\n      jump\t// out\n        /* \"#utility.yul\":22620:22737   */\n    tag_425:\n        /* \"#utility.yul\":22729:22730   */\n      0x00\n        /* \"#utility.yul\":22726:22727   */\n      dup1\n        /* \"#utility.yul\":22719:22731   */\n      revert\n        /* \"#utility.yul\":22773:23310   */\n    tag_426:\n        /* \"#utility.yul\":22901:22904   */\n      0x00\n        /* \"#utility.yul\":22922:23008   */\n      tag_681\n        /* \"#utility.yul\":23001:23007   */\n      dup4\n        /* \"#utility.yul\":22996:22999   */\n      dup6\n        /* \"#utility.yul\":22922:23008   */\n      tag_407\n      jump\t// in\n    tag_681:\n        /* \"#utility.yul\":22915:23008   */\n      swap4\n      pop\n        /* \"#utility.yul\":23032:23098   */\n      0x07ffffffffffffffffffffffffffffffffffffffffffffffffffffffffffffff\n        /* \"#utility.yul\":23024:23030   */\n      dup4\n        /* \"#utility.yul\":23021:23099   */\n      gt\n        /* \"#utility.yul\":23018:23183   */\n      iszero\n      tag_682\n      jumpi\n        /* \"#utility.yul\":23102:23181   */\n      tag_683\n      tag_425\n      jump\t// in\n    tag_683:\n        /* \"#utility.yul\":23018:23183   */\n    tag_682:\n        /* \"#utility.yul\":23214:23218   */\n      0x20\n        /* \"#utility.yul\":23206:23212   */\n      dup4\n        /* \"#utility.yul\":23202:23219   */\n      mul\n        /* \"#utility.yul\":23192:23219   */\n      swap3\n      pop\n        /* \"#utility.yul\":23229:23272   */\n      tag_684\n        /* \"#utility.yul\":23265:23271   */\n      dup4\n        /* \"#utility.yul\":23260:23263   */\n      dup6\n        /* \"#utility.yul\":23253:23258   */\n      dup5\n        /* \"#utility.yul\":23229:23272   */\n      tag_397\n      jump\t// in\n    tag_684:\n        /* \"#utility.yul\":23297:23303   */\n      dup3\n        /* \"#utility.yul\":23292:23295   */\n      dup5\n        /* \"#utility.yul\":23288:23304   */\n      add\n        /* \"#utility.yul\":23281:23304   */\n      swap1\n      pop\n        /* \"#utility.yul\":22773:23310   */\n      swap4\n      swap3\n      pop\n      pop\n      pop\n      jump\t// out\n        /* \"#utility.yul\":23316:23990   */\n    tag_227:\n        /* \"#utility.yul\":23557:23561   */\n      0x00\n        /* \"#utility.yul\":23595:23597   */\n      0x40\n        /* \"#utility.yul\":23584:23593   */\n      dup3\n        /* \"#utility.yul\":23580:23598   */\n      add\n        /* \"#utility.yul\":23572:23598   */\n      swap1\n      pop\n        /* \"#utility.yul\":23644:23653   */\n      dup2\n        /* \"#utility.yul\":23638:23642   */\n      dup2\n        /* \"#utility.yul\":23634:23654   */\n      sub\n        /* \"#utility.yul\":23630:23631   */\n      0x00\n        /* \"#utility.yul\":23619:23628   */\n      dup4\n        /* \"#utility.yul\":23615:23632   */\n      add\n        /* \"#utility.yul\":23608:23655   */\n      mstore\n        /* \"#utility.yul\":23672:23790   */\n      tag_686\n        /* \"#utility.yul\":23785:23789   */\n      dup2\n        /* \"#utility.yul\":23776:23782   */\n      dup7\n        /* \"#utility.yul\":23768:23774   */\n      dup9\n        /* \"#utility.yul\":23672:23790   */\n      tag_426\n      jump\t// in\n    tag_686:\n        /* \"#utility.yul\":23664:23790   */\n      swap1\n      pop\n        /* \"#utility.yul\":23837:23846   */\n      dup2\n        /* \"#utility.yul\":23831:23835   */\n      dup2\n        /* \"#utility.yul\":23827:23847   */\n      sub\n        /* \"#utility.yul\":23822:23824   */\n      0x20\n        /* \"#utility.yul\":23811:23820   */\n      dup4\n        /* \"#utility.yul\":23807:23825   */\n      add\n        /* \"#utility.yul\":23800:23848   */\n      mstore\n        /* \"#utility.yul\":23865:23983   */\n      tag_687\n        /* \"#utility.yul\":23978:23982   */\n      dup2\n        /* \"#utility.yul\":23969:23975   */\n      dup5\n        /* \"#utility.yul\":23961:23967   */\n      dup7\n        /* \"#utility.yul\":23865:23983   */\n      tag_426\n      jump\t// in\n    tag_687:\n        /* \"#utility.yul\":23857:23983   */\n      swap1\n      pop\n        /* \"#utility.yul\":23316:23990   */\n      swap6\n      swap5\n      pop\n      pop\n      pop\n      pop\n      pop\n      jump\t// out\n        /* \"#utility.yul\":23996:24164   */\n    tag_427:\n        /* \"#utility.yul\":24079:24090   */\n      0x00\n        /* \"#utility.yul\":24113:24119   */\n      dup3\n        /* \"#utility.yul\":24108:24111   */\n      dup3\n        /* \"#utility.yul\":24101:24120   */\n      mstore\n        /* \"#utility.yul\":24153:24157   */\n      0x20\n        /* \"#utility.yul\":24148:24151   */\n      dup3\n        /* \"#utility.yul\":24144:24158   */\n      add\n        /* \"#utility.yul\":24129:24158   */\n      swap1\n      pop\n        /* \"#utility.yul\":23996:24164   */\n      swap3\n      swap2\n      pop\n      pop\n      jump\t// out\n        /* \"#utility.yul\":24192:24493   */\n    tag_428:\n        /* \"#utility.yul\":24288:24291   */\n      0x00\n        /* \"#utility.yul\":24309:24379   */\n      tag_690\n        /* \"#utility.yul\":24372:24378   */\n      dup4\n        /* \"#utility.yul\":24367:24370   */\n      dup6\n        /* \"#utility.yul\":24309:24379   */\n      tag_427\n      jump\t// in\n    tag_690:\n        /* \"#utility.yul\":24302:24379   */\n      swap4\n      pop\n        /* \"#utility.yul\":24389:24432   */\n      tag_691\n        /* \"#utility.yul\":24425:24431   */\n      dup4\n        /* \"#utility.yul\":24420:24423   */\n      dup6\n        /* \"#utility.yul\":24413:24418   */\n      dup5\n        /* \"#utility.yul\":24389:24432   */\n      tag_397\n      jump\t// in\n    tag_691:\n        /* \"#utility.yul\":24457:24486   */\n      tag_692\n        /* \"#utility.yul\":24479:24485   */\n      dup4\n        /* \"#utility.yul\":24457:24486   */\n      tag_390\n      jump\t// in\n    tag_692:\n        /* \"#utility.yul\":24452:24455   */\n      dup5\n        /* \"#utility.yul\":24448:24487   */\n      add\n        /* \"#utility.yul\":24441:24487   */\n      swap1\n      pop\n        /* \"#utility.yul\":24192:24493   */\n      swap4\n      swap3\n      pop\n      pop\n      pop\n      jump\t// out\n        /* \"#utility.yul\":24499:25612   */\n    tag_230:\n        /* \"#utility.yul\":24852:24856   */\n      0x00\n        /* \"#utility.yul\":24890:24893   */\n      0xa0\n        /* \"#utility.yul\":24879:24888   */\n      dup3\n        /* \"#utility.yul\":24875:24894   */\n      add\n        /* \"#utility.yul\":24867:24894   */\n      swap1\n      pop\n        /* \"#utility.yul\":24904:24975   */\n      tag_694\n        /* \"#utility.yul\":24972:24973   */\n      0x00\n        /* \"#utility.yul\":24961:24970   */\n      dup4\n        /* \"#utility.yul\":24957:24974   */\n      add\n        /* \"#utility.yul\":24948:24954   */\n      dup12\n        /* \"#utility.yul\":24904:24975   */\n      tag_404\n      jump\t// in\n    tag_694:\n        /* \"#utility.yul\":24985:25057   */\n      tag_695\n        /* \"#utility.yul\":25053:25055   */\n      0x20\n        /* \"#utility.yul\":25042:25051   */\n      dup4\n        /* \"#utility.yul\":25038:25056   */\n      add\n        /* \"#utility.yul\":25029:25035   */\n      dup11\n        /* \"#utility.yul\":24985:25057   */\n      tag_404\n      jump\t// in\n    tag_695:\n        /* \"#utility.yul\":25104:25113   */\n      dup2\n        /* \"#utility.yul\":25098:25102   */\n      dup2\n        /* \"#utility.yul\":25094:25114   */\n      sub\n        /* \"#utility.yul\":25089:25091   */\n      0x40\n        /* \"#utility.yul\":25078:25087   */\n      dup4\n        /* \"#utility.yul\":25074:25092   */\n      add\n        /* \"#utility.yul\":25067:25115   */\n      mstore\n        /* \"#utility.yul\":25132:25250   */\n      tag_696\n        /* \"#utility.yul\":25245:25249   */\n      dup2\n        /* \"#utility.yul\":25236:25242   */\n      dup9\n        /* \"#utility.yul\":25228:25234   */\n      dup11\n        /* \"#utility.yul\":25132:25250   */\n      tag_426\n      jump\t// in\n    tag_696:\n        /* \"#utility.yul\":25124:25250   */\n      swap1\n      pop\n        /* \"#utility.yul\":25297:25306   */\n      dup2\n        /* \"#utility.yul\":25291:25295   */\n      dup2\n        /* \"#utility.yul\":25287:25307   */\n      sub\n        /* \"#utility.yul\":25282:25284   */\n      0x60\n        /* \"#utility.yul\":25271:25280   */\n      dup4\n        /* \"#utility.yul\":25267:25285   */\n      add\n        /* \"#utility.yul\":25260:25308   */\n      mstore\n        /* \"#utility.yul\":25325:25443   */\n      tag_697\n        /* \"#utility.yul\":25438:25442   */\n      dup2\n        /* \"#utility.yul\":25429:25435   */\n      dup7\n        /* \"#utility.yul\":25421:25427   */\n      dup9\n        /* \"#utility.yul\":25325:25443   */\n      tag_426\n      jump\t// in\n    tag_697:\n        /* \"#utility.yul\":25317:25443   */\n      swap1\n      pop\n        /* \"#utility.yul\":25491:25500   */\n      dup2\n        /* \"#utility.yul\":25485:25489   */\n      dup2\n        /* \"#utility.yul\":25481:25501   */\n      sub\n        /* \"#utility.yul\":25475:25478   */\n      0x80\n        /* \"#utility.yul\":25464:25473   */\n      dup4\n        /* \"#utility.yul\":25460:25479   */\n      add\n        /* \"#utility.yul\":25453:25502   */\n      mstore\n        /* \"#utility.yul\":25519:25605   */\n      tag_698\n        /* \"#utility.yul\":25600:25604   */\n      dup2\n        /* \"#utility.yul\":25591:25597   */\n      dup5\n        /* \"#utility.yul\":25583:25589   */\n      dup7\n        /* \"#utility.yul\":25519:25605   */\n      tag_428\n      jump\t// in\n    tag_698:\n        /* \"#utility.yul\":25511:25605   */\n      swap1\n      pop\n        /* \"#utility.yul\":24499:25612   */\n      swap10\n      swap9\n      pop\n      pop\n      pop\n      pop\n      pop\n      pop\n      pop\n      pop\n      pop\n      jump\t// out\n        /* \"#utility.yul\":25618:25759   */\n    tag_429:\n        /* \"#utility.yul\":25674:25679   */\n      0x00\n        /* \"#utility.yul\":25705:25711   */\n      dup2\n        /* \"#utility.yul\":25699:25712   */\n      mload\n        /* \"#utility.yul\":25690:25712   */\n      swap1\n      pop\n        /* \"#utility.yul\":25721:25753   */\n      tag_700\n        /* \"#utility.yul\":25747:25752   */\n      dup2\n        /* \"#utility.yul\":25721:25753   */\n      tag_383\n      jump\t// in\n    tag_700:\n        /* \"#utility.yul\":25618:25759   */\n      swap3\n      swap2\n      pop\n      pop\n      jump\t// out\n        /* \"#utility.yul\":25765:26114   */\n    tag_234:\n        /* \"#utility.yul\":25834:25840   */\n      0x00\n        /* \"#utility.yul\":25883:25885   */\n      0x20\n        /* \"#utility.yul\":25871:25880   */\n      dup3\n        /* \"#utility.yul\":25862:25869   */\n      dup5\n        /* \"#utility.yul\":25858:25881   */\n      sub\n        /* \"#utility.yul\":25854:25886   */\n      slt\n        /* \"#utility.yul\":25851:25970   */\n      iszero\n      tag_702\n      jumpi\n        /* \"#utility.yul\":25889:25968   */\n      tag_703\n      tag_372\n      jump\t// in\n    tag_703:\n        /* \"#utility.yul\":25851:25970   */\n    tag_702:\n        /* \"#utility.yul\":26009:26010   */\n      0x00\n        /* \"#utility.yul\":26034:26097   */\n      tag_704\n        /* \"#utility.yul\":26089:26096   */\n      dup5\n        /* \"#utility.yul\":26080:26086   */\n      dup3\n        /* \"#utility.yul\":26069:26078   */\n      dup6\n        /* \"#utility.yul\":26065:26087   */\n      add\n        /* \"#utility.yul\":26034:26097   */\n      tag_429\n      jump\t// in\n    tag_704:\n        /* \"#utility.yul\":26024:26097   */\n      swap2\n      pop\n        /* \"#utility.yul\":25980:26107   */\n      pop\n        /* \"#utility.yul\":25765:26114   */\n      swap3\n      swap2\n      pop\n      pop\n      jump\t// out\n        /* \"#utility.yul\":26120:26286   */\n    tag_430:\n        /* \"#utility.yul\":26260:26278   */\n      0x554e534146455f524543495049454e5400000000000000000000000000000000\n        /* \"#utility.yul\":26256:26257   */\n      0x00\n        /* \"#utility.yul\":26248:26254   */\n      dup3\n        /* \"#utility.yul\":26244:26258   */\n      add\n        /* \"#utility.yul\":26237:26279   */\n      mstore\n        /* \"#utility.yul\":26120:26286   */\n      pop\n      jump\t// out\n        /* \"#utility.yul\":26292:26658   */\n    tag_431:\n        /* \"#utility.yul\":26434:26437   */\n      0x00\n        /* \"#utility.yul\":26455:26522   */\n      tag_707\n        /* \"#utility.yul\":26519:26521   */\n      0x10\n        /* \"#utility.yul\":26514:26517   */\n      dup4\n        /* \"#utility.yul\":26455:26522   */\n      tag_388\n      jump\t// in\n    tag_707:\n        /* \"#utility.yul\":26448:26522   */\n      swap2\n      pop\n        /* \"#utility.yul\":26531:26624   */\n      tag_708\n        /* \"#utility.yul\":26620:26623   */\n      dup3\n        /* \"#utility.yul\":26531:26624   */\n      tag_430\n      jump\t// in\n    tag_708:\n        /* \"#utility.yul\":26649:26651   */\n      0x20\n        /* \"#utility.yul\":26644:26647   */\n      dup3\n        /* \"#utility.yul\":26640:26652   */\n      add\n        /* \"#utility.yul\":26633:26652   */\n      swap1\n      pop\n        /* \"#utility.yul\":26292:26658   */\n      swap2\n      swap1\n      pop\n      jump\t// out\n        /* \"#utility.yul\":26664:27083   */\n    tag_238:\n        /* \"#utility.yul\":26830:26834   */\n      0x00\n        /* \"#utility.yul\":26868:26870   */\n      0x20\n        /* \"#utility.yul\":26857:26866   */\n      dup3\n        /* \"#utility.yul\":26853:26871   */\n      add\n        /* \"#utility.yul\":26845:26871   */\n      swap1\n      pop\n        /* \"#utility.yul\":26917:26926   */\n      dup2\n        /* \"#utility.yul\":26911:26915   */\n      dup2\n        /* \"#utility.yul\":26907:26927   */\n      sub\n        /* \"#utility.yul\":26903:26904   */\n      0x00\n        /* \"#utility.yul\":26892:26901   */\n      dup4\n        /* \"#utility.yul\":26888:26905   */\n      add\n        /* \"#utility.yul\":26881:26928   */\n      mstore\n        /* \"#utility.yul\":26945:27076   */\n      tag_710\n        /* \"#utility.yul\":27071:27075   */\n      dup2\n        /* \"#utility.yul\":26945:27076   */\n      tag_431\n      jump\t// in\n    tag_710:\n        /* \"#utility.yul\":26937:27076   */\n      swap1\n      pop\n        /* \"#utility.yul\":26664:27083   */\n      swap2\n      swap1\n      pop\n      jump\t// out\n        /* \"#utility.yul\":27089:27266   */\n    tag_432:\n        /* \"#utility.yul\":27229:27258   */\n      0x434343323a204e6f6e6578697374656e7420746f6b656e2049442e0000000000\n        /* \"#utility.yul\":27225:27226   */\n      0x00\n        /* \"#utility.yul\":27217:27223   */\n      dup3\n        /* \"#utility.yul\":27213:27227   */\n      add\n        /* \"#utility.yul\":27206:27259   */\n      mstore\n        /* \"#utility.yul\":27089:27266   */\n      pop\n      jump\t// out\n        /* \"#utility.yul\":27272:27638   */\n    tag_433:\n        /* \"#utility.yul\":27414:27417   */\n      0x00\n        /* \"#utility.yul\":27435:27502   */\n      tag_713\n        /* \"#utility.yul\":27499:27501   */\n      0x1b\n        /* \"#utility.yul\":27494:27497   */\n      dup4\n        /* \"#utility.yul\":27435:27502   */\n      tag_388\n      jump\t// in\n    tag_713:\n        /* \"#utility.yul\":27428:27502   */\n      swap2\n      pop\n        /* \"#utility.yul\":27511:27604   */\n      tag_714\n        /* \"#utility.yul\":27600:27603   */\n      dup3\n        /* \"#utility.yul\":27511:27604   */\n      tag_432\n      jump\t// in\n    tag_714:\n        /* \"#utility.yul\":27629:27631   */\n      0x20\n        /* \"#utility.yul\":27624:27627   */\n      dup3\n        /* \"#utility.yul\":27620:27632   */\n      add\n        /* \"#utility.yul\":27613:27632   */\n      swap1\n      pop\n        /* \"#utility.yul\":27272:27638   */\n      swap2\n      swap1\n      pop\n      jump\t// out\n        /* \"#utility.yul\":27644:28063   */\n    tag_248:\n        /* \"#utility.yul\":27810:27814   */\n      0x00\n        /* \"#utility.yul\":27848:27850   */\n      0x20\n        /* \"#utility.yul\":27837:27846   */\n      dup3\n        /* \"#utility.yul\":27833:27851   */\n      add\n        /* \"#utility.yul\":27825:27851   */\n      swap1\n      pop\n        /* \"#utility.yul\":27897:27906   */\n      dup2\n        /* \"#utility.yul\":27891:27895   */\n      dup2\n        /* \"#utility.yul\":27887:27907   */\n      sub\n        /* \"#utility.yul\":27883:27884   */\n      0x00\n        /* \"#utility.yul\":27872:27881   */\n      dup4\n        /* \"#utility.yul\":27868:27885   */\n      add\n        /* \"#utility.yul\":27861:27908   */\n      mstore\n        /* \"#utility.yul\":27925:28056   */\n      tag_716\n        /* \"#utility.yul\":28051:28055   */\n      dup2\n        /* \"#utility.yul\":27925:28056   */\n      tag_433\n      jump\t// in\n    tag_716:\n        /* \"#utility.yul\":27917:28056   */\n      swap1\n      pop\n        /* \"#utility.yul\":27644:28063   */\n      swap2\n      swap1\n      pop\n      jump\t// out\n        /* \"#utility.yul\":28069:28296   */\n    tag_434:\n        /* \"#utility.yul\":28209:28243   */\n      0x434343323a20416d6f756e74206973206c6172676572207468616e20746f7461\n        /* \"#utility.yul\":28205:28206   */\n      0x00\n        /* \"#utility.yul\":28197:28203   */\n      dup3\n        /* \"#utility.yul\":28193:28207   */\n      add\n        /* \"#utility.yul\":28186:28244   */\n      mstore\n        /* \"#utility.yul\":28278:28288   */\n      0x6c537570706c792e000000000000000000000000000000000000000000000000\n        /* \"#utility.yul\":28273:28275   */\n      0x20\n        /* \"#utility.yul\":28265:28271   */\n      dup3\n        /* \"#utility.yul\":28261:28276   */\n      add\n        /* \"#utility.yul\":28254:28289   */\n      mstore\n        /* \"#utility.yul\":28069:28296   */\n      pop\n      jump\t// out\n        /* \"#utility.yul\":28302:28668   */\n    tag_435:\n        /* \"#utility.yul\":28444:28447   */\n      0x00\n        /* \"#utility.yul\":28465:28532   */\n      tag_719\n        /* \"#utility.yul\":28529:28531   */\n      0x28\n        /* \"#utility.yul\":28524:28527   */\n      dup4\n        /* \"#utility.yul\":28465:28532   */\n      tag_388\n      jump\t// in\n    tag_719:\n        /* \"#utility.yul\":28458:28532   */\n      swap2\n      pop\n        /* \"#utility.yul\":28541:28634   */\n      tag_720\n        /* \"#utility.yul\":28630:28633   */\n      dup3\n        /* \"#utility.yul\":28541:28634   */\n      tag_434\n      jump\t// in\n    tag_720:\n        /* \"#utility.yul\":28659:28661   */\n      0x40\n        /* \"#utility.yul\":28654:28657   */\n      dup3\n        /* \"#utility.yul\":28650:28662   */\n      add\n        /* \"#utility.yul\":28643:28662   */\n      swap1\n      pop\n        /* \"#utility.yul\":28302:28668   */\n      swap2\n      swap1\n      pop\n      jump\t// out\n        /* \"#utility.yul\":28674:29093   */\n    tag_254:\n        /* \"#utility.yul\":28840:28844   */\n      0x00\n        /* \"#utility.yul\":28878:28880   */\n      0x20\n        /* \"#utility.yul\":28867:28876   */\n      dup3\n        /* \"#utility.yul\":28863:28881   */\n      add\n        /* \"#utility.yul\":28855:28881   */\n      swap1\n      pop\n        /* \"#utility.yul\":28927:28936   */\n      dup2\n        /* \"#utility.yul\":28921:28925   */\n      dup2\n        /* \"#utility.yul\":28917:28937   */\n      sub\n        /* \"#utility.yul\":28913:28914   */\n      0x00\n        /* \"#utility.yul\":28902:28911   */\n      dup4\n        /* \"#utility.yul\":28898:28915   */\n      add\n        /* \"#utility.yul\":28891:28938   */\n      mstore\n        /* \"#utility.yul\":28955:29086   */\n      tag_722\n        /* \"#utility.yul\":29081:29085   */\n      dup2\n        /* \"#utility.yul\":28955:29086   */\n      tag_435\n      jump\t// in\n    tag_722:\n        /* \"#utility.yul\":28947:29086   */\n      swap1\n      pop\n        /* \"#utility.yul\":28674:29093   */\n      swap2\n      swap1\n      pop\n      jump\t// out\n        /* \"#utility.yul\":29099:29431   */\n    tag_323:\n        /* \"#utility.yul\":29220:29224   */\n      0x00\n        /* \"#utility.yul\":29258:29260   */\n      0x40\n        /* \"#utility.yul\":29247:29256   */\n      dup3\n        /* \"#utility.yul\":29243:29261   */\n      add\n        /* \"#utility.yul\":29235:29261   */\n      swap1\n      pop\n        /* \"#utility.yul\":29271:29342   */\n      tag_724\n        /* \"#utility.yul\":29339:29340   */\n      0x00\n        /* \"#utility.yul\":29328:29337   */\n      dup4\n        /* \"#utility.yul\":29324:29341   */\n      add\n        /* \"#utility.yul\":29315:29321   */\n      dup6\n        /* \"#utility.yul\":29271:29342   */\n      tag_381\n      jump\t// in\n    tag_724:\n        /* \"#utility.yul\":29352:29424   */\n      tag_725\n        /* \"#utility.yul\":29420:29422   */\n      0x20\n        /* \"#utility.yul\":29409:29418   */\n      dup4\n        /* \"#utility.yul\":29405:29423   */\n      add\n        /* \"#utility.yul\":29396:29402   */\n      dup5\n        /* \"#utility.yul\":29352:29424   */\n      tag_381\n      jump\t// in\n    tag_725:\n        /* \"#utility.yul\":29099:29431   */\n      swap4\n      swap3\n      pop\n      pop\n      pop\n      jump\t// out\n        /* \"#utility.yul\":29437:30208   */\n    tag_326:\n        /* \"#utility.yul\":29670:29674   */\n      0x00\n        /* \"#utility.yul\":29708:29711   */\n      0xa0\n        /* \"#utility.yul\":29697:29706   */\n      dup3\n        /* \"#utility.yul\":29693:29712   */\n      add\n        /* \"#utility.yul\":29685:29712   */\n      swap1\n      pop\n        /* \"#utility.yul\":29722:29793   */\n      tag_727\n        /* \"#utility.yul\":29790:29791   */\n      0x00\n        /* \"#utility.yul\":29779:29788   */\n      dup4\n        /* \"#utility.yul\":29775:29792   */\n      add\n        /* \"#utility.yul\":29766:29772   */\n      dup10\n        /* \"#utility.yul\":29722:29793   */\n      tag_404\n      jump\t// in\n    tag_727:\n        /* \"#utility.yul\":29803:29875   */\n      tag_728\n        /* \"#utility.yul\":29871:29873   */\n      0x20\n        /* \"#utility.yul\":29860:29869   */\n      dup4\n        /* \"#utility.yul\":29856:29874   */\n      add\n        /* \"#utility.yul\":29847:29853   */\n      dup9\n        /* \"#utility.yul\":29803:29875   */\n      tag_404\n      jump\t// in\n    tag_728:\n        /* \"#utility.yul\":29885:29957   */\n      tag_729\n        /* \"#utility.yul\":29953:29955   */\n      0x40\n        /* \"#utility.yul\":29942:29951   */\n      dup4\n        /* \"#utility.yul\":29938:29956   */\n      add\n        /* \"#utility.yul\":29929:29935   */\n      dup8\n        /* \"#utility.yul\":29885:29957   */\n      tag_381\n      jump\t// in\n    tag_729:\n        /* \"#utility.yul\":29967:30039   */\n      tag_730\n        /* \"#utility.yul\":30035:30037   */\n      0x60\n        /* \"#utility.yul\":30024:30033   */\n      dup4\n        /* \"#utility.yul\":30020:30038   */\n      add\n        /* \"#utility.yul\":30011:30017   */\n      dup7\n        /* \"#utility.yul\":29967:30039   */\n      tag_381\n      jump\t// in\n    tag_730:\n        /* \"#utility.yul\":30087:30096   */\n      dup2\n        /* \"#utility.yul\":30081:30085   */\n      dup2\n        /* \"#utility.yul\":30077:30097   */\n      sub\n        /* \"#utility.yul\":30071:30074   */\n      0x80\n        /* \"#utility.yul\":30060:30069   */\n      dup4\n        /* \"#utility.yul\":30056:30075   */\n      add\n        /* \"#utility.yul\":30049:30098   */\n      mstore\n        /* \"#utility.yul\":30115:30201   */\n      tag_731\n        /* \"#utility.yul\":30196:30200   */\n      dup2\n        /* \"#utility.yul\":30187:30193   */\n      dup5\n        /* \"#utility.yul\":30179:30185   */\n      dup7\n        /* \"#utility.yul\":30115:30201   */\n      tag_428\n      jump\t// in\n    tag_731:\n        /* \"#utility.yul\":30107:30201   */\n      swap1\n      pop\n        /* \"#utility.yul\":29437:30208   */\n      swap8\n      swap7\n      pop\n      pop\n      pop\n      pop\n      pop\n      pop\n      pop\n      jump\t// out\n        /* \"#utility.yul\":30214:30439   */\n    tag_436:\n        /* \"#utility.yul\":30354:30388   */\n      0x4f776e61626c653a206e6577206f776e657220697320746865207a65726f2061\n        /* \"#utility.yul\":30350:30351   */\n      0x00\n        /* \"#utility.yul\":30342:30348   */\n      dup3\n        /* \"#utility.yul\":30338:30352   */\n      add\n        /* \"#utility.yul\":30331:30389   */\n      mstore\n        /* \"#utility.yul\":30423:30431   */\n      0x6464726573730000000000000000000000000000000000000000000000000000\n        /* \"#utility.yul\":30418:30420   */\n      0x20\n        /* \"#utility.yul\":30410:30416   */\n      dup3\n        /* \"#utility.yul\":30406:30421   */\n      add\n        /* \"#utility.yul\":30399:30432   */\n      mstore\n        /* \"#utility.yul\":30214:30439   */\n      pop\n      jump\t// out\n        /* \"#utility.yul\":30445:30811   */\n    tag_437:\n        /* \"#utility.yul\":30587:30590   */\n      0x00\n        /* \"#utility.yul\":30608:30675   */\n      tag_734\n        /* \"#utility.yul\":30672:30674   */\n      0x26\n        /* \"#utility.yul\":30667:30670   */\n      dup4\n        /* \"#utility.yul\":30608:30675   */\n      tag_388\n      jump\t// in\n    tag_734:\n        /* \"#utility.yul\":30601:30675   */\n      swap2\n      pop\n        /* \"#utility.yul\":30684:30777   */\n      tag_735\n        /* \"#utility.yul\":30773:30776   */\n      dup3\n        /* \"#utility.yul\":30684:30777   */\n      tag_436\n      jump\t// in\n    tag_735:\n        /* \"#utility.yul\":30802:30804   */\n      0x40\n        /* \"#utility.yul\":30797:30800   */\n      dup3\n        /* \"#utility.yul\":30793:30805   */\n      add\n        /* \"#utility.yul\":30786:30805   */\n      swap1\n      pop\n        /* \"#utility.yul\":30445:30811   */\n      swap2\n      swap1\n      pop\n      jump\t// out\n        /* \"#utility.yul\":30817:31236   */\n    tag_341:\n        /* \"#utility.yul\":30983:30987   */\n      0x00\n        /* \"#utility.yul\":31021:31023   */\n      0x20\n        /* \"#utility.yul\":31010:31019   */\n      dup3\n        /* \"#utility.yul\":31006:31024   */\n      add\n        /* \"#utility.yul\":30998:31024   */\n      swap1\n      pop\n        /* \"#utility.yul\":31070:31079   */\n      dup2\n        /* \"#utility.yul\":31064:31068   */\n      dup2\n        /* \"#utility.yul\":31060:31080   */\n      sub\n        /* \"#utility.yul\":31056:31057   */\n      0x00\n        /* \"#utility.yul\":31045:31054   */\n      dup4\n        /* \"#utility.yul\":31041:31058   */\n      add\n        /* \"#utility.yul\":31034:31081   */\n      mstore\n        /* \"#utility.yul\":31098:31229   */\n      tag_737\n        /* \"#utility.yul\":31224:31228   */\n      dup2\n        /* \"#utility.yul\":31098:31229   */\n      tag_437\n      jump\t// in\n    tag_737:\n        /* \"#utility.yul\":31090:31229   */\n      swap1\n      pop\n        /* \"#utility.yul\":30817:31236   */\n      swap2\n      swap1\n      pop\n      jump\t// out\n        /* \"#utility.yul\":31242:31340   */\n    tag_438:\n        /* \"#utility.yul\":31293:31299   */\n      0x00\n        /* \"#utility.yul\":31327:31332   */\n      dup2\n        /* \"#utility.yul\":31321:31333   */\n      mload\n        /* \"#utility.yul\":31311:31333   */\n      swap1\n      pop\n        /* \"#utility.yul\":31242:31340   */\n      swap2\n      swap1\n      pop\n      jump\t// out\n        /* \"#utility.yul\":31346:31706   */\n    tag_439:\n        /* \"#utility.yul\":31432:31435   */\n      0x00\n        /* \"#utility.yul\":31460:31498   */\n      tag_740\n        /* \"#utility.yul\":31492:31497   */\n      dup3\n        /* \"#utility.yul\":31460:31498   */\n      tag_438\n      jump\t// in\n    tag_740:\n        /* \"#utility.yul\":31514:31584   */\n      tag_741\n        /* \"#utility.yul\":31577:31583   */\n      dup2\n        /* \"#utility.yul\":31572:31575   */\n      dup6\n        /* \"#utility.yul\":31514:31584   */\n      tag_427\n      jump\t// in\n    tag_741:\n        /* \"#utility.yul\":31507:31584   */\n      swap4\n      pop\n        /* \"#utility.yul\":31593:31645   */\n      tag_742\n        /* \"#utility.yul\":31638:31644   */\n      dup2\n        /* \"#utility.yul\":31633:31636   */\n      dup6\n        /* \"#utility.yul\":31626:31630   */\n      0x20\n        /* \"#utility.yul\":31619:31624   */\n      dup7\n        /* \"#utility.yul\":31615:31631   */\n      add\n        /* \"#utility.yul\":31593:31645   */\n      tag_389\n      jump\t// in\n    tag_742:\n        /* \"#utility.yul\":31670:31699   */\n      tag_743\n        /* \"#utility.yul\":31692:31698   */\n      dup2\n        /* \"#utility.yul\":31670:31699   */\n      tag_390\n      jump\t// in\n    tag_743:\n        /* \"#utility.yul\":31665:31668   */\n      dup5\n        /* \"#utility.yul\":31661:31700   */\n      add\n        /* \"#utility.yul\":31654:31700   */\n      swap2\n      pop\n        /* \"#utility.yul\":31436:31706   */\n      pop\n        /* \"#utility.yul\":31346:31706   */\n      swap3\n      swap2\n      pop\n      pop\n      jump\t// out\n        /* \"#utility.yul\":31712:32463   */\n    tag_349:\n        /* \"#utility.yul\":31935:31939   */\n      0x00\n        /* \"#utility.yul\":31973:31976   */\n      0xa0\n        /* \"#utility.yul\":31962:31971   */\n      dup3\n        /* \"#utility.yul\":31958:31977   */\n      add\n        /* \"#utility.yul\":31950:31977   */\n      swap1\n      pop\n        /* \"#utility.yul\":31987:32058   */\n      tag_745\n        /* \"#utility.yul\":32055:32056   */\n      0x00\n        /* \"#utility.yul\":32044:32053   */\n      dup4\n        /* \"#utility.yul\":32040:32057   */\n      add\n        /* \"#utility.yul\":32031:32037   */\n      dup9\n        /* \"#utility.yul\":31987:32058   */\n      tag_404\n      jump\t// in\n    tag_745:\n        /* \"#utility.yul\":32068:32140   */\n      tag_746\n        /* \"#utility.yul\":32136:32138   */\n      0x20\n        /* \"#utility.yul\":32125:32134   */\n      dup4\n        /* \"#utility.yul\":32121:32139   */\n      add\n        /* \"#utility.yul\":32112:32118   */\n      dup8\n        /* \"#utility.yul\":32068:32140   */\n      tag_404\n      jump\t// in\n    tag_746:\n        /* \"#utility.yul\":32150:32222   */\n      tag_747\n        /* \"#utility.yul\":32218:32220   */\n      0x40\n        /* \"#utility.yul\":32207:32216   */\n      dup4\n        /* \"#utility.yul\":32203:32221   */\n      add\n        /* \"#utility.yul\":32194:32200   */\n      dup7\n        /* \"#utility.yul\":32150:32222   */\n      tag_381\n      jump\t// in\n    tag_747:\n        /* \"#utility.yul\":32232:32304   */\n      tag_748\n        /* \"#utility.yul\":32300:32302   */\n      0x60\n        /* \"#utility.yul\":32289:32298   */\n      dup4\n        /* \"#utility.yul\":32285:32303   */\n      add\n        /* \"#utility.yul\":32276:32282   */\n      dup6\n        /* \"#utility.yul\":32232:32304   */\n      tag_381\n      jump\t// in\n    tag_748:\n        /* \"#utility.yul\":32352:32361   */\n      dup2\n        /* \"#utility.yul\":32346:32350   */\n      dup2\n        /* \"#utility.yul\":32342:32362   */\n      sub\n        /* \"#utility.yul\":32336:32339   */\n      0x80\n        /* \"#utility.yul\":32325:32334   */\n      dup4\n        /* \"#utility.yul\":32321:32340   */\n      add\n        /* \"#utility.yul\":32314:32363   */\n      mstore\n        /* \"#utility.yul\":32380:32456   */\n      tag_749\n        /* \"#utility.yul\":32451:32455   */\n      dup2\n        /* \"#utility.yul\":32442:32448   */\n      dup5\n        /* \"#utility.yul\":32380:32456   */\n      tag_439\n      jump\t// in\n    tag_749:\n        /* \"#utility.yul\":32372:32456   */\n      swap1\n      pop\n        /* \"#utility.yul\":31712:32463   */\n      swap7\n      swap6\n      pop\n      pop\n      pop\n      pop\n      pop\n      pop\n      jump\t// out\n        /* \"#utility.yul\":32469:32638   */\n    tag_440:\n        /* \"#utility.yul\":32609:32630   */\n      0x4554485f5452414e534645525f4641494c454400000000000000000000000000\n        /* \"#utility.yul\":32605:32606   */\n      0x00\n        /* \"#utility.yul\":32597:32603   */\n      dup3\n        /* \"#utility.yul\":32593:32607   */\n      add\n        /* \"#utility.yul\":32586:32631   */\n      mstore\n        /* \"#utility.yul\":32469:32638   */\n      pop\n      jump\t// out\n        /* \"#utility.yul\":32644:33010   */\n    tag_441:\n        /* \"#utility.yul\":32786:32789   */\n      0x00\n        /* \"#utility.yul\":32807:32874   */\n      tag_752\n        /* \"#utility.yul\":32871:32873   */\n      0x13\n        /* \"#utility.yul\":32866:32869   */\n      dup4\n        /* \"#utility.yul\":32807:32874   */\n      tag_388\n      jump\t// in\n    tag_752:\n        /* \"#utility.yul\":32800:32874   */\n      swap2\n      pop\n        /* \"#utility.yul\":32883:32976   */\n      tag_753\n        /* \"#utility.yul\":32972:32975   */\n      dup3\n        /* \"#utility.yul\":32883:32976   */\n      tag_440\n      jump\t// in\n    tag_753:\n        /* \"#utility.yul\":33001:33003   */\n      0x20\n        /* \"#utility.yul\":32996:32999   */\n      dup3\n        /* \"#utility.yul\":32992:33004   */\n      add\n        /* \"#utility.yul\":32985:33004   */\n      swap1\n      pop\n        /* \"#utility.yul\":32644:33010   */\n      swap2\n      swap1\n      pop\n      jump\t// out\n        /* \"#utility.yul\":33016:33435   */\n    tag_359:\n        /* \"#utility.yul\":33182:33186   */\n      0x00\n        /* \"#utility.yul\":33220:33222   */\n      0x20\n        /* \"#utility.yul\":33209:33218   */\n      dup3\n        /* \"#utility.yul\":33205:33223   */\n      add\n        /* \"#utility.yul\":33197:33223   */\n      swap1\n      pop\n        /* \"#utility.yul\":33269:33278   */\n      dup2\n        /* \"#utility.yul\":33263:33267   */\n      dup2\n        /* \"#utility.yul\":33259:33279   */\n      sub\n        /* \"#utility.yul\":33255:33256   */\n      0x00\n        /* \"#utility.yul\":33244:33253   */\n      dup4\n        /* \"#utility.yul\":33240:33257   */\n      add\n        /* \"#utility.yul\":33233:33280   */\n      mstore\n        /* \"#utility.yul\":33297:33428   */\n      tag_755\n        /* \"#utility.yul\":33423:33427   */\n      dup2\n        /* \"#utility.yul\":33297:33428   */\n      tag_441\n      jump\t// in\n    tag_755:\n        /* \"#utility.yul\":33289:33428   */\n      swap1\n      pop\n        /* \"#utility.yul\":33016:33435   */\n      swap2\n      swap1\n      pop\n      jump\t// out\n\n    auxdata: 0xa2646970667358221220a61da09e3965a5b515d57c469aad84d8ef7c507a099204e6260a1788a6a2f69d64736f6c634300080b0033\n}\n",
				"bytecode": {
					"linkReferences": {},
					"object": "61014060405260a660809081525061014a60a090815250601160c090815250602160e0908152506001610100908152506002610120908152503480156200004557600080fd5b50604051620040d1380380620040d183398181016040528101906200006b9190620007df565b6200008b6200007f6200020560201b60201c565b6200020d60201b60201c565b6040518060400160405280601381526020017f54657374204d696e74205061737320763130490000000000000000000000000081525094506040518060400160405280600f81526020017f262331303034373b544d50563130490000000000000000000000000000000000815250935062000129336001806040518060600160405280603981526020016200406360399139620002d360201b60201c565b62000157336002806040518060600160405280603581526020016200409c60359139620002d360201b60201c565b734e322a20ed891ff77de2f774d2824f55b7152c7392506040518060600160405280603581526020016200402e60359139600760006101205181526020019081526020016000209080519060200190620001b39291906200052d565b506040518060600160405280603581526020016200402e60359139600760006101005181526020019081526020016000209080519060200190620001f99291906200052d565b50505050505062000c00565b600033905090565b6000600260009054906101000a900473ffffffffffffffffffffffffffffffffffffffff16905081600260006101000a81548173ffffffffffffffffffffffffffffffffffffffff021916908373ffffffffffffffffffffffffffffffffffffffff1602179055508173ffffffffffffffffffffffffffffffffffffffff168173ffffffffffffffffffffffffffffffffffffffff167f8be0079c531659141344cd1fd0a4f28419497f9722a3daafe3b4186f6b6457e060405160405180910390a35050565b816000808673ffffffffffffffffffffffffffffffffffffffff1673ffffffffffffffffffffffffffffffffffffffff168152602001908152602001600020600085815260200190815260200160002060008282546200033491906200091c565b925050819055508373ffffffffffffffffffffffffffffffffffffffff16600073ffffffffffffffffffffffffffffffffffffffff163373ffffffffffffffffffffffffffffffffffffffff167fc3d58168c5ae7397731d063d5bbf3d657854427343f4c083240f7aacaa2d0f628686604051620003b49291906200098a565b60405180910390a460008473ffffffffffffffffffffffffffffffffffffffff163b14620004b35763f23a6e6160e01b7bffffffffffffffffffffffffffffffffffffffffffffffffffffffff19168473ffffffffffffffffffffffffffffffffffffffff1663f23a6e613360008787876040518663ffffffff1660e01b81526004016200044795949392919062000a25565b6020604051808303816000875af115801562000467573d6000803e3d6000fd5b505050506040513d601f19601f820116820180604052508101906200048d919062000ae6565b7bffffffffffffffffffffffffffffffffffffffffffffffffffffffff191614620004e5565b600073ffffffffffffffffffffffffffffffffffffffff168473ffffffffffffffffffffffffffffffffffffffff1614155b62000527576040517f08c379a00000000000000000000000000000000000000000000000000000000081526004016200051e9062000b79565b60405180910390fd5b50505050565b8280546200053b9062000bca565b90600052602060002090601f0160209004810192826200055f5760008555620005ab565b82601f106200057a57805160ff1916838001178555620005ab565b82800160010185558215620005ab579182015b82811115620005aa5782518255916020019190600101906200058d565b5b509050620005ba9190620005be565b5090565b5b80821115620005d9576000816000905550600101620005bf565b5090565b6000604051905090565b600080fd5b600080fd5b600080fd5b600080fd5b6000601f19601f8301169050919050565b7f4e487b7100000000000000000000000000000000000000000000000000000000600052604160045260246000fd5b6200064682620005fb565b810181811067ffffffffffffffff821117156200066857620006676200060c565b5b80604052505050565b60006200067d620005dd565b90506200068b82826200063b565b919050565b600067ffffffffffffffff821115620006ae57620006ad6200060c565b5b620006b982620005fb565b9050602081019050919050565b60005b83811015620006e6578082015181840152602081019050620006c9565b83811115620006f6576000848401525b50505050565b6000620007136200070d8462000690565b62000671565b905082815260208101848484011115620007325762000731620005f6565b5b6200073f848285620006c6565b509392505050565b600082601f8301126200075f576200075e620005f1565b5b815162000771848260208601620006fc565b91505092915050565b600073ffffffffffffffffffffffffffffffffffffffff82169050919050565b6000620007a7826200077a565b9050919050565b620007b9816200079a565b8114620007c557600080fd5b50565b600081519050620007d981620007ae565b92915050565b600080600080600060a08688031215620007fe57620007fd620005e7565b5b600086015167ffffffffffffffff8111156200081f576200081e620005ec565b5b6200082d8882890162000747565b955050602086015167ffffffffffffffff811115620008515762000850620005ec565b5b6200085f8882890162000747565b94505060406200087288828901620007c8565b935050606086015167ffffffffffffffff811115620008965762000895620005ec565b5b620008a48882890162000747565b925050608086015167ffffffffffffffff811115620008c857620008c7620005ec565b5b620008d68882890162000747565b9150509295509295909350565b6000819050919050565b7f4e487b7100000000000000000000000000000000000000000000000000000000600052601160045260246000fd5b60006200092982620008e3565b91506200093683620008e3565b9250827fffffffffffffffffffffffffffffffffffffffffffffffffffffffffffffffff038211156200096e576200096d620008ed565b5b828201905092915050565b6200098481620008e3565b82525050565b6000604082019050620009a1600083018562000979565b620009b0602083018462000979565b9392505050565b620009c2816200079a565b82525050565b600081519050919050565b600082825260208201905092915050565b6000620009f182620009c8565b620009fd8185620009d3565b935062000a0f818560208601620006c6565b62000a1a81620005fb565b840191505092915050565b600060a08201905062000a3c6000830188620009b7565b62000a4b6020830187620009b7565b62000a5a604083018662000979565b62000a69606083018562000979565b818103608083015262000a7d8184620009e4565b90509695505050505050565b60007fffffffff0000000000000000000000000000000000000000000000000000000082169050919050565b62000ac08162000a89565b811462000acc57600080fd5b50565b60008151905062000ae08162000ab5565b92915050565b60006020828403121562000aff5762000afe620005e7565b5b600062000b0f8482850162000acf565b91505092915050565b600082825260208201905092915050565b7f554e534146455f524543495049454e5400000000000000000000000000000000600082015250565b600062000b6160108362000b18565b915062000b6e8262000b29565b602082019050919050565b6000602082019050818103600083015262000b948162000b52565b9050919050565b7f4e487b7100000000000000000000000000000000000000000000000000000000600052602260045260246000fd5b6000600282049050600182168062000be357607f821691505b6020821081141562000bfa5762000bf962000b9b565b5b50919050565b60805160a05160c05160e051610100516101205161339162000c9d60003960008181610a3701528181610f920152818161101e0152818161106a01526117ad0152600081816109dc01528181610fbb015281816111200152611929015260008181610a5801526119050152600081816109fd0152611674015260008181610ef201526110460152600081816110fc01526111b301526133916000f3fe608060405234801561001057600080fd5b50600436106102055760003560e01c8063715018a61161011a578063bd85b039116100ad578063e985e9c51161007c578063e985e9c5146105cc578063ea41c2b7146105fc578063f0f9f1cb1461061a578063f242432a14610638578063f2fde38b1461065457610205565b8063bd85b03914610530578063c87b56dd14610560578063d539139314610590578063e63ab1e9146105ae57610205565b806398d78f51116100e957806398d78f51146104a85780639fa3cda1146104c6578063a22cb465146104f6578063b8a226871461051257610205565b8063715018a6146104445780637f3457101461044e5780638da5cb5b1461046c57806395d89b411461048a57610205565b80632eb2c2d61161019d5780633ccfd60b1161016c5780633ccfd60b146103b25780633dbd5921146103bc578063430bf08a146103da5780634e1273f4146103f85780636817031b1461042857610205565b80632eb2c2d61461033e578063317c7f621461035a578063388b9fe0146103785780633c9e6c411461039457610205565b80630b22f540116101d95780630b22f540146102a45780630e89341c146102d457806316473cf71461030457806322f1e4891461032057610205565b8062fdd58e1461020a57806301ffc9a71461023a57806306fdde031461026a57806309a3beef14610288575b600080fd5b610224600480360381019061021f91906122ae565b610670565b60405161023191906122fd565b60405180910390f35b610254600480360381019061024f9190612370565b610695565b60405161026191906123b8565b60405180910390f35b610272610727565b60405161027f919061246c565b60405180910390f35b6102a2600480360381019061029d91906125c3565b6107b5565b005b6102be60048036038101906102b9919061261f565b61085d565b6040516102cb91906122fd565b60405180910390f35b6102ee60048036038101906102e9919061264c565b610875565b6040516102fb919061246c565b60405180910390f35b61031e6004803603810190610319919061261f565b61095a565b005b610328610a8f565b60405161033591906122fd565b60405180910390f35b6103586004803603810190610353919061272f565b610a94565b005b610362610ef0565b60405161036f91906122fd565b60405180910390f35b610392600480360381019061038d919061280b565b610f14565b005b61039c6111b1565b6040516103a991906122fd565b60405180910390f35b6103ba6111d5565b005b6103c46112ba565b6040516103d191906122fd565b60405180910390f35b6103e26112bf565b6040516103ef919061286d565b60405180910390f35b610412600480360381019061040d91906128de565b6112e5565b60405161041f9190612a1d565b60405180910390f35b610442600480360381019061043d919061261f565b61144e565b005b61044c61150e565b005b610456611596565b6040516104639190612a58565b60405180910390f35b6104746115ba565b604051610481919061286d565b60405180910390f35b6104926115e4565b60405161049f919061246c565b60405180910390f35b6104b0611672565b6040516104bd91906122fd565b60405180910390f35b6104e060048036038101906104db919061261f565b611696565b6040516104ed91906122fd565b60405180910390f35b610510600480360381019061050b9190612a9f565b6116ae565b005b61051a6117ab565b60405161052791906122fd565b60405180910390f35b61054a6004803603810190610545919061264c565b6117cf565b60405161055791906122fd565b60405180910390f35b61057a6004803603810190610575919061264c565b6117ec565b604051610587919061246c565b60405180910390f35b61059861188c565b6040516105a59190612a58565b60405180910390f35b6105b66118b0565b6040516105c39190612a58565b60405180910390f35b6105e660048036038101906105e19190612adf565b6118d4565b6040516105f391906123b8565b60405180910390f35b610604611903565b60405161061191906122fd565b60405180910390f35b610622611927565b60405161062f91906122fd565b60405180910390f35b610652600480360381019061064d9190612b1f565b61194b565b005b61066e6004803603810190610669919061261f565b611cfe565b005b6000602052816000526040600020602052806000526040600020600091509150505481565b60006301ffc9a760e01b827bffffffffffffffffffffffffffffffffffffffffffffffffffffffff191614806106f0575063d9b67a2660e01b827bffffffffffffffffffffffffffffffffffffffffffffffffffffffff1916145b806107205750630e89341c60e01b827bffffffffffffffffffffffffffffffffffffffffffffffffffffffff1916145b9050919050565b6003805461073490612be8565b80601f016020809104026020016040519081016040528092919081815260200182805461076090612be8565b80156107ad5780601f10610782576101008083540402835291602001916107ad565b820191906000526020600020905b81548152906001019060200180831161079057829003601f168201915b505050505081565b6107bd611df6565b73ffffffffffffffffffffffffffffffffffffffff166107db6115ba565b73ffffffffffffffffffffffffffffffffffffffff1614610831576040517f08c379a000000000000000000000000000000000000000000000000000000000815260040161082890612c66565b60405180910390fd5b81600760008381526020019081526020016000209080519060200190610858929190612163565b505050565b60096020528060005260406000206000915090505481565b6060600060076000848152602001908152602001600020805461089790612be8565b905014156108b657604051806020016040528060008152509050610955565b6007600083815260200190815260200160002080546108d490612be8565b80601f016020809104026020016040519081016040528092919081815260200182805461090090612be8565b801561094d5780601f106109225761010080835404028352916020019161094d565b820191906000526020600020905b81548152906001019060200180831161093057829003601f168201915b505050505090505b919050565b610962611df6565b73ffffffffffffffffffffffffffffffffffffffff166109806115ba565b73ffffffffffffffffffffffffffffffffffffffff16146109d6576040517f08c379a00000000000000000000000000000000000000000000000000000000081526004016109cd90612c66565b60405180910390fd5b610a31817f00000000000000000000000000000000000000000000000000000000000000007f000000000000000000000000000000000000000000000000000000000000000060405180602001604052806000815250611dfe565b610a8c817f00000000000000000000000000000000000000000000000000000000000000007f000000000000000000000000000000000000000000000000000000000000000060405180602001604052806000815250611dfe565b50565b600181565b838390508686905014610adc576040517f08c379a0000000000000000000000000000000000000000000000000000000008152600401610ad390612cd2565b60405180910390fd5b8773ffffffffffffffffffffffffffffffffffffffff163373ffffffffffffffffffffffffffffffffffffffff161480610b9c5750600160008973ffffffffffffffffffffffffffffffffffffffff1673ffffffffffffffffffffffffffffffffffffffff16815260200190815260200160002060003373ffffffffffffffffffffffffffffffffffffffff1673ffffffffffffffffffffffffffffffffffffffff16815260200190815260200160002060009054906101000a900460ff165b610bdb576040517f08c379a0000000000000000000000000000000000000000000000000000000008152600401610bd290612d3e565b60405180910390fd5b60008060005b88889050811015610cfb57888882818110610bff57610bfe612d5e565b5b905060200201359250868682818110610c1b57610c1a612d5e565b5b905060200201359150816000808d73ffffffffffffffffffffffffffffffffffffffff1673ffffffffffffffffffffffffffffffffffffffff16815260200190815260200160002060008581526020019081526020016000206000828254610c839190612dbc565b92505081905550816000808c73ffffffffffffffffffffffffffffffffffffffff1673ffffffffffffffffffffffffffffffffffffffff16815260200190815260200160002060008581526020019081526020016000206000828254610ce99190612df0565b92505081905550806001019050610be1565b508873ffffffffffffffffffffffffffffffffffffffff168a73ffffffffffffffffffffffffffffffffffffffff163373ffffffffffffffffffffffffffffffffffffffff167f4a39dc06d4c0dbc64b70af90fd698a233a518aa5d07e595d983b8c0526c8f7fb8b8b8b8b604051610d769493929190612ea7565b60405180910390a460008973ffffffffffffffffffffffffffffffffffffffff163b14610e735763bc197c8160e01b7bffffffffffffffffffffffffffffffffffffffffffffffffffffffff19168973ffffffffffffffffffffffffffffffffffffffff1663bc197c81338d8c8c8c8c8c8c6040518963ffffffff1660e01b8152600401610e0b989796959493929190612f20565b6020604051808303816000875af1158015610e2a573d6000803e3d6000fd5b505050506040513d601f19601f82011682018060405250810190610e4e9190612fa3565b7bffffffffffffffffffffffffffffffffffffffffffffffffffffffff191614610ea5565b600073ffffffffffffffffffffffffffffffffffffffff168973ffffffffffffffffffffffffffffffffffffffff1614155b610ee4576040517f08c379a0000000000000000000000000000000000000000000000000000000008152600401610edb9061301c565b60405180910390fd5b50505050505050505050565b7f000000000000000000000000000000000000000000000000000000000000000081565b610f1c611df6565b73ffffffffffffffffffffffffffffffffffffffff16610f3a6115ba565b73ffffffffffffffffffffffffffffffffffffffff1614610f90576040517f08c379a0000000000000000000000000000000000000000000000000000000008152600401610f8790612c66565b60405180910390fd5b7f0000000000000000000000000000000000000000000000000000000000000000811480610fdd57507f000000000000000000000000000000000000000000000000000000000000000081145b61101c576040517f08c379a000000000000000000000000000000000000000000000000000000000815260040161101390613088565b60405180910390fd5b7f00000000000000000000000000000000000000000000000000000000000000008114156110fa577f000000000000000000000000000000000000000000000000000000000000000061108e7f00000000000000000000000000000000000000000000000000000000000000006117cf565b836110999190612df0565b11156110da576040517f08c379a00000000000000000000000000000000000000000000000000000000081526004016110d19061311a565b60405180910390fd5b6110f583828460405180602001604052806000815250611dfe565b6111ac565b7f00000000000000000000000000000000000000000000000000000000000000006111447f00000000000000000000000000000000000000000000000000000000000000006117cf565b8361114f9190612df0565b1115611190576040517f08c379a00000000000000000000000000000000000000000000000000000000081526004016111879061311a565b60405180910390fd5b6111ab83828460405180602001604052806000815250611dfe565b5b505050565b7f000000000000000000000000000000000000000000000000000000000000000081565b6111dd611df6565b73ffffffffffffffffffffffffffffffffffffffff166111fb6115ba565b73ffffffffffffffffffffffffffffffffffffffff1614611251576040517f08c379a000000000000000000000000000000000000000000000000000000000815260040161124890612c66565b60405180910390fd5b600047141561128c576040517fa8088f3800000000000000000000000000000000000000000000000000000000815260040160405180910390fd5b6112b8600560009054906101000a900473ffffffffffffffffffffffffffffffffffffffff164761204a565b565b600281565b600560009054906101000a900473ffffffffffffffffffffffffffffffffffffffff1681565b606082829050858590501461132f576040517f08c379a000000000000000000000000000000000000000000000000000000000815260040161132690612cd2565b60405180910390fd5b8484905067ffffffffffffffff81111561134c5761134b612498565b5b60405190808252806020026020018201604052801561137a5781602001602082028036833780820191505090505b50905060005b85859050811015611445576000808787848181106113a1576113a0612d5e565b5b90506020020160208101906113b6919061261f565b73ffffffffffffffffffffffffffffffffffffffff1673ffffffffffffffffffffffffffffffffffffffff168152602001908152602001600020600085858481811061140557611404612d5e565b5b9050602002013581526020019081526020016000205482828151811061142e5761142d612d5e565b5b602002602001018181525050806001019050611380565b50949350505050565b611456611df6565b73ffffffffffffffffffffffffffffffffffffffff166114746115ba565b73ffffffffffffffffffffffffffffffffffffffff16146114ca576040517f08c379a00000000000000000000000000000000000000000000000000000000081526004016114c190612c66565b60405180910390fd5b80600560006101000a81548173ffffffffffffffffffffffffffffffffffffffff021916908373ffffffffffffffffffffffffffffffffffffffff16021790555050565b611516611df6565b73ffffffffffffffffffffffffffffffffffffffff166115346115ba565b73ffffffffffffffffffffffffffffffffffffffff161461158a576040517f08c379a000000000000000000000000000000000000000000000000000000000815260040161158190612c66565b60405180910390fd5b611594600061209d565b565b7f7804d923f43a17d325d77e781528e0793b2edd9890ab45fc64efd7b4b427744c81565b6000600260009054906101000a900473ffffffffffffffffffffffffffffffffffffffff16905090565b600480546115f190612be8565b80601f016020809104026020016040519081016040528092919081815260200182805461161d90612be8565b801561166a5780601f1061163f5761010080835404028352916020019161166a565b820191906000526020600020905b81548152906001019060200180831161164d57829003601f168201915b505050505081565b7f000000000000000000000000000000000000000000000000000000000000000081565b60086020528060005260406000206000915090505481565b80600160003373ffffffffffffffffffffffffffffffffffffffff1673ffffffffffffffffffffffffffffffffffffffff16815260200190815260200160002060008473ffffffffffffffffffffffffffffffffffffffff1673ffffffffffffffffffffffffffffffffffffffff16815260200190815260200160002060006101000a81548160ff0219169083151502179055508173ffffffffffffffffffffffffffffffffffffffff163373ffffffffffffffffffffffffffffffffffffffff167f17307eab39ab6107e8899845ad3d59bd9653f200f220920489ca2b5937696c318360405161179f91906123b8565b60405180910390a35050565b7f000000000000000000000000000000000000000000000000000000000000000081565b600060066000838152602001908152602001600020549050919050565b6007602052806000526040600020600091509050805461180b90612be8565b80601f016020809104026020016040519081016040528092919081815260200182805461183790612be8565b80156118845780601f1061185957610100808354040283529160200191611884565b820191906000526020600020905b81548152906001019060200180831161186757829003601f168201915b505050505081565b7f9f2df0fed2c77648de5860a4cc508cd0818c85b8b8a1ab4ceeef8d981c8956a681565b7f65d7a28e3265b37a6474929f336521b332c1681b933f6cb9f3376673440d862a81565b60016020528160005260406000206020528060005260406000206000915091509054906101000a900460ff1681565b7f000000000000000000000000000000000000000000000000000000000000000081565b7f000000000000000000000000000000000000000000000000000000000000000081565b8573ffffffffffffffffffffffffffffffffffffffff163373ffffffffffffffffffffffffffffffffffffffff161480611a0b5750600160008773ffffffffffffffffffffffffffffffffffffffff1673ffffffffffffffffffffffffffffffffffffffff16815260200190815260200160002060003373ffffffffffffffffffffffffffffffffffffffff1673ffffffffffffffffffffffffffffffffffffffff16815260200190815260200160002060009054906101000a900460ff165b611a4a576040517f08c379a0000000000000000000000000000000000000000000000000000000008152600401611a4190612d3e565b60405180910390fd5b826000808873ffffffffffffffffffffffffffffffffffffffff1673ffffffffffffffffffffffffffffffffffffffff16815260200190815260200160002060008681526020019081526020016000206000828254611aa99190612dbc565b92505081905550826000808773ffffffffffffffffffffffffffffffffffffffff1673ffffffffffffffffffffffffffffffffffffffff16815260200190815260200160002060008681526020019081526020016000206000828254611b0f9190612df0565b925050819055508473ffffffffffffffffffffffffffffffffffffffff168673ffffffffffffffffffffffffffffffffffffffff163373ffffffffffffffffffffffffffffffffffffffff167fc3d58168c5ae7397731d063d5bbf3d657854427343f4c083240f7aacaa2d0f628787604051611b8c92919061313a565b60405180910390a460008573ffffffffffffffffffffffffffffffffffffffff163b14611c855763f23a6e6160e01b7bffffffffffffffffffffffffffffffffffffffffffffffffffffffff19168573ffffffffffffffffffffffffffffffffffffffff1663f23a6e613389888888886040518763ffffffff1660e01b8152600401611c1d96959493929190613163565b6020604051808303816000875af1158015611c3c573d6000803e3d6000fd5b505050506040513d601f19601f82011682018060405250810190611c609190612fa3565b7bffffffffffffffffffffffffffffffffffffffffffffffffffffffff191614611cb7565b600073ffffffffffffffffffffffffffffffffffffffff168573ffffffffffffffffffffffffffffffffffffffff1614155b611cf6576040517f08c379a0000000000000000000000000000000000000000000000000000000008152600401611ced9061301c565b60405180910390fd5b505050505050565b611d06611df6565b73ffffffffffffffffffffffffffffffffffffffff16611d246115ba565b73ffffffffffffffffffffffffffffffffffffffff1614611d7a576040517f08c379a0000000000000000000000000000000000000000000000000000000008152600401611d7190612c66565b60405180910390fd5b600073ffffffffffffffffffffffffffffffffffffffff168173ffffffffffffffffffffffffffffffffffffffff161415611dea576040517f08c379a0000000000000000000000000000000000000000000000000000000008152600401611de190613231565b60405180910390fd5b611df38161209d565b50565b600033905090565b816000808673ffffffffffffffffffffffffffffffffffffffff1673ffffffffffffffffffffffffffffffffffffffff16815260200190815260200160002060008581526020019081526020016000206000828254611e5d9190612df0565b925050819055508373ffffffffffffffffffffffffffffffffffffffff16600073ffffffffffffffffffffffffffffffffffffffff163373ffffffffffffffffffffffffffffffffffffffff167fc3d58168c5ae7397731d063d5bbf3d657854427343f4c083240f7aacaa2d0f628686604051611edb92919061313a565b60405180910390a460008473ffffffffffffffffffffffffffffffffffffffff163b14611fd35763f23a6e6160e01b7bffffffffffffffffffffffffffffffffffffffffffffffffffffffff19168473ffffffffffffffffffffffffffffffffffffffff1663f23a6e613360008787876040518663ffffffff1660e01b8152600401611f6b959493929190613295565b6020604051808303816000875af1158015611f8a573d6000803e3d6000fd5b505050506040513d601f19601f82011682018060405250810190611fae9190612fa3565b7bffffffffffffffffffffffffffffffffffffffffffffffffffffffff191614612005565b600073ffffffffffffffffffffffffffffffffffffffff168473ffffffffffffffffffffffffffffffffffffffff1614155b612044576040517f08c379a000000000000000000000000000000000000000000000000000000000815260040161203b9061301c565b60405180910390fd5b50505050565b600080600080600085875af1905080612098576040517f08c379a000000000000000000000000000000000000000000000000000000000815260040161208f9061333b565b60405180910390fd5b505050565b6000600260009054906101000a900473ffffffffffffffffffffffffffffffffffffffff16905081600260006101000a81548173ffffffffffffffffffffffffffffffffffffffff021916908373ffffffffffffffffffffffffffffffffffffffff1602179055508173ffffffffffffffffffffffffffffffffffffffff168173ffffffffffffffffffffffffffffffffffffffff167f8be0079c531659141344cd1fd0a4f28419497f9722a3daafe3b4186f6b6457e060405160405180910390a35050565b82805461216f90612be8565b90600052602060002090601f01602090048101928261219157600085556121d8565b82601f106121aa57805160ff19168380011785556121d8565b828001600101855582156121d8579182015b828111156121d75782518255916020019190600101906121bc565b5b5090506121e591906121e9565b5090565b5b808211156122025760008160009055506001016121ea565b5090565b6000604051905090565b600080fd5b600080fd5b600073ffffffffffffffffffffffffffffffffffffffff82169050919050565b60006122458261221a565b9050919050565b6122558161223a565b811461226057600080fd5b50565b6000813590506122728161224c565b92915050565b6000819050919050565b61228b81612278565b811461229657600080fd5b50565b6000813590506122a881612282565b92915050565b600080604083850312156122c5576122c4612210565b5b60006122d385828601612263565b92505060206122e485828601612299565b9150509250929050565b6122f781612278565b82525050565b600060208201905061231260008301846122ee565b92915050565b60007fffffffff0000000000000000000000000000000000000000000000000000000082169050919050565b61234d81612318565b811461235857600080fd5b50565b60008135905061236a81612344565b92915050565b60006020828403121561238657612385612210565b5b60006123948482850161235b565b91505092915050565b60008115159050919050565b6123b28161239d565b82525050565b60006020820190506123cd60008301846123a9565b92915050565b600081519050919050565b600082825260208201905092915050565b60005b8381101561240d5780820151818401526020810190506123f2565b8381111561241c576000848401525b50505050565b6000601f19601f8301169050919050565b600061243e826123d3565b61244881856123de565b93506124588185602086016123ef565b61246181612422565b840191505092915050565b600060208201905081810360008301526124868184612433565b905092915050565b600080fd5b600080fd5b7f4e487b7100000000000000000000000000000000000000000000000000000000600052604160045260246000fd5b6124d082612422565b810181811067ffffffffffffffff821117156124ef576124ee612498565b5b80604052505050565b6000612502612206565b905061250e82826124c7565b919050565b600067ffffffffffffffff82111561252e5761252d612498565b5b61253782612422565b9050602081019050919050565b82818337600083830152505050565b600061256661256184612513565b6124f8565b90508281526020810184848401111561258257612581612493565b5b61258d848285612544565b509392505050565b600082601f8301126125aa576125a961248e565b5b81356125ba848260208601612553565b91505092915050565b600080604083850312156125da576125d9612210565b5b600083013567ffffffffffffffff8111156125f8576125f7612215565b5b61260485828601612595565b925050602061261585828601612299565b9150509250929050565b60006020828403121561263557612634612210565b5b600061264384828501612263565b91505092915050565b60006020828403121561266257612661612210565b5b600061267084828501612299565b91505092915050565b600080fd5b600080fd5b60008083601f8401126126995761269861248e565b5b8235905067ffffffffffffffff8111156126b6576126b5612679565b5b6020830191508360208202830111156126d2576126d161267e565b5b9250929050565b60008083601f8401126126ef576126ee61248e565b5b8235905067ffffffffffffffff81111561270c5761270b612679565b5b6020830191508360018202830111156127285761272761267e565b5b9250929050565b60008060008060008060008060a0898b03121561274f5761274e612210565b5b600061275d8b828c01612263565b985050602061276e8b828c01612263565b975050604089013567ffffffffffffffff81111561278f5761278e612215565b5b61279b8b828c01612683565b9650965050606089013567ffffffffffffffff8111156127be576127bd612215565b5b6127ca8b828c01612683565b9450945050608089013567ffffffffffffffff8111156127ed576127ec612215565b5b6127f98b828c016126d9565b92509250509295985092959890939650565b60008060006060848603121561282457612823612210565b5b600061283286828701612263565b935050602061284386828701612299565b925050604061285486828701612299565b9150509250925092565b6128678161223a565b82525050565b6000602082019050612882600083018461285e565b92915050565b60008083601f84011261289e5761289d61248e565b5b8235905067ffffffffffffffff8111156128bb576128ba612679565b5b6020830191508360208202830111156128d7576128d661267e565b5b9250929050565b600080600080604085870312156128f8576128f7612210565b5b600085013567ffffffffffffffff81111561291657612915612215565b5b61292287828801612888565b9450945050602085013567ffffffffffffffff81111561294557612944612215565b5b61295187828801612683565b925092505092959194509250565b600081519050919050565b600082825260208201905092915050565b6000819050602082019050919050565b61299481612278565b82525050565b60006129a6838361298b565b60208301905092915050565b6000602082019050919050565b60006129ca8261295f565b6129d4818561296a565b93506129df8361297b565b8060005b83811015612a105781516129f7888261299a565b9750612a02836129b2565b9250506001810190506129e3565b5085935050505092915050565b60006020820190508181036000830152612a3781846129bf565b905092915050565b6000819050919050565b612a5281612a3f565b82525050565b6000602082019050612a6d6000830184612a49565b92915050565b612a7c8161239d565b8114612a8757600080fd5b50565b600081359050612a9981612a73565b92915050565b60008060408385031215612ab657612ab5612210565b5b6000612ac485828601612263565b9250506020612ad585828601612a8a565b9150509250929050565b60008060408385031215612af657612af5612210565b5b6000612b0485828601612263565b9250506020612b1585828601612263565b9150509250929050565b60008060008060008060a08789031215612b3c57612b3b612210565b5b6000612b4a89828a01612263565b9650506020612b5b89828a01612263565b9550506040612b6c89828a01612299565b9450506060612b7d89828a01612299565b935050608087013567ffffffffffffffff811115612b9e57612b9d612215565b5b612baa89828a016126d9565b92509250509295509295509295565b7f4e487b7100000000000000000000000000000000000000000000000000000000600052602260045260246000fd5b60006002820490506001821680612c0057607f821691505b60208210811415612c1457612c13612bb9565b5b50919050565b7f4f776e61626c653a2063616c6c6572206973206e6f7420746865206f776e6572600082015250565b6000612c506020836123de565b9150612c5b82612c1a565b602082019050919050565b60006020820190508181036000830152612c7f81612c43565b9050919050565b7f4c454e4754485f4d49534d415443480000000000000000000000000000000000600082015250565b6000612cbc600f836123de565b9150612cc782612c86565b602082019050919050565b60006020820190508181036000830152612ceb81612caf565b9050919050565b7f4e4f545f415554484f52495a4544000000000000000000000000000000000000600082015250565b6000612d28600e836123de565b9150612d3382612cf2565b602082019050919050565b60006020820190508181036000830152612d5781612d1b565b9050919050565b7f4e487b7100000000000000000000000000000000000000000000000000000000600052603260045260246000fd5b7f4e487b7100000000000000000000000000000000000000000000000000000000600052601160045260246000fd5b6000612dc782612278565b9150612dd283612278565b925082821015612de557612de4612d8d565b5b828203905092915050565b6000612dfb82612278565b9150612e0683612278565b9250827fffffffffffffffffffffffffffffffffffffffffffffffffffffffffffffffff03821115612e3b57612e3a612d8d565b5b828201905092915050565b600080fd5b6000612e57838561296a565b93507f07ffffffffffffffffffffffffffffffffffffffffffffffffffffffffffffff831115612e8a57612e89612e46565b5b602083029250612e9b838584612544565b82840190509392505050565b60006040820190508181036000830152612ec2818688612e4b565b90508181036020830152612ed7818486612e4b565b905095945050505050565b600082825260208201905092915050565b6000612eff8385612ee2565b9350612f0c838584612544565b612f1583612422565b840190509392505050565b600060a082019050612f35600083018b61285e565b612f42602083018a61285e565b8181036040830152612f5581888a612e4b565b90508181036060830152612f6a818688612e4b565b90508181036080830152612f7f818486612ef3565b90509998505050505050505050565b600081519050612f9d81612344565b92915050565b600060208284031215612fb957612fb8612210565b5b6000612fc784828501612f8e565b91505092915050565b7f554e534146455f524543495049454e5400000000000000000000000000000000600082015250565b60006130066010836123de565b915061301182612fd0565b602082019050919050565b6000602082019050818103600083015261303581612ff9565b9050919050565b7f434343323a204e6f6e6578697374656e7420746f6b656e2049442e0000000000600082015250565b6000613072601b836123de565b915061307d8261303c565b602082019050919050565b600060208201905081810360008301526130a181613065565b9050919050565b7f434343323a20416d6f756e74206973206c6172676572207468616e20746f746160008201527f6c537570706c792e000000000000000000000000000000000000000000000000602082015250565b60006131046028836123de565b915061310f826130a8565b604082019050919050565b60006020820190508181036000830152613133816130f7565b9050919050565b600060408201905061314f60008301856122ee565b61315c60208301846122ee565b9392505050565b600060a082019050613178600083018961285e565b613185602083018861285e565b61319260408301876122ee565b61319f60608301866122ee565b81810360808301526131b2818486612ef3565b9050979650505050505050565b7f4f776e61626c653a206e6577206f776e657220697320746865207a65726f206160008201527f6464726573730000000000000000000000000000000000000000000000000000602082015250565b600061321b6026836123de565b9150613226826131bf565b604082019050919050565b6000602082019050818103600083015261324a8161320e565b9050919050565b600081519050919050565b600061326782613251565b6132718185612ee2565b93506132818185602086016123ef565b61328a81612422565b840191505092915050565b600060a0820190506132aa600083018861285e565b6132b7602083018761285e565b6132c460408301866122ee565b6132d160608301856122ee565b81810360808301526132e3818461325c565b90509695505050505050565b7f4554485f5452414e534645525f4641494c454400000000000000000000000000600082015250565b60006133256013836123de565b9150613330826132ef565b602082019050919050565b6000602082019050818103600083015261335481613318565b905091905056fea2646970667358221220a61da09e3965a5b515d57c469aad84d8ef7c507a099204e6260a1788a6a2f69d64736f6c634300080b0033697066733a2f2f516d594e437073446e634845717143374d7256356f63654d366f5657336d6a444b6d733246767267746343745364697066733a2f2f516d5342564736627841626e50704737464b5736627537554c4846484539764a4d394737655563594d6d744a6e7a2e706e67697066733a2f2f516d526d4c634b376d614555355578773472507679775677696f445a6a33505659684d7755454335634c744c734e",
					"opcodes": "PUSH2 0x140 PUSH1 0x40 MSTORE PUSH1 0xA6 PUSH1 0x80 SWAP1 DUP2 MSTORE POP PUSH2 0x14A PUSH1 0xA0 SWAP1 DUP2 MSTORE POP PUSH1 0x11 PUSH1 0xC0 SWAP1 DUP2 MSTORE POP PUSH1 0x21 PUSH1 0xE0 SWAP1 DUP2 MSTORE POP PUSH1 0x1 PUSH2 0x100 SWAP1 DUP2 MSTORE POP PUSH1 0x2 PUSH2 0x120 SWAP1 DUP2 MSTORE POP CALLVALUE DUP1 ISZERO PUSH3 0x45 JUMPI PUSH1 0x0 DUP1 REVERT JUMPDEST POP PUSH1 0x40 MLOAD PUSH3 0x40D1 CODESIZE SUB DUP1 PUSH3 0x40D1 DUP4 CODECOPY DUP2 DUP2 ADD PUSH1 0x40 MSTORE DUP2 ADD SWAP1 PUSH3 0x6B SWAP2 SWAP1 PUSH3 0x7DF JUMP JUMPDEST PUSH3 0x8B PUSH3 0x7F PUSH3 0x205 PUSH1 0x20 SHL PUSH1 0x20 SHR JUMP JUMPDEST PUSH3 0x20D PUSH1 0x20 SHL PUSH1 0x20 SHR JUMP JUMPDEST PUSH1 0x40 MLOAD DUP1 PUSH1 0x40 ADD PUSH1 0x40 MSTORE DUP1 PUSH1 0x13 DUP2 MSTORE PUSH1 0x20 ADD PUSH32 0x54657374204D696E742050617373207631304900000000000000000000000000 DUP2 MSTORE POP SWAP5 POP PUSH1 0x40 MLOAD DUP1 PUSH1 0x40 ADD PUSH1 0x40 MSTORE DUP1 PUSH1 0xF DUP2 MSTORE PUSH1 0x20 ADD PUSH32 0x262331303034373B544D50563130490000000000000000000000000000000000 DUP2 MSTORE POP SWAP4 POP PUSH3 0x129 CALLER PUSH1 0x1 DUP1 PUSH1 0x40 MLOAD DUP1 PUSH1 0x60 ADD PUSH1 0x40 MSTORE DUP1 PUSH1 0x39 DUP2 MSTORE PUSH1 0x20 ADD PUSH3 0x4063 PUSH1 0x39 SWAP2 CODECOPY PUSH3 0x2D3 PUSH1 0x20 SHL PUSH1 0x20 SHR JUMP JUMPDEST PUSH3 0x157 CALLER PUSH1 0x2 DUP1 PUSH1 0x40 MLOAD DUP1 PUSH1 0x60 ADD PUSH1 0x40 MSTORE DUP1 PUSH1 0x35 DUP2 MSTORE PUSH1 0x20 ADD PUSH3 0x409C PUSH1 0x35 SWAP2 CODECOPY PUSH3 0x2D3 PUSH1 0x20 SHL PUSH1 0x20 SHR JUMP JUMPDEST PUSH20 0x4E322A20ED891FF77DE2F774D2824F55B7152C73 SWAP3 POP PUSH1 0x40 MLOAD DUP1 PUSH1 0x60 ADD PUSH1 0x40 MSTORE DUP1 PUSH1 0x35 DUP2 MSTORE PUSH1 0x20 ADD PUSH3 0x402E PUSH1 0x35 SWAP2 CODECOPY PUSH1 0x7 PUSH1 0x0 PUSH2 0x120 MLOAD DUP2 MSTORE PUSH1 0x20 ADD SWAP1 DUP2 MSTORE PUSH1 0x20 ADD PUSH1 0x0 KECCAK256 SWAP1 DUP1 MLOAD SWAP1 PUSH1 0x20 ADD SWAP1 PUSH3 0x1B3 SWAP3 SWAP2 SWAP1 PUSH3 0x52D JUMP JUMPDEST POP PUSH1 0x40 MLOAD DUP1 PUSH1 0x60 ADD PUSH1 0x40 MSTORE DUP1 PUSH1 0x35 DUP2 MSTORE PUSH1 0x20 ADD PUSH3 0x402E PUSH1 0x35 SWAP2 CODECOPY PUSH1 0x7 PUSH1 0x0 PUSH2 0x100 MLOAD DUP2 MSTORE PUSH1 0x20 ADD SWAP1 DUP2 MSTORE PUSH1 0x20 ADD PUSH1 0x0 KECCAK256 SWAP1 DUP1 MLOAD SWAP1 PUSH1 0x20 ADD SWAP1 PUSH3 0x1F9 SWAP3 SWAP2 SWAP1 PUSH3 0x52D JUMP JUMPDEST POP POP POP POP POP POP PUSH3 0xC00 JUMP JUMPDEST PUSH1 0x0 CALLER SWAP1 POP SWAP1 JUMP JUMPDEST PUSH1 0x0 PUSH1 0x2 PUSH1 0x0 SWAP1 SLOAD SWAP1 PUSH2 0x100 EXP SWAP1 DIV PUSH20 0xFFFFFFFFFFFFFFFFFFFFFFFFFFFFFFFFFFFFFFFF AND SWAP1 POP DUP2 PUSH1 0x2 PUSH1 0x0 PUSH2 0x100 EXP DUP2 SLOAD DUP2 PUSH20 0xFFFFFFFFFFFFFFFFFFFFFFFFFFFFFFFFFFFFFFFF MUL NOT AND SWAP1 DUP4 PUSH20 0xFFFFFFFFFFFFFFFFFFFFFFFFFFFFFFFFFFFFFFFF AND MUL OR SWAP1 SSTORE POP DUP2 PUSH20 0xFFFFFFFFFFFFFFFFFFFFFFFFFFFFFFFFFFFFFFFF AND DUP2 PUSH20 0xFFFFFFFFFFFFFFFFFFFFFFFFFFFFFFFFFFFFFFFF AND PUSH32 0x8BE0079C531659141344CD1FD0A4F28419497F9722A3DAAFE3B4186F6B6457E0 PUSH1 0x40 MLOAD PUSH1 0x40 MLOAD DUP1 SWAP2 SUB SWAP1 LOG3 POP POP JUMP JUMPDEST DUP2 PUSH1 0x0 DUP1 DUP7 PUSH20 0xFFFFFFFFFFFFFFFFFFFFFFFFFFFFFFFFFFFFFFFF AND PUSH20 0xFFFFFFFFFFFFFFFFFFFFFFFFFFFFFFFFFFFFFFFF AND DUP2 MSTORE PUSH1 0x20 ADD SWAP1 DUP2 MSTORE PUSH1 0x20 ADD PUSH1 0x0 KECCAK256 PUSH1 0x0 DUP6 DUP2 MSTORE PUSH1 0x20 ADD SWAP1 DUP2 MSTORE PUSH1 0x20 ADD PUSH1 0x0 KECCAK256 PUSH1 0x0 DUP3 DUP3 SLOAD PUSH3 0x334 SWAP2 SWAP1 PUSH3 0x91C JUMP JUMPDEST SWAP3 POP POP DUP2 SWAP1 SSTORE POP DUP4 PUSH20 0xFFFFFFFFFFFFFFFFFFFFFFFFFFFFFFFFFFFFFFFF AND PUSH1 0x0 PUSH20 0xFFFFFFFFFFFFFFFFFFFFFFFFFFFFFFFFFFFFFFFF AND CALLER PUSH20 0xFFFFFFFFFFFFFFFFFFFFFFFFFFFFFFFFFFFFFFFF AND PUSH32 0xC3D58168C5AE7397731D063D5BBF3D657854427343F4C083240F7AACAA2D0F62 DUP7 DUP7 PUSH1 0x40 MLOAD PUSH3 0x3B4 SWAP3 SWAP2 SWAP1 PUSH3 0x98A JUMP JUMPDEST PUSH1 0x40 MLOAD DUP1 SWAP2 SUB SWAP1 LOG4 PUSH1 0x0 DUP5 PUSH20 0xFFFFFFFFFFFFFFFFFFFFFFFFFFFFFFFFFFFFFFFF AND EXTCODESIZE EQ PUSH3 0x4B3 JUMPI PUSH4 0xF23A6E61 PUSH1 0xE0 SHL PUSH28 0xFFFFFFFFFFFFFFFFFFFFFFFFFFFFFFFFFFFFFFFFFFFFFFFFFFFFFFFF NOT AND DUP5 PUSH20 0xFFFFFFFFFFFFFFFFFFFFFFFFFFFFFFFFFFFFFFFF AND PUSH4 0xF23A6E61 CALLER PUSH1 0x0 DUP8 DUP8 DUP8 PUSH1 0x40 MLOAD DUP7 PUSH4 0xFFFFFFFF AND PUSH1 0xE0 SHL DUP2 MSTORE PUSH1 0x4 ADD PUSH3 0x447 SWAP6 SWAP5 SWAP4 SWAP3 SWAP2 SWAP1 PUSH3 0xA25 JUMP JUMPDEST PUSH1 0x20 PUSH1 0x40 MLOAD DUP1 DUP4 SUB DUP2 PUSH1 0x0 DUP8 GAS CALL ISZERO DUP1 ISZERO PUSH3 0x467 JUMPI RETURNDATASIZE PUSH1 0x0 DUP1 RETURNDATACOPY RETURNDATASIZE PUSH1 0x0 REVERT JUMPDEST POP POP POP POP PUSH1 0x40 MLOAD RETURNDATASIZE PUSH1 0x1F NOT PUSH1 0x1F DUP3 ADD AND DUP3 ADD DUP1 PUSH1 0x40 MSTORE POP DUP2 ADD SWAP1 PUSH3 0x48D SWAP2 SWAP1 PUSH3 0xAE6 JUMP JUMPDEST PUSH28 0xFFFFFFFFFFFFFFFFFFFFFFFFFFFFFFFFFFFFFFFFFFFFFFFFFFFFFFFF NOT AND EQ PUSH3 0x4E5 JUMP JUMPDEST PUSH1 0x0 PUSH20 0xFFFFFFFFFFFFFFFFFFFFFFFFFFFFFFFFFFFFFFFF AND DUP5 PUSH20 0xFFFFFFFFFFFFFFFFFFFFFFFFFFFFFFFFFFFFFFFF AND EQ ISZERO JUMPDEST PUSH3 0x527 JUMPI PUSH1 0x40 MLOAD PUSH32 0x8C379A000000000000000000000000000000000000000000000000000000000 DUP2 MSTORE PUSH1 0x4 ADD PUSH3 0x51E SWAP1 PUSH3 0xB79 JUMP JUMPDEST PUSH1 0x40 MLOAD DUP1 SWAP2 SUB SWAP1 REVERT JUMPDEST POP POP POP POP JUMP JUMPDEST DUP3 DUP1 SLOAD PUSH3 0x53B SWAP1 PUSH3 0xBCA JUMP JUMPDEST SWAP1 PUSH1 0x0 MSTORE PUSH1 0x20 PUSH1 0x0 KECCAK256 SWAP1 PUSH1 0x1F ADD PUSH1 0x20 SWAP1 DIV DUP2 ADD SWAP3 DUP3 PUSH3 0x55F JUMPI PUSH1 0x0 DUP6 SSTORE PUSH3 0x5AB JUMP JUMPDEST DUP3 PUSH1 0x1F LT PUSH3 0x57A JUMPI DUP1 MLOAD PUSH1 0xFF NOT AND DUP4 DUP1 ADD OR DUP6 SSTORE PUSH3 0x5AB JUMP JUMPDEST DUP3 DUP1 ADD PUSH1 0x1 ADD DUP6 SSTORE DUP3 ISZERO PUSH3 0x5AB JUMPI SWAP2 DUP3 ADD JUMPDEST DUP3 DUP2 GT ISZERO PUSH3 0x5AA JUMPI DUP3 MLOAD DUP3 SSTORE SWAP2 PUSH1 0x20 ADD SWAP2 SWAP1 PUSH1 0x1 ADD SWAP1 PUSH3 0x58D JUMP JUMPDEST JUMPDEST POP SWAP1 POP PUSH3 0x5BA SWAP2 SWAP1 PUSH3 0x5BE JUMP JUMPDEST POP SWAP1 JUMP JUMPDEST JUMPDEST DUP1 DUP3 GT ISZERO PUSH3 0x5D9 JUMPI PUSH1 0x0 DUP2 PUSH1 0x0 SWAP1 SSTORE POP PUSH1 0x1 ADD PUSH3 0x5BF JUMP JUMPDEST POP SWAP1 JUMP JUMPDEST PUSH1 0x0 PUSH1 0x40 MLOAD SWAP1 POP SWAP1 JUMP JUMPDEST PUSH1 0x0 DUP1 REVERT JUMPDEST PUSH1 0x0 DUP1 REVERT JUMPDEST PUSH1 0x0 DUP1 REVERT JUMPDEST PUSH1 0x0 DUP1 REVERT JUMPDEST PUSH1 0x0 PUSH1 0x1F NOT PUSH1 0x1F DUP4 ADD AND SWAP1 POP SWAP2 SWAP1 POP JUMP JUMPDEST PUSH32 0x4E487B7100000000000000000000000000000000000000000000000000000000 PUSH1 0x0 MSTORE PUSH1 0x41 PUSH1 0x4 MSTORE PUSH1 0x24 PUSH1 0x0 REVERT JUMPDEST PUSH3 0x646 DUP3 PUSH3 0x5FB JUMP JUMPDEST DUP2 ADD DUP2 DUP2 LT PUSH8 0xFFFFFFFFFFFFFFFF DUP3 GT OR ISZERO PUSH3 0x668 JUMPI PUSH3 0x667 PUSH3 0x60C JUMP JUMPDEST JUMPDEST DUP1 PUSH1 0x40 MSTORE POP POP POP JUMP JUMPDEST PUSH1 0x0 PUSH3 0x67D PUSH3 0x5DD JUMP JUMPDEST SWAP1 POP PUSH3 0x68B DUP3 DUP3 PUSH3 0x63B JUMP JUMPDEST SWAP2 SWAP1 POP JUMP JUMPDEST PUSH1 0x0 PUSH8 0xFFFFFFFFFFFFFFFF DUP3 GT ISZERO PUSH3 0x6AE JUMPI PUSH3 0x6AD PUSH3 0x60C JUMP JUMPDEST JUMPDEST PUSH3 0x6B9 DUP3 PUSH3 0x5FB JUMP JUMPDEST SWAP1 POP PUSH1 0x20 DUP2 ADD SWAP1 POP SWAP2 SWAP1 POP JUMP JUMPDEST PUSH1 0x0 JUMPDEST DUP4 DUP2 LT ISZERO PUSH3 0x6E6 JUMPI DUP1 DUP3 ADD MLOAD DUP2 DUP5 ADD MSTORE PUSH1 0x20 DUP2 ADD SWAP1 POP PUSH3 0x6C9 JUMP JUMPDEST DUP4 DUP2 GT ISZERO PUSH3 0x6F6 JUMPI PUSH1 0x0 DUP5 DUP5 ADD MSTORE JUMPDEST POP POP POP POP JUMP JUMPDEST PUSH1 0x0 PUSH3 0x713 PUSH3 0x70D DUP5 PUSH3 0x690 JUMP JUMPDEST PUSH3 0x671 JUMP JUMPDEST SWAP1 POP DUP3 DUP2 MSTORE PUSH1 0x20 DUP2 ADD DUP5 DUP5 DUP5 ADD GT ISZERO PUSH3 0x732 JUMPI PUSH3 0x731 PUSH3 0x5F6 JUMP JUMPDEST JUMPDEST PUSH3 0x73F DUP5 DUP3 DUP6 PUSH3 0x6C6 JUMP JUMPDEST POP SWAP4 SWAP3 POP POP POP JUMP JUMPDEST PUSH1 0x0 DUP3 PUSH1 0x1F DUP4 ADD SLT PUSH3 0x75F JUMPI PUSH3 0x75E PUSH3 0x5F1 JUMP JUMPDEST JUMPDEST DUP2 MLOAD PUSH3 0x771 DUP5 DUP3 PUSH1 0x20 DUP7 ADD PUSH3 0x6FC JUMP JUMPDEST SWAP2 POP POP SWAP3 SWAP2 POP POP JUMP JUMPDEST PUSH1 0x0 PUSH20 0xFFFFFFFFFFFFFFFFFFFFFFFFFFFFFFFFFFFFFFFF DUP3 AND SWAP1 POP SWAP2 SWAP1 POP JUMP JUMPDEST PUSH1 0x0 PUSH3 0x7A7 DUP3 PUSH3 0x77A JUMP JUMPDEST SWAP1 POP SWAP2 SWAP1 POP JUMP JUMPDEST PUSH3 0x7B9 DUP2 PUSH3 0x79A JUMP JUMPDEST DUP2 EQ PUSH3 0x7C5 JUMPI PUSH1 0x0 DUP1 REVERT JUMPDEST POP JUMP JUMPDEST PUSH1 0x0 DUP2 MLOAD SWAP1 POP PUSH3 0x7D9 DUP2 PUSH3 0x7AE JUMP JUMPDEST SWAP3 SWAP2 POP POP JUMP JUMPDEST PUSH1 0x0 DUP1 PUSH1 0x0 DUP1 PUSH1 0x0 PUSH1 0xA0 DUP7 DUP9 SUB SLT ISZERO PUSH3 0x7FE JUMPI PUSH3 0x7FD PUSH3 0x5E7 JUMP JUMPDEST JUMPDEST PUSH1 0x0 DUP7 ADD MLOAD PUSH8 0xFFFFFFFFFFFFFFFF DUP2 GT ISZERO PUSH3 0x81F JUMPI PUSH3 0x81E PUSH3 0x5EC JUMP JUMPDEST JUMPDEST PUSH3 0x82D DUP9 DUP3 DUP10 ADD PUSH3 0x747 JUMP JUMPDEST SWAP6 POP POP PUSH1 0x20 DUP7 ADD MLOAD PUSH8 0xFFFFFFFFFFFFFFFF DUP2 GT ISZERO PUSH3 0x851 JUMPI PUSH3 0x850 PUSH3 0x5EC JUMP JUMPDEST JUMPDEST PUSH3 0x85F DUP9 DUP3 DUP10 ADD PUSH3 0x747 JUMP JUMPDEST SWAP5 POP POP PUSH1 0x40 PUSH3 0x872 DUP9 DUP3 DUP10 ADD PUSH3 0x7C8 JUMP JUMPDEST SWAP4 POP POP PUSH1 0x60 DUP7 ADD MLOAD PUSH8 0xFFFFFFFFFFFFFFFF DUP2 GT ISZERO PUSH3 0x896 JUMPI PUSH3 0x895 PUSH3 0x5EC JUMP JUMPDEST JUMPDEST PUSH3 0x8A4 DUP9 DUP3 DUP10 ADD PUSH3 0x747 JUMP JUMPDEST SWAP3 POP POP PUSH1 0x80 DUP7 ADD MLOAD PUSH8 0xFFFFFFFFFFFFFFFF DUP2 GT ISZERO PUSH3 0x8C8 JUMPI PUSH3 0x8C7 PUSH3 0x5EC JUMP JUMPDEST JUMPDEST PUSH3 0x8D6 DUP9 DUP3 DUP10 ADD PUSH3 0x747 JUMP JUMPDEST SWAP2 POP POP SWAP3 SWAP6 POP SWAP3 SWAP6 SWAP1 SWAP4 POP JUMP JUMPDEST PUSH1 0x0 DUP2 SWAP1 POP SWAP2 SWAP1 POP JUMP JUMPDEST PUSH32 0x4E487B7100000000000000000000000000000000000000000000000000000000 PUSH1 0x0 MSTORE PUSH1 0x11 PUSH1 0x4 MSTORE PUSH1 0x24 PUSH1 0x0 REVERT JUMPDEST PUSH1 0x0 PUSH3 0x929 DUP3 PUSH3 0x8E3 JUMP JUMPDEST SWAP2 POP PUSH3 0x936 DUP4 PUSH3 0x8E3 JUMP JUMPDEST SWAP3 POP DUP3 PUSH32 0xFFFFFFFFFFFFFFFFFFFFFFFFFFFFFFFFFFFFFFFFFFFFFFFFFFFFFFFFFFFFFFFF SUB DUP3 GT ISZERO PUSH3 0x96E JUMPI PUSH3 0x96D PUSH3 0x8ED JUMP JUMPDEST JUMPDEST DUP3 DUP3 ADD SWAP1 POP SWAP3 SWAP2 POP POP JUMP JUMPDEST PUSH3 0x984 DUP2 PUSH3 0x8E3 JUMP JUMPDEST DUP3 MSTORE POP POP JUMP JUMPDEST PUSH1 0x0 PUSH1 0x40 DUP3 ADD SWAP1 POP PUSH3 0x9A1 PUSH1 0x0 DUP4 ADD DUP6 PUSH3 0x979 JUMP JUMPDEST PUSH3 0x9B0 PUSH1 0x20 DUP4 ADD DUP5 PUSH3 0x979 JUMP JUMPDEST SWAP4 SWAP3 POP POP POP JUMP JUMPDEST PUSH3 0x9C2 DUP2 PUSH3 0x79A JUMP JUMPDEST DUP3 MSTORE POP POP JUMP JUMPDEST PUSH1 0x0 DUP2 MLOAD SWAP1 POP SWAP2 SWAP1 POP JUMP JUMPDEST PUSH1 0x0 DUP3 DUP3 MSTORE PUSH1 0x20 DUP3 ADD SWAP1 POP SWAP3 SWAP2 POP POP JUMP JUMPDEST PUSH1 0x0 PUSH3 0x9F1 DUP3 PUSH3 0x9C8 JUMP JUMPDEST PUSH3 0x9FD DUP2 DUP6 PUSH3 0x9D3 JUMP JUMPDEST SWAP4 POP PUSH3 0xA0F DUP2 DUP6 PUSH1 0x20 DUP7 ADD PUSH3 0x6C6 JUMP JUMPDEST PUSH3 0xA1A DUP2 PUSH3 0x5FB JUMP JUMPDEST DUP5 ADD SWAP2 POP POP SWAP3 SWAP2 POP POP JUMP JUMPDEST PUSH1 0x0 PUSH1 0xA0 DUP3 ADD SWAP1 POP PUSH3 0xA3C PUSH1 0x0 DUP4 ADD DUP9 PUSH3 0x9B7 JUMP JUMPDEST PUSH3 0xA4B PUSH1 0x20 DUP4 ADD DUP8 PUSH3 0x9B7 JUMP JUMPDEST PUSH3 0xA5A PUSH1 0x40 DUP4 ADD DUP7 PUSH3 0x979 JUMP JUMPDEST PUSH3 0xA69 PUSH1 0x60 DUP4 ADD DUP6 PUSH3 0x979 JUMP JUMPDEST DUP2 DUP2 SUB PUSH1 0x80 DUP4 ADD MSTORE PUSH3 0xA7D DUP2 DUP5 PUSH3 0x9E4 JUMP JUMPDEST SWAP1 POP SWAP7 SWAP6 POP POP POP POP POP POP JUMP JUMPDEST PUSH1 0x0 PUSH32 0xFFFFFFFF00000000000000000000000000000000000000000000000000000000 DUP3 AND SWAP1 POP SWAP2 SWAP1 POP JUMP JUMPDEST PUSH3 0xAC0 DUP2 PUSH3 0xA89 JUMP JUMPDEST DUP2 EQ PUSH3 0xACC JUMPI PUSH1 0x0 DUP1 REVERT JUMPDEST POP JUMP JUMPDEST PUSH1 0x0 DUP2 MLOAD SWAP1 POP PUSH3 0xAE0 DUP2 PUSH3 0xAB5 JUMP JUMPDEST SWAP3 SWAP2 POP POP JUMP JUMPDEST PUSH1 0x0 PUSH1 0x20 DUP3 DUP5 SUB SLT ISZERO PUSH3 0xAFF JUMPI PUSH3 0xAFE PUSH3 0x5E7 JUMP JUMPDEST JUMPDEST PUSH1 0x0 PUSH3 0xB0F DUP5 DUP3 DUP6 ADD PUSH3 0xACF JUMP JUMPDEST SWAP2 POP POP SWAP3 SWAP2 POP POP JUMP JUMPDEST PUSH1 0x0 DUP3 DUP3 MSTORE PUSH1 0x20 DUP3 ADD SWAP1 POP SWAP3 SWAP2 POP POP JUMP JUMPDEST PUSH32 0x554E534146455F524543495049454E5400000000000000000000000000000000 PUSH1 0x0 DUP3 ADD MSTORE POP JUMP JUMPDEST PUSH1 0x0 PUSH3 0xB61 PUSH1 0x10 DUP4 PUSH3 0xB18 JUMP JUMPDEST SWAP2 POP PUSH3 0xB6E DUP3 PUSH3 0xB29 JUMP JUMPDEST PUSH1 0x20 DUP3 ADD SWAP1 POP SWAP2 SWAP1 POP JUMP JUMPDEST PUSH1 0x0 PUSH1 0x20 DUP3 ADD SWAP1 POP DUP2 DUP2 SUB PUSH1 0x0 DUP4 ADD MSTORE PUSH3 0xB94 DUP2 PUSH3 0xB52 JUMP JUMPDEST SWAP1 POP SWAP2 SWAP1 POP JUMP JUMPDEST PUSH32 0x4E487B7100000000000000000000000000000000000000000000000000000000 PUSH1 0x0 MSTORE PUSH1 0x22 PUSH1 0x4 MSTORE PUSH1 0x24 PUSH1 0x0 REVERT JUMPDEST PUSH1 0x0 PUSH1 0x2 DUP3 DIV SWAP1 POP PUSH1 0x1 DUP3 AND DUP1 PUSH3 0xBE3 JUMPI PUSH1 0x7F DUP3 AND SWAP2 POP JUMPDEST PUSH1 0x20 DUP3 LT DUP2 EQ ISZERO PUSH3 0xBFA JUMPI PUSH3 0xBF9 PUSH3 0xB9B JUMP JUMPDEST JUMPDEST POP SWAP2 SWAP1 POP JUMP JUMPDEST PUSH1 0x80 MLOAD PUSH1 0xA0 MLOAD PUSH1 0xC0 MLOAD PUSH1 0xE0 MLOAD PUSH2 0x100 MLOAD PUSH2 0x120 MLOAD PUSH2 0x3391 PUSH3 0xC9D PUSH1 0x0 CODECOPY PUSH1 0x0 DUP2 DUP2 PUSH2 0xA37 ADD MSTORE DUP2 DUP2 PUSH2 0xF92 ADD MSTORE DUP2 DUP2 PUSH2 0x101E ADD MSTORE DUP2 DUP2 PUSH2 0x106A ADD MSTORE PUSH2 0x17AD ADD MSTORE PUSH1 0x0 DUP2 DUP2 PUSH2 0x9DC ADD MSTORE DUP2 DUP2 PUSH2 0xFBB ADD MSTORE DUP2 DUP2 PUSH2 0x1120 ADD MSTORE PUSH2 0x1929 ADD MSTORE PUSH1 0x0 DUP2 DUP2 PUSH2 0xA58 ADD MSTORE PUSH2 0x1905 ADD MSTORE PUSH1 0x0 DUP2 DUP2 PUSH2 0x9FD ADD MSTORE PUSH2 0x1674 ADD MSTORE PUSH1 0x0 DUP2 DUP2 PUSH2 0xEF2 ADD MSTORE PUSH2 0x1046 ADD MSTORE PUSH1 0x0 DUP2 DUP2 PUSH2 0x10FC ADD MSTORE PUSH2 0x11B3 ADD MSTORE PUSH2 0x3391 PUSH1 0x0 RETURN INVALID PUSH1 0x80 PUSH1 0x40 MSTORE CALLVALUE DUP1 ISZERO PUSH2 0x10 JUMPI PUSH1 0x0 DUP1 REVERT JUMPDEST POP PUSH1 0x4 CALLDATASIZE LT PUSH2 0x205 JUMPI PUSH1 0x0 CALLDATALOAD PUSH1 0xE0 SHR DUP1 PUSH4 0x715018A6 GT PUSH2 0x11A JUMPI DUP1 PUSH4 0xBD85B039 GT PUSH2 0xAD JUMPI DUP1 PUSH4 0xE985E9C5 GT PUSH2 0x7C JUMPI DUP1 PUSH4 0xE985E9C5 EQ PUSH2 0x5CC JUMPI DUP1 PUSH4 0xEA41C2B7 EQ PUSH2 0x5FC JUMPI DUP1 PUSH4 0xF0F9F1CB EQ PUSH2 0x61A JUMPI DUP1 PUSH4 0xF242432A EQ PUSH2 0x638 JUMPI DUP1 PUSH4 0xF2FDE38B EQ PUSH2 0x654 JUMPI PUSH2 0x205 JUMP JUMPDEST DUP1 PUSH4 0xBD85B039 EQ PUSH2 0x530 JUMPI DUP1 PUSH4 0xC87B56DD EQ PUSH2 0x560 JUMPI DUP1 PUSH4 0xD5391393 EQ PUSH2 0x590 JUMPI DUP1 PUSH4 0xE63AB1E9 EQ PUSH2 0x5AE JUMPI PUSH2 0x205 JUMP JUMPDEST DUP1 PUSH4 0x98D78F51 GT PUSH2 0xE9 JUMPI DUP1 PUSH4 0x98D78F51 EQ PUSH2 0x4A8 JUMPI DUP1 PUSH4 0x9FA3CDA1 EQ PUSH2 0x4C6 JUMPI DUP1 PUSH4 0xA22CB465 EQ PUSH2 0x4F6 JUMPI DUP1 PUSH4 0xB8A22687 EQ PUSH2 0x512 JUMPI PUSH2 0x205 JUMP JUMPDEST DUP1 PUSH4 0x715018A6 EQ PUSH2 0x444 JUMPI DUP1 PUSH4 0x7F345710 EQ PUSH2 0x44E JUMPI DUP1 PUSH4 0x8DA5CB5B EQ PUSH2 0x46C JUMPI DUP1 PUSH4 0x95D89B41 EQ PUSH2 0x48A JUMPI PUSH2 0x205 JUMP JUMPDEST DUP1 PUSH4 0x2EB2C2D6 GT PUSH2 0x19D JUMPI DUP1 PUSH4 0x3CCFD60B GT PUSH2 0x16C JUMPI DUP1 PUSH4 0x3CCFD60B EQ PUSH2 0x3B2 JUMPI DUP1 PUSH4 0x3DBD5921 EQ PUSH2 0x3BC JUMPI DUP1 PUSH4 0x430BF08A EQ PUSH2 0x3DA JUMPI DUP1 PUSH4 0x4E1273F4 EQ PUSH2 0x3F8 JUMPI DUP1 PUSH4 0x6817031B EQ PUSH2 0x428 JUMPI PUSH2 0x205 JUMP JUMPDEST DUP1 PUSH4 0x2EB2C2D6 EQ PUSH2 0x33E JUMPI DUP1 PUSH4 0x317C7F62 EQ PUSH2 0x35A JUMPI DUP1 PUSH4 0x388B9FE0 EQ PUSH2 0x378 JUMPI DUP1 PUSH4 0x3C9E6C41 EQ PUSH2 0x394 JUMPI PUSH2 0x205 JUMP JUMPDEST DUP1 PUSH4 0xB22F540 GT PUSH2 0x1D9 JUMPI DUP1 PUSH4 0xB22F540 EQ PUSH2 0x2A4 JUMPI DUP1 PUSH4 0xE89341C EQ PUSH2 0x2D4 JUMPI DUP1 PUSH4 0x16473CF7 EQ PUSH2 0x304 JUMPI DUP1 PUSH4 0x22F1E489 EQ PUSH2 0x320 JUMPI PUSH2 0x205 JUMP JUMPDEST DUP1 PUSH3 0xFDD58E EQ PUSH2 0x20A JUMPI DUP1 PUSH4 0x1FFC9A7 EQ PUSH2 0x23A JUMPI DUP1 PUSH4 0x6FDDE03 EQ PUSH2 0x26A JUMPI DUP1 PUSH4 0x9A3BEEF EQ PUSH2 0x288 JUMPI JUMPDEST PUSH1 0x0 DUP1 REVERT JUMPDEST PUSH2 0x224 PUSH1 0x4 DUP1 CALLDATASIZE SUB DUP2 ADD SWAP1 PUSH2 0x21F SWAP2 SWAP1 PUSH2 0x22AE JUMP JUMPDEST PUSH2 0x670 JUMP JUMPDEST PUSH1 0x40 MLOAD PUSH2 0x231 SWAP2 SWAP1 PUSH2 0x22FD JUMP JUMPDEST PUSH1 0x40 MLOAD DUP1 SWAP2 SUB SWAP1 RETURN JUMPDEST PUSH2 0x254 PUSH1 0x4 DUP1 CALLDATASIZE SUB DUP2 ADD SWAP1 PUSH2 0x24F SWAP2 SWAP1 PUSH2 0x2370 JUMP JUMPDEST PUSH2 0x695 JUMP JUMPDEST PUSH1 0x40 MLOAD PUSH2 0x261 SWAP2 SWAP1 PUSH2 0x23B8 JUMP JUMPDEST PUSH1 0x40 MLOAD DUP1 SWAP2 SUB SWAP1 RETURN JUMPDEST PUSH2 0x272 PUSH2 0x727 JUMP JUMPDEST PUSH1 0x40 MLOAD PUSH2 0x27F SWAP2 SWAP1 PUSH2 0x246C JUMP JUMPDEST PUSH1 0x40 MLOAD DUP1 SWAP2 SUB SWAP1 RETURN JUMPDEST PUSH2 0x2A2 PUSH1 0x4 DUP1 CALLDATASIZE SUB DUP2 ADD SWAP1 PUSH2 0x29D SWAP2 SWAP1 PUSH2 0x25C3 JUMP JUMPDEST PUSH2 0x7B5 JUMP JUMPDEST STOP JUMPDEST PUSH2 0x2BE PUSH1 0x4 DUP1 CALLDATASIZE SUB DUP2 ADD SWAP1 PUSH2 0x2B9 SWAP2 SWAP1 PUSH2 0x261F JUMP JUMPDEST PUSH2 0x85D JUMP JUMPDEST PUSH1 0x40 MLOAD PUSH2 0x2CB SWAP2 SWAP1 PUSH2 0x22FD JUMP JUMPDEST PUSH1 0x40 MLOAD DUP1 SWAP2 SUB SWAP1 RETURN JUMPDEST PUSH2 0x2EE PUSH1 0x4 DUP1 CALLDATASIZE SUB DUP2 ADD SWAP1 PUSH2 0x2E9 SWAP2 SWAP1 PUSH2 0x264C JUMP JUMPDEST PUSH2 0x875 JUMP JUMPDEST PUSH1 0x40 MLOAD PUSH2 0x2FB SWAP2 SWAP1 PUSH2 0x246C JUMP JUMPDEST PUSH1 0x40 MLOAD DUP1 SWAP2 SUB SWAP1 RETURN JUMPDEST PUSH2 0x31E PUSH1 0x4 DUP1 CALLDATASIZE SUB DUP2 ADD SWAP1 PUSH2 0x319 SWAP2 SWAP1 PUSH2 0x261F JUMP JUMPDEST PUSH2 0x95A JUMP JUMPDEST STOP JUMPDEST PUSH2 0x328 PUSH2 0xA8F JUMP JUMPDEST PUSH1 0x40 MLOAD PUSH2 0x335 SWAP2 SWAP1 PUSH2 0x22FD JUMP JUMPDEST PUSH1 0x40 MLOAD DUP1 SWAP2 SUB SWAP1 RETURN JUMPDEST PUSH2 0x358 PUSH1 0x4 DUP1 CALLDATASIZE SUB DUP2 ADD SWAP1 PUSH2 0x353 SWAP2 SWAP1 PUSH2 0x272F JUMP JUMPDEST PUSH2 0xA94 JUMP JUMPDEST STOP JUMPDEST PUSH2 0x362 PUSH2 0xEF0 JUMP JUMPDEST PUSH1 0x40 MLOAD PUSH2 0x36F SWAP2 SWAP1 PUSH2 0x22FD JUMP JUMPDEST PUSH1 0x40 MLOAD DUP1 SWAP2 SUB SWAP1 RETURN JUMPDEST PUSH2 0x392 PUSH1 0x4 DUP1 CALLDATASIZE SUB DUP2 ADD SWAP1 PUSH2 0x38D SWAP2 SWAP1 PUSH2 0x280B JUMP JUMPDEST PUSH2 0xF14 JUMP JUMPDEST STOP JUMPDEST PUSH2 0x39C PUSH2 0x11B1 JUMP JUMPDEST PUSH1 0x40 MLOAD PUSH2 0x3A9 SWAP2 SWAP1 PUSH2 0x22FD JUMP JUMPDEST PUSH1 0x40 MLOAD DUP1 SWAP2 SUB SWAP1 RETURN JUMPDEST PUSH2 0x3BA PUSH2 0x11D5 JUMP JUMPDEST STOP JUMPDEST PUSH2 0x3C4 PUSH2 0x12BA JUMP JUMPDEST PUSH1 0x40 MLOAD PUSH2 0x3D1 SWAP2 SWAP1 PUSH2 0x22FD JUMP JUMPDEST PUSH1 0x40 MLOAD DUP1 SWAP2 SUB SWAP1 RETURN JUMPDEST PUSH2 0x3E2 PUSH2 0x12BF JUMP JUMPDEST PUSH1 0x40 MLOAD PUSH2 0x3EF SWAP2 SWAP1 PUSH2 0x286D JUMP JUMPDEST PUSH1 0x40 MLOAD DUP1 SWAP2 SUB SWAP1 RETURN JUMPDEST PUSH2 0x412 PUSH1 0x4 DUP1 CALLDATASIZE SUB DUP2 ADD SWAP1 PUSH2 0x40D SWAP2 SWAP1 PUSH2 0x28DE JUMP JUMPDEST PUSH2 0x12E5 JUMP JUMPDEST PUSH1 0x40 MLOAD PUSH2 0x41F SWAP2 SWAP1 PUSH2 0x2A1D JUMP JUMPDEST PUSH1 0x40 MLOAD DUP1 SWAP2 SUB SWAP1 RETURN JUMPDEST PUSH2 0x442 PUSH1 0x4 DUP1 CALLDATASIZE SUB DUP2 ADD SWAP1 PUSH2 0x43D SWAP2 SWAP1 PUSH2 0x261F JUMP JUMPDEST PUSH2 0x144E JUMP JUMPDEST STOP JUMPDEST PUSH2 0x44C PUSH2 0x150E JUMP JUMPDEST STOP JUMPDEST PUSH2 0x456 PUSH2 0x1596 JUMP JUMPDEST PUSH1 0x40 MLOAD PUSH2 0x463 SWAP2 SWAP1 PUSH2 0x2A58 JUMP JUMPDEST PUSH1 0x40 MLOAD DUP1 SWAP2 SUB SWAP1 RETURN JUMPDEST PUSH2 0x474 PUSH2 0x15BA JUMP JUMPDEST PUSH1 0x40 MLOAD PUSH2 0x481 SWAP2 SWAP1 PUSH2 0x286D JUMP JUMPDEST PUSH1 0x40 MLOAD DUP1 SWAP2 SUB SWAP1 RETURN JUMPDEST PUSH2 0x492 PUSH2 0x15E4 JUMP JUMPDEST PUSH1 0x40 MLOAD PUSH2 0x49F SWAP2 SWAP1 PUSH2 0x246C JUMP JUMPDEST PUSH1 0x40 MLOAD DUP1 SWAP2 SUB SWAP1 RETURN JUMPDEST PUSH2 0x4B0 PUSH2 0x1672 JUMP JUMPDEST PUSH1 0x40 MLOAD PUSH2 0x4BD SWAP2 SWAP1 PUSH2 0x22FD JUMP JUMPDEST PUSH1 0x40 MLOAD DUP1 SWAP2 SUB SWAP1 RETURN JUMPDEST PUSH2 0x4E0 PUSH1 0x4 DUP1 CALLDATASIZE SUB DUP2 ADD SWAP1 PUSH2 0x4DB SWAP2 SWAP1 PUSH2 0x261F JUMP JUMPDEST PUSH2 0x1696 JUMP JUMPDEST PUSH1 0x40 MLOAD PUSH2 0x4ED SWAP2 SWAP1 PUSH2 0x22FD JUMP JUMPDEST PUSH1 0x40 MLOAD DUP1 SWAP2 SUB SWAP1 RETURN JUMPDEST PUSH2 0x510 PUSH1 0x4 DUP1 CALLDATASIZE SUB DUP2 ADD SWAP1 PUSH2 0x50B SWAP2 SWAP1 PUSH2 0x2A9F JUMP JUMPDEST PUSH2 0x16AE JUMP JUMPDEST STOP JUMPDEST PUSH2 0x51A PUSH2 0x17AB JUMP JUMPDEST PUSH1 0x40 MLOAD PUSH2 0x527 SWAP2 SWAP1 PUSH2 0x22FD JUMP JUMPDEST PUSH1 0x40 MLOAD DUP1 SWAP2 SUB SWAP1 RETURN JUMPDEST PUSH2 0x54A PUSH1 0x4 DUP1 CALLDATASIZE SUB DUP2 ADD SWAP1 PUSH2 0x545 SWAP2 SWAP1 PUSH2 0x264C JUMP JUMPDEST PUSH2 0x17CF JUMP JUMPDEST PUSH1 0x40 MLOAD PUSH2 0x557 SWAP2 SWAP1 PUSH2 0x22FD JUMP JUMPDEST PUSH1 0x40 MLOAD DUP1 SWAP2 SUB SWAP1 RETURN JUMPDEST PUSH2 0x57A PUSH1 0x4 DUP1 CALLDATASIZE SUB DUP2 ADD SWAP1 PUSH2 0x575 SWAP2 SWAP1 PUSH2 0x264C JUMP JUMPDEST PUSH2 0x17EC JUMP JUMPDEST PUSH1 0x40 MLOAD PUSH2 0x587 SWAP2 SWAP1 PUSH2 0x246C JUMP JUMPDEST PUSH1 0x40 MLOAD DUP1 SWAP2 SUB SWAP1 RETURN JUMPDEST PUSH2 0x598 PUSH2 0x188C JUMP JUMPDEST PUSH1 0x40 MLOAD PUSH2 0x5A5 SWAP2 SWAP1 PUSH2 0x2A58 JUMP JUMPDEST PUSH1 0x40 MLOAD DUP1 SWAP2 SUB SWAP1 RETURN JUMPDEST PUSH2 0x5B6 PUSH2 0x18B0 JUMP JUMPDEST PUSH1 0x40 MLOAD PUSH2 0x5C3 SWAP2 SWAP1 PUSH2 0x2A58 JUMP JUMPDEST PUSH1 0x40 MLOAD DUP1 SWAP2 SUB SWAP1 RETURN JUMPDEST PUSH2 0x5E6 PUSH1 0x4 DUP1 CALLDATASIZE SUB DUP2 ADD SWAP1 PUSH2 0x5E1 SWAP2 SWAP1 PUSH2 0x2ADF JUMP JUMPDEST PUSH2 0x18D4 JUMP JUMPDEST PUSH1 0x40 MLOAD PUSH2 0x5F3 SWAP2 SWAP1 PUSH2 0x23B8 JUMP JUMPDEST PUSH1 0x40 MLOAD DUP1 SWAP2 SUB SWAP1 RETURN JUMPDEST PUSH2 0x604 PUSH2 0x1903 JUMP JUMPDEST PUSH1 0x40 MLOAD PUSH2 0x611 SWAP2 SWAP1 PUSH2 0x22FD JUMP JUMPDEST PUSH1 0x40 MLOAD DUP1 SWAP2 SUB SWAP1 RETURN JUMPDEST PUSH2 0x622 PUSH2 0x1927 JUMP JUMPDEST PUSH1 0x40 MLOAD PUSH2 0x62F SWAP2 SWAP1 PUSH2 0x22FD JUMP JUMPDEST PUSH1 0x40 MLOAD DUP1 SWAP2 SUB SWAP1 RETURN JUMPDEST PUSH2 0x652 PUSH1 0x4 DUP1 CALLDATASIZE SUB DUP2 ADD SWAP1 PUSH2 0x64D SWAP2 SWAP1 PUSH2 0x2B1F JUMP JUMPDEST PUSH2 0x194B JUMP JUMPDEST STOP JUMPDEST PUSH2 0x66E PUSH1 0x4 DUP1 CALLDATASIZE SUB DUP2 ADD SWAP1 PUSH2 0x669 SWAP2 SWAP1 PUSH2 0x261F JUMP JUMPDEST PUSH2 0x1CFE JUMP JUMPDEST STOP JUMPDEST PUSH1 0x0 PUSH1 0x20 MSTORE DUP2 PUSH1 0x0 MSTORE PUSH1 0x40 PUSH1 0x0 KECCAK256 PUSH1 0x20 MSTORE DUP1 PUSH1 0x0 MSTORE PUSH1 0x40 PUSH1 0x0 KECCAK256 PUSH1 0x0 SWAP2 POP SWAP2 POP POP SLOAD DUP2 JUMP JUMPDEST PUSH1 0x0 PUSH4 0x1FFC9A7 PUSH1 0xE0 SHL DUP3 PUSH28 0xFFFFFFFFFFFFFFFFFFFFFFFFFFFFFFFFFFFFFFFFFFFFFFFFFFFFFFFF NOT AND EQ DUP1 PUSH2 0x6F0 JUMPI POP PUSH4 0xD9B67A26 PUSH1 0xE0 SHL DUP3 PUSH28 0xFFFFFFFFFFFFFFFFFFFFFFFFFFFFFFFFFFFFFFFFFFFFFFFFFFFFFFFF NOT AND EQ JUMPDEST DUP1 PUSH2 0x720 JUMPI POP PUSH4 0xE89341C PUSH1 0xE0 SHL DUP3 PUSH28 0xFFFFFFFFFFFFFFFFFFFFFFFFFFFFFFFFFFFFFFFFFFFFFFFFFFFFFFFF NOT AND EQ JUMPDEST SWAP1 POP SWAP2 SWAP1 POP JUMP JUMPDEST PUSH1 0x3 DUP1 SLOAD PUSH2 0x734 SWAP1 PUSH2 0x2BE8 JUMP JUMPDEST DUP1 PUSH1 0x1F ADD PUSH1 0x20 DUP1 SWAP2 DIV MUL PUSH1 0x20 ADD PUSH1 0x40 MLOAD SWAP1 DUP2 ADD PUSH1 0x40 MSTORE DUP1 SWAP3 SWAP2 SWAP1 DUP2 DUP2 MSTORE PUSH1 0x20 ADD DUP3 DUP1 SLOAD PUSH2 0x760 SWAP1 PUSH2 0x2BE8 JUMP JUMPDEST DUP1 ISZERO PUSH2 0x7AD JUMPI DUP1 PUSH1 0x1F LT PUSH2 0x782 JUMPI PUSH2 0x100 DUP1 DUP4 SLOAD DIV MUL DUP4 MSTORE SWAP2 PUSH1 0x20 ADD SWAP2 PUSH2 0x7AD JUMP JUMPDEST DUP3 ADD SWAP2 SWAP1 PUSH1 0x0 MSTORE PUSH1 0x20 PUSH1 0x0 KECCAK256 SWAP1 JUMPDEST DUP2 SLOAD DUP2 MSTORE SWAP1 PUSH1 0x1 ADD SWAP1 PUSH1 0x20 ADD DUP1 DUP4 GT PUSH2 0x790 JUMPI DUP3 SWAP1 SUB PUSH1 0x1F AND DUP3 ADD SWAP2 JUMPDEST POP POP POP POP POP DUP2 JUMP JUMPDEST PUSH2 0x7BD PUSH2 0x1DF6 JUMP JUMPDEST PUSH20 0xFFFFFFFFFFFFFFFFFFFFFFFFFFFFFFFFFFFFFFFF AND PUSH2 0x7DB PUSH2 0x15BA JUMP JUMPDEST PUSH20 0xFFFFFFFFFFFFFFFFFFFFFFFFFFFFFFFFFFFFFFFF AND EQ PUSH2 0x831 JUMPI PUSH1 0x40 MLOAD PUSH32 0x8C379A000000000000000000000000000000000000000000000000000000000 DUP2 MSTORE PUSH1 0x4 ADD PUSH2 0x828 SWAP1 PUSH2 0x2C66 JUMP JUMPDEST PUSH1 0x40 MLOAD DUP1 SWAP2 SUB SWAP1 REVERT JUMPDEST DUP2 PUSH1 0x7 PUSH1 0x0 DUP4 DUP2 MSTORE PUSH1 0x20 ADD SWAP1 DUP2 MSTORE PUSH1 0x20 ADD PUSH1 0x0 KECCAK256 SWAP1 DUP1 MLOAD SWAP1 PUSH1 0x20 ADD SWAP1 PUSH2 0x858 SWAP3 SWAP2 SWAP1 PUSH2 0x2163 JUMP JUMPDEST POP POP POP JUMP JUMPDEST PUSH1 0x9 PUSH1 0x20 MSTORE DUP1 PUSH1 0x0 MSTORE PUSH1 0x40 PUSH1 0x0 KECCAK256 PUSH1 0x0 SWAP2 POP SWAP1 POP SLOAD DUP2 JUMP JUMPDEST PUSH1 0x60 PUSH1 0x0 PUSH1 0x7 PUSH1 0x0 DUP5 DUP2 MSTORE PUSH1 0x20 ADD SWAP1 DUP2 MSTORE PUSH1 0x20 ADD PUSH1 0x0 KECCAK256 DUP1 SLOAD PUSH2 0x897 SWAP1 PUSH2 0x2BE8 JUMP JUMPDEST SWAP1 POP EQ ISZERO PUSH2 0x8B6 JUMPI PUSH1 0x40 MLOAD DUP1 PUSH1 0x20 ADD PUSH1 0x40 MSTORE DUP1 PUSH1 0x0 DUP2 MSTORE POP SWAP1 POP PUSH2 0x955 JUMP JUMPDEST PUSH1 0x7 PUSH1 0x0 DUP4 DUP2 MSTORE PUSH1 0x20 ADD SWAP1 DUP2 MSTORE PUSH1 0x20 ADD PUSH1 0x0 KECCAK256 DUP1 SLOAD PUSH2 0x8D4 SWAP1 PUSH2 0x2BE8 JUMP JUMPDEST DUP1 PUSH1 0x1F ADD PUSH1 0x20 DUP1 SWAP2 DIV MUL PUSH1 0x20 ADD PUSH1 0x40 MLOAD SWAP1 DUP2 ADD PUSH1 0x40 MSTORE DUP1 SWAP3 SWAP2 SWAP1 DUP2 DUP2 MSTORE PUSH1 0x20 ADD DUP3 DUP1 SLOAD PUSH2 0x900 SWAP1 PUSH2 0x2BE8 JUMP JUMPDEST DUP1 ISZERO PUSH2 0x94D JUMPI DUP1 PUSH1 0x1F LT PUSH2 0x922 JUMPI PUSH2 0x100 DUP1 DUP4 SLOAD DIV MUL DUP4 MSTORE SWAP2 PUSH1 0x20 ADD SWAP2 PUSH2 0x94D JUMP JUMPDEST DUP3 ADD SWAP2 SWAP1 PUSH1 0x0 MSTORE PUSH1 0x20 PUSH1 0x0 KECCAK256 SWAP1 JUMPDEST DUP2 SLOAD DUP2 MSTORE SWAP1 PUSH1 0x1 ADD SWAP1 PUSH1 0x20 ADD DUP1 DUP4 GT PUSH2 0x930 JUMPI DUP3 SWAP1 SUB PUSH1 0x1F AND DUP3 ADD SWAP2 JUMPDEST POP POP POP POP POP SWAP1 POP JUMPDEST SWAP2 SWAP1 POP JUMP JUMPDEST PUSH2 0x962 PUSH2 0x1DF6 JUMP JUMPDEST PUSH20 0xFFFFFFFFFFFFFFFFFFFFFFFFFFFFFFFFFFFFFFFF AND PUSH2 0x980 PUSH2 0x15BA JUMP JUMPDEST PUSH20 0xFFFFFFFFFFFFFFFFFFFFFFFFFFFFFFFFFFFFFFFF AND EQ PUSH2 0x9D6 JUMPI PUSH1 0x40 MLOAD PUSH32 0x8C379A000000000000000000000000000000000000000000000000000000000 DUP2 MSTORE PUSH1 0x4 ADD PUSH2 0x9CD SWAP1 PUSH2 0x2C66 JUMP JUMPDEST PUSH1 0x40 MLOAD DUP1 SWAP2 SUB SWAP1 REVERT JUMPDEST PUSH2 0xA31 DUP2 PUSH32 0x0 PUSH32 0x0 PUSH1 0x40 MLOAD DUP1 PUSH1 0x20 ADD PUSH1 0x40 MSTORE DUP1 PUSH1 0x0 DUP2 MSTORE POP PUSH2 0x1DFE JUMP JUMPDEST PUSH2 0xA8C DUP2 PUSH32 0x0 PUSH32 0x0 PUSH1 0x40 MLOAD DUP1 PUSH1 0x20 ADD PUSH1 0x40 MSTORE DUP1 PUSH1 0x0 DUP2 MSTORE POP PUSH2 0x1DFE JUMP JUMPDEST POP JUMP JUMPDEST PUSH1 0x1 DUP2 JUMP JUMPDEST DUP4 DUP4 SWAP1 POP DUP7 DUP7 SWAP1 POP EQ PUSH2 0xADC JUMPI PUSH1 0x40 MLOAD PUSH32 0x8C379A000000000000000000000000000000000000000000000000000000000 DUP2 MSTORE PUSH1 0x4 ADD PUSH2 0xAD3 SWAP1 PUSH2 0x2CD2 JUMP JUMPDEST PUSH1 0x40 MLOAD DUP1 SWAP2 SUB SWAP1 REVERT JUMPDEST DUP8 PUSH20 0xFFFFFFFFFFFFFFFFFFFFFFFFFFFFFFFFFFFFFFFF AND CALLER PUSH20 0xFFFFFFFFFFFFFFFFFFFFFFFFFFFFFFFFFFFFFFFF AND EQ DUP1 PUSH2 0xB9C JUMPI POP PUSH1 0x1 PUSH1 0x0 DUP10 PUSH20 0xFFFFFFFFFFFFFFFFFFFFFFFFFFFFFFFFFFFFFFFF AND PUSH20 0xFFFFFFFFFFFFFFFFFFFFFFFFFFFFFFFFFFFFFFFF AND DUP2 MSTORE PUSH1 0x20 ADD SWAP1 DUP2 MSTORE PUSH1 0x20 ADD PUSH1 0x0 KECCAK256 PUSH1 0x0 CALLER PUSH20 0xFFFFFFFFFFFFFFFFFFFFFFFFFFFFFFFFFFFFFFFF AND PUSH20 0xFFFFFFFFFFFFFFFFFFFFFFFFFFFFFFFFFFFFFFFF AND DUP2 MSTORE PUSH1 0x20 ADD SWAP1 DUP2 MSTORE PUSH1 0x20 ADD PUSH1 0x0 KECCAK256 PUSH1 0x0 SWAP1 SLOAD SWAP1 PUSH2 0x100 EXP SWAP1 DIV PUSH1 0xFF AND JUMPDEST PUSH2 0xBDB JUMPI PUSH1 0x40 MLOAD PUSH32 0x8C379A000000000000000000000000000000000000000000000000000000000 DUP2 MSTORE PUSH1 0x4 ADD PUSH2 0xBD2 SWAP1 PUSH2 0x2D3E JUMP JUMPDEST PUSH1 0x40 MLOAD DUP1 SWAP2 SUB SWAP1 REVERT JUMPDEST PUSH1 0x0 DUP1 PUSH1 0x0 JUMPDEST DUP9 DUP9 SWAP1 POP DUP2 LT ISZERO PUSH2 0xCFB JUMPI DUP9 DUP9 DUP3 DUP2 DUP2 LT PUSH2 0xBFF JUMPI PUSH2 0xBFE PUSH2 0x2D5E JUMP JUMPDEST JUMPDEST SWAP1 POP PUSH1 0x20 MUL ADD CALLDATALOAD SWAP3 POP DUP7 DUP7 DUP3 DUP2 DUP2 LT PUSH2 0xC1B JUMPI PUSH2 0xC1A PUSH2 0x2D5E JUMP JUMPDEST JUMPDEST SWAP1 POP PUSH1 0x20 MUL ADD CALLDATALOAD SWAP2 POP DUP2 PUSH1 0x0 DUP1 DUP14 PUSH20 0xFFFFFFFFFFFFFFFFFFFFFFFFFFFFFFFFFFFFFFFF AND PUSH20 0xFFFFFFFFFFFFFFFFFFFFFFFFFFFFFFFFFFFFFFFF AND DUP2 MSTORE PUSH1 0x20 ADD SWAP1 DUP2 MSTORE PUSH1 0x20 ADD PUSH1 0x0 KECCAK256 PUSH1 0x0 DUP6 DUP2 MSTORE PUSH1 0x20 ADD SWAP1 DUP2 MSTORE PUSH1 0x20 ADD PUSH1 0x0 KECCAK256 PUSH1 0x0 DUP3 DUP3 SLOAD PUSH2 0xC83 SWAP2 SWAP1 PUSH2 0x2DBC JUMP JUMPDEST SWAP3 POP POP DUP2 SWAP1 SSTORE POP DUP2 PUSH1 0x0 DUP1 DUP13 PUSH20 0xFFFFFFFFFFFFFFFFFFFFFFFFFFFFFFFFFFFFFFFF AND PUSH20 0xFFFFFFFFFFFFFFFFFFFFFFFFFFFFFFFFFFFFFFFF AND DUP2 MSTORE PUSH1 0x20 ADD SWAP1 DUP2 MSTORE PUSH1 0x20 ADD PUSH1 0x0 KECCAK256 PUSH1 0x0 DUP6 DUP2 MSTORE PUSH1 0x20 ADD SWAP1 DUP2 MSTORE PUSH1 0x20 ADD PUSH1 0x0 KECCAK256 PUSH1 0x0 DUP3 DUP3 SLOAD PUSH2 0xCE9 SWAP2 SWAP1 PUSH2 0x2DF0 JUMP JUMPDEST SWAP3 POP POP DUP2 SWAP1 SSTORE POP DUP1 PUSH1 0x1 ADD SWAP1 POP PUSH2 0xBE1 JUMP JUMPDEST POP DUP9 PUSH20 0xFFFFFFFFFFFFFFFFFFFFFFFFFFFFFFFFFFFFFFFF AND DUP11 PUSH20 0xFFFFFFFFFFFFFFFFFFFFFFFFFFFFFFFFFFFFFFFF AND CALLER PUSH20 0xFFFFFFFFFFFFFFFFFFFFFFFFFFFFFFFFFFFFFFFF AND PUSH32 0x4A39DC06D4C0DBC64B70AF90FD698A233A518AA5D07E595D983B8C0526C8F7FB DUP12 DUP12 DUP12 DUP12 PUSH1 0x40 MLOAD PUSH2 0xD76 SWAP5 SWAP4 SWAP3 SWAP2 SWAP1 PUSH2 0x2EA7 JUMP JUMPDEST PUSH1 0x40 MLOAD DUP1 SWAP2 SUB SWAP1 LOG4 PUSH1 0x0 DUP10 PUSH20 0xFFFFFFFFFFFFFFFFFFFFFFFFFFFFFFFFFFFFFFFF AND EXTCODESIZE EQ PUSH2 0xE73 JUMPI PUSH4 0xBC197C81 PUSH1 0xE0 SHL PUSH28 0xFFFFFFFFFFFFFFFFFFFFFFFFFFFFFFFFFFFFFFFFFFFFFFFFFFFFFFFF NOT AND DUP10 PUSH20 0xFFFFFFFFFFFFFFFFFFFFFFFFFFFFFFFFFFFFFFFF AND PUSH4 0xBC197C81 CALLER DUP14 DUP13 DUP13 DUP13 DUP13 DUP13 DUP13 PUSH1 0x40 MLOAD DUP10 PUSH4 0xFFFFFFFF AND PUSH1 0xE0 SHL DUP2 MSTORE PUSH1 0x4 ADD PUSH2 0xE0B SWAP9 SWAP8 SWAP7 SWAP6 SWAP5 SWAP4 SWAP3 SWAP2 SWAP1 PUSH2 0x2F20 JUMP JUMPDEST PUSH1 0x20 PUSH1 0x40 MLOAD DUP1 DUP4 SUB DUP2 PUSH1 0x0 DUP8 GAS CALL ISZERO DUP1 ISZERO PUSH2 0xE2A JUMPI RETURNDATASIZE PUSH1 0x0 DUP1 RETURNDATACOPY RETURNDATASIZE PUSH1 0x0 REVERT JUMPDEST POP POP POP POP PUSH1 0x40 MLOAD RETURNDATASIZE PUSH1 0x1F NOT PUSH1 0x1F DUP3 ADD AND DUP3 ADD DUP1 PUSH1 0x40 MSTORE POP DUP2 ADD SWAP1 PUSH2 0xE4E SWAP2 SWAP1 PUSH2 0x2FA3 JUMP JUMPDEST PUSH28 0xFFFFFFFFFFFFFFFFFFFFFFFFFFFFFFFFFFFFFFFFFFFFFFFFFFFFFFFF NOT AND EQ PUSH2 0xEA5 JUMP JUMPDEST PUSH1 0x0 PUSH20 0xFFFFFFFFFFFFFFFFFFFFFFFFFFFFFFFFFFFFFFFF AND DUP10 PUSH20 0xFFFFFFFFFFFFFFFFFFFFFFFFFFFFFFFFFFFFFFFF AND EQ ISZERO JUMPDEST PUSH2 0xEE4 JUMPI PUSH1 0x40 MLOAD PUSH32 0x8C379A000000000000000000000000000000000000000000000000000000000 DUP2 MSTORE PUSH1 0x4 ADD PUSH2 0xEDB SWAP1 PUSH2 0x301C JUMP JUMPDEST PUSH1 0x40 MLOAD DUP1 SWAP2 SUB SWAP1 REVERT JUMPDEST POP POP POP POP POP POP POP POP POP POP JUMP JUMPDEST PUSH32 0x0 DUP2 JUMP JUMPDEST PUSH2 0xF1C PUSH2 0x1DF6 JUMP JUMPDEST PUSH20 0xFFFFFFFFFFFFFFFFFFFFFFFFFFFFFFFFFFFFFFFF AND PUSH2 0xF3A PUSH2 0x15BA JUMP JUMPDEST PUSH20 0xFFFFFFFFFFFFFFFFFFFFFFFFFFFFFFFFFFFFFFFF AND EQ PUSH2 0xF90 JUMPI PUSH1 0x40 MLOAD PUSH32 0x8C379A000000000000000000000000000000000000000000000000000000000 DUP2 MSTORE PUSH1 0x4 ADD PUSH2 0xF87 SWAP1 PUSH2 0x2C66 JUMP JUMPDEST PUSH1 0x40 MLOAD DUP1 SWAP2 SUB SWAP1 REVERT JUMPDEST PUSH32 0x0 DUP2 EQ DUP1 PUSH2 0xFDD JUMPI POP PUSH32 0x0 DUP2 EQ JUMPDEST PUSH2 0x101C JUMPI PUSH1 0x40 MLOAD PUSH32 0x8C379A000000000000000000000000000000000000000000000000000000000 DUP2 MSTORE PUSH1 0x4 ADD PUSH2 0x1013 SWAP1 PUSH2 0x3088 JUMP JUMPDEST PUSH1 0x40 MLOAD DUP1 SWAP2 SUB SWAP1 REVERT JUMPDEST PUSH32 0x0 DUP2 EQ ISZERO PUSH2 0x10FA JUMPI PUSH32 0x0 PUSH2 0x108E PUSH32 0x0 PUSH2 0x17CF JUMP JUMPDEST DUP4 PUSH2 0x1099 SWAP2 SWAP1 PUSH2 0x2DF0 JUMP JUMPDEST GT ISZERO PUSH2 0x10DA JUMPI PUSH1 0x40 MLOAD PUSH32 0x8C379A000000000000000000000000000000000000000000000000000000000 DUP2 MSTORE PUSH1 0x4 ADD PUSH2 0x10D1 SWAP1 PUSH2 0x311A JUMP JUMPDEST PUSH1 0x40 MLOAD DUP1 SWAP2 SUB SWAP1 REVERT JUMPDEST PUSH2 0x10F5 DUP4 DUP3 DUP5 PUSH1 0x40 MLOAD DUP1 PUSH1 0x20 ADD PUSH1 0x40 MSTORE DUP1 PUSH1 0x0 DUP2 MSTORE POP PUSH2 0x1DFE JUMP JUMPDEST PUSH2 0x11AC JUMP JUMPDEST PUSH32 0x0 PUSH2 0x1144 PUSH32 0x0 PUSH2 0x17CF JUMP JUMPDEST DUP4 PUSH2 0x114F SWAP2 SWAP1 PUSH2 0x2DF0 JUMP JUMPDEST GT ISZERO PUSH2 0x1190 JUMPI PUSH1 0x40 MLOAD PUSH32 0x8C379A000000000000000000000000000000000000000000000000000000000 DUP2 MSTORE PUSH1 0x4 ADD PUSH2 0x1187 SWAP1 PUSH2 0x311A JUMP JUMPDEST PUSH1 0x40 MLOAD DUP1 SWAP2 SUB SWAP1 REVERT JUMPDEST PUSH2 0x11AB DUP4 DUP3 DUP5 PUSH1 0x40 MLOAD DUP1 PUSH1 0x20 ADD PUSH1 0x40 MSTORE DUP1 PUSH1 0x0 DUP2 MSTORE POP PUSH2 0x1DFE JUMP JUMPDEST JUMPDEST POP POP POP JUMP JUMPDEST PUSH32 0x0 DUP2 JUMP JUMPDEST PUSH2 0x11DD PUSH2 0x1DF6 JUMP JUMPDEST PUSH20 0xFFFFFFFFFFFFFFFFFFFFFFFFFFFFFFFFFFFFFFFF AND PUSH2 0x11FB PUSH2 0x15BA JUMP JUMPDEST PUSH20 0xFFFFFFFFFFFFFFFFFFFFFFFFFFFFFFFFFFFFFFFF AND EQ PUSH2 0x1251 JUMPI PUSH1 0x40 MLOAD PUSH32 0x8C379A000000000000000000000000000000000000000000000000000000000 DUP2 MSTORE PUSH1 0x4 ADD PUSH2 0x1248 SWAP1 PUSH2 0x2C66 JUMP JUMPDEST PUSH1 0x40 MLOAD DUP1 SWAP2 SUB SWAP1 REVERT JUMPDEST PUSH1 0x0 SELFBALANCE EQ ISZERO PUSH2 0x128C JUMPI PUSH1 0x40 MLOAD PUSH32 0xA8088F3800000000000000000000000000000000000000000000000000000000 DUP2 MSTORE PUSH1 0x4 ADD PUSH1 0x40 MLOAD DUP1 SWAP2 SUB SWAP1 REVERT JUMPDEST PUSH2 0x12B8 PUSH1 0x5 PUSH1 0x0 SWAP1 SLOAD SWAP1 PUSH2 0x100 EXP SWAP1 DIV PUSH20 0xFFFFFFFFFFFFFFFFFFFFFFFFFFFFFFFFFFFFFFFF AND SELFBALANCE PUSH2 0x204A JUMP JUMPDEST JUMP JUMPDEST PUSH1 0x2 DUP2 JUMP JUMPDEST PUSH1 0x5 PUSH1 0x0 SWAP1 SLOAD SWAP1 PUSH2 0x100 EXP SWAP1 DIV PUSH20 0xFFFFFFFFFFFFFFFFFFFFFFFFFFFFFFFFFFFFFFFF AND DUP2 JUMP JUMPDEST PUSH1 0x60 DUP3 DUP3 SWAP1 POP DUP6 DUP6 SWAP1 POP EQ PUSH2 0x132F JUMPI PUSH1 0x40 MLOAD PUSH32 0x8C379A000000000000000000000000000000000000000000000000000000000 DUP2 MSTORE PUSH1 0x4 ADD PUSH2 0x1326 SWAP1 PUSH2 0x2CD2 JUMP JUMPDEST PUSH1 0x40 MLOAD DUP1 SWAP2 SUB SWAP1 REVERT JUMPDEST DUP5 DUP5 SWAP1 POP PUSH8 0xFFFFFFFFFFFFFFFF DUP2 GT ISZERO PUSH2 0x134C JUMPI PUSH2 0x134B PUSH2 0x2498 JUMP JUMPDEST JUMPDEST PUSH1 0x40 MLOAD SWAP1 DUP1 DUP3 MSTORE DUP1 PUSH1 0x20 MUL PUSH1 0x20 ADD DUP3 ADD PUSH1 0x40 MSTORE DUP1 ISZERO PUSH2 0x137A JUMPI DUP2 PUSH1 0x20 ADD PUSH1 0x20 DUP3 MUL DUP1 CALLDATASIZE DUP4 CALLDATACOPY DUP1 DUP3 ADD SWAP2 POP POP SWAP1 POP JUMPDEST POP SWAP1 POP PUSH1 0x0 JUMPDEST DUP6 DUP6 SWAP1 POP DUP2 LT ISZERO PUSH2 0x1445 JUMPI PUSH1 0x0 DUP1 DUP8 DUP8 DUP5 DUP2 DUP2 LT PUSH2 0x13A1 JUMPI PUSH2 0x13A0 PUSH2 0x2D5E JUMP JUMPDEST JUMPDEST SWAP1 POP PUSH1 0x20 MUL ADD PUSH1 0x20 DUP2 ADD SWAP1 PUSH2 0x13B6 SWAP2 SWAP1 PUSH2 0x261F JUMP JUMPDEST PUSH20 0xFFFFFFFFFFFFFFFFFFFFFFFFFFFFFFFFFFFFFFFF AND PUSH20 0xFFFFFFFFFFFFFFFFFFFFFFFFFFFFFFFFFFFFFFFF AND DUP2 MSTORE PUSH1 0x20 ADD SWAP1 DUP2 MSTORE PUSH1 0x20 ADD PUSH1 0x0 KECCAK256 PUSH1 0x0 DUP6 DUP6 DUP5 DUP2 DUP2 LT PUSH2 0x1405 JUMPI PUSH2 0x1404 PUSH2 0x2D5E JUMP JUMPDEST JUMPDEST SWAP1 POP PUSH1 0x20 MUL ADD CALLDATALOAD DUP2 MSTORE PUSH1 0x20 ADD SWAP1 DUP2 MSTORE PUSH1 0x20 ADD PUSH1 0x0 KECCAK256 SLOAD DUP3 DUP3 DUP2 MLOAD DUP2 LT PUSH2 0x142E JUMPI PUSH2 0x142D PUSH2 0x2D5E JUMP JUMPDEST JUMPDEST PUSH1 0x20 MUL PUSH1 0x20 ADD ADD DUP2 DUP2 MSTORE POP POP DUP1 PUSH1 0x1 ADD SWAP1 POP PUSH2 0x1380 JUMP JUMPDEST POP SWAP5 SWAP4 POP POP POP POP JUMP JUMPDEST PUSH2 0x1456 PUSH2 0x1DF6 JUMP JUMPDEST PUSH20 0xFFFFFFFFFFFFFFFFFFFFFFFFFFFFFFFFFFFFFFFF AND PUSH2 0x1474 PUSH2 0x15BA JUMP JUMPDEST PUSH20 0xFFFFFFFFFFFFFFFFFFFFFFFFFFFFFFFFFFFFFFFF AND EQ PUSH2 0x14CA JUMPI PUSH1 0x40 MLOAD PUSH32 0x8C379A000000000000000000000000000000000000000000000000000000000 DUP2 MSTORE PUSH1 0x4 ADD PUSH2 0x14C1 SWAP1 PUSH2 0x2C66 JUMP JUMPDEST PUSH1 0x40 MLOAD DUP1 SWAP2 SUB SWAP1 REVERT JUMPDEST DUP1 PUSH1 0x5 PUSH1 0x0 PUSH2 0x100 EXP DUP2 SLOAD DUP2 PUSH20 0xFFFFFFFFFFFFFFFFFFFFFFFFFFFFFFFFFFFFFFFF MUL NOT AND SWAP1 DUP4 PUSH20 0xFFFFFFFFFFFFFFFFFFFFFFFFFFFFFFFFFFFFFFFF AND MUL OR SWAP1 SSTORE POP POP JUMP JUMPDEST PUSH2 0x1516 PUSH2 0x1DF6 JUMP JUMPDEST PUSH20 0xFFFFFFFFFFFFFFFFFFFFFFFFFFFFFFFFFFFFFFFF AND PUSH2 0x1534 PUSH2 0x15BA JUMP JUMPDEST PUSH20 0xFFFFFFFFFFFFFFFFFFFFFFFFFFFFFFFFFFFFFFFF AND EQ PUSH2 0x158A JUMPI PUSH1 0x40 MLOAD PUSH32 0x8C379A000000000000000000000000000000000000000000000000000000000 DUP2 MSTORE PUSH1 0x4 ADD PUSH2 0x1581 SWAP1 PUSH2 0x2C66 JUMP JUMPDEST PUSH1 0x40 MLOAD DUP1 SWAP2 SUB SWAP1 REVERT JUMPDEST PUSH2 0x1594 PUSH1 0x0 PUSH2 0x209D JUMP JUMPDEST JUMP JUMPDEST PUSH32 0x7804D923F43A17D325D77E781528E0793B2EDD9890AB45FC64EFD7B4B427744C DUP2 JUMP JUMPDEST PUSH1 0x0 PUSH1 0x2 PUSH1 0x0 SWAP1 SLOAD SWAP1 PUSH2 0x100 EXP SWAP1 DIV PUSH20 0xFFFFFFFFFFFFFFFFFFFFFFFFFFFFFFFFFFFFFFFF AND SWAP1 POP SWAP1 JUMP JUMPDEST PUSH1 0x4 DUP1 SLOAD PUSH2 0x15F1 SWAP1 PUSH2 0x2BE8 JUMP JUMPDEST DUP1 PUSH1 0x1F ADD PUSH1 0x20 DUP1 SWAP2 DIV MUL PUSH1 0x20 ADD PUSH1 0x40 MLOAD SWAP1 DUP2 ADD PUSH1 0x40 MSTORE DUP1 SWAP3 SWAP2 SWAP1 DUP2 DUP2 MSTORE PUSH1 0x20 ADD DUP3 DUP1 SLOAD PUSH2 0x161D SWAP1 PUSH2 0x2BE8 JUMP JUMPDEST DUP1 ISZERO PUSH2 0x166A JUMPI DUP1 PUSH1 0x1F LT PUSH2 0x163F JUMPI PUSH2 0x100 DUP1 DUP4 SLOAD DIV MUL DUP4 MSTORE SWAP2 PUSH1 0x20 ADD SWAP2 PUSH2 0x166A JUMP JUMPDEST DUP3 ADD SWAP2 SWAP1 PUSH1 0x0 MSTORE PUSH1 0x20 PUSH1 0x0 KECCAK256 SWAP1 JUMPDEST DUP2 SLOAD DUP2 MSTORE SWAP1 PUSH1 0x1 ADD SWAP1 PUSH1 0x20 ADD DUP1 DUP4 GT PUSH2 0x164D JUMPI DUP3 SWAP1 SUB PUSH1 0x1F AND DUP3 ADD SWAP2 JUMPDEST POP POP POP POP POP DUP2 JUMP JUMPDEST PUSH32 0x0 DUP2 JUMP JUMPDEST PUSH1 0x8 PUSH1 0x20 MSTORE DUP1 PUSH1 0x0 MSTORE PUSH1 0x40 PUSH1 0x0 KECCAK256 PUSH1 0x0 SWAP2 POP SWAP1 POP SLOAD DUP2 JUMP JUMPDEST DUP1 PUSH1 0x1 PUSH1 0x0 CALLER PUSH20 0xFFFFFFFFFFFFFFFFFFFFFFFFFFFFFFFFFFFFFFFF AND PUSH20 0xFFFFFFFFFFFFFFFFFFFFFFFFFFFFFFFFFFFFFFFF AND DUP2 MSTORE PUSH1 0x20 ADD SWAP1 DUP2 MSTORE PUSH1 0x20 ADD PUSH1 0x0 KECCAK256 PUSH1 0x0 DUP5 PUSH20 0xFFFFFFFFFFFFFFFFFFFFFFFFFFFFFFFFFFFFFFFF AND PUSH20 0xFFFFFFFFFFFFFFFFFFFFFFFFFFFFFFFFFFFFFFFF AND DUP2 MSTORE PUSH1 0x20 ADD SWAP1 DUP2 MSTORE PUSH1 0x20 ADD PUSH1 0x0 KECCAK256 PUSH1 0x0 PUSH2 0x100 EXP DUP2 SLOAD DUP2 PUSH1 0xFF MUL NOT AND SWAP1 DUP4 ISZERO ISZERO MUL OR SWAP1 SSTORE POP DUP2 PUSH20 0xFFFFFFFFFFFFFFFFFFFFFFFFFFFFFFFFFFFFFFFF AND CALLER PUSH20 0xFFFFFFFFFFFFFFFFFFFFFFFFFFFFFFFFFFFFFFFF AND PUSH32 0x17307EAB39AB6107E8899845AD3D59BD9653F200F220920489CA2B5937696C31 DUP4 PUSH1 0x40 MLOAD PUSH2 0x179F SWAP2 SWAP1 PUSH2 0x23B8 JUMP JUMPDEST PUSH1 0x40 MLOAD DUP1 SWAP2 SUB SWAP1 LOG3 POP POP JUMP JUMPDEST PUSH32 0x0 DUP2 JUMP JUMPDEST PUSH1 0x0 PUSH1 0x6 PUSH1 0x0 DUP4 DUP2 MSTORE PUSH1 0x20 ADD SWAP1 DUP2 MSTORE PUSH1 0x20 ADD PUSH1 0x0 KECCAK256 SLOAD SWAP1 POP SWAP2 SWAP1 POP JUMP JUMPDEST PUSH1 0x7 PUSH1 0x20 MSTORE DUP1 PUSH1 0x0 MSTORE PUSH1 0x40 PUSH1 0x0 KECCAK256 PUSH1 0x0 SWAP2 POP SWAP1 POP DUP1 SLOAD PUSH2 0x180B SWAP1 PUSH2 0x2BE8 JUMP JUMPDEST DUP1 PUSH1 0x1F ADD PUSH1 0x20 DUP1 SWAP2 DIV MUL PUSH1 0x20 ADD PUSH1 0x40 MLOAD SWAP1 DUP2 ADD PUSH1 0x40 MSTORE DUP1 SWAP3 SWAP2 SWAP1 DUP2 DUP2 MSTORE PUSH1 0x20 ADD DUP3 DUP1 SLOAD PUSH2 0x1837 SWAP1 PUSH2 0x2BE8 JUMP JUMPDEST DUP1 ISZERO PUSH2 0x1884 JUMPI DUP1 PUSH1 0x1F LT PUSH2 0x1859 JUMPI PUSH2 0x100 DUP1 DUP4 SLOAD DIV MUL DUP4 MSTORE SWAP2 PUSH1 0x20 ADD SWAP2 PUSH2 0x1884 JUMP JUMPDEST DUP3 ADD SWAP2 SWAP1 PUSH1 0x0 MSTORE PUSH1 0x20 PUSH1 0x0 KECCAK256 SWAP1 JUMPDEST DUP2 SLOAD DUP2 MSTORE SWAP1 PUSH1 0x1 ADD SWAP1 PUSH1 0x20 ADD DUP1 DUP4 GT PUSH2 0x1867 JUMPI DUP3 SWAP1 SUB PUSH1 0x1F AND DUP3 ADD SWAP2 JUMPDEST POP POP POP POP POP DUP2 JUMP JUMPDEST PUSH32 0x9F2DF0FED2C77648DE5860A4CC508CD0818C85B8B8A1AB4CEEEF8D981C8956A6 DUP2 JUMP JUMPDEST PUSH32 0x65D7A28E3265B37A6474929F336521B332C1681B933F6CB9F3376673440D862A DUP2 JUMP JUMPDEST PUSH1 0x1 PUSH1 0x20 MSTORE DUP2 PUSH1 0x0 MSTORE PUSH1 0x40 PUSH1 0x0 KECCAK256 PUSH1 0x20 MSTORE DUP1 PUSH1 0x0 MSTORE PUSH1 0x40 PUSH1 0x0 KECCAK256 PUSH1 0x0 SWAP2 POP SWAP2 POP SWAP1 SLOAD SWAP1 PUSH2 0x100 EXP SWAP1 DIV PUSH1 0xFF AND DUP2 JUMP JUMPDEST PUSH32 0x0 DUP2 JUMP JUMPDEST PUSH32 0x0 DUP2 JUMP JUMPDEST DUP6 PUSH20 0xFFFFFFFFFFFFFFFFFFFFFFFFFFFFFFFFFFFFFFFF AND CALLER PUSH20 0xFFFFFFFFFFFFFFFFFFFFFFFFFFFFFFFFFFFFFFFF AND EQ DUP1 PUSH2 0x1A0B JUMPI POP PUSH1 0x1 PUSH1 0x0 DUP8 PUSH20 0xFFFFFFFFFFFFFFFFFFFFFFFFFFFFFFFFFFFFFFFF AND PUSH20 0xFFFFFFFFFFFFFFFFFFFFFFFFFFFFFFFFFFFFFFFF AND DUP2 MSTORE PUSH1 0x20 ADD SWAP1 DUP2 MSTORE PUSH1 0x20 ADD PUSH1 0x0 KECCAK256 PUSH1 0x0 CALLER PUSH20 0xFFFFFFFFFFFFFFFFFFFFFFFFFFFFFFFFFFFFFFFF AND PUSH20 0xFFFFFFFFFFFFFFFFFFFFFFFFFFFFFFFFFFFFFFFF AND DUP2 MSTORE PUSH1 0x20 ADD SWAP1 DUP2 MSTORE PUSH1 0x20 ADD PUSH1 0x0 KECCAK256 PUSH1 0x0 SWAP1 SLOAD SWAP1 PUSH2 0x100 EXP SWAP1 DIV PUSH1 0xFF AND JUMPDEST PUSH2 0x1A4A JUMPI PUSH1 0x40 MLOAD PUSH32 0x8C379A000000000000000000000000000000000000000000000000000000000 DUP2 MSTORE PUSH1 0x4 ADD PUSH2 0x1A41 SWAP1 PUSH2 0x2D3E JUMP JUMPDEST PUSH1 0x40 MLOAD DUP1 SWAP2 SUB SWAP1 REVERT JUMPDEST DUP3 PUSH1 0x0 DUP1 DUP9 PUSH20 0xFFFFFFFFFFFFFFFFFFFFFFFFFFFFFFFFFFFFFFFF AND PUSH20 0xFFFFFFFFFFFFFFFFFFFFFFFFFFFFFFFFFFFFFFFF AND DUP2 MSTORE PUSH1 0x20 ADD SWAP1 DUP2 MSTORE PUSH1 0x20 ADD PUSH1 0x0 KECCAK256 PUSH1 0x0 DUP7 DUP2 MSTORE PUSH1 0x20 ADD SWAP1 DUP2 MSTORE PUSH1 0x20 ADD PUSH1 0x0 KECCAK256 PUSH1 0x0 DUP3 DUP3 SLOAD PUSH2 0x1AA9 SWAP2 SWAP1 PUSH2 0x2DBC JUMP JUMPDEST SWAP3 POP POP DUP2 SWAP1 SSTORE POP DUP3 PUSH1 0x0 DUP1 DUP8 PUSH20 0xFFFFFFFFFFFFFFFFFFFFFFFFFFFFFFFFFFFFFFFF AND PUSH20 0xFFFFFFFFFFFFFFFFFFFFFFFFFFFFFFFFFFFFFFFF AND DUP2 MSTORE PUSH1 0x20 ADD SWAP1 DUP2 MSTORE PUSH1 0x20 ADD PUSH1 0x0 KECCAK256 PUSH1 0x0 DUP7 DUP2 MSTORE PUSH1 0x20 ADD SWAP1 DUP2 MSTORE PUSH1 0x20 ADD PUSH1 0x0 KECCAK256 PUSH1 0x0 DUP3 DUP3 SLOAD PUSH2 0x1B0F SWAP2 SWAP1 PUSH2 0x2DF0 JUMP JUMPDEST SWAP3 POP POP DUP2 SWAP1 SSTORE POP DUP5 PUSH20 0xFFFFFFFFFFFFFFFFFFFFFFFFFFFFFFFFFFFFFFFF AND DUP7 PUSH20 0xFFFFFFFFFFFFFFFFFFFFFFFFFFFFFFFFFFFFFFFF AND CALLER PUSH20 0xFFFFFFFFFFFFFFFFFFFFFFFFFFFFFFFFFFFFFFFF AND PUSH32 0xC3D58168C5AE7397731D063D5BBF3D657854427343F4C083240F7AACAA2D0F62 DUP8 DUP8 PUSH1 0x40 MLOAD PUSH2 0x1B8C SWAP3 SWAP2 SWAP1 PUSH2 0x313A JUMP JUMPDEST PUSH1 0x40 MLOAD DUP1 SWAP2 SUB SWAP1 LOG4 PUSH1 0x0 DUP6 PUSH20 0xFFFFFFFFFFFFFFFFFFFFFFFFFFFFFFFFFFFFFFFF AND EXTCODESIZE EQ PUSH2 0x1C85 JUMPI PUSH4 0xF23A6E61 PUSH1 0xE0 SHL PUSH28 0xFFFFFFFFFFFFFFFFFFFFFFFFFFFFFFFFFFFFFFFFFFFFFFFFFFFFFFFF NOT AND DUP6 PUSH20 0xFFFFFFFFFFFFFFFFFFFFFFFFFFFFFFFFFFFFFFFF AND PUSH4 0xF23A6E61 CALLER DUP10 DUP9 DUP9 DUP9 DUP9 PUSH1 0x40 MLOAD DUP8 PUSH4 0xFFFFFFFF AND PUSH1 0xE0 SHL DUP2 MSTORE PUSH1 0x4 ADD PUSH2 0x1C1D SWAP7 SWAP6 SWAP5 SWAP4 SWAP3 SWAP2 SWAP1 PUSH2 0x3163 JUMP JUMPDEST PUSH1 0x20 PUSH1 0x40 MLOAD DUP1 DUP4 SUB DUP2 PUSH1 0x0 DUP8 GAS CALL ISZERO DUP1 ISZERO PUSH2 0x1C3C JUMPI RETURNDATASIZE PUSH1 0x0 DUP1 RETURNDATACOPY RETURNDATASIZE PUSH1 0x0 REVERT JUMPDEST POP POP POP POP PUSH1 0x40 MLOAD RETURNDATASIZE PUSH1 0x1F NOT PUSH1 0x1F DUP3 ADD AND DUP3 ADD DUP1 PUSH1 0x40 MSTORE POP DUP2 ADD SWAP1 PUSH2 0x1C60 SWAP2 SWAP1 PUSH2 0x2FA3 JUMP JUMPDEST PUSH28 0xFFFFFFFFFFFFFFFFFFFFFFFFFFFFFFFFFFFFFFFFFFFFFFFFFFFFFFFF NOT AND EQ PUSH2 0x1CB7 JUMP JUMPDEST PUSH1 0x0 PUSH20 0xFFFFFFFFFFFFFFFFFFFFFFFFFFFFFFFFFFFFFFFF AND DUP6 PUSH20 0xFFFFFFFFFFFFFFFFFFFFFFFFFFFFFFFFFFFFFFFF AND EQ ISZERO JUMPDEST PUSH2 0x1CF6 JUMPI PUSH1 0x40 MLOAD PUSH32 0x8C379A000000000000000000000000000000000000000000000000000000000 DUP2 MSTORE PUSH1 0x4 ADD PUSH2 0x1CED SWAP1 PUSH2 0x301C JUMP JUMPDEST PUSH1 0x40 MLOAD DUP1 SWAP2 SUB SWAP1 REVERT JUMPDEST POP POP POP POP POP POP JUMP JUMPDEST PUSH2 0x1D06 PUSH2 0x1DF6 JUMP JUMPDEST PUSH20 0xFFFFFFFFFFFFFFFFFFFFFFFFFFFFFFFFFFFFFFFF AND PUSH2 0x1D24 PUSH2 0x15BA JUMP JUMPDEST PUSH20 0xFFFFFFFFFFFFFFFFFFFFFFFFFFFFFFFFFFFFFFFF AND EQ PUSH2 0x1D7A JUMPI PUSH1 0x40 MLOAD PUSH32 0x8C379A000000000000000000000000000000000000000000000000000000000 DUP2 MSTORE PUSH1 0x4 ADD PUSH2 0x1D71 SWAP1 PUSH2 0x2C66 JUMP JUMPDEST PUSH1 0x40 MLOAD DUP1 SWAP2 SUB SWAP1 REVERT JUMPDEST PUSH1 0x0 PUSH20 0xFFFFFFFFFFFFFFFFFFFFFFFFFFFFFFFFFFFFFFFF AND DUP2 PUSH20 0xFFFFFFFFFFFFFFFFFFFFFFFFFFFFFFFFFFFFFFFF AND EQ ISZERO PUSH2 0x1DEA JUMPI PUSH1 0x40 MLOAD PUSH32 0x8C379A000000000000000000000000000000000000000000000000000000000 DUP2 MSTORE PUSH1 0x4 ADD PUSH2 0x1DE1 SWAP1 PUSH2 0x3231 JUMP JUMPDEST PUSH1 0x40 MLOAD DUP1 SWAP2 SUB SWAP1 REVERT JUMPDEST PUSH2 0x1DF3 DUP2 PUSH2 0x209D JUMP JUMPDEST POP JUMP JUMPDEST PUSH1 0x0 CALLER SWAP1 POP SWAP1 JUMP JUMPDEST DUP2 PUSH1 0x0 DUP1 DUP7 PUSH20 0xFFFFFFFFFFFFFFFFFFFFFFFFFFFFFFFFFFFFFFFF AND PUSH20 0xFFFFFFFFFFFFFFFFFFFFFFFFFFFFFFFFFFFFFFFF AND DUP2 MSTORE PUSH1 0x20 ADD SWAP1 DUP2 MSTORE PUSH1 0x20 ADD PUSH1 0x0 KECCAK256 PUSH1 0x0 DUP6 DUP2 MSTORE PUSH1 0x20 ADD SWAP1 DUP2 MSTORE PUSH1 0x20 ADD PUSH1 0x0 KECCAK256 PUSH1 0x0 DUP3 DUP3 SLOAD PUSH2 0x1E5D SWAP2 SWAP1 PUSH2 0x2DF0 JUMP JUMPDEST SWAP3 POP POP DUP2 SWAP1 SSTORE POP DUP4 PUSH20 0xFFFFFFFFFFFFFFFFFFFFFFFFFFFFFFFFFFFFFFFF AND PUSH1 0x0 PUSH20 0xFFFFFFFFFFFFFFFFFFFFFFFFFFFFFFFFFFFFFFFF AND CALLER PUSH20 0xFFFFFFFFFFFFFFFFFFFFFFFFFFFFFFFFFFFFFFFF AND PUSH32 0xC3D58168C5AE7397731D063D5BBF3D657854427343F4C083240F7AACAA2D0F62 DUP7 DUP7 PUSH1 0x40 MLOAD PUSH2 0x1EDB SWAP3 SWAP2 SWAP1 PUSH2 0x313A JUMP JUMPDEST PUSH1 0x40 MLOAD DUP1 SWAP2 SUB SWAP1 LOG4 PUSH1 0x0 DUP5 PUSH20 0xFFFFFFFFFFFFFFFFFFFFFFFFFFFFFFFFFFFFFFFF AND EXTCODESIZE EQ PUSH2 0x1FD3 JUMPI PUSH4 0xF23A6E61 PUSH1 0xE0 SHL PUSH28 0xFFFFFFFFFFFFFFFFFFFFFFFFFFFFFFFFFFFFFFFFFFFFFFFFFFFFFFFF NOT AND DUP5 PUSH20 0xFFFFFFFFFFFFFFFFFFFFFFFFFFFFFFFFFFFFFFFF AND PUSH4 0xF23A6E61 CALLER PUSH1 0x0 DUP8 DUP8 DUP8 PUSH1 0x40 MLOAD DUP7 PUSH4 0xFFFFFFFF AND PUSH1 0xE0 SHL DUP2 MSTORE PUSH1 0x4 ADD PUSH2 0x1F6B SWAP6 SWAP5 SWAP4 SWAP3 SWAP2 SWAP1 PUSH2 0x3295 JUMP JUMPDEST PUSH1 0x20 PUSH1 0x40 MLOAD DUP1 DUP4 SUB DUP2 PUSH1 0x0 DUP8 GAS CALL ISZERO DUP1 ISZERO PUSH2 0x1F8A JUMPI RETURNDATASIZE PUSH1 0x0 DUP1 RETURNDATACOPY RETURNDATASIZE PUSH1 0x0 REVERT JUMPDEST POP POP POP POP PUSH1 0x40 MLOAD RETURNDATASIZE PUSH1 0x1F NOT PUSH1 0x1F DUP3 ADD AND DUP3 ADD DUP1 PUSH1 0x40 MSTORE POP DUP2 ADD SWAP1 PUSH2 0x1FAE SWAP2 SWAP1 PUSH2 0x2FA3 JUMP JUMPDEST PUSH28 0xFFFFFFFFFFFFFFFFFFFFFFFFFFFFFFFFFFFFFFFFFFFFFFFFFFFFFFFF NOT AND EQ PUSH2 0x2005 JUMP JUMPDEST PUSH1 0x0 PUSH20 0xFFFFFFFFFFFFFFFFFFFFFFFFFFFFFFFFFFFFFFFF AND DUP5 PUSH20 0xFFFFFFFFFFFFFFFFFFFFFFFFFFFFFFFFFFFFFFFF AND EQ ISZERO JUMPDEST PUSH2 0x2044 JUMPI PUSH1 0x40 MLOAD PUSH32 0x8C379A000000000000000000000000000000000000000000000000000000000 DUP2 MSTORE PUSH1 0x4 ADD PUSH2 0x203B SWAP1 PUSH2 0x301C JUMP JUMPDEST PUSH1 0x40 MLOAD DUP1 SWAP2 SUB SWAP1 REVERT JUMPDEST POP POP POP POP JUMP JUMPDEST PUSH1 0x0 DUP1 PUSH1 0x0 DUP1 PUSH1 0x0 DUP6 DUP8 GAS CALL SWAP1 POP DUP1 PUSH2 0x2098 JUMPI PUSH1 0x40 MLOAD PUSH32 0x8C379A000000000000000000000000000000000000000000000000000000000 DUP2 MSTORE PUSH1 0x4 ADD PUSH2 0x208F SWAP1 PUSH2 0x333B JUMP JUMPDEST PUSH1 0x40 MLOAD DUP1 SWAP2 SUB SWAP1 REVERT JUMPDEST POP POP POP JUMP JUMPDEST PUSH1 0x0 PUSH1 0x2 PUSH1 0x0 SWAP1 SLOAD SWAP1 PUSH2 0x100 EXP SWAP1 DIV PUSH20 0xFFFFFFFFFFFFFFFFFFFFFFFFFFFFFFFFFFFFFFFF AND SWAP1 POP DUP2 PUSH1 0x2 PUSH1 0x0 PUSH2 0x100 EXP DUP2 SLOAD DUP2 PUSH20 0xFFFFFFFFFFFFFFFFFFFFFFFFFFFFFFFFFFFFFFFF MUL NOT AND SWAP1 DUP4 PUSH20 0xFFFFFFFFFFFFFFFFFFFFFFFFFFFFFFFFFFFFFFFF AND MUL OR SWAP1 SSTORE POP DUP2 PUSH20 0xFFFFFFFFFFFFFFFFFFFFFFFFFFFFFFFFFFFFFFFF AND DUP2 PUSH20 0xFFFFFFFFFFFFFFFFFFFFFFFFFFFFFFFFFFFFFFFF AND PUSH32 0x8BE0079C531659141344CD1FD0A4F28419497F9722A3DAAFE3B4186F6B6457E0 PUSH1 0x40 MLOAD PUSH1 0x40 MLOAD DUP1 SWAP2 SUB SWAP1 LOG3 POP POP JUMP JUMPDEST DUP3 DUP1 SLOAD PUSH2 0x216F SWAP1 PUSH2 0x2BE8 JUMP JUMPDEST SWAP1 PUSH1 0x0 MSTORE PUSH1 0x20 PUSH1 0x0 KECCAK256 SWAP1 PUSH1 0x1F ADD PUSH1 0x20 SWAP1 DIV DUP2 ADD SWAP3 DUP3 PUSH2 0x2191 JUMPI PUSH1 0x0 DUP6 SSTORE PUSH2 0x21D8 JUMP JUMPDEST DUP3 PUSH1 0x1F LT PUSH2 0x21AA JUMPI DUP1 MLOAD PUSH1 0xFF NOT AND DUP4 DUP1 ADD OR DUP6 SSTORE PUSH2 0x21D8 JUMP JUMPDEST DUP3 DUP1 ADD PUSH1 0x1 ADD DUP6 SSTORE DUP3 ISZERO PUSH2 0x21D8 JUMPI SWAP2 DUP3 ADD JUMPDEST DUP3 DUP2 GT ISZERO PUSH2 0x21D7 JUMPI DUP3 MLOAD DUP3 SSTORE SWAP2 PUSH1 0x20 ADD SWAP2 SWAP1 PUSH1 0x1 ADD SWAP1 PUSH2 0x21BC JUMP JUMPDEST JUMPDEST POP SWAP1 POP PUSH2 0x21E5 SWAP2 SWAP1 PUSH2 0x21E9 JUMP JUMPDEST POP SWAP1 JUMP JUMPDEST JUMPDEST DUP1 DUP3 GT ISZERO PUSH2 0x2202 JUMPI PUSH1 0x0 DUP2 PUSH1 0x0 SWAP1 SSTORE POP PUSH1 0x1 ADD PUSH2 0x21EA JUMP JUMPDEST POP SWAP1 JUMP JUMPDEST PUSH1 0x0 PUSH1 0x40 MLOAD SWAP1 POP SWAP1 JUMP JUMPDEST PUSH1 0x0 DUP1 REVERT JUMPDEST PUSH1 0x0 DUP1 REVERT JUMPDEST PUSH1 0x0 PUSH20 0xFFFFFFFFFFFFFFFFFFFFFFFFFFFFFFFFFFFFFFFF DUP3 AND SWAP1 POP SWAP2 SWAP1 POP JUMP JUMPDEST PUSH1 0x0 PUSH2 0x2245 DUP3 PUSH2 0x221A JUMP JUMPDEST SWAP1 POP SWAP2 SWAP1 POP JUMP JUMPDEST PUSH2 0x2255 DUP2 PUSH2 0x223A JUMP JUMPDEST DUP2 EQ PUSH2 0x2260 JUMPI PUSH1 0x0 DUP1 REVERT JUMPDEST POP JUMP JUMPDEST PUSH1 0x0 DUP2 CALLDATALOAD SWAP1 POP PUSH2 0x2272 DUP2 PUSH2 0x224C JUMP JUMPDEST SWAP3 SWAP2 POP POP JUMP JUMPDEST PUSH1 0x0 DUP2 SWAP1 POP SWAP2 SWAP1 POP JUMP JUMPDEST PUSH2 0x228B DUP2 PUSH2 0x2278 JUMP JUMPDEST DUP2 EQ PUSH2 0x2296 JUMPI PUSH1 0x0 DUP1 REVERT JUMPDEST POP JUMP JUMPDEST PUSH1 0x0 DUP2 CALLDATALOAD SWAP1 POP PUSH2 0x22A8 DUP2 PUSH2 0x2282 JUMP JUMPDEST SWAP3 SWAP2 POP POP JUMP JUMPDEST PUSH1 0x0 DUP1 PUSH1 0x40 DUP4 DUP6 SUB SLT ISZERO PUSH2 0x22C5 JUMPI PUSH2 0x22C4 PUSH2 0x2210 JUMP JUMPDEST JUMPDEST PUSH1 0x0 PUSH2 0x22D3 DUP6 DUP3 DUP7 ADD PUSH2 0x2263 JUMP JUMPDEST SWAP3 POP POP PUSH1 0x20 PUSH2 0x22E4 DUP6 DUP3 DUP7 ADD PUSH2 0x2299 JUMP JUMPDEST SWAP2 POP POP SWAP3 POP SWAP3 SWAP1 POP JUMP JUMPDEST PUSH2 0x22F7 DUP2 PUSH2 0x2278 JUMP JUMPDEST DUP3 MSTORE POP POP JUMP JUMPDEST PUSH1 0x0 PUSH1 0x20 DUP3 ADD SWAP1 POP PUSH2 0x2312 PUSH1 0x0 DUP4 ADD DUP5 PUSH2 0x22EE JUMP JUMPDEST SWAP3 SWAP2 POP POP JUMP JUMPDEST PUSH1 0x0 PUSH32 0xFFFFFFFF00000000000000000000000000000000000000000000000000000000 DUP3 AND SWAP1 POP SWAP2 SWAP1 POP JUMP JUMPDEST PUSH2 0x234D DUP2 PUSH2 0x2318 JUMP JUMPDEST DUP2 EQ PUSH2 0x2358 JUMPI PUSH1 0x0 DUP1 REVERT JUMPDEST POP JUMP JUMPDEST PUSH1 0x0 DUP2 CALLDATALOAD SWAP1 POP PUSH2 0x236A DUP2 PUSH2 0x2344 JUMP JUMPDEST SWAP3 SWAP2 POP POP JUMP JUMPDEST PUSH1 0x0 PUSH1 0x20 DUP3 DUP5 SUB SLT ISZERO PUSH2 0x2386 JUMPI PUSH2 0x2385 PUSH2 0x2210 JUMP JUMPDEST JUMPDEST PUSH1 0x0 PUSH2 0x2394 DUP5 DUP3 DUP6 ADD PUSH2 0x235B JUMP JUMPDEST SWAP2 POP POP SWAP3 SWAP2 POP POP JUMP JUMPDEST PUSH1 0x0 DUP2 ISZERO ISZERO SWAP1 POP SWAP2 SWAP1 POP JUMP JUMPDEST PUSH2 0x23B2 DUP2 PUSH2 0x239D JUMP JUMPDEST DUP3 MSTORE POP POP JUMP JUMPDEST PUSH1 0x0 PUSH1 0x20 DUP3 ADD SWAP1 POP PUSH2 0x23CD PUSH1 0x0 DUP4 ADD DUP5 PUSH2 0x23A9 JUMP JUMPDEST SWAP3 SWAP2 POP POP JUMP JUMPDEST PUSH1 0x0 DUP2 MLOAD SWAP1 POP SWAP2 SWAP1 POP JUMP JUMPDEST PUSH1 0x0 DUP3 DUP3 MSTORE PUSH1 0x20 DUP3 ADD SWAP1 POP SWAP3 SWAP2 POP POP JUMP JUMPDEST PUSH1 0x0 JUMPDEST DUP4 DUP2 LT ISZERO PUSH2 0x240D JUMPI DUP1 DUP3 ADD MLOAD DUP2 DUP5 ADD MSTORE PUSH1 0x20 DUP2 ADD SWAP1 POP PUSH2 0x23F2 JUMP JUMPDEST DUP4 DUP2 GT ISZERO PUSH2 0x241C JUMPI PUSH1 0x0 DUP5 DUP5 ADD MSTORE JUMPDEST POP POP POP POP JUMP JUMPDEST PUSH1 0x0 PUSH1 0x1F NOT PUSH1 0x1F DUP4 ADD AND SWAP1 POP SWAP2 SWAP1 POP JUMP JUMPDEST PUSH1 0x0 PUSH2 0x243E DUP3 PUSH2 0x23D3 JUMP JUMPDEST PUSH2 0x2448 DUP2 DUP6 PUSH2 0x23DE JUMP JUMPDEST SWAP4 POP PUSH2 0x2458 DUP2 DUP6 PUSH1 0x20 DUP7 ADD PUSH2 0x23EF JUMP JUMPDEST PUSH2 0x2461 DUP2 PUSH2 0x2422 JUMP JUMPDEST DUP5 ADD SWAP2 POP POP SWAP3 SWAP2 POP POP JUMP JUMPDEST PUSH1 0x0 PUSH1 0x20 DUP3 ADD SWAP1 POP DUP2 DUP2 SUB PUSH1 0x0 DUP4 ADD MSTORE PUSH2 0x2486 DUP2 DUP5 PUSH2 0x2433 JUMP JUMPDEST SWAP1 POP SWAP3 SWAP2 POP POP JUMP JUMPDEST PUSH1 0x0 DUP1 REVERT JUMPDEST PUSH1 0x0 DUP1 REVERT JUMPDEST PUSH32 0x4E487B7100000000000000000000000000000000000000000000000000000000 PUSH1 0x0 MSTORE PUSH1 0x41 PUSH1 0x4 MSTORE PUSH1 0x24 PUSH1 0x0 REVERT JUMPDEST PUSH2 0x24D0 DUP3 PUSH2 0x2422 JUMP JUMPDEST DUP2 ADD DUP2 DUP2 LT PUSH8 0xFFFFFFFFFFFFFFFF DUP3 GT OR ISZERO PUSH2 0x24EF JUMPI PUSH2 0x24EE PUSH2 0x2498 JUMP JUMPDEST JUMPDEST DUP1 PUSH1 0x40 MSTORE POP POP POP JUMP JUMPDEST PUSH1 0x0 PUSH2 0x2502 PUSH2 0x2206 JUMP JUMPDEST SWAP1 POP PUSH2 0x250E DUP3 DUP3 PUSH2 0x24C7 JUMP JUMPDEST SWAP2 SWAP1 POP JUMP JUMPDEST PUSH1 0x0 PUSH8 0xFFFFFFFFFFFFFFFF DUP3 GT ISZERO PUSH2 0x252E JUMPI PUSH2 0x252D PUSH2 0x2498 JUMP JUMPDEST JUMPDEST PUSH2 0x2537 DUP3 PUSH2 0x2422 JUMP JUMPDEST SWAP1 POP PUSH1 0x20 DUP2 ADD SWAP1 POP SWAP2 SWAP1 POP JUMP JUMPDEST DUP3 DUP2 DUP4 CALLDATACOPY PUSH1 0x0 DUP4 DUP4 ADD MSTORE POP POP POP JUMP JUMPDEST PUSH1 0x0 PUSH2 0x2566 PUSH2 0x2561 DUP5 PUSH2 0x2513 JUMP JUMPDEST PUSH2 0x24F8 JUMP JUMPDEST SWAP1 POP DUP3 DUP2 MSTORE PUSH1 0x20 DUP2 ADD DUP5 DUP5 DUP5 ADD GT ISZERO PUSH2 0x2582 JUMPI PUSH2 0x2581 PUSH2 0x2493 JUMP JUMPDEST JUMPDEST PUSH2 0x258D DUP5 DUP3 DUP6 PUSH2 0x2544 JUMP JUMPDEST POP SWAP4 SWAP3 POP POP POP JUMP JUMPDEST PUSH1 0x0 DUP3 PUSH1 0x1F DUP4 ADD SLT PUSH2 0x25AA JUMPI PUSH2 0x25A9 PUSH2 0x248E JUMP JUMPDEST JUMPDEST DUP2 CALLDATALOAD PUSH2 0x25BA DUP5 DUP3 PUSH1 0x20 DUP7 ADD PUSH2 0x2553 JUMP JUMPDEST SWAP2 POP POP SWAP3 SWAP2 POP POP JUMP JUMPDEST PUSH1 0x0 DUP1 PUSH1 0x40 DUP4 DUP6 SUB SLT ISZERO PUSH2 0x25DA JUMPI PUSH2 0x25D9 PUSH2 0x2210 JUMP JUMPDEST JUMPDEST PUSH1 0x0 DUP4 ADD CALLDATALOAD PUSH8 0xFFFFFFFFFFFFFFFF DUP2 GT ISZERO PUSH2 0x25F8 JUMPI PUSH2 0x25F7 PUSH2 0x2215 JUMP JUMPDEST JUMPDEST PUSH2 0x2604 DUP6 DUP3 DUP7 ADD PUSH2 0x2595 JUMP JUMPDEST SWAP3 POP POP PUSH1 0x20 PUSH2 0x2615 DUP6 DUP3 DUP7 ADD PUSH2 0x2299 JUMP JUMPDEST SWAP2 POP POP SWAP3 POP SWAP3 SWAP1 POP JUMP JUMPDEST PUSH1 0x0 PUSH1 0x20 DUP3 DUP5 SUB SLT ISZERO PUSH2 0x2635 JUMPI PUSH2 0x2634 PUSH2 0x2210 JUMP JUMPDEST JUMPDEST PUSH1 0x0 PUSH2 0x2643 DUP5 DUP3 DUP6 ADD PUSH2 0x2263 JUMP JUMPDEST SWAP2 POP POP SWAP3 SWAP2 POP POP JUMP JUMPDEST PUSH1 0x0 PUSH1 0x20 DUP3 DUP5 SUB SLT ISZERO PUSH2 0x2662 JUMPI PUSH2 0x2661 PUSH2 0x2210 JUMP JUMPDEST JUMPDEST PUSH1 0x0 PUSH2 0x2670 DUP5 DUP3 DUP6 ADD PUSH2 0x2299 JUMP JUMPDEST SWAP2 POP POP SWAP3 SWAP2 POP POP JUMP JUMPDEST PUSH1 0x0 DUP1 REVERT JUMPDEST PUSH1 0x0 DUP1 REVERT JUMPDEST PUSH1 0x0 DUP1 DUP4 PUSH1 0x1F DUP5 ADD SLT PUSH2 0x2699 JUMPI PUSH2 0x2698 PUSH2 0x248E JUMP JUMPDEST JUMPDEST DUP3 CALLDATALOAD SWAP1 POP PUSH8 0xFFFFFFFFFFFFFFFF DUP2 GT ISZERO PUSH2 0x26B6 JUMPI PUSH2 0x26B5 PUSH2 0x2679 JUMP JUMPDEST JUMPDEST PUSH1 0x20 DUP4 ADD SWAP2 POP DUP4 PUSH1 0x20 DUP3 MUL DUP4 ADD GT ISZERO PUSH2 0x26D2 JUMPI PUSH2 0x26D1 PUSH2 0x267E JUMP JUMPDEST JUMPDEST SWAP3 POP SWAP3 SWAP1 POP JUMP JUMPDEST PUSH1 0x0 DUP1 DUP4 PUSH1 0x1F DUP5 ADD SLT PUSH2 0x26EF JUMPI PUSH2 0x26EE PUSH2 0x248E JUMP JUMPDEST JUMPDEST DUP3 CALLDATALOAD SWAP1 POP PUSH8 0xFFFFFFFFFFFFFFFF DUP2 GT ISZERO PUSH2 0x270C JUMPI PUSH2 0x270B PUSH2 0x2679 JUMP JUMPDEST JUMPDEST PUSH1 0x20 DUP4 ADD SWAP2 POP DUP4 PUSH1 0x1 DUP3 MUL DUP4 ADD GT ISZERO PUSH2 0x2728 JUMPI PUSH2 0x2727 PUSH2 0x267E JUMP JUMPDEST JUMPDEST SWAP3 POP SWAP3 SWAP1 POP JUMP JUMPDEST PUSH1 0x0 DUP1 PUSH1 0x0 DUP1 PUSH1 0x0 DUP1 PUSH1 0x0 DUP1 PUSH1 0xA0 DUP10 DUP12 SUB SLT ISZERO PUSH2 0x274F JUMPI PUSH2 0x274E PUSH2 0x2210 JUMP JUMPDEST JUMPDEST PUSH1 0x0 PUSH2 0x275D DUP12 DUP3 DUP13 ADD PUSH2 0x2263 JUMP JUMPDEST SWAP9 POP POP PUSH1 0x20 PUSH2 0x276E DUP12 DUP3 DUP13 ADD PUSH2 0x2263 JUMP JUMPDEST SWAP8 POP POP PUSH1 0x40 DUP10 ADD CALLDATALOAD PUSH8 0xFFFFFFFFFFFFFFFF DUP2 GT ISZERO PUSH2 0x278F JUMPI PUSH2 0x278E PUSH2 0x2215 JUMP JUMPDEST JUMPDEST PUSH2 0x279B DUP12 DUP3 DUP13 ADD PUSH2 0x2683 JUMP JUMPDEST SWAP7 POP SWAP7 POP POP PUSH1 0x60 DUP10 ADD CALLDATALOAD PUSH8 0xFFFFFFFFFFFFFFFF DUP2 GT ISZERO PUSH2 0x27BE JUMPI PUSH2 0x27BD PUSH2 0x2215 JUMP JUMPDEST JUMPDEST PUSH2 0x27CA DUP12 DUP3 DUP13 ADD PUSH2 0x2683 JUMP JUMPDEST SWAP5 POP SWAP5 POP POP PUSH1 0x80 DUP10 ADD CALLDATALOAD PUSH8 0xFFFFFFFFFFFFFFFF DUP2 GT ISZERO PUSH2 0x27ED JUMPI PUSH2 0x27EC PUSH2 0x2215 JUMP JUMPDEST JUMPDEST PUSH2 0x27F9 DUP12 DUP3 DUP13 ADD PUSH2 0x26D9 JUMP JUMPDEST SWAP3 POP SWAP3 POP POP SWAP3 SWAP6 SWAP9 POP SWAP3 SWAP6 SWAP9 SWAP1 SWAP4 SWAP7 POP JUMP JUMPDEST PUSH1 0x0 DUP1 PUSH1 0x0 PUSH1 0x60 DUP5 DUP7 SUB SLT ISZERO PUSH2 0x2824 JUMPI PUSH2 0x2823 PUSH2 0x2210 JUMP JUMPDEST JUMPDEST PUSH1 0x0 PUSH2 0x2832 DUP7 DUP3 DUP8 ADD PUSH2 0x2263 JUMP JUMPDEST SWAP4 POP POP PUSH1 0x20 PUSH2 0x2843 DUP7 DUP3 DUP8 ADD PUSH2 0x2299 JUMP JUMPDEST SWAP3 POP POP PUSH1 0x40 PUSH2 0x2854 DUP7 DUP3 DUP8 ADD PUSH2 0x2299 JUMP JUMPDEST SWAP2 POP POP SWAP3 POP SWAP3 POP SWAP3 JUMP JUMPDEST PUSH2 0x2867 DUP2 PUSH2 0x223A JUMP JUMPDEST DUP3 MSTORE POP POP JUMP JUMPDEST PUSH1 0x0 PUSH1 0x20 DUP3 ADD SWAP1 POP PUSH2 0x2882 PUSH1 0x0 DUP4 ADD DUP5 PUSH2 0x285E JUMP JUMPDEST SWAP3 SWAP2 POP POP JUMP JUMPDEST PUSH1 0x0 DUP1 DUP4 PUSH1 0x1F DUP5 ADD SLT PUSH2 0x289E JUMPI PUSH2 0x289D PUSH2 0x248E JUMP JUMPDEST JUMPDEST DUP3 CALLDATALOAD SWAP1 POP PUSH8 0xFFFFFFFFFFFFFFFF DUP2 GT ISZERO PUSH2 0x28BB JUMPI PUSH2 0x28BA PUSH2 0x2679 JUMP JUMPDEST JUMPDEST PUSH1 0x20 DUP4 ADD SWAP2 POP DUP4 PUSH1 0x20 DUP3 MUL DUP4 ADD GT ISZERO PUSH2 0x28D7 JUMPI PUSH2 0x28D6 PUSH2 0x267E JUMP JUMPDEST JUMPDEST SWAP3 POP SWAP3 SWAP1 POP JUMP JUMPDEST PUSH1 0x0 DUP1 PUSH1 0x0 DUP1 PUSH1 0x40 DUP6 DUP8 SUB SLT ISZERO PUSH2 0x28F8 JUMPI PUSH2 0x28F7 PUSH2 0x2210 JUMP JUMPDEST JUMPDEST PUSH1 0x0 DUP6 ADD CALLDATALOAD PUSH8 0xFFFFFFFFFFFFFFFF DUP2 GT ISZERO PUSH2 0x2916 JUMPI PUSH2 0x2915 PUSH2 0x2215 JUMP JUMPDEST JUMPDEST PUSH2 0x2922 DUP8 DUP3 DUP9 ADD PUSH2 0x2888 JUMP JUMPDEST SWAP5 POP SWAP5 POP POP PUSH1 0x20 DUP6 ADD CALLDATALOAD PUSH8 0xFFFFFFFFFFFFFFFF DUP2 GT ISZERO PUSH2 0x2945 JUMPI PUSH2 0x2944 PUSH2 0x2215 JUMP JUMPDEST JUMPDEST PUSH2 0x2951 DUP8 DUP3 DUP9 ADD PUSH2 0x2683 JUMP JUMPDEST SWAP3 POP SWAP3 POP POP SWAP3 SWAP6 SWAP2 SWAP5 POP SWAP3 POP JUMP JUMPDEST PUSH1 0x0 DUP2 MLOAD SWAP1 POP SWAP2 SWAP1 POP JUMP JUMPDEST PUSH1 0x0 DUP3 DUP3 MSTORE PUSH1 0x20 DUP3 ADD SWAP1 POP SWAP3 SWAP2 POP POP JUMP JUMPDEST PUSH1 0x0 DUP2 SWAP1 POP PUSH1 0x20 DUP3 ADD SWAP1 POP SWAP2 SWAP1 POP JUMP JUMPDEST PUSH2 0x2994 DUP2 PUSH2 0x2278 JUMP JUMPDEST DUP3 MSTORE POP POP JUMP JUMPDEST PUSH1 0x0 PUSH2 0x29A6 DUP4 DUP4 PUSH2 0x298B JUMP JUMPDEST PUSH1 0x20 DUP4 ADD SWAP1 POP SWAP3 SWAP2 POP POP JUMP JUMPDEST PUSH1 0x0 PUSH1 0x20 DUP3 ADD SWAP1 POP SWAP2 SWAP1 POP JUMP JUMPDEST PUSH1 0x0 PUSH2 0x29CA DUP3 PUSH2 0x295F JUMP JUMPDEST PUSH2 0x29D4 DUP2 DUP6 PUSH2 0x296A JUMP JUMPDEST SWAP4 POP PUSH2 0x29DF DUP4 PUSH2 0x297B JUMP JUMPDEST DUP1 PUSH1 0x0 JUMPDEST DUP4 DUP2 LT ISZERO PUSH2 0x2A10 JUMPI DUP2 MLOAD PUSH2 0x29F7 DUP9 DUP3 PUSH2 0x299A JUMP JUMPDEST SWAP8 POP PUSH2 0x2A02 DUP4 PUSH2 0x29B2 JUMP JUMPDEST SWAP3 POP POP PUSH1 0x1 DUP2 ADD SWAP1 POP PUSH2 0x29E3 JUMP JUMPDEST POP DUP6 SWAP4 POP POP POP POP SWAP3 SWAP2 POP POP JUMP JUMPDEST PUSH1 0x0 PUSH1 0x20 DUP3 ADD SWAP1 POP DUP2 DUP2 SUB PUSH1 0x0 DUP4 ADD MSTORE PUSH2 0x2A37 DUP2 DUP5 PUSH2 0x29BF JUMP JUMPDEST SWAP1 POP SWAP3 SWAP2 POP POP JUMP JUMPDEST PUSH1 0x0 DUP2 SWAP1 POP SWAP2 SWAP1 POP JUMP JUMPDEST PUSH2 0x2A52 DUP2 PUSH2 0x2A3F JUMP JUMPDEST DUP3 MSTORE POP POP JUMP JUMPDEST PUSH1 0x0 PUSH1 0x20 DUP3 ADD SWAP1 POP PUSH2 0x2A6D PUSH1 0x0 DUP4 ADD DUP5 PUSH2 0x2A49 JUMP JUMPDEST SWAP3 SWAP2 POP POP JUMP JUMPDEST PUSH2 0x2A7C DUP2 PUSH2 0x239D JUMP JUMPDEST DUP2 EQ PUSH2 0x2A87 JUMPI PUSH1 0x0 DUP1 REVERT JUMPDEST POP JUMP JUMPDEST PUSH1 0x0 DUP2 CALLDATALOAD SWAP1 POP PUSH2 0x2A99 DUP2 PUSH2 0x2A73 JUMP JUMPDEST SWAP3 SWAP2 POP POP JUMP JUMPDEST PUSH1 0x0 DUP1 PUSH1 0x40 DUP4 DUP6 SUB SLT ISZERO PUSH2 0x2AB6 JUMPI PUSH2 0x2AB5 PUSH2 0x2210 JUMP JUMPDEST JUMPDEST PUSH1 0x0 PUSH2 0x2AC4 DUP6 DUP3 DUP7 ADD PUSH2 0x2263 JUMP JUMPDEST SWAP3 POP POP PUSH1 0x20 PUSH2 0x2AD5 DUP6 DUP3 DUP7 ADD PUSH2 0x2A8A JUMP JUMPDEST SWAP2 POP POP SWAP3 POP SWAP3 SWAP1 POP JUMP JUMPDEST PUSH1 0x0 DUP1 PUSH1 0x40 DUP4 DUP6 SUB SLT ISZERO PUSH2 0x2AF6 JUMPI PUSH2 0x2AF5 PUSH2 0x2210 JUMP JUMPDEST JUMPDEST PUSH1 0x0 PUSH2 0x2B04 DUP6 DUP3 DUP7 ADD PUSH2 0x2263 JUMP JUMPDEST SWAP3 POP POP PUSH1 0x20 PUSH2 0x2B15 DUP6 DUP3 DUP7 ADD PUSH2 0x2263 JUMP JUMPDEST SWAP2 POP POP SWAP3 POP SWAP3 SWAP1 POP JUMP JUMPDEST PUSH1 0x0 DUP1 PUSH1 0x0 DUP1 PUSH1 0x0 DUP1 PUSH1 0xA0 DUP8 DUP10 SUB SLT ISZERO PUSH2 0x2B3C JUMPI PUSH2 0x2B3B PUSH2 0x2210 JUMP JUMPDEST JUMPDEST PUSH1 0x0 PUSH2 0x2B4A DUP10 DUP3 DUP11 ADD PUSH2 0x2263 JUMP JUMPDEST SWAP7 POP POP PUSH1 0x20 PUSH2 0x2B5B DUP10 DUP3 DUP11 ADD PUSH2 0x2263 JUMP JUMPDEST SWAP6 POP POP PUSH1 0x40 PUSH2 0x2B6C DUP10 DUP3 DUP11 ADD PUSH2 0x2299 JUMP JUMPDEST SWAP5 POP POP PUSH1 0x60 PUSH2 0x2B7D DUP10 DUP3 DUP11 ADD PUSH2 0x2299 JUMP JUMPDEST SWAP4 POP POP PUSH1 0x80 DUP8 ADD CALLDATALOAD PUSH8 0xFFFFFFFFFFFFFFFF DUP2 GT ISZERO PUSH2 0x2B9E JUMPI PUSH2 0x2B9D PUSH2 0x2215 JUMP JUMPDEST JUMPDEST PUSH2 0x2BAA DUP10 DUP3 DUP11 ADD PUSH2 0x26D9 JUMP JUMPDEST SWAP3 POP SWAP3 POP POP SWAP3 SWAP6 POP SWAP3 SWAP6 POP SWAP3 SWAP6 JUMP JUMPDEST PUSH32 0x4E487B7100000000000000000000000000000000000000000000000000000000 PUSH1 0x0 MSTORE PUSH1 0x22 PUSH1 0x4 MSTORE PUSH1 0x24 PUSH1 0x0 REVERT JUMPDEST PUSH1 0x0 PUSH1 0x2 DUP3 DIV SWAP1 POP PUSH1 0x1 DUP3 AND DUP1 PUSH2 0x2C00 JUMPI PUSH1 0x7F DUP3 AND SWAP2 POP JUMPDEST PUSH1 0x20 DUP3 LT DUP2 EQ ISZERO PUSH2 0x2C14 JUMPI PUSH2 0x2C13 PUSH2 0x2BB9 JUMP JUMPDEST JUMPDEST POP SWAP2 SWAP1 POP JUMP JUMPDEST PUSH32 0x4F776E61626C653A2063616C6C6572206973206E6F7420746865206F776E6572 PUSH1 0x0 DUP3 ADD MSTORE POP JUMP JUMPDEST PUSH1 0x0 PUSH2 0x2C50 PUSH1 0x20 DUP4 PUSH2 0x23DE JUMP JUMPDEST SWAP2 POP PUSH2 0x2C5B DUP3 PUSH2 0x2C1A JUMP JUMPDEST PUSH1 0x20 DUP3 ADD SWAP1 POP SWAP2 SWAP1 POP JUMP JUMPDEST PUSH1 0x0 PUSH1 0x20 DUP3 ADD SWAP1 POP DUP2 DUP2 SUB PUSH1 0x0 DUP4 ADD MSTORE PUSH2 0x2C7F DUP2 PUSH2 0x2C43 JUMP JUMPDEST SWAP1 POP SWAP2 SWAP1 POP JUMP JUMPDEST PUSH32 0x4C454E4754485F4D49534D415443480000000000000000000000000000000000 PUSH1 0x0 DUP3 ADD MSTORE POP JUMP JUMPDEST PUSH1 0x0 PUSH2 0x2CBC PUSH1 0xF DUP4 PUSH2 0x23DE JUMP JUMPDEST SWAP2 POP PUSH2 0x2CC7 DUP3 PUSH2 0x2C86 JUMP JUMPDEST PUSH1 0x20 DUP3 ADD SWAP1 POP SWAP2 SWAP1 POP JUMP JUMPDEST PUSH1 0x0 PUSH1 0x20 DUP3 ADD SWAP1 POP DUP2 DUP2 SUB PUSH1 0x0 DUP4 ADD MSTORE PUSH2 0x2CEB DUP2 PUSH2 0x2CAF JUMP JUMPDEST SWAP1 POP SWAP2 SWAP1 POP JUMP JUMPDEST PUSH32 0x4E4F545F415554484F52495A4544000000000000000000000000000000000000 PUSH1 0x0 DUP3 ADD MSTORE POP JUMP JUMPDEST PUSH1 0x0 PUSH2 0x2D28 PUSH1 0xE DUP4 PUSH2 0x23DE JUMP JUMPDEST SWAP2 POP PUSH2 0x2D33 DUP3 PUSH2 0x2CF2 JUMP JUMPDEST PUSH1 0x20 DUP3 ADD SWAP1 POP SWAP2 SWAP1 POP JUMP JUMPDEST PUSH1 0x0 PUSH1 0x20 DUP3 ADD SWAP1 POP DUP2 DUP2 SUB PUSH1 0x0 DUP4 ADD MSTORE PUSH2 0x2D57 DUP2 PUSH2 0x2D1B JUMP JUMPDEST SWAP1 POP SWAP2 SWAP1 POP JUMP JUMPDEST PUSH32 0x4E487B7100000000000000000000000000000000000000000000000000000000 PUSH1 0x0 MSTORE PUSH1 0x32 PUSH1 0x4 MSTORE PUSH1 0x24 PUSH1 0x0 REVERT JUMPDEST PUSH32 0x4E487B7100000000000000000000000000000000000000000000000000000000 PUSH1 0x0 MSTORE PUSH1 0x11 PUSH1 0x4 MSTORE PUSH1 0x24 PUSH1 0x0 REVERT JUMPDEST PUSH1 0x0 PUSH2 0x2DC7 DUP3 PUSH2 0x2278 JUMP JUMPDEST SWAP2 POP PUSH2 0x2DD2 DUP4 PUSH2 0x2278 JUMP JUMPDEST SWAP3 POP DUP3 DUP3 LT ISZERO PUSH2 0x2DE5 JUMPI PUSH2 0x2DE4 PUSH2 0x2D8D JUMP JUMPDEST JUMPDEST DUP3 DUP3 SUB SWAP1 POP SWAP3 SWAP2 POP POP JUMP JUMPDEST PUSH1 0x0 PUSH2 0x2DFB DUP3 PUSH2 0x2278 JUMP JUMPDEST SWAP2 POP PUSH2 0x2E06 DUP4 PUSH2 0x2278 JUMP JUMPDEST SWAP3 POP DUP3 PUSH32 0xFFFFFFFFFFFFFFFFFFFFFFFFFFFFFFFFFFFFFFFFFFFFFFFFFFFFFFFFFFFFFFFF SUB DUP3 GT ISZERO PUSH2 0x2E3B JUMPI PUSH2 0x2E3A PUSH2 0x2D8D JUMP JUMPDEST JUMPDEST DUP3 DUP3 ADD SWAP1 POP SWAP3 SWAP2 POP POP JUMP JUMPDEST PUSH1 0x0 DUP1 REVERT JUMPDEST PUSH1 0x0 PUSH2 0x2E57 DUP4 DUP6 PUSH2 0x296A JUMP JUMPDEST SWAP4 POP PUSH32 0x7FFFFFFFFFFFFFFFFFFFFFFFFFFFFFFFFFFFFFFFFFFFFFFFFFFFFFFFFFFFFFF DUP4 GT ISZERO PUSH2 0x2E8A JUMPI PUSH2 0x2E89 PUSH2 0x2E46 JUMP JUMPDEST JUMPDEST PUSH1 0x20 DUP4 MUL SWAP3 POP PUSH2 0x2E9B DUP4 DUP6 DUP5 PUSH2 0x2544 JUMP JUMPDEST DUP3 DUP5 ADD SWAP1 POP SWAP4 SWAP3 POP POP POP JUMP JUMPDEST PUSH1 0x0 PUSH1 0x40 DUP3 ADD SWAP1 POP DUP2 DUP2 SUB PUSH1 0x0 DUP4 ADD MSTORE PUSH2 0x2EC2 DUP2 DUP7 DUP9 PUSH2 0x2E4B JUMP JUMPDEST SWAP1 POP DUP2 DUP2 SUB PUSH1 0x20 DUP4 ADD MSTORE PUSH2 0x2ED7 DUP2 DUP5 DUP7 PUSH2 0x2E4B JUMP JUMPDEST SWAP1 POP SWAP6 SWAP5 POP POP POP POP POP JUMP JUMPDEST PUSH1 0x0 DUP3 DUP3 MSTORE PUSH1 0x20 DUP3 ADD SWAP1 POP SWAP3 SWAP2 POP POP JUMP JUMPDEST PUSH1 0x0 PUSH2 0x2EFF DUP4 DUP6 PUSH2 0x2EE2 JUMP JUMPDEST SWAP4 POP PUSH2 0x2F0C DUP4 DUP6 DUP5 PUSH2 0x2544 JUMP JUMPDEST PUSH2 0x2F15 DUP4 PUSH2 0x2422 JUMP JUMPDEST DUP5 ADD SWAP1 POP SWAP4 SWAP3 POP POP POP JUMP JUMPDEST PUSH1 0x0 PUSH1 0xA0 DUP3 ADD SWAP1 POP PUSH2 0x2F35 PUSH1 0x0 DUP4 ADD DUP12 PUSH2 0x285E JUMP JUMPDEST PUSH2 0x2F42 PUSH1 0x20 DUP4 ADD DUP11 PUSH2 0x285E JUMP JUMPDEST DUP2 DUP2 SUB PUSH1 0x40 DUP4 ADD MSTORE PUSH2 0x2F55 DUP2 DUP9 DUP11 PUSH2 0x2E4B JUMP JUMPDEST SWAP1 POP DUP2 DUP2 SUB PUSH1 0x60 DUP4 ADD MSTORE PUSH2 0x2F6A DUP2 DUP7 DUP9 PUSH2 0x2E4B JUMP JUMPDEST SWAP1 POP DUP2 DUP2 SUB PUSH1 0x80 DUP4 ADD MSTORE PUSH2 0x2F7F DUP2 DUP5 DUP7 PUSH2 0x2EF3 JUMP JUMPDEST SWAP1 POP SWAP10 SWAP9 POP POP POP POP POP POP POP POP POP JUMP JUMPDEST PUSH1 0x0 DUP2 MLOAD SWAP1 POP PUSH2 0x2F9D DUP2 PUSH2 0x2344 JUMP JUMPDEST SWAP3 SWAP2 POP POP JUMP JUMPDEST PUSH1 0x0 PUSH1 0x20 DUP3 DUP5 SUB SLT ISZERO PUSH2 0x2FB9 JUMPI PUSH2 0x2FB8 PUSH2 0x2210 JUMP JUMPDEST JUMPDEST PUSH1 0x0 PUSH2 0x2FC7 DUP5 DUP3 DUP6 ADD PUSH2 0x2F8E JUMP JUMPDEST SWAP2 POP POP SWAP3 SWAP2 POP POP JUMP JUMPDEST PUSH32 0x554E534146455F524543495049454E5400000000000000000000000000000000 PUSH1 0x0 DUP3 ADD MSTORE POP JUMP JUMPDEST PUSH1 0x0 PUSH2 0x3006 PUSH1 0x10 DUP4 PUSH2 0x23DE JUMP JUMPDEST SWAP2 POP PUSH2 0x3011 DUP3 PUSH2 0x2FD0 JUMP JUMPDEST PUSH1 0x20 DUP3 ADD SWAP1 POP SWAP2 SWAP1 POP JUMP JUMPDEST PUSH1 0x0 PUSH1 0x20 DUP3 ADD SWAP1 POP DUP2 DUP2 SUB PUSH1 0x0 DUP4 ADD MSTORE PUSH2 0x3035 DUP2 PUSH2 0x2FF9 JUMP JUMPDEST SWAP1 POP SWAP2 SWAP1 POP JUMP JUMPDEST PUSH32 0x434343323A204E6F6E6578697374656E7420746F6B656E2049442E0000000000 PUSH1 0x0 DUP3 ADD MSTORE POP JUMP JUMPDEST PUSH1 0x0 PUSH2 0x3072 PUSH1 0x1B DUP4 PUSH2 0x23DE JUMP JUMPDEST SWAP2 POP PUSH2 0x307D DUP3 PUSH2 0x303C JUMP JUMPDEST PUSH1 0x20 DUP3 ADD SWAP1 POP SWAP2 SWAP1 POP JUMP JUMPDEST PUSH1 0x0 PUSH1 0x20 DUP3 ADD SWAP1 POP DUP2 DUP2 SUB PUSH1 0x0 DUP4 ADD MSTORE PUSH2 0x30A1 DUP2 PUSH2 0x3065 JUMP JUMPDEST SWAP1 POP SWAP2 SWAP1 POP JUMP JUMPDEST PUSH32 0x434343323A20416D6F756E74206973206C6172676572207468616E20746F7461 PUSH1 0x0 DUP3 ADD MSTORE PUSH32 0x6C537570706C792E000000000000000000000000000000000000000000000000 PUSH1 0x20 DUP3 ADD MSTORE POP JUMP JUMPDEST PUSH1 0x0 PUSH2 0x3104 PUSH1 0x28 DUP4 PUSH2 0x23DE JUMP JUMPDEST SWAP2 POP PUSH2 0x310F DUP3 PUSH2 0x30A8 JUMP JUMPDEST PUSH1 0x40 DUP3 ADD SWAP1 POP SWAP2 SWAP1 POP JUMP JUMPDEST PUSH1 0x0 PUSH1 0x20 DUP3 ADD SWAP1 POP DUP2 DUP2 SUB PUSH1 0x0 DUP4 ADD MSTORE PUSH2 0x3133 DUP2 PUSH2 0x30F7 JUMP JUMPDEST SWAP1 POP SWAP2 SWAP1 POP JUMP JUMPDEST PUSH1 0x0 PUSH1 0x40 DUP3 ADD SWAP1 POP PUSH2 0x314F PUSH1 0x0 DUP4 ADD DUP6 PUSH2 0x22EE JUMP JUMPDEST PUSH2 0x315C PUSH1 0x20 DUP4 ADD DUP5 PUSH2 0x22EE JUMP JUMPDEST SWAP4 SWAP3 POP POP POP JUMP JUMPDEST PUSH1 0x0 PUSH1 0xA0 DUP3 ADD SWAP1 POP PUSH2 0x3178 PUSH1 0x0 DUP4 ADD DUP10 PUSH2 0x285E JUMP JUMPDEST PUSH2 0x3185 PUSH1 0x20 DUP4 ADD DUP9 PUSH2 0x285E JUMP JUMPDEST PUSH2 0x3192 PUSH1 0x40 DUP4 ADD DUP8 PUSH2 0x22EE JUMP JUMPDEST PUSH2 0x319F PUSH1 0x60 DUP4 ADD DUP7 PUSH2 0x22EE JUMP JUMPDEST DUP2 DUP2 SUB PUSH1 0x80 DUP4 ADD MSTORE PUSH2 0x31B2 DUP2 DUP5 DUP7 PUSH2 0x2EF3 JUMP JUMPDEST SWAP1 POP SWAP8 SWAP7 POP POP POP POP POP POP POP JUMP JUMPDEST PUSH32 0x4F776E61626C653A206E6577206F776E657220697320746865207A65726F2061 PUSH1 0x0 DUP3 ADD MSTORE PUSH32 0x6464726573730000000000000000000000000000000000000000000000000000 PUSH1 0x20 DUP3 ADD MSTORE POP JUMP JUMPDEST PUSH1 0x0 PUSH2 0x321B PUSH1 0x26 DUP4 PUSH2 0x23DE JUMP JUMPDEST SWAP2 POP PUSH2 0x3226 DUP3 PUSH2 0x31BF JUMP JUMPDEST PUSH1 0x40 DUP3 ADD SWAP1 POP SWAP2 SWAP1 POP JUMP JUMPDEST PUSH1 0x0 PUSH1 0x20 DUP3 ADD SWAP1 POP DUP2 DUP2 SUB PUSH1 0x0 DUP4 ADD MSTORE PUSH2 0x324A DUP2 PUSH2 0x320E JUMP JUMPDEST SWAP1 POP SWAP2 SWAP1 POP JUMP JUMPDEST PUSH1 0x0 DUP2 MLOAD SWAP1 POP SWAP2 SWAP1 POP JUMP JUMPDEST PUSH1 0x0 PUSH2 0x3267 DUP3 PUSH2 0x3251 JUMP JUMPDEST PUSH2 0x3271 DUP2 DUP6 PUSH2 0x2EE2 JUMP JUMPDEST SWAP4 POP PUSH2 0x3281 DUP2 DUP6 PUSH1 0x20 DUP7 ADD PUSH2 0x23EF JUMP JUMPDEST PUSH2 0x328A DUP2 PUSH2 0x2422 JUMP JUMPDEST DUP5 ADD SWAP2 POP POP SWAP3 SWAP2 POP POP JUMP JUMPDEST PUSH1 0x0 PUSH1 0xA0 DUP3 ADD SWAP1 POP PUSH2 0x32AA PUSH1 0x0 DUP4 ADD DUP9 PUSH2 0x285E JUMP JUMPDEST PUSH2 0x32B7 PUSH1 0x20 DUP4 ADD DUP8 PUSH2 0x285E JUMP JUMPDEST PUSH2 0x32C4 PUSH1 0x40 DUP4 ADD DUP7 PUSH2 0x22EE JUMP JUMPDEST PUSH2 0x32D1 PUSH1 0x60 DUP4 ADD DUP6 PUSH2 0x22EE JUMP JUMPDEST DUP2 DUP2 SUB PUSH1 0x80 DUP4 ADD MSTORE PUSH2 0x32E3 DUP2 DUP5 PUSH2 0x325C JUMP JUMPDEST SWAP1 POP SWAP7 SWAP6 POP POP POP POP POP POP JUMP JUMPDEST PUSH32 0x4554485F5452414E534645525F4641494C454400000000000000000000000000 PUSH1 0x0 DUP3 ADD MSTORE POP JUMP JUMPDEST PUSH1 0x0 PUSH2 0x3325 PUSH1 0x13 DUP4 PUSH2 0x23DE JUMP JUMPDEST SWAP2 POP PUSH2 0x3330 DUP3 PUSH2 0x32EF JUMP JUMPDEST PUSH1 0x20 DUP3 ADD SWAP1 POP SWAP2 SWAP1 POP JUMP JUMPDEST PUSH1 0x0 PUSH1 0x20 DUP3 ADD SWAP1 POP DUP2 DUP2 SUB PUSH1 0x0 DUP4 ADD MSTORE PUSH2 0x3354 DUP2 PUSH2 0x3318 JUMP JUMPDEST SWAP1 POP SWAP2 SWAP1 POP JUMP INVALID LOG2 PUSH5 0x6970667358 0x22 SLT KECCAK256 0xA6 SAR LOG0 SWAP15 CODECOPY PUSH6 0xA5B515D57C46 SWAP11 0xAD DUP5 0xD8 0xEF PUSH29 0x507A099204E6260A1788A6A2F69D64736F6C634300080B003369706673 GASPRICE 0x2F 0x2F MLOAD PUSH14 0x594E437073446E63484571714337 0x4D PUSH19 0x56356F63654D366F5657336D6A444B6D733246 PUSH23 0x7267746343745364697066733A2F2F516D534256473662 PUSH25 0x41626E50704737464B5736627537554C4846484539764A4D39 SELFBALANCE CALLDATACOPY PUSH6 0x5563594D6D74 0x4A PUSH15 0x7A2E706E67697066733A2F2F516D52 PUSH14 0x4C634B376D614555355578773472 POP PUSH23 0x79775677696F445A6A33505659684D7755454335634C74 0x4C PUSH20 0x4E00000000000000000000000000000000000000 "
				},
				"gasEstimates": {
					"creation": {
						"codeDepositCost": "2640200",
						"executionCost": "infinite",
						"totalCost": "infinite"
					},
					"external": {
						"MINTER_ROLE()": "418",
						"PAUSER_ROLE()": "440",
						"TEST_MINT_PASS_BLACK()": "441",
						"TEST_MINT_PASS_BLACKMaxSupply()": "infinite",
						"TEST_MINT_PASS_BLACKScholarshipTotal()": "infinite",
						"TEST_MINT_PASS_BLACKTokenId()": "infinite",
						"TEST_MINT_PASS_BLUE()": "396",
						"TEST_MINT_PASS_BLUEMaxSupply()": "infinite",
						"TEST_MINT_PASS_BLUEScholarshipTotal()": "infinite",
						"TEST_MINT_PASS_BLUETokenId()": "infinite",
						"TestMintPassBlackMinted(address)": "2860",
						"TestMintPassBlueMinted(address)": "2881",
						"URI_SETTER_ROLE()": "397",
						"balanceOf(address,uint256)": "infinite",
						"balanceOfBatch(address[],uint256[])": "infinite",
						"isApprovedForAll(address,address)": "infinite",
						"mintScholarship(address)": "infinite",
						"name()": "infinite",
						"owner()": "2612",
						"ownerMint(address,uint256,uint256)": "infinite",
						"renounceOwnership()": "30420",
						"safeBatchTransferFrom(address,address,uint256[],uint256[],bytes)": "infinite",
						"safeTransferFrom(address,address,uint256,uint256,bytes)": "infinite",
						"setApprovalForAll(address,bool)": "infinite",
						"setTokenURI(string,uint256)": "infinite",
						"setVault(address)": "27095",
						"supportsInterface(bytes4)": "790",
						"symbol()": "infinite",
						"tokenURI(uint256)": "infinite",
						"totalSupply(uint256)": "infinite",
						"transferOwnership(address)": "30855",
						"uri(uint256)": "infinite",
						"vaultAddress()": "2603",
						"withdraw()": "infinite"
					}
				},
				"methodIdentifiers": {
					"MINTER_ROLE()": "d5391393",
					"PAUSER_ROLE()": "e63ab1e9",
					"TEST_MINT_PASS_BLACK()": "22f1e489",
					"TEST_MINT_PASS_BLACKMaxSupply()": "3c9e6c41",
					"TEST_MINT_PASS_BLACKScholarshipTotal()": "98d78f51",
					"TEST_MINT_PASS_BLACKTokenId()": "f0f9f1cb",
					"TEST_MINT_PASS_BLUE()": "3dbd5921",
					"TEST_MINT_PASS_BLUEMaxSupply()": "317c7f62",
					"TEST_MINT_PASS_BLUEScholarshipTotal()": "ea41c2b7",
					"TEST_MINT_PASS_BLUETokenId()": "b8a22687",
					"TestMintPassBlackMinted(address)": "0b22f540",
					"TestMintPassBlueMinted(address)": "9fa3cda1",
					"URI_SETTER_ROLE()": "7f345710",
					"balanceOf(address,uint256)": "00fdd58e",
					"balanceOfBatch(address[],uint256[])": "4e1273f4",
					"isApprovedForAll(address,address)": "e985e9c5",
					"mintScholarship(address)": "16473cf7",
					"name()": "06fdde03",
					"owner()": "8da5cb5b",
					"ownerMint(address,uint256,uint256)": "388b9fe0",
					"renounceOwnership()": "715018a6",
					"safeBatchTransferFrom(address,address,uint256[],uint256[],bytes)": "2eb2c2d6",
					"safeTransferFrom(address,address,uint256,uint256,bytes)": "f242432a",
					"setApprovalForAll(address,bool)": "a22cb465",
					"setTokenURI(string,uint256)": "09a3beef",
					"setVault(address)": "6817031b",
					"supportsInterface(bytes4)": "01ffc9a7",
					"symbol()": "95d89b41",
					"tokenURI(uint256)": "c87b56dd",
					"totalSupply(uint256)": "bd85b039",
					"transferOwnership(address)": "f2fde38b",
					"uri(uint256)": "0e89341c",
					"vaultAddress()": "430bf08a",
					"withdraw()": "3ccfd60b"
				}
			},
			"storageLayout": {
				"storage": [
					{
						"astId": 816,
						"contract": "contracts/Test Mint Pass v12A.sol:TestMintPassv12A",
						"label": "balanceOf",
						"offset": 0,
						"slot": "0",
						"type": "t_mapping(t_address,t_mapping(t_uint256,t_uint256))"
					},
					{
						"astId": 822,
						"contract": "contracts/Test Mint Pass v12A.sol:TestMintPassv12A",
						"label": "isApprovedForAll",
						"offset": 0,
						"slot": "1",
						"type": "t_mapping(t_address,t_mapping(t_address,t_bool))"
					},
					{
						"astId": 1842,
						"contract": "contracts/Test Mint Pass v12A.sol:TestMintPassv12A",
						"label": "_owner",
						"offset": 0,
						"slot": "2",
						"type": "t_address"
					},
					{
						"astId": 2064,
						"contract": "contracts/Test Mint Pass v12A.sol:TestMintPassv12A",
						"label": "name",
						"offset": 0,
						"slot": "3",
						"type": "t_string_storage"
					},
					{
						"astId": 2066,
						"contract": "contracts/Test Mint Pass v12A.sol:TestMintPassv12A",
						"label": "symbol",
						"offset": 0,
						"slot": "4",
						"type": "t_string_storage"
					},
					{
						"astId": 2068,
						"contract": "contracts/Test Mint Pass v12A.sol:TestMintPassv12A",
						"label": "vaultAddress",
						"offset": 0,
						"slot": "5",
						"type": "t_address"
					},
					{
						"astId": 2096,
						"contract": "contracts/Test Mint Pass v12A.sol:TestMintPassv12A",
						"label": "_totalSupply",
						"offset": 0,
						"slot": "6",
						"type": "t_mapping(t_uint256,t_uint256)"
					},
					{
						"astId": 2100,
						"contract": "contracts/Test Mint Pass v12A.sol:TestMintPassv12A",
						"label": "tokenURI",
						"offset": 0,
						"slot": "7",
						"type": "t_mapping(t_uint256,t_string_storage)"
					},
					{
						"astId": 2104,
						"contract": "contracts/Test Mint Pass v12A.sol:TestMintPassv12A",
						"label": "TestMintPassBlueMinted",
						"offset": 0,
						"slot": "8",
						"type": "t_mapping(t_address,t_uint256)"
					},
					{
						"astId": 2108,
						"contract": "contracts/Test Mint Pass v12A.sol:TestMintPassv12A",
						"label": "TestMintPassBlackMinted",
						"offset": 0,
						"slot": "9",
						"type": "t_mapping(t_address,t_uint256)"
					}
				],
				"types": {
					"t_address": {
						"encoding": "inplace",
						"label": "address",
						"numberOfBytes": "20"
					},
					"t_bool": {
						"encoding": "inplace",
						"label": "bool",
						"numberOfBytes": "1"
					},
					"t_mapping(t_address,t_bool)": {
						"encoding": "mapping",
						"key": "t_address",
						"label": "mapping(address => bool)",
						"numberOfBytes": "32",
						"value": "t_bool"
					},
					"t_mapping(t_address,t_mapping(t_address,t_bool))": {
						"encoding": "mapping",
						"key": "t_address",
						"label": "mapping(address => mapping(address => bool))",
						"numberOfBytes": "32",
						"value": "t_mapping(t_address,t_bool)"
					},
					"t_mapping(t_address,t_mapping(t_uint256,t_uint256))": {
						"encoding": "mapping",
						"key": "t_address",
						"label": "mapping(address => mapping(uint256 => uint256))",
						"numberOfBytes": "32",
						"value": "t_mapping(t_uint256,t_uint256)"
					},
					"t_mapping(t_address,t_uint256)": {
						"encoding": "mapping",
						"key": "t_address",
						"label": "mapping(address => uint256)",
						"numberOfBytes": "32",
						"value": "t_uint256"
					},
					"t_mapping(t_uint256,t_string_storage)": {
						"encoding": "mapping",
						"key": "t_uint256",
						"label": "mapping(uint256 => string)",
						"numberOfBytes": "32",
						"value": "t_string_storage"
					},
					"t_mapping(t_uint256,t_uint256)": {
						"encoding": "mapping",
						"key": "t_uint256",
						"label": "mapping(uint256 => uint256)",
						"numberOfBytes": "32",
						"value": "t_uint256"
					},
					"t_string_storage": {
						"encoding": "bytes",
						"label": "string",
						"numberOfBytes": "32"
					},
					"t_uint256": {
						"encoding": "inplace",
						"label": "uint256",
						"numberOfBytes": "32"
					}
				}
			},
			"userdoc": {
				"kind": "user",
				"methods": {
					"mintScholarship(address)": {
						"notice": "function for owner to mint (LC)"
					},
					"ownerMint(address,uint256,uint256)": {
						"notice": "function for owner to mint the token, just in case it's needed, mintScholarship() will be used to mint all the scholarships"
					},
					"setTokenURI(string,uint256)": {
						"notice": "function to change the tokenURI"
					},
					"setVault(address)": {
						"notice": "changing vault address"
					},
					"totalSupply(uint256)": {
						"notice": "totalSupply of a token ID"
					},
					"uri(uint256)": {
						"notice": "returns the token URI"
					},
					"withdraw()": {
						"notice": "Withdraw all ETH from the contract to the vault address."
					}
				},
				"version": 1
			}
		}
	}
}