{
	"contracts/Test Mint Pass v12A.sol": {
		"TestMintPassv12A": {
			"abi": [
				{
					"inputs": [
						{
							"internalType": "string",
							"name": "_name",
							"type": "string"
						},
						{
							"internalType": "string",
							"name": "_symbol",
							"type": "string"
						},
						{
							"internalType": "address",
							"name": "_vaultAddress",
							"type": "address"
						},
						{
							"internalType": "string",
							"name": "_TestMintPassBlackTokenUri",
							"type": "string"
						},
						{
							"internalType": "string",
							"name": "_TestMintPassBlueTokenUri",
							"type": "string"
						}
					],
					"stateMutability": "nonpayable",
					"type": "constructor"
				},
				{
					"inputs": [],
					"name": "NoEthBalance",
					"type": "error"
				},
				{
					"anonymous": false,
					"inputs": [
						{
							"indexed": true,
							"internalType": "address",
							"name": "owner",
							"type": "address"
						},
						{
							"indexed": true,
							"internalType": "address",
							"name": "operator",
							"type": "address"
						},
						{
							"indexed": false,
							"internalType": "bool",
							"name": "approved",
							"type": "bool"
						}
					],
					"name": "ApprovalForAll",
					"type": "event"
				},
				{
					"anonymous": false,
					"inputs": [
						{
							"indexed": true,
							"internalType": "address",
							"name": "previousOwner",
							"type": "address"
						},
						{
							"indexed": true,
							"internalType": "address",
							"name": "newOwner",
							"type": "address"
						}
					],
					"name": "OwnershipTransferred",
					"type": "event"
				},
				{
					"anonymous": false,
					"inputs": [
						{
							"indexed": true,
							"internalType": "address",
							"name": "operator",
							"type": "address"
						},
						{
							"indexed": true,
							"internalType": "address",
							"name": "from",
							"type": "address"
						},
						{
							"indexed": true,
							"internalType": "address",
							"name": "to",
							"type": "address"
						},
						{
							"indexed": false,
							"internalType": "uint256[]",
							"name": "ids",
							"type": "uint256[]"
						},
						{
							"indexed": false,
							"internalType": "uint256[]",
							"name": "amounts",
							"type": "uint256[]"
						}
					],
					"name": "TransferBatch",
					"type": "event"
				},
				{
					"anonymous": false,
					"inputs": [
						{
							"indexed": true,
							"internalType": "address",
							"name": "operator",
							"type": "address"
						},
						{
							"indexed": true,
							"internalType": "address",
							"name": "from",
							"type": "address"
						},
						{
							"indexed": true,
							"internalType": "address",
							"name": "to",
							"type": "address"
						},
						{
							"indexed": false,
							"internalType": "uint256",
							"name": "id",
							"type": "uint256"
						},
						{
							"indexed": false,
							"internalType": "uint256",
							"name": "amount",
							"type": "uint256"
						}
					],
					"name": "TransferSingle",
					"type": "event"
				},
				{
					"anonymous": false,
					"inputs": [
						{
							"indexed": false,
							"internalType": "string",
							"name": "value",
							"type": "string"
						},
						{
							"indexed": true,
							"internalType": "uint256",
							"name": "id",
							"type": "uint256"
						}
					],
					"name": "URI",
					"type": "event"
				},
				{
					"inputs": [
						{
							"internalType": "address",
							"name": "",
							"type": "address"
						}
					],
					"name": "TestMintPassBlackMinted",
					"outputs": [
						{
							"internalType": "uint256",
							"name": "",
							"type": "uint256"
						}
					],
					"stateMutability": "view",
					"type": "function"
				},
				{
					"inputs": [
						{
							"internalType": "address",
							"name": "",
							"type": "address"
						}
					],
					"name": "TestMintPassBlueMinted",
					"outputs": [
						{
							"internalType": "uint256",
							"name": "",
							"type": "uint256"
						}
					],
					"stateMutability": "view",
					"type": "function"
				},
				{
					"inputs": [],
					"name": "Test_Mint_Pass_Black",
					"outputs": [
						{
							"internalType": "uint256",
							"name": "",
							"type": "uint256"
						}
					],
					"stateMutability": "view",
					"type": "function"
				},
				{
					"inputs": [],
					"name": "Test_Mint_Pass_BlackMaxSupply",
					"outputs": [
						{
							"internalType": "uint256",
							"name": "",
							"type": "uint256"
						}
					],
					"stateMutability": "view",
					"type": "function"
				},
				{
					"inputs": [],
					"name": "Test_Mint_Pass_BlackScholarshipTotal",
					"outputs": [
						{
							"internalType": "uint256",
							"name": "",
							"type": "uint256"
						}
					],
					"stateMutability": "view",
					"type": "function"
				},
				{
					"inputs": [],
					"name": "Test_Mint_Pass_BlackTokenId",
					"outputs": [
						{
							"internalType": "uint256",
							"name": "",
							"type": "uint256"
						}
					],
					"stateMutability": "view",
					"type": "function"
				},
				{
					"inputs": [],
					"name": "Test_Mint_Pass_Blue",
					"outputs": [
						{
							"internalType": "uint256",
							"name": "",
							"type": "uint256"
						}
					],
					"stateMutability": "view",
					"type": "function"
				},
				{
					"inputs": [],
					"name": "Test_Mint_Pass_BlueMaxSupply",
					"outputs": [
						{
							"internalType": "uint256",
							"name": "",
							"type": "uint256"
						}
					],
					"stateMutability": "view",
					"type": "function"
				},
				{
					"inputs": [],
					"name": "Test_Mint_Pass_BlueScholarshipTotal",
					"outputs": [
						{
							"internalType": "uint256",
							"name": "",
							"type": "uint256"
						}
					],
					"stateMutability": "view",
					"type": "function"
				},
				{
					"inputs": [],
					"name": "Test_Mint_Pass_BlueTokenId",
					"outputs": [
						{
							"internalType": "uint256",
							"name": "",
							"type": "uint256"
						}
					],
					"stateMutability": "view",
					"type": "function"
				},
				{
					"inputs": [
						{
							"internalType": "address",
							"name": "",
							"type": "address"
						},
						{
							"internalType": "uint256",
							"name": "",
							"type": "uint256"
						}
					],
					"name": "balanceOf",
					"outputs": [
						{
							"internalType": "uint256",
							"name": "",
							"type": "uint256"
						}
					],
					"stateMutability": "view",
					"type": "function"
				},
				{
					"inputs": [
						{
							"internalType": "address[]",
							"name": "owners",
							"type": "address[]"
						},
						{
							"internalType": "uint256[]",
							"name": "ids",
							"type": "uint256[]"
						}
					],
					"name": "balanceOfBatch",
					"outputs": [
						{
							"internalType": "uint256[]",
							"name": "balances",
							"type": "uint256[]"
						}
					],
					"stateMutability": "view",
					"type": "function"
				},
				{
					"inputs": [
						{
							"internalType": "address",
							"name": "",
							"type": "address"
						},
						{
							"internalType": "address",
							"name": "",
							"type": "address"
						}
					],
					"name": "isApprovedForAll",
					"outputs": [
						{
							"internalType": "bool",
							"name": "",
							"type": "bool"
						}
					],
					"stateMutability": "view",
					"type": "function"
				},
				{
					"inputs": [
						{
							"internalType": "address",
							"name": "to",
							"type": "address"
						}
					],
					"name": "mintScholarship",
					"outputs": [],
					"stateMutability": "nonpayable",
					"type": "function"
				},
				{
					"inputs": [],
					"name": "name",
					"outputs": [
						{
							"internalType": "string",
							"name": "",
							"type": "string"
						}
					],
					"stateMutability": "view",
					"type": "function"
				},
				{
					"inputs": [],
					"name": "owner",
					"outputs": [
						{
							"internalType": "address",
							"name": "",
							"type": "address"
						}
					],
					"stateMutability": "view",
					"type": "function"
				},
				{
					"inputs": [
						{
							"internalType": "address",
							"name": "to",
							"type": "address"
						},
						{
							"internalType": "uint256",
							"name": "amount",
							"type": "uint256"
						},
						{
							"internalType": "uint256",
							"name": "tokenId",
							"type": "uint256"
						}
					],
					"name": "ownerMint",
					"outputs": [],
					"stateMutability": "nonpayable",
					"type": "function"
				},
				{
					"inputs": [],
					"name": "renounceOwnership",
					"outputs": [],
					"stateMutability": "nonpayable",
					"type": "function"
				},
				{
					"inputs": [
						{
							"internalType": "address",
							"name": "from",
							"type": "address"
						},
						{
							"internalType": "address",
							"name": "to",
							"type": "address"
						},
						{
							"internalType": "uint256[]",
							"name": "ids",
							"type": "uint256[]"
						},
						{
							"internalType": "uint256[]",
							"name": "amounts",
							"type": "uint256[]"
						},
						{
							"internalType": "bytes",
							"name": "data",
							"type": "bytes"
						}
					],
					"name": "safeBatchTransferFrom",
					"outputs": [],
					"stateMutability": "nonpayable",
					"type": "function"
				},
				{
					"inputs": [
						{
							"internalType": "address",
							"name": "from",
							"type": "address"
						},
						{
							"internalType": "address",
							"name": "to",
							"type": "address"
						},
						{
							"internalType": "uint256",
							"name": "id",
							"type": "uint256"
						},
						{
							"internalType": "uint256",
							"name": "amount",
							"type": "uint256"
						},
						{
							"internalType": "bytes",
							"name": "data",
							"type": "bytes"
						}
					],
					"name": "safeTransferFrom",
					"outputs": [],
					"stateMutability": "nonpayable",
					"type": "function"
				},
				{
					"inputs": [
						{
							"internalType": "address",
							"name": "operator",
							"type": "address"
						},
						{
							"internalType": "bool",
							"name": "approved",
							"type": "bool"
						}
					],
					"name": "setApprovalForAll",
					"outputs": [],
					"stateMutability": "nonpayable",
					"type": "function"
				},
				{
					"inputs": [
						{
							"internalType": "string",
							"name": "_newTokenURI",
							"type": "string"
						},
						{
							"internalType": "uint256",
							"name": "tokenId",
							"type": "uint256"
						}
					],
					"name": "setTokenURI",
					"outputs": [],
					"stateMutability": "nonpayable",
					"type": "function"
				},
				{
					"inputs": [
						{
							"internalType": "address",
							"name": "_vaultAddress",
							"type": "address"
						}
					],
					"name": "setVault",
					"outputs": [],
					"stateMutability": "nonpayable",
					"type": "function"
				},
				{
					"inputs": [
						{
							"internalType": "bytes4",
							"name": "interfaceId",
							"type": "bytes4"
						}
					],
					"name": "supportsInterface",
					"outputs": [
						{
							"internalType": "bool",
							"name": "",
							"type": "bool"
						}
					],
					"stateMutability": "view",
					"type": "function"
				},
				{
					"inputs": [],
					"name": "symbol",
					"outputs": [
						{
							"internalType": "string",
							"name": "",
							"type": "string"
						}
					],
					"stateMutability": "view",
					"type": "function"
				},
				{
					"inputs": [
						{
							"internalType": "uint256",
							"name": "",
							"type": "uint256"
						}
					],
					"name": "tokenURI",
					"outputs": [
						{
							"internalType": "string",
							"name": "",
							"type": "string"
						}
					],
					"stateMutability": "view",
					"type": "function"
				},
				{
					"inputs": [
						{
							"internalType": "uint256",
							"name": "id",
							"type": "uint256"
						}
					],
					"name": "totalSupply",
					"outputs": [
						{
							"internalType": "uint256",
							"name": "",
							"type": "uint256"
						}
					],
					"stateMutability": "view",
					"type": "function"
				},
				{
					"inputs": [
						{
							"internalType": "address",
							"name": "newOwner",
							"type": "address"
						}
					],
					"name": "transferOwnership",
					"outputs": [],
					"stateMutability": "nonpayable",
					"type": "function"
				},
				{
					"inputs": [
						{
							"internalType": "uint256",
							"name": "tokenId",
							"type": "uint256"
						}
					],
					"name": "uri",
					"outputs": [
						{
							"internalType": "string",
							"name": "",
							"type": "string"
						}
					],
					"stateMutability": "view",
					"type": "function"
				},
				{
					"inputs": [],
					"name": "vaultAddress",
					"outputs": [
						{
							"internalType": "address",
							"name": "",
							"type": "address"
						}
					],
					"stateMutability": "view",
					"type": "function"
				},
				{
					"inputs": [],
					"name": "withdraw",
					"outputs": [],
					"stateMutability": "nonpayable",
					"type": "function"
				}
			],
			"devdoc": {
				"kind": "dev",
				"methods": {
					"mintScholarship(address)": {
						"params": {
							"to": "address to mint it to."
						}
					},
					"owner()": {
						"details": "Returns the address of the current owner."
					},
					"ownerMint(address,uint256,uint256)": {
						"params": {
							"amount": "the amount that the owner wants to mint.",
							"to": "address to mint it to.",
							"tokenId": "which token ID 1 for black 2 for general"
						}
					},
					"renounceOwnership()": {
						"details": "Leaves the contract without owner. It will not be possible to call `onlyOwner` functions anymore. Can only be called by the current owner. NOTE: Renouncing ownership will leave the contract without an owner, thereby removing any functionality that is only available to the owner."
					},
					"setTokenURI(string,uint256)": {
						"params": {
							"_newTokenURI": "this is the new token uri",
							"tokenId": "this is the token ID that will be set"
						}
					},
					"setVault(address)": {
						"params": {
							"_vaultAddress": "is the new vaultAddress"
						}
					},
					"totalSupply(uint256)": {
						"params": {
							"id": "is the ID, either generalTokenId or blackTokenId"
						}
					},
					"transferOwnership(address)": {
						"details": "Transfers ownership of the contract to a new account (`newOwner`). Can only be called by the current owner."
					},
					"uri(uint256)": {
						"params": {
							"tokenId": "which token ID to return 1 or 2."
						}
					}
				},
				"title": "TestMintPassv12A",
				"version": 1
			},
			"evm": {
				"assembly": "    /* \"contracts/Test Mint Pass v12A.sol\":869:6630  contract TestMintPassv12A is ERC1155, Ownable {... */\n  mstore(0x40, 0x0140)\n    /* \"contracts/Test Mint Pass v12A.sol\":1423:1426  166 */\n  0xa6\n    /* \"contracts/Test Mint Pass v12A.sol\":1366:1426  uint256 public immutable Test_Mint_Pass_BlackMaxSupply = 166 */\n  0x80\n  swap1\n  dup2\n  mstore\n  pop\n    /* \"contracts/Test Mint Pass v12A.sol\":1488:1491  330 */\n  0x014a\n    /* \"contracts/Test Mint Pass v12A.sol\":1432:1491  uint256 public immutable Test_Mint_Pass_BlueMaxSupply = 330 */\n  0xa0\n  swap1\n  dup2\n  mstore\n  pop\n    /* \"contracts/Test Mint Pass v12A.sol\":1561:1563  17 */\n  0x11\n    /* \"contracts/Test Mint Pass v12A.sol\":1497:1563  uint256 public immutable Test_Mint_Pass_BlackScholarshipTotal = 17 */\n  0xc0\n  swap1\n  dup2\n  mstore\n  pop\n    /* \"contracts/Test Mint Pass v12A.sol\":1632:1634  33 */\n  0x21\n    /* \"contracts/Test Mint Pass v12A.sol\":1569:1634  uint256 public immutable Test_Mint_Pass_BlueScholarshipTotal = 33 */\n  0xe0\n  swap1\n  dup2\n  mstore\n  pop\n    /* \"contracts/Test Mint Pass v12A.sol\":1696:1697  1 */\n  0x01\n    /* \"contracts/Test Mint Pass v12A.sol\":1641:1697  uint256 public immutable Test_Mint_Pass_BlackTokenId = 1 */\n  0x0100\n  swap1\n  dup2\n  mstore\n  pop\n    /* \"contracts/Test Mint Pass v12A.sol\":1757:1758  2 */\n  0x02\n    /* \"contracts/Test Mint Pass v12A.sol\":1703:1758  uint256 public immutable Test_Mint_Pass_BlueTokenId = 2 */\n  0x0120\n  swap1\n  dup2\n  mstore\n  pop\n    /* \"contracts/Test Mint Pass v12A.sol\":2456:3359  constructor(... */\n  callvalue\n  dup1\n  iszero\n  tag_1\n  jumpi\n  0x00\n  dup1\n  revert\ntag_1:\n  pop\n  mload(0x40)\n  sub(codesize, bytecodeSize)\n  dup1\n  bytecodeSize\n  dup4\n  codecopy\n  dup2\n  dup2\n  add\n  0x40\n  mstore\n  dup2\n  add\n  swap1\n  tag_2\n  swap2\n  swap1\n  tag_3\n  jump\t// in\ntag_2:\n    /* \"contracts/Ownable.sol\":942:974  _transferOwnership(_msgSender()) */\n  tag_7\n    /* \"contracts/Ownable.sol\":961:973  _msgSender() */\n  tag_8\n    /* \"contracts/Ownable.sol\":961:971  _msgSender */\n  shl(0x20, tag_9)\n    /* \"contracts/Ownable.sol\":961:973  _msgSender() */\n  0x20\n  shr\n  jump\t// in\ntag_8:\n    /* \"contracts/Ownable.sol\":942:960  _transferOwnership */\n  shl(0x20, tag_10)\n    /* \"contracts/Ownable.sol\":942:974  _transferOwnership(_msgSender()) */\n  0x20\n  shr\n  jump\t// in\ntag_7:\n    /* \"contracts/Test Mint Pass v12A.sol\":2674:2703  _name = \"Test Mint Pass v12A\" */\n  mload(0x40)\n  dup1\n  0x40\n  add\n  0x40\n  mstore\n  dup1\n  0x13\n  dup2\n  mstore\n  0x20\n  add\n  0x54657374204d696e742050617373207631324100000000000000000000000000\n  dup2\n  mstore\n  pop\n  swap5\n  pop\n    /* \"contracts/Test Mint Pass v12A.sol\":2713:2740  _symbol = \"&#10047;TMPV10I\" */\n  mload(0x40)\n  dup1\n  0x40\n  add\n  0x40\n  mstore\n  dup1\n  0x0f\n  dup2\n  mstore\n  0x20\n  add\n  0x262331303034373b544d50563130490000000000000000000000000000000000\n  dup2\n  mstore\n  pop\n  swap4\n  pop\n    /* \"contracts/Test Mint Pass v12A.sol\":2890:2989  _mint(msg.sender, Test_Mint_Pass_Black, 1, \"ipfs://QmSBVG6bxAbnPpG7FKW6bu7ULHFHE9vJM9G7eUcYMmtJnz\") */\n  tag_12\n    /* \"contracts/Test Mint Pass v12A.sol\":2896:2906  msg.sender */\n  caller\n    /* \"contracts/Test Mint Pass v12A.sol\":1811:1812  1 */\n  0x01\n    /* \"contracts/Test Mint Pass v12A.sol\":2930:2931  1 */\n  dup1\n    /* \"contracts/Test Mint Pass v12A.sol\":2890:2989  _mint(msg.sender, Test_Mint_Pass_Black, 1, \"ipfs://QmSBVG6bxAbnPpG7FKW6bu7ULHFHE9vJM9G7eUcYMmtJnz\") */\n  mload(0x40)\n  dup1\n  0x60\n  add\n  0x40\n  mstore\n  dup1\n  0x35\n  dup2\n  mstore\n  0x20\n  add\n  data_2952ba3802fe458f9951708d6916a8729c138c4a5ad226fa922d1a7a149cb81d\n  0x35\n  swap2\n  codecopy\n    /* \"contracts/Test Mint Pass v12A.sol\":2890:2895  _mint */\n  shl(0x20, tag_13)\n    /* \"contracts/Test Mint Pass v12A.sol\":2890:2989  _mint(msg.sender, Test_Mint_Pass_Black, 1, \"ipfs://QmSBVG6bxAbnPpG7FKW6bu7ULHFHE9vJM9G7eUcYMmtJnz\") */\n  0x20\n  shr\n  jump\t// in\ntag_12:\n    /* \"contracts/Test Mint Pass v12A.sol\":2999:3097  _mint(msg.sender, Test_Mint_Pass_Blue, 2, \"ipfs://QmRmLcK7maEU5Uxw4rPvywVwioDZj3PVYhMwUEC5cLtLsN\") */\n  tag_14\n    /* \"contracts/Test Mint Pass v12A.sol\":3005:3015  msg.sender */\n  caller\n    /* \"contracts/Test Mint Pass v12A.sol\":1864:1865  2 */\n  0x02\n    /* \"contracts/Test Mint Pass v12A.sol\":3038:3039  2 */\n  dup1\n    /* \"contracts/Test Mint Pass v12A.sol\":2999:3097  _mint(msg.sender, Test_Mint_Pass_Blue, 2, \"ipfs://QmRmLcK7maEU5Uxw4rPvywVwioDZj3PVYhMwUEC5cLtLsN\") */\n  mload(0x40)\n  dup1\n  0x60\n  add\n  0x40\n  mstore\n  dup1\n  0x35\n  dup2\n  mstore\n  0x20\n  add\n  data_b50854baa3414e38b8fbd26c16643d27c284249af37f951d8232271e21dbb551\n  0x35\n  swap2\n  codecopy\n    /* \"contracts/Test Mint Pass v12A.sol\":2999:3004  _mint */\n  shl(0x20, tag_13)\n    /* \"contracts/Test Mint Pass v12A.sol\":2999:3097  _mint(msg.sender, Test_Mint_Pass_Blue, 2, \"ipfs://QmRmLcK7maEU5Uxw4rPvywVwioDZj3PVYhMwUEC5cLtLsN\") */\n  0x20\n  shr\n  jump\t// in\ntag_14:\n    /* \"contracts/Test Mint Pass v12A.sol\":3123:3165  0x4E322A20eD891fF77De2F774d2824F55B7152C73 */\n  0x4e322a20ed891ff77de2f774d2824f55b7152c73\n    /* \"contracts/Test Mint Pass v12A.sol\":3107:3165  _vaultAddress = 0x4E322A20eD891fF77De2F774d2824F55B7152C73 */\n  swap3\n  pop\n    /* \"contracts/Test Mint Pass v12A.sol\":3175:3258  _TestMintPassBlueTokenUri = \"ipfs://QmRmLcK7maEU5Uxw4rPvywVwioDZj3PVYhMwUEC5cLtLsN\" */\n  mload(0x40)\n  dup1\n  0x60\n  add\n  0x40\n  mstore\n  dup1\n  0x35\n  dup2\n  mstore\n  0x20\n  add\n  data_b50854baa3414e38b8fbd26c16643d27c284249af37f951d8232271e21dbb551\n  0x35\n  swap2\n  codecopy\n  swap1\n  pop\n    /* \"contracts/Test Mint Pass v12A.sol\":3268:3352  _TestMintPassBlackTokenUri = \"ipfs://QmSBVG6bxAbnPpG7FKW6bu7ULHFHE9vJM9G7eUcYMmtJnz\" */\n  mload(0x40)\n  dup1\n  0x60\n  add\n  0x40\n  mstore\n  dup1\n  0x35\n  dup2\n  mstore\n  0x20\n  add\n  data_2952ba3802fe458f9951708d6916a8729c138c4a5ad226fa922d1a7a149cb81d\n  0x35\n  swap2\n  codecopy\n  swap2\n  pop\n    /* \"contracts/Test Mint Pass v12A.sol\":2456:3359  constructor(... */\n  pop\n  pop\n  pop\n  pop\n  pop\n    /* \"contracts/Test Mint Pass v12A.sol\":869:6630  contract TestMintPassv12A is ERC1155, Ownable {... */\n  jump(tag_15)\n    /* \"@openzeppelin/contracts/utils/Context.sol\":640:736  function _msgSender() internal view virtual returns (address) {... */\ntag_9:\n    /* \"@openzeppelin/contracts/utils/Context.sol\":693:700  address */\n  0x00\n    /* \"@openzeppelin/contracts/utils/Context.sol\":719:729  msg.sender */\n  caller\n    /* \"@openzeppelin/contracts/utils/Context.sol\":712:729  return msg.sender */\n  swap1\n  pop\n    /* \"@openzeppelin/contracts/utils/Context.sol\":640:736  function _msgSender() internal view virtual returns (address) {... */\n  swap1\n  jump\t// out\n    /* \"contracts/Ownable.sol\":2291:2478  function _transferOwnership(address newOwner) internal virtual {... */\ntag_10:\n    /* \"contracts/Ownable.sol\":2364:2380  address oldOwner */\n  0x00\n    /* \"contracts/Ownable.sol\":2383:2389  _owner */\n  0x02\n  0x00\n  swap1\n  sload\n  swap1\n  0x0100\n  exp\n  swap1\n  div\n  0xffffffffffffffffffffffffffffffffffffffff\n  and\n    /* \"contracts/Ownable.sol\":2364:2389  address oldOwner = _owner */\n  swap1\n  pop\n    /* \"contracts/Ownable.sol\":2408:2416  newOwner */\n  dup2\n    /* \"contracts/Ownable.sol\":2399:2405  _owner */\n  0x02\n  0x00\n    /* \"contracts/Ownable.sol\":2399:2416  _owner = newOwner */\n  0x0100\n  exp\n  dup2\n  sload\n  dup2\n  0xffffffffffffffffffffffffffffffffffffffff\n  mul\n  not\n  and\n  swap1\n  dup4\n  0xffffffffffffffffffffffffffffffffffffffff\n  and\n  mul\n  or\n  swap1\n  sstore\n  pop\n    /* \"contracts/Ownable.sol\":2462:2470  newOwner */\n  dup2\n    /* \"contracts/Ownable.sol\":2431:2471  OwnershipTransferred(oldOwner, newOwner) */\n  0xffffffffffffffffffffffffffffffffffffffff\n  and\n    /* \"contracts/Ownable.sol\":2452:2460  oldOwner */\n  dup2\n    /* \"contracts/Ownable.sol\":2431:2471  OwnershipTransferred(oldOwner, newOwner) */\n  0xffffffffffffffffffffffffffffffffffffffff\n  and\n  0x8be0079c531659141344cd1fd0a4f28419497f9722a3daafe3b4186f6b6457e0\n  mload(0x40)\n  mload(0x40)\n  dup1\n  swap2\n  sub\n  swap1\n  log3\n    /* \"contracts/Ownable.sol\":2354:2478  {... */\n  pop\n    /* \"contracts/Ownable.sol\":2291:2478  function _transferOwnership(address newOwner) internal virtual {... */\n  pop\n  jump\t// out\n    /* \"contracts/ERC1155.sol\":5137:5682  function _mint(... */\ntag_13:\n    /* \"contracts/ERC1155.sol\":5297:5303  amount */\n  dup2\n    /* \"contracts/ERC1155.sol\":5276:5285  balanceOf */\n  0x00\n    /* \"contracts/ERC1155.sol\":5276:5289  balanceOf[to] */\n  dup1\n    /* \"contracts/ERC1155.sol\":5286:5288  to */\n  dup7\n    /* \"contracts/ERC1155.sol\":5276:5289  balanceOf[to] */\n  0xffffffffffffffffffffffffffffffffffffffff\n  and\n  0xffffffffffffffffffffffffffffffffffffffff\n  and\n  dup2\n  mstore\n  0x20\n  add\n  swap1\n  dup2\n  mstore\n  0x20\n  add\n  0x00\n  keccak256\n    /* \"contracts/ERC1155.sol\":5276:5293  balanceOf[to][id] */\n  0x00\n    /* \"contracts/ERC1155.sol\":5290:5292  id */\n  dup6\n    /* \"contracts/ERC1155.sol\":5276:5293  balanceOf[to][id] */\n  dup2\n  mstore\n  0x20\n  add\n  swap1\n  dup2\n  mstore\n  0x20\n  add\n  0x00\n  keccak256\n  0x00\n    /* \"contracts/ERC1155.sol\":5276:5303  balanceOf[to][id] += amount */\n  dup3\n  dup3\n  sload\n  tag_19\n  swap2\n  swap1\n  tag_20\n  jump\t// in\ntag_19:\n  swap3\n  pop\n  pop\n  dup2\n  swap1\n  sstore\n  pop\n    /* \"contracts/ERC1155.sol\":5358:5360  to */\n  dup4\n    /* \"contracts/ERC1155.sol\":5319:5373  TransferSingle(msg.sender, address(0), to, id, amount) */\n  0xffffffffffffffffffffffffffffffffffffffff\n  and\n    /* \"contracts/ERC1155.sol\":5354:5355  0 */\n  0x00\n    /* \"contracts/ERC1155.sol\":5319:5373  TransferSingle(msg.sender, address(0), to, id, amount) */\n  0xffffffffffffffffffffffffffffffffffffffff\n  and\n    /* \"contracts/ERC1155.sol\":5334:5344  msg.sender */\n  caller\n    /* \"contracts/ERC1155.sol\":5319:5373  TransferSingle(msg.sender, address(0), to, id, amount) */\n  0xffffffffffffffffffffffffffffffffffffffff\n  and\n  0xc3d58168c5ae7397731d063d5bbf3d657854427343f4c083240f7aacaa2d0f62\n    /* \"contracts/ERC1155.sol\":5362:5364  id */\n  dup7\n    /* \"contracts/ERC1155.sol\":5366:5372  amount */\n  dup7\n    /* \"contracts/ERC1155.sol\":5319:5373  TransferSingle(msg.sender, address(0), to, id, amount) */\n  mload(0x40)\n  tag_21\n  swap3\n  swap2\n  swap1\n  tag_22\n  jump\t// in\ntag_21:\n  mload(0x40)\n  dup1\n  swap2\n  sub\n  swap1\n  log4\n    /* \"contracts/ERC1155.sol\":5423:5424  0 */\n  0x00\n    /* \"contracts/ERC1155.sol\":5405:5407  to */\n  dup5\n    /* \"contracts/ERC1155.sol\":5405:5419  to.code.length */\n  0xffffffffffffffffffffffffffffffffffffffff\n  and\n  extcodesize\n    /* \"contracts/ERC1155.sol\":5405:5424  to.code.length == 0 */\n  eq\n    /* \"contracts/ERC1155.sol\":5405:5633  to.code.length == 0... */\n  tag_23\n  jumpi\n    /* \"contracts/ERC1155.sol\":5586:5633  ERC1155TokenReceiver.onERC1155Received.selector */\n  shl(0xe0, 0xf23a6e61)\n    /* \"contracts/ERC1155.sol\":5478:5633  ERC1155TokenReceiver(to).onERC1155Received(msg.sender, address(0), id, amount, data) ==... */\n  not(0xffffffffffffffffffffffffffffffffffffffffffffffffffffffff)\n  and\n    /* \"contracts/ERC1155.sol\":5499:5501  to */\n  dup5\n    /* \"contracts/ERC1155.sol\":5478:5520  ERC1155TokenReceiver(to).onERC1155Received */\n  0xffffffffffffffffffffffffffffffffffffffff\n  and\n  0xf23a6e61\n    /* \"contracts/ERC1155.sol\":5521:5531  msg.sender */\n  caller\n    /* \"contracts/ERC1155.sol\":5541:5542  0 */\n  0x00\n    /* \"contracts/ERC1155.sol\":5545:5547  id */\n  dup8\n    /* \"contracts/ERC1155.sol\":5549:5555  amount */\n  dup8\n    /* \"contracts/ERC1155.sol\":5557:5561  data */\n  dup8\n    /* \"contracts/ERC1155.sol\":5478:5562  ERC1155TokenReceiver(to).onERC1155Received(msg.sender, address(0), id, amount, data) */\n  mload(0x40)\n  dup7\n  0xffffffff\n  and\n  0xe0\n  shl\n  dup2\n  mstore\n  0x04\n  add\n  tag_24\n  swap6\n  swap5\n  swap4\n  swap3\n  swap2\n  swap1\n  tag_25\n  jump\t// in\ntag_24:\n  0x20\n  mload(0x40)\n  dup1\n  dup4\n  sub\n  dup2\n  0x00\n  dup8\n  gas\n  call\n  iszero\n  dup1\n  iszero\n  tag_27\n  jumpi\n  returndatasize\n  0x00\n  dup1\n  returndatacopy\n  revert(0x00, returndatasize)\ntag_27:\n  pop\n  pop\n  pop\n  pop\n  mload(0x40)\n  returndatasize\n  not(0x1f)\n  0x1f\n  dup3\n  add\n  and\n  dup3\n  add\n  dup1\n  0x40\n  mstore\n  pop\n  dup2\n  add\n  swap1\n  tag_28\n  swap2\n  swap1\n  tag_29\n  jump\t// in\ntag_28:\n    /* \"contracts/ERC1155.sol\":5478:5633  ERC1155TokenReceiver(to).onERC1155Received(msg.sender, address(0), id, amount, data) ==... */\n  not(0xffffffffffffffffffffffffffffffffffffffffffffffffffffffff)\n  and\n  eq\n    /* \"contracts/ERC1155.sol\":5405:5633  to.code.length == 0... */\n  jump(tag_30)\ntag_23:\n    /* \"contracts/ERC1155.sol\":5457:5458  0 */\n  0x00\n    /* \"contracts/ERC1155.sol\":5443:5459  to != address(0) */\n  0xffffffffffffffffffffffffffffffffffffffff\n  and\n    /* \"contracts/ERC1155.sol\":5443:5445  to */\n  dup5\n    /* \"contracts/ERC1155.sol\":5443:5459  to != address(0) */\n  0xffffffffffffffffffffffffffffffffffffffff\n  and\n  eq\n  iszero\n    /* \"contracts/ERC1155.sol\":5405:5633  to.code.length == 0... */\ntag_30:\n    /* \"contracts/ERC1155.sol\":5384:5675  require(... */\n  tag_31\n  jumpi\n  mload(0x40)\n  0x08c379a000000000000000000000000000000000000000000000000000000000\n  dup2\n  mstore\n  0x04\n  add\n  tag_32\n  swap1\n  tag_33\n  jump\t// in\ntag_32:\n  mload(0x40)\n  dup1\n  swap2\n  sub\n  swap1\n  revert\ntag_31:\n    /* \"contracts/ERC1155.sol\":5137:5682  function _mint(... */\n  pop\n  pop\n  pop\n  pop\n  jump\t// out\n    /* \"#utility.yul\":7:82   */\ntag_34:\n    /* \"#utility.yul\":40:46   */\n  0x00\n    /* \"#utility.yul\":73:75   */\n  0x40\n    /* \"#utility.yul\":67:76   */\n  mload\n    /* \"#utility.yul\":57:76   */\n  swap1\n  pop\n    /* \"#utility.yul\":7:82   */\n  swap1\n  jump\t// out\n    /* \"#utility.yul\":88:205   */\ntag_35:\n    /* \"#utility.yul\":197:198   */\n  0x00\n    /* \"#utility.yul\":194:195   */\n  dup1\n    /* \"#utility.yul\":187:199   */\n  revert\n    /* \"#utility.yul\":211:328   */\ntag_36:\n    /* \"#utility.yul\":320:321   */\n  0x00\n    /* \"#utility.yul\":317:318   */\n  dup1\n    /* \"#utility.yul\":310:322   */\n  revert\n    /* \"#utility.yul\":334:451   */\ntag_37:\n    /* \"#utility.yul\":443:444   */\n  0x00\n    /* \"#utility.yul\":440:441   */\n  dup1\n    /* \"#utility.yul\":433:445   */\n  revert\n    /* \"#utility.yul\":457:574   */\ntag_38:\n    /* \"#utility.yul\":566:567   */\n  0x00\n    /* \"#utility.yul\":563:564   */\n  dup1\n    /* \"#utility.yul\":556:568   */\n  revert\n    /* \"#utility.yul\":580:682   */\ntag_39:\n    /* \"#utility.yul\":621:627   */\n  0x00\n    /* \"#utility.yul\":672:674   */\n  0x1f\n    /* \"#utility.yul\":668:675   */\n  not\n    /* \"#utility.yul\":663:665   */\n  0x1f\n    /* \"#utility.yul\":656:661   */\n  dup4\n    /* \"#utility.yul\":652:666   */\n  add\n    /* \"#utility.yul\":648:676   */\n  and\n    /* \"#utility.yul\":638:676   */\n  swap1\n  pop\n    /* \"#utility.yul\":580:682   */\n  swap2\n  swap1\n  pop\n  jump\t// out\n    /* \"#utility.yul\":688:868   */\ntag_40:\n    /* \"#utility.yul\":736:813   */\n  0x4e487b7100000000000000000000000000000000000000000000000000000000\n    /* \"#utility.yul\":733:734   */\n  0x00\n    /* \"#utility.yul\":726:814   */\n  mstore\n    /* \"#utility.yul\":833:837   */\n  0x41\n    /* \"#utility.yul\":830:831   */\n  0x04\n    /* \"#utility.yul\":823:838   */\n  mstore\n    /* \"#utility.yul\":857:861   */\n  0x24\n    /* \"#utility.yul\":854:855   */\n  0x00\n    /* \"#utility.yul\":847:862   */\n  revert\n    /* \"#utility.yul\":874:1155   */\ntag_41:\n    /* \"#utility.yul\":957:984   */\n  tag_73\n    /* \"#utility.yul\":979:983   */\n  dup3\n    /* \"#utility.yul\":957:984   */\n  tag_39\n  jump\t// in\ntag_73:\n    /* \"#utility.yul\":949:955   */\n  dup2\n    /* \"#utility.yul\":945:985   */\n  add\n    /* \"#utility.yul\":1087:1093   */\n  dup2\n    /* \"#utility.yul\":1075:1085   */\n  dup2\n    /* \"#utility.yul\":1072:1094   */\n  lt\n    /* \"#utility.yul\":1051:1069   */\n  0xffffffffffffffff\n    /* \"#utility.yul\":1039:1049   */\n  dup3\n    /* \"#utility.yul\":1036:1070   */\n  gt\n    /* \"#utility.yul\":1033:1095   */\n  or\n    /* \"#utility.yul\":1030:1118   */\n  iszero\n  tag_74\n  jumpi\n    /* \"#utility.yul\":1098:1116   */\n  tag_75\n  tag_40\n  jump\t// in\ntag_75:\n    /* \"#utility.yul\":1030:1118   */\ntag_74:\n    /* \"#utility.yul\":1138:1148   */\n  dup1\n    /* \"#utility.yul\":1134:1136   */\n  0x40\n    /* \"#utility.yul\":1127:1149   */\n  mstore\n    /* \"#utility.yul\":917:1155   */\n  pop\n    /* \"#utility.yul\":874:1155   */\n  pop\n  pop\n  jump\t// out\n    /* \"#utility.yul\":1161:1290   */\ntag_42:\n    /* \"#utility.yul\":1195:1201   */\n  0x00\n    /* \"#utility.yul\":1222:1242   */\n  tag_77\n  tag_34\n  jump\t// in\ntag_77:\n    /* \"#utility.yul\":1212:1242   */\n  swap1\n  pop\n    /* \"#utility.yul\":1251:1284   */\n  tag_78\n    /* \"#utility.yul\":1279:1283   */\n  dup3\n    /* \"#utility.yul\":1271:1277   */\n  dup3\n    /* \"#utility.yul\":1251:1284   */\n  tag_41\n  jump\t// in\ntag_78:\n    /* \"#utility.yul\":1161:1290   */\n  swap2\n  swap1\n  pop\n  jump\t// out\n    /* \"#utility.yul\":1296:1604   */\ntag_43:\n    /* \"#utility.yul\":1358:1362   */\n  0x00\n    /* \"#utility.yul\":1448:1466   */\n  0xffffffffffffffff\n    /* \"#utility.yul\":1440:1446   */\n  dup3\n    /* \"#utility.yul\":1437:1467   */\n  gt\n    /* \"#utility.yul\":1434:1490   */\n  iszero\n  tag_80\n  jumpi\n    /* \"#utility.yul\":1470:1488   */\n  tag_81\n  tag_40\n  jump\t// in\ntag_81:\n    /* \"#utility.yul\":1434:1490   */\ntag_80:\n    /* \"#utility.yul\":1508:1537   */\n  tag_82\n    /* \"#utility.yul\":1530:1536   */\n  dup3\n    /* \"#utility.yul\":1508:1537   */\n  tag_39\n  jump\t// in\ntag_82:\n    /* \"#utility.yul\":1500:1537   */\n  swap1\n  pop\n    /* \"#utility.yul\":1592:1596   */\n  0x20\n    /* \"#utility.yul\":1586:1590   */\n  dup2\n    /* \"#utility.yul\":1582:1597   */\n  add\n    /* \"#utility.yul\":1574:1597   */\n  swap1\n  pop\n    /* \"#utility.yul\":1296:1604   */\n  swap2\n  swap1\n  pop\n  jump\t// out\n    /* \"#utility.yul\":1610:1917   */\ntag_44:\n    /* \"#utility.yul\":1678:1679   */\n  0x00\n    /* \"#utility.yul\":1688:1801   */\ntag_84:\n    /* \"#utility.yul\":1702:1708   */\n  dup4\n    /* \"#utility.yul\":1699:1700   */\n  dup2\n    /* \"#utility.yul\":1696:1709   */\n  lt\n    /* \"#utility.yul\":1688:1801   */\n  iszero\n  tag_86\n  jumpi\n    /* \"#utility.yul\":1787:1788   */\n  dup1\n    /* \"#utility.yul\":1782:1785   */\n  dup3\n    /* \"#utility.yul\":1778:1789   */\n  add\n    /* \"#utility.yul\":1772:1790   */\n  mload\n    /* \"#utility.yul\":1768:1769   */\n  dup2\n    /* \"#utility.yul\":1763:1766   */\n  dup5\n    /* \"#utility.yul\":1759:1770   */\n  add\n    /* \"#utility.yul\":1752:1791   */\n  mstore\n    /* \"#utility.yul\":1724:1726   */\n  0x20\n    /* \"#utility.yul\":1721:1722   */\n  dup2\n    /* \"#utility.yul\":1717:1727   */\n  add\n    /* \"#utility.yul\":1712:1727   */\n  swap1\n  pop\n    /* \"#utility.yul\":1688:1801   */\n  jump(tag_84)\ntag_86:\n    /* \"#utility.yul\":1819:1825   */\n  dup4\n    /* \"#utility.yul\":1816:1817   */\n  dup2\n    /* \"#utility.yul\":1813:1826   */\n  gt\n    /* \"#utility.yul\":1810:1911   */\n  iszero\n  tag_87\n  jumpi\n    /* \"#utility.yul\":1899:1900   */\n  0x00\n    /* \"#utility.yul\":1890:1896   */\n  dup5\n    /* \"#utility.yul\":1885:1888   */\n  dup5\n    /* \"#utility.yul\":1881:1897   */\n  add\n    /* \"#utility.yul\":1874:1901   */\n  mstore\n    /* \"#utility.yul\":1810:1911   */\ntag_87:\n    /* \"#utility.yul\":1659:1917   */\n  pop\n    /* \"#utility.yul\":1610:1917   */\n  pop\n  pop\n  pop\n  jump\t// out\n    /* \"#utility.yul\":1923:2344   */\ntag_45:\n    /* \"#utility.yul\":2012:2017   */\n  0x00\n    /* \"#utility.yul\":2037:2103   */\n  tag_89\n    /* \"#utility.yul\":2053:2102   */\n  tag_90\n    /* \"#utility.yul\":2095:2101   */\n  dup5\n    /* \"#utility.yul\":2053:2102   */\n  tag_43\n  jump\t// in\ntag_90:\n    /* \"#utility.yul\":2037:2103   */\n  tag_42\n  jump\t// in\ntag_89:\n    /* \"#utility.yul\":2028:2103   */\n  swap1\n  pop\n    /* \"#utility.yul\":2126:2132   */\n  dup3\n    /* \"#utility.yul\":2119:2124   */\n  dup2\n    /* \"#utility.yul\":2112:2133   */\n  mstore\n    /* \"#utility.yul\":2164:2168   */\n  0x20\n    /* \"#utility.yul\":2157:2162   */\n  dup2\n    /* \"#utility.yul\":2153:2169   */\n  add\n    /* \"#utility.yul\":2202:2205   */\n  dup5\n    /* \"#utility.yul\":2193:2199   */\n  dup5\n    /* \"#utility.yul\":2188:2191   */\n  dup5\n    /* \"#utility.yul\":2184:2200   */\n  add\n    /* \"#utility.yul\":2181:2206   */\n  gt\n    /* \"#utility.yul\":2178:2290   */\n  iszero\n  tag_91\n  jumpi\n    /* \"#utility.yul\":2209:2288   */\n  tag_92\n  tag_38\n  jump\t// in\ntag_92:\n    /* \"#utility.yul\":2178:2290   */\ntag_91:\n    /* \"#utility.yul\":2299:2338   */\n  tag_93\n    /* \"#utility.yul\":2331:2337   */\n  dup5\n    /* \"#utility.yul\":2326:2329   */\n  dup3\n    /* \"#utility.yul\":2321:2324   */\n  dup6\n    /* \"#utility.yul\":2299:2338   */\n  tag_44\n  jump\t// in\ntag_93:\n    /* \"#utility.yul\":2018:2344   */\n  pop\n    /* \"#utility.yul\":1923:2344   */\n  swap4\n  swap3\n  pop\n  pop\n  pop\n  jump\t// out\n    /* \"#utility.yul\":2364:2719   */\ntag_46:\n    /* \"#utility.yul\":2431:2436   */\n  0x00\n    /* \"#utility.yul\":2480:2483   */\n  dup3\n    /* \"#utility.yul\":2473:2477   */\n  0x1f\n    /* \"#utility.yul\":2465:2471   */\n  dup4\n    /* \"#utility.yul\":2461:2478   */\n  add\n    /* \"#utility.yul\":2457:2484   */\n  slt\n    /* \"#utility.yul\":2447:2569   */\n  tag_95\n  jumpi\n    /* \"#utility.yul\":2488:2567   */\n  tag_96\n  tag_37\n  jump\t// in\ntag_96:\n    /* \"#utility.yul\":2447:2569   */\ntag_95:\n    /* \"#utility.yul\":2598:2604   */\n  dup2\n    /* \"#utility.yul\":2592:2605   */\n  mload\n    /* \"#utility.yul\":2623:2713   */\n  tag_97\n    /* \"#utility.yul\":2709:2712   */\n  dup5\n    /* \"#utility.yul\":2701:2707   */\n  dup3\n    /* \"#utility.yul\":2694:2698   */\n  0x20\n    /* \"#utility.yul\":2686:2692   */\n  dup7\n    /* \"#utility.yul\":2682:2699   */\n  add\n    /* \"#utility.yul\":2623:2713   */\n  tag_45\n  jump\t// in\ntag_97:\n    /* \"#utility.yul\":2614:2713   */\n  swap2\n  pop\n    /* \"#utility.yul\":2437:2719   */\n  pop\n    /* \"#utility.yul\":2364:2719   */\n  swap3\n  swap2\n  pop\n  pop\n  jump\t// out\n    /* \"#utility.yul\":2725:2851   */\ntag_47:\n    /* \"#utility.yul\":2762:2769   */\n  0x00\n    /* \"#utility.yul\":2802:2844   */\n  0xffffffffffffffffffffffffffffffffffffffff\n    /* \"#utility.yul\":2795:2800   */\n  dup3\n    /* \"#utility.yul\":2791:2845   */\n  and\n    /* \"#utility.yul\":2780:2845   */\n  swap1\n  pop\n    /* \"#utility.yul\":2725:2851   */\n  swap2\n  swap1\n  pop\n  jump\t// out\n    /* \"#utility.yul\":2857:2953   */\ntag_48:\n    /* \"#utility.yul\":2894:2901   */\n  0x00\n    /* \"#utility.yul\":2923:2947   */\n  tag_100\n    /* \"#utility.yul\":2941:2946   */\n  dup3\n    /* \"#utility.yul\":2923:2947   */\n  tag_47\n  jump\t// in\ntag_100:\n    /* \"#utility.yul\":2912:2947   */\n  swap1\n  pop\n    /* \"#utility.yul\":2857:2953   */\n  swap2\n  swap1\n  pop\n  jump\t// out\n    /* \"#utility.yul\":2959:3081   */\ntag_49:\n    /* \"#utility.yul\":3032:3056   */\n  tag_102\n    /* \"#utility.yul\":3050:3055   */\n  dup2\n    /* \"#utility.yul\":3032:3056   */\n  tag_48\n  jump\t// in\ntag_102:\n    /* \"#utility.yul\":3025:3030   */\n  dup2\n    /* \"#utility.yul\":3022:3057   */\n  eq\n    /* \"#utility.yul\":3012:3075   */\n  tag_103\n  jumpi\n    /* \"#utility.yul\":3071:3072   */\n  0x00\n    /* \"#utility.yul\":3068:3069   */\n  dup1\n    /* \"#utility.yul\":3061:3073   */\n  revert\n    /* \"#utility.yul\":3012:3075   */\ntag_103:\n    /* \"#utility.yul\":2959:3081   */\n  pop\n  jump\t// out\n    /* \"#utility.yul\":3087:3230   */\ntag_50:\n    /* \"#utility.yul\":3144:3149   */\n  0x00\n    /* \"#utility.yul\":3175:3181   */\n  dup2\n    /* \"#utility.yul\":3169:3182   */\n  mload\n    /* \"#utility.yul\":3160:3182   */\n  swap1\n  pop\n    /* \"#utility.yul\":3191:3224   */\n  tag_105\n    /* \"#utility.yul\":3218:3223   */\n  dup2\n    /* \"#utility.yul\":3191:3224   */\n  tag_49\n  jump\t// in\ntag_105:\n    /* \"#utility.yul\":3087:3230   */\n  swap3\n  swap2\n  pop\n  pop\n  jump\t// out\n    /* \"#utility.yul\":3236:4905   */\ntag_3:\n    /* \"#utility.yul\":3382:3388   */\n  0x00\n    /* \"#utility.yul\":3390:3396   */\n  dup1\n    /* \"#utility.yul\":3398:3404   */\n  0x00\n    /* \"#utility.yul\":3406:3412   */\n  dup1\n    /* \"#utility.yul\":3414:3420   */\n  0x00\n    /* \"#utility.yul\":3463:3466   */\n  0xa0\n    /* \"#utility.yul\":3451:3460   */\n  dup7\n    /* \"#utility.yul\":3442:3449   */\n  dup9\n    /* \"#utility.yul\":3438:3461   */\n  sub\n    /* \"#utility.yul\":3434:3467   */\n  slt\n    /* \"#utility.yul\":3431:3551   */\n  iszero\n  tag_107\n  jumpi\n    /* \"#utility.yul\":3470:3549   */\n  tag_108\n  tag_35\n  jump\t// in\ntag_108:\n    /* \"#utility.yul\":3431:3551   */\ntag_107:\n    /* \"#utility.yul\":3611:3612   */\n  0x00\n    /* \"#utility.yul\":3600:3609   */\n  dup7\n    /* \"#utility.yul\":3596:3613   */\n  add\n    /* \"#utility.yul\":3590:3614   */\n  mload\n    /* \"#utility.yul\":3641:3659   */\n  0xffffffffffffffff\n    /* \"#utility.yul\":3633:3639   */\n  dup2\n    /* \"#utility.yul\":3630:3660   */\n  gt\n    /* \"#utility.yul\":3627:3744   */\n  iszero\n  tag_109\n  jumpi\n    /* \"#utility.yul\":3663:3742   */\n  tag_110\n  tag_36\n  jump\t// in\ntag_110:\n    /* \"#utility.yul\":3627:3744   */\ntag_109:\n    /* \"#utility.yul\":3768:3842   */\n  tag_111\n    /* \"#utility.yul\":3834:3841   */\n  dup9\n    /* \"#utility.yul\":3825:3831   */\n  dup3\n    /* \"#utility.yul\":3814:3823   */\n  dup10\n    /* \"#utility.yul\":3810:3832   */\n  add\n    /* \"#utility.yul\":3768:3842   */\n  tag_46\n  jump\t// in\ntag_111:\n    /* \"#utility.yul\":3758:3842   */\n  swap6\n  pop\n    /* \"#utility.yul\":3561:3852   */\n  pop\n    /* \"#utility.yul\":3912:3914   */\n  0x20\n    /* \"#utility.yul\":3901:3910   */\n  dup7\n    /* \"#utility.yul\":3897:3915   */\n  add\n    /* \"#utility.yul\":3891:3916   */\n  mload\n    /* \"#utility.yul\":3943:3961   */\n  0xffffffffffffffff\n    /* \"#utility.yul\":3935:3941   */\n  dup2\n    /* \"#utility.yul\":3932:3962   */\n  gt\n    /* \"#utility.yul\":3929:4046   */\n  iszero\n  tag_112\n  jumpi\n    /* \"#utility.yul\":3965:4044   */\n  tag_113\n  tag_36\n  jump\t// in\ntag_113:\n    /* \"#utility.yul\":3929:4046   */\ntag_112:\n    /* \"#utility.yul\":4070:4144   */\n  tag_114\n    /* \"#utility.yul\":4136:4143   */\n  dup9\n    /* \"#utility.yul\":4127:4133   */\n  dup3\n    /* \"#utility.yul\":4116:4125   */\n  dup10\n    /* \"#utility.yul\":4112:4134   */\n  add\n    /* \"#utility.yul\":4070:4144   */\n  tag_46\n  jump\t// in\ntag_114:\n    /* \"#utility.yul\":4060:4144   */\n  swap5\n  pop\n    /* \"#utility.yul\":3862:4154   */\n  pop\n    /* \"#utility.yul\":4193:4195   */\n  0x40\n    /* \"#utility.yul\":4219:4283   */\n  tag_115\n    /* \"#utility.yul\":4275:4282   */\n  dup9\n    /* \"#utility.yul\":4266:4272   */\n  dup3\n    /* \"#utility.yul\":4255:4264   */\n  dup10\n    /* \"#utility.yul\":4251:4273   */\n  add\n    /* \"#utility.yul\":4219:4283   */\n  tag_50\n  jump\t// in\ntag_115:\n    /* \"#utility.yul\":4209:4283   */\n  swap4\n  pop\n    /* \"#utility.yul\":4164:4293   */\n  pop\n    /* \"#utility.yul\":4353:4355   */\n  0x60\n    /* \"#utility.yul\":4342:4351   */\n  dup7\n    /* \"#utility.yul\":4338:4356   */\n  add\n    /* \"#utility.yul\":4332:4357   */\n  mload\n    /* \"#utility.yul\":4384:4402   */\n  0xffffffffffffffff\n    /* \"#utility.yul\":4376:4382   */\n  dup2\n    /* \"#utility.yul\":4373:4403   */\n  gt\n    /* \"#utility.yul\":4370:4487   */\n  iszero\n  tag_116\n  jumpi\n    /* \"#utility.yul\":4406:4485   */\n  tag_117\n  tag_36\n  jump\t// in\ntag_117:\n    /* \"#utility.yul\":4370:4487   */\ntag_116:\n    /* \"#utility.yul\":4511:4585   */\n  tag_118\n    /* \"#utility.yul\":4577:4584   */\n  dup9\n    /* \"#utility.yul\":4568:4574   */\n  dup3\n    /* \"#utility.yul\":4557:4566   */\n  dup10\n    /* \"#utility.yul\":4553:4575   */\n  add\n    /* \"#utility.yul\":4511:4585   */\n  tag_46\n  jump\t// in\ntag_118:\n    /* \"#utility.yul\":4501:4585   */\n  swap3\n  pop\n    /* \"#utility.yul\":4303:4595   */\n  pop\n    /* \"#utility.yul\":4655:4658   */\n  0x80\n    /* \"#utility.yul\":4644:4653   */\n  dup7\n    /* \"#utility.yul\":4640:4659   */\n  add\n    /* \"#utility.yul\":4634:4660   */\n  mload\n    /* \"#utility.yul\":4687:4705   */\n  0xffffffffffffffff\n    /* \"#utility.yul\":4679:4685   */\n  dup2\n    /* \"#utility.yul\":4676:4706   */\n  gt\n    /* \"#utility.yul\":4673:4790   */\n  iszero\n  tag_119\n  jumpi\n    /* \"#utility.yul\":4709:4788   */\n  tag_120\n  tag_36\n  jump\t// in\ntag_120:\n    /* \"#utility.yul\":4673:4790   */\ntag_119:\n    /* \"#utility.yul\":4814:4888   */\n  tag_121\n    /* \"#utility.yul\":4880:4887   */\n  dup9\n    /* \"#utility.yul\":4871:4877   */\n  dup3\n    /* \"#utility.yul\":4860:4869   */\n  dup10\n    /* \"#utility.yul\":4856:4878   */\n  add\n    /* \"#utility.yul\":4814:4888   */\n  tag_46\n  jump\t// in\ntag_121:\n    /* \"#utility.yul\":4804:4888   */\n  swap2\n  pop\n    /* \"#utility.yul\":4605:4898   */\n  pop\n    /* \"#utility.yul\":3236:4905   */\n  swap3\n  swap6\n  pop\n  swap3\n  swap6\n  swap1\n  swap4\n  pop\n  jump\t// out\n    /* \"#utility.yul\":4911:4988   */\ntag_51:\n    /* \"#utility.yul\":4948:4955   */\n  0x00\n    /* \"#utility.yul\":4977:4982   */\n  dup2\n    /* \"#utility.yul\":4966:4982   */\n  swap1\n  pop\n    /* \"#utility.yul\":4911:4988   */\n  swap2\n  swap1\n  pop\n  jump\t// out\n    /* \"#utility.yul\":4994:5174   */\ntag_52:\n    /* \"#utility.yul\":5042:5119   */\n  0x4e487b7100000000000000000000000000000000000000000000000000000000\n    /* \"#utility.yul\":5039:5040   */\n  0x00\n    /* \"#utility.yul\":5032:5120   */\n  mstore\n    /* \"#utility.yul\":5139:5143   */\n  0x11\n    /* \"#utility.yul\":5136:5137   */\n  0x04\n    /* \"#utility.yul\":5129:5144   */\n  mstore\n    /* \"#utility.yul\":5163:5167   */\n  0x24\n    /* \"#utility.yul\":5160:5161   */\n  0x00\n    /* \"#utility.yul\":5153:5168   */\n  revert\n    /* \"#utility.yul\":5180:5485   */\ntag_20:\n    /* \"#utility.yul\":5220:5223   */\n  0x00\n    /* \"#utility.yul\":5239:5259   */\n  tag_125\n    /* \"#utility.yul\":5257:5258   */\n  dup3\n    /* \"#utility.yul\":5239:5259   */\n  tag_51\n  jump\t// in\ntag_125:\n    /* \"#utility.yul\":5234:5259   */\n  swap2\n  pop\n    /* \"#utility.yul\":5273:5293   */\n  tag_126\n    /* \"#utility.yul\":5291:5292   */\n  dup4\n    /* \"#utility.yul\":5273:5293   */\n  tag_51\n  jump\t// in\ntag_126:\n    /* \"#utility.yul\":5268:5293   */\n  swap3\n  pop\n    /* \"#utility.yul\":5427:5428   */\n  dup3\n    /* \"#utility.yul\":5359:5425   */\n  0xffffffffffffffffffffffffffffffffffffffffffffffffffffffffffffffff\n    /* \"#utility.yul\":5355:5429   */\n  sub\n    /* \"#utility.yul\":5352:5353   */\n  dup3\n    /* \"#utility.yul\":5349:5430   */\n  gt\n    /* \"#utility.yul\":5346:5453   */\n  iszero\n  tag_127\n  jumpi\n    /* \"#utility.yul\":5433:5451   */\n  tag_128\n  tag_52\n  jump\t// in\ntag_128:\n    /* \"#utility.yul\":5346:5453   */\ntag_127:\n    /* \"#utility.yul\":5477:5478   */\n  dup3\n    /* \"#utility.yul\":5474:5475   */\n  dup3\n    /* \"#utility.yul\":5470:5479   */\n  add\n    /* \"#utility.yul\":5463:5479   */\n  swap1\n  pop\n    /* \"#utility.yul\":5180:5485   */\n  swap3\n  swap2\n  pop\n  pop\n  jump\t// out\n    /* \"#utility.yul\":5491:5609   */\ntag_53:\n    /* \"#utility.yul\":5578:5602   */\n  tag_130\n    /* \"#utility.yul\":5596:5601   */\n  dup2\n    /* \"#utility.yul\":5578:5602   */\n  tag_51\n  jump\t// in\ntag_130:\n    /* \"#utility.yul\":5573:5576   */\n  dup3\n    /* \"#utility.yul\":5566:5603   */\n  mstore\n    /* \"#utility.yul\":5491:5609   */\n  pop\n  pop\n  jump\t// out\n    /* \"#utility.yul\":5615:5947   */\ntag_22:\n    /* \"#utility.yul\":5736:5740   */\n  0x00\n    /* \"#utility.yul\":5774:5776   */\n  0x40\n    /* \"#utility.yul\":5763:5772   */\n  dup3\n    /* \"#utility.yul\":5759:5777   */\n  add\n    /* \"#utility.yul\":5751:5777   */\n  swap1\n  pop\n    /* \"#utility.yul\":5787:5858   */\n  tag_132\n    /* \"#utility.yul\":5855:5856   */\n  0x00\n    /* \"#utility.yul\":5844:5853   */\n  dup4\n    /* \"#utility.yul\":5840:5857   */\n  add\n    /* \"#utility.yul\":5831:5837   */\n  dup6\n    /* \"#utility.yul\":5787:5858   */\n  tag_53\n  jump\t// in\ntag_132:\n    /* \"#utility.yul\":5868:5940   */\n  tag_133\n    /* \"#utility.yul\":5936:5938   */\n  0x20\n    /* \"#utility.yul\":5925:5934   */\n  dup4\n    /* \"#utility.yul\":5921:5939   */\n  add\n    /* \"#utility.yul\":5912:5918   */\n  dup5\n    /* \"#utility.yul\":5868:5940   */\n  tag_53\n  jump\t// in\ntag_133:\n    /* \"#utility.yul\":5615:5947   */\n  swap4\n  swap3\n  pop\n  pop\n  pop\n  jump\t// out\n    /* \"#utility.yul\":5953:6071   */\ntag_54:\n    /* \"#utility.yul\":6040:6064   */\n  tag_135\n    /* \"#utility.yul\":6058:6063   */\n  dup2\n    /* \"#utility.yul\":6040:6064   */\n  tag_48\n  jump\t// in\ntag_135:\n    /* \"#utility.yul\":6035:6038   */\n  dup3\n    /* \"#utility.yul\":6028:6065   */\n  mstore\n    /* \"#utility.yul\":5953:6071   */\n  pop\n  pop\n  jump\t// out\n    /* \"#utility.yul\":6077:6175   */\ntag_55:\n    /* \"#utility.yul\":6128:6134   */\n  0x00\n    /* \"#utility.yul\":6162:6167   */\n  dup2\n    /* \"#utility.yul\":6156:6168   */\n  mload\n    /* \"#utility.yul\":6146:6168   */\n  swap1\n  pop\n    /* \"#utility.yul\":6077:6175   */\n  swap2\n  swap1\n  pop\n  jump\t// out\n    /* \"#utility.yul\":6181:6349   */\ntag_56:\n    /* \"#utility.yul\":6264:6275   */\n  0x00\n    /* \"#utility.yul\":6298:6304   */\n  dup3\n    /* \"#utility.yul\":6293:6296   */\n  dup3\n    /* \"#utility.yul\":6286:6305   */\n  mstore\n    /* \"#utility.yul\":6338:6342   */\n  0x20\n    /* \"#utility.yul\":6333:6336   */\n  dup3\n    /* \"#utility.yul\":6329:6343   */\n  add\n    /* \"#utility.yul\":6314:6343   */\n  swap1\n  pop\n    /* \"#utility.yul\":6181:6349   */\n  swap3\n  swap2\n  pop\n  pop\n  jump\t// out\n    /* \"#utility.yul\":6355:6715   */\ntag_57:\n    /* \"#utility.yul\":6441:6444   */\n  0x00\n    /* \"#utility.yul\":6469:6507   */\n  tag_139\n    /* \"#utility.yul\":6501:6506   */\n  dup3\n    /* \"#utility.yul\":6469:6507   */\n  tag_55\n  jump\t// in\ntag_139:\n    /* \"#utility.yul\":6523:6593   */\n  tag_140\n    /* \"#utility.yul\":6586:6592   */\n  dup2\n    /* \"#utility.yul\":6581:6584   */\n  dup6\n    /* \"#utility.yul\":6523:6593   */\n  tag_56\n  jump\t// in\ntag_140:\n    /* \"#utility.yul\":6516:6593   */\n  swap4\n  pop\n    /* \"#utility.yul\":6602:6654   */\n  tag_141\n    /* \"#utility.yul\":6647:6653   */\n  dup2\n    /* \"#utility.yul\":6642:6645   */\n  dup6\n    /* \"#utility.yul\":6635:6639   */\n  0x20\n    /* \"#utility.yul\":6628:6633   */\n  dup7\n    /* \"#utility.yul\":6624:6640   */\n  add\n    /* \"#utility.yul\":6602:6654   */\n  tag_44\n  jump\t// in\ntag_141:\n    /* \"#utility.yul\":6679:6708   */\n  tag_142\n    /* \"#utility.yul\":6701:6707   */\n  dup2\n    /* \"#utility.yul\":6679:6708   */\n  tag_39\n  jump\t// in\ntag_142:\n    /* \"#utility.yul\":6674:6677   */\n  dup5\n    /* \"#utility.yul\":6670:6709   */\n  add\n    /* \"#utility.yul\":6663:6709   */\n  swap2\n  pop\n    /* \"#utility.yul\":6445:6715   */\n  pop\n    /* \"#utility.yul\":6355:6715   */\n  swap3\n  swap2\n  pop\n  pop\n  jump\t// out\n    /* \"#utility.yul\":6721:7472   */\ntag_25:\n    /* \"#utility.yul\":6944:6948   */\n  0x00\n    /* \"#utility.yul\":6982:6985   */\n  0xa0\n    /* \"#utility.yul\":6971:6980   */\n  dup3\n    /* \"#utility.yul\":6967:6986   */\n  add\n    /* \"#utility.yul\":6959:6986   */\n  swap1\n  pop\n    /* \"#utility.yul\":6996:7067   */\n  tag_144\n    /* \"#utility.yul\":7064:7065   */\n  0x00\n    /* \"#utility.yul\":7053:7062   */\n  dup4\n    /* \"#utility.yul\":7049:7066   */\n  add\n    /* \"#utility.yul\":7040:7046   */\n  dup9\n    /* \"#utility.yul\":6996:7067   */\n  tag_54\n  jump\t// in\ntag_144:\n    /* \"#utility.yul\":7077:7149   */\n  tag_145\n    /* \"#utility.yul\":7145:7147   */\n  0x20\n    /* \"#utility.yul\":7134:7143   */\n  dup4\n    /* \"#utility.yul\":7130:7148   */\n  add\n    /* \"#utility.yul\":7121:7127   */\n  dup8\n    /* \"#utility.yul\":7077:7149   */\n  tag_54\n  jump\t// in\ntag_145:\n    /* \"#utility.yul\":7159:7231   */\n  tag_146\n    /* \"#utility.yul\":7227:7229   */\n  0x40\n    /* \"#utility.yul\":7216:7225   */\n  dup4\n    /* \"#utility.yul\":7212:7230   */\n  add\n    /* \"#utility.yul\":7203:7209   */\n  dup7\n    /* \"#utility.yul\":7159:7231   */\n  tag_53\n  jump\t// in\ntag_146:\n    /* \"#utility.yul\":7241:7313   */\n  tag_147\n    /* \"#utility.yul\":7309:7311   */\n  0x60\n    /* \"#utility.yul\":7298:7307   */\n  dup4\n    /* \"#utility.yul\":7294:7312   */\n  add\n    /* \"#utility.yul\":7285:7291   */\n  dup6\n    /* \"#utility.yul\":7241:7313   */\n  tag_53\n  jump\t// in\ntag_147:\n    /* \"#utility.yul\":7361:7370   */\n  dup2\n    /* \"#utility.yul\":7355:7359   */\n  dup2\n    /* \"#utility.yul\":7351:7371   */\n  sub\n    /* \"#utility.yul\":7345:7348   */\n  0x80\n    /* \"#utility.yul\":7334:7343   */\n  dup4\n    /* \"#utility.yul\":7330:7349   */\n  add\n    /* \"#utility.yul\":7323:7372   */\n  mstore\n    /* \"#utility.yul\":7389:7465   */\n  tag_148\n    /* \"#utility.yul\":7460:7464   */\n  dup2\n    /* \"#utility.yul\":7451:7457   */\n  dup5\n    /* \"#utility.yul\":7389:7465   */\n  tag_57\n  jump\t// in\ntag_148:\n    /* \"#utility.yul\":7381:7465   */\n  swap1\n  pop\n    /* \"#utility.yul\":6721:7472   */\n  swap7\n  swap6\n  pop\n  pop\n  pop\n  pop\n  pop\n  pop\n  jump\t// out\n    /* \"#utility.yul\":7478:7627   */\ntag_58:\n    /* \"#utility.yul\":7514:7521   */\n  0x00\n    /* \"#utility.yul\":7554:7620   */\n  0xffffffff00000000000000000000000000000000000000000000000000000000\n    /* \"#utility.yul\":7547:7552   */\n  dup3\n    /* \"#utility.yul\":7543:7621   */\n  and\n    /* \"#utility.yul\":7532:7621   */\n  swap1\n  pop\n    /* \"#utility.yul\":7478:7627   */\n  swap2\n  swap1\n  pop\n  jump\t// out\n    /* \"#utility.yul\":7633:7753   */\ntag_59:\n    /* \"#utility.yul\":7705:7728   */\n  tag_151\n    /* \"#utility.yul\":7722:7727   */\n  dup2\n    /* \"#utility.yul\":7705:7728   */\n  tag_58\n  jump\t// in\ntag_151:\n    /* \"#utility.yul\":7698:7703   */\n  dup2\n    /* \"#utility.yul\":7695:7729   */\n  eq\n    /* \"#utility.yul\":7685:7747   */\n  tag_152\n  jumpi\n    /* \"#utility.yul\":7743:7744   */\n  0x00\n    /* \"#utility.yul\":7740:7741   */\n  dup1\n    /* \"#utility.yul\":7733:7745   */\n  revert\n    /* \"#utility.yul\":7685:7747   */\ntag_152:\n    /* \"#utility.yul\":7633:7753   */\n  pop\n  jump\t// out\n    /* \"#utility.yul\":7759:7900   */\ntag_60:\n    /* \"#utility.yul\":7815:7820   */\n  0x00\n    /* \"#utility.yul\":7846:7852   */\n  dup2\n    /* \"#utility.yul\":7840:7853   */\n  mload\n    /* \"#utility.yul\":7831:7853   */\n  swap1\n  pop\n    /* \"#utility.yul\":7862:7894   */\n  tag_154\n    /* \"#utility.yul\":7888:7893   */\n  dup2\n    /* \"#utility.yul\":7862:7894   */\n  tag_59\n  jump\t// in\ntag_154:\n    /* \"#utility.yul\":7759:7900   */\n  swap3\n  swap2\n  pop\n  pop\n  jump\t// out\n    /* \"#utility.yul\":7906:8255   */\ntag_29:\n    /* \"#utility.yul\":7975:7981   */\n  0x00\n    /* \"#utility.yul\":8024:8026   */\n  0x20\n    /* \"#utility.yul\":8012:8021   */\n  dup3\n    /* \"#utility.yul\":8003:8010   */\n  dup5\n    /* \"#utility.yul\":7999:8022   */\n  sub\n    /* \"#utility.yul\":7995:8027   */\n  slt\n    /* \"#utility.yul\":7992:8111   */\n  iszero\n  tag_156\n  jumpi\n    /* \"#utility.yul\":8030:8109   */\n  tag_157\n  tag_35\n  jump\t// in\ntag_157:\n    /* \"#utility.yul\":7992:8111   */\ntag_156:\n    /* \"#utility.yul\":8150:8151   */\n  0x00\n    /* \"#utility.yul\":8175:8238   */\n  tag_158\n    /* \"#utility.yul\":8230:8237   */\n  dup5\n    /* \"#utility.yul\":8221:8227   */\n  dup3\n    /* \"#utility.yul\":8210:8219   */\n  dup6\n    /* \"#utility.yul\":8206:8228   */\n  add\n    /* \"#utility.yul\":8175:8238   */\n  tag_60\n  jump\t// in\ntag_158:\n    /* \"#utility.yul\":8165:8238   */\n  swap2\n  pop\n    /* \"#utility.yul\":8121:8248   */\n  pop\n    /* \"#utility.yul\":7906:8255   */\n  swap3\n  swap2\n  pop\n  pop\n  jump\t// out\n    /* \"#utility.yul\":8261:8430   */\ntag_61:\n    /* \"#utility.yul\":8345:8356   */\n  0x00\n    /* \"#utility.yul\":8379:8385   */\n  dup3\n    /* \"#utility.yul\":8374:8377   */\n  dup3\n    /* \"#utility.yul\":8367:8386   */\n  mstore\n    /* \"#utility.yul\":8419:8423   */\n  0x20\n    /* \"#utility.yul\":8414:8417   */\n  dup3\n    /* \"#utility.yul\":8410:8424   */\n  add\n    /* \"#utility.yul\":8395:8424   */\n  swap1\n  pop\n    /* \"#utility.yul\":8261:8430   */\n  swap3\n  swap2\n  pop\n  pop\n  jump\t// out\n    /* \"#utility.yul\":8436:8602   */\ntag_62:\n    /* \"#utility.yul\":8576:8594   */\n  0x554e534146455f524543495049454e5400000000000000000000000000000000\n    /* \"#utility.yul\":8572:8573   */\n  0x00\n    /* \"#utility.yul\":8564:8570   */\n  dup3\n    /* \"#utility.yul\":8560:8574   */\n  add\n    /* \"#utility.yul\":8553:8595   */\n  mstore\n    /* \"#utility.yul\":8436:8602   */\n  pop\n  jump\t// out\n    /* \"#utility.yul\":8608:8974   */\ntag_63:\n    /* \"#utility.yul\":8750:8753   */\n  0x00\n    /* \"#utility.yul\":8771:8838   */\n  tag_162\n    /* \"#utility.yul\":8835:8837   */\n  0x10\n    /* \"#utility.yul\":8830:8833   */\n  dup4\n    /* \"#utility.yul\":8771:8838   */\n  tag_61\n  jump\t// in\ntag_162:\n    /* \"#utility.yul\":8764:8838   */\n  swap2\n  pop\n    /* \"#utility.yul\":8847:8940   */\n  tag_163\n    /* \"#utility.yul\":8936:8939   */\n  dup3\n    /* \"#utility.yul\":8847:8940   */\n  tag_62\n  jump\t// in\ntag_163:\n    /* \"#utility.yul\":8965:8967   */\n  0x20\n    /* \"#utility.yul\":8960:8963   */\n  dup3\n    /* \"#utility.yul\":8956:8968   */\n  add\n    /* \"#utility.yul\":8949:8968   */\n  swap1\n  pop\n    /* \"#utility.yul\":8608:8974   */\n  swap2\n  swap1\n  pop\n  jump\t// out\n    /* \"#utility.yul\":8980:9399   */\ntag_33:\n    /* \"#utility.yul\":9146:9150   */\n  0x00\n    /* \"#utility.yul\":9184:9186   */\n  0x20\n    /* \"#utility.yul\":9173:9182   */\n  dup3\n    /* \"#utility.yul\":9169:9187   */\n  add\n    /* \"#utility.yul\":9161:9187   */\n  swap1\n  pop\n    /* \"#utility.yul\":9233:9242   */\n  dup2\n    /* \"#utility.yul\":9227:9231   */\n  dup2\n    /* \"#utility.yul\":9223:9243   */\n  sub\n    /* \"#utility.yul\":9219:9220   */\n  0x00\n    /* \"#utility.yul\":9208:9217   */\n  dup4\n    /* \"#utility.yul\":9204:9221   */\n  add\n    /* \"#utility.yul\":9197:9244   */\n  mstore\n    /* \"#utility.yul\":9261:9392   */\n  tag_165\n    /* \"#utility.yul\":9387:9391   */\n  dup2\n    /* \"#utility.yul\":9261:9392   */\n  tag_63\n  jump\t// in\ntag_165:\n    /* \"#utility.yul\":9253:9392   */\n  swap1\n  pop\n    /* \"#utility.yul\":8980:9399   */\n  swap2\n  swap1\n  pop\n  jump\t// out\n    /* \"contracts/Test Mint Pass v12A.sol\":869:6630  contract TestMintPassv12A is ERC1155, Ownable {... */\ntag_15:\n  mload(0x80)\n  mload(0xa0)\n  mload(0xc0)\n  mload(0xe0)\n  mload(0x0100)\n  mload(0x0120)\n  codecopy(0x00, dataOffset(sub_0), dataSize(sub_0))\n  0x00\n  assignImmutable(\"0xdd6ebedecc3782991b040722d05346ae76115706b237b0f241066a60ee7c2169\")\n  0x00\n  assignImmutable(\"0xf598d05e51facafddb4666a870ba9c91ee31463df052628aed50dc3216257420\")\n  0x00\n  assignImmutable(\"0xd188a1da6d6dfc972f5d1614b9a5ea681202f643e26bdaa8898fb08d79dc84fc\")\n  0x00\n  assignImmutable(\"0x14502941cdfbd1b140f463b7c0eceb6872b4ceed672dc2d6c10bcedbce3171c9\")\n  0x00\n  assignImmutable(\"0x1cecd53757ff41334b0aac95136e45c28b8f0c7557fa90afd0025eaeb7956e02\")\n  0x00\n  assignImmutable(\"0x54d74a311c644ec85dcac6b0313416846d72906b540389d43ad99715f0c32312\")\n  return(0x00, dataSize(sub_0))\nstop\ndata_2952ba3802fe458f9951708d6916a8729c138c4a5ad226fa922d1a7a149cb81d 697066733a2f2f516d5342564736627841626e50704737464b5736627537554c4846484539764a4d394737655563594d6d744a6e7a\ndata_b50854baa3414e38b8fbd26c16643d27c284249af37f951d8232271e21dbb551 697066733a2f2f516d526d4c634b376d614555355578773472507679775677696f445a6a33505659684d7755454335634c744c734e\n\nsub_0: assembly {\n        /* \"contracts/Test Mint Pass v12A.sol\":869:6630  contract TestMintPassv12A is ERC1155, Ownable {... */\n      mstore(0x40, 0x80)\n      callvalue\n      dup1\n      iszero\n      tag_1\n      jumpi\n      0x00\n      dup1\n      revert\n    tag_1:\n      pop\n      jumpi(tag_2, lt(calldatasize, 0x04))\n      shr(0xe0, calldataload(0x00))\n      dup1\n      0x71d05aec\n      gt\n      tag_34\n      jumpi\n      dup1\n      0xcbf99084\n      gt\n      tag_35\n      jumpi\n      dup1\n      0xe985e9c5\n      gt\n      tag_36\n      jumpi\n      dup1\n      0xe985e9c5\n      eq\n      tag_30\n      jumpi\n      dup1\n      0xf242432a\n      eq\n      tag_31\n      jumpi\n      dup1\n      0xf2fde38b\n      eq\n      tag_32\n      jumpi\n      dup1\n      0xf48deaaa\n      eq\n      tag_33\n      jumpi\n      jump(tag_2)\n    tag_36:\n      dup1\n      0xcbf99084\n      eq\n      tag_26\n      jumpi\n      dup1\n      0xcc2851c6\n      eq\n      tag_27\n      jumpi\n      dup1\n      0xdec125ba\n      eq\n      tag_28\n      jumpi\n      dup1\n      0xdf52fa84\n      eq\n      tag_29\n      jumpi\n      jump(tag_2)\n    tag_35:\n      dup1\n      0x9fa3cda1\n      gt\n      tag_37\n      jumpi\n      dup1\n      0x9fa3cda1\n      eq\n      tag_22\n      jumpi\n      dup1\n      0xa22cb465\n      eq\n      tag_23\n      jumpi\n      dup1\n      0xbd85b039\n      eq\n      tag_24\n      jumpi\n      dup1\n      0xc87b56dd\n      eq\n      tag_25\n      jumpi\n      jump(tag_2)\n    tag_37:\n      dup1\n      0x71d05aec\n      eq\n      tag_18\n      jumpi\n      dup1\n      0x8da5cb5b\n      eq\n      tag_19\n      jumpi\n      dup1\n      0x95d89b41\n      eq\n      tag_20\n      jumpi\n      dup1\n      0x9e3cf643\n      eq\n      tag_21\n      jumpi\n      jump(tag_2)\n    tag_34:\n      dup1\n      0x2eb2c2d6\n      gt\n      tag_38\n      jumpi\n      dup1\n      0x45114990\n      gt\n      tag_39\n      jumpi\n      dup1\n      0x45114990\n      eq\n      tag_14\n      jumpi\n      dup1\n      0x4e1273f4\n      eq\n      tag_15\n      jumpi\n      dup1\n      0x6817031b\n      eq\n      tag_16\n      jumpi\n      dup1\n      0x715018a6\n      eq\n      tag_17\n      jumpi\n      jump(tag_2)\n    tag_39:\n      dup1\n      0x2eb2c2d6\n      eq\n      tag_10\n      jumpi\n      dup1\n      0x388b9fe0\n      eq\n      tag_11\n      jumpi\n      dup1\n      0x3ccfd60b\n      eq\n      tag_12\n      jumpi\n      dup1\n      0x430bf08a\n      eq\n      tag_13\n      jumpi\n      jump(tag_2)\n    tag_38:\n      dup1\n      0x09a3beef\n      gt\n      tag_40\n      jumpi\n      dup1\n      0x09a3beef\n      eq\n      tag_6\n      jumpi\n      dup1\n      0x0b22f540\n      eq\n      tag_7\n      jumpi\n      dup1\n      0x0e89341c\n      eq\n      tag_8\n      jumpi\n      dup1\n      0x16473cf7\n      eq\n      tag_9\n      jumpi\n      jump(tag_2)\n    tag_40:\n      dup1\n      0xfdd58e\n      eq\n      tag_3\n      jumpi\n      dup1\n      0x01ffc9a7\n      eq\n      tag_4\n      jumpi\n      dup1\n      0x06fdde03\n      eq\n      tag_5\n      jumpi\n    tag_2:\n      0x00\n      dup1\n      revert\n        /* \"contracts/ERC1155.sol\":1116:1180  mapping(address => mapping(uint256 => uint256)) public balanceOf */\n    tag_3:\n      tag_41\n      0x04\n      dup1\n      calldatasize\n      sub\n      dup2\n      add\n      swap1\n      tag_42\n      swap2\n      swap1\n      tag_43\n      jump\t// in\n    tag_42:\n      tag_44\n      jump\t// in\n    tag_41:\n      mload(0x40)\n      tag_45\n      swap2\n      swap1\n      tag_46\n      jump\t// in\n    tag_45:\n      mload(0x40)\n      dup1\n      swap2\n      sub\n      swap1\n      return\n        /* \"contracts/ERC1155.sol\":4603:4943  function supportsInterface(bytes4 interfaceId) public view virtual returns (bool) {... */\n    tag_4:\n      tag_47\n      0x04\n      dup1\n      calldatasize\n      sub\n      dup2\n      add\n      swap1\n      tag_48\n      swap2\n      swap1\n      tag_49\n      jump\t// in\n    tag_48:\n      tag_50\n      jump\t// in\n    tag_47:\n      mload(0x40)\n      tag_51\n      swap2\n      swap1\n      tag_52\n      jump\t// in\n    tag_51:\n      mload(0x40)\n      dup1\n      swap2\n      sub\n      swap1\n      return\n        /* \"contracts/Test Mint Pass v12A.sol\":1104:1122  string public name */\n    tag_5:\n      tag_53\n      tag_54\n      jump\t// in\n    tag_53:\n      mload(0x40)\n      tag_55\n      swap2\n      swap1\n      tag_56\n      jump\t// in\n    tag_55:\n      mload(0x40)\n      dup1\n      swap2\n      sub\n      swap1\n      return\n        /* \"contracts/Test Mint Pass v12A.sol\":3940:4084  function setTokenURI(string memory _newTokenURI, uint256 tokenId)... */\n    tag_6:\n      tag_57\n      0x04\n      dup1\n      calldatasize\n      sub\n      dup2\n      add\n      swap1\n      tag_58\n      swap2\n      swap1\n      tag_59\n      jump\t// in\n    tag_58:\n      tag_60\n      jump\t// in\n    tag_57:\n      stop\n        /* \"contracts/Test Mint Pass v12A.sol\":2212:2270  mapping(address => uint256) public TestMintPassBlackMinted */\n    tag_7:\n      tag_61\n      0x04\n      dup1\n      calldatasize\n      sub\n      dup2\n      add\n      swap1\n      tag_62\n      swap2\n      swap1\n      tag_63\n      jump\t// in\n    tag_62:\n      tag_64\n      jump\t// in\n    tag_61:\n      mload(0x40)\n      tag_65\n      swap2\n      swap1\n      tag_46\n      jump\t// in\n    tag_65:\n      mload(0x40)\n      dup1\n      swap2\n      sub\n      swap1\n      return\n        /* \"contracts/Test Mint Pass v12A.sol\":6372:6626  function uri(uint256 tokenId)... */\n    tag_8:\n      tag_66\n      0x04\n      dup1\n      calldatasize\n      sub\n      dup2\n      add\n      swap1\n      tag_67\n      swap2\n      swap1\n      tag_68\n      jump\t// in\n    tag_67:\n      tag_69\n      jump\t// in\n    tag_66:\n      mload(0x40)\n      tag_70\n      swap2\n      swap1\n      tag_56\n      jump\t// in\n    tag_70:\n      mload(0x40)\n      dup1\n      swap2\n      sub\n      swap1\n      return\n        /* \"contracts/Test Mint Pass v12A.sol\":4179:4464  function mintScholarship(address to) public onlyOwner {... */\n    tag_9:\n      tag_71\n      0x04\n      dup1\n      calldatasize\n      sub\n      dup2\n      add\n      swap1\n      tag_72\n      swap2\n      swap1\n      tag_63\n      jump\t// in\n    tag_72:\n      tag_73\n      jump\t// in\n    tag_71:\n      stop\n        /* \"contracts/ERC1155.sol\":2617:3826  function safeBatchTransferFrom(... */\n    tag_10:\n      tag_74\n      0x04\n      dup1\n      calldatasize\n      sub\n      dup2\n      add\n      swap1\n      tag_75\n      swap2\n      swap1\n      tag_76\n      jump\t// in\n    tag_75:\n      tag_77\n      jump\t// in\n    tag_74:\n      stop\n        /* \"contracts/Test Mint Pass v12A.sol\":4786:5624  function ownerMint(... */\n    tag_11:\n      tag_78\n      0x04\n      dup1\n      calldatasize\n      sub\n      dup2\n      add\n      swap1\n      tag_79\n      swap2\n      swap1\n      tag_80\n      jump\t// in\n    tag_79:\n      tag_81\n      jump\t// in\n    tag_78:\n      stop\n        /* \"contracts/Test Mint Pass v12A.sol\":5886:6071  function withdraw() public onlyOwner {... */\n    tag_12:\n      tag_82\n      tag_83\n      jump\t// in\n    tag_82:\n      stop\n        /* \"contracts/Test Mint Pass v12A.sol\":1154:1181  address public vaultAddress */\n    tag_13:\n      tag_84\n      tag_85\n      jump\t// in\n    tag_84:\n      mload(0x40)\n      tag_86\n      swap2\n      swap1\n      tag_87\n      jump\t// in\n    tag_86:\n      mload(0x40)\n      dup1\n      swap2\n      sub\n      swap1\n      return\n        /* \"contracts/Test Mint Pass v12A.sol\":1432:1491  uint256 public immutable Test_Mint_Pass_BlueMaxSupply = 330 */\n    tag_14:\n      tag_88\n      tag_89\n      jump\t// in\n    tag_88:\n      mload(0x40)\n      tag_90\n      swap2\n      swap1\n      tag_46\n      jump\t// in\n    tag_90:\n      mload(0x40)\n      dup1\n      swap2\n      sub\n      swap1\n      return\n        /* \"contracts/ERC1155.sol\":3832:4415  function balanceOfBatch(address[] calldata owners, uint256[] calldata ids)... */\n    tag_15:\n      tag_91\n      0x04\n      dup1\n      calldatasize\n      sub\n      dup2\n      add\n      swap1\n      tag_92\n      swap2\n      swap1\n      tag_93\n      jump\t// in\n    tag_92:\n      tag_94\n      jump\t// in\n    tag_91:\n      mload(0x40)\n      tag_95\n      swap2\n      swap1\n      tag_96\n      jump\t// in\n    tag_95:\n      mload(0x40)\n      dup1\n      swap2\n      sub\n      swap1\n      return\n        /* \"contracts/Test Mint Pass v12A.sol\":6169:6272  function setVault(address _vaultAddress) public onlyOwner {... */\n    tag_16:\n      tag_97\n      0x04\n      dup1\n      calldatasize\n      sub\n      dup2\n      add\n      swap1\n      tag_98\n      swap2\n      swap1\n      tag_63\n      jump\t// in\n    tag_98:\n      tag_99\n      jump\t// in\n    tag_97:\n      stop\n        /* \"contracts/Ownable.sol\":1689:1790  function renounceOwnership() public virtual onlyOwner {... */\n    tag_17:\n      tag_100\n      tag_101\n      jump\t// in\n    tag_100:\n      stop\n        /* \"contracts/Test Mint Pass v12A.sol\":1703:1758  uint256 public immutable Test_Mint_Pass_BlueTokenId = 2 */\n    tag_18:\n      tag_102\n      tag_103\n      jump\t// in\n    tag_102:\n      mload(0x40)\n      tag_104\n      swap2\n      swap1\n      tag_46\n      jump\t// in\n    tag_104:\n      mload(0x40)\n      dup1\n      swap2\n      sub\n      swap1\n      return\n        /* \"contracts/Ownable.sol\":1057:1142  function owner() public view virtual returns (address) {... */\n    tag_19:\n      tag_105\n      tag_106\n      jump\t// in\n    tag_105:\n      mload(0x40)\n      tag_107\n      swap2\n      swap1\n      tag_87\n      jump\t// in\n    tag_107:\n      mload(0x40)\n      dup1\n      swap2\n      sub\n      swap1\n      return\n        /* \"contracts/Test Mint Pass v12A.sol\":1128:1148  string public symbol */\n    tag_20:\n      tag_108\n      tag_109\n      jump\t// in\n    tag_108:\n      mload(0x40)\n      tag_110\n      swap2\n      swap1\n      tag_56\n      jump\t// in\n    tag_110:\n      mload(0x40)\n      dup1\n      swap2\n      sub\n      swap1\n      return\n        /* \"contracts/Test Mint Pass v12A.sol\":1641:1697  uint256 public immutable Test_Mint_Pass_BlackTokenId = 1 */\n    tag_21:\n      tag_111\n      tag_112\n      jump\t// in\n    tag_111:\n      mload(0x40)\n      tag_113\n      swap2\n      swap1\n      tag_46\n      jump\t// in\n    tag_113:\n      mload(0x40)\n      dup1\n      swap2\n      sub\n      swap1\n      return\n        /* \"contracts/Test Mint Pass v12A.sol\":2149:2206  mapping(address => uint256) public TestMintPassBlueMinted */\n    tag_22:\n      tag_114\n      0x04\n      dup1\n      calldatasize\n      sub\n      dup2\n      add\n      swap1\n      tag_115\n      swap2\n      swap1\n      tag_63\n      jump\t// in\n    tag_115:\n      tag_116\n      jump\t// in\n    tag_114:\n      mload(0x40)\n      tag_117\n      swap2\n      swap1\n      tag_46\n      jump\t// in\n    tag_117:\n      mload(0x40)\n      dup1\n      swap2\n      sub\n      swap1\n      return\n        /* \"contracts/ERC1155.sol\":1703:1906  function setApprovalForAll(address operator, bool approved) public virtual {... */\n    tag_23:\n      tag_118\n      0x04\n      dup1\n      calldatasize\n      sub\n      dup2\n      add\n      swap1\n      tag_119\n      swap2\n      swap1\n      tag_120\n      jump\t// in\n    tag_119:\n      tag_121\n      jump\t// in\n    tag_118:\n      stop\n        /* \"contracts/Test Mint Pass v12A.sol\":3474:3585  function totalSupply(uint256 id) public view virtual returns (uint256) {... */\n    tag_24:\n      tag_122\n      0x04\n      dup1\n      calldatasize\n      sub\n      dup2\n      add\n      swap1\n      tag_123\n      swap2\n      swap1\n      tag_68\n      jump\t// in\n    tag_123:\n      tag_124\n      jump\t// in\n    tag_122:\n      mload(0x40)\n      tag_125\n      swap2\n      swap1\n      tag_46\n      jump\t// in\n    tag_125:\n      mload(0x40)\n      dup1\n      swap2\n      sub\n      swap1\n      return\n        /* \"contracts/Test Mint Pass v12A.sol\":2101:2143  mapping(uint256 => string) public tokenURI */\n    tag_25:\n      tag_126\n      0x04\n      dup1\n      calldatasize\n      sub\n      dup2\n      add\n      swap1\n      tag_127\n      swap2\n      swap1\n      tag_68\n      jump\t// in\n    tag_127:\n      tag_128\n      jump\t// in\n    tag_126:\n      mload(0x40)\n      tag_129\n      swap2\n      swap1\n      tag_56\n      jump\t// in\n    tag_129:\n      mload(0x40)\n      dup1\n      swap2\n      sub\n      swap1\n      return\n        /* \"contracts/Test Mint Pass v12A.sol\":1764:1812  uint256 public constant Test_Mint_Pass_Black = 1 */\n    tag_26:\n      tag_130\n      tag_131\n      jump\t// in\n    tag_130:\n      mload(0x40)\n      tag_132\n      swap2\n      swap1\n      tag_46\n      jump\t// in\n    tag_132:\n      mload(0x40)\n      dup1\n      swap2\n      sub\n      swap1\n      return\n        /* \"contracts/Test Mint Pass v12A.sol\":1818:1865  uint256 public constant Test_Mint_Pass_Blue = 2 */\n    tag_27:\n      tag_133\n      tag_134\n      jump\t// in\n    tag_133:\n      mload(0x40)\n      tag_135\n      swap2\n      swap1\n      tag_46\n      jump\t// in\n    tag_135:\n      mload(0x40)\n      dup1\n      swap2\n      sub\n      swap1\n      return\n        /* \"contracts/Test Mint Pass v12A.sol\":1497:1563  uint256 public immutable Test_Mint_Pass_BlackScholarshipTotal = 17 */\n    tag_28:\n      tag_136\n      tag_137\n      jump\t// in\n    tag_136:\n      mload(0x40)\n      tag_138\n      swap2\n      swap1\n      tag_46\n      jump\t// in\n    tag_138:\n      mload(0x40)\n      dup1\n      swap2\n      sub\n      swap1\n      return\n        /* \"contracts/Test Mint Pass v12A.sol\":1569:1634  uint256 public immutable Test_Mint_Pass_BlueScholarshipTotal = 33 */\n    tag_29:\n      tag_139\n      tag_140\n      jump\t// in\n    tag_139:\n      mload(0x40)\n      tag_141\n      swap2\n      swap1\n      tag_46\n      jump\t// in\n    tag_141:\n      mload(0x40)\n      dup1\n      swap2\n      sub\n      swap1\n      return\n        /* \"contracts/ERC1155.sol\":1187:1255  mapping(address => mapping(address => bool)) public isApprovedForAll */\n    tag_30:\n      tag_142\n      0x04\n      dup1\n      calldatasize\n      sub\n      dup2\n      add\n      swap1\n      tag_143\n      swap2\n      swap1\n      tag_144\n      jump\t// in\n    tag_143:\n      tag_145\n      jump\t// in\n    tag_142:\n      mload(0x40)\n      tag_146\n      swap2\n      swap1\n      tag_52\n      jump\t// in\n    tag_146:\n      mload(0x40)\n      dup1\n      swap2\n      sub\n      swap1\n      return\n        /* \"contracts/ERC1155.sol\":1912:2611  function safeTransferFrom(... */\n    tag_31:\n      tag_147\n      0x04\n      dup1\n      calldatasize\n      sub\n      dup2\n      add\n      swap1\n      tag_148\n      swap2\n      swap1\n      tag_149\n      jump\t// in\n    tag_148:\n      tag_150\n      jump\t// in\n    tag_147:\n      stop\n        /* \"contracts/Ownable.sol\":1939:2137  function transferOwnership(address newOwner) public virtual onlyOwner {... */\n    tag_32:\n      tag_151\n      0x04\n      dup1\n      calldatasize\n      sub\n      dup2\n      add\n      swap1\n      tag_152\n      swap2\n      swap1\n      tag_63\n      jump\t// in\n    tag_152:\n      tag_153\n      jump\t// in\n    tag_151:\n      stop\n        /* \"contracts/Test Mint Pass v12A.sol\":1366:1426  uint256 public immutable Test_Mint_Pass_BlackMaxSupply = 166 */\n    tag_33:\n      tag_154\n      tag_155\n      jump\t// in\n    tag_154:\n      mload(0x40)\n      tag_156\n      swap2\n      swap1\n      tag_46\n      jump\t// in\n    tag_156:\n      mload(0x40)\n      dup1\n      swap2\n      sub\n      swap1\n      return\n        /* \"contracts/ERC1155.sol\":1116:1180  mapping(address => mapping(uint256 => uint256)) public balanceOf */\n    tag_44:\n      mstore(0x20, 0x00)\n      dup2\n      0x00\n      mstore\n      mstore(0x20, keccak256(0x00, 0x40))\n      dup1\n      0x00\n      mstore\n      keccak256(0x00, 0x40)\n      0x00\n      swap2\n      pop\n      swap2\n      pop\n      pop\n      sload\n      dup2\n      jump\t// out\n        /* \"contracts/ERC1155.sol\":4603:4943  function supportsInterface(bytes4 interfaceId) public view virtual returns (bool) {... */\n    tag_50:\n        /* \"contracts/ERC1155.sol\":4679:4683  bool */\n      0x00\n        /* \"contracts/ERC1155.sol\":4729:4739  0x01ffc9a7 */\n      0x01ffc9a7\n        /* \"contracts/ERC1155.sol\":4714:4739  interfaceId == 0x01ffc9a7 */\n      0xe0\n      shl\n        /* \"contracts/ERC1155.sol\":4714:4725  interfaceId */\n      dup3\n        /* \"contracts/ERC1155.sol\":4714:4739  interfaceId == 0x01ffc9a7 */\n      not(0xffffffffffffffffffffffffffffffffffffffffffffffffffffffff)\n      and\n      eq\n        /* \"contracts/ERC1155.sol\":4714:4814  interfaceId == 0x01ffc9a7 || // ERC165 Interface ID for ERC165... */\n      dup1\n      tag_158\n      jumpi\n      pop\n        /* \"contracts/ERC1155.sol\":4804:4814  0xd9b67a26 */\n      0xd9b67a26\n        /* \"contracts/ERC1155.sol\":4789:4814  interfaceId == 0xd9b67a26 */\n      0xe0\n      shl\n        /* \"contracts/ERC1155.sol\":4789:4800  interfaceId */\n      dup3\n        /* \"contracts/ERC1155.sol\":4789:4814  interfaceId == 0xd9b67a26 */\n      not(0xffffffffffffffffffffffffffffffffffffffffffffffffffffffff)\n      and\n      eq\n        /* \"contracts/ERC1155.sol\":4714:4814  interfaceId == 0x01ffc9a7 || // ERC165 Interface ID for ERC165... */\n    tag_158:\n        /* \"contracts/ERC1155.sol\":4714:4890  interfaceId == 0x01ffc9a7 || // ERC165 Interface ID for ERC165... */\n      dup1\n      tag_159\n      jumpi\n      pop\n        /* \"contracts/ERC1155.sol\":4880:4890  0x0e89341c */\n      0x0e89341c\n        /* \"contracts/ERC1155.sol\":4865:4890  interfaceId == 0x0e89341c */\n      0xe0\n      shl\n        /* \"contracts/ERC1155.sol\":4865:4876  interfaceId */\n      dup3\n        /* \"contracts/ERC1155.sol\":4865:4890  interfaceId == 0x0e89341c */\n      not(0xffffffffffffffffffffffffffffffffffffffffffffffffffffffff)\n      and\n      eq\n        /* \"contracts/ERC1155.sol\":4714:4890  interfaceId == 0x01ffc9a7 || // ERC165 Interface ID for ERC165... */\n    tag_159:\n        /* \"contracts/ERC1155.sol\":4695:4890  return... */\n      swap1\n      pop\n        /* \"contracts/ERC1155.sol\":4603:4943  function supportsInterface(bytes4 interfaceId) public view virtual returns (bool) {... */\n      swap2\n      swap1\n      pop\n      jump\t// out\n        /* \"contracts/Test Mint Pass v12A.sol\":1104:1122  string public name */\n    tag_54:\n      0x03\n      dup1\n      sload\n      tag_160\n      swap1\n      tag_161\n      jump\t// in\n    tag_160:\n      dup1\n      0x1f\n      add\n      0x20\n      dup1\n      swap2\n      div\n      mul\n      0x20\n      add\n      mload(0x40)\n      swap1\n      dup2\n      add\n      0x40\n      mstore\n      dup1\n      swap3\n      swap2\n      swap1\n      dup2\n      dup2\n      mstore\n      0x20\n      add\n      dup3\n      dup1\n      sload\n      tag_162\n      swap1\n      tag_161\n      jump\t// in\n    tag_162:\n      dup1\n      iszero\n      tag_163\n      jumpi\n      dup1\n      0x1f\n      lt\n      tag_164\n      jumpi\n      0x0100\n      dup1\n      dup4\n      sload\n      div\n      mul\n      dup4\n      mstore\n      swap2\n      0x20\n      add\n      swap2\n      jump(tag_163)\n    tag_164:\n      dup3\n      add\n      swap2\n      swap1\n      0x00\n      mstore\n      keccak256(0x00, 0x20)\n      swap1\n    tag_165:\n      dup2\n      sload\n      dup2\n      mstore\n      swap1\n      0x01\n      add\n      swap1\n      0x20\n      add\n      dup1\n      dup4\n      gt\n      tag_165\n      jumpi\n      dup3\n      swap1\n      sub\n      0x1f\n      and\n      dup3\n      add\n      swap2\n    tag_163:\n      pop\n      pop\n      pop\n      pop\n      pop\n      dup2\n      jump\t// out\n        /* \"contracts/Test Mint Pass v12A.sol\":3940:4084  function setTokenURI(string memory _newTokenURI, uint256 tokenId)... */\n    tag_60:\n        /* \"contracts/Ownable.sol\":1280:1292  _msgSender() */\n      tag_167\n        /* \"contracts/Ownable.sol\":1280:1290  _msgSender */\n      tag_168\n        /* \"contracts/Ownable.sol\":1280:1292  _msgSender() */\n      jump\t// in\n    tag_167:\n        /* \"contracts/Ownable.sol\":1269:1292  owner() == _msgSender() */\n      0xffffffffffffffffffffffffffffffffffffffff\n      and\n        /* \"contracts/Ownable.sol\":1269:1276  owner() */\n      tag_169\n        /* \"contracts/Ownable.sol\":1269:1274  owner */\n      tag_106\n        /* \"contracts/Ownable.sol\":1269:1276  owner() */\n      jump\t// in\n    tag_169:\n        /* \"contracts/Ownable.sol\":1269:1292  owner() == _msgSender() */\n      0xffffffffffffffffffffffffffffffffffffffff\n      and\n      eq\n        /* \"contracts/Ownable.sol\":1261:1329  require(owner() == _msgSender(), \"Ownable: caller is not the owner\") */\n      tag_170\n      jumpi\n      mload(0x40)\n      0x08c379a000000000000000000000000000000000000000000000000000000000\n      dup2\n      mstore\n      0x04\n      add\n      tag_171\n      swap1\n      tag_172\n      jump\t// in\n    tag_171:\n      mload(0x40)\n      dup1\n      swap2\n      sub\n      swap1\n      revert\n    tag_170:\n        /* \"contracts/Test Mint Pass v12A.sol\":4065:4077  _newTokenURI */\n      dup2\n        /* \"contracts/Test Mint Pass v12A.sol\":4045:4053  tokenURI */\n      0x07\n        /* \"contracts/Test Mint Pass v12A.sol\":4045:4062  tokenURI[tokenId] */\n      0x00\n        /* \"contracts/Test Mint Pass v12A.sol\":4054:4061  tokenId */\n      dup4\n        /* \"contracts/Test Mint Pass v12A.sol\":4045:4062  tokenURI[tokenId] */\n      dup2\n      mstore\n      0x20\n      add\n      swap1\n      dup2\n      mstore\n      0x20\n      add\n      0x00\n      keccak256\n        /* \"contracts/Test Mint Pass v12A.sol\":4045:4077  tokenURI[tokenId] = _newTokenURI */\n      swap1\n      dup1\n      mload\n      swap1\n      0x20\n      add\n      swap1\n      tag_174\n      swap3\n      swap2\n      swap1\n      tag_175\n      jump\t// in\n    tag_174:\n      pop\n        /* \"contracts/Test Mint Pass v12A.sol\":3940:4084  function setTokenURI(string memory _newTokenURI, uint256 tokenId)... */\n      pop\n      pop\n      jump\t// out\n        /* \"contracts/Test Mint Pass v12A.sol\":2212:2270  mapping(address => uint256) public TestMintPassBlackMinted */\n    tag_64:\n      mstore(0x20, 0x09)\n      dup1\n      0x00\n      mstore\n      keccak256(0x00, 0x40)\n      0x00\n      swap2\n      pop\n      swap1\n      pop\n      sload\n      dup2\n      jump\t// out\n        /* \"contracts/Test Mint Pass v12A.sol\":6372:6626  function uri(uint256 tokenId)... */\n    tag_69:\n        /* \"contracts/Test Mint Pass v12A.sol\":6480:6493  string memory */\n      0x60\n        /* \"contracts/Test Mint Pass v12A.sol\":6548:6549  0 */\n      0x00\n        /* \"contracts/Test Mint Pass v12A.sol\":6519:6527  tokenURI */\n      0x07\n        /* \"contracts/Test Mint Pass v12A.sol\":6519:6536  tokenURI[tokenId] */\n      0x00\n        /* \"contracts/Test Mint Pass v12A.sol\":6528:6535  tokenId */\n      dup5\n        /* \"contracts/Test Mint Pass v12A.sol\":6519:6536  tokenURI[tokenId] */\n      dup2\n      mstore\n      0x20\n      add\n      swap1\n      dup2\n      mstore\n      0x20\n      add\n      0x00\n      keccak256\n        /* \"contracts/Test Mint Pass v12A.sol\":6513:6544  bytes(tokenURI[tokenId]).length */\n      dup1\n      sload\n      tag_177\n      swap1\n      tag_161\n      jump\t// in\n    tag_177:\n      swap1\n      pop\n        /* \"contracts/Test Mint Pass v12A.sol\":6513:6549  bytes(tokenURI[tokenId]).length == 0 */\n      eq\n        /* \"contracts/Test Mint Pass v12A.sol\":6509:6585  if (bytes(tokenURI[tokenId]).length == 0) {... */\n      iszero\n      tag_178\n      jumpi\n        /* \"contracts/Test Mint Pass v12A.sol\":6565:6574  return \"\" */\n      mload(0x40)\n      dup1\n      0x20\n      add\n      0x40\n      mstore\n      dup1\n      0x00\n      dup2\n      mstore\n      pop\n      swap1\n      pop\n      jump(tag_176)\n        /* \"contracts/Test Mint Pass v12A.sol\":6509:6585  if (bytes(tokenURI[tokenId]).length == 0) {... */\n    tag_178:\n        /* \"contracts/Test Mint Pass v12A.sol\":6602:6610  tokenURI */\n      0x07\n        /* \"contracts/Test Mint Pass v12A.sol\":6602:6619  tokenURI[tokenId] */\n      0x00\n        /* \"contracts/Test Mint Pass v12A.sol\":6611:6618  tokenId */\n      dup4\n        /* \"contracts/Test Mint Pass v12A.sol\":6602:6619  tokenURI[tokenId] */\n      dup2\n      mstore\n      0x20\n      add\n      swap1\n      dup2\n      mstore\n      0x20\n      add\n      0x00\n      keccak256\n        /* \"contracts/Test Mint Pass v12A.sol\":6595:6619  return tokenURI[tokenId] */\n      dup1\n      sload\n      tag_179\n      swap1\n      tag_161\n      jump\t// in\n    tag_179:\n      dup1\n      0x1f\n      add\n      0x20\n      dup1\n      swap2\n      div\n      mul\n      0x20\n      add\n      mload(0x40)\n      swap1\n      dup2\n      add\n      0x40\n      mstore\n      dup1\n      swap3\n      swap2\n      swap1\n      dup2\n      dup2\n      mstore\n      0x20\n      add\n      dup3\n      dup1\n      sload\n      tag_180\n      swap1\n      tag_161\n      jump\t// in\n    tag_180:\n      dup1\n      iszero\n      tag_181\n      jumpi\n      dup1\n      0x1f\n      lt\n      tag_182\n      jumpi\n      0x0100\n      dup1\n      dup4\n      sload\n      div\n      mul\n      dup4\n      mstore\n      swap2\n      0x20\n      add\n      swap2\n      jump(tag_181)\n    tag_182:\n      dup3\n      add\n      swap2\n      swap1\n      0x00\n      mstore\n      keccak256(0x00, 0x20)\n      swap1\n    tag_183:\n      dup2\n      sload\n      dup2\n      mstore\n      swap1\n      0x01\n      add\n      swap1\n      0x20\n      add\n      dup1\n      dup4\n      gt\n      tag_183\n      jumpi\n      dup3\n      swap1\n      sub\n      0x1f\n      and\n      dup3\n      add\n      swap2\n    tag_181:\n      pop\n      pop\n      pop\n      pop\n      pop\n      swap1\n      pop\n        /* \"contracts/Test Mint Pass v12A.sol\":6372:6626  function uri(uint256 tokenId)... */\n    tag_176:\n      swap2\n      swap1\n      pop\n      jump\t// out\n        /* \"contracts/Test Mint Pass v12A.sol\":4179:4464  function mintScholarship(address to) public onlyOwner {... */\n    tag_73:\n        /* \"contracts/Ownable.sol\":1280:1292  _msgSender() */\n      tag_185\n        /* \"contracts/Ownable.sol\":1280:1290  _msgSender */\n      tag_168\n        /* \"contracts/Ownable.sol\":1280:1292  _msgSender() */\n      jump\t// in\n    tag_185:\n        /* \"contracts/Ownable.sol\":1269:1292  owner() == _msgSender() */\n      0xffffffffffffffffffffffffffffffffffffffff\n      and\n        /* \"contracts/Ownable.sol\":1269:1276  owner() */\n      tag_186\n        /* \"contracts/Ownable.sol\":1269:1274  owner */\n      tag_106\n        /* \"contracts/Ownable.sol\":1269:1276  owner() */\n      jump\t// in\n    tag_186:\n        /* \"contracts/Ownable.sol\":1269:1292  owner() == _msgSender() */\n      0xffffffffffffffffffffffffffffffffffffffff\n      and\n      eq\n        /* \"contracts/Ownable.sol\":1261:1329  require(owner() == _msgSender(), \"Ownable: caller is not the owner\") */\n      tag_187\n      jumpi\n      mload(0x40)\n      0x08c379a000000000000000000000000000000000000000000000000000000000\n      dup2\n      mstore\n      0x04\n      add\n      tag_188\n      swap1\n      tag_172\n      jump\t// in\n    tag_188:\n      mload(0x40)\n      dup1\n      swap2\n      sub\n      swap1\n      revert\n    tag_187:\n        /* \"contracts/Test Mint Pass v12A.sol\":4265:4345  _mint(to, Test_Mint_Pass_BlackTokenId, Test_Mint_Pass_BlackScholarshipTotal, \"\") */\n      tag_190\n        /* \"contracts/Test Mint Pass v12A.sol\":4271:4273  to */\n      dup2\n        /* \"contracts/Test Mint Pass v12A.sol\":4275:4302  Test_Mint_Pass_BlackTokenId */\n      immutable(\"0xf598d05e51facafddb4666a870ba9c91ee31463df052628aed50dc3216257420\")\n        /* \"contracts/Test Mint Pass v12A.sol\":4304:4340  Test_Mint_Pass_BlackScholarshipTotal */\n      immutable(\"0x14502941cdfbd1b140f463b7c0eceb6872b4ceed672dc2d6c10bcedbce3171c9\")\n        /* \"contracts/Test Mint Pass v12A.sol\":4265:4345  _mint(to, Test_Mint_Pass_BlackTokenId, Test_Mint_Pass_BlackScholarshipTotal, \"\") */\n      mload(0x40)\n      dup1\n      0x20\n      add\n      0x40\n      mstore\n      dup1\n      0x00\n      dup2\n      mstore\n      pop\n        /* \"contracts/Test Mint Pass v12A.sol\":4265:4270  _mint */\n      tag_191\n        /* \"contracts/Test Mint Pass v12A.sol\":4265:4345  _mint(to, Test_Mint_Pass_BlackTokenId, Test_Mint_Pass_BlackScholarshipTotal, \"\") */\n      jump\t// in\n    tag_190:\n        /* \"contracts/Test Mint Pass v12A.sol\":4379:4457  _mint(to, Test_Mint_Pass_BlueTokenId, Test_Mint_Pass_BlueScholarshipTotal, \"\") */\n      tag_192\n        /* \"contracts/Test Mint Pass v12A.sol\":4385:4387  to */\n      dup2\n        /* \"contracts/Test Mint Pass v12A.sol\":4389:4415  Test_Mint_Pass_BlueTokenId */\n      immutable(\"0xdd6ebedecc3782991b040722d05346ae76115706b237b0f241066a60ee7c2169\")\n        /* \"contracts/Test Mint Pass v12A.sol\":4417:4452  Test_Mint_Pass_BlueScholarshipTotal */\n      immutable(\"0xd188a1da6d6dfc972f5d1614b9a5ea681202f643e26bdaa8898fb08d79dc84fc\")\n        /* \"contracts/Test Mint Pass v12A.sol\":4379:4457  _mint(to, Test_Mint_Pass_BlueTokenId, Test_Mint_Pass_BlueScholarshipTotal, \"\") */\n      mload(0x40)\n      dup1\n      0x20\n      add\n      0x40\n      mstore\n      dup1\n      0x00\n      dup2\n      mstore\n      pop\n        /* \"contracts/Test Mint Pass v12A.sol\":4379:4384  _mint */\n      tag_191\n        /* \"contracts/Test Mint Pass v12A.sol\":4379:4457  _mint(to, Test_Mint_Pass_BlueTokenId, Test_Mint_Pass_BlueScholarshipTotal, \"\") */\n      jump\t// in\n    tag_192:\n        /* \"contracts/Test Mint Pass v12A.sol\":4179:4464  function mintScholarship(address to) public onlyOwner {... */\n      pop\n      jump\t// out\n        /* \"contracts/ERC1155.sol\":2617:3826  function safeBatchTransferFrom(... */\n    tag_77:\n        /* \"contracts/ERC1155.sol\":2840:2847  amounts */\n      dup4\n      dup4\n        /* \"contracts/ERC1155.sol\":2840:2854  amounts.length */\n      swap1\n      pop\n        /* \"contracts/ERC1155.sol\":2826:2829  ids */\n      dup7\n      dup7\n        /* \"contracts/ERC1155.sol\":2826:2836  ids.length */\n      swap1\n      pop\n        /* \"contracts/ERC1155.sol\":2826:2854  ids.length == amounts.length */\n      eq\n        /* \"contracts/ERC1155.sol\":2818:2874  require(ids.length == amounts.length, \"LENGTH_MISMATCH\") */\n      tag_194\n      jumpi\n      mload(0x40)\n      0x08c379a000000000000000000000000000000000000000000000000000000000\n      dup2\n      mstore\n      0x04\n      add\n      tag_195\n      swap1\n      tag_196\n      jump\t// in\n    tag_195:\n      mload(0x40)\n      dup1\n      swap2\n      sub\n      swap1\n      revert\n    tag_194:\n        /* \"contracts/ERC1155.sol\":2907:2911  from */\n      dup8\n        /* \"contracts/ERC1155.sol\":2893:2911  msg.sender == from */\n      0xffffffffffffffffffffffffffffffffffffffff\n      and\n        /* \"contracts/ERC1155.sol\":2893:2903  msg.sender */\n      caller\n        /* \"contracts/ERC1155.sol\":2893:2911  msg.sender == from */\n      0xffffffffffffffffffffffffffffffffffffffff\n      and\n      eq\n        /* \"contracts/ERC1155.sol\":2893:2949  msg.sender == from || isApprovedForAll[from][msg.sender] */\n      dup1\n      tag_197\n      jumpi\n      pop\n        /* \"contracts/ERC1155.sol\":2915:2931  isApprovedForAll */\n      0x01\n        /* \"contracts/ERC1155.sol\":2915:2937  isApprovedForAll[from] */\n      0x00\n        /* \"contracts/ERC1155.sol\":2932:2936  from */\n      dup10\n        /* \"contracts/ERC1155.sol\":2915:2937  isApprovedForAll[from] */\n      0xffffffffffffffffffffffffffffffffffffffff\n      and\n      0xffffffffffffffffffffffffffffffffffffffff\n      and\n      dup2\n      mstore\n      0x20\n      add\n      swap1\n      dup2\n      mstore\n      0x20\n      add\n      0x00\n      keccak256\n        /* \"contracts/ERC1155.sol\":2915:2949  isApprovedForAll[from][msg.sender] */\n      0x00\n        /* \"contracts/ERC1155.sol\":2938:2948  msg.sender */\n      caller\n        /* \"contracts/ERC1155.sol\":2915:2949  isApprovedForAll[from][msg.sender] */\n      0xffffffffffffffffffffffffffffffffffffffff\n      and\n      0xffffffffffffffffffffffffffffffffffffffff\n      and\n      dup2\n      mstore\n      0x20\n      add\n      swap1\n      dup2\n      mstore\n      0x20\n      add\n      0x00\n      keccak256\n      0x00\n      swap1\n      sload\n      swap1\n      0x0100\n      exp\n      swap1\n      div\n      0xff\n      and\n        /* \"contracts/ERC1155.sol\":2893:2949  msg.sender == from || isApprovedForAll[from][msg.sender] */\n    tag_197:\n        /* \"contracts/ERC1155.sol\":2885:2968  require(msg.sender == from || isApprovedForAll[from][msg.sender], \"NOT_AUTHORIZED\") */\n      tag_198\n      jumpi\n      mload(0x40)\n      0x08c379a000000000000000000000000000000000000000000000000000000000\n      dup2\n      mstore\n      0x04\n      add\n      tag_199\n      swap1\n      tag_200\n      jump\t// in\n    tag_199:\n      mload(0x40)\n      dup1\n      swap2\n      sub\n      swap1\n      revert\n    tag_198:\n        /* \"contracts/ERC1155.sol\":3050:3060  uint256 id */\n      0x00\n        /* \"contracts/ERC1155.sol\":3070:3084  uint256 amount */\n      dup1\n        /* \"contracts/ERC1155.sol\":3100:3109  uint256 i */\n      0x00\n        /* \"contracts/ERC1155.sol\":3095:3447  for (uint256 i = 0; i < ids.length; ) {... */\n    tag_201:\n        /* \"contracts/ERC1155.sol\":3119:3122  ids */\n      dup9\n      dup9\n        /* \"contracts/ERC1155.sol\":3119:3129  ids.length */\n      swap1\n      pop\n        /* \"contracts/ERC1155.sol\":3115:3116  i */\n      dup2\n        /* \"contracts/ERC1155.sol\":3115:3129  i < ids.length */\n      lt\n        /* \"contracts/ERC1155.sol\":3095:3447  for (uint256 i = 0; i < ids.length; ) {... */\n      iszero\n      tag_202\n      jumpi\n        /* \"contracts/ERC1155.sol\":3152:3155  ids */\n      dup9\n      dup9\n        /* \"contracts/ERC1155.sol\":3156:3157  i */\n      dup3\n        /* \"contracts/ERC1155.sol\":3152:3158  ids[i] */\n      dup2\n      dup2\n      lt\n      tag_204\n      jumpi\n      tag_205\n      tag_206\n      jump\t// in\n    tag_205:\n    tag_204:\n      swap1\n      pop\n      0x20\n      mul\n      add\n      calldataload\n        /* \"contracts/ERC1155.sol\":3147:3158  id = ids[i] */\n      swap3\n      pop\n        /* \"contracts/ERC1155.sol\":3181:3188  amounts */\n      dup7\n      dup7\n        /* \"contracts/ERC1155.sol\":3189:3190  i */\n      dup3\n        /* \"contracts/ERC1155.sol\":3181:3191  amounts[i] */\n      dup2\n      dup2\n      lt\n      tag_207\n      jumpi\n      tag_208\n      tag_206\n      jump\t// in\n    tag_208:\n    tag_207:\n      swap1\n      pop\n      0x20\n      mul\n      add\n      calldataload\n        /* \"contracts/ERC1155.sol\":3172:3191  amount = amounts[i] */\n      swap2\n      pop\n        /* \"contracts/ERC1155.sol\":3229:3235  amount */\n      dup2\n        /* \"contracts/ERC1155.sol\":3206:3215  balanceOf */\n      0x00\n        /* \"contracts/ERC1155.sol\":3206:3221  balanceOf[from] */\n      dup1\n        /* \"contracts/ERC1155.sol\":3216:3220  from */\n      dup14\n        /* \"contracts/ERC1155.sol\":3206:3221  balanceOf[from] */\n      0xffffffffffffffffffffffffffffffffffffffff\n      and\n      0xffffffffffffffffffffffffffffffffffffffff\n      and\n      dup2\n      mstore\n      0x20\n      add\n      swap1\n      dup2\n      mstore\n      0x20\n      add\n      0x00\n      keccak256\n        /* \"contracts/ERC1155.sol\":3206:3225  balanceOf[from][id] */\n      0x00\n        /* \"contracts/ERC1155.sol\":3222:3224  id */\n      dup6\n        /* \"contracts/ERC1155.sol\":3206:3225  balanceOf[from][id] */\n      dup2\n      mstore\n      0x20\n      add\n      swap1\n      dup2\n      mstore\n      0x20\n      add\n      0x00\n      keccak256\n      0x00\n        /* \"contracts/ERC1155.sol\":3206:3235  balanceOf[from][id] -= amount */\n      dup3\n      dup3\n      sload\n      tag_209\n      swap2\n      swap1\n      tag_210\n      jump\t// in\n    tag_209:\n      swap3\n      pop\n      pop\n      dup2\n      swap1\n      sstore\n      pop\n        /* \"contracts/ERC1155.sol\":3270:3276  amount */\n      dup2\n        /* \"contracts/ERC1155.sol\":3249:3258  balanceOf */\n      0x00\n        /* \"contracts/ERC1155.sol\":3249:3262  balanceOf[to] */\n      dup1\n        /* \"contracts/ERC1155.sol\":3259:3261  to */\n      dup13\n        /* \"contracts/ERC1155.sol\":3249:3262  balanceOf[to] */\n      0xffffffffffffffffffffffffffffffffffffffff\n      and\n      0xffffffffffffffffffffffffffffffffffffffff\n      and\n      dup2\n      mstore\n      0x20\n      add\n      swap1\n      dup2\n      mstore\n      0x20\n      add\n      0x00\n      keccak256\n        /* \"contracts/ERC1155.sol\":3249:3266  balanceOf[to][id] */\n      0x00\n        /* \"contracts/ERC1155.sol\":3263:3265  id */\n      dup6\n        /* \"contracts/ERC1155.sol\":3249:3266  balanceOf[to][id] */\n      dup2\n      mstore\n      0x20\n      add\n      swap1\n      dup2\n      mstore\n      0x20\n      add\n      0x00\n      keccak256\n      0x00\n        /* \"contracts/ERC1155.sol\":3249:3276  balanceOf[to][id] += amount */\n      dup3\n      dup3\n      sload\n      tag_211\n      swap2\n      swap1\n      tag_212\n      jump\t// in\n    tag_211:\n      swap3\n      pop\n      pop\n      dup2\n      swap1\n      sstore\n      pop\n        /* \"contracts/ERC1155.sol\":3419:3422  ++i */\n      dup1\n      0x01\n      add\n      swap1\n      pop\n        /* \"contracts/ERC1155.sol\":3095:3447  for (uint256 i = 0; i < ids.length; ) {... */\n      jump(tag_201)\n    tag_202:\n      pop\n        /* \"contracts/ERC1155.sol\":3494:3496  to */\n      dup9\n        /* \"contracts/ERC1155.sol\":3462:3511  TransferBatch(msg.sender, from, to, ids, amounts) */\n      0xffffffffffffffffffffffffffffffffffffffff\n      and\n        /* \"contracts/ERC1155.sol\":3488:3492  from */\n      dup11\n        /* \"contracts/ERC1155.sol\":3462:3511  TransferBatch(msg.sender, from, to, ids, amounts) */\n      0xffffffffffffffffffffffffffffffffffffffff\n      and\n        /* \"contracts/ERC1155.sol\":3476:3486  msg.sender */\n      caller\n        /* \"contracts/ERC1155.sol\":3462:3511  TransferBatch(msg.sender, from, to, ids, amounts) */\n      0xffffffffffffffffffffffffffffffffffffffff\n      and\n      0x4a39dc06d4c0dbc64b70af90fd698a233a518aa5d07e595d983b8c0526c8f7fb\n        /* \"contracts/ERC1155.sol\":3498:3501  ids */\n      dup12\n      dup12\n        /* \"contracts/ERC1155.sol\":3503:3510  amounts */\n      dup12\n      dup12\n        /* \"contracts/ERC1155.sol\":3462:3511  TransferBatch(msg.sender, from, to, ids, amounts) */\n      mload(0x40)\n      tag_213\n      swap5\n      swap4\n      swap3\n      swap2\n      swap1\n      tag_214\n      jump\t// in\n    tag_213:\n      mload(0x40)\n      dup1\n      swap2\n      sub\n      swap1\n      log4\n        /* \"contracts/ERC1155.sol\":3561:3562  0 */\n      0x00\n        /* \"contracts/ERC1155.sol\":3543:3545  to */\n      dup10\n        /* \"contracts/ERC1155.sol\":3543:3557  to.code.length */\n      0xffffffffffffffffffffffffffffffffffffffff\n      and\n      extcodesize\n        /* \"contracts/ERC1155.sol\":3543:3562  to.code.length == 0 */\n      eq\n        /* \"contracts/ERC1155.sol\":3543:3777  to.code.length == 0... */\n      tag_215\n      jumpi\n        /* \"contracts/ERC1155.sol\":3725:3777  ERC1155TokenReceiver.onERC1155BatchReceived.selector */\n      shl(0xe0, 0xbc197c81)\n        /* \"contracts/ERC1155.sol\":3616:3777  ERC1155TokenReceiver(to).onERC1155BatchReceived(msg.sender, from, ids, amounts, data) ==... */\n      not(0xffffffffffffffffffffffffffffffffffffffffffffffffffffffff)\n      and\n        /* \"contracts/ERC1155.sol\":3637:3639  to */\n      dup10\n        /* \"contracts/ERC1155.sol\":3616:3663  ERC1155TokenReceiver(to).onERC1155BatchReceived */\n      0xffffffffffffffffffffffffffffffffffffffff\n      and\n      0xbc197c81\n        /* \"contracts/ERC1155.sol\":3664:3674  msg.sender */\n      caller\n        /* \"contracts/ERC1155.sol\":3676:3680  from */\n      dup14\n        /* \"contracts/ERC1155.sol\":3682:3685  ids */\n      dup13\n      dup13\n        /* \"contracts/ERC1155.sol\":3687:3694  amounts */\n      dup13\n      dup13\n        /* \"contracts/ERC1155.sol\":3696:3700  data */\n      dup13\n      dup13\n        /* \"contracts/ERC1155.sol\":3616:3701  ERC1155TokenReceiver(to).onERC1155BatchReceived(msg.sender, from, ids, amounts, data) */\n      mload(0x40)\n      dup10\n      0xffffffff\n      and\n      0xe0\n      shl\n      dup2\n      mstore\n      0x04\n      add\n      tag_216\n      swap9\n      swap8\n      swap7\n      swap6\n      swap5\n      swap4\n      swap3\n      swap2\n      swap1\n      tag_217\n      jump\t// in\n    tag_216:\n      0x20\n      mload(0x40)\n      dup1\n      dup4\n      sub\n      dup2\n      0x00\n      dup8\n      gas\n      call\n      iszero\n      dup1\n      iszero\n      tag_219\n      jumpi\n      returndatasize\n      0x00\n      dup1\n      returndatacopy\n      revert(0x00, returndatasize)\n    tag_219:\n      pop\n      pop\n      pop\n      pop\n      mload(0x40)\n      returndatasize\n      not(0x1f)\n      0x1f\n      dup3\n      add\n      and\n      dup3\n      add\n      dup1\n      0x40\n      mstore\n      pop\n      dup2\n      add\n      swap1\n      tag_220\n      swap2\n      swap1\n      tag_221\n      jump\t// in\n    tag_220:\n        /* \"contracts/ERC1155.sol\":3616:3777  ERC1155TokenReceiver(to).onERC1155BatchReceived(msg.sender, from, ids, amounts, data) ==... */\n      not(0xffffffffffffffffffffffffffffffffffffffffffffffffffffffff)\n      and\n      eq\n        /* \"contracts/ERC1155.sol\":3543:3777  to.code.length == 0... */\n      jump(tag_222)\n    tag_215:\n        /* \"contracts/ERC1155.sol\":3595:3596  0 */\n      0x00\n        /* \"contracts/ERC1155.sol\":3581:3597  to != address(0) */\n      0xffffffffffffffffffffffffffffffffffffffff\n      and\n        /* \"contracts/ERC1155.sol\":3581:3583  to */\n      dup10\n        /* \"contracts/ERC1155.sol\":3581:3597  to != address(0) */\n      0xffffffffffffffffffffffffffffffffffffffff\n      and\n      eq\n      iszero\n        /* \"contracts/ERC1155.sol\":3543:3777  to.code.length == 0... */\n    tag_222:\n        /* \"contracts/ERC1155.sol\":3522:3819  require(... */\n      tag_223\n      jumpi\n      mload(0x40)\n      0x08c379a000000000000000000000000000000000000000000000000000000000\n      dup2\n      mstore\n      0x04\n      add\n      tag_224\n      swap1\n      tag_225\n      jump\t// in\n    tag_224:\n      mload(0x40)\n      dup1\n      swap2\n      sub\n      swap1\n      revert\n    tag_223:\n        /* \"contracts/ERC1155.sol\":2808:3826  {... */\n      pop\n      pop\n        /* \"contracts/ERC1155.sol\":2617:3826  function safeBatchTransferFrom(... */\n      pop\n      pop\n      pop\n      pop\n      pop\n      pop\n      pop\n      pop\n      jump\t// out\n        /* \"contracts/Test Mint Pass v12A.sol\":4786:5624  function ownerMint(... */\n    tag_81:\n        /* \"contracts/Ownable.sol\":1280:1292  _msgSender() */\n      tag_227\n        /* \"contracts/Ownable.sol\":1280:1290  _msgSender */\n      tag_168\n        /* \"contracts/Ownable.sol\":1280:1292  _msgSender() */\n      jump\t// in\n    tag_227:\n        /* \"contracts/Ownable.sol\":1269:1292  owner() == _msgSender() */\n      0xffffffffffffffffffffffffffffffffffffffff\n      and\n        /* \"contracts/Ownable.sol\":1269:1276  owner() */\n      tag_228\n        /* \"contracts/Ownable.sol\":1269:1274  owner */\n      tag_106\n        /* \"contracts/Ownable.sol\":1269:1276  owner() */\n      jump\t// in\n    tag_228:\n        /* \"contracts/Ownable.sol\":1269:1292  owner() == _msgSender() */\n      0xffffffffffffffffffffffffffffffffffffffff\n      and\n      eq\n        /* \"contracts/Ownable.sol\":1261:1329  require(owner() == _msgSender(), \"Ownable: caller is not the owner\") */\n      tag_229\n      jumpi\n      mload(0x40)\n      0x08c379a000000000000000000000000000000000000000000000000000000000\n      dup2\n      mstore\n      0x04\n      add\n      tag_230\n      swap1\n      tag_172\n      jump\t// in\n    tag_230:\n      mload(0x40)\n      dup1\n      swap2\n      sub\n      swap1\n      revert\n    tag_229:\n        /* \"contracts/Test Mint Pass v12A.sol\":4939:4965  Test_Mint_Pass_BlueTokenId */\n      immutable(\"0xdd6ebedecc3782991b040722d05346ae76115706b237b0f241066a60ee7c2169\")\n        /* \"contracts/Test Mint Pass v12A.sol\":4928:4935  tokenId */\n      dup2\n        /* \"contracts/Test Mint Pass v12A.sol\":4928:4965  tokenId == Test_Mint_Pass_BlueTokenId */\n      eq\n        /* \"contracts/Test Mint Pass v12A.sol\":4928:5007  tokenId == Test_Mint_Pass_BlueTokenId || tokenId == Test_Mint_Pass_BlackTokenId */\n      dup1\n      tag_232\n      jumpi\n      pop\n        /* \"contracts/Test Mint Pass v12A.sol\":4980:5007  Test_Mint_Pass_BlackTokenId */\n      immutable(\"0xf598d05e51facafddb4666a870ba9c91ee31463df052628aed50dc3216257420\")\n        /* \"contracts/Test Mint Pass v12A.sol\":4969:4976  tokenId */\n      dup2\n        /* \"contracts/Test Mint Pass v12A.sol\":4969:5007  tokenId == Test_Mint_Pass_BlackTokenId */\n      eq\n        /* \"contracts/Test Mint Pass v12A.sol\":4928:5007  tokenId == Test_Mint_Pass_BlueTokenId || tokenId == Test_Mint_Pass_BlackTokenId */\n    tag_232:\n        /* \"contracts/Test Mint Pass v12A.sol\":4907:5060  require(... */\n      tag_233\n      jumpi\n      mload(0x40)\n      0x08c379a000000000000000000000000000000000000000000000000000000000\n      dup2\n      mstore\n      0x04\n      add\n      tag_234\n      swap1\n      tag_235\n      jump\t// in\n    tag_234:\n      mload(0x40)\n      dup1\n      swap2\n      sub\n      swap1\n      revert\n    tag_233:\n        /* \"contracts/Test Mint Pass v12A.sol\":5086:5112  Test_Mint_Pass_BlueTokenId */\n      immutable(\"0xdd6ebedecc3782991b040722d05346ae76115706b237b0f241066a60ee7c2169\")\n        /* \"contracts/Test Mint Pass v12A.sol\":5075:5082  tokenId */\n      dup2\n        /* \"contracts/Test Mint Pass v12A.sol\":5075:5112  tokenId == Test_Mint_Pass_BlueTokenId */\n      eq\n        /* \"contracts/Test Mint Pass v12A.sol\":5071:5618  if (tokenId == Test_Mint_Pass_BlueTokenId) {... */\n      iszero\n      tag_236\n      jumpi\n        /* \"contracts/Test Mint Pass v12A.sol\":5205:5233  Test_Mint_Pass_BlueMaxSupply */\n      immutable(\"0x1cecd53757ff41334b0aac95136e45c28b8f0c7557fa90afd0025eaeb7956e02\")\n        /* \"contracts/Test Mint Pass v12A.sol\":5162:5201  totalSupply(Test_Mint_Pass_BlueTokenId) */\n      tag_237\n        /* \"contracts/Test Mint Pass v12A.sol\":5174:5200  Test_Mint_Pass_BlueTokenId */\n      immutable(\"0xdd6ebedecc3782991b040722d05346ae76115706b237b0f241066a60ee7c2169\")\n        /* \"contracts/Test Mint Pass v12A.sol\":5162:5173  totalSupply */\n      tag_124\n        /* \"contracts/Test Mint Pass v12A.sol\":5162:5201  totalSupply(Test_Mint_Pass_BlueTokenId) */\n      jump\t// in\n    tag_237:\n        /* \"contracts/Test Mint Pass v12A.sol\":5153:5159  amount */\n      dup4\n        /* \"contracts/Test Mint Pass v12A.sol\":5153:5201  amount + totalSupply(Test_Mint_Pass_BlueTokenId) */\n      tag_238\n      swap2\n      swap1\n      tag_212\n      jump\t// in\n    tag_238:\n        /* \"contracts/Test Mint Pass v12A.sol\":5153:5233  amount + totalSupply(Test_Mint_Pass_BlueTokenId) <= Test_Mint_Pass_BlueMaxSupply */\n      gt\n      iszero\n        /* \"contracts/Test Mint Pass v12A.sol\":5128:5307  require(... */\n      tag_239\n      jumpi\n      mload(0x40)\n      0x08c379a000000000000000000000000000000000000000000000000000000000\n      dup2\n      mstore\n      0x04\n      add\n      tag_240\n      swap1\n      tag_241\n      jump\t// in\n    tag_240:\n      mload(0x40)\n      dup1\n      swap2\n      sub\n      swap1\n      revert\n    tag_239:\n        /* \"contracts/Test Mint Pass v12A.sol\":5321:5351  _mint(to, tokenId, amount, \"\") */\n      tag_242\n        /* \"contracts/Test Mint Pass v12A.sol\":5327:5329  to */\n      dup4\n        /* \"contracts/Test Mint Pass v12A.sol\":5331:5338  tokenId */\n      dup3\n        /* \"contracts/Test Mint Pass v12A.sol\":5340:5346  amount */\n      dup5\n        /* \"contracts/Test Mint Pass v12A.sol\":5321:5351  _mint(to, tokenId, amount, \"\") */\n      mload(0x40)\n      dup1\n      0x20\n      add\n      0x40\n      mstore\n      dup1\n      0x00\n      dup2\n      mstore\n      pop\n        /* \"contracts/Test Mint Pass v12A.sol\":5321:5326  _mint */\n      tag_191\n        /* \"contracts/Test Mint Pass v12A.sol\":5321:5351  _mint(to, tokenId, amount, \"\") */\n      jump\t// in\n    tag_242:\n        /* \"contracts/Test Mint Pass v12A.sol\":5071:5618  if (tokenId == Test_Mint_Pass_BlueTokenId) {... */\n      jump(tag_243)\n    tag_236:\n        /* \"contracts/Test Mint Pass v12A.sol\":5460:5489  Test_Mint_Pass_BlackMaxSupply */\n      immutable(\"0x54d74a311c644ec85dcac6b0313416846d72906b540389d43ad99715f0c32312\")\n        /* \"contracts/Test Mint Pass v12A.sol\":5416:5456  totalSupply(Test_Mint_Pass_BlackTokenId) */\n      tag_244\n        /* \"contracts/Test Mint Pass v12A.sol\":5428:5455  Test_Mint_Pass_BlackTokenId */\n      immutable(\"0xf598d05e51facafddb4666a870ba9c91ee31463df052628aed50dc3216257420\")\n        /* \"contracts/Test Mint Pass v12A.sol\":5416:5427  totalSupply */\n      tag_124\n        /* \"contracts/Test Mint Pass v12A.sol\":5416:5456  totalSupply(Test_Mint_Pass_BlackTokenId) */\n      jump\t// in\n    tag_244:\n        /* \"contracts/Test Mint Pass v12A.sol\":5407:5413  amount */\n      dup4\n        /* \"contracts/Test Mint Pass v12A.sol\":5407:5456  amount + totalSupply(Test_Mint_Pass_BlackTokenId) */\n      tag_245\n      swap2\n      swap1\n      tag_212\n      jump\t// in\n    tag_245:\n        /* \"contracts/Test Mint Pass v12A.sol\":5407:5489  amount + totalSupply(Test_Mint_Pass_BlackTokenId) <= Test_Mint_Pass_BlackMaxSupply */\n      gt\n      iszero\n        /* \"contracts/Test Mint Pass v12A.sol\":5382:5563  require(... */\n      tag_246\n      jumpi\n      mload(0x40)\n      0x08c379a000000000000000000000000000000000000000000000000000000000\n      dup2\n      mstore\n      0x04\n      add\n      tag_247\n      swap1\n      tag_241\n      jump\t// in\n    tag_247:\n      mload(0x40)\n      dup1\n      swap2\n      sub\n      swap1\n      revert\n    tag_246:\n        /* \"contracts/Test Mint Pass v12A.sol\":5577:5607  _mint(to, tokenId, amount, \"\") */\n      tag_248\n        /* \"contracts/Test Mint Pass v12A.sol\":5583:5585  to */\n      dup4\n        /* \"contracts/Test Mint Pass v12A.sol\":5587:5594  tokenId */\n      dup3\n        /* \"contracts/Test Mint Pass v12A.sol\":5596:5602  amount */\n      dup5\n        /* \"contracts/Test Mint Pass v12A.sol\":5577:5607  _mint(to, tokenId, amount, \"\") */\n      mload(0x40)\n      dup1\n      0x20\n      add\n      0x40\n      mstore\n      dup1\n      0x00\n      dup2\n      mstore\n      pop\n        /* \"contracts/Test Mint Pass v12A.sol\":5577:5582  _mint */\n      tag_191\n        /* \"contracts/Test Mint Pass v12A.sol\":5577:5607  _mint(to, tokenId, amount, \"\") */\n      jump\t// in\n    tag_248:\n        /* \"contracts/Test Mint Pass v12A.sol\":5071:5618  if (tokenId == Test_Mint_Pass_BlueTokenId) {... */\n    tag_243:\n        /* \"contracts/Test Mint Pass v12A.sol\":4786:5624  function ownerMint(... */\n      pop\n      pop\n      pop\n      jump\t// out\n        /* \"contracts/Test Mint Pass v12A.sol\":5886:6071  function withdraw() public onlyOwner {... */\n    tag_83:\n        /* \"contracts/Ownable.sol\":1280:1292  _msgSender() */\n      tag_250\n        /* \"contracts/Ownable.sol\":1280:1290  _msgSender */\n      tag_168\n        /* \"contracts/Ownable.sol\":1280:1292  _msgSender() */\n      jump\t// in\n    tag_250:\n        /* \"contracts/Ownable.sol\":1269:1292  owner() == _msgSender() */\n      0xffffffffffffffffffffffffffffffffffffffff\n      and\n        /* \"contracts/Ownable.sol\":1269:1276  owner() */\n      tag_251\n        /* \"contracts/Ownable.sol\":1269:1274  owner */\n      tag_106\n        /* \"contracts/Ownable.sol\":1269:1276  owner() */\n      jump\t// in\n    tag_251:\n        /* \"contracts/Ownable.sol\":1269:1292  owner() == _msgSender() */\n      0xffffffffffffffffffffffffffffffffffffffff\n      and\n      eq\n        /* \"contracts/Ownable.sol\":1261:1329  require(owner() == _msgSender(), \"Ownable: caller is not the owner\") */\n      tag_252\n      jumpi\n      mload(0x40)\n      0x08c379a000000000000000000000000000000000000000000000000000000000\n      dup2\n      mstore\n      0x04\n      add\n      tag_253\n      swap1\n      tag_172\n      jump\t// in\n    tag_253:\n      mload(0x40)\n      dup1\n      swap2\n      sub\n      swap1\n      revert\n    tag_252:\n        /* \"contracts/Test Mint Pass v12A.sol\":5962:5963  0 */\n      0x00\n        /* \"contracts/Test Mint Pass v12A.sol\":5937:5958  address(this).balance */\n      selfbalance\n        /* \"contracts/Test Mint Pass v12A.sol\":5937:5963  address(this).balance == 0 */\n      eq\n        /* \"contracts/Test Mint Pass v12A.sol\":5933:5986  if (address(this).balance == 0) revert NoEthBalance() */\n      iszero\n      tag_255\n      jumpi\n        /* \"contracts/Test Mint Pass v12A.sol\":5972:5986  NoEthBalance() */\n      mload(0x40)\n      0xa8088f3800000000000000000000000000000000000000000000000000000000\n      dup2\n      mstore\n      0x04\n      add\n      mload(0x40)\n      dup1\n      swap2\n      sub\n      swap1\n      revert\n        /* \"contracts/Test Mint Pass v12A.sol\":5933:5986  if (address(this).balance == 0) revert NoEthBalance() */\n    tag_255:\n        /* \"contracts/Test Mint Pass v12A.sol\":5996:6064  SafeTransferLib.safeTransferETH(vaultAddress, address(this).balance) */\n      tag_256\n        /* \"contracts/Test Mint Pass v12A.sol\":6028:6040  vaultAddress */\n      0x05\n      0x00\n      swap1\n      sload\n      swap1\n      0x0100\n      exp\n      swap1\n      div\n      0xffffffffffffffffffffffffffffffffffffffff\n      and\n        /* \"contracts/Test Mint Pass v12A.sol\":6042:6063  address(this).balance */\n      selfbalance\n        /* \"contracts/Test Mint Pass v12A.sol\":5996:6027  SafeTransferLib.safeTransferETH */\n      tag_257\n        /* \"contracts/Test Mint Pass v12A.sol\":5996:6064  SafeTransferLib.safeTransferETH(vaultAddress, address(this).balance) */\n      jump\t// in\n    tag_256:\n        /* \"contracts/Test Mint Pass v12A.sol\":5886:6071  function withdraw() public onlyOwner {... */\n      jump\t// out\n        /* \"contracts/Test Mint Pass v12A.sol\":1154:1181  address public vaultAddress */\n    tag_85:\n      0x05\n      0x00\n      swap1\n      sload\n      swap1\n      0x0100\n      exp\n      swap1\n      div\n      0xffffffffffffffffffffffffffffffffffffffff\n      and\n      dup2\n      jump\t// out\n        /* \"contracts/Test Mint Pass v12A.sol\":1432:1491  uint256 public immutable Test_Mint_Pass_BlueMaxSupply = 330 */\n    tag_89:\n      immutable(\"0x1cecd53757ff41334b0aac95136e45c28b8f0c7557fa90afd0025eaeb7956e02\")\n      dup2\n      jump\t// out\n        /* \"contracts/ERC1155.sol\":3832:4415  function balanceOfBatch(address[] calldata owners, uint256[] calldata ids)... */\n    tag_94:\n        /* \"contracts/ERC1155.sol\":3968:3993  uint256[] memory balances */\n      0x60\n        /* \"contracts/ERC1155.sol\":4034:4037  ids */\n      dup3\n      dup3\n        /* \"contracts/ERC1155.sol\":4034:4044  ids.length */\n      swap1\n      pop\n        /* \"contracts/ERC1155.sol\":4017:4023  owners */\n      dup6\n      dup6\n        /* \"contracts/ERC1155.sol\":4017:4030  owners.length */\n      swap1\n      pop\n        /* \"contracts/ERC1155.sol\":4017:4044  owners.length == ids.length */\n      eq\n        /* \"contracts/ERC1155.sol\":4009:4064  require(owners.length == ids.length, \"LENGTH_MISMATCH\") */\n      tag_259\n      jumpi\n      mload(0x40)\n      0x08c379a000000000000000000000000000000000000000000000000000000000\n      dup2\n      mstore\n      0x04\n      add\n      tag_260\n      swap1\n      tag_196\n      jump\t// in\n    tag_260:\n      mload(0x40)\n      dup1\n      swap2\n      sub\n      swap1\n      revert\n    tag_259:\n        /* \"contracts/ERC1155.sol\":4100:4106  owners */\n      dup5\n      dup5\n        /* \"contracts/ERC1155.sol\":4100:4113  owners.length */\n      swap1\n      pop\n        /* \"contracts/ERC1155.sol\":4086:4114  new uint256[](owners.length) */\n      0xffffffffffffffff\n      dup2\n      gt\n      iszero\n      tag_261\n      jumpi\n      tag_262\n      tag_263\n      jump\t// in\n    tag_262:\n    tag_261:\n      mload(0x40)\n      swap1\n      dup1\n      dup3\n      mstore\n      dup1\n      0x20\n      mul\n      0x20\n      add\n      dup3\n      add\n      0x40\n      mstore\n      dup1\n      iszero\n      tag_264\n      jumpi\n      dup2\n      0x20\n      add\n      0x20\n      dup3\n      mul\n      dup1\n      calldatasize\n      dup4\n      calldatacopy\n      dup1\n      dup3\n      add\n      swap2\n      pop\n      pop\n      swap1\n      pop\n    tag_264:\n      pop\n        /* \"contracts/ERC1155.sol\":4075:4114  balances = new uint256[](owners.length) */\n      swap1\n      pop\n        /* \"contracts/ERC1155.sol\":4285:4294  uint256 i */\n      0x00\n        /* \"contracts/ERC1155.sol\":4280:4399  for (uint256 i = 0; i < owners.length; ++i) {... */\n    tag_265:\n        /* \"contracts/ERC1155.sol\":4304:4310  owners */\n      dup6\n      dup6\n        /* \"contracts/ERC1155.sol\":4304:4317  owners.length */\n      swap1\n      pop\n        /* \"contracts/ERC1155.sol\":4300:4301  i */\n      dup2\n        /* \"contracts/ERC1155.sol\":4300:4317  i < owners.length */\n      lt\n        /* \"contracts/ERC1155.sol\":4280:4399  for (uint256 i = 0; i < owners.length; ++i) {... */\n      iszero\n      tag_266\n      jumpi\n        /* \"contracts/ERC1155.sol\":4356:4365  balanceOf */\n      0x00\n        /* \"contracts/ERC1155.sol\":4356:4376  balanceOf[owners[i]] */\n      dup1\n        /* \"contracts/ERC1155.sol\":4366:4372  owners */\n      dup8\n      dup8\n        /* \"contracts/ERC1155.sol\":4373:4374  i */\n      dup5\n        /* \"contracts/ERC1155.sol\":4366:4375  owners[i] */\n      dup2\n      dup2\n      lt\n      tag_268\n      jumpi\n      tag_269\n      tag_206\n      jump\t// in\n    tag_269:\n    tag_268:\n      swap1\n      pop\n      0x20\n      mul\n      add\n      0x20\n      dup2\n      add\n      swap1\n      tag_270\n      swap2\n      swap1\n      tag_63\n      jump\t// in\n    tag_270:\n        /* \"contracts/ERC1155.sol\":4356:4376  balanceOf[owners[i]] */\n      0xffffffffffffffffffffffffffffffffffffffff\n      and\n      0xffffffffffffffffffffffffffffffffffffffff\n      and\n      dup2\n      mstore\n      0x20\n      add\n      swap1\n      dup2\n      mstore\n      0x20\n      add\n      0x00\n      keccak256\n        /* \"contracts/ERC1155.sol\":4356:4384  balanceOf[owners[i]][ids[i]] */\n      0x00\n        /* \"contracts/ERC1155.sol\":4377:4380  ids */\n      dup6\n      dup6\n        /* \"contracts/ERC1155.sol\":4381:4382  i */\n      dup5\n        /* \"contracts/ERC1155.sol\":4377:4383  ids[i] */\n      dup2\n      dup2\n      lt\n      tag_271\n      jumpi\n      tag_272\n      tag_206\n      jump\t// in\n    tag_272:\n    tag_271:\n      swap1\n      pop\n      0x20\n      mul\n      add\n      calldataload\n        /* \"contracts/ERC1155.sol\":4356:4384  balanceOf[owners[i]][ids[i]] */\n      dup2\n      mstore\n      0x20\n      add\n      swap1\n      dup2\n      mstore\n      0x20\n      add\n      0x00\n      keccak256\n      sload\n        /* \"contracts/ERC1155.sol\":4342:4350  balances */\n      dup3\n        /* \"contracts/ERC1155.sol\":4351:4352  i */\n      dup3\n        /* \"contracts/ERC1155.sol\":4342:4353  balances[i] */\n      dup2\n      mload\n      dup2\n      lt\n      tag_273\n      jumpi\n      tag_274\n      tag_206\n      jump\t// in\n    tag_274:\n    tag_273:\n      0x20\n      mul\n      0x20\n      add\n      add\n        /* \"contracts/ERC1155.sol\":4342:4384  balances[i] = balanceOf[owners[i]][ids[i]] */\n      dup2\n      dup2\n      mstore\n      pop\n      pop\n        /* \"contracts/ERC1155.sol\":4319:4322  ++i */\n      dup1\n      0x01\n      add\n      swap1\n      pop\n        /* \"contracts/ERC1155.sol\":4280:4399  for (uint256 i = 0; i < owners.length; ++i) {... */\n      jump(tag_265)\n    tag_266:\n      pop\n        /* \"contracts/ERC1155.sol\":3832:4415  function balanceOfBatch(address[] calldata owners, uint256[] calldata ids)... */\n      swap5\n      swap4\n      pop\n      pop\n      pop\n      pop\n      jump\t// out\n        /* \"contracts/Test Mint Pass v12A.sol\":6169:6272  function setVault(address _vaultAddress) public onlyOwner {... */\n    tag_99:\n        /* \"contracts/Ownable.sol\":1280:1292  _msgSender() */\n      tag_276\n        /* \"contracts/Ownable.sol\":1280:1290  _msgSender */\n      tag_168\n        /* \"contracts/Ownable.sol\":1280:1292  _msgSender() */\n      jump\t// in\n    tag_276:\n        /* \"contracts/Ownable.sol\":1269:1292  owner() == _msgSender() */\n      0xffffffffffffffffffffffffffffffffffffffff\n      and\n        /* \"contracts/Ownable.sol\":1269:1276  owner() */\n      tag_277\n        /* \"contracts/Ownable.sol\":1269:1274  owner */\n      tag_106\n        /* \"contracts/Ownable.sol\":1269:1276  owner() */\n      jump\t// in\n    tag_277:\n        /* \"contracts/Ownable.sol\":1269:1292  owner() == _msgSender() */\n      0xffffffffffffffffffffffffffffffffffffffff\n      and\n      eq\n        /* \"contracts/Ownable.sol\":1261:1329  require(owner() == _msgSender(), \"Ownable: caller is not the owner\") */\n      tag_278\n      jumpi\n      mload(0x40)\n      0x08c379a000000000000000000000000000000000000000000000000000000000\n      dup2\n      mstore\n      0x04\n      add\n      tag_279\n      swap1\n      tag_172\n      jump\t// in\n    tag_279:\n      mload(0x40)\n      dup1\n      swap2\n      sub\n      swap1\n      revert\n    tag_278:\n        /* \"contracts/Test Mint Pass v12A.sol\":6252:6265  _vaultAddress */\n      dup1\n        /* \"contracts/Test Mint Pass v12A.sol\":6237:6249  vaultAddress */\n      0x05\n      0x00\n        /* \"contracts/Test Mint Pass v12A.sol\":6237:6265  vaultAddress = _vaultAddress */\n      0x0100\n      exp\n      dup2\n      sload\n      dup2\n      0xffffffffffffffffffffffffffffffffffffffff\n      mul\n      not\n      and\n      swap1\n      dup4\n      0xffffffffffffffffffffffffffffffffffffffff\n      and\n      mul\n      or\n      swap1\n      sstore\n      pop\n        /* \"contracts/Test Mint Pass v12A.sol\":6169:6272  function setVault(address _vaultAddress) public onlyOwner {... */\n      pop\n      jump\t// out\n        /* \"contracts/Ownable.sol\":1689:1790  function renounceOwnership() public virtual onlyOwner {... */\n    tag_101:\n        /* \"contracts/Ownable.sol\":1280:1292  _msgSender() */\n      tag_282\n        /* \"contracts/Ownable.sol\":1280:1290  _msgSender */\n      tag_168\n        /* \"contracts/Ownable.sol\":1280:1292  _msgSender() */\n      jump\t// in\n    tag_282:\n        /* \"contracts/Ownable.sol\":1269:1292  owner() == _msgSender() */\n      0xffffffffffffffffffffffffffffffffffffffff\n      and\n        /* \"contracts/Ownable.sol\":1269:1276  owner() */\n      tag_283\n        /* \"contracts/Ownable.sol\":1269:1274  owner */\n      tag_106\n        /* \"contracts/Ownable.sol\":1269:1276  owner() */\n      jump\t// in\n    tag_283:\n        /* \"contracts/Ownable.sol\":1269:1292  owner() == _msgSender() */\n      0xffffffffffffffffffffffffffffffffffffffff\n      and\n      eq\n        /* \"contracts/Ownable.sol\":1261:1329  require(owner() == _msgSender(), \"Ownable: caller is not the owner\") */\n      tag_284\n      jumpi\n      mload(0x40)\n      0x08c379a000000000000000000000000000000000000000000000000000000000\n      dup2\n      mstore\n      0x04\n      add\n      tag_285\n      swap1\n      tag_172\n      jump\t// in\n    tag_285:\n      mload(0x40)\n      dup1\n      swap2\n      sub\n      swap1\n      revert\n    tag_284:\n        /* \"contracts/Ownable.sol\":1753:1783  _transferOwnership(address(0)) */\n      tag_287\n        /* \"contracts/Ownable.sol\":1780:1781  0 */\n      0x00\n        /* \"contracts/Ownable.sol\":1753:1771  _transferOwnership */\n      tag_288\n        /* \"contracts/Ownable.sol\":1753:1783  _transferOwnership(address(0)) */\n      jump\t// in\n    tag_287:\n        /* \"contracts/Ownable.sol\":1689:1790  function renounceOwnership() public virtual onlyOwner {... */\n      jump\t// out\n        /* \"contracts/Test Mint Pass v12A.sol\":1703:1758  uint256 public immutable Test_Mint_Pass_BlueTokenId = 2 */\n    tag_103:\n      immutable(\"0xdd6ebedecc3782991b040722d05346ae76115706b237b0f241066a60ee7c2169\")\n      dup2\n      jump\t// out\n        /* \"contracts/Ownable.sol\":1057:1142  function owner() public view virtual returns (address) {... */\n    tag_106:\n        /* \"contracts/Ownable.sol\":1103:1110  address */\n      0x00\n        /* \"contracts/Ownable.sol\":1129:1135  _owner */\n      0x02\n      0x00\n      swap1\n      sload\n      swap1\n      0x0100\n      exp\n      swap1\n      div\n      0xffffffffffffffffffffffffffffffffffffffff\n      and\n        /* \"contracts/Ownable.sol\":1122:1135  return _owner */\n      swap1\n      pop\n        /* \"contracts/Ownable.sol\":1057:1142  function owner() public view virtual returns (address) {... */\n      swap1\n      jump\t// out\n        /* \"contracts/Test Mint Pass v12A.sol\":1128:1148  string public symbol */\n    tag_109:\n      0x04\n      dup1\n      sload\n      tag_290\n      swap1\n      tag_161\n      jump\t// in\n    tag_290:\n      dup1\n      0x1f\n      add\n      0x20\n      dup1\n      swap2\n      div\n      mul\n      0x20\n      add\n      mload(0x40)\n      swap1\n      dup2\n      add\n      0x40\n      mstore\n      dup1\n      swap3\n      swap2\n      swap1\n      dup2\n      dup2\n      mstore\n      0x20\n      add\n      dup3\n      dup1\n      sload\n      tag_291\n      swap1\n      tag_161\n      jump\t// in\n    tag_291:\n      dup1\n      iszero\n      tag_292\n      jumpi\n      dup1\n      0x1f\n      lt\n      tag_293\n      jumpi\n      0x0100\n      dup1\n      dup4\n      sload\n      div\n      mul\n      dup4\n      mstore\n      swap2\n      0x20\n      add\n      swap2\n      jump(tag_292)\n    tag_293:\n      dup3\n      add\n      swap2\n      swap1\n      0x00\n      mstore\n      keccak256(0x00, 0x20)\n      swap1\n    tag_294:\n      dup2\n      sload\n      dup2\n      mstore\n      swap1\n      0x01\n      add\n      swap1\n      0x20\n      add\n      dup1\n      dup4\n      gt\n      tag_294\n      jumpi\n      dup3\n      swap1\n      sub\n      0x1f\n      and\n      dup3\n      add\n      swap2\n    tag_292:\n      pop\n      pop\n      pop\n      pop\n      pop\n      dup2\n      jump\t// out\n        /* \"contracts/Test Mint Pass v12A.sol\":1641:1697  uint256 public immutable Test_Mint_Pass_BlackTokenId = 1 */\n    tag_112:\n      immutable(\"0xf598d05e51facafddb4666a870ba9c91ee31463df052628aed50dc3216257420\")\n      dup2\n      jump\t// out\n        /* \"contracts/Test Mint Pass v12A.sol\":2149:2206  mapping(address => uint256) public TestMintPassBlueMinted */\n    tag_116:\n      mstore(0x20, 0x08)\n      dup1\n      0x00\n      mstore\n      keccak256(0x00, 0x40)\n      0x00\n      swap2\n      pop\n      swap1\n      pop\n      sload\n      dup2\n      jump\t// out\n        /* \"contracts/ERC1155.sol\":1703:1906  function setApprovalForAll(address operator, bool approved) public virtual {... */\n    tag_121:\n        /* \"contracts/ERC1155.sol\":1829:1837  approved */\n      dup1\n        /* \"contracts/ERC1155.sol\":1788:1804  isApprovedForAll */\n      0x01\n        /* \"contracts/ERC1155.sol\":1788:1816  isApprovedForAll[msg.sender] */\n      0x00\n        /* \"contracts/ERC1155.sol\":1805:1815  msg.sender */\n      caller\n        /* \"contracts/ERC1155.sol\":1788:1816  isApprovedForAll[msg.sender] */\n      0xffffffffffffffffffffffffffffffffffffffff\n      and\n      0xffffffffffffffffffffffffffffffffffffffff\n      and\n      dup2\n      mstore\n      0x20\n      add\n      swap1\n      dup2\n      mstore\n      0x20\n      add\n      0x00\n      keccak256\n        /* \"contracts/ERC1155.sol\":1788:1826  isApprovedForAll[msg.sender][operator] */\n      0x00\n        /* \"contracts/ERC1155.sol\":1817:1825  operator */\n      dup5\n        /* \"contracts/ERC1155.sol\":1788:1826  isApprovedForAll[msg.sender][operator] */\n      0xffffffffffffffffffffffffffffffffffffffff\n      and\n      0xffffffffffffffffffffffffffffffffffffffff\n      and\n      dup2\n      mstore\n      0x20\n      add\n      swap1\n      dup2\n      mstore\n      0x20\n      add\n      0x00\n      keccak256\n      0x00\n        /* \"contracts/ERC1155.sol\":1788:1837  isApprovedForAll[msg.sender][operator] = approved */\n      0x0100\n      exp\n      dup2\n      sload\n      dup2\n      0xff\n      mul\n      not\n      and\n      swap1\n      dup4\n      iszero\n      iszero\n      mul\n      or\n      swap1\n      sstore\n      pop\n        /* \"contracts/ERC1155.sol\":1880:1888  operator */\n      dup2\n        /* \"contracts/ERC1155.sol\":1853:1899  ApprovalForAll(msg.sender, operator, approved) */\n      0xffffffffffffffffffffffffffffffffffffffff\n      and\n        /* \"contracts/ERC1155.sol\":1868:1878  msg.sender */\n      caller\n        /* \"contracts/ERC1155.sol\":1853:1899  ApprovalForAll(msg.sender, operator, approved) */\n      0xffffffffffffffffffffffffffffffffffffffff\n      and\n      0x17307eab39ab6107e8899845ad3d59bd9653f200f220920489ca2b5937696c31\n        /* \"contracts/ERC1155.sol\":1890:1898  approved */\n      dup4\n        /* \"contracts/ERC1155.sol\":1853:1899  ApprovalForAll(msg.sender, operator, approved) */\n      mload(0x40)\n      tag_296\n      swap2\n      swap1\n      tag_52\n      jump\t// in\n    tag_296:\n      mload(0x40)\n      dup1\n      swap2\n      sub\n      swap1\n      log3\n        /* \"contracts/ERC1155.sol\":1703:1906  function setApprovalForAll(address operator, bool approved) public virtual {... */\n      pop\n      pop\n      jump\t// out\n        /* \"contracts/Test Mint Pass v12A.sol\":3474:3585  function totalSupply(uint256 id) public view virtual returns (uint256) {... */\n    tag_124:\n        /* \"contracts/Test Mint Pass v12A.sol\":3536:3543  uint256 */\n      0x00\n        /* \"contracts/Test Mint Pass v12A.sol\":3562:3574  _totalSupply */\n      0x06\n        /* \"contracts/Test Mint Pass v12A.sol\":3562:3578  _totalSupply[id] */\n      0x00\n        /* \"contracts/Test Mint Pass v12A.sol\":3575:3577  id */\n      dup4\n        /* \"contracts/Test Mint Pass v12A.sol\":3562:3578  _totalSupply[id] */\n      dup2\n      mstore\n      0x20\n      add\n      swap1\n      dup2\n      mstore\n      0x20\n      add\n      0x00\n      keccak256\n      sload\n        /* \"contracts/Test Mint Pass v12A.sol\":3555:3578  return _totalSupply[id] */\n      swap1\n      pop\n        /* \"contracts/Test Mint Pass v12A.sol\":3474:3585  function totalSupply(uint256 id) public view virtual returns (uint256) {... */\n      swap2\n      swap1\n      pop\n      jump\t// out\n        /* \"contracts/Test Mint Pass v12A.sol\":2101:2143  mapping(uint256 => string) public tokenURI */\n    tag_128:\n      mstore(0x20, 0x07)\n      dup1\n      0x00\n      mstore\n      keccak256(0x00, 0x40)\n      0x00\n      swap2\n      pop\n      swap1\n      pop\n      dup1\n      sload\n      tag_298\n      swap1\n      tag_161\n      jump\t// in\n    tag_298:\n      dup1\n      0x1f\n      add\n      0x20\n      dup1\n      swap2\n      div\n      mul\n      0x20\n      add\n      mload(0x40)\n      swap1\n      dup2\n      add\n      0x40\n      mstore\n      dup1\n      swap3\n      swap2\n      swap1\n      dup2\n      dup2\n      mstore\n      0x20\n      add\n      dup3\n      dup1\n      sload\n      tag_299\n      swap1\n      tag_161\n      jump\t// in\n    tag_299:\n      dup1\n      iszero\n      tag_300\n      jumpi\n      dup1\n      0x1f\n      lt\n      tag_301\n      jumpi\n      0x0100\n      dup1\n      dup4\n      sload\n      div\n      mul\n      dup4\n      mstore\n      swap2\n      0x20\n      add\n      swap2\n      jump(tag_300)\n    tag_301:\n      dup3\n      add\n      swap2\n      swap1\n      0x00\n      mstore\n      keccak256(0x00, 0x20)\n      swap1\n    tag_302:\n      dup2\n      sload\n      dup2\n      mstore\n      swap1\n      0x01\n      add\n      swap1\n      0x20\n      add\n      dup1\n      dup4\n      gt\n      tag_302\n      jumpi\n      dup3\n      swap1\n      sub\n      0x1f\n      and\n      dup3\n      add\n      swap2\n    tag_300:\n      pop\n      pop\n      pop\n      pop\n      pop\n      dup2\n      jump\t// out\n        /* \"contracts/Test Mint Pass v12A.sol\":1764:1812  uint256 public constant Test_Mint_Pass_Black = 1 */\n    tag_131:\n        /* \"contracts/Test Mint Pass v12A.sol\":1811:1812  1 */\n      0x01\n        /* \"contracts/Test Mint Pass v12A.sol\":1764:1812  uint256 public constant Test_Mint_Pass_Black = 1 */\n      dup2\n      jump\t// out\n        /* \"contracts/Test Mint Pass v12A.sol\":1818:1865  uint256 public constant Test_Mint_Pass_Blue = 2 */\n    tag_134:\n        /* \"contracts/Test Mint Pass v12A.sol\":1864:1865  2 */\n      0x02\n        /* \"contracts/Test Mint Pass v12A.sol\":1818:1865  uint256 public constant Test_Mint_Pass_Blue = 2 */\n      dup2\n      jump\t// out\n        /* \"contracts/Test Mint Pass v12A.sol\":1497:1563  uint256 public immutable Test_Mint_Pass_BlackScholarshipTotal = 17 */\n    tag_137:\n      immutable(\"0x14502941cdfbd1b140f463b7c0eceb6872b4ceed672dc2d6c10bcedbce3171c9\")\n      dup2\n      jump\t// out\n        /* \"contracts/Test Mint Pass v12A.sol\":1569:1634  uint256 public immutable Test_Mint_Pass_BlueScholarshipTotal = 33 */\n    tag_140:\n      immutable(\"0xd188a1da6d6dfc972f5d1614b9a5ea681202f643e26bdaa8898fb08d79dc84fc\")\n      dup2\n      jump\t// out\n        /* \"contracts/ERC1155.sol\":1187:1255  mapping(address => mapping(address => bool)) public isApprovedForAll */\n    tag_145:\n      mstore(0x20, 0x01)\n      dup2\n      0x00\n      mstore\n      mstore(0x20, keccak256(0x00, 0x40))\n      dup1\n      0x00\n      mstore\n      keccak256(0x00, 0x40)\n      0x00\n      swap2\n      pop\n      swap2\n      pop\n      swap1\n      sload\n      swap1\n      0x0100\n      exp\n      swap1\n      div\n      0xff\n      and\n      dup2\n      jump\t// out\n        /* \"contracts/ERC1155.sol\":1912:2611  function safeTransferFrom(... */\n    tag_150:\n        /* \"contracts/ERC1155.sol\":2106:2110  from */\n      dup6\n        /* \"contracts/ERC1155.sol\":2092:2110  msg.sender == from */\n      0xffffffffffffffffffffffffffffffffffffffff\n      and\n        /* \"contracts/ERC1155.sol\":2092:2102  msg.sender */\n      caller\n        /* \"contracts/ERC1155.sol\":2092:2110  msg.sender == from */\n      0xffffffffffffffffffffffffffffffffffffffff\n      and\n      eq\n        /* \"contracts/ERC1155.sol\":2092:2148  msg.sender == from || isApprovedForAll[from][msg.sender] */\n      dup1\n      tag_304\n      jumpi\n      pop\n        /* \"contracts/ERC1155.sol\":2114:2130  isApprovedForAll */\n      0x01\n        /* \"contracts/ERC1155.sol\":2114:2136  isApprovedForAll[from] */\n      0x00\n        /* \"contracts/ERC1155.sol\":2131:2135  from */\n      dup8\n        /* \"contracts/ERC1155.sol\":2114:2136  isApprovedForAll[from] */\n      0xffffffffffffffffffffffffffffffffffffffff\n      and\n      0xffffffffffffffffffffffffffffffffffffffff\n      and\n      dup2\n      mstore\n      0x20\n      add\n      swap1\n      dup2\n      mstore\n      0x20\n      add\n      0x00\n      keccak256\n        /* \"contracts/ERC1155.sol\":2114:2148  isApprovedForAll[from][msg.sender] */\n      0x00\n        /* \"contracts/ERC1155.sol\":2137:2147  msg.sender */\n      caller\n        /* \"contracts/ERC1155.sol\":2114:2148  isApprovedForAll[from][msg.sender] */\n      0xffffffffffffffffffffffffffffffffffffffff\n      and\n      0xffffffffffffffffffffffffffffffffffffffff\n      and\n      dup2\n      mstore\n      0x20\n      add\n      swap1\n      dup2\n      mstore\n      0x20\n      add\n      0x00\n      keccak256\n      0x00\n      swap1\n      sload\n      swap1\n      0x0100\n      exp\n      swap1\n      div\n      0xff\n      and\n        /* \"contracts/ERC1155.sol\":2092:2148  msg.sender == from || isApprovedForAll[from][msg.sender] */\n    tag_304:\n        /* \"contracts/ERC1155.sol\":2084:2167  require(msg.sender == from || isApprovedForAll[from][msg.sender], \"NOT_AUTHORIZED\") */\n      tag_305\n      jumpi\n      mload(0x40)\n      0x08c379a000000000000000000000000000000000000000000000000000000000\n      dup2\n      mstore\n      0x04\n      add\n      tag_306\n      swap1\n      tag_200\n      jump\t// in\n    tag_306:\n      mload(0x40)\n      dup1\n      swap2\n      sub\n      swap1\n      revert\n    tag_305:\n        /* \"contracts/ERC1155.sol\":2201:2207  amount */\n      dup3\n        /* \"contracts/ERC1155.sol\":2178:2187  balanceOf */\n      0x00\n        /* \"contracts/ERC1155.sol\":2178:2193  balanceOf[from] */\n      dup1\n        /* \"contracts/ERC1155.sol\":2188:2192  from */\n      dup9\n        /* \"contracts/ERC1155.sol\":2178:2193  balanceOf[from] */\n      0xffffffffffffffffffffffffffffffffffffffff\n      and\n      0xffffffffffffffffffffffffffffffffffffffff\n      and\n      dup2\n      mstore\n      0x20\n      add\n      swap1\n      dup2\n      mstore\n      0x20\n      add\n      0x00\n      keccak256\n        /* \"contracts/ERC1155.sol\":2178:2197  balanceOf[from][id] */\n      0x00\n        /* \"contracts/ERC1155.sol\":2194:2196  id */\n      dup7\n        /* \"contracts/ERC1155.sol\":2178:2197  balanceOf[from][id] */\n      dup2\n      mstore\n      0x20\n      add\n      swap1\n      dup2\n      mstore\n      0x20\n      add\n      0x00\n      keccak256\n      0x00\n        /* \"contracts/ERC1155.sol\":2178:2207  balanceOf[from][id] -= amount */\n      dup3\n      dup3\n      sload\n      tag_307\n      swap2\n      swap1\n      tag_210\n      jump\t// in\n    tag_307:\n      swap3\n      pop\n      pop\n      dup2\n      swap1\n      sstore\n      pop\n        /* \"contracts/ERC1155.sol\":2238:2244  amount */\n      dup3\n        /* \"contracts/ERC1155.sol\":2217:2226  balanceOf */\n      0x00\n        /* \"contracts/ERC1155.sol\":2217:2230  balanceOf[to] */\n      dup1\n        /* \"contracts/ERC1155.sol\":2227:2229  to */\n      dup8\n        /* \"contracts/ERC1155.sol\":2217:2230  balanceOf[to] */\n      0xffffffffffffffffffffffffffffffffffffffff\n      and\n      0xffffffffffffffffffffffffffffffffffffffff\n      and\n      dup2\n      mstore\n      0x20\n      add\n      swap1\n      dup2\n      mstore\n      0x20\n      add\n      0x00\n      keccak256\n        /* \"contracts/ERC1155.sol\":2217:2234  balanceOf[to][id] */\n      0x00\n        /* \"contracts/ERC1155.sol\":2231:2233  id */\n      dup7\n        /* \"contracts/ERC1155.sol\":2217:2234  balanceOf[to][id] */\n      dup2\n      mstore\n      0x20\n      add\n      swap1\n      dup2\n      mstore\n      0x20\n      add\n      0x00\n      keccak256\n      0x00\n        /* \"contracts/ERC1155.sol\":2217:2244  balanceOf[to][id] += amount */\n      dup3\n      dup3\n      sload\n      tag_308\n      swap2\n      swap1\n      tag_212\n      jump\t// in\n    tag_308:\n      swap3\n      pop\n      pop\n      dup2\n      swap1\n      sstore\n      pop\n        /* \"contracts/ERC1155.sol\":2293:2295  to */\n      dup5\n        /* \"contracts/ERC1155.sol\":2260:2308  TransferSingle(msg.sender, from, to, id, amount) */\n      0xffffffffffffffffffffffffffffffffffffffff\n      and\n        /* \"contracts/ERC1155.sol\":2287:2291  from */\n      dup7\n        /* \"contracts/ERC1155.sol\":2260:2308  TransferSingle(msg.sender, from, to, id, amount) */\n      0xffffffffffffffffffffffffffffffffffffffff\n      and\n        /* \"contracts/ERC1155.sol\":2275:2285  msg.sender */\n      caller\n        /* \"contracts/ERC1155.sol\":2260:2308  TransferSingle(msg.sender, from, to, id, amount) */\n      0xffffffffffffffffffffffffffffffffffffffff\n      and\n      0xc3d58168c5ae7397731d063d5bbf3d657854427343f4c083240f7aacaa2d0f62\n        /* \"contracts/ERC1155.sol\":2297:2299  id */\n      dup8\n        /* \"contracts/ERC1155.sol\":2301:2307  amount */\n      dup8\n        /* \"contracts/ERC1155.sol\":2260:2308  TransferSingle(msg.sender, from, to, id, amount) */\n      mload(0x40)\n      tag_309\n      swap3\n      swap2\n      swap1\n      tag_310\n      jump\t// in\n    tag_309:\n      mload(0x40)\n      dup1\n      swap2\n      sub\n      swap1\n      log4\n        /* \"contracts/ERC1155.sol\":2358:2359  0 */\n      0x00\n        /* \"contracts/ERC1155.sol\":2340:2342  to */\n      dup6\n        /* \"contracts/ERC1155.sol\":2340:2354  to.code.length */\n      0xffffffffffffffffffffffffffffffffffffffff\n      and\n      extcodesize\n        /* \"contracts/ERC1155.sol\":2340:2359  to.code.length == 0 */\n      eq\n        /* \"contracts/ERC1155.sol\":2340:2562  to.code.length == 0... */\n      tag_311\n      jumpi\n        /* \"contracts/ERC1155.sol\":2515:2562  ERC1155TokenReceiver.onERC1155Received.selector */\n      shl(0xe0, 0xf23a6e61)\n        /* \"contracts/ERC1155.sol\":2413:2562  ERC1155TokenReceiver(to).onERC1155Received(msg.sender, from, id, amount, data) ==... */\n      not(0xffffffffffffffffffffffffffffffffffffffffffffffffffffffff)\n      and\n        /* \"contracts/ERC1155.sol\":2434:2436  to */\n      dup6\n        /* \"contracts/ERC1155.sol\":2413:2455  ERC1155TokenReceiver(to).onERC1155Received */\n      0xffffffffffffffffffffffffffffffffffffffff\n      and\n      0xf23a6e61\n        /* \"contracts/ERC1155.sol\":2456:2466  msg.sender */\n      caller\n        /* \"contracts/ERC1155.sol\":2468:2472  from */\n      dup10\n        /* \"contracts/ERC1155.sol\":2474:2476  id */\n      dup9\n        /* \"contracts/ERC1155.sol\":2478:2484  amount */\n      dup9\n        /* \"contracts/ERC1155.sol\":2486:2490  data */\n      dup9\n      dup9\n        /* \"contracts/ERC1155.sol\":2413:2491  ERC1155TokenReceiver(to).onERC1155Received(msg.sender, from, id, amount, data) */\n      mload(0x40)\n      dup8\n      0xffffffff\n      and\n      0xe0\n      shl\n      dup2\n      mstore\n      0x04\n      add\n      tag_312\n      swap7\n      swap6\n      swap5\n      swap4\n      swap3\n      swap2\n      swap1\n      tag_313\n      jump\t// in\n    tag_312:\n      0x20\n      mload(0x40)\n      dup1\n      dup4\n      sub\n      dup2\n      0x00\n      dup8\n      gas\n      call\n      iszero\n      dup1\n      iszero\n      tag_315\n      jumpi\n      returndatasize\n      0x00\n      dup1\n      returndatacopy\n      revert(0x00, returndatasize)\n    tag_315:\n      pop\n      pop\n      pop\n      pop\n      mload(0x40)\n      returndatasize\n      not(0x1f)\n      0x1f\n      dup3\n      add\n      and\n      dup3\n      add\n      dup1\n      0x40\n      mstore\n      pop\n      dup2\n      add\n      swap1\n      tag_316\n      swap2\n      swap1\n      tag_221\n      jump\t// in\n    tag_316:\n        /* \"contracts/ERC1155.sol\":2413:2562  ERC1155TokenReceiver(to).onERC1155Received(msg.sender, from, id, amount, data) ==... */\n      not(0xffffffffffffffffffffffffffffffffffffffffffffffffffffffff)\n      and\n      eq\n        /* \"contracts/ERC1155.sol\":2340:2562  to.code.length == 0... */\n      jump(tag_317)\n    tag_311:\n        /* \"contracts/ERC1155.sol\":2392:2393  0 */\n      0x00\n        /* \"contracts/ERC1155.sol\":2378:2394  to != address(0) */\n      0xffffffffffffffffffffffffffffffffffffffff\n      and\n        /* \"contracts/ERC1155.sol\":2378:2380  to */\n      dup6\n        /* \"contracts/ERC1155.sol\":2378:2394  to != address(0) */\n      0xffffffffffffffffffffffffffffffffffffffff\n      and\n      eq\n      iszero\n        /* \"contracts/ERC1155.sol\":2340:2562  to.code.length == 0... */\n    tag_317:\n        /* \"contracts/ERC1155.sol\":2319:2604  require(... */\n      tag_318\n      jumpi\n      mload(0x40)\n      0x08c379a000000000000000000000000000000000000000000000000000000000\n      dup2\n      mstore\n      0x04\n      add\n      tag_319\n      swap1\n      tag_225\n      jump\t// in\n    tag_319:\n      mload(0x40)\n      dup1\n      swap2\n      sub\n      swap1\n      revert\n    tag_318:\n        /* \"contracts/ERC1155.sol\":1912:2611  function safeTransferFrom(... */\n      pop\n      pop\n      pop\n      pop\n      pop\n      pop\n      jump\t// out\n        /* \"contracts/Ownable.sol\":1939:2137  function transferOwnership(address newOwner) public virtual onlyOwner {... */\n    tag_153:\n        /* \"contracts/Ownable.sol\":1280:1292  _msgSender() */\n      tag_321\n        /* \"contracts/Ownable.sol\":1280:1290  _msgSender */\n      tag_168\n        /* \"contracts/Ownable.sol\":1280:1292  _msgSender() */\n      jump\t// in\n    tag_321:\n        /* \"contracts/Ownable.sol\":1269:1292  owner() == _msgSender() */\n      0xffffffffffffffffffffffffffffffffffffffff\n      and\n        /* \"contracts/Ownable.sol\":1269:1276  owner() */\n      tag_322\n        /* \"contracts/Ownable.sol\":1269:1274  owner */\n      tag_106\n        /* \"contracts/Ownable.sol\":1269:1276  owner() */\n      jump\t// in\n    tag_322:\n        /* \"contracts/Ownable.sol\":1269:1292  owner() == _msgSender() */\n      0xffffffffffffffffffffffffffffffffffffffff\n      and\n      eq\n        /* \"contracts/Ownable.sol\":1261:1329  require(owner() == _msgSender(), \"Ownable: caller is not the owner\") */\n      tag_323\n      jumpi\n      mload(0x40)\n      0x08c379a000000000000000000000000000000000000000000000000000000000\n      dup2\n      mstore\n      0x04\n      add\n      tag_324\n      swap1\n      tag_172\n      jump\t// in\n    tag_324:\n      mload(0x40)\n      dup1\n      swap2\n      sub\n      swap1\n      revert\n    tag_323:\n        /* \"contracts/Ownable.sol\":2047:2048  0 */\n      0x00\n        /* \"contracts/Ownable.sol\":2027:2049  newOwner != address(0) */\n      0xffffffffffffffffffffffffffffffffffffffff\n      and\n        /* \"contracts/Ownable.sol\":2027:2035  newOwner */\n      dup2\n        /* \"contracts/Ownable.sol\":2027:2049  newOwner != address(0) */\n      0xffffffffffffffffffffffffffffffffffffffff\n      and\n      eq\n      iszero\n        /* \"contracts/Ownable.sol\":2019:2092  require(newOwner != address(0), \"Ownable: new owner is the zero address\") */\n      tag_326\n      jumpi\n      mload(0x40)\n      0x08c379a000000000000000000000000000000000000000000000000000000000\n      dup2\n      mstore\n      0x04\n      add\n      tag_327\n      swap1\n      tag_328\n      jump\t// in\n    tag_327:\n      mload(0x40)\n      dup1\n      swap2\n      sub\n      swap1\n      revert\n    tag_326:\n        /* \"contracts/Ownable.sol\":2102:2130  _transferOwnership(newOwner) */\n      tag_329\n        /* \"contracts/Ownable.sol\":2121:2129  newOwner */\n      dup2\n        /* \"contracts/Ownable.sol\":2102:2120  _transferOwnership */\n      tag_288\n        /* \"contracts/Ownable.sol\":2102:2130  _transferOwnership(newOwner) */\n      jump\t// in\n    tag_329:\n        /* \"contracts/Ownable.sol\":1939:2137  function transferOwnership(address newOwner) public virtual onlyOwner {... */\n      pop\n      jump\t// out\n        /* \"contracts/Test Mint Pass v12A.sol\":1366:1426  uint256 public immutable Test_Mint_Pass_BlackMaxSupply = 166 */\n    tag_155:\n      immutable(\"0x54d74a311c644ec85dcac6b0313416846d72906b540389d43ad99715f0c32312\")\n      dup2\n      jump\t// out\n        /* \"@openzeppelin/contracts/utils/Context.sol\":640:736  function _msgSender() internal view virtual returns (address) {... */\n    tag_168:\n        /* \"@openzeppelin/contracts/utils/Context.sol\":693:700  address */\n      0x00\n        /* \"@openzeppelin/contracts/utils/Context.sol\":719:729  msg.sender */\n      caller\n        /* \"@openzeppelin/contracts/utils/Context.sol\":712:729  return msg.sender */\n      swap1\n      pop\n        /* \"@openzeppelin/contracts/utils/Context.sol\":640:736  function _msgSender() internal view virtual returns (address) {... */\n      swap1\n      jump\t// out\n        /* \"contracts/ERC1155.sol\":5137:5682  function _mint(... */\n    tag_191:\n        /* \"contracts/ERC1155.sol\":5297:5303  amount */\n      dup2\n        /* \"contracts/ERC1155.sol\":5276:5285  balanceOf */\n      0x00\n        /* \"contracts/ERC1155.sol\":5276:5289  balanceOf[to] */\n      dup1\n        /* \"contracts/ERC1155.sol\":5286:5288  to */\n      dup7\n        /* \"contracts/ERC1155.sol\":5276:5289  balanceOf[to] */\n      0xffffffffffffffffffffffffffffffffffffffff\n      and\n      0xffffffffffffffffffffffffffffffffffffffff\n      and\n      dup2\n      mstore\n      0x20\n      add\n      swap1\n      dup2\n      mstore\n      0x20\n      add\n      0x00\n      keccak256\n        /* \"contracts/ERC1155.sol\":5276:5293  balanceOf[to][id] */\n      0x00\n        /* \"contracts/ERC1155.sol\":5290:5292  id */\n      dup6\n        /* \"contracts/ERC1155.sol\":5276:5293  balanceOf[to][id] */\n      dup2\n      mstore\n      0x20\n      add\n      swap1\n      dup2\n      mstore\n      0x20\n      add\n      0x00\n      keccak256\n      0x00\n        /* \"contracts/ERC1155.sol\":5276:5303  balanceOf[to][id] += amount */\n      dup3\n      dup3\n      sload\n      tag_332\n      swap2\n      swap1\n      tag_212\n      jump\t// in\n    tag_332:\n      swap3\n      pop\n      pop\n      dup2\n      swap1\n      sstore\n      pop\n        /* \"contracts/ERC1155.sol\":5358:5360  to */\n      dup4\n        /* \"contracts/ERC1155.sol\":5319:5373  TransferSingle(msg.sender, address(0), to, id, amount) */\n      0xffffffffffffffffffffffffffffffffffffffff\n      and\n        /* \"contracts/ERC1155.sol\":5354:5355  0 */\n      0x00\n        /* \"contracts/ERC1155.sol\":5319:5373  TransferSingle(msg.sender, address(0), to, id, amount) */\n      0xffffffffffffffffffffffffffffffffffffffff\n      and\n        /* \"contracts/ERC1155.sol\":5334:5344  msg.sender */\n      caller\n        /* \"contracts/ERC1155.sol\":5319:5373  TransferSingle(msg.sender, address(0), to, id, amount) */\n      0xffffffffffffffffffffffffffffffffffffffff\n      and\n      0xc3d58168c5ae7397731d063d5bbf3d657854427343f4c083240f7aacaa2d0f62\n        /* \"contracts/ERC1155.sol\":5362:5364  id */\n      dup7\n        /* \"contracts/ERC1155.sol\":5366:5372  amount */\n      dup7\n        /* \"contracts/ERC1155.sol\":5319:5373  TransferSingle(msg.sender, address(0), to, id, amount) */\n      mload(0x40)\n      tag_333\n      swap3\n      swap2\n      swap1\n      tag_310\n      jump\t// in\n    tag_333:\n      mload(0x40)\n      dup1\n      swap2\n      sub\n      swap1\n      log4\n        /* \"contracts/ERC1155.sol\":5423:5424  0 */\n      0x00\n        /* \"contracts/ERC1155.sol\":5405:5407  to */\n      dup5\n        /* \"contracts/ERC1155.sol\":5405:5419  to.code.length */\n      0xffffffffffffffffffffffffffffffffffffffff\n      and\n      extcodesize\n        /* \"contracts/ERC1155.sol\":5405:5424  to.code.length == 0 */\n      eq\n        /* \"contracts/ERC1155.sol\":5405:5633  to.code.length == 0... */\n      tag_334\n      jumpi\n        /* \"contracts/ERC1155.sol\":5586:5633  ERC1155TokenReceiver.onERC1155Received.selector */\n      shl(0xe0, 0xf23a6e61)\n        /* \"contracts/ERC1155.sol\":5478:5633  ERC1155TokenReceiver(to).onERC1155Received(msg.sender, address(0), id, amount, data) ==... */\n      not(0xffffffffffffffffffffffffffffffffffffffffffffffffffffffff)\n      and\n        /* \"contracts/ERC1155.sol\":5499:5501  to */\n      dup5\n        /* \"contracts/ERC1155.sol\":5478:5520  ERC1155TokenReceiver(to).onERC1155Received */\n      0xffffffffffffffffffffffffffffffffffffffff\n      and\n      0xf23a6e61\n        /* \"contracts/ERC1155.sol\":5521:5531  msg.sender */\n      caller\n        /* \"contracts/ERC1155.sol\":5541:5542  0 */\n      0x00\n        /* \"contracts/ERC1155.sol\":5545:5547  id */\n      dup8\n        /* \"contracts/ERC1155.sol\":5549:5555  amount */\n      dup8\n        /* \"contracts/ERC1155.sol\":5557:5561  data */\n      dup8\n        /* \"contracts/ERC1155.sol\":5478:5562  ERC1155TokenReceiver(to).onERC1155Received(msg.sender, address(0), id, amount, data) */\n      mload(0x40)\n      dup7\n      0xffffffff\n      and\n      0xe0\n      shl\n      dup2\n      mstore\n      0x04\n      add\n      tag_335\n      swap6\n      swap5\n      swap4\n      swap3\n      swap2\n      swap1\n      tag_336\n      jump\t// in\n    tag_335:\n      0x20\n      mload(0x40)\n      dup1\n      dup4\n      sub\n      dup2\n      0x00\n      dup8\n      gas\n      call\n      iszero\n      dup1\n      iszero\n      tag_338\n      jumpi\n      returndatasize\n      0x00\n      dup1\n      returndatacopy\n      revert(0x00, returndatasize)\n    tag_338:\n      pop\n      pop\n      pop\n      pop\n      mload(0x40)\n      returndatasize\n      not(0x1f)\n      0x1f\n      dup3\n      add\n      and\n      dup3\n      add\n      dup1\n      0x40\n      mstore\n      pop\n      dup2\n      add\n      swap1\n      tag_339\n      swap2\n      swap1\n      tag_221\n      jump\t// in\n    tag_339:\n        /* \"contracts/ERC1155.sol\":5478:5633  ERC1155TokenReceiver(to).onERC1155Received(msg.sender, address(0), id, amount, data) ==... */\n      not(0xffffffffffffffffffffffffffffffffffffffffffffffffffffffff)\n      and\n      eq\n        /* \"contracts/ERC1155.sol\":5405:5633  to.code.length == 0... */\n      jump(tag_340)\n    tag_334:\n        /* \"contracts/ERC1155.sol\":5457:5458  0 */\n      0x00\n        /* \"contracts/ERC1155.sol\":5443:5459  to != address(0) */\n      0xffffffffffffffffffffffffffffffffffffffff\n      and\n        /* \"contracts/ERC1155.sol\":5443:5445  to */\n      dup5\n        /* \"contracts/ERC1155.sol\":5443:5459  to != address(0) */\n      0xffffffffffffffffffffffffffffffffffffffff\n      and\n      eq\n      iszero\n        /* \"contracts/ERC1155.sol\":5405:5633  to.code.length == 0... */\n    tag_340:\n        /* \"contracts/ERC1155.sol\":5384:5675  require(... */\n      tag_341\n      jumpi\n      mload(0x40)\n      0x08c379a000000000000000000000000000000000000000000000000000000000\n      dup2\n      mstore\n      0x04\n      add\n      tag_342\n      swap1\n      tag_225\n      jump\t// in\n    tag_342:\n      mload(0x40)\n      dup1\n      swap2\n      sub\n      swap1\n      revert\n    tag_341:\n        /* \"contracts/ERC1155.sol\":5137:5682  function _mint(... */\n      pop\n      pop\n      pop\n      pop\n      jump\t// out\n        /* \"contracts/SafeTransferLib.sol\":831:1127  function safeTransferETH(address to, uint256 amount) internal {... */\n    tag_257:\n        /* \"contracts/SafeTransferLib.sol\":903:915  bool success */\n      0x00\n        /* \"contracts/SafeTransferLib.sol\":1059:1060  0 */\n      dup1\n        /* \"contracts/SafeTransferLib.sol\":1056:1057  0 */\n      0x00\n        /* \"contracts/SafeTransferLib.sol\":1053:1054  0 */\n      dup1\n        /* \"contracts/SafeTransferLib.sol\":1050:1051  0 */\n      0x00\n        /* \"contracts/SafeTransferLib.sol\":1042:1048  amount */\n      dup6\n        /* \"contracts/SafeTransferLib.sol\":1038:1040  to */\n      dup8\n        /* \"contracts/SafeTransferLib.sol\":1031:1036  gas() */\n      gas\n        /* \"contracts/SafeTransferLib.sol\":1026:1061  call(gas(), to, amount, 0, 0, 0, 0) */\n      call\n        /* \"contracts/SafeTransferLib.sol\":1015:1061  success := call(gas(), to, amount, 0, 0, 0, 0) */\n      swap1\n      pop\n        /* \"contracts/SafeTransferLib.sol\":1089:1096  success */\n      dup1\n        /* \"contracts/SafeTransferLib.sol\":1081:1120  require(success, \"ETH_TRANSFER_FAILED\") */\n      tag_344\n      jumpi\n      mload(0x40)\n      0x08c379a000000000000000000000000000000000000000000000000000000000\n      dup2\n      mstore\n      0x04\n      add\n      tag_345\n      swap1\n      tag_346\n      jump\t// in\n    tag_345:\n      mload(0x40)\n      dup1\n      swap2\n      sub\n      swap1\n      revert\n    tag_344:\n        /* \"contracts/SafeTransferLib.sol\":893:1127  {... */\n      pop\n        /* \"contracts/SafeTransferLib.sol\":831:1127  function safeTransferETH(address to, uint256 amount) internal {... */\n      pop\n      pop\n      jump\t// out\n        /* \"contracts/Ownable.sol\":2291:2478  function _transferOwnership(address newOwner) internal virtual {... */\n    tag_288:\n        /* \"contracts/Ownable.sol\":2364:2380  address oldOwner */\n      0x00\n        /* \"contracts/Ownable.sol\":2383:2389  _owner */\n      0x02\n      0x00\n      swap1\n      sload\n      swap1\n      0x0100\n      exp\n      swap1\n      div\n      0xffffffffffffffffffffffffffffffffffffffff\n      and\n        /* \"contracts/Ownable.sol\":2364:2389  address oldOwner = _owner */\n      swap1\n      pop\n        /* \"contracts/Ownable.sol\":2408:2416  newOwner */\n      dup2\n        /* \"contracts/Ownable.sol\":2399:2405  _owner */\n      0x02\n      0x00\n        /* \"contracts/Ownable.sol\":2399:2416  _owner = newOwner */\n      0x0100\n      exp\n      dup2\n      sload\n      dup2\n      0xffffffffffffffffffffffffffffffffffffffff\n      mul\n      not\n      and\n      swap1\n      dup4\n      0xffffffffffffffffffffffffffffffffffffffff\n      and\n      mul\n      or\n      swap1\n      sstore\n      pop\n        /* \"contracts/Ownable.sol\":2462:2470  newOwner */\n      dup2\n        /* \"contracts/Ownable.sol\":2431:2471  OwnershipTransferred(oldOwner, newOwner) */\n      0xffffffffffffffffffffffffffffffffffffffff\n      and\n        /* \"contracts/Ownable.sol\":2452:2460  oldOwner */\n      dup2\n        /* \"contracts/Ownable.sol\":2431:2471  OwnershipTransferred(oldOwner, newOwner) */\n      0xffffffffffffffffffffffffffffffffffffffff\n      and\n      0x8be0079c531659141344cd1fd0a4f28419497f9722a3daafe3b4186f6b6457e0\n      mload(0x40)\n      mload(0x40)\n      dup1\n      swap2\n      sub\n      swap1\n      log3\n        /* \"contracts/Ownable.sol\":2354:2478  {... */\n      pop\n        /* \"contracts/Ownable.sol\":2291:2478  function _transferOwnership(address newOwner) internal virtual {... */\n      pop\n      jump\t// out\n    tag_175:\n      dup3\n      dup1\n      sload\n      tag_348\n      swap1\n      tag_161\n      jump\t// in\n    tag_348:\n      swap1\n      0x00\n      mstore\n      keccak256(0x00, 0x20)\n      swap1\n      0x1f\n      add\n      0x20\n      swap1\n      div\n      dup2\n      add\n      swap3\n      dup3\n      tag_350\n      jumpi\n      0x00\n      dup6\n      sstore\n      jump(tag_349)\n    tag_350:\n      dup3\n      0x1f\n      lt\n      tag_351\n      jumpi\n      dup1\n      mload\n      not(0xff)\n      and\n      dup4\n      dup1\n      add\n      or\n      dup6\n      sstore\n      jump(tag_349)\n    tag_351:\n      dup3\n      dup1\n      add\n      0x01\n      add\n      dup6\n      sstore\n      dup3\n      iszero\n      tag_349\n      jumpi\n      swap2\n      dup3\n      add\n    tag_352:\n      dup3\n      dup2\n      gt\n      iszero\n      tag_353\n      jumpi\n      dup3\n      mload\n      dup3\n      sstore\n      swap2\n      0x20\n      add\n      swap2\n      swap1\n      0x01\n      add\n      swap1\n      jump(tag_352)\n    tag_353:\n    tag_349:\n      pop\n      swap1\n      pop\n      tag_354\n      swap2\n      swap1\n      tag_355\n      jump\t// in\n    tag_354:\n      pop\n      swap1\n      jump\t// out\n    tag_355:\n    tag_356:\n      dup1\n      dup3\n      gt\n      iszero\n      tag_357\n      jumpi\n      0x00\n      dup2\n      0x00\n      swap1\n      sstore\n      pop\n      0x01\n      add\n      jump(tag_356)\n    tag_357:\n      pop\n      swap1\n      jump\t// out\n        /* \"#utility.yul\":7:82   */\n    tag_358:\n        /* \"#utility.yul\":40:46   */\n      0x00\n        /* \"#utility.yul\":73:75   */\n      0x40\n        /* \"#utility.yul\":67:76   */\n      mload\n        /* \"#utility.yul\":57:76   */\n      swap1\n      pop\n        /* \"#utility.yul\":7:82   */\n      swap1\n      jump\t// out\n        /* \"#utility.yul\":88:205   */\n    tag_359:\n        /* \"#utility.yul\":197:198   */\n      0x00\n        /* \"#utility.yul\":194:195   */\n      dup1\n        /* \"#utility.yul\":187:199   */\n      revert\n        /* \"#utility.yul\":211:328   */\n    tag_360:\n        /* \"#utility.yul\":320:321   */\n      0x00\n        /* \"#utility.yul\":317:318   */\n      dup1\n        /* \"#utility.yul\":310:322   */\n      revert\n        /* \"#utility.yul\":334:460   */\n    tag_361:\n        /* \"#utility.yul\":371:378   */\n      0x00\n        /* \"#utility.yul\":411:453   */\n      0xffffffffffffffffffffffffffffffffffffffff\n        /* \"#utility.yul\":404:409   */\n      dup3\n        /* \"#utility.yul\":400:454   */\n      and\n        /* \"#utility.yul\":389:454   */\n      swap1\n      pop\n        /* \"#utility.yul\":334:460   */\n      swap2\n      swap1\n      pop\n      jump\t// out\n        /* \"#utility.yul\":466:562   */\n    tag_362:\n        /* \"#utility.yul\":503:510   */\n      0x00\n        /* \"#utility.yul\":532:556   */\n      tag_433\n        /* \"#utility.yul\":550:555   */\n      dup3\n        /* \"#utility.yul\":532:556   */\n      tag_361\n      jump\t// in\n    tag_433:\n        /* \"#utility.yul\":521:556   */\n      swap1\n      pop\n        /* \"#utility.yul\":466:562   */\n      swap2\n      swap1\n      pop\n      jump\t// out\n        /* \"#utility.yul\":568:690   */\n    tag_363:\n        /* \"#utility.yul\":641:665   */\n      tag_435\n        /* \"#utility.yul\":659:664   */\n      dup2\n        /* \"#utility.yul\":641:665   */\n      tag_362\n      jump\t// in\n    tag_435:\n        /* \"#utility.yul\":634:639   */\n      dup2\n        /* \"#utility.yul\":631:666   */\n      eq\n        /* \"#utility.yul\":621:684   */\n      tag_436\n      jumpi\n        /* \"#utility.yul\":680:681   */\n      0x00\n        /* \"#utility.yul\":677:678   */\n      dup1\n        /* \"#utility.yul\":670:682   */\n      revert\n        /* \"#utility.yul\":621:684   */\n    tag_436:\n        /* \"#utility.yul\":568:690   */\n      pop\n      jump\t// out\n        /* \"#utility.yul\":696:835   */\n    tag_364:\n        /* \"#utility.yul\":742:747   */\n      0x00\n        /* \"#utility.yul\":780:786   */\n      dup2\n        /* \"#utility.yul\":767:787   */\n      calldataload\n        /* \"#utility.yul\":758:787   */\n      swap1\n      pop\n        /* \"#utility.yul\":796:829   */\n      tag_438\n        /* \"#utility.yul\":823:828   */\n      dup2\n        /* \"#utility.yul\":796:829   */\n      tag_363\n      jump\t// in\n    tag_438:\n        /* \"#utility.yul\":696:835   */\n      swap3\n      swap2\n      pop\n      pop\n      jump\t// out\n        /* \"#utility.yul\":841:918   */\n    tag_365:\n        /* \"#utility.yul\":878:885   */\n      0x00\n        /* \"#utility.yul\":907:912   */\n      dup2\n        /* \"#utility.yul\":896:912   */\n      swap1\n      pop\n        /* \"#utility.yul\":841:918   */\n      swap2\n      swap1\n      pop\n      jump\t// out\n        /* \"#utility.yul\":924:1046   */\n    tag_366:\n        /* \"#utility.yul\":997:1021   */\n      tag_441\n        /* \"#utility.yul\":1015:1020   */\n      dup2\n        /* \"#utility.yul\":997:1021   */\n      tag_365\n      jump\t// in\n    tag_441:\n        /* \"#utility.yul\":990:995   */\n      dup2\n        /* \"#utility.yul\":987:1022   */\n      eq\n        /* \"#utility.yul\":977:1040   */\n      tag_442\n      jumpi\n        /* \"#utility.yul\":1036:1037   */\n      0x00\n        /* \"#utility.yul\":1033:1034   */\n      dup1\n        /* \"#utility.yul\":1026:1038   */\n      revert\n        /* \"#utility.yul\":977:1040   */\n    tag_442:\n        /* \"#utility.yul\":924:1046   */\n      pop\n      jump\t// out\n        /* \"#utility.yul\":1052:1191   */\n    tag_367:\n        /* \"#utility.yul\":1098:1103   */\n      0x00\n        /* \"#utility.yul\":1136:1142   */\n      dup2\n        /* \"#utility.yul\":1123:1143   */\n      calldataload\n        /* \"#utility.yul\":1114:1143   */\n      swap1\n      pop\n        /* \"#utility.yul\":1152:1185   */\n      tag_444\n        /* \"#utility.yul\":1179:1184   */\n      dup2\n        /* \"#utility.yul\":1152:1185   */\n      tag_366\n      jump\t// in\n    tag_444:\n        /* \"#utility.yul\":1052:1191   */\n      swap3\n      swap2\n      pop\n      pop\n      jump\t// out\n        /* \"#utility.yul\":1197:1671   */\n    tag_43:\n        /* \"#utility.yul\":1265:1271   */\n      0x00\n        /* \"#utility.yul\":1273:1279   */\n      dup1\n        /* \"#utility.yul\":1322:1324   */\n      0x40\n        /* \"#utility.yul\":1310:1319   */\n      dup4\n        /* \"#utility.yul\":1301:1308   */\n      dup6\n        /* \"#utility.yul\":1297:1320   */\n      sub\n        /* \"#utility.yul\":1293:1325   */\n      slt\n        /* \"#utility.yul\":1290:1409   */\n      iszero\n      tag_446\n      jumpi\n        /* \"#utility.yul\":1328:1407   */\n      tag_447\n      tag_359\n      jump\t// in\n    tag_447:\n        /* \"#utility.yul\":1290:1409   */\n    tag_446:\n        /* \"#utility.yul\":1448:1449   */\n      0x00\n        /* \"#utility.yul\":1473:1526   */\n      tag_448\n        /* \"#utility.yul\":1518:1525   */\n      dup6\n        /* \"#utility.yul\":1509:1515   */\n      dup3\n        /* \"#utility.yul\":1498:1507   */\n      dup7\n        /* \"#utility.yul\":1494:1516   */\n      add\n        /* \"#utility.yul\":1473:1526   */\n      tag_364\n      jump\t// in\n    tag_448:\n        /* \"#utility.yul\":1463:1526   */\n      swap3\n      pop\n        /* \"#utility.yul\":1419:1536   */\n      pop\n        /* \"#utility.yul\":1575:1577   */\n      0x20\n        /* \"#utility.yul\":1601:1654   */\n      tag_449\n        /* \"#utility.yul\":1646:1653   */\n      dup6\n        /* \"#utility.yul\":1637:1643   */\n      dup3\n        /* \"#utility.yul\":1626:1635   */\n      dup7\n        /* \"#utility.yul\":1622:1644   */\n      add\n        /* \"#utility.yul\":1601:1654   */\n      tag_367\n      jump\t// in\n    tag_449:\n        /* \"#utility.yul\":1591:1654   */\n      swap2\n      pop\n        /* \"#utility.yul\":1546:1664   */\n      pop\n        /* \"#utility.yul\":1197:1671   */\n      swap3\n      pop\n      swap3\n      swap1\n      pop\n      jump\t// out\n        /* \"#utility.yul\":1677:1795   */\n    tag_368:\n        /* \"#utility.yul\":1764:1788   */\n      tag_451\n        /* \"#utility.yul\":1782:1787   */\n      dup2\n        /* \"#utility.yul\":1764:1788   */\n      tag_365\n      jump\t// in\n    tag_451:\n        /* \"#utility.yul\":1759:1762   */\n      dup3\n        /* \"#utility.yul\":1752:1789   */\n      mstore\n        /* \"#utility.yul\":1677:1795   */\n      pop\n      pop\n      jump\t// out\n        /* \"#utility.yul\":1801:2023   */\n    tag_46:\n        /* \"#utility.yul\":1894:1898   */\n      0x00\n        /* \"#utility.yul\":1932:1934   */\n      0x20\n        /* \"#utility.yul\":1921:1930   */\n      dup3\n        /* \"#utility.yul\":1917:1935   */\n      add\n        /* \"#utility.yul\":1909:1935   */\n      swap1\n      pop\n        /* \"#utility.yul\":1945:2016   */\n      tag_453\n        /* \"#utility.yul\":2013:2014   */\n      0x00\n        /* \"#utility.yul\":2002:2011   */\n      dup4\n        /* \"#utility.yul\":1998:2015   */\n      add\n        /* \"#utility.yul\":1989:1995   */\n      dup5\n        /* \"#utility.yul\":1945:2016   */\n      tag_368\n      jump\t// in\n    tag_453:\n        /* \"#utility.yul\":1801:2023   */\n      swap3\n      swap2\n      pop\n      pop\n      jump\t// out\n        /* \"#utility.yul\":2029:2178   */\n    tag_369:\n        /* \"#utility.yul\":2065:2072   */\n      0x00\n        /* \"#utility.yul\":2105:2171   */\n      0xffffffff00000000000000000000000000000000000000000000000000000000\n        /* \"#utility.yul\":2098:2103   */\n      dup3\n        /* \"#utility.yul\":2094:2172   */\n      and\n        /* \"#utility.yul\":2083:2172   */\n      swap1\n      pop\n        /* \"#utility.yul\":2029:2178   */\n      swap2\n      swap1\n      pop\n      jump\t// out\n        /* \"#utility.yul\":2184:2304   */\n    tag_370:\n        /* \"#utility.yul\":2256:2279   */\n      tag_456\n        /* \"#utility.yul\":2273:2278   */\n      dup2\n        /* \"#utility.yul\":2256:2279   */\n      tag_369\n      jump\t// in\n    tag_456:\n        /* \"#utility.yul\":2249:2254   */\n      dup2\n        /* \"#utility.yul\":2246:2280   */\n      eq\n        /* \"#utility.yul\":2236:2298   */\n      tag_457\n      jumpi\n        /* \"#utility.yul\":2294:2295   */\n      0x00\n        /* \"#utility.yul\":2291:2292   */\n      dup1\n        /* \"#utility.yul\":2284:2296   */\n      revert\n        /* \"#utility.yul\":2236:2298   */\n    tag_457:\n        /* \"#utility.yul\":2184:2304   */\n      pop\n      jump\t// out\n        /* \"#utility.yul\":2310:2447   */\n    tag_371:\n        /* \"#utility.yul\":2355:2360   */\n      0x00\n        /* \"#utility.yul\":2393:2399   */\n      dup2\n        /* \"#utility.yul\":2380:2400   */\n      calldataload\n        /* \"#utility.yul\":2371:2400   */\n      swap1\n      pop\n        /* \"#utility.yul\":2409:2441   */\n      tag_459\n        /* \"#utility.yul\":2435:2440   */\n      dup2\n        /* \"#utility.yul\":2409:2441   */\n      tag_370\n      jump\t// in\n    tag_459:\n        /* \"#utility.yul\":2310:2447   */\n      swap3\n      swap2\n      pop\n      pop\n      jump\t// out\n        /* \"#utility.yul\":2453:2780   */\n    tag_49:\n        /* \"#utility.yul\":2511:2517   */\n      0x00\n        /* \"#utility.yul\":2560:2562   */\n      0x20\n        /* \"#utility.yul\":2548:2557   */\n      dup3\n        /* \"#utility.yul\":2539:2546   */\n      dup5\n        /* \"#utility.yul\":2535:2558   */\n      sub\n        /* \"#utility.yul\":2531:2563   */\n      slt\n        /* \"#utility.yul\":2528:2647   */\n      iszero\n      tag_461\n      jumpi\n        /* \"#utility.yul\":2566:2645   */\n      tag_462\n      tag_359\n      jump\t// in\n    tag_462:\n        /* \"#utility.yul\":2528:2647   */\n    tag_461:\n        /* \"#utility.yul\":2686:2687   */\n      0x00\n        /* \"#utility.yul\":2711:2763   */\n      tag_463\n        /* \"#utility.yul\":2755:2762   */\n      dup5\n        /* \"#utility.yul\":2746:2752   */\n      dup3\n        /* \"#utility.yul\":2735:2744   */\n      dup6\n        /* \"#utility.yul\":2731:2753   */\n      add\n        /* \"#utility.yul\":2711:2763   */\n      tag_371\n      jump\t// in\n    tag_463:\n        /* \"#utility.yul\":2701:2763   */\n      swap2\n      pop\n        /* \"#utility.yul\":2657:2773   */\n      pop\n        /* \"#utility.yul\":2453:2780   */\n      swap3\n      swap2\n      pop\n      pop\n      jump\t// out\n        /* \"#utility.yul\":2786:2876   */\n    tag_372:\n        /* \"#utility.yul\":2820:2827   */\n      0x00\n        /* \"#utility.yul\":2863:2868   */\n      dup2\n        /* \"#utility.yul\":2856:2869   */\n      iszero\n        /* \"#utility.yul\":2849:2870   */\n      iszero\n        /* \"#utility.yul\":2838:2870   */\n      swap1\n      pop\n        /* \"#utility.yul\":2786:2876   */\n      swap2\n      swap1\n      pop\n      jump\t// out\n        /* \"#utility.yul\":2882:2991   */\n    tag_373:\n        /* \"#utility.yul\":2963:2984   */\n      tag_466\n        /* \"#utility.yul\":2978:2983   */\n      dup2\n        /* \"#utility.yul\":2963:2984   */\n      tag_372\n      jump\t// in\n    tag_466:\n        /* \"#utility.yul\":2958:2961   */\n      dup3\n        /* \"#utility.yul\":2951:2985   */\n      mstore\n        /* \"#utility.yul\":2882:2991   */\n      pop\n      pop\n      jump\t// out\n        /* \"#utility.yul\":2997:3207   */\n    tag_52:\n        /* \"#utility.yul\":3084:3088   */\n      0x00\n        /* \"#utility.yul\":3122:3124   */\n      0x20\n        /* \"#utility.yul\":3111:3120   */\n      dup3\n        /* \"#utility.yul\":3107:3125   */\n      add\n        /* \"#utility.yul\":3099:3125   */\n      swap1\n      pop\n        /* \"#utility.yul\":3135:3200   */\n      tag_468\n        /* \"#utility.yul\":3197:3198   */\n      0x00\n        /* \"#utility.yul\":3186:3195   */\n      dup4\n        /* \"#utility.yul\":3182:3199   */\n      add\n        /* \"#utility.yul\":3173:3179   */\n      dup5\n        /* \"#utility.yul\":3135:3200   */\n      tag_373\n      jump\t// in\n    tag_468:\n        /* \"#utility.yul\":2997:3207   */\n      swap3\n      swap2\n      pop\n      pop\n      jump\t// out\n        /* \"#utility.yul\":3213:3312   */\n    tag_374:\n        /* \"#utility.yul\":3265:3271   */\n      0x00\n        /* \"#utility.yul\":3299:3304   */\n      dup2\n        /* \"#utility.yul\":3293:3305   */\n      mload\n        /* \"#utility.yul\":3283:3305   */\n      swap1\n      pop\n        /* \"#utility.yul\":3213:3312   */\n      swap2\n      swap1\n      pop\n      jump\t// out\n        /* \"#utility.yul\":3318:3487   */\n    tag_375:\n        /* \"#utility.yul\":3402:3413   */\n      0x00\n        /* \"#utility.yul\":3436:3442   */\n      dup3\n        /* \"#utility.yul\":3431:3434   */\n      dup3\n        /* \"#utility.yul\":3424:3443   */\n      mstore\n        /* \"#utility.yul\":3476:3480   */\n      0x20\n        /* \"#utility.yul\":3471:3474   */\n      dup3\n        /* \"#utility.yul\":3467:3481   */\n      add\n        /* \"#utility.yul\":3452:3481   */\n      swap1\n      pop\n        /* \"#utility.yul\":3318:3487   */\n      swap3\n      swap2\n      pop\n      pop\n      jump\t// out\n        /* \"#utility.yul\":3493:3800   */\n    tag_376:\n        /* \"#utility.yul\":3561:3562   */\n      0x00\n        /* \"#utility.yul\":3571:3684   */\n    tag_472:\n        /* \"#utility.yul\":3585:3591   */\n      dup4\n        /* \"#utility.yul\":3582:3583   */\n      dup2\n        /* \"#utility.yul\":3579:3592   */\n      lt\n        /* \"#utility.yul\":3571:3684   */\n      iszero\n      tag_474\n      jumpi\n        /* \"#utility.yul\":3670:3671   */\n      dup1\n        /* \"#utility.yul\":3665:3668   */\n      dup3\n        /* \"#utility.yul\":3661:3672   */\n      add\n        /* \"#utility.yul\":3655:3673   */\n      mload\n        /* \"#utility.yul\":3651:3652   */\n      dup2\n        /* \"#utility.yul\":3646:3649   */\n      dup5\n        /* \"#utility.yul\":3642:3653   */\n      add\n        /* \"#utility.yul\":3635:3674   */\n      mstore\n        /* \"#utility.yul\":3607:3609   */\n      0x20\n        /* \"#utility.yul\":3604:3605   */\n      dup2\n        /* \"#utility.yul\":3600:3610   */\n      add\n        /* \"#utility.yul\":3595:3610   */\n      swap1\n      pop\n        /* \"#utility.yul\":3571:3684   */\n      jump(tag_472)\n    tag_474:\n        /* \"#utility.yul\":3702:3708   */\n      dup4\n        /* \"#utility.yul\":3699:3700   */\n      dup2\n        /* \"#utility.yul\":3696:3709   */\n      gt\n        /* \"#utility.yul\":3693:3794   */\n      iszero\n      tag_475\n      jumpi\n        /* \"#utility.yul\":3782:3783   */\n      0x00\n        /* \"#utility.yul\":3773:3779   */\n      dup5\n        /* \"#utility.yul\":3768:3771   */\n      dup5\n        /* \"#utility.yul\":3764:3780   */\n      add\n        /* \"#utility.yul\":3757:3784   */\n      mstore\n        /* \"#utility.yul\":3693:3794   */\n    tag_475:\n        /* \"#utility.yul\":3542:3800   */\n      pop\n        /* \"#utility.yul\":3493:3800   */\n      pop\n      pop\n      pop\n      jump\t// out\n        /* \"#utility.yul\":3806:3908   */\n    tag_377:\n        /* \"#utility.yul\":3847:3853   */\n      0x00\n        /* \"#utility.yul\":3898:3900   */\n      0x1f\n        /* \"#utility.yul\":3894:3901   */\n      not\n        /* \"#utility.yul\":3889:3891   */\n      0x1f\n        /* \"#utility.yul\":3882:3887   */\n      dup4\n        /* \"#utility.yul\":3878:3892   */\n      add\n        /* \"#utility.yul\":3874:3902   */\n      and\n        /* \"#utility.yul\":3864:3902   */\n      swap1\n      pop\n        /* \"#utility.yul\":3806:3908   */\n      swap2\n      swap1\n      pop\n      jump\t// out\n        /* \"#utility.yul\":3914:4278   */\n    tag_378:\n        /* \"#utility.yul\":4002:4005   */\n      0x00\n        /* \"#utility.yul\":4030:4069   */\n      tag_478\n        /* \"#utility.yul\":4063:4068   */\n      dup3\n        /* \"#utility.yul\":4030:4069   */\n      tag_374\n      jump\t// in\n    tag_478:\n        /* \"#utility.yul\":4085:4156   */\n      tag_479\n        /* \"#utility.yul\":4149:4155   */\n      dup2\n        /* \"#utility.yul\":4144:4147   */\n      dup6\n        /* \"#utility.yul\":4085:4156   */\n      tag_375\n      jump\t// in\n    tag_479:\n        /* \"#utility.yul\":4078:4156   */\n      swap4\n      pop\n        /* \"#utility.yul\":4165:4217   */\n      tag_480\n        /* \"#utility.yul\":4210:4216   */\n      dup2\n        /* \"#utility.yul\":4205:4208   */\n      dup6\n        /* \"#utility.yul\":4198:4202   */\n      0x20\n        /* \"#utility.yul\":4191:4196   */\n      dup7\n        /* \"#utility.yul\":4187:4203   */\n      add\n        /* \"#utility.yul\":4165:4217   */\n      tag_376\n      jump\t// in\n    tag_480:\n        /* \"#utility.yul\":4242:4271   */\n      tag_481\n        /* \"#utility.yul\":4264:4270   */\n      dup2\n        /* \"#utility.yul\":4242:4271   */\n      tag_377\n      jump\t// in\n    tag_481:\n        /* \"#utility.yul\":4237:4240   */\n      dup5\n        /* \"#utility.yul\":4233:4272   */\n      add\n        /* \"#utility.yul\":4226:4272   */\n      swap2\n      pop\n        /* \"#utility.yul\":4006:4278   */\n      pop\n        /* \"#utility.yul\":3914:4278   */\n      swap3\n      swap2\n      pop\n      pop\n      jump\t// out\n        /* \"#utility.yul\":4284:4597   */\n    tag_56:\n        /* \"#utility.yul\":4397:4401   */\n      0x00\n        /* \"#utility.yul\":4435:4437   */\n      0x20\n        /* \"#utility.yul\":4424:4433   */\n      dup3\n        /* \"#utility.yul\":4420:4438   */\n      add\n        /* \"#utility.yul\":4412:4438   */\n      swap1\n      pop\n        /* \"#utility.yul\":4484:4493   */\n      dup2\n        /* \"#utility.yul\":4478:4482   */\n      dup2\n        /* \"#utility.yul\":4474:4494   */\n      sub\n        /* \"#utility.yul\":4470:4471   */\n      0x00\n        /* \"#utility.yul\":4459:4468   */\n      dup4\n        /* \"#utility.yul\":4455:4472   */\n      add\n        /* \"#utility.yul\":4448:4495   */\n      mstore\n        /* \"#utility.yul\":4512:4590   */\n      tag_483\n        /* \"#utility.yul\":4585:4589   */\n      dup2\n        /* \"#utility.yul\":4576:4582   */\n      dup5\n        /* \"#utility.yul\":4512:4590   */\n      tag_378\n      jump\t// in\n    tag_483:\n        /* \"#utility.yul\":4504:4590   */\n      swap1\n      pop\n        /* \"#utility.yul\":4284:4597   */\n      swap3\n      swap2\n      pop\n      pop\n      jump\t// out\n        /* \"#utility.yul\":4603:4720   */\n    tag_379:\n        /* \"#utility.yul\":4712:4713   */\n      0x00\n        /* \"#utility.yul\":4709:4710   */\n      dup1\n        /* \"#utility.yul\":4702:4714   */\n      revert\n        /* \"#utility.yul\":4726:4843   */\n    tag_380:\n        /* \"#utility.yul\":4835:4836   */\n      0x00\n        /* \"#utility.yul\":4832:4833   */\n      dup1\n        /* \"#utility.yul\":4825:4837   */\n      revert\n        /* \"#utility.yul\":4849:5029   */\n    tag_263:\n        /* \"#utility.yul\":4897:4974   */\n      0x4e487b7100000000000000000000000000000000000000000000000000000000\n        /* \"#utility.yul\":4894:4895   */\n      0x00\n        /* \"#utility.yul\":4887:4975   */\n      mstore\n        /* \"#utility.yul\":4994:4998   */\n      0x41\n        /* \"#utility.yul\":4991:4992   */\n      0x04\n        /* \"#utility.yul\":4984:4999   */\n      mstore\n        /* \"#utility.yul\":5018:5022   */\n      0x24\n        /* \"#utility.yul\":5015:5016   */\n      0x00\n        /* \"#utility.yul\":5008:5023   */\n      revert\n        /* \"#utility.yul\":5035:5316   */\n    tag_381:\n        /* \"#utility.yul\":5118:5145   */\n      tag_488\n        /* \"#utility.yul\":5140:5144   */\n      dup3\n        /* \"#utility.yul\":5118:5145   */\n      tag_377\n      jump\t// in\n    tag_488:\n        /* \"#utility.yul\":5110:5116   */\n      dup2\n        /* \"#utility.yul\":5106:5146   */\n      add\n        /* \"#utility.yul\":5248:5254   */\n      dup2\n        /* \"#utility.yul\":5236:5246   */\n      dup2\n        /* \"#utility.yul\":5233:5255   */\n      lt\n        /* \"#utility.yul\":5212:5230   */\n      0xffffffffffffffff\n        /* \"#utility.yul\":5200:5210   */\n      dup3\n        /* \"#utility.yul\":5197:5231   */\n      gt\n        /* \"#utility.yul\":5194:5256   */\n      or\n        /* \"#utility.yul\":5191:5279   */\n      iszero\n      tag_489\n      jumpi\n        /* \"#utility.yul\":5259:5277   */\n      tag_490\n      tag_263\n      jump\t// in\n    tag_490:\n        /* \"#utility.yul\":5191:5279   */\n    tag_489:\n        /* \"#utility.yul\":5299:5309   */\n      dup1\n        /* \"#utility.yul\":5295:5297   */\n      0x40\n        /* \"#utility.yul\":5288:5310   */\n      mstore\n        /* \"#utility.yul\":5078:5316   */\n      pop\n        /* \"#utility.yul\":5035:5316   */\n      pop\n      pop\n      jump\t// out\n        /* \"#utility.yul\":5322:5451   */\n    tag_382:\n        /* \"#utility.yul\":5356:5362   */\n      0x00\n        /* \"#utility.yul\":5383:5403   */\n      tag_492\n      tag_358\n      jump\t// in\n    tag_492:\n        /* \"#utility.yul\":5373:5403   */\n      swap1\n      pop\n        /* \"#utility.yul\":5412:5445   */\n      tag_493\n        /* \"#utility.yul\":5440:5444   */\n      dup3\n        /* \"#utility.yul\":5432:5438   */\n      dup3\n        /* \"#utility.yul\":5412:5445   */\n      tag_381\n      jump\t// in\n    tag_493:\n        /* \"#utility.yul\":5322:5451   */\n      swap2\n      swap1\n      pop\n      jump\t// out\n        /* \"#utility.yul\":5457:5765   */\n    tag_383:\n        /* \"#utility.yul\":5519:5523   */\n      0x00\n        /* \"#utility.yul\":5609:5627   */\n      0xffffffffffffffff\n        /* \"#utility.yul\":5601:5607   */\n      dup3\n        /* \"#utility.yul\":5598:5628   */\n      gt\n        /* \"#utility.yul\":5595:5651   */\n      iszero\n      tag_495\n      jumpi\n        /* \"#utility.yul\":5631:5649   */\n      tag_496\n      tag_263\n      jump\t// in\n    tag_496:\n        /* \"#utility.yul\":5595:5651   */\n    tag_495:\n        /* \"#utility.yul\":5669:5698   */\n      tag_497\n        /* \"#utility.yul\":5691:5697   */\n      dup3\n        /* \"#utility.yul\":5669:5698   */\n      tag_377\n      jump\t// in\n    tag_497:\n        /* \"#utility.yul\":5661:5698   */\n      swap1\n      pop\n        /* \"#utility.yul\":5753:5757   */\n      0x20\n        /* \"#utility.yul\":5747:5751   */\n      dup2\n        /* \"#utility.yul\":5743:5758   */\n      add\n        /* \"#utility.yul\":5735:5758   */\n      swap1\n      pop\n        /* \"#utility.yul\":5457:5765   */\n      swap2\n      swap1\n      pop\n      jump\t// out\n        /* \"#utility.yul\":5771:5925   */\n    tag_384:\n        /* \"#utility.yul\":5855:5861   */\n      dup3\n        /* \"#utility.yul\":5850:5853   */\n      dup2\n        /* \"#utility.yul\":5845:5848   */\n      dup4\n        /* \"#utility.yul\":5832:5862   */\n      calldatacopy\n        /* \"#utility.yul\":5917:5918   */\n      0x00\n        /* \"#utility.yul\":5908:5914   */\n      dup4\n        /* \"#utility.yul\":5903:5906   */\n      dup4\n        /* \"#utility.yul\":5899:5915   */\n      add\n        /* \"#utility.yul\":5892:5919   */\n      mstore\n        /* \"#utility.yul\":5771:5925   */\n      pop\n      pop\n      pop\n      jump\t// out\n        /* \"#utility.yul\":5931:6343   */\n    tag_385:\n        /* \"#utility.yul\":6009:6014   */\n      0x00\n        /* \"#utility.yul\":6034:6100   */\n      tag_500\n        /* \"#utility.yul\":6050:6099   */\n      tag_501\n        /* \"#utility.yul\":6092:6098   */\n      dup5\n        /* \"#utility.yul\":6050:6099   */\n      tag_383\n      jump\t// in\n    tag_501:\n        /* \"#utility.yul\":6034:6100   */\n      tag_382\n      jump\t// in\n    tag_500:\n        /* \"#utility.yul\":6025:6100   */\n      swap1\n      pop\n        /* \"#utility.yul\":6123:6129   */\n      dup3\n        /* \"#utility.yul\":6116:6121   */\n      dup2\n        /* \"#utility.yul\":6109:6130   */\n      mstore\n        /* \"#utility.yul\":6161:6165   */\n      0x20\n        /* \"#utility.yul\":6154:6159   */\n      dup2\n        /* \"#utility.yul\":6150:6166   */\n      add\n        /* \"#utility.yul\":6199:6202   */\n      dup5\n        /* \"#utility.yul\":6190:6196   */\n      dup5\n        /* \"#utility.yul\":6185:6188   */\n      dup5\n        /* \"#utility.yul\":6181:6197   */\n      add\n        /* \"#utility.yul\":6178:6203   */\n      gt\n        /* \"#utility.yul\":6175:6287   */\n      iszero\n      tag_502\n      jumpi\n        /* \"#utility.yul\":6206:6285   */\n      tag_503\n      tag_380\n      jump\t// in\n    tag_503:\n        /* \"#utility.yul\":6175:6287   */\n    tag_502:\n        /* \"#utility.yul\":6296:6337   */\n      tag_504\n        /* \"#utility.yul\":6330:6336   */\n      dup5\n        /* \"#utility.yul\":6325:6328   */\n      dup3\n        /* \"#utility.yul\":6320:6323   */\n      dup6\n        /* \"#utility.yul\":6296:6337   */\n      tag_384\n      jump\t// in\n    tag_504:\n        /* \"#utility.yul\":6015:6343   */\n      pop\n        /* \"#utility.yul\":5931:6343   */\n      swap4\n      swap3\n      pop\n      pop\n      pop\n      jump\t// out\n        /* \"#utility.yul\":6363:6703   */\n    tag_386:\n        /* \"#utility.yul\":6419:6424   */\n      0x00\n        /* \"#utility.yul\":6468:6471   */\n      dup3\n        /* \"#utility.yul\":6461:6465   */\n      0x1f\n        /* \"#utility.yul\":6453:6459   */\n      dup4\n        /* \"#utility.yul\":6449:6466   */\n      add\n        /* \"#utility.yul\":6445:6472   */\n      slt\n        /* \"#utility.yul\":6435:6557   */\n      tag_506\n      jumpi\n        /* \"#utility.yul\":6476:6555   */\n      tag_507\n      tag_379\n      jump\t// in\n    tag_507:\n        /* \"#utility.yul\":6435:6557   */\n    tag_506:\n        /* \"#utility.yul\":6593:6599   */\n      dup2\n        /* \"#utility.yul\":6580:6600   */\n      calldataload\n        /* \"#utility.yul\":6618:6697   */\n      tag_508\n        /* \"#utility.yul\":6693:6696   */\n      dup5\n        /* \"#utility.yul\":6685:6691   */\n      dup3\n        /* \"#utility.yul\":6678:6682   */\n      0x20\n        /* \"#utility.yul\":6670:6676   */\n      dup7\n        /* \"#utility.yul\":6666:6683   */\n      add\n        /* \"#utility.yul\":6618:6697   */\n      tag_385\n      jump\t// in\n    tag_508:\n        /* \"#utility.yul\":6609:6697   */\n      swap2\n      pop\n        /* \"#utility.yul\":6425:6703   */\n      pop\n        /* \"#utility.yul\":6363:6703   */\n      swap3\n      swap2\n      pop\n      pop\n      jump\t// out\n        /* \"#utility.yul\":6709:7363   */\n    tag_59:\n        /* \"#utility.yul\":6787:6793   */\n      0x00\n        /* \"#utility.yul\":6795:6801   */\n      dup1\n        /* \"#utility.yul\":6844:6846   */\n      0x40\n        /* \"#utility.yul\":6832:6841   */\n      dup4\n        /* \"#utility.yul\":6823:6830   */\n      dup6\n        /* \"#utility.yul\":6819:6842   */\n      sub\n        /* \"#utility.yul\":6815:6847   */\n      slt\n        /* \"#utility.yul\":6812:6931   */\n      iszero\n      tag_510\n      jumpi\n        /* \"#utility.yul\":6850:6929   */\n      tag_511\n      tag_359\n      jump\t// in\n    tag_511:\n        /* \"#utility.yul\":6812:6931   */\n    tag_510:\n        /* \"#utility.yul\":6998:6999   */\n      0x00\n        /* \"#utility.yul\":6987:6996   */\n      dup4\n        /* \"#utility.yul\":6983:7000   */\n      add\n        /* \"#utility.yul\":6970:7001   */\n      calldataload\n        /* \"#utility.yul\":7028:7046   */\n      0xffffffffffffffff\n        /* \"#utility.yul\":7020:7026   */\n      dup2\n        /* \"#utility.yul\":7017:7047   */\n      gt\n        /* \"#utility.yul\":7014:7131   */\n      iszero\n      tag_512\n      jumpi\n        /* \"#utility.yul\":7050:7129   */\n      tag_513\n      tag_360\n      jump\t// in\n    tag_513:\n        /* \"#utility.yul\":7014:7131   */\n    tag_512:\n        /* \"#utility.yul\":7155:7218   */\n      tag_514\n        /* \"#utility.yul\":7210:7217   */\n      dup6\n        /* \"#utility.yul\":7201:7207   */\n      dup3\n        /* \"#utility.yul\":7190:7199   */\n      dup7\n        /* \"#utility.yul\":7186:7208   */\n      add\n        /* \"#utility.yul\":7155:7218   */\n      tag_386\n      jump\t// in\n    tag_514:\n        /* \"#utility.yul\":7145:7218   */\n      swap3\n      pop\n        /* \"#utility.yul\":6941:7228   */\n      pop\n        /* \"#utility.yul\":7267:7269   */\n      0x20\n        /* \"#utility.yul\":7293:7346   */\n      tag_515\n        /* \"#utility.yul\":7338:7345   */\n      dup6\n        /* \"#utility.yul\":7329:7335   */\n      dup3\n        /* \"#utility.yul\":7318:7327   */\n      dup7\n        /* \"#utility.yul\":7314:7336   */\n      add\n        /* \"#utility.yul\":7293:7346   */\n      tag_367\n      jump\t// in\n    tag_515:\n        /* \"#utility.yul\":7283:7346   */\n      swap2\n      pop\n        /* \"#utility.yul\":7238:7356   */\n      pop\n        /* \"#utility.yul\":6709:7363   */\n      swap3\n      pop\n      swap3\n      swap1\n      pop\n      jump\t// out\n        /* \"#utility.yul\":7369:7698   */\n    tag_63:\n        /* \"#utility.yul\":7428:7434   */\n      0x00\n        /* \"#utility.yul\":7477:7479   */\n      0x20\n        /* \"#utility.yul\":7465:7474   */\n      dup3\n        /* \"#utility.yul\":7456:7463   */\n      dup5\n        /* \"#utility.yul\":7452:7475   */\n      sub\n        /* \"#utility.yul\":7448:7480   */\n      slt\n        /* \"#utility.yul\":7445:7564   */\n      iszero\n      tag_517\n      jumpi\n        /* \"#utility.yul\":7483:7562   */\n      tag_518\n      tag_359\n      jump\t// in\n    tag_518:\n        /* \"#utility.yul\":7445:7564   */\n    tag_517:\n        /* \"#utility.yul\":7603:7604   */\n      0x00\n        /* \"#utility.yul\":7628:7681   */\n      tag_519\n        /* \"#utility.yul\":7673:7680   */\n      dup5\n        /* \"#utility.yul\":7664:7670   */\n      dup3\n        /* \"#utility.yul\":7653:7662   */\n      dup6\n        /* \"#utility.yul\":7649:7671   */\n      add\n        /* \"#utility.yul\":7628:7681   */\n      tag_364\n      jump\t// in\n    tag_519:\n        /* \"#utility.yul\":7618:7681   */\n      swap2\n      pop\n        /* \"#utility.yul\":7574:7691   */\n      pop\n        /* \"#utility.yul\":7369:7698   */\n      swap3\n      swap2\n      pop\n      pop\n      jump\t// out\n        /* \"#utility.yul\":7704:8033   */\n    tag_68:\n        /* \"#utility.yul\":7763:7769   */\n      0x00\n        /* \"#utility.yul\":7812:7814   */\n      0x20\n        /* \"#utility.yul\":7800:7809   */\n      dup3\n        /* \"#utility.yul\":7791:7798   */\n      dup5\n        /* \"#utility.yul\":7787:7810   */\n      sub\n        /* \"#utility.yul\":7783:7815   */\n      slt\n        /* \"#utility.yul\":7780:7899   */\n      iszero\n      tag_521\n      jumpi\n        /* \"#utility.yul\":7818:7897   */\n      tag_522\n      tag_359\n      jump\t// in\n    tag_522:\n        /* \"#utility.yul\":7780:7899   */\n    tag_521:\n        /* \"#utility.yul\":7938:7939   */\n      0x00\n        /* \"#utility.yul\":7963:8016   */\n      tag_523\n        /* \"#utility.yul\":8008:8015   */\n      dup5\n        /* \"#utility.yul\":7999:8005   */\n      dup3\n        /* \"#utility.yul\":7988:7997   */\n      dup6\n        /* \"#utility.yul\":7984:8006   */\n      add\n        /* \"#utility.yul\":7963:8016   */\n      tag_367\n      jump\t// in\n    tag_523:\n        /* \"#utility.yul\":7953:8016   */\n      swap2\n      pop\n        /* \"#utility.yul\":7909:8026   */\n      pop\n        /* \"#utility.yul\":7704:8033   */\n      swap3\n      swap2\n      pop\n      pop\n      jump\t// out\n        /* \"#utility.yul\":8039:8156   */\n    tag_387:\n        /* \"#utility.yul\":8148:8149   */\n      0x00\n        /* \"#utility.yul\":8145:8146   */\n      dup1\n        /* \"#utility.yul\":8138:8150   */\n      revert\n        /* \"#utility.yul\":8162:8279   */\n    tag_388:\n        /* \"#utility.yul\":8271:8272   */\n      0x00\n        /* \"#utility.yul\":8268:8269   */\n      dup1\n        /* \"#utility.yul\":8261:8273   */\n      revert\n        /* \"#utility.yul\":8302:8870   */\n    tag_389:\n        /* \"#utility.yul\":8375:8383   */\n      0x00\n        /* \"#utility.yul\":8385:8391   */\n      dup1\n        /* \"#utility.yul\":8435:8438   */\n      dup4\n        /* \"#utility.yul\":8428:8432   */\n      0x1f\n        /* \"#utility.yul\":8420:8426   */\n      dup5\n        /* \"#utility.yul\":8416:8433   */\n      add\n        /* \"#utility.yul\":8412:8439   */\n      slt\n        /* \"#utility.yul\":8402:8524   */\n      tag_527\n      jumpi\n        /* \"#utility.yul\":8443:8522   */\n      tag_528\n      tag_379\n      jump\t// in\n    tag_528:\n        /* \"#utility.yul\":8402:8524   */\n    tag_527:\n        /* \"#utility.yul\":8556:8562   */\n      dup3\n        /* \"#utility.yul\":8543:8563   */\n      calldataload\n        /* \"#utility.yul\":8533:8563   */\n      swap1\n      pop\n        /* \"#utility.yul\":8586:8604   */\n      0xffffffffffffffff\n        /* \"#utility.yul\":8578:8584   */\n      dup2\n        /* \"#utility.yul\":8575:8605   */\n      gt\n        /* \"#utility.yul\":8572:8689   */\n      iszero\n      tag_529\n      jumpi\n        /* \"#utility.yul\":8608:8687   */\n      tag_530\n      tag_387\n      jump\t// in\n    tag_530:\n        /* \"#utility.yul\":8572:8689   */\n    tag_529:\n        /* \"#utility.yul\":8722:8726   */\n      0x20\n        /* \"#utility.yul\":8714:8720   */\n      dup4\n        /* \"#utility.yul\":8710:8727   */\n      add\n        /* \"#utility.yul\":8698:8727   */\n      swap2\n      pop\n        /* \"#utility.yul\":8776:8779   */\n      dup4\n        /* \"#utility.yul\":8768:8772   */\n      0x20\n        /* \"#utility.yul\":8760:8766   */\n      dup3\n        /* \"#utility.yul\":8756:8773   */\n      mul\n        /* \"#utility.yul\":8746:8754   */\n      dup4\n        /* \"#utility.yul\":8742:8774   */\n      add\n        /* \"#utility.yul\":8739:8780   */\n      gt\n        /* \"#utility.yul\":8736:8864   */\n      iszero\n      tag_531\n      jumpi\n        /* \"#utility.yul\":8783:8862   */\n      tag_532\n      tag_388\n      jump\t// in\n    tag_532:\n        /* \"#utility.yul\":8736:8864   */\n    tag_531:\n        /* \"#utility.yul\":8302:8870   */\n      swap3\n      pop\n      swap3\n      swap1\n      pop\n      jump\t// out\n        /* \"#utility.yul\":8889:9441   */\n    tag_390:\n        /* \"#utility.yul\":8946:8954   */\n      0x00\n        /* \"#utility.yul\":8956:8962   */\n      dup1\n        /* \"#utility.yul\":9006:9009   */\n      dup4\n        /* \"#utility.yul\":8999:9003   */\n      0x1f\n        /* \"#utility.yul\":8991:8997   */\n      dup5\n        /* \"#utility.yul\":8987:9004   */\n      add\n        /* \"#utility.yul\":8983:9010   */\n      slt\n        /* \"#utility.yul\":8973:9095   */\n      tag_534\n      jumpi\n        /* \"#utility.yul\":9014:9093   */\n      tag_535\n      tag_379\n      jump\t// in\n    tag_535:\n        /* \"#utility.yul\":8973:9095   */\n    tag_534:\n        /* \"#utility.yul\":9127:9133   */\n      dup3\n        /* \"#utility.yul\":9114:9134   */\n      calldataload\n        /* \"#utility.yul\":9104:9134   */\n      swap1\n      pop\n        /* \"#utility.yul\":9157:9175   */\n      0xffffffffffffffff\n        /* \"#utility.yul\":9149:9155   */\n      dup2\n        /* \"#utility.yul\":9146:9176   */\n      gt\n        /* \"#utility.yul\":9143:9260   */\n      iszero\n      tag_536\n      jumpi\n        /* \"#utility.yul\":9179:9258   */\n      tag_537\n      tag_387\n      jump\t// in\n    tag_537:\n        /* \"#utility.yul\":9143:9260   */\n    tag_536:\n        /* \"#utility.yul\":9293:9297   */\n      0x20\n        /* \"#utility.yul\":9285:9291   */\n      dup4\n        /* \"#utility.yul\":9281:9298   */\n      add\n        /* \"#utility.yul\":9269:9298   */\n      swap2\n      pop\n        /* \"#utility.yul\":9347:9350   */\n      dup4\n        /* \"#utility.yul\":9339:9343   */\n      0x01\n        /* \"#utility.yul\":9331:9337   */\n      dup3\n        /* \"#utility.yul\":9327:9344   */\n      mul\n        /* \"#utility.yul\":9317:9325   */\n      dup4\n        /* \"#utility.yul\":9313:9345   */\n      add\n        /* \"#utility.yul\":9310:9351   */\n      gt\n        /* \"#utility.yul\":9307:9435   */\n      iszero\n      tag_538\n      jumpi\n        /* \"#utility.yul\":9354:9433   */\n      tag_539\n      tag_388\n      jump\t// in\n    tag_539:\n        /* \"#utility.yul\":9307:9435   */\n    tag_538:\n        /* \"#utility.yul\":8889:9441   */\n      swap3\n      pop\n      swap3\n      swap1\n      pop\n      jump\t// out\n        /* \"#utility.yul\":9447:11016   */\n    tag_76:\n        /* \"#utility.yul\":9607:9613   */\n      0x00\n        /* \"#utility.yul\":9615:9621   */\n      dup1\n        /* \"#utility.yul\":9623:9629   */\n      0x00\n        /* \"#utility.yul\":9631:9637   */\n      dup1\n        /* \"#utility.yul\":9639:9645   */\n      0x00\n        /* \"#utility.yul\":9647:9653   */\n      dup1\n        /* \"#utility.yul\":9655:9661   */\n      0x00\n        /* \"#utility.yul\":9663:9669   */\n      dup1\n        /* \"#utility.yul\":9712:9715   */\n      0xa0\n        /* \"#utility.yul\":9700:9709   */\n      dup10\n        /* \"#utility.yul\":9691:9698   */\n      dup12\n        /* \"#utility.yul\":9687:9710   */\n      sub\n        /* \"#utility.yul\":9683:9716   */\n      slt\n        /* \"#utility.yul\":9680:9800   */\n      iszero\n      tag_541\n      jumpi\n        /* \"#utility.yul\":9719:9798   */\n      tag_542\n      tag_359\n      jump\t// in\n    tag_542:\n        /* \"#utility.yul\":9680:9800   */\n    tag_541:\n        /* \"#utility.yul\":9839:9840   */\n      0x00\n        /* \"#utility.yul\":9864:9917   */\n      tag_543\n        /* \"#utility.yul\":9909:9916   */\n      dup12\n        /* \"#utility.yul\":9900:9906   */\n      dup3\n        /* \"#utility.yul\":9889:9898   */\n      dup13\n        /* \"#utility.yul\":9885:9907   */\n      add\n        /* \"#utility.yul\":9864:9917   */\n      tag_364\n      jump\t// in\n    tag_543:\n        /* \"#utility.yul\":9854:9917   */\n      swap9\n      pop\n        /* \"#utility.yul\":9810:9927   */\n      pop\n        /* \"#utility.yul\":9966:9968   */\n      0x20\n        /* \"#utility.yul\":9992:10045   */\n      tag_544\n        /* \"#utility.yul\":10037:10044   */\n      dup12\n        /* \"#utility.yul\":10028:10034   */\n      dup3\n        /* \"#utility.yul\":10017:10026   */\n      dup13\n        /* \"#utility.yul\":10013:10035   */\n      add\n        /* \"#utility.yul\":9992:10045   */\n      tag_364\n      jump\t// in\n    tag_544:\n        /* \"#utility.yul\":9982:10045   */\n      swap8\n      pop\n        /* \"#utility.yul\":9937:10055   */\n      pop\n        /* \"#utility.yul\":10122:10124   */\n      0x40\n        /* \"#utility.yul\":10111:10120   */\n      dup10\n        /* \"#utility.yul\":10107:10125   */\n      add\n        /* \"#utility.yul\":10094:10126   */\n      calldataload\n        /* \"#utility.yul\":10153:10171   */\n      0xffffffffffffffff\n        /* \"#utility.yul\":10145:10151   */\n      dup2\n        /* \"#utility.yul\":10142:10172   */\n      gt\n        /* \"#utility.yul\":10139:10256   */\n      iszero\n      tag_545\n      jumpi\n        /* \"#utility.yul\":10175:10254   */\n      tag_546\n      tag_360\n      jump\t// in\n    tag_546:\n        /* \"#utility.yul\":10139:10256   */\n    tag_545:\n        /* \"#utility.yul\":10288:10368   */\n      tag_547\n        /* \"#utility.yul\":10360:10367   */\n      dup12\n        /* \"#utility.yul\":10351:10357   */\n      dup3\n        /* \"#utility.yul\":10340:10349   */\n      dup13\n        /* \"#utility.yul\":10336:10358   */\n      add\n        /* \"#utility.yul\":10288:10368   */\n      tag_389\n      jump\t// in\n    tag_547:\n        /* \"#utility.yul\":10270:10368   */\n      swap7\n      pop\n      swap7\n      pop\n        /* \"#utility.yul\":10065:10378   */\n      pop\n        /* \"#utility.yul\":10445:10447   */\n      0x60\n        /* \"#utility.yul\":10434:10443   */\n      dup10\n        /* \"#utility.yul\":10430:10448   */\n      add\n        /* \"#utility.yul\":10417:10449   */\n      calldataload\n        /* \"#utility.yul\":10476:10494   */\n      0xffffffffffffffff\n        /* \"#utility.yul\":10468:10474   */\n      dup2\n        /* \"#utility.yul\":10465:10495   */\n      gt\n        /* \"#utility.yul\":10462:10579   */\n      iszero\n      tag_548\n      jumpi\n        /* \"#utility.yul\":10498:10577   */\n      tag_549\n      tag_360\n      jump\t// in\n    tag_549:\n        /* \"#utility.yul\":10462:10579   */\n    tag_548:\n        /* \"#utility.yul\":10611:10691   */\n      tag_550\n        /* \"#utility.yul\":10683:10690   */\n      dup12\n        /* \"#utility.yul\":10674:10680   */\n      dup3\n        /* \"#utility.yul\":10663:10672   */\n      dup13\n        /* \"#utility.yul\":10659:10681   */\n      add\n        /* \"#utility.yul\":10611:10691   */\n      tag_389\n      jump\t// in\n    tag_550:\n        /* \"#utility.yul\":10593:10691   */\n      swap5\n      pop\n      swap5\n      pop\n        /* \"#utility.yul\":10388:10701   */\n      pop\n        /* \"#utility.yul\":10768:10771   */\n      0x80\n        /* \"#utility.yul\":10757:10766   */\n      dup10\n        /* \"#utility.yul\":10753:10772   */\n      add\n        /* \"#utility.yul\":10740:10773   */\n      calldataload\n        /* \"#utility.yul\":10800:10818   */\n      0xffffffffffffffff\n        /* \"#utility.yul\":10792:10798   */\n      dup2\n        /* \"#utility.yul\":10789:10819   */\n      gt\n        /* \"#utility.yul\":10786:10903   */\n      iszero\n      tag_551\n      jumpi\n        /* \"#utility.yul\":10822:10901   */\n      tag_552\n      tag_360\n      jump\t// in\n    tag_552:\n        /* \"#utility.yul\":10786:10903   */\n    tag_551:\n        /* \"#utility.yul\":10935:10999   */\n      tag_553\n        /* \"#utility.yul\":10991:10998   */\n      dup12\n        /* \"#utility.yul\":10982:10988   */\n      dup3\n        /* \"#utility.yul\":10971:10980   */\n      dup13\n        /* \"#utility.yul\":10967:10989   */\n      add\n        /* \"#utility.yul\":10935:10999   */\n      tag_390\n      jump\t// in\n    tag_553:\n        /* \"#utility.yul\":10917:10999   */\n      swap3\n      pop\n      swap3\n      pop\n        /* \"#utility.yul\":10711:11009   */\n      pop\n        /* \"#utility.yul\":9447:11016   */\n      swap3\n      swap6\n      swap9\n      pop\n      swap3\n      swap6\n      swap9\n      swap1\n      swap4\n      swap7\n      pop\n      jump\t// out\n        /* \"#utility.yul\":11022:11641   */\n    tag_80:\n        /* \"#utility.yul\":11099:11105   */\n      0x00\n        /* \"#utility.yul\":11107:11113   */\n      dup1\n        /* \"#utility.yul\":11115:11121   */\n      0x00\n        /* \"#utility.yul\":11164:11166   */\n      0x60\n        /* \"#utility.yul\":11152:11161   */\n      dup5\n        /* \"#utility.yul\":11143:11150   */\n      dup7\n        /* \"#utility.yul\":11139:11162   */\n      sub\n        /* \"#utility.yul\":11135:11167   */\n      slt\n        /* \"#utility.yul\":11132:11251   */\n      iszero\n      tag_555\n      jumpi\n        /* \"#utility.yul\":11170:11249   */\n      tag_556\n      tag_359\n      jump\t// in\n    tag_556:\n        /* \"#utility.yul\":11132:11251   */\n    tag_555:\n        /* \"#utility.yul\":11290:11291   */\n      0x00\n        /* \"#utility.yul\":11315:11368   */\n      tag_557\n        /* \"#utility.yul\":11360:11367   */\n      dup7\n        /* \"#utility.yul\":11351:11357   */\n      dup3\n        /* \"#utility.yul\":11340:11349   */\n      dup8\n        /* \"#utility.yul\":11336:11358   */\n      add\n        /* \"#utility.yul\":11315:11368   */\n      tag_364\n      jump\t// in\n    tag_557:\n        /* \"#utility.yul\":11305:11368   */\n      swap4\n      pop\n        /* \"#utility.yul\":11261:11378   */\n      pop\n        /* \"#utility.yul\":11417:11419   */\n      0x20\n        /* \"#utility.yul\":11443:11496   */\n      tag_558\n        /* \"#utility.yul\":11488:11495   */\n      dup7\n        /* \"#utility.yul\":11479:11485   */\n      dup3\n        /* \"#utility.yul\":11468:11477   */\n      dup8\n        /* \"#utility.yul\":11464:11486   */\n      add\n        /* \"#utility.yul\":11443:11496   */\n      tag_367\n      jump\t// in\n    tag_558:\n        /* \"#utility.yul\":11433:11496   */\n      swap3\n      pop\n        /* \"#utility.yul\":11388:11506   */\n      pop\n        /* \"#utility.yul\":11545:11547   */\n      0x40\n        /* \"#utility.yul\":11571:11624   */\n      tag_559\n        /* \"#utility.yul\":11616:11623   */\n      dup7\n        /* \"#utility.yul\":11607:11613   */\n      dup3\n        /* \"#utility.yul\":11596:11605   */\n      dup8\n        /* \"#utility.yul\":11592:11614   */\n      add\n        /* \"#utility.yul\":11571:11624   */\n      tag_367\n      jump\t// in\n    tag_559:\n        /* \"#utility.yul\":11561:11624   */\n      swap2\n      pop\n        /* \"#utility.yul\":11516:11634   */\n      pop\n        /* \"#utility.yul\":11022:11641   */\n      swap3\n      pop\n      swap3\n      pop\n      swap3\n      jump\t// out\n        /* \"#utility.yul\":11647:11765   */\n    tag_391:\n        /* \"#utility.yul\":11734:11758   */\n      tag_561\n        /* \"#utility.yul\":11752:11757   */\n      dup2\n        /* \"#utility.yul\":11734:11758   */\n      tag_362\n      jump\t// in\n    tag_561:\n        /* \"#utility.yul\":11729:11732   */\n      dup3\n        /* \"#utility.yul\":11722:11759   */\n      mstore\n        /* \"#utility.yul\":11647:11765   */\n      pop\n      pop\n      jump\t// out\n        /* \"#utility.yul\":11771:11993   */\n    tag_87:\n        /* \"#utility.yul\":11864:11868   */\n      0x00\n        /* \"#utility.yul\":11902:11904   */\n      0x20\n        /* \"#utility.yul\":11891:11900   */\n      dup3\n        /* \"#utility.yul\":11887:11905   */\n      add\n        /* \"#utility.yul\":11879:11905   */\n      swap1\n      pop\n        /* \"#utility.yul\":11915:11986   */\n      tag_563\n        /* \"#utility.yul\":11983:11984   */\n      0x00\n        /* \"#utility.yul\":11972:11981   */\n      dup4\n        /* \"#utility.yul\":11968:11985   */\n      add\n        /* \"#utility.yul\":11959:11965   */\n      dup5\n        /* \"#utility.yul\":11915:11986   */\n      tag_391\n      jump\t// in\n    tag_563:\n        /* \"#utility.yul\":11771:11993   */\n      swap3\n      swap2\n      pop\n      pop\n      jump\t// out\n        /* \"#utility.yul\":12016:12584   */\n    tag_392:\n        /* \"#utility.yul\":12089:12097   */\n      0x00\n        /* \"#utility.yul\":12099:12105   */\n      dup1\n        /* \"#utility.yul\":12149:12152   */\n      dup4\n        /* \"#utility.yul\":12142:12146   */\n      0x1f\n        /* \"#utility.yul\":12134:12140   */\n      dup5\n        /* \"#utility.yul\":12130:12147   */\n      add\n        /* \"#utility.yul\":12126:12153   */\n      slt\n        /* \"#utility.yul\":12116:12238   */\n      tag_565\n      jumpi\n        /* \"#utility.yul\":12157:12236   */\n      tag_566\n      tag_379\n      jump\t// in\n    tag_566:\n        /* \"#utility.yul\":12116:12238   */\n    tag_565:\n        /* \"#utility.yul\":12270:12276   */\n      dup3\n        /* \"#utility.yul\":12257:12277   */\n      calldataload\n        /* \"#utility.yul\":12247:12277   */\n      swap1\n      pop\n        /* \"#utility.yul\":12300:12318   */\n      0xffffffffffffffff\n        /* \"#utility.yul\":12292:12298   */\n      dup2\n        /* \"#utility.yul\":12289:12319   */\n      gt\n        /* \"#utility.yul\":12286:12403   */\n      iszero\n      tag_567\n      jumpi\n        /* \"#utility.yul\":12322:12401   */\n      tag_568\n      tag_387\n      jump\t// in\n    tag_568:\n        /* \"#utility.yul\":12286:12403   */\n    tag_567:\n        /* \"#utility.yul\":12436:12440   */\n      0x20\n        /* \"#utility.yul\":12428:12434   */\n      dup4\n        /* \"#utility.yul\":12424:12441   */\n      add\n        /* \"#utility.yul\":12412:12441   */\n      swap2\n      pop\n        /* \"#utility.yul\":12490:12493   */\n      dup4\n        /* \"#utility.yul\":12482:12486   */\n      0x20\n        /* \"#utility.yul\":12474:12480   */\n      dup3\n        /* \"#utility.yul\":12470:12487   */\n      mul\n        /* \"#utility.yul\":12460:12468   */\n      dup4\n        /* \"#utility.yul\":12456:12488   */\n      add\n        /* \"#utility.yul\":12453:12494   */\n      gt\n        /* \"#utility.yul\":12450:12578   */\n      iszero\n      tag_569\n      jumpi\n        /* \"#utility.yul\":12497:12576   */\n      tag_570\n      tag_388\n      jump\t// in\n    tag_570:\n        /* \"#utility.yul\":12450:12578   */\n    tag_569:\n        /* \"#utility.yul\":12016:12584   */\n      swap3\n      pop\n      swap3\n      swap1\n      pop\n      jump\t// out\n        /* \"#utility.yul\":12590:13524   */\n    tag_93:\n        /* \"#utility.yul\":12712:12718   */\n      0x00\n        /* \"#utility.yul\":12720:12726   */\n      dup1\n        /* \"#utility.yul\":12728:12734   */\n      0x00\n        /* \"#utility.yul\":12736:12742   */\n      dup1\n        /* \"#utility.yul\":12785:12787   */\n      0x40\n        /* \"#utility.yul\":12773:12782   */\n      dup6\n        /* \"#utility.yul\":12764:12771   */\n      dup8\n        /* \"#utility.yul\":12760:12783   */\n      sub\n        /* \"#utility.yul\":12756:12788   */\n      slt\n        /* \"#utility.yul\":12753:12872   */\n      iszero\n      tag_572\n      jumpi\n        /* \"#utility.yul\":12791:12870   */\n      tag_573\n      tag_359\n      jump\t// in\n    tag_573:\n        /* \"#utility.yul\":12753:12872   */\n    tag_572:\n        /* \"#utility.yul\":12939:12940   */\n      0x00\n        /* \"#utility.yul\":12928:12937   */\n      dup6\n        /* \"#utility.yul\":12924:12941   */\n      add\n        /* \"#utility.yul\":12911:12942   */\n      calldataload\n        /* \"#utility.yul\":12969:12987   */\n      0xffffffffffffffff\n        /* \"#utility.yul\":12961:12967   */\n      dup2\n        /* \"#utility.yul\":12958:12988   */\n      gt\n        /* \"#utility.yul\":12955:13072   */\n      iszero\n      tag_574\n      jumpi\n        /* \"#utility.yul\":12991:13070   */\n      tag_575\n      tag_360\n      jump\t// in\n    tag_575:\n        /* \"#utility.yul\":12955:13072   */\n    tag_574:\n        /* \"#utility.yul\":13104:13184   */\n      tag_576\n        /* \"#utility.yul\":13176:13183   */\n      dup8\n        /* \"#utility.yul\":13167:13173   */\n      dup3\n        /* \"#utility.yul\":13156:13165   */\n      dup9\n        /* \"#utility.yul\":13152:13174   */\n      add\n        /* \"#utility.yul\":13104:13184   */\n      tag_392\n      jump\t// in\n    tag_576:\n        /* \"#utility.yul\":13086:13184   */\n      swap5\n      pop\n      swap5\n      pop\n        /* \"#utility.yul\":12882:13194   */\n      pop\n        /* \"#utility.yul\":13261:13263   */\n      0x20\n        /* \"#utility.yul\":13250:13259   */\n      dup6\n        /* \"#utility.yul\":13246:13264   */\n      add\n        /* \"#utility.yul\":13233:13265   */\n      calldataload\n        /* \"#utility.yul\":13292:13310   */\n      0xffffffffffffffff\n        /* \"#utility.yul\":13284:13290   */\n      dup2\n        /* \"#utility.yul\":13281:13311   */\n      gt\n        /* \"#utility.yul\":13278:13395   */\n      iszero\n      tag_577\n      jumpi\n        /* \"#utility.yul\":13314:13393   */\n      tag_578\n      tag_360\n      jump\t// in\n    tag_578:\n        /* \"#utility.yul\":13278:13395   */\n    tag_577:\n        /* \"#utility.yul\":13427:13507   */\n      tag_579\n        /* \"#utility.yul\":13499:13506   */\n      dup8\n        /* \"#utility.yul\":13490:13496   */\n      dup3\n        /* \"#utility.yul\":13479:13488   */\n      dup9\n        /* \"#utility.yul\":13475:13497   */\n      add\n        /* \"#utility.yul\":13427:13507   */\n      tag_389\n      jump\t// in\n    tag_579:\n        /* \"#utility.yul\":13409:13507   */\n      swap3\n      pop\n      swap3\n      pop\n        /* \"#utility.yul\":13204:13517   */\n      pop\n        /* \"#utility.yul\":12590:13524   */\n      swap3\n      swap6\n      swap2\n      swap5\n      pop\n      swap3\n      pop\n      jump\t// out\n        /* \"#utility.yul\":13530:13644   */\n    tag_393:\n        /* \"#utility.yul\":13597:13603   */\n      0x00\n        /* \"#utility.yul\":13631:13636   */\n      dup2\n        /* \"#utility.yul\":13625:13637   */\n      mload\n        /* \"#utility.yul\":13615:13637   */\n      swap1\n      pop\n        /* \"#utility.yul\":13530:13644   */\n      swap2\n      swap1\n      pop\n      jump\t// out\n        /* \"#utility.yul\":13650:13834   */\n    tag_394:\n        /* \"#utility.yul\":13749:13760   */\n      0x00\n        /* \"#utility.yul\":13783:13789   */\n      dup3\n        /* \"#utility.yul\":13778:13781   */\n      dup3\n        /* \"#utility.yul\":13771:13790   */\n      mstore\n        /* \"#utility.yul\":13823:13827   */\n      0x20\n        /* \"#utility.yul\":13818:13821   */\n      dup3\n        /* \"#utility.yul\":13814:13828   */\n      add\n        /* \"#utility.yul\":13799:13828   */\n      swap1\n      pop\n        /* \"#utility.yul\":13650:13834   */\n      swap3\n      swap2\n      pop\n      pop\n      jump\t// out\n        /* \"#utility.yul\":13840:13972   */\n    tag_395:\n        /* \"#utility.yul\":13907:13911   */\n      0x00\n        /* \"#utility.yul\":13930:13933   */\n      dup2\n        /* \"#utility.yul\":13922:13933   */\n      swap1\n      pop\n        /* \"#utility.yul\":13960:13964   */\n      0x20\n        /* \"#utility.yul\":13955:13958   */\n      dup3\n        /* \"#utility.yul\":13951:13965   */\n      add\n        /* \"#utility.yul\":13943:13965   */\n      swap1\n      pop\n        /* \"#utility.yul\":13840:13972   */\n      swap2\n      swap1\n      pop\n      jump\t// out\n        /* \"#utility.yul\":13978:14086   */\n    tag_396:\n        /* \"#utility.yul\":14055:14079   */\n      tag_584\n        /* \"#utility.yul\":14073:14078   */\n      dup2\n        /* \"#utility.yul\":14055:14079   */\n      tag_365\n      jump\t// in\n    tag_584:\n        /* \"#utility.yul\":14050:14053   */\n      dup3\n        /* \"#utility.yul\":14043:14080   */\n      mstore\n        /* \"#utility.yul\":13978:14086   */\n      pop\n      pop\n      jump\t// out\n        /* \"#utility.yul\":14092:14271   */\n    tag_397:\n        /* \"#utility.yul\":14161:14171   */\n      0x00\n        /* \"#utility.yul\":14182:14228   */\n      tag_586\n        /* \"#utility.yul\":14224:14227   */\n      dup4\n        /* \"#utility.yul\":14216:14222   */\n      dup4\n        /* \"#utility.yul\":14182:14228   */\n      tag_396\n      jump\t// in\n    tag_586:\n        /* \"#utility.yul\":14260:14264   */\n      0x20\n        /* \"#utility.yul\":14255:14258   */\n      dup4\n        /* \"#utility.yul\":14251:14265   */\n      add\n        /* \"#utility.yul\":14237:14265   */\n      swap1\n      pop\n        /* \"#utility.yul\":14092:14271   */\n      swap3\n      swap2\n      pop\n      pop\n      jump\t// out\n        /* \"#utility.yul\":14277:14390   */\n    tag_398:\n        /* \"#utility.yul\":14347:14351   */\n      0x00\n        /* \"#utility.yul\":14379:14383   */\n      0x20\n        /* \"#utility.yul\":14374:14377   */\n      dup3\n        /* \"#utility.yul\":14370:14384   */\n      add\n        /* \"#utility.yul\":14362:14384   */\n      swap1\n      pop\n        /* \"#utility.yul\":14277:14390   */\n      swap2\n      swap1\n      pop\n      jump\t// out\n        /* \"#utility.yul\":14426:15158   */\n    tag_399:\n        /* \"#utility.yul\":14545:14548   */\n      0x00\n        /* \"#utility.yul\":14574:14628   */\n      tag_589\n        /* \"#utility.yul\":14622:14627   */\n      dup3\n        /* \"#utility.yul\":14574:14628   */\n      tag_393\n      jump\t// in\n    tag_589:\n        /* \"#utility.yul\":14644:14730   */\n      tag_590\n        /* \"#utility.yul\":14723:14729   */\n      dup2\n        /* \"#utility.yul\":14718:14721   */\n      dup6\n        /* \"#utility.yul\":14644:14730   */\n      tag_394\n      jump\t// in\n    tag_590:\n        /* \"#utility.yul\":14637:14730   */\n      swap4\n      pop\n        /* \"#utility.yul\":14754:14810   */\n      tag_591\n        /* \"#utility.yul\":14804:14809   */\n      dup4\n        /* \"#utility.yul\":14754:14810   */\n      tag_395\n      jump\t// in\n    tag_591:\n        /* \"#utility.yul\":14833:14840   */\n      dup1\n        /* \"#utility.yul\":14864:14865   */\n      0x00\n        /* \"#utility.yul\":14849:15133   */\n    tag_592:\n        /* \"#utility.yul\":14874:14880   */\n      dup4\n        /* \"#utility.yul\":14871:14872   */\n      dup2\n        /* \"#utility.yul\":14868:14881   */\n      lt\n        /* \"#utility.yul\":14849:15133   */\n      iszero\n      tag_594\n      jumpi\n        /* \"#utility.yul\":14950:14956   */\n      dup2\n        /* \"#utility.yul\":14944:14957   */\n      mload\n        /* \"#utility.yul\":14977:15040   */\n      tag_595\n        /* \"#utility.yul\":15036:15039   */\n      dup9\n        /* \"#utility.yul\":15021:15034   */\n      dup3\n        /* \"#utility.yul\":14977:15040   */\n      tag_397\n      jump\t// in\n    tag_595:\n        /* \"#utility.yul\":14970:15040   */\n      swap8\n      pop\n        /* \"#utility.yul\":15063:15123   */\n      tag_596\n        /* \"#utility.yul\":15116:15122   */\n      dup4\n        /* \"#utility.yul\":15063:15123   */\n      tag_398\n      jump\t// in\n    tag_596:\n        /* \"#utility.yul\":15053:15123   */\n      swap3\n      pop\n        /* \"#utility.yul\":14909:15133   */\n      pop\n        /* \"#utility.yul\":14896:14897   */\n      0x01\n        /* \"#utility.yul\":14893:14894   */\n      dup2\n        /* \"#utility.yul\":14889:14898   */\n      add\n        /* \"#utility.yul\":14884:14898   */\n      swap1\n      pop\n        /* \"#utility.yul\":14849:15133   */\n      jump(tag_592)\n    tag_594:\n        /* \"#utility.yul\":14853:14867   */\n      pop\n        /* \"#utility.yul\":15149:15152   */\n      dup6\n        /* \"#utility.yul\":15142:15152   */\n      swap4\n      pop\n        /* \"#utility.yul\":14550:15158   */\n      pop\n      pop\n      pop\n        /* \"#utility.yul\":14426:15158   */\n      swap3\n      swap2\n      pop\n      pop\n      jump\t// out\n        /* \"#utility.yul\":15164:15537   */\n    tag_96:\n        /* \"#utility.yul\":15307:15311   */\n      0x00\n        /* \"#utility.yul\":15345:15347   */\n      0x20\n        /* \"#utility.yul\":15334:15343   */\n      dup3\n        /* \"#utility.yul\":15330:15348   */\n      add\n        /* \"#utility.yul\":15322:15348   */\n      swap1\n      pop\n        /* \"#utility.yul\":15394:15403   */\n      dup2\n        /* \"#utility.yul\":15388:15392   */\n      dup2\n        /* \"#utility.yul\":15384:15404   */\n      sub\n        /* \"#utility.yul\":15380:15381   */\n      0x00\n        /* \"#utility.yul\":15369:15378   */\n      dup4\n        /* \"#utility.yul\":15365:15382   */\n      add\n        /* \"#utility.yul\":15358:15405   */\n      mstore\n        /* \"#utility.yul\":15422:15530   */\n      tag_598\n        /* \"#utility.yul\":15525:15529   */\n      dup2\n        /* \"#utility.yul\":15516:15522   */\n      dup5\n        /* \"#utility.yul\":15422:15530   */\n      tag_399\n      jump\t// in\n    tag_598:\n        /* \"#utility.yul\":15414:15530   */\n      swap1\n      pop\n        /* \"#utility.yul\":15164:15537   */\n      swap3\n      swap2\n      pop\n      pop\n      jump\t// out\n        /* \"#utility.yul\":15543:15659   */\n    tag_400:\n        /* \"#utility.yul\":15613:15634   */\n      tag_600\n        /* \"#utility.yul\":15628:15633   */\n      dup2\n        /* \"#utility.yul\":15613:15634   */\n      tag_372\n      jump\t// in\n    tag_600:\n        /* \"#utility.yul\":15606:15611   */\n      dup2\n        /* \"#utility.yul\":15603:15635   */\n      eq\n        /* \"#utility.yul\":15593:15653   */\n      tag_601\n      jumpi\n        /* \"#utility.yul\":15649:15650   */\n      0x00\n        /* \"#utility.yul\":15646:15647   */\n      dup1\n        /* \"#utility.yul\":15639:15651   */\n      revert\n        /* \"#utility.yul\":15593:15653   */\n    tag_601:\n        /* \"#utility.yul\":15543:15659   */\n      pop\n      jump\t// out\n        /* \"#utility.yul\":15665:15798   */\n    tag_401:\n        /* \"#utility.yul\":15708:15713   */\n      0x00\n        /* \"#utility.yul\":15746:15752   */\n      dup2\n        /* \"#utility.yul\":15733:15753   */\n      calldataload\n        /* \"#utility.yul\":15724:15753   */\n      swap1\n      pop\n        /* \"#utility.yul\":15762:15792   */\n      tag_603\n        /* \"#utility.yul\":15786:15791   */\n      dup2\n        /* \"#utility.yul\":15762:15792   */\n      tag_400\n      jump\t// in\n    tag_603:\n        /* \"#utility.yul\":15665:15798   */\n      swap3\n      swap2\n      pop\n      pop\n      jump\t// out\n        /* \"#utility.yul\":15804:16272   */\n    tag_120:\n        /* \"#utility.yul\":15869:15875   */\n      0x00\n        /* \"#utility.yul\":15877:15883   */\n      dup1\n        /* \"#utility.yul\":15926:15928   */\n      0x40\n        /* \"#utility.yul\":15914:15923   */\n      dup4\n        /* \"#utility.yul\":15905:15912   */\n      dup6\n        /* \"#utility.yul\":15901:15924   */\n      sub\n        /* \"#utility.yul\":15897:15929   */\n      slt\n        /* \"#utility.yul\":15894:16013   */\n      iszero\n      tag_605\n      jumpi\n        /* \"#utility.yul\":15932:16011   */\n      tag_606\n      tag_359\n      jump\t// in\n    tag_606:\n        /* \"#utility.yul\":15894:16013   */\n    tag_605:\n        /* \"#utility.yul\":16052:16053   */\n      0x00\n        /* \"#utility.yul\":16077:16130   */\n      tag_607\n        /* \"#utility.yul\":16122:16129   */\n      dup6\n        /* \"#utility.yul\":16113:16119   */\n      dup3\n        /* \"#utility.yul\":16102:16111   */\n      dup7\n        /* \"#utility.yul\":16098:16120   */\n      add\n        /* \"#utility.yul\":16077:16130   */\n      tag_364\n      jump\t// in\n    tag_607:\n        /* \"#utility.yul\":16067:16130   */\n      swap3\n      pop\n        /* \"#utility.yul\":16023:16140   */\n      pop\n        /* \"#utility.yul\":16179:16181   */\n      0x20\n        /* \"#utility.yul\":16205:16255   */\n      tag_608\n        /* \"#utility.yul\":16247:16254   */\n      dup6\n        /* \"#utility.yul\":16238:16244   */\n      dup3\n        /* \"#utility.yul\":16227:16236   */\n      dup7\n        /* \"#utility.yul\":16223:16245   */\n      add\n        /* \"#utility.yul\":16205:16255   */\n      tag_401\n      jump\t// in\n    tag_608:\n        /* \"#utility.yul\":16195:16255   */\n      swap2\n      pop\n        /* \"#utility.yul\":16150:16265   */\n      pop\n        /* \"#utility.yul\":15804:16272   */\n      swap3\n      pop\n      swap3\n      swap1\n      pop\n      jump\t// out\n        /* \"#utility.yul\":16278:16752   */\n    tag_144:\n        /* \"#utility.yul\":16346:16352   */\n      0x00\n        /* \"#utility.yul\":16354:16360   */\n      dup1\n        /* \"#utility.yul\":16403:16405   */\n      0x40\n        /* \"#utility.yul\":16391:16400   */\n      dup4\n        /* \"#utility.yul\":16382:16389   */\n      dup6\n        /* \"#utility.yul\":16378:16401   */\n      sub\n        /* \"#utility.yul\":16374:16406   */\n      slt\n        /* \"#utility.yul\":16371:16490   */\n      iszero\n      tag_610\n      jumpi\n        /* \"#utility.yul\":16409:16488   */\n      tag_611\n      tag_359\n      jump\t// in\n    tag_611:\n        /* \"#utility.yul\":16371:16490   */\n    tag_610:\n        /* \"#utility.yul\":16529:16530   */\n      0x00\n        /* \"#utility.yul\":16554:16607   */\n      tag_612\n        /* \"#utility.yul\":16599:16606   */\n      dup6\n        /* \"#utility.yul\":16590:16596   */\n      dup3\n        /* \"#utility.yul\":16579:16588   */\n      dup7\n        /* \"#utility.yul\":16575:16597   */\n      add\n        /* \"#utility.yul\":16554:16607   */\n      tag_364\n      jump\t// in\n    tag_612:\n        /* \"#utility.yul\":16544:16607   */\n      swap3\n      pop\n        /* \"#utility.yul\":16500:16617   */\n      pop\n        /* \"#utility.yul\":16656:16658   */\n      0x20\n        /* \"#utility.yul\":16682:16735   */\n      tag_613\n        /* \"#utility.yul\":16727:16734   */\n      dup6\n        /* \"#utility.yul\":16718:16724   */\n      dup3\n        /* \"#utility.yul\":16707:16716   */\n      dup7\n        /* \"#utility.yul\":16703:16725   */\n      add\n        /* \"#utility.yul\":16682:16735   */\n      tag_364\n      jump\t// in\n    tag_613:\n        /* \"#utility.yul\":16672:16735   */\n      swap2\n      pop\n        /* \"#utility.yul\":16627:16745   */\n      pop\n        /* \"#utility.yul\":16278:16752   */\n      swap3\n      pop\n      swap3\n      swap1\n      pop\n      jump\t// out\n        /* \"#utility.yul\":16758:17867   */\n    tag_149:\n        /* \"#utility.yul\":16864:16870   */\n      0x00\n        /* \"#utility.yul\":16872:16878   */\n      dup1\n        /* \"#utility.yul\":16880:16886   */\n      0x00\n        /* \"#utility.yul\":16888:16894   */\n      dup1\n        /* \"#utility.yul\":16896:16902   */\n      0x00\n        /* \"#utility.yul\":16904:16910   */\n      dup1\n        /* \"#utility.yul\":16953:16956   */\n      0xa0\n        /* \"#utility.yul\":16941:16950   */\n      dup8\n        /* \"#utility.yul\":16932:16939   */\n      dup10\n        /* \"#utility.yul\":16928:16951   */\n      sub\n        /* \"#utility.yul\":16924:16957   */\n      slt\n        /* \"#utility.yul\":16921:17041   */\n      iszero\n      tag_615\n      jumpi\n        /* \"#utility.yul\":16960:17039   */\n      tag_616\n      tag_359\n      jump\t// in\n    tag_616:\n        /* \"#utility.yul\":16921:17041   */\n    tag_615:\n        /* \"#utility.yul\":17080:17081   */\n      0x00\n        /* \"#utility.yul\":17105:17158   */\n      tag_617\n        /* \"#utility.yul\":17150:17157   */\n      dup10\n        /* \"#utility.yul\":17141:17147   */\n      dup3\n        /* \"#utility.yul\":17130:17139   */\n      dup11\n        /* \"#utility.yul\":17126:17148   */\n      add\n        /* \"#utility.yul\":17105:17158   */\n      tag_364\n      jump\t// in\n    tag_617:\n        /* \"#utility.yul\":17095:17158   */\n      swap7\n      pop\n        /* \"#utility.yul\":17051:17168   */\n      pop\n        /* \"#utility.yul\":17207:17209   */\n      0x20\n        /* \"#utility.yul\":17233:17286   */\n      tag_618\n        /* \"#utility.yul\":17278:17285   */\n      dup10\n        /* \"#utility.yul\":17269:17275   */\n      dup3\n        /* \"#utility.yul\":17258:17267   */\n      dup11\n        /* \"#utility.yul\":17254:17276   */\n      add\n        /* \"#utility.yul\":17233:17286   */\n      tag_364\n      jump\t// in\n    tag_618:\n        /* \"#utility.yul\":17223:17286   */\n      swap6\n      pop\n        /* \"#utility.yul\":17178:17296   */\n      pop\n        /* \"#utility.yul\":17335:17337   */\n      0x40\n        /* \"#utility.yul\":17361:17414   */\n      tag_619\n        /* \"#utility.yul\":17406:17413   */\n      dup10\n        /* \"#utility.yul\":17397:17403   */\n      dup3\n        /* \"#utility.yul\":17386:17395   */\n      dup11\n        /* \"#utility.yul\":17382:17404   */\n      add\n        /* \"#utility.yul\":17361:17414   */\n      tag_367\n      jump\t// in\n    tag_619:\n        /* \"#utility.yul\":17351:17414   */\n      swap5\n      pop\n        /* \"#utility.yul\":17306:17424   */\n      pop\n        /* \"#utility.yul\":17463:17465   */\n      0x60\n        /* \"#utility.yul\":17489:17542   */\n      tag_620\n        /* \"#utility.yul\":17534:17541   */\n      dup10\n        /* \"#utility.yul\":17525:17531   */\n      dup3\n        /* \"#utility.yul\":17514:17523   */\n      dup11\n        /* \"#utility.yul\":17510:17532   */\n      add\n        /* \"#utility.yul\":17489:17542   */\n      tag_367\n      jump\t// in\n    tag_620:\n        /* \"#utility.yul\":17479:17542   */\n      swap4\n      pop\n        /* \"#utility.yul\":17434:17552   */\n      pop\n        /* \"#utility.yul\":17619:17622   */\n      0x80\n        /* \"#utility.yul\":17608:17617   */\n      dup8\n        /* \"#utility.yul\":17604:17623   */\n      add\n        /* \"#utility.yul\":17591:17624   */\n      calldataload\n        /* \"#utility.yul\":17651:17669   */\n      0xffffffffffffffff\n        /* \"#utility.yul\":17643:17649   */\n      dup2\n        /* \"#utility.yul\":17640:17670   */\n      gt\n        /* \"#utility.yul\":17637:17754   */\n      iszero\n      tag_621\n      jumpi\n        /* \"#utility.yul\":17673:17752   */\n      tag_622\n      tag_360\n      jump\t// in\n    tag_622:\n        /* \"#utility.yul\":17637:17754   */\n    tag_621:\n        /* \"#utility.yul\":17786:17850   */\n      tag_623\n        /* \"#utility.yul\":17842:17849   */\n      dup10\n        /* \"#utility.yul\":17833:17839   */\n      dup3\n        /* \"#utility.yul\":17822:17831   */\n      dup11\n        /* \"#utility.yul\":17818:17840   */\n      add\n        /* \"#utility.yul\":17786:17850   */\n      tag_390\n      jump\t// in\n    tag_623:\n        /* \"#utility.yul\":17768:17850   */\n      swap3\n      pop\n      swap3\n      pop\n        /* \"#utility.yul\":17562:17860   */\n      pop\n        /* \"#utility.yul\":16758:17867   */\n      swap3\n      swap6\n      pop\n      swap3\n      swap6\n      pop\n      swap3\n      swap6\n      jump\t// out\n        /* \"#utility.yul\":17873:18053   */\n    tag_402:\n        /* \"#utility.yul\":17921:17998   */\n      0x4e487b7100000000000000000000000000000000000000000000000000000000\n        /* \"#utility.yul\":17918:17919   */\n      0x00\n        /* \"#utility.yul\":17911:17999   */\n      mstore\n        /* \"#utility.yul\":18018:18022   */\n      0x22\n        /* \"#utility.yul\":18015:18016   */\n      0x04\n        /* \"#utility.yul\":18008:18023   */\n      mstore\n        /* \"#utility.yul\":18042:18046   */\n      0x24\n        /* \"#utility.yul\":18039:18040   */\n      0x00\n        /* \"#utility.yul\":18032:18047   */\n      revert\n        /* \"#utility.yul\":18059:18379   */\n    tag_161:\n        /* \"#utility.yul\":18103:18109   */\n      0x00\n        /* \"#utility.yul\":18140:18141   */\n      0x02\n        /* \"#utility.yul\":18134:18138   */\n      dup3\n        /* \"#utility.yul\":18130:18142   */\n      div\n        /* \"#utility.yul\":18120:18142   */\n      swap1\n      pop\n        /* \"#utility.yul\":18187:18188   */\n      0x01\n        /* \"#utility.yul\":18181:18185   */\n      dup3\n        /* \"#utility.yul\":18177:18189   */\n      and\n        /* \"#utility.yul\":18208:18226   */\n      dup1\n        /* \"#utility.yul\":18198:18279   */\n      tag_626\n      jumpi\n        /* \"#utility.yul\":18264:18268   */\n      0x7f\n        /* \"#utility.yul\":18256:18262   */\n      dup3\n        /* \"#utility.yul\":18252:18269   */\n      and\n        /* \"#utility.yul\":18242:18269   */\n      swap2\n      pop\n        /* \"#utility.yul\":18198:18279   */\n    tag_626:\n        /* \"#utility.yul\":18326:18328   */\n      0x20\n        /* \"#utility.yul\":18318:18324   */\n      dup3\n        /* \"#utility.yul\":18315:18329   */\n      lt\n        /* \"#utility.yul\":18295:18313   */\n      dup2\n        /* \"#utility.yul\":18292:18330   */\n      eq\n        /* \"#utility.yul\":18289:18373   */\n      iszero\n      tag_627\n      jumpi\n        /* \"#utility.yul\":18345:18363   */\n      tag_628\n      tag_402\n      jump\t// in\n    tag_628:\n        /* \"#utility.yul\":18289:18373   */\n    tag_627:\n        /* \"#utility.yul\":18110:18379   */\n      pop\n        /* \"#utility.yul\":18059:18379   */\n      swap2\n      swap1\n      pop\n      jump\t// out\n        /* \"#utility.yul\":18385:18567   */\n    tag_403:\n        /* \"#utility.yul\":18525:18559   */\n      0x4f776e61626c653a2063616c6c6572206973206e6f7420746865206f776e6572\n        /* \"#utility.yul\":18521:18522   */\n      0x00\n        /* \"#utility.yul\":18513:18519   */\n      dup3\n        /* \"#utility.yul\":18509:18523   */\n      add\n        /* \"#utility.yul\":18502:18560   */\n      mstore\n        /* \"#utility.yul\":18385:18567   */\n      pop\n      jump\t// out\n        /* \"#utility.yul\":18573:18939   */\n    tag_404:\n        /* \"#utility.yul\":18715:18718   */\n      0x00\n        /* \"#utility.yul\":18736:18803   */\n      tag_631\n        /* \"#utility.yul\":18800:18802   */\n      0x20\n        /* \"#utility.yul\":18795:18798   */\n      dup4\n        /* \"#utility.yul\":18736:18803   */\n      tag_375\n      jump\t// in\n    tag_631:\n        /* \"#utility.yul\":18729:18803   */\n      swap2\n      pop\n        /* \"#utility.yul\":18812:18905   */\n      tag_632\n        /* \"#utility.yul\":18901:18904   */\n      dup3\n        /* \"#utility.yul\":18812:18905   */\n      tag_403\n      jump\t// in\n    tag_632:\n        /* \"#utility.yul\":18930:18932   */\n      0x20\n        /* \"#utility.yul\":18925:18928   */\n      dup3\n        /* \"#utility.yul\":18921:18933   */\n      add\n        /* \"#utility.yul\":18914:18933   */\n      swap1\n      pop\n        /* \"#utility.yul\":18573:18939   */\n      swap2\n      swap1\n      pop\n      jump\t// out\n        /* \"#utility.yul\":18945:19364   */\n    tag_172:\n        /* \"#utility.yul\":19111:19115   */\n      0x00\n        /* \"#utility.yul\":19149:19151   */\n      0x20\n        /* \"#utility.yul\":19138:19147   */\n      dup3\n        /* \"#utility.yul\":19134:19152   */\n      add\n        /* \"#utility.yul\":19126:19152   */\n      swap1\n      pop\n        /* \"#utility.yul\":19198:19207   */\n      dup2\n        /* \"#utility.yul\":19192:19196   */\n      dup2\n        /* \"#utility.yul\":19188:19208   */\n      sub\n        /* \"#utility.yul\":19184:19185   */\n      0x00\n        /* \"#utility.yul\":19173:19182   */\n      dup4\n        /* \"#utility.yul\":19169:19186   */\n      add\n        /* \"#utility.yul\":19162:19209   */\n      mstore\n        /* \"#utility.yul\":19226:19357   */\n      tag_634\n        /* \"#utility.yul\":19352:19356   */\n      dup2\n        /* \"#utility.yul\":19226:19357   */\n      tag_404\n      jump\t// in\n    tag_634:\n        /* \"#utility.yul\":19218:19357   */\n      swap1\n      pop\n        /* \"#utility.yul\":18945:19364   */\n      swap2\n      swap1\n      pop\n      jump\t// out\n        /* \"#utility.yul\":19370:19535   */\n    tag_405:\n        /* \"#utility.yul\":19510:19527   */\n      0x4c454e4754485f4d49534d415443480000000000000000000000000000000000\n        /* \"#utility.yul\":19506:19507   */\n      0x00\n        /* \"#utility.yul\":19498:19504   */\n      dup3\n        /* \"#utility.yul\":19494:19508   */\n      add\n        /* \"#utility.yul\":19487:19528   */\n      mstore\n        /* \"#utility.yul\":19370:19535   */\n      pop\n      jump\t// out\n        /* \"#utility.yul\":19541:19907   */\n    tag_406:\n        /* \"#utility.yul\":19683:19686   */\n      0x00\n        /* \"#utility.yul\":19704:19771   */\n      tag_637\n        /* \"#utility.yul\":19768:19770   */\n      0x0f\n        /* \"#utility.yul\":19763:19766   */\n      dup4\n        /* \"#utility.yul\":19704:19771   */\n      tag_375\n      jump\t// in\n    tag_637:\n        /* \"#utility.yul\":19697:19771   */\n      swap2\n      pop\n        /* \"#utility.yul\":19780:19873   */\n      tag_638\n        /* \"#utility.yul\":19869:19872   */\n      dup3\n        /* \"#utility.yul\":19780:19873   */\n      tag_405\n      jump\t// in\n    tag_638:\n        /* \"#utility.yul\":19898:19900   */\n      0x20\n        /* \"#utility.yul\":19893:19896   */\n      dup3\n        /* \"#utility.yul\":19889:19901   */\n      add\n        /* \"#utility.yul\":19882:19901   */\n      swap1\n      pop\n        /* \"#utility.yul\":19541:19907   */\n      swap2\n      swap1\n      pop\n      jump\t// out\n        /* \"#utility.yul\":19913:20332   */\n    tag_196:\n        /* \"#utility.yul\":20079:20083   */\n      0x00\n        /* \"#utility.yul\":20117:20119   */\n      0x20\n        /* \"#utility.yul\":20106:20115   */\n      dup3\n        /* \"#utility.yul\":20102:20120   */\n      add\n        /* \"#utility.yul\":20094:20120   */\n      swap1\n      pop\n        /* \"#utility.yul\":20166:20175   */\n      dup2\n        /* \"#utility.yul\":20160:20164   */\n      dup2\n        /* \"#utility.yul\":20156:20176   */\n      sub\n        /* \"#utility.yul\":20152:20153   */\n      0x00\n        /* \"#utility.yul\":20141:20150   */\n      dup4\n        /* \"#utility.yul\":20137:20154   */\n      add\n        /* \"#utility.yul\":20130:20177   */\n      mstore\n        /* \"#utility.yul\":20194:20325   */\n      tag_640\n        /* \"#utility.yul\":20320:20324   */\n      dup2\n        /* \"#utility.yul\":20194:20325   */\n      tag_406\n      jump\t// in\n    tag_640:\n        /* \"#utility.yul\":20186:20325   */\n      swap1\n      pop\n        /* \"#utility.yul\":19913:20332   */\n      swap2\n      swap1\n      pop\n      jump\t// out\n        /* \"#utility.yul\":20338:20502   */\n    tag_407:\n        /* \"#utility.yul\":20478:20494   */\n      0x4e4f545f415554484f52495a4544000000000000000000000000000000000000\n        /* \"#utility.yul\":20474:20475   */\n      0x00\n        /* \"#utility.yul\":20466:20472   */\n      dup3\n        /* \"#utility.yul\":20462:20476   */\n      add\n        /* \"#utility.yul\":20455:20495   */\n      mstore\n        /* \"#utility.yul\":20338:20502   */\n      pop\n      jump\t// out\n        /* \"#utility.yul\":20508:20874   */\n    tag_408:\n        /* \"#utility.yul\":20650:20653   */\n      0x00\n        /* \"#utility.yul\":20671:20738   */\n      tag_643\n        /* \"#utility.yul\":20735:20737   */\n      0x0e\n        /* \"#utility.yul\":20730:20733   */\n      dup4\n        /* \"#utility.yul\":20671:20738   */\n      tag_375\n      jump\t// in\n    tag_643:\n        /* \"#utility.yul\":20664:20738   */\n      swap2\n      pop\n        /* \"#utility.yul\":20747:20840   */\n      tag_644\n        /* \"#utility.yul\":20836:20839   */\n      dup3\n        /* \"#utility.yul\":20747:20840   */\n      tag_407\n      jump\t// in\n    tag_644:\n        /* \"#utility.yul\":20865:20867   */\n      0x20\n        /* \"#utility.yul\":20860:20863   */\n      dup3\n        /* \"#utility.yul\":20856:20868   */\n      add\n        /* \"#utility.yul\":20849:20868   */\n      swap1\n      pop\n        /* \"#utility.yul\":20508:20874   */\n      swap2\n      swap1\n      pop\n      jump\t// out\n        /* \"#utility.yul\":20880:21299   */\n    tag_200:\n        /* \"#utility.yul\":21046:21050   */\n      0x00\n        /* \"#utility.yul\":21084:21086   */\n      0x20\n        /* \"#utility.yul\":21073:21082   */\n      dup3\n        /* \"#utility.yul\":21069:21087   */\n      add\n        /* \"#utility.yul\":21061:21087   */\n      swap1\n      pop\n        /* \"#utility.yul\":21133:21142   */\n      dup2\n        /* \"#utility.yul\":21127:21131   */\n      dup2\n        /* \"#utility.yul\":21123:21143   */\n      sub\n        /* \"#utility.yul\":21119:21120   */\n      0x00\n        /* \"#utility.yul\":21108:21117   */\n      dup4\n        /* \"#utility.yul\":21104:21121   */\n      add\n        /* \"#utility.yul\":21097:21144   */\n      mstore\n        /* \"#utility.yul\":21161:21292   */\n      tag_646\n        /* \"#utility.yul\":21287:21291   */\n      dup2\n        /* \"#utility.yul\":21161:21292   */\n      tag_408\n      jump\t// in\n    tag_646:\n        /* \"#utility.yul\":21153:21292   */\n      swap1\n      pop\n        /* \"#utility.yul\":20880:21299   */\n      swap2\n      swap1\n      pop\n      jump\t// out\n        /* \"#utility.yul\":21305:21485   */\n    tag_206:\n        /* \"#utility.yul\":21353:21430   */\n      0x4e487b7100000000000000000000000000000000000000000000000000000000\n        /* \"#utility.yul\":21350:21351   */\n      0x00\n        /* \"#utility.yul\":21343:21431   */\n      mstore\n        /* \"#utility.yul\":21450:21454   */\n      0x32\n        /* \"#utility.yul\":21447:21448   */\n      0x04\n        /* \"#utility.yul\":21440:21455   */\n      mstore\n        /* \"#utility.yul\":21474:21478   */\n      0x24\n        /* \"#utility.yul\":21471:21472   */\n      0x00\n        /* \"#utility.yul\":21464:21479   */\n      revert\n        /* \"#utility.yul\":21491:21671   */\n    tag_409:\n        /* \"#utility.yul\":21539:21616   */\n      0x4e487b7100000000000000000000000000000000000000000000000000000000\n        /* \"#utility.yul\":21536:21537   */\n      0x00\n        /* \"#utility.yul\":21529:21617   */\n      mstore\n        /* \"#utility.yul\":21636:21640   */\n      0x11\n        /* \"#utility.yul\":21633:21634   */\n      0x04\n        /* \"#utility.yul\":21626:21641   */\n      mstore\n        /* \"#utility.yul\":21660:21664   */\n      0x24\n        /* \"#utility.yul\":21657:21658   */\n      0x00\n        /* \"#utility.yul\":21650:21665   */\n      revert\n        /* \"#utility.yul\":21677:21868   */\n    tag_210:\n        /* \"#utility.yul\":21717:21721   */\n      0x00\n        /* \"#utility.yul\":21737:21757   */\n      tag_650\n        /* \"#utility.yul\":21755:21756   */\n      dup3\n        /* \"#utility.yul\":21737:21757   */\n      tag_365\n      jump\t// in\n    tag_650:\n        /* \"#utility.yul\":21732:21757   */\n      swap2\n      pop\n        /* \"#utility.yul\":21771:21791   */\n      tag_651\n        /* \"#utility.yul\":21789:21790   */\n      dup4\n        /* \"#utility.yul\":21771:21791   */\n      tag_365\n      jump\t// in\n    tag_651:\n        /* \"#utility.yul\":21766:21791   */\n      swap3\n      pop\n        /* \"#utility.yul\":21810:21811   */\n      dup3\n        /* \"#utility.yul\":21807:21808   */\n      dup3\n        /* \"#utility.yul\":21804:21812   */\n      lt\n        /* \"#utility.yul\":21801:21835   */\n      iszero\n      tag_652\n      jumpi\n        /* \"#utility.yul\":21815:21833   */\n      tag_653\n      tag_409\n      jump\t// in\n    tag_653:\n        /* \"#utility.yul\":21801:21835   */\n    tag_652:\n        /* \"#utility.yul\":21860:21861   */\n      dup3\n        /* \"#utility.yul\":21857:21858   */\n      dup3\n        /* \"#utility.yul\":21853:21862   */\n      sub\n        /* \"#utility.yul\":21845:21862   */\n      swap1\n      pop\n        /* \"#utility.yul\":21677:21868   */\n      swap3\n      swap2\n      pop\n      pop\n      jump\t// out\n        /* \"#utility.yul\":21874:22179   */\n    tag_212:\n        /* \"#utility.yul\":21914:21917   */\n      0x00\n        /* \"#utility.yul\":21933:21953   */\n      tag_655\n        /* \"#utility.yul\":21951:21952   */\n      dup3\n        /* \"#utility.yul\":21933:21953   */\n      tag_365\n      jump\t// in\n    tag_655:\n        /* \"#utility.yul\":21928:21953   */\n      swap2\n      pop\n        /* \"#utility.yul\":21967:21987   */\n      tag_656\n        /* \"#utility.yul\":21985:21986   */\n      dup4\n        /* \"#utility.yul\":21967:21987   */\n      tag_365\n      jump\t// in\n    tag_656:\n        /* \"#utility.yul\":21962:21987   */\n      swap3\n      pop\n        /* \"#utility.yul\":22121:22122   */\n      dup3\n        /* \"#utility.yul\":22053:22119   */\n      0xffffffffffffffffffffffffffffffffffffffffffffffffffffffffffffffff\n        /* \"#utility.yul\":22049:22123   */\n      sub\n        /* \"#utility.yul\":22046:22047   */\n      dup3\n        /* \"#utility.yul\":22043:22124   */\n      gt\n        /* \"#utility.yul\":22040:22147   */\n      iszero\n      tag_657\n      jumpi\n        /* \"#utility.yul\":22127:22145   */\n      tag_658\n      tag_409\n      jump\t// in\n    tag_658:\n        /* \"#utility.yul\":22040:22147   */\n    tag_657:\n        /* \"#utility.yul\":22171:22172   */\n      dup3\n        /* \"#utility.yul\":22168:22169   */\n      dup3\n        /* \"#utility.yul\":22164:22173   */\n      add\n        /* \"#utility.yul\":22157:22173   */\n      swap1\n      pop\n        /* \"#utility.yul\":21874:22179   */\n      swap3\n      swap2\n      pop\n      pop\n      jump\t// out\n        /* \"#utility.yul\":22185:22302   */\n    tag_410:\n        /* \"#utility.yul\":22294:22295   */\n      0x00\n        /* \"#utility.yul\":22291:22292   */\n      dup1\n        /* \"#utility.yul\":22284:22296   */\n      revert\n        /* \"#utility.yul\":22338:22875   */\n    tag_411:\n        /* \"#utility.yul\":22466:22469   */\n      0x00\n        /* \"#utility.yul\":22487:22573   */\n      tag_661\n        /* \"#utility.yul\":22566:22572   */\n      dup4\n        /* \"#utility.yul\":22561:22564   */\n      dup6\n        /* \"#utility.yul\":22487:22573   */\n      tag_394\n      jump\t// in\n    tag_661:\n        /* \"#utility.yul\":22480:22573   */\n      swap4\n      pop\n        /* \"#utility.yul\":22597:22663   */\n      0x07ffffffffffffffffffffffffffffffffffffffffffffffffffffffffffffff\n        /* \"#utility.yul\":22589:22595   */\n      dup4\n        /* \"#utility.yul\":22586:22664   */\n      gt\n        /* \"#utility.yul\":22583:22748   */\n      iszero\n      tag_662\n      jumpi\n        /* \"#utility.yul\":22667:22746   */\n      tag_663\n      tag_410\n      jump\t// in\n    tag_663:\n        /* \"#utility.yul\":22583:22748   */\n    tag_662:\n        /* \"#utility.yul\":22779:22783   */\n      0x20\n        /* \"#utility.yul\":22771:22777   */\n      dup4\n        /* \"#utility.yul\":22767:22784   */\n      mul\n        /* \"#utility.yul\":22757:22784   */\n      swap3\n      pop\n        /* \"#utility.yul\":22794:22837   */\n      tag_664\n        /* \"#utility.yul\":22830:22836   */\n      dup4\n        /* \"#utility.yul\":22825:22828   */\n      dup6\n        /* \"#utility.yul\":22818:22823   */\n      dup5\n        /* \"#utility.yul\":22794:22837   */\n      tag_384\n      jump\t// in\n    tag_664:\n        /* \"#utility.yul\":22862:22868   */\n      dup3\n        /* \"#utility.yul\":22857:22860   */\n      dup5\n        /* \"#utility.yul\":22853:22869   */\n      add\n        /* \"#utility.yul\":22846:22869   */\n      swap1\n      pop\n        /* \"#utility.yul\":22338:22875   */\n      swap4\n      swap3\n      pop\n      pop\n      pop\n      jump\t// out\n        /* \"#utility.yul\":22881:23555   */\n    tag_214:\n        /* \"#utility.yul\":23122:23126   */\n      0x00\n        /* \"#utility.yul\":23160:23162   */\n      0x40\n        /* \"#utility.yul\":23149:23158   */\n      dup3\n        /* \"#utility.yul\":23145:23163   */\n      add\n        /* \"#utility.yul\":23137:23163   */\n      swap1\n      pop\n        /* \"#utility.yul\":23209:23218   */\n      dup2\n        /* \"#utility.yul\":23203:23207   */\n      dup2\n        /* \"#utility.yul\":23199:23219   */\n      sub\n        /* \"#utility.yul\":23195:23196   */\n      0x00\n        /* \"#utility.yul\":23184:23193   */\n      dup4\n        /* \"#utility.yul\":23180:23197   */\n      add\n        /* \"#utility.yul\":23173:23220   */\n      mstore\n        /* \"#utility.yul\":23237:23355   */\n      tag_666\n        /* \"#utility.yul\":23350:23354   */\n      dup2\n        /* \"#utility.yul\":23341:23347   */\n      dup7\n        /* \"#utility.yul\":23333:23339   */\n      dup9\n        /* \"#utility.yul\":23237:23355   */\n      tag_411\n      jump\t// in\n    tag_666:\n        /* \"#utility.yul\":23229:23355   */\n      swap1\n      pop\n        /* \"#utility.yul\":23402:23411   */\n      dup2\n        /* \"#utility.yul\":23396:23400   */\n      dup2\n        /* \"#utility.yul\":23392:23412   */\n      sub\n        /* \"#utility.yul\":23387:23389   */\n      0x20\n        /* \"#utility.yul\":23376:23385   */\n      dup4\n        /* \"#utility.yul\":23372:23390   */\n      add\n        /* \"#utility.yul\":23365:23413   */\n      mstore\n        /* \"#utility.yul\":23430:23548   */\n      tag_667\n        /* \"#utility.yul\":23543:23547   */\n      dup2\n        /* \"#utility.yul\":23534:23540   */\n      dup5\n        /* \"#utility.yul\":23526:23532   */\n      dup7\n        /* \"#utility.yul\":23430:23548   */\n      tag_411\n      jump\t// in\n    tag_667:\n        /* \"#utility.yul\":23422:23548   */\n      swap1\n      pop\n        /* \"#utility.yul\":22881:23555   */\n      swap6\n      swap5\n      pop\n      pop\n      pop\n      pop\n      pop\n      jump\t// out\n        /* \"#utility.yul\":23561:23729   */\n    tag_412:\n        /* \"#utility.yul\":23644:23655   */\n      0x00\n        /* \"#utility.yul\":23678:23684   */\n      dup3\n        /* \"#utility.yul\":23673:23676   */\n      dup3\n        /* \"#utility.yul\":23666:23685   */\n      mstore\n        /* \"#utility.yul\":23718:23722   */\n      0x20\n        /* \"#utility.yul\":23713:23716   */\n      dup3\n        /* \"#utility.yul\":23709:23723   */\n      add\n        /* \"#utility.yul\":23694:23723   */\n      swap1\n      pop\n        /* \"#utility.yul\":23561:23729   */\n      swap3\n      swap2\n      pop\n      pop\n      jump\t// out\n        /* \"#utility.yul\":23757:24058   */\n    tag_413:\n        /* \"#utility.yul\":23853:23856   */\n      0x00\n        /* \"#utility.yul\":23874:23944   */\n      tag_670\n        /* \"#utility.yul\":23937:23943   */\n      dup4\n        /* \"#utility.yul\":23932:23935   */\n      dup6\n        /* \"#utility.yul\":23874:23944   */\n      tag_412\n      jump\t// in\n    tag_670:\n        /* \"#utility.yul\":23867:23944   */\n      swap4\n      pop\n        /* \"#utility.yul\":23954:23997   */\n      tag_671\n        /* \"#utility.yul\":23990:23996   */\n      dup4\n        /* \"#utility.yul\":23985:23988   */\n      dup6\n        /* \"#utility.yul\":23978:23983   */\n      dup5\n        /* \"#utility.yul\":23954:23997   */\n      tag_384\n      jump\t// in\n    tag_671:\n        /* \"#utility.yul\":24022:24051   */\n      tag_672\n        /* \"#utility.yul\":24044:24050   */\n      dup4\n        /* \"#utility.yul\":24022:24051   */\n      tag_377\n      jump\t// in\n    tag_672:\n        /* \"#utility.yul\":24017:24020   */\n      dup5\n        /* \"#utility.yul\":24013:24052   */\n      add\n        /* \"#utility.yul\":24006:24052   */\n      swap1\n      pop\n        /* \"#utility.yul\":23757:24058   */\n      swap4\n      swap3\n      pop\n      pop\n      pop\n      jump\t// out\n        /* \"#utility.yul\":24064:25177   */\n    tag_217:\n        /* \"#utility.yul\":24417:24421   */\n      0x00\n        /* \"#utility.yul\":24455:24458   */\n      0xa0\n        /* \"#utility.yul\":24444:24453   */\n      dup3\n        /* \"#utility.yul\":24440:24459   */\n      add\n        /* \"#utility.yul\":24432:24459   */\n      swap1\n      pop\n        /* \"#utility.yul\":24469:24540   */\n      tag_674\n        /* \"#utility.yul\":24537:24538   */\n      0x00\n        /* \"#utility.yul\":24526:24535   */\n      dup4\n        /* \"#utility.yul\":24522:24539   */\n      add\n        /* \"#utility.yul\":24513:24519   */\n      dup12\n        /* \"#utility.yul\":24469:24540   */\n      tag_391\n      jump\t// in\n    tag_674:\n        /* \"#utility.yul\":24550:24622   */\n      tag_675\n        /* \"#utility.yul\":24618:24620   */\n      0x20\n        /* \"#utility.yul\":24607:24616   */\n      dup4\n        /* \"#utility.yul\":24603:24621   */\n      add\n        /* \"#utility.yul\":24594:24600   */\n      dup11\n        /* \"#utility.yul\":24550:24622   */\n      tag_391\n      jump\t// in\n    tag_675:\n        /* \"#utility.yul\":24669:24678   */\n      dup2\n        /* \"#utility.yul\":24663:24667   */\n      dup2\n        /* \"#utility.yul\":24659:24679   */\n      sub\n        /* \"#utility.yul\":24654:24656   */\n      0x40\n        /* \"#utility.yul\":24643:24652   */\n      dup4\n        /* \"#utility.yul\":24639:24657   */\n      add\n        /* \"#utility.yul\":24632:24680   */\n      mstore\n        /* \"#utility.yul\":24697:24815   */\n      tag_676\n        /* \"#utility.yul\":24810:24814   */\n      dup2\n        /* \"#utility.yul\":24801:24807   */\n      dup9\n        /* \"#utility.yul\":24793:24799   */\n      dup11\n        /* \"#utility.yul\":24697:24815   */\n      tag_411\n      jump\t// in\n    tag_676:\n        /* \"#utility.yul\":24689:24815   */\n      swap1\n      pop\n        /* \"#utility.yul\":24862:24871   */\n      dup2\n        /* \"#utility.yul\":24856:24860   */\n      dup2\n        /* \"#utility.yul\":24852:24872   */\n      sub\n        /* \"#utility.yul\":24847:24849   */\n      0x60\n        /* \"#utility.yul\":24836:24845   */\n      dup4\n        /* \"#utility.yul\":24832:24850   */\n      add\n        /* \"#utility.yul\":24825:24873   */\n      mstore\n        /* \"#utility.yul\":24890:25008   */\n      tag_677\n        /* \"#utility.yul\":25003:25007   */\n      dup2\n        /* \"#utility.yul\":24994:25000   */\n      dup7\n        /* \"#utility.yul\":24986:24992   */\n      dup9\n        /* \"#utility.yul\":24890:25008   */\n      tag_411\n      jump\t// in\n    tag_677:\n        /* \"#utility.yul\":24882:25008   */\n      swap1\n      pop\n        /* \"#utility.yul\":25056:25065   */\n      dup2\n        /* \"#utility.yul\":25050:25054   */\n      dup2\n        /* \"#utility.yul\":25046:25066   */\n      sub\n        /* \"#utility.yul\":25040:25043   */\n      0x80\n        /* \"#utility.yul\":25029:25038   */\n      dup4\n        /* \"#utility.yul\":25025:25044   */\n      add\n        /* \"#utility.yul\":25018:25067   */\n      mstore\n        /* \"#utility.yul\":25084:25170   */\n      tag_678\n        /* \"#utility.yul\":25165:25169   */\n      dup2\n        /* \"#utility.yul\":25156:25162   */\n      dup5\n        /* \"#utility.yul\":25148:25154   */\n      dup7\n        /* \"#utility.yul\":25084:25170   */\n      tag_413\n      jump\t// in\n    tag_678:\n        /* \"#utility.yul\":25076:25170   */\n      swap1\n      pop\n        /* \"#utility.yul\":24064:25177   */\n      swap10\n      swap9\n      pop\n      pop\n      pop\n      pop\n      pop\n      pop\n      pop\n      pop\n      pop\n      jump\t// out\n        /* \"#utility.yul\":25183:25324   */\n    tag_414:\n        /* \"#utility.yul\":25239:25244   */\n      0x00\n        /* \"#utility.yul\":25270:25276   */\n      dup2\n        /* \"#utility.yul\":25264:25277   */\n      mload\n        /* \"#utility.yul\":25255:25277   */\n      swap1\n      pop\n        /* \"#utility.yul\":25286:25318   */\n      tag_680\n        /* \"#utility.yul\":25312:25317   */\n      dup2\n        /* \"#utility.yul\":25286:25318   */\n      tag_370\n      jump\t// in\n    tag_680:\n        /* \"#utility.yul\":25183:25324   */\n      swap3\n      swap2\n      pop\n      pop\n      jump\t// out\n        /* \"#utility.yul\":25330:25679   */\n    tag_221:\n        /* \"#utility.yul\":25399:25405   */\n      0x00\n        /* \"#utility.yul\":25448:25450   */\n      0x20\n        /* \"#utility.yul\":25436:25445   */\n      dup3\n        /* \"#utility.yul\":25427:25434   */\n      dup5\n        /* \"#utility.yul\":25423:25446   */\n      sub\n        /* \"#utility.yul\":25419:25451   */\n      slt\n        /* \"#utility.yul\":25416:25535   */\n      iszero\n      tag_682\n      jumpi\n        /* \"#utility.yul\":25454:25533   */\n      tag_683\n      tag_359\n      jump\t// in\n    tag_683:\n        /* \"#utility.yul\":25416:25535   */\n    tag_682:\n        /* \"#utility.yul\":25574:25575   */\n      0x00\n        /* \"#utility.yul\":25599:25662   */\n      tag_684\n        /* \"#utility.yul\":25654:25661   */\n      dup5\n        /* \"#utility.yul\":25645:25651   */\n      dup3\n        /* \"#utility.yul\":25634:25643   */\n      dup6\n        /* \"#utility.yul\":25630:25652   */\n      add\n        /* \"#utility.yul\":25599:25662   */\n      tag_414\n      jump\t// in\n    tag_684:\n        /* \"#utility.yul\":25589:25662   */\n      swap2\n      pop\n        /* \"#utility.yul\":25545:25672   */\n      pop\n        /* \"#utility.yul\":25330:25679   */\n      swap3\n      swap2\n      pop\n      pop\n      jump\t// out\n        /* \"#utility.yul\":25685:25851   */\n    tag_415:\n        /* \"#utility.yul\":25825:25843   */\n      0x554e534146455f524543495049454e5400000000000000000000000000000000\n        /* \"#utility.yul\":25821:25822   */\n      0x00\n        /* \"#utility.yul\":25813:25819   */\n      dup3\n        /* \"#utility.yul\":25809:25823   */\n      add\n        /* \"#utility.yul\":25802:25844   */\n      mstore\n        /* \"#utility.yul\":25685:25851   */\n      pop\n      jump\t// out\n        /* \"#utility.yul\":25857:26223   */\n    tag_416:\n        /* \"#utility.yul\":25999:26002   */\n      0x00\n        /* \"#utility.yul\":26020:26087   */\n      tag_687\n        /* \"#utility.yul\":26084:26086   */\n      0x10\n        /* \"#utility.yul\":26079:26082   */\n      dup4\n        /* \"#utility.yul\":26020:26087   */\n      tag_375\n      jump\t// in\n    tag_687:\n        /* \"#utility.yul\":26013:26087   */\n      swap2\n      pop\n        /* \"#utility.yul\":26096:26189   */\n      tag_688\n        /* \"#utility.yul\":26185:26188   */\n      dup3\n        /* \"#utility.yul\":26096:26189   */\n      tag_415\n      jump\t// in\n    tag_688:\n        /* \"#utility.yul\":26214:26216   */\n      0x20\n        /* \"#utility.yul\":26209:26212   */\n      dup3\n        /* \"#utility.yul\":26205:26217   */\n      add\n        /* \"#utility.yul\":26198:26217   */\n      swap1\n      pop\n        /* \"#utility.yul\":25857:26223   */\n      swap2\n      swap1\n      pop\n      jump\t// out\n        /* \"#utility.yul\":26229:26648   */\n    tag_225:\n        /* \"#utility.yul\":26395:26399   */\n      0x00\n        /* \"#utility.yul\":26433:26435   */\n      0x20\n        /* \"#utility.yul\":26422:26431   */\n      dup3\n        /* \"#utility.yul\":26418:26436   */\n      add\n        /* \"#utility.yul\":26410:26436   */\n      swap1\n      pop\n        /* \"#utility.yul\":26482:26491   */\n      dup2\n        /* \"#utility.yul\":26476:26480   */\n      dup2\n        /* \"#utility.yul\":26472:26492   */\n      sub\n        /* \"#utility.yul\":26468:26469   */\n      0x00\n        /* \"#utility.yul\":26457:26466   */\n      dup4\n        /* \"#utility.yul\":26453:26470   */\n      add\n        /* \"#utility.yul\":26446:26493   */\n      mstore\n        /* \"#utility.yul\":26510:26641   */\n      tag_690\n        /* \"#utility.yul\":26636:26640   */\n      dup2\n        /* \"#utility.yul\":26510:26641   */\n      tag_416\n      jump\t// in\n    tag_690:\n        /* \"#utility.yul\":26502:26641   */\n      swap1\n      pop\n        /* \"#utility.yul\":26229:26648   */\n      swap2\n      swap1\n      pop\n      jump\t// out\n        /* \"#utility.yul\":26654:26831   */\n    tag_417:\n        /* \"#utility.yul\":26794:26823   */\n      0x434343323a204e6f6e6578697374656e7420746f6b656e2049442e0000000000\n        /* \"#utility.yul\":26790:26791   */\n      0x00\n        /* \"#utility.yul\":26782:26788   */\n      dup3\n        /* \"#utility.yul\":26778:26792   */\n      add\n        /* \"#utility.yul\":26771:26824   */\n      mstore\n        /* \"#utility.yul\":26654:26831   */\n      pop\n      jump\t// out\n        /* \"#utility.yul\":26837:27203   */\n    tag_418:\n        /* \"#utility.yul\":26979:26982   */\n      0x00\n        /* \"#utility.yul\":27000:27067   */\n      tag_693\n        /* \"#utility.yul\":27064:27066   */\n      0x1b\n        /* \"#utility.yul\":27059:27062   */\n      dup4\n        /* \"#utility.yul\":27000:27067   */\n      tag_375\n      jump\t// in\n    tag_693:\n        /* \"#utility.yul\":26993:27067   */\n      swap2\n      pop\n        /* \"#utility.yul\":27076:27169   */\n      tag_694\n        /* \"#utility.yul\":27165:27168   */\n      dup3\n        /* \"#utility.yul\":27076:27169   */\n      tag_417\n      jump\t// in\n    tag_694:\n        /* \"#utility.yul\":27194:27196   */\n      0x20\n        /* \"#utility.yul\":27189:27192   */\n      dup3\n        /* \"#utility.yul\":27185:27197   */\n      add\n        /* \"#utility.yul\":27178:27197   */\n      swap1\n      pop\n        /* \"#utility.yul\":26837:27203   */\n      swap2\n      swap1\n      pop\n      jump\t// out\n        /* \"#utility.yul\":27209:27628   */\n    tag_235:\n        /* \"#utility.yul\":27375:27379   */\n      0x00\n        /* \"#utility.yul\":27413:27415   */\n      0x20\n        /* \"#utility.yul\":27402:27411   */\n      dup3\n        /* \"#utility.yul\":27398:27416   */\n      add\n        /* \"#utility.yul\":27390:27416   */\n      swap1\n      pop\n        /* \"#utility.yul\":27462:27471   */\n      dup2\n        /* \"#utility.yul\":27456:27460   */\n      dup2\n        /* \"#utility.yul\":27452:27472   */\n      sub\n        /* \"#utility.yul\":27448:27449   */\n      0x00\n        /* \"#utility.yul\":27437:27446   */\n      dup4\n        /* \"#utility.yul\":27433:27450   */\n      add\n        /* \"#utility.yul\":27426:27473   */\n      mstore\n        /* \"#utility.yul\":27490:27621   */\n      tag_696\n        /* \"#utility.yul\":27616:27620   */\n      dup2\n        /* \"#utility.yul\":27490:27621   */\n      tag_418\n      jump\t// in\n    tag_696:\n        /* \"#utility.yul\":27482:27621   */\n      swap1\n      pop\n        /* \"#utility.yul\":27209:27628   */\n      swap2\n      swap1\n      pop\n      jump\t// out\n        /* \"#utility.yul\":27634:27861   */\n    tag_419:\n        /* \"#utility.yul\":27774:27808   */\n      0x434343323a20416d6f756e74206973206c6172676572207468616e20746f7461\n        /* \"#utility.yul\":27770:27771   */\n      0x00\n        /* \"#utility.yul\":27762:27768   */\n      dup3\n        /* \"#utility.yul\":27758:27772   */\n      add\n        /* \"#utility.yul\":27751:27809   */\n      mstore\n        /* \"#utility.yul\":27843:27853   */\n      0x6c537570706c792e000000000000000000000000000000000000000000000000\n        /* \"#utility.yul\":27838:27840   */\n      0x20\n        /* \"#utility.yul\":27830:27836   */\n      dup3\n        /* \"#utility.yul\":27826:27841   */\n      add\n        /* \"#utility.yul\":27819:27854   */\n      mstore\n        /* \"#utility.yul\":27634:27861   */\n      pop\n      jump\t// out\n        /* \"#utility.yul\":27867:28233   */\n    tag_420:\n        /* \"#utility.yul\":28009:28012   */\n      0x00\n        /* \"#utility.yul\":28030:28097   */\n      tag_699\n        /* \"#utility.yul\":28094:28096   */\n      0x28\n        /* \"#utility.yul\":28089:28092   */\n      dup4\n        /* \"#utility.yul\":28030:28097   */\n      tag_375\n      jump\t// in\n    tag_699:\n        /* \"#utility.yul\":28023:28097   */\n      swap2\n      pop\n        /* \"#utility.yul\":28106:28199   */\n      tag_700\n        /* \"#utility.yul\":28195:28198   */\n      dup3\n        /* \"#utility.yul\":28106:28199   */\n      tag_419\n      jump\t// in\n    tag_700:\n        /* \"#utility.yul\":28224:28226   */\n      0x40\n        /* \"#utility.yul\":28219:28222   */\n      dup3\n        /* \"#utility.yul\":28215:28227   */\n      add\n        /* \"#utility.yul\":28208:28227   */\n      swap1\n      pop\n        /* \"#utility.yul\":27867:28233   */\n      swap2\n      swap1\n      pop\n      jump\t// out\n        /* \"#utility.yul\":28239:28658   */\n    tag_241:\n        /* \"#utility.yul\":28405:28409   */\n      0x00\n        /* \"#utility.yul\":28443:28445   */\n      0x20\n        /* \"#utility.yul\":28432:28441   */\n      dup3\n        /* \"#utility.yul\":28428:28446   */\n      add\n        /* \"#utility.yul\":28420:28446   */\n      swap1\n      pop\n        /* \"#utility.yul\":28492:28501   */\n      dup2\n        /* \"#utility.yul\":28486:28490   */\n      dup2\n        /* \"#utility.yul\":28482:28502   */\n      sub\n        /* \"#utility.yul\":28478:28479   */\n      0x00\n        /* \"#utility.yul\":28467:28476   */\n      dup4\n        /* \"#utility.yul\":28463:28480   */\n      add\n        /* \"#utility.yul\":28456:28503   */\n      mstore\n        /* \"#utility.yul\":28520:28651   */\n      tag_702\n        /* \"#utility.yul\":28646:28650   */\n      dup2\n        /* \"#utility.yul\":28520:28651   */\n      tag_420\n      jump\t// in\n    tag_702:\n        /* \"#utility.yul\":28512:28651   */\n      swap1\n      pop\n        /* \"#utility.yul\":28239:28658   */\n      swap2\n      swap1\n      pop\n      jump\t// out\n        /* \"#utility.yul\":28664:28996   */\n    tag_310:\n        /* \"#utility.yul\":28785:28789   */\n      0x00\n        /* \"#utility.yul\":28823:28825   */\n      0x40\n        /* \"#utility.yul\":28812:28821   */\n      dup3\n        /* \"#utility.yul\":28808:28826   */\n      add\n        /* \"#utility.yul\":28800:28826   */\n      swap1\n      pop\n        /* \"#utility.yul\":28836:28907   */\n      tag_704\n        /* \"#utility.yul\":28904:28905   */\n      0x00\n        /* \"#utility.yul\":28893:28902   */\n      dup4\n        /* \"#utility.yul\":28889:28906   */\n      add\n        /* \"#utility.yul\":28880:28886   */\n      dup6\n        /* \"#utility.yul\":28836:28907   */\n      tag_368\n      jump\t// in\n    tag_704:\n        /* \"#utility.yul\":28917:28989   */\n      tag_705\n        /* \"#utility.yul\":28985:28987   */\n      0x20\n        /* \"#utility.yul\":28974:28983   */\n      dup4\n        /* \"#utility.yul\":28970:28988   */\n      add\n        /* \"#utility.yul\":28961:28967   */\n      dup5\n        /* \"#utility.yul\":28917:28989   */\n      tag_368\n      jump\t// in\n    tag_705:\n        /* \"#utility.yul\":28664:28996   */\n      swap4\n      swap3\n      pop\n      pop\n      pop\n      jump\t// out\n        /* \"#utility.yul\":29002:29773   */\n    tag_313:\n        /* \"#utility.yul\":29235:29239   */\n      0x00\n        /* \"#utility.yul\":29273:29276   */\n      0xa0\n        /* \"#utility.yul\":29262:29271   */\n      dup3\n        /* \"#utility.yul\":29258:29277   */\n      add\n        /* \"#utility.yul\":29250:29277   */\n      swap1\n      pop\n        /* \"#utility.yul\":29287:29358   */\n      tag_707\n        /* \"#utility.yul\":29355:29356   */\n      0x00\n        /* \"#utility.yul\":29344:29353   */\n      dup4\n        /* \"#utility.yul\":29340:29357   */\n      add\n        /* \"#utility.yul\":29331:29337   */\n      dup10\n        /* \"#utility.yul\":29287:29358   */\n      tag_391\n      jump\t// in\n    tag_707:\n        /* \"#utility.yul\":29368:29440   */\n      tag_708\n        /* \"#utility.yul\":29436:29438   */\n      0x20\n        /* \"#utility.yul\":29425:29434   */\n      dup4\n        /* \"#utility.yul\":29421:29439   */\n      add\n        /* \"#utility.yul\":29412:29418   */\n      dup9\n        /* \"#utility.yul\":29368:29440   */\n      tag_391\n      jump\t// in\n    tag_708:\n        /* \"#utility.yul\":29450:29522   */\n      tag_709\n        /* \"#utility.yul\":29518:29520   */\n      0x40\n        /* \"#utility.yul\":29507:29516   */\n      dup4\n        /* \"#utility.yul\":29503:29521   */\n      add\n        /* \"#utility.yul\":29494:29500   */\n      dup8\n        /* \"#utility.yul\":29450:29522   */\n      tag_368\n      jump\t// in\n    tag_709:\n        /* \"#utility.yul\":29532:29604   */\n      tag_710\n        /* \"#utility.yul\":29600:29602   */\n      0x60\n        /* \"#utility.yul\":29589:29598   */\n      dup4\n        /* \"#utility.yul\":29585:29603   */\n      add\n        /* \"#utility.yul\":29576:29582   */\n      dup7\n        /* \"#utility.yul\":29532:29604   */\n      tag_368\n      jump\t// in\n    tag_710:\n        /* \"#utility.yul\":29652:29661   */\n      dup2\n        /* \"#utility.yul\":29646:29650   */\n      dup2\n        /* \"#utility.yul\":29642:29662   */\n      sub\n        /* \"#utility.yul\":29636:29639   */\n      0x80\n        /* \"#utility.yul\":29625:29634   */\n      dup4\n        /* \"#utility.yul\":29621:29640   */\n      add\n        /* \"#utility.yul\":29614:29663   */\n      mstore\n        /* \"#utility.yul\":29680:29766   */\n      tag_711\n        /* \"#utility.yul\":29761:29765   */\n      dup2\n        /* \"#utility.yul\":29752:29758   */\n      dup5\n        /* \"#utility.yul\":29744:29750   */\n      dup7\n        /* \"#utility.yul\":29680:29766   */\n      tag_413\n      jump\t// in\n    tag_711:\n        /* \"#utility.yul\":29672:29766   */\n      swap1\n      pop\n        /* \"#utility.yul\":29002:29773   */\n      swap8\n      swap7\n      pop\n      pop\n      pop\n      pop\n      pop\n      pop\n      pop\n      jump\t// out\n        /* \"#utility.yul\":29779:30004   */\n    tag_421:\n        /* \"#utility.yul\":29919:29953   */\n      0x4f776e61626c653a206e6577206f776e657220697320746865207a65726f2061\n        /* \"#utility.yul\":29915:29916   */\n      0x00\n        /* \"#utility.yul\":29907:29913   */\n      dup3\n        /* \"#utility.yul\":29903:29917   */\n      add\n        /* \"#utility.yul\":29896:29954   */\n      mstore\n        /* \"#utility.yul\":29988:29996   */\n      0x6464726573730000000000000000000000000000000000000000000000000000\n        /* \"#utility.yul\":29983:29985   */\n      0x20\n        /* \"#utility.yul\":29975:29981   */\n      dup3\n        /* \"#utility.yul\":29971:29986   */\n      add\n        /* \"#utility.yul\":29964:29997   */\n      mstore\n        /* \"#utility.yul\":29779:30004   */\n      pop\n      jump\t// out\n        /* \"#utility.yul\":30010:30376   */\n    tag_422:\n        /* \"#utility.yul\":30152:30155   */\n      0x00\n        /* \"#utility.yul\":30173:30240   */\n      tag_714\n        /* \"#utility.yul\":30237:30239   */\n      0x26\n        /* \"#utility.yul\":30232:30235   */\n      dup4\n        /* \"#utility.yul\":30173:30240   */\n      tag_375\n      jump\t// in\n    tag_714:\n        /* \"#utility.yul\":30166:30240   */\n      swap2\n      pop\n        /* \"#utility.yul\":30249:30342   */\n      tag_715\n        /* \"#utility.yul\":30338:30341   */\n      dup3\n        /* \"#utility.yul\":30249:30342   */\n      tag_421\n      jump\t// in\n    tag_715:\n        /* \"#utility.yul\":30367:30369   */\n      0x40\n        /* \"#utility.yul\":30362:30365   */\n      dup3\n        /* \"#utility.yul\":30358:30370   */\n      add\n        /* \"#utility.yul\":30351:30370   */\n      swap1\n      pop\n        /* \"#utility.yul\":30010:30376   */\n      swap2\n      swap1\n      pop\n      jump\t// out\n        /* \"#utility.yul\":30382:30801   */\n    tag_328:\n        /* \"#utility.yul\":30548:30552   */\n      0x00\n        /* \"#utility.yul\":30586:30588   */\n      0x20\n        /* \"#utility.yul\":30575:30584   */\n      dup3\n        /* \"#utility.yul\":30571:30589   */\n      add\n        /* \"#utility.yul\":30563:30589   */\n      swap1\n      pop\n        /* \"#utility.yul\":30635:30644   */\n      dup2\n        /* \"#utility.yul\":30629:30633   */\n      dup2\n        /* \"#utility.yul\":30625:30645   */\n      sub\n        /* \"#utility.yul\":30621:30622   */\n      0x00\n        /* \"#utility.yul\":30610:30619   */\n      dup4\n        /* \"#utility.yul\":30606:30623   */\n      add\n        /* \"#utility.yul\":30599:30646   */\n      mstore\n        /* \"#utility.yul\":30663:30794   */\n      tag_717\n        /* \"#utility.yul\":30789:30793   */\n      dup2\n        /* \"#utility.yul\":30663:30794   */\n      tag_422\n      jump\t// in\n    tag_717:\n        /* \"#utility.yul\":30655:30794   */\n      swap1\n      pop\n        /* \"#utility.yul\":30382:30801   */\n      swap2\n      swap1\n      pop\n      jump\t// out\n        /* \"#utility.yul\":30807:30905   */\n    tag_423:\n        /* \"#utility.yul\":30858:30864   */\n      0x00\n        /* \"#utility.yul\":30892:30897   */\n      dup2\n        /* \"#utility.yul\":30886:30898   */\n      mload\n        /* \"#utility.yul\":30876:30898   */\n      swap1\n      pop\n        /* \"#utility.yul\":30807:30905   */\n      swap2\n      swap1\n      pop\n      jump\t// out\n        /* \"#utility.yul\":30911:31271   */\n    tag_424:\n        /* \"#utility.yul\":30997:31000   */\n      0x00\n        /* \"#utility.yul\":31025:31063   */\n      tag_720\n        /* \"#utility.yul\":31057:31062   */\n      dup3\n        /* \"#utility.yul\":31025:31063   */\n      tag_423\n      jump\t// in\n    tag_720:\n        /* \"#utility.yul\":31079:31149   */\n      tag_721\n        /* \"#utility.yul\":31142:31148   */\n      dup2\n        /* \"#utility.yul\":31137:31140   */\n      dup6\n        /* \"#utility.yul\":31079:31149   */\n      tag_412\n      jump\t// in\n    tag_721:\n        /* \"#utility.yul\":31072:31149   */\n      swap4\n      pop\n        /* \"#utility.yul\":31158:31210   */\n      tag_722\n        /* \"#utility.yul\":31203:31209   */\n      dup2\n        /* \"#utility.yul\":31198:31201   */\n      dup6\n        /* \"#utility.yul\":31191:31195   */\n      0x20\n        /* \"#utility.yul\":31184:31189   */\n      dup7\n        /* \"#utility.yul\":31180:31196   */\n      add\n        /* \"#utility.yul\":31158:31210   */\n      tag_376\n      jump\t// in\n    tag_722:\n        /* \"#utility.yul\":31235:31264   */\n      tag_723\n        /* \"#utility.yul\":31257:31263   */\n      dup2\n        /* \"#utility.yul\":31235:31264   */\n      tag_377\n      jump\t// in\n    tag_723:\n        /* \"#utility.yul\":31230:31233   */\n      dup5\n        /* \"#utility.yul\":31226:31265   */\n      add\n        /* \"#utility.yul\":31219:31265   */\n      swap2\n      pop\n        /* \"#utility.yul\":31001:31271   */\n      pop\n        /* \"#utility.yul\":30911:31271   */\n      swap3\n      swap2\n      pop\n      pop\n      jump\t// out\n        /* \"#utility.yul\":31277:32028   */\n    tag_336:\n        /* \"#utility.yul\":31500:31504   */\n      0x00\n        /* \"#utility.yul\":31538:31541   */\n      0xa0\n        /* \"#utility.yul\":31527:31536   */\n      dup3\n        /* \"#utility.yul\":31523:31542   */\n      add\n        /* \"#utility.yul\":31515:31542   */\n      swap1\n      pop\n        /* \"#utility.yul\":31552:31623   */\n      tag_725\n        /* \"#utility.yul\":31620:31621   */\n      0x00\n        /* \"#utility.yul\":31609:31618   */\n      dup4\n        /* \"#utility.yul\":31605:31622   */\n      add\n        /* \"#utility.yul\":31596:31602   */\n      dup9\n        /* \"#utility.yul\":31552:31623   */\n      tag_391\n      jump\t// in\n    tag_725:\n        /* \"#utility.yul\":31633:31705   */\n      tag_726\n        /* \"#utility.yul\":31701:31703   */\n      0x20\n        /* \"#utility.yul\":31690:31699   */\n      dup4\n        /* \"#utility.yul\":31686:31704   */\n      add\n        /* \"#utility.yul\":31677:31683   */\n      dup8\n        /* \"#utility.yul\":31633:31705   */\n      tag_391\n      jump\t// in\n    tag_726:\n        /* \"#utility.yul\":31715:31787   */\n      tag_727\n        /* \"#utility.yul\":31783:31785   */\n      0x40\n        /* \"#utility.yul\":31772:31781   */\n      dup4\n        /* \"#utility.yul\":31768:31786   */\n      add\n        /* \"#utility.yul\":31759:31765   */\n      dup7\n        /* \"#utility.yul\":31715:31787   */\n      tag_368\n      jump\t// in\n    tag_727:\n        /* \"#utility.yul\":31797:31869   */\n      tag_728\n        /* \"#utility.yul\":31865:31867   */\n      0x60\n        /* \"#utility.yul\":31854:31863   */\n      dup4\n        /* \"#utility.yul\":31850:31868   */\n      add\n        /* \"#utility.yul\":31841:31847   */\n      dup6\n        /* \"#utility.yul\":31797:31869   */\n      tag_368\n      jump\t// in\n    tag_728:\n        /* \"#utility.yul\":31917:31926   */\n      dup2\n        /* \"#utility.yul\":31911:31915   */\n      dup2\n        /* \"#utility.yul\":31907:31927   */\n      sub\n        /* \"#utility.yul\":31901:31904   */\n      0x80\n        /* \"#utility.yul\":31890:31899   */\n      dup4\n        /* \"#utility.yul\":31886:31905   */\n      add\n        /* \"#utility.yul\":31879:31928   */\n      mstore\n        /* \"#utility.yul\":31945:32021   */\n      tag_729\n        /* \"#utility.yul\":32016:32020   */\n      dup2\n        /* \"#utility.yul\":32007:32013   */\n      dup5\n        /* \"#utility.yul\":31945:32021   */\n      tag_424\n      jump\t// in\n    tag_729:\n        /* \"#utility.yul\":31937:32021   */\n      swap1\n      pop\n        /* \"#utility.yul\":31277:32028   */\n      swap7\n      swap6\n      pop\n      pop\n      pop\n      pop\n      pop\n      pop\n      jump\t// out\n        /* \"#utility.yul\":32034:32203   */\n    tag_425:\n        /* \"#utility.yul\":32174:32195   */\n      0x4554485f5452414e534645525f4641494c454400000000000000000000000000\n        /* \"#utility.yul\":32170:32171   */\n      0x00\n        /* \"#utility.yul\":32162:32168   */\n      dup3\n        /* \"#utility.yul\":32158:32172   */\n      add\n        /* \"#utility.yul\":32151:32196   */\n      mstore\n        /* \"#utility.yul\":32034:32203   */\n      pop\n      jump\t// out\n        /* \"#utility.yul\":32209:32575   */\n    tag_426:\n        /* \"#utility.yul\":32351:32354   */\n      0x00\n        /* \"#utility.yul\":32372:32439   */\n      tag_732\n        /* \"#utility.yul\":32436:32438   */\n      0x13\n        /* \"#utility.yul\":32431:32434   */\n      dup4\n        /* \"#utility.yul\":32372:32439   */\n      tag_375\n      jump\t// in\n    tag_732:\n        /* \"#utility.yul\":32365:32439   */\n      swap2\n      pop\n        /* \"#utility.yul\":32448:32541   */\n      tag_733\n        /* \"#utility.yul\":32537:32540   */\n      dup3\n        /* \"#utility.yul\":32448:32541   */\n      tag_425\n      jump\t// in\n    tag_733:\n        /* \"#utility.yul\":32566:32568   */\n      0x20\n        /* \"#utility.yul\":32561:32564   */\n      dup3\n        /* \"#utility.yul\":32557:32569   */\n      add\n        /* \"#utility.yul\":32550:32569   */\n      swap1\n      pop\n        /* \"#utility.yul\":32209:32575   */\n      swap2\n      swap1\n      pop\n      jump\t// out\n        /* \"#utility.yul\":32581:33000   */\n    tag_346:\n        /* \"#utility.yul\":32747:32751   */\n      0x00\n        /* \"#utility.yul\":32785:32787   */\n      0x20\n        /* \"#utility.yul\":32774:32783   */\n      dup3\n        /* \"#utility.yul\":32770:32788   */\n      add\n        /* \"#utility.yul\":32762:32788   */\n      swap1\n      pop\n        /* \"#utility.yul\":32834:32843   */\n      dup2\n        /* \"#utility.yul\":32828:32832   */\n      dup2\n        /* \"#utility.yul\":32824:32844   */\n      sub\n        /* \"#utility.yul\":32820:32821   */\n      0x00\n        /* \"#utility.yul\":32809:32818   */\n      dup4\n        /* \"#utility.yul\":32805:32822   */\n      add\n        /* \"#utility.yul\":32798:32845   */\n      mstore\n        /* \"#utility.yul\":32862:32993   */\n      tag_735\n        /* \"#utility.yul\":32988:32992   */\n      dup2\n        /* \"#utility.yul\":32862:32993   */\n      tag_426\n      jump\t// in\n    tag_735:\n        /* \"#utility.yul\":32854:32993   */\n      swap1\n      pop\n        /* \"#utility.yul\":32581:33000   */\n      swap2\n      swap1\n      pop\n      jump\t// out\n\n    auxdata: 0xa26469706673582212206efef7072b3bc3116529633859fd3bd7a4526574bbef4f2531763593e11972f864736f6c634300080b0033\n}\n",
				"bytecode": {
					"linkReferences": {},
					"object": "61014060405260a660809081525061014a60a090815250601160c090815250602160e0908152506001610100908152506002610120908152503480156200004557600080fd5b5060405162003e1438038062003e1483398181016040528101906200006b9190620006db565b6200008b6200007f620001b160201b60201c565b620001b960201b60201c565b6040518060400160405280601381526020017f54657374204d696e74205061737320763132410000000000000000000000000081525094506040518060400160405280600f81526020017f262331303034373b544d505631304900000000000000000000000000000000008152509350620001293360018060405180606001604052806035815260200162003daa603591396200027f60201b60201c565b620001573360028060405180606001604052806035815260200162003ddf603591396200027f60201b60201c565b734e322a20ed891ff77de2f774d2824f55b7152c73925060405180606001604052806035815260200162003ddf60359139905060405180606001604052806035815260200162003daa603591399150505050505062000a97565b600033905090565b6000600260009054906101000a900473ffffffffffffffffffffffffffffffffffffffff16905081600260006101000a81548173ffffffffffffffffffffffffffffffffffffffff021916908373ffffffffffffffffffffffffffffffffffffffff1602179055508173ffffffffffffffffffffffffffffffffffffffff168173ffffffffffffffffffffffffffffffffffffffff167f8be0079c531659141344cd1fd0a4f28419497f9722a3daafe3b4186f6b6457e060405160405180910390a35050565b816000808673ffffffffffffffffffffffffffffffffffffffff1673ffffffffffffffffffffffffffffffffffffffff16815260200190815260200160002060008581526020019081526020016000206000828254620002e0919062000818565b925050819055508373ffffffffffffffffffffffffffffffffffffffff16600073ffffffffffffffffffffffffffffffffffffffff163373ffffffffffffffffffffffffffffffffffffffff167fc3d58168c5ae7397731d063d5bbf3d657854427343f4c083240f7aacaa2d0f6286866040516200036092919062000886565b60405180910390a460008473ffffffffffffffffffffffffffffffffffffffff163b146200045f5763f23a6e6160e01b7bffffffffffffffffffffffffffffffffffffffffffffffffffffffff19168473ffffffffffffffffffffffffffffffffffffffff1663f23a6e613360008787876040518663ffffffff1660e01b8152600401620003f395949392919062000921565b6020604051808303816000875af115801562000413573d6000803e3d6000fd5b505050506040513d601f19601f82011682018060405250810190620004399190620009e2565b7bffffffffffffffffffffffffffffffffffffffffffffffffffffffff19161462000491565b600073ffffffffffffffffffffffffffffffffffffffff168473ffffffffffffffffffffffffffffffffffffffff1614155b620004d3576040517f08c379a0000000000000000000000000000000000000000000000000000000008152600401620004ca9062000a75565b60405180910390fd5b50505050565b6000604051905090565b600080fd5b600080fd5b600080fd5b600080fd5b6000601f19601f8301169050919050565b7f4e487b7100000000000000000000000000000000000000000000000000000000600052604160045260246000fd5b6200054282620004f7565b810181811067ffffffffffffffff8211171562000564576200056362000508565b5b80604052505050565b600062000579620004d9565b905062000587828262000537565b919050565b600067ffffffffffffffff821115620005aa57620005a962000508565b5b620005b582620004f7565b9050602081019050919050565b60005b83811015620005e2578082015181840152602081019050620005c5565b83811115620005f2576000848401525b50505050565b60006200060f62000609846200058c565b6200056d565b9050828152602081018484840111156200062e576200062d620004f2565b5b6200063b848285620005c2565b509392505050565b600082601f8301126200065b576200065a620004ed565b5b81516200066d848260208601620005f8565b91505092915050565b600073ffffffffffffffffffffffffffffffffffffffff82169050919050565b6000620006a38262000676565b9050919050565b620006b58162000696565b8114620006c157600080fd5b50565b600081519050620006d581620006aa565b92915050565b600080600080600060a08688031215620006fa57620006f9620004e3565b5b600086015167ffffffffffffffff8111156200071b576200071a620004e8565b5b620007298882890162000643565b955050602086015167ffffffffffffffff8111156200074d576200074c620004e8565b5b6200075b8882890162000643565b94505060406200076e88828901620006c4565b935050606086015167ffffffffffffffff811115620007925762000791620004e8565b5b620007a08882890162000643565b925050608086015167ffffffffffffffff811115620007c457620007c3620004e8565b5b620007d28882890162000643565b9150509295509295909350565b6000819050919050565b7f4e487b7100000000000000000000000000000000000000000000000000000000600052601160045260246000fd5b60006200082582620007df565b91506200083283620007df565b9250827fffffffffffffffffffffffffffffffffffffffffffffffffffffffffffffffff038211156200086a5762000869620007e9565b5b828201905092915050565b6200088081620007df565b82525050565b60006040820190506200089d600083018562000875565b620008ac602083018462000875565b9392505050565b620008be8162000696565b82525050565b600081519050919050565b600082825260208201905092915050565b6000620008ed82620008c4565b620008f98185620008cf565b93506200090b818560208601620005c2565b6200091681620004f7565b840191505092915050565b600060a082019050620009386000830188620008b3565b620009476020830187620008b3565b62000956604083018662000875565b62000965606083018562000875565b8181036080830152620009798184620008e0565b90509695505050505050565b60007fffffffff0000000000000000000000000000000000000000000000000000000082169050919050565b620009bc8162000985565b8114620009c857600080fd5b50565b600081519050620009dc81620009b1565b92915050565b600060208284031215620009fb57620009fa620004e3565b5b600062000a0b84828501620009cb565b91505092915050565b600082825260208201905092915050565b7f554e534146455f524543495049454e5400000000000000000000000000000000600082015250565b600062000a5d60108362000a14565b915062000a6a8262000a25565b602082019050919050565b6000602082019050818103600083015262000a908162000a4e565b9050919050565b60805160a05160c05160e051610100516101205161327662000b34600039600081816109bc01528181610eee01528181610f7a01528181610fc601526114ef01526000818161096101528181610f170152818161107c01526115cb0152600081816109dd01526117ef01526000818161098201526117cb015260008181610fa2015261121a0152600081816110580152611ced01526132766000f3fe608060405234801561001057600080fd5b50600436106101e45760003560e01c806371d05aec1161010f578063cbf99084116100a2578063e985e9c511610071578063e985e9c51461056f578063f242432a1461059f578063f2fde38b146105bb578063f48deaaa146105d7576101e4565b8063cbf99084146104f7578063cc2851c614610515578063dec125ba14610533578063df52fa8414610551576101e4565b80639fa3cda1116100de5780639fa3cda11461044b578063a22cb4651461047b578063bd85b03914610497578063c87b56dd146104c7576101e4565b806371d05aec146103d35780638da5cb5b146103f157806395d89b411461040f5780639e3cf6431461042d576101e4565b80632eb2c2d6116101875780634511499011610156578063451149901461035f5780634e1273f41461037d5780636817031b146103ad578063715018a6146103c9576101e4565b80632eb2c2d6146102ff578063388b9fe01461031b5780633ccfd60b14610337578063430bf08a14610341576101e4565b806309a3beef116101c357806309a3beef146102675780630b22f540146102835780630e89341c146102b357806316473cf7146102e3576101e4565b8062fdd58e146101e957806301ffc9a71461021957806306fdde0314610249575b600080fd5b61020360048036038101906101fe91906121c7565b6105f5565b6040516102109190612216565b60405180910390f35b610233600480360381019061022e9190612289565b61061a565b60405161024091906122d1565b60405180910390f35b6102516106ac565b60405161025e9190612385565b60405180910390f35b610281600480360381019061027c91906124dc565b61073a565b005b61029d60048036038101906102989190612538565b6107e2565b6040516102aa9190612216565b60405180910390f35b6102cd60048036038101906102c89190612565565b6107fa565b6040516102da9190612385565b60405180910390f35b6102fd60048036038101906102f89190612538565b6108df565b005b61031960048036038101906103149190612648565b610a14565b005b61033560048036038101906103309190612724565b610e70565b005b61033f61110d565b005b6103496111f2565b6040516103569190612786565b60405180910390f35b610367611218565b6040516103749190612216565b60405180910390f35b610397600480360381019061039291906127f7565b61123c565b6040516103a49190612936565b60405180910390f35b6103c760048036038101906103c29190612538565b6113a5565b005b6103d1611465565b005b6103db6114ed565b6040516103e89190612216565b60405180910390f35b6103f9611511565b6040516104069190612786565b60405180910390f35b61041761153b565b6040516104249190612385565b60405180910390f35b6104356115c9565b6040516104429190612216565b60405180910390f35b61046560048036038101906104609190612538565b6115ed565b6040516104729190612216565b60405180910390f35b61049560048036038101906104909190612984565b611605565b005b6104b160048036038101906104ac9190612565565b611702565b6040516104be9190612216565b60405180910390f35b6104e160048036038101906104dc9190612565565b61171f565b6040516104ee9190612385565b60405180910390f35b6104ff6117bf565b60405161050c9190612216565b60405180910390f35b61051d6117c4565b60405161052a9190612216565b60405180910390f35b61053b6117c9565b6040516105489190612216565b60405180910390f35b6105596117ed565b6040516105669190612216565b60405180910390f35b610589600480360381019061058491906129c4565b611811565b60405161059691906122d1565b60405180910390f35b6105b960048036038101906105b49190612a04565b611840565b005b6105d560048036038101906105d09190612538565b611bf3565b005b6105df611ceb565b6040516105ec9190612216565b60405180910390f35b6000602052816000526040600020602052806000526040600020600091509150505481565b60006301ffc9a760e01b827bffffffffffffffffffffffffffffffffffffffffffffffffffffffff19161480610675575063d9b67a2660e01b827bffffffffffffffffffffffffffffffffffffffffffffffffffffffff1916145b806106a55750630e89341c60e01b827bffffffffffffffffffffffffffffffffffffffffffffffffffffffff1916145b9050919050565b600380546106b990612acd565b80601f01602080910402602001604051908101604052809291908181526020018280546106e590612acd565b80156107325780601f1061070757610100808354040283529160200191610732565b820191906000526020600020905b81548152906001019060200180831161071557829003601f168201915b505050505081565b610742611d0f565b73ffffffffffffffffffffffffffffffffffffffff16610760611511565b73ffffffffffffffffffffffffffffffffffffffff16146107b6576040517f08c379a00000000000000000000000000000000000000000000000000000000081526004016107ad90612b4b565b60405180910390fd5b816007600083815260200190815260200160002090805190602001906107dd92919061207c565b505050565b60096020528060005260406000206000915090505481565b6060600060076000848152602001908152602001600020805461081c90612acd565b9050141561083b576040518060200160405280600081525090506108da565b60076000838152602001908152602001600020805461085990612acd565b80601f016020809104026020016040519081016040528092919081815260200182805461088590612acd565b80156108d25780601f106108a7576101008083540402835291602001916108d2565b820191906000526020600020905b8154815290600101906020018083116108b557829003601f168201915b505050505090505b919050565b6108e7611d0f565b73ffffffffffffffffffffffffffffffffffffffff16610905611511565b73ffffffffffffffffffffffffffffffffffffffff161461095b576040517f08c379a000000000000000000000000000000000000000000000000000000000815260040161095290612b4b565b60405180910390fd5b6109b6817f00000000000000000000000000000000000000000000000000000000000000007f000000000000000000000000000000000000000000000000000000000000000060405180602001604052806000815250611d17565b610a11817f00000000000000000000000000000000000000000000000000000000000000007f000000000000000000000000000000000000000000000000000000000000000060405180602001604052806000815250611d17565b50565b838390508686905014610a5c576040517f08c379a0000000000000000000000000000000000000000000000000000000008152600401610a5390612bb7565b60405180910390fd5b8773ffffffffffffffffffffffffffffffffffffffff163373ffffffffffffffffffffffffffffffffffffffff161480610b1c5750600160008973ffffffffffffffffffffffffffffffffffffffff1673ffffffffffffffffffffffffffffffffffffffff16815260200190815260200160002060003373ffffffffffffffffffffffffffffffffffffffff1673ffffffffffffffffffffffffffffffffffffffff16815260200190815260200160002060009054906101000a900460ff165b610b5b576040517f08c379a0000000000000000000000000000000000000000000000000000000008152600401610b5290612c23565b60405180910390fd5b60008060005b88889050811015610c7b57888882818110610b7f57610b7e612c43565b5b905060200201359250868682818110610b9b57610b9a612c43565b5b905060200201359150816000808d73ffffffffffffffffffffffffffffffffffffffff1673ffffffffffffffffffffffffffffffffffffffff16815260200190815260200160002060008581526020019081526020016000206000828254610c039190612ca1565b92505081905550816000808c73ffffffffffffffffffffffffffffffffffffffff1673ffffffffffffffffffffffffffffffffffffffff16815260200190815260200160002060008581526020019081526020016000206000828254610c699190612cd5565b92505081905550806001019050610b61565b508873ffffffffffffffffffffffffffffffffffffffff168a73ffffffffffffffffffffffffffffffffffffffff163373ffffffffffffffffffffffffffffffffffffffff167f4a39dc06d4c0dbc64b70af90fd698a233a518aa5d07e595d983b8c0526c8f7fb8b8b8b8b604051610cf69493929190612d8c565b60405180910390a460008973ffffffffffffffffffffffffffffffffffffffff163b14610df35763bc197c8160e01b7bffffffffffffffffffffffffffffffffffffffffffffffffffffffff19168973ffffffffffffffffffffffffffffffffffffffff1663bc197c81338d8c8c8c8c8c8c6040518963ffffffff1660e01b8152600401610d8b989796959493929190612e05565b6020604051808303816000875af1158015610daa573d6000803e3d6000fd5b505050506040513d601f19601f82011682018060405250810190610dce9190612e88565b7bffffffffffffffffffffffffffffffffffffffffffffffffffffffff191614610e25565b600073ffffffffffffffffffffffffffffffffffffffff168973ffffffffffffffffffffffffffffffffffffffff1614155b610e64576040517f08c379a0000000000000000000000000000000000000000000000000000000008152600401610e5b90612f01565b60405180910390fd5b50505050505050505050565b610e78611d0f565b73ffffffffffffffffffffffffffffffffffffffff16610e96611511565b73ffffffffffffffffffffffffffffffffffffffff1614610eec576040517f08c379a0000000000000000000000000000000000000000000000000000000008152600401610ee390612b4b565b60405180910390fd5b7f0000000000000000000000000000000000000000000000000000000000000000811480610f3957507f000000000000000000000000000000000000000000000000000000000000000081145b610f78576040517f08c379a0000000000000000000000000000000000000000000000000000000008152600401610f6f90612f6d565b60405180910390fd5b7f0000000000000000000000000000000000000000000000000000000000000000811415611056577f0000000000000000000000000000000000000000000000000000000000000000610fea7f0000000000000000000000000000000000000000000000000000000000000000611702565b83610ff59190612cd5565b1115611036576040517f08c379a000000000000000000000000000000000000000000000000000000000815260040161102d90612fff565b60405180910390fd5b61105183828460405180602001604052806000815250611d17565b611108565b7f00000000000000000000000000000000000000000000000000000000000000006110a07f0000000000000000000000000000000000000000000000000000000000000000611702565b836110ab9190612cd5565b11156110ec576040517f08c379a00000000000000000000000000000000000000000000000000000000081526004016110e390612fff565b60405180910390fd5b61110783828460405180602001604052806000815250611d17565b5b505050565b611115611d0f565b73ffffffffffffffffffffffffffffffffffffffff16611133611511565b73ffffffffffffffffffffffffffffffffffffffff1614611189576040517f08c379a000000000000000000000000000000000000000000000000000000000815260040161118090612b4b565b60405180910390fd5b60004714156111c4576040517fa8088f3800000000000000000000000000000000000000000000000000000000815260040160405180910390fd5b6111f0600560009054906101000a900473ffffffffffffffffffffffffffffffffffffffff1647611f63565b565b600560009054906101000a900473ffffffffffffffffffffffffffffffffffffffff1681565b7f000000000000000000000000000000000000000000000000000000000000000081565b6060828290508585905014611286576040517f08c379a000000000000000000000000000000000000000000000000000000000815260040161127d90612bb7565b60405180910390fd5b8484905067ffffffffffffffff8111156112a3576112a26123b1565b5b6040519080825280602002602001820160405280156112d15781602001602082028036833780820191505090505b50905060005b8585905081101561139c576000808787848181106112f8576112f7612c43565b5b905060200201602081019061130d9190612538565b73ffffffffffffffffffffffffffffffffffffffff1673ffffffffffffffffffffffffffffffffffffffff168152602001908152602001600020600085858481811061135c5761135b612c43565b5b9050602002013581526020019081526020016000205482828151811061138557611384612c43565b5b6020026020010181815250508060010190506112d7565b50949350505050565b6113ad611d0f565b73ffffffffffffffffffffffffffffffffffffffff166113cb611511565b73ffffffffffffffffffffffffffffffffffffffff1614611421576040517f08c379a000000000000000000000000000000000000000000000000000000000815260040161141890612b4b565b60405180910390fd5b80600560006101000a81548173ffffffffffffffffffffffffffffffffffffffff021916908373ffffffffffffffffffffffffffffffffffffffff16021790555050565b61146d611d0f565b73ffffffffffffffffffffffffffffffffffffffff1661148b611511565b73ffffffffffffffffffffffffffffffffffffffff16146114e1576040517f08c379a00000000000000000000000000000000000000000000000000000000081526004016114d890612b4b565b60405180910390fd5b6114eb6000611fb6565b565b7f000000000000000000000000000000000000000000000000000000000000000081565b6000600260009054906101000a900473ffffffffffffffffffffffffffffffffffffffff16905090565b6004805461154890612acd565b80601f016020809104026020016040519081016040528092919081815260200182805461157490612acd565b80156115c15780601f10611596576101008083540402835291602001916115c1565b820191906000526020600020905b8154815290600101906020018083116115a457829003601f168201915b505050505081565b7f000000000000000000000000000000000000000000000000000000000000000081565b60086020528060005260406000206000915090505481565b80600160003373ffffffffffffffffffffffffffffffffffffffff1673ffffffffffffffffffffffffffffffffffffffff16815260200190815260200160002060008473ffffffffffffffffffffffffffffffffffffffff1673ffffffffffffffffffffffffffffffffffffffff16815260200190815260200160002060006101000a81548160ff0219169083151502179055508173ffffffffffffffffffffffffffffffffffffffff163373ffffffffffffffffffffffffffffffffffffffff167f17307eab39ab6107e8899845ad3d59bd9653f200f220920489ca2b5937696c31836040516116f691906122d1565b60405180910390a35050565b600060066000838152602001908152602001600020549050919050565b6007602052806000526040600020600091509050805461173e90612acd565b80601f016020809104026020016040519081016040528092919081815260200182805461176a90612acd565b80156117b75780601f1061178c576101008083540402835291602001916117b7565b820191906000526020600020905b81548152906001019060200180831161179a57829003601f168201915b505050505081565b600181565b600281565b7f000000000000000000000000000000000000000000000000000000000000000081565b7f000000000000000000000000000000000000000000000000000000000000000081565b60016020528160005260406000206020528060005260406000206000915091509054906101000a900460ff1681565b8573ffffffffffffffffffffffffffffffffffffffff163373ffffffffffffffffffffffffffffffffffffffff1614806119005750600160008773ffffffffffffffffffffffffffffffffffffffff1673ffffffffffffffffffffffffffffffffffffffff16815260200190815260200160002060003373ffffffffffffffffffffffffffffffffffffffff1673ffffffffffffffffffffffffffffffffffffffff16815260200190815260200160002060009054906101000a900460ff165b61193f576040517f08c379a000000000000000000000000000000000000000000000000000000000815260040161193690612c23565b60405180910390fd5b826000808873ffffffffffffffffffffffffffffffffffffffff1673ffffffffffffffffffffffffffffffffffffffff1681526020019081526020016000206000868152602001908152602001600020600082825461199e9190612ca1565b92505081905550826000808773ffffffffffffffffffffffffffffffffffffffff1673ffffffffffffffffffffffffffffffffffffffff16815260200190815260200160002060008681526020019081526020016000206000828254611a049190612cd5565b925050819055508473ffffffffffffffffffffffffffffffffffffffff168673ffffffffffffffffffffffffffffffffffffffff163373ffffffffffffffffffffffffffffffffffffffff167fc3d58168c5ae7397731d063d5bbf3d657854427343f4c083240f7aacaa2d0f628787604051611a8192919061301f565b60405180910390a460008573ffffffffffffffffffffffffffffffffffffffff163b14611b7a5763f23a6e6160e01b7bffffffffffffffffffffffffffffffffffffffffffffffffffffffff19168573ffffffffffffffffffffffffffffffffffffffff1663f23a6e613389888888886040518763ffffffff1660e01b8152600401611b1296959493929190613048565b6020604051808303816000875af1158015611b31573d6000803e3d6000fd5b505050506040513d601f19601f82011682018060405250810190611b559190612e88565b7bffffffffffffffffffffffffffffffffffffffffffffffffffffffff191614611bac565b600073ffffffffffffffffffffffffffffffffffffffff168573ffffffffffffffffffffffffffffffffffffffff1614155b611beb576040517f08c379a0000000000000000000000000000000000000000000000000000000008152600401611be290612f01565b60405180910390fd5b505050505050565b611bfb611d0f565b73ffffffffffffffffffffffffffffffffffffffff16611c19611511565b73ffffffffffffffffffffffffffffffffffffffff1614611c6f576040517f08c379a0000000000000000000000000000000000000000000000000000000008152600401611c6690612b4b565b60405180910390fd5b600073ffffffffffffffffffffffffffffffffffffffff168173ffffffffffffffffffffffffffffffffffffffff161415611cdf576040517f08c379a0000000000000000000000000000000000000000000000000000000008152600401611cd690613116565b60405180910390fd5b611ce881611fb6565b50565b7f000000000000000000000000000000000000000000000000000000000000000081565b600033905090565b816000808673ffffffffffffffffffffffffffffffffffffffff1673ffffffffffffffffffffffffffffffffffffffff16815260200190815260200160002060008581526020019081526020016000206000828254611d769190612cd5565b925050819055508373ffffffffffffffffffffffffffffffffffffffff16600073ffffffffffffffffffffffffffffffffffffffff163373ffffffffffffffffffffffffffffffffffffffff167fc3d58168c5ae7397731d063d5bbf3d657854427343f4c083240f7aacaa2d0f628686604051611df492919061301f565b60405180910390a460008473ffffffffffffffffffffffffffffffffffffffff163b14611eec5763f23a6e6160e01b7bffffffffffffffffffffffffffffffffffffffffffffffffffffffff19168473ffffffffffffffffffffffffffffffffffffffff1663f23a6e613360008787876040518663ffffffff1660e01b8152600401611e8495949392919061317a565b6020604051808303816000875af1158015611ea3573d6000803e3d6000fd5b505050506040513d601f19601f82011682018060405250810190611ec79190612e88565b7bffffffffffffffffffffffffffffffffffffffffffffffffffffffff191614611f1e565b600073ffffffffffffffffffffffffffffffffffffffff168473ffffffffffffffffffffffffffffffffffffffff1614155b611f5d576040517f08c379a0000000000000000000000000000000000000000000000000000000008152600401611f5490612f01565b60405180910390fd5b50505050565b600080600080600085875af1905080611fb1576040517f08c379a0000000000000000000000000000000000000000000000000000000008152600401611fa890613220565b60405180910390fd5b505050565b6000600260009054906101000a900473ffffffffffffffffffffffffffffffffffffffff16905081600260006101000a81548173ffffffffffffffffffffffffffffffffffffffff021916908373ffffffffffffffffffffffffffffffffffffffff1602179055508173ffffffffffffffffffffffffffffffffffffffff168173ffffffffffffffffffffffffffffffffffffffff167f8be0079c531659141344cd1fd0a4f28419497f9722a3daafe3b4186f6b6457e060405160405180910390a35050565b82805461208890612acd565b90600052602060002090601f0160209004810192826120aa57600085556120f1565b82601f106120c357805160ff19168380011785556120f1565b828001600101855582156120f1579182015b828111156120f05782518255916020019190600101906120d5565b5b5090506120fe9190612102565b5090565b5b8082111561211b576000816000905550600101612103565b5090565b6000604051905090565b600080fd5b600080fd5b600073ffffffffffffffffffffffffffffffffffffffff82169050919050565b600061215e82612133565b9050919050565b61216e81612153565b811461217957600080fd5b50565b60008135905061218b81612165565b92915050565b6000819050919050565b6121a481612191565b81146121af57600080fd5b50565b6000813590506121c18161219b565b92915050565b600080604083850312156121de576121dd612129565b5b60006121ec8582860161217c565b92505060206121fd858286016121b2565b9150509250929050565b61221081612191565b82525050565b600060208201905061222b6000830184612207565b92915050565b60007fffffffff0000000000000000000000000000000000000000000000000000000082169050919050565b61226681612231565b811461227157600080fd5b50565b6000813590506122838161225d565b92915050565b60006020828403121561229f5761229e612129565b5b60006122ad84828501612274565b91505092915050565b60008115159050919050565b6122cb816122b6565b82525050565b60006020820190506122e660008301846122c2565b92915050565b600081519050919050565b600082825260208201905092915050565b60005b8381101561232657808201518184015260208101905061230b565b83811115612335576000848401525b50505050565b6000601f19601f8301169050919050565b6000612357826122ec565b61236181856122f7565b9350612371818560208601612308565b61237a8161233b565b840191505092915050565b6000602082019050818103600083015261239f818461234c565b905092915050565b600080fd5b600080fd5b7f4e487b7100000000000000000000000000000000000000000000000000000000600052604160045260246000fd5b6123e98261233b565b810181811067ffffffffffffffff82111715612408576124076123b1565b5b80604052505050565b600061241b61211f565b905061242782826123e0565b919050565b600067ffffffffffffffff821115612447576124466123b1565b5b6124508261233b565b9050602081019050919050565b82818337600083830152505050565b600061247f61247a8461242c565b612411565b90508281526020810184848401111561249b5761249a6123ac565b5b6124a684828561245d565b509392505050565b600082601f8301126124c3576124c26123a7565b5b81356124d384826020860161246c565b91505092915050565b600080604083850312156124f3576124f2612129565b5b600083013567ffffffffffffffff8111156125115761251061212e565b5b61251d858286016124ae565b925050602061252e858286016121b2565b9150509250929050565b60006020828403121561254e5761254d612129565b5b600061255c8482850161217c565b91505092915050565b60006020828403121561257b5761257a612129565b5b6000612589848285016121b2565b91505092915050565b600080fd5b600080fd5b60008083601f8401126125b2576125b16123a7565b5b8235905067ffffffffffffffff8111156125cf576125ce612592565b5b6020830191508360208202830111156125eb576125ea612597565b5b9250929050565b60008083601f840112612608576126076123a7565b5b8235905067ffffffffffffffff81111561262557612624612592565b5b60208301915083600182028301111561264157612640612597565b5b9250929050565b60008060008060008060008060a0898b03121561266857612667612129565b5b60006126768b828c0161217c565b98505060206126878b828c0161217c565b975050604089013567ffffffffffffffff8111156126a8576126a761212e565b5b6126b48b828c0161259c565b9650965050606089013567ffffffffffffffff8111156126d7576126d661212e565b5b6126e38b828c0161259c565b9450945050608089013567ffffffffffffffff8111156127065761270561212e565b5b6127128b828c016125f2565b92509250509295985092959890939650565b60008060006060848603121561273d5761273c612129565b5b600061274b8682870161217c565b935050602061275c868287016121b2565b925050604061276d868287016121b2565b9150509250925092565b61278081612153565b82525050565b600060208201905061279b6000830184612777565b92915050565b60008083601f8401126127b7576127b66123a7565b5b8235905067ffffffffffffffff8111156127d4576127d3612592565b5b6020830191508360208202830111156127f0576127ef612597565b5b9250929050565b6000806000806040858703121561281157612810612129565b5b600085013567ffffffffffffffff81111561282f5761282e61212e565b5b61283b878288016127a1565b9450945050602085013567ffffffffffffffff81111561285e5761285d61212e565b5b61286a8782880161259c565b925092505092959194509250565b600081519050919050565b600082825260208201905092915050565b6000819050602082019050919050565b6128ad81612191565b82525050565b60006128bf83836128a4565b60208301905092915050565b6000602082019050919050565b60006128e382612878565b6128ed8185612883565b93506128f883612894565b8060005b8381101561292957815161291088826128b3565b975061291b836128cb565b9250506001810190506128fc565b5085935050505092915050565b6000602082019050818103600083015261295081846128d8565b905092915050565b612961816122b6565b811461296c57600080fd5b50565b60008135905061297e81612958565b92915050565b6000806040838503121561299b5761299a612129565b5b60006129a98582860161217c565b92505060206129ba8582860161296f565b9150509250929050565b600080604083850312156129db576129da612129565b5b60006129e98582860161217c565b92505060206129fa8582860161217c565b9150509250929050565b60008060008060008060a08789031215612a2157612a20612129565b5b6000612a2f89828a0161217c565b9650506020612a4089828a0161217c565b9550506040612a5189828a016121b2565b9450506060612a6289828a016121b2565b935050608087013567ffffffffffffffff811115612a8357612a8261212e565b5b612a8f89828a016125f2565b92509250509295509295509295565b7f4e487b7100000000000000000000000000000000000000000000000000000000600052602260045260246000fd5b60006002820490506001821680612ae557607f821691505b60208210811415612af957612af8612a9e565b5b50919050565b7f4f776e61626c653a2063616c6c6572206973206e6f7420746865206f776e6572600082015250565b6000612b356020836122f7565b9150612b4082612aff565b602082019050919050565b60006020820190508181036000830152612b6481612b28565b9050919050565b7f4c454e4754485f4d49534d415443480000000000000000000000000000000000600082015250565b6000612ba1600f836122f7565b9150612bac82612b6b565b602082019050919050565b60006020820190508181036000830152612bd081612b94565b9050919050565b7f4e4f545f415554484f52495a4544000000000000000000000000000000000000600082015250565b6000612c0d600e836122f7565b9150612c1882612bd7565b602082019050919050565b60006020820190508181036000830152612c3c81612c00565b9050919050565b7f4e487b7100000000000000000000000000000000000000000000000000000000600052603260045260246000fd5b7f4e487b7100000000000000000000000000000000000000000000000000000000600052601160045260246000fd5b6000612cac82612191565b9150612cb783612191565b925082821015612cca57612cc9612c72565b5b828203905092915050565b6000612ce082612191565b9150612ceb83612191565b9250827fffffffffffffffffffffffffffffffffffffffffffffffffffffffffffffffff03821115612d2057612d1f612c72565b5b828201905092915050565b600080fd5b6000612d3c8385612883565b93507f07ffffffffffffffffffffffffffffffffffffffffffffffffffffffffffffff831115612d6f57612d6e612d2b565b5b602083029250612d8083858461245d565b82840190509392505050565b60006040820190508181036000830152612da7818688612d30565b90508181036020830152612dbc818486612d30565b905095945050505050565b600082825260208201905092915050565b6000612de48385612dc7565b9350612df183858461245d565b612dfa8361233b565b840190509392505050565b600060a082019050612e1a600083018b612777565b612e27602083018a612777565b8181036040830152612e3a81888a612d30565b90508181036060830152612e4f818688612d30565b90508181036080830152612e64818486612dd8565b90509998505050505050505050565b600081519050612e828161225d565b92915050565b600060208284031215612e9e57612e9d612129565b5b6000612eac84828501612e73565b91505092915050565b7f554e534146455f524543495049454e5400000000000000000000000000000000600082015250565b6000612eeb6010836122f7565b9150612ef682612eb5565b602082019050919050565b60006020820190508181036000830152612f1a81612ede565b9050919050565b7f434343323a204e6f6e6578697374656e7420746f6b656e2049442e0000000000600082015250565b6000612f57601b836122f7565b9150612f6282612f21565b602082019050919050565b60006020820190508181036000830152612f8681612f4a565b9050919050565b7f434343323a20416d6f756e74206973206c6172676572207468616e20746f746160008201527f6c537570706c792e000000000000000000000000000000000000000000000000602082015250565b6000612fe96028836122f7565b9150612ff482612f8d565b604082019050919050565b6000602082019050818103600083015261301881612fdc565b9050919050565b60006040820190506130346000830185612207565b6130416020830184612207565b9392505050565b600060a08201905061305d6000830189612777565b61306a6020830188612777565b6130776040830187612207565b6130846060830186612207565b8181036080830152613097818486612dd8565b9050979650505050505050565b7f4f776e61626c653a206e6577206f776e657220697320746865207a65726f206160008201527f6464726573730000000000000000000000000000000000000000000000000000602082015250565b60006131006026836122f7565b915061310b826130a4565b604082019050919050565b6000602082019050818103600083015261312f816130f3565b9050919050565b600081519050919050565b600061314c82613136565b6131568185612dc7565b9350613166818560208601612308565b61316f8161233b565b840191505092915050565b600060a08201905061318f6000830188612777565b61319c6020830187612777565b6131a96040830186612207565b6131b66060830185612207565b81810360808301526131c88184613141565b90509695505050505050565b7f4554485f5452414e534645525f4641494c454400000000000000000000000000600082015250565b600061320a6013836122f7565b9150613215826131d4565b602082019050919050565b60006020820190508181036000830152613239816131fd565b905091905056fea26469706673582212206efef7072b3bc3116529633859fd3bd7a4526574bbef4f2531763593e11972f864736f6c634300080b0033697066733a2f2f516d5342564736627841626e50704737464b5736627537554c4846484539764a4d394737655563594d6d744a6e7a697066733a2f2f516d526d4c634b376d614555355578773472507679775677696f445a6a33505659684d7755454335634c744c734e",
					"opcodes": "PUSH2 0x140 PUSH1 0x40 MSTORE PUSH1 0xA6 PUSH1 0x80 SWAP1 DUP2 MSTORE POP PUSH2 0x14A PUSH1 0xA0 SWAP1 DUP2 MSTORE POP PUSH1 0x11 PUSH1 0xC0 SWAP1 DUP2 MSTORE POP PUSH1 0x21 PUSH1 0xE0 SWAP1 DUP2 MSTORE POP PUSH1 0x1 PUSH2 0x100 SWAP1 DUP2 MSTORE POP PUSH1 0x2 PUSH2 0x120 SWAP1 DUP2 MSTORE POP CALLVALUE DUP1 ISZERO PUSH3 0x45 JUMPI PUSH1 0x0 DUP1 REVERT JUMPDEST POP PUSH1 0x40 MLOAD PUSH3 0x3E14 CODESIZE SUB DUP1 PUSH3 0x3E14 DUP4 CODECOPY DUP2 DUP2 ADD PUSH1 0x40 MSTORE DUP2 ADD SWAP1 PUSH3 0x6B SWAP2 SWAP1 PUSH3 0x6DB JUMP JUMPDEST PUSH3 0x8B PUSH3 0x7F PUSH3 0x1B1 PUSH1 0x20 SHL PUSH1 0x20 SHR JUMP JUMPDEST PUSH3 0x1B9 PUSH1 0x20 SHL PUSH1 0x20 SHR JUMP JUMPDEST PUSH1 0x40 MLOAD DUP1 PUSH1 0x40 ADD PUSH1 0x40 MSTORE DUP1 PUSH1 0x13 DUP2 MSTORE PUSH1 0x20 ADD PUSH32 0x54657374204D696E742050617373207631324100000000000000000000000000 DUP2 MSTORE POP SWAP5 POP PUSH1 0x40 MLOAD DUP1 PUSH1 0x40 ADD PUSH1 0x40 MSTORE DUP1 PUSH1 0xF DUP2 MSTORE PUSH1 0x20 ADD PUSH32 0x262331303034373B544D50563130490000000000000000000000000000000000 DUP2 MSTORE POP SWAP4 POP PUSH3 0x129 CALLER PUSH1 0x1 DUP1 PUSH1 0x40 MLOAD DUP1 PUSH1 0x60 ADD PUSH1 0x40 MSTORE DUP1 PUSH1 0x35 DUP2 MSTORE PUSH1 0x20 ADD PUSH3 0x3DAA PUSH1 0x35 SWAP2 CODECOPY PUSH3 0x27F PUSH1 0x20 SHL PUSH1 0x20 SHR JUMP JUMPDEST PUSH3 0x157 CALLER PUSH1 0x2 DUP1 PUSH1 0x40 MLOAD DUP1 PUSH1 0x60 ADD PUSH1 0x40 MSTORE DUP1 PUSH1 0x35 DUP2 MSTORE PUSH1 0x20 ADD PUSH3 0x3DDF PUSH1 0x35 SWAP2 CODECOPY PUSH3 0x27F PUSH1 0x20 SHL PUSH1 0x20 SHR JUMP JUMPDEST PUSH20 0x4E322A20ED891FF77DE2F774D2824F55B7152C73 SWAP3 POP PUSH1 0x40 MLOAD DUP1 PUSH1 0x60 ADD PUSH1 0x40 MSTORE DUP1 PUSH1 0x35 DUP2 MSTORE PUSH1 0x20 ADD PUSH3 0x3DDF PUSH1 0x35 SWAP2 CODECOPY SWAP1 POP PUSH1 0x40 MLOAD DUP1 PUSH1 0x60 ADD PUSH1 0x40 MSTORE DUP1 PUSH1 0x35 DUP2 MSTORE PUSH1 0x20 ADD PUSH3 0x3DAA PUSH1 0x35 SWAP2 CODECOPY SWAP2 POP POP POP POP POP POP PUSH3 0xA97 JUMP JUMPDEST PUSH1 0x0 CALLER SWAP1 POP SWAP1 JUMP JUMPDEST PUSH1 0x0 PUSH1 0x2 PUSH1 0x0 SWAP1 SLOAD SWAP1 PUSH2 0x100 EXP SWAP1 DIV PUSH20 0xFFFFFFFFFFFFFFFFFFFFFFFFFFFFFFFFFFFFFFFF AND SWAP1 POP DUP2 PUSH1 0x2 PUSH1 0x0 PUSH2 0x100 EXP DUP2 SLOAD DUP2 PUSH20 0xFFFFFFFFFFFFFFFFFFFFFFFFFFFFFFFFFFFFFFFF MUL NOT AND SWAP1 DUP4 PUSH20 0xFFFFFFFFFFFFFFFFFFFFFFFFFFFFFFFFFFFFFFFF AND MUL OR SWAP1 SSTORE POP DUP2 PUSH20 0xFFFFFFFFFFFFFFFFFFFFFFFFFFFFFFFFFFFFFFFF AND DUP2 PUSH20 0xFFFFFFFFFFFFFFFFFFFFFFFFFFFFFFFFFFFFFFFF AND PUSH32 0x8BE0079C531659141344CD1FD0A4F28419497F9722A3DAAFE3B4186F6B6457E0 PUSH1 0x40 MLOAD PUSH1 0x40 MLOAD DUP1 SWAP2 SUB SWAP1 LOG3 POP POP JUMP JUMPDEST DUP2 PUSH1 0x0 DUP1 DUP7 PUSH20 0xFFFFFFFFFFFFFFFFFFFFFFFFFFFFFFFFFFFFFFFF AND PUSH20 0xFFFFFFFFFFFFFFFFFFFFFFFFFFFFFFFFFFFFFFFF AND DUP2 MSTORE PUSH1 0x20 ADD SWAP1 DUP2 MSTORE PUSH1 0x20 ADD PUSH1 0x0 KECCAK256 PUSH1 0x0 DUP6 DUP2 MSTORE PUSH1 0x20 ADD SWAP1 DUP2 MSTORE PUSH1 0x20 ADD PUSH1 0x0 KECCAK256 PUSH1 0x0 DUP3 DUP3 SLOAD PUSH3 0x2E0 SWAP2 SWAP1 PUSH3 0x818 JUMP JUMPDEST SWAP3 POP POP DUP2 SWAP1 SSTORE POP DUP4 PUSH20 0xFFFFFFFFFFFFFFFFFFFFFFFFFFFFFFFFFFFFFFFF AND PUSH1 0x0 PUSH20 0xFFFFFFFFFFFFFFFFFFFFFFFFFFFFFFFFFFFFFFFF AND CALLER PUSH20 0xFFFFFFFFFFFFFFFFFFFFFFFFFFFFFFFFFFFFFFFF AND PUSH32 0xC3D58168C5AE7397731D063D5BBF3D657854427343F4C083240F7AACAA2D0F62 DUP7 DUP7 PUSH1 0x40 MLOAD PUSH3 0x360 SWAP3 SWAP2 SWAP1 PUSH3 0x886 JUMP JUMPDEST PUSH1 0x40 MLOAD DUP1 SWAP2 SUB SWAP1 LOG4 PUSH1 0x0 DUP5 PUSH20 0xFFFFFFFFFFFFFFFFFFFFFFFFFFFFFFFFFFFFFFFF AND EXTCODESIZE EQ PUSH3 0x45F JUMPI PUSH4 0xF23A6E61 PUSH1 0xE0 SHL PUSH28 0xFFFFFFFFFFFFFFFFFFFFFFFFFFFFFFFFFFFFFFFFFFFFFFFFFFFFFFFF NOT AND DUP5 PUSH20 0xFFFFFFFFFFFFFFFFFFFFFFFFFFFFFFFFFFFFFFFF AND PUSH4 0xF23A6E61 CALLER PUSH1 0x0 DUP8 DUP8 DUP8 PUSH1 0x40 MLOAD DUP7 PUSH4 0xFFFFFFFF AND PUSH1 0xE0 SHL DUP2 MSTORE PUSH1 0x4 ADD PUSH3 0x3F3 SWAP6 SWAP5 SWAP4 SWAP3 SWAP2 SWAP1 PUSH3 0x921 JUMP JUMPDEST PUSH1 0x20 PUSH1 0x40 MLOAD DUP1 DUP4 SUB DUP2 PUSH1 0x0 DUP8 GAS CALL ISZERO DUP1 ISZERO PUSH3 0x413 JUMPI RETURNDATASIZE PUSH1 0x0 DUP1 RETURNDATACOPY RETURNDATASIZE PUSH1 0x0 REVERT JUMPDEST POP POP POP POP PUSH1 0x40 MLOAD RETURNDATASIZE PUSH1 0x1F NOT PUSH1 0x1F DUP3 ADD AND DUP3 ADD DUP1 PUSH1 0x40 MSTORE POP DUP2 ADD SWAP1 PUSH3 0x439 SWAP2 SWAP1 PUSH3 0x9E2 JUMP JUMPDEST PUSH28 0xFFFFFFFFFFFFFFFFFFFFFFFFFFFFFFFFFFFFFFFFFFFFFFFFFFFFFFFF NOT AND EQ PUSH3 0x491 JUMP JUMPDEST PUSH1 0x0 PUSH20 0xFFFFFFFFFFFFFFFFFFFFFFFFFFFFFFFFFFFFFFFF AND DUP5 PUSH20 0xFFFFFFFFFFFFFFFFFFFFFFFFFFFFFFFFFFFFFFFF AND EQ ISZERO JUMPDEST PUSH3 0x4D3 JUMPI PUSH1 0x40 MLOAD PUSH32 0x8C379A000000000000000000000000000000000000000000000000000000000 DUP2 MSTORE PUSH1 0x4 ADD PUSH3 0x4CA SWAP1 PUSH3 0xA75 JUMP JUMPDEST PUSH1 0x40 MLOAD DUP1 SWAP2 SUB SWAP1 REVERT JUMPDEST POP POP POP POP JUMP JUMPDEST PUSH1 0x0 PUSH1 0x40 MLOAD SWAP1 POP SWAP1 JUMP JUMPDEST PUSH1 0x0 DUP1 REVERT JUMPDEST PUSH1 0x0 DUP1 REVERT JUMPDEST PUSH1 0x0 DUP1 REVERT JUMPDEST PUSH1 0x0 DUP1 REVERT JUMPDEST PUSH1 0x0 PUSH1 0x1F NOT PUSH1 0x1F DUP4 ADD AND SWAP1 POP SWAP2 SWAP1 POP JUMP JUMPDEST PUSH32 0x4E487B7100000000000000000000000000000000000000000000000000000000 PUSH1 0x0 MSTORE PUSH1 0x41 PUSH1 0x4 MSTORE PUSH1 0x24 PUSH1 0x0 REVERT JUMPDEST PUSH3 0x542 DUP3 PUSH3 0x4F7 JUMP JUMPDEST DUP2 ADD DUP2 DUP2 LT PUSH8 0xFFFFFFFFFFFFFFFF DUP3 GT OR ISZERO PUSH3 0x564 JUMPI PUSH3 0x563 PUSH3 0x508 JUMP JUMPDEST JUMPDEST DUP1 PUSH1 0x40 MSTORE POP POP POP JUMP JUMPDEST PUSH1 0x0 PUSH3 0x579 PUSH3 0x4D9 JUMP JUMPDEST SWAP1 POP PUSH3 0x587 DUP3 DUP3 PUSH3 0x537 JUMP JUMPDEST SWAP2 SWAP1 POP JUMP JUMPDEST PUSH1 0x0 PUSH8 0xFFFFFFFFFFFFFFFF DUP3 GT ISZERO PUSH3 0x5AA JUMPI PUSH3 0x5A9 PUSH3 0x508 JUMP JUMPDEST JUMPDEST PUSH3 0x5B5 DUP3 PUSH3 0x4F7 JUMP JUMPDEST SWAP1 POP PUSH1 0x20 DUP2 ADD SWAP1 POP SWAP2 SWAP1 POP JUMP JUMPDEST PUSH1 0x0 JUMPDEST DUP4 DUP2 LT ISZERO PUSH3 0x5E2 JUMPI DUP1 DUP3 ADD MLOAD DUP2 DUP5 ADD MSTORE PUSH1 0x20 DUP2 ADD SWAP1 POP PUSH3 0x5C5 JUMP JUMPDEST DUP4 DUP2 GT ISZERO PUSH3 0x5F2 JUMPI PUSH1 0x0 DUP5 DUP5 ADD MSTORE JUMPDEST POP POP POP POP JUMP JUMPDEST PUSH1 0x0 PUSH3 0x60F PUSH3 0x609 DUP5 PUSH3 0x58C JUMP JUMPDEST PUSH3 0x56D JUMP JUMPDEST SWAP1 POP DUP3 DUP2 MSTORE PUSH1 0x20 DUP2 ADD DUP5 DUP5 DUP5 ADD GT ISZERO PUSH3 0x62E JUMPI PUSH3 0x62D PUSH3 0x4F2 JUMP JUMPDEST JUMPDEST PUSH3 0x63B DUP5 DUP3 DUP6 PUSH3 0x5C2 JUMP JUMPDEST POP SWAP4 SWAP3 POP POP POP JUMP JUMPDEST PUSH1 0x0 DUP3 PUSH1 0x1F DUP4 ADD SLT PUSH3 0x65B JUMPI PUSH3 0x65A PUSH3 0x4ED JUMP JUMPDEST JUMPDEST DUP2 MLOAD PUSH3 0x66D DUP5 DUP3 PUSH1 0x20 DUP7 ADD PUSH3 0x5F8 JUMP JUMPDEST SWAP2 POP POP SWAP3 SWAP2 POP POP JUMP JUMPDEST PUSH1 0x0 PUSH20 0xFFFFFFFFFFFFFFFFFFFFFFFFFFFFFFFFFFFFFFFF DUP3 AND SWAP1 POP SWAP2 SWAP1 POP JUMP JUMPDEST PUSH1 0x0 PUSH3 0x6A3 DUP3 PUSH3 0x676 JUMP JUMPDEST SWAP1 POP SWAP2 SWAP1 POP JUMP JUMPDEST PUSH3 0x6B5 DUP2 PUSH3 0x696 JUMP JUMPDEST DUP2 EQ PUSH3 0x6C1 JUMPI PUSH1 0x0 DUP1 REVERT JUMPDEST POP JUMP JUMPDEST PUSH1 0x0 DUP2 MLOAD SWAP1 POP PUSH3 0x6D5 DUP2 PUSH3 0x6AA JUMP JUMPDEST SWAP3 SWAP2 POP POP JUMP JUMPDEST PUSH1 0x0 DUP1 PUSH1 0x0 DUP1 PUSH1 0x0 PUSH1 0xA0 DUP7 DUP9 SUB SLT ISZERO PUSH3 0x6FA JUMPI PUSH3 0x6F9 PUSH3 0x4E3 JUMP JUMPDEST JUMPDEST PUSH1 0x0 DUP7 ADD MLOAD PUSH8 0xFFFFFFFFFFFFFFFF DUP2 GT ISZERO PUSH3 0x71B JUMPI PUSH3 0x71A PUSH3 0x4E8 JUMP JUMPDEST JUMPDEST PUSH3 0x729 DUP9 DUP3 DUP10 ADD PUSH3 0x643 JUMP JUMPDEST SWAP6 POP POP PUSH1 0x20 DUP7 ADD MLOAD PUSH8 0xFFFFFFFFFFFFFFFF DUP2 GT ISZERO PUSH3 0x74D JUMPI PUSH3 0x74C PUSH3 0x4E8 JUMP JUMPDEST JUMPDEST PUSH3 0x75B DUP9 DUP3 DUP10 ADD PUSH3 0x643 JUMP JUMPDEST SWAP5 POP POP PUSH1 0x40 PUSH3 0x76E DUP9 DUP3 DUP10 ADD PUSH3 0x6C4 JUMP JUMPDEST SWAP4 POP POP PUSH1 0x60 DUP7 ADD MLOAD PUSH8 0xFFFFFFFFFFFFFFFF DUP2 GT ISZERO PUSH3 0x792 JUMPI PUSH3 0x791 PUSH3 0x4E8 JUMP JUMPDEST JUMPDEST PUSH3 0x7A0 DUP9 DUP3 DUP10 ADD PUSH3 0x643 JUMP JUMPDEST SWAP3 POP POP PUSH1 0x80 DUP7 ADD MLOAD PUSH8 0xFFFFFFFFFFFFFFFF DUP2 GT ISZERO PUSH3 0x7C4 JUMPI PUSH3 0x7C3 PUSH3 0x4E8 JUMP JUMPDEST JUMPDEST PUSH3 0x7D2 DUP9 DUP3 DUP10 ADD PUSH3 0x643 JUMP JUMPDEST SWAP2 POP POP SWAP3 SWAP6 POP SWAP3 SWAP6 SWAP1 SWAP4 POP JUMP JUMPDEST PUSH1 0x0 DUP2 SWAP1 POP SWAP2 SWAP1 POP JUMP JUMPDEST PUSH32 0x4E487B7100000000000000000000000000000000000000000000000000000000 PUSH1 0x0 MSTORE PUSH1 0x11 PUSH1 0x4 MSTORE PUSH1 0x24 PUSH1 0x0 REVERT JUMPDEST PUSH1 0x0 PUSH3 0x825 DUP3 PUSH3 0x7DF JUMP JUMPDEST SWAP2 POP PUSH3 0x832 DUP4 PUSH3 0x7DF JUMP JUMPDEST SWAP3 POP DUP3 PUSH32 0xFFFFFFFFFFFFFFFFFFFFFFFFFFFFFFFFFFFFFFFFFFFFFFFFFFFFFFFFFFFFFFFF SUB DUP3 GT ISZERO PUSH3 0x86A JUMPI PUSH3 0x869 PUSH3 0x7E9 JUMP JUMPDEST JUMPDEST DUP3 DUP3 ADD SWAP1 POP SWAP3 SWAP2 POP POP JUMP JUMPDEST PUSH3 0x880 DUP2 PUSH3 0x7DF JUMP JUMPDEST DUP3 MSTORE POP POP JUMP JUMPDEST PUSH1 0x0 PUSH1 0x40 DUP3 ADD SWAP1 POP PUSH3 0x89D PUSH1 0x0 DUP4 ADD DUP6 PUSH3 0x875 JUMP JUMPDEST PUSH3 0x8AC PUSH1 0x20 DUP4 ADD DUP5 PUSH3 0x875 JUMP JUMPDEST SWAP4 SWAP3 POP POP POP JUMP JUMPDEST PUSH3 0x8BE DUP2 PUSH3 0x696 JUMP JUMPDEST DUP3 MSTORE POP POP JUMP JUMPDEST PUSH1 0x0 DUP2 MLOAD SWAP1 POP SWAP2 SWAP1 POP JUMP JUMPDEST PUSH1 0x0 DUP3 DUP3 MSTORE PUSH1 0x20 DUP3 ADD SWAP1 POP SWAP3 SWAP2 POP POP JUMP JUMPDEST PUSH1 0x0 PUSH3 0x8ED DUP3 PUSH3 0x8C4 JUMP JUMPDEST PUSH3 0x8F9 DUP2 DUP6 PUSH3 0x8CF JUMP JUMPDEST SWAP4 POP PUSH3 0x90B DUP2 DUP6 PUSH1 0x20 DUP7 ADD PUSH3 0x5C2 JUMP JUMPDEST PUSH3 0x916 DUP2 PUSH3 0x4F7 JUMP JUMPDEST DUP5 ADD SWAP2 POP POP SWAP3 SWAP2 POP POP JUMP JUMPDEST PUSH1 0x0 PUSH1 0xA0 DUP3 ADD SWAP1 POP PUSH3 0x938 PUSH1 0x0 DUP4 ADD DUP9 PUSH3 0x8B3 JUMP JUMPDEST PUSH3 0x947 PUSH1 0x20 DUP4 ADD DUP8 PUSH3 0x8B3 JUMP JUMPDEST PUSH3 0x956 PUSH1 0x40 DUP4 ADD DUP7 PUSH3 0x875 JUMP JUMPDEST PUSH3 0x965 PUSH1 0x60 DUP4 ADD DUP6 PUSH3 0x875 JUMP JUMPDEST DUP2 DUP2 SUB PUSH1 0x80 DUP4 ADD MSTORE PUSH3 0x979 DUP2 DUP5 PUSH3 0x8E0 JUMP JUMPDEST SWAP1 POP SWAP7 SWAP6 POP POP POP POP POP POP JUMP JUMPDEST PUSH1 0x0 PUSH32 0xFFFFFFFF00000000000000000000000000000000000000000000000000000000 DUP3 AND SWAP1 POP SWAP2 SWAP1 POP JUMP JUMPDEST PUSH3 0x9BC DUP2 PUSH3 0x985 JUMP JUMPDEST DUP2 EQ PUSH3 0x9C8 JUMPI PUSH1 0x0 DUP1 REVERT JUMPDEST POP JUMP JUMPDEST PUSH1 0x0 DUP2 MLOAD SWAP1 POP PUSH3 0x9DC DUP2 PUSH3 0x9B1 JUMP JUMPDEST SWAP3 SWAP2 POP POP JUMP JUMPDEST PUSH1 0x0 PUSH1 0x20 DUP3 DUP5 SUB SLT ISZERO PUSH3 0x9FB JUMPI PUSH3 0x9FA PUSH3 0x4E3 JUMP JUMPDEST JUMPDEST PUSH1 0x0 PUSH3 0xA0B DUP5 DUP3 DUP6 ADD PUSH3 0x9CB JUMP JUMPDEST SWAP2 POP POP SWAP3 SWAP2 POP POP JUMP JUMPDEST PUSH1 0x0 DUP3 DUP3 MSTORE PUSH1 0x20 DUP3 ADD SWAP1 POP SWAP3 SWAP2 POP POP JUMP JUMPDEST PUSH32 0x554E534146455F524543495049454E5400000000000000000000000000000000 PUSH1 0x0 DUP3 ADD MSTORE POP JUMP JUMPDEST PUSH1 0x0 PUSH3 0xA5D PUSH1 0x10 DUP4 PUSH3 0xA14 JUMP JUMPDEST SWAP2 POP PUSH3 0xA6A DUP3 PUSH3 0xA25 JUMP JUMPDEST PUSH1 0x20 DUP3 ADD SWAP1 POP SWAP2 SWAP1 POP JUMP JUMPDEST PUSH1 0x0 PUSH1 0x20 DUP3 ADD SWAP1 POP DUP2 DUP2 SUB PUSH1 0x0 DUP4 ADD MSTORE PUSH3 0xA90 DUP2 PUSH3 0xA4E JUMP JUMPDEST SWAP1 POP SWAP2 SWAP1 POP JUMP JUMPDEST PUSH1 0x80 MLOAD PUSH1 0xA0 MLOAD PUSH1 0xC0 MLOAD PUSH1 0xE0 MLOAD PUSH2 0x100 MLOAD PUSH2 0x120 MLOAD PUSH2 0x3276 PUSH3 0xB34 PUSH1 0x0 CODECOPY PUSH1 0x0 DUP2 DUP2 PUSH2 0x9BC ADD MSTORE DUP2 DUP2 PUSH2 0xEEE ADD MSTORE DUP2 DUP2 PUSH2 0xF7A ADD MSTORE DUP2 DUP2 PUSH2 0xFC6 ADD MSTORE PUSH2 0x14EF ADD MSTORE PUSH1 0x0 DUP2 DUP2 PUSH2 0x961 ADD MSTORE DUP2 DUP2 PUSH2 0xF17 ADD MSTORE DUP2 DUP2 PUSH2 0x107C ADD MSTORE PUSH2 0x15CB ADD MSTORE PUSH1 0x0 DUP2 DUP2 PUSH2 0x9DD ADD MSTORE PUSH2 0x17EF ADD MSTORE PUSH1 0x0 DUP2 DUP2 PUSH2 0x982 ADD MSTORE PUSH2 0x17CB ADD MSTORE PUSH1 0x0 DUP2 DUP2 PUSH2 0xFA2 ADD MSTORE PUSH2 0x121A ADD MSTORE PUSH1 0x0 DUP2 DUP2 PUSH2 0x1058 ADD MSTORE PUSH2 0x1CED ADD MSTORE PUSH2 0x3276 PUSH1 0x0 RETURN INVALID PUSH1 0x80 PUSH1 0x40 MSTORE CALLVALUE DUP1 ISZERO PUSH2 0x10 JUMPI PUSH1 0x0 DUP1 REVERT JUMPDEST POP PUSH1 0x4 CALLDATASIZE LT PUSH2 0x1E4 JUMPI PUSH1 0x0 CALLDATALOAD PUSH1 0xE0 SHR DUP1 PUSH4 0x71D05AEC GT PUSH2 0x10F JUMPI DUP1 PUSH4 0xCBF99084 GT PUSH2 0xA2 JUMPI DUP1 PUSH4 0xE985E9C5 GT PUSH2 0x71 JUMPI DUP1 PUSH4 0xE985E9C5 EQ PUSH2 0x56F JUMPI DUP1 PUSH4 0xF242432A EQ PUSH2 0x59F JUMPI DUP1 PUSH4 0xF2FDE38B EQ PUSH2 0x5BB JUMPI DUP1 PUSH4 0xF48DEAAA EQ PUSH2 0x5D7 JUMPI PUSH2 0x1E4 JUMP JUMPDEST DUP1 PUSH4 0xCBF99084 EQ PUSH2 0x4F7 JUMPI DUP1 PUSH4 0xCC2851C6 EQ PUSH2 0x515 JUMPI DUP1 PUSH4 0xDEC125BA EQ PUSH2 0x533 JUMPI DUP1 PUSH4 0xDF52FA84 EQ PUSH2 0x551 JUMPI PUSH2 0x1E4 JUMP JUMPDEST DUP1 PUSH4 0x9FA3CDA1 GT PUSH2 0xDE JUMPI DUP1 PUSH4 0x9FA3CDA1 EQ PUSH2 0x44B JUMPI DUP1 PUSH4 0xA22CB465 EQ PUSH2 0x47B JUMPI DUP1 PUSH4 0xBD85B039 EQ PUSH2 0x497 JUMPI DUP1 PUSH4 0xC87B56DD EQ PUSH2 0x4C7 JUMPI PUSH2 0x1E4 JUMP JUMPDEST DUP1 PUSH4 0x71D05AEC EQ PUSH2 0x3D3 JUMPI DUP1 PUSH4 0x8DA5CB5B EQ PUSH2 0x3F1 JUMPI DUP1 PUSH4 0x95D89B41 EQ PUSH2 0x40F JUMPI DUP1 PUSH4 0x9E3CF643 EQ PUSH2 0x42D JUMPI PUSH2 0x1E4 JUMP JUMPDEST DUP1 PUSH4 0x2EB2C2D6 GT PUSH2 0x187 JUMPI DUP1 PUSH4 0x45114990 GT PUSH2 0x156 JUMPI DUP1 PUSH4 0x45114990 EQ PUSH2 0x35F JUMPI DUP1 PUSH4 0x4E1273F4 EQ PUSH2 0x37D JUMPI DUP1 PUSH4 0x6817031B EQ PUSH2 0x3AD JUMPI DUP1 PUSH4 0x715018A6 EQ PUSH2 0x3C9 JUMPI PUSH2 0x1E4 JUMP JUMPDEST DUP1 PUSH4 0x2EB2C2D6 EQ PUSH2 0x2FF JUMPI DUP1 PUSH4 0x388B9FE0 EQ PUSH2 0x31B JUMPI DUP1 PUSH4 0x3CCFD60B EQ PUSH2 0x337 JUMPI DUP1 PUSH4 0x430BF08A EQ PUSH2 0x341 JUMPI PUSH2 0x1E4 JUMP JUMPDEST DUP1 PUSH4 0x9A3BEEF GT PUSH2 0x1C3 JUMPI DUP1 PUSH4 0x9A3BEEF EQ PUSH2 0x267 JUMPI DUP1 PUSH4 0xB22F540 EQ PUSH2 0x283 JUMPI DUP1 PUSH4 0xE89341C EQ PUSH2 0x2B3 JUMPI DUP1 PUSH4 0x16473CF7 EQ PUSH2 0x2E3 JUMPI PUSH2 0x1E4 JUMP JUMPDEST DUP1 PUSH3 0xFDD58E EQ PUSH2 0x1E9 JUMPI DUP1 PUSH4 0x1FFC9A7 EQ PUSH2 0x219 JUMPI DUP1 PUSH4 0x6FDDE03 EQ PUSH2 0x249 JUMPI JUMPDEST PUSH1 0x0 DUP1 REVERT JUMPDEST PUSH2 0x203 PUSH1 0x4 DUP1 CALLDATASIZE SUB DUP2 ADD SWAP1 PUSH2 0x1FE SWAP2 SWAP1 PUSH2 0x21C7 JUMP JUMPDEST PUSH2 0x5F5 JUMP JUMPDEST PUSH1 0x40 MLOAD PUSH2 0x210 SWAP2 SWAP1 PUSH2 0x2216 JUMP JUMPDEST PUSH1 0x40 MLOAD DUP1 SWAP2 SUB SWAP1 RETURN JUMPDEST PUSH2 0x233 PUSH1 0x4 DUP1 CALLDATASIZE SUB DUP2 ADD SWAP1 PUSH2 0x22E SWAP2 SWAP1 PUSH2 0x2289 JUMP JUMPDEST PUSH2 0x61A JUMP JUMPDEST PUSH1 0x40 MLOAD PUSH2 0x240 SWAP2 SWAP1 PUSH2 0x22D1 JUMP JUMPDEST PUSH1 0x40 MLOAD DUP1 SWAP2 SUB SWAP1 RETURN JUMPDEST PUSH2 0x251 PUSH2 0x6AC JUMP JUMPDEST PUSH1 0x40 MLOAD PUSH2 0x25E SWAP2 SWAP1 PUSH2 0x2385 JUMP JUMPDEST PUSH1 0x40 MLOAD DUP1 SWAP2 SUB SWAP1 RETURN JUMPDEST PUSH2 0x281 PUSH1 0x4 DUP1 CALLDATASIZE SUB DUP2 ADD SWAP1 PUSH2 0x27C SWAP2 SWAP1 PUSH2 0x24DC JUMP JUMPDEST PUSH2 0x73A JUMP JUMPDEST STOP JUMPDEST PUSH2 0x29D PUSH1 0x4 DUP1 CALLDATASIZE SUB DUP2 ADD SWAP1 PUSH2 0x298 SWAP2 SWAP1 PUSH2 0x2538 JUMP JUMPDEST PUSH2 0x7E2 JUMP JUMPDEST PUSH1 0x40 MLOAD PUSH2 0x2AA SWAP2 SWAP1 PUSH2 0x2216 JUMP JUMPDEST PUSH1 0x40 MLOAD DUP1 SWAP2 SUB SWAP1 RETURN JUMPDEST PUSH2 0x2CD PUSH1 0x4 DUP1 CALLDATASIZE SUB DUP2 ADD SWAP1 PUSH2 0x2C8 SWAP2 SWAP1 PUSH2 0x2565 JUMP JUMPDEST PUSH2 0x7FA JUMP JUMPDEST PUSH1 0x40 MLOAD PUSH2 0x2DA SWAP2 SWAP1 PUSH2 0x2385 JUMP JUMPDEST PUSH1 0x40 MLOAD DUP1 SWAP2 SUB SWAP1 RETURN JUMPDEST PUSH2 0x2FD PUSH1 0x4 DUP1 CALLDATASIZE SUB DUP2 ADD SWAP1 PUSH2 0x2F8 SWAP2 SWAP1 PUSH2 0x2538 JUMP JUMPDEST PUSH2 0x8DF JUMP JUMPDEST STOP JUMPDEST PUSH2 0x319 PUSH1 0x4 DUP1 CALLDATASIZE SUB DUP2 ADD SWAP1 PUSH2 0x314 SWAP2 SWAP1 PUSH2 0x2648 JUMP JUMPDEST PUSH2 0xA14 JUMP JUMPDEST STOP JUMPDEST PUSH2 0x335 PUSH1 0x4 DUP1 CALLDATASIZE SUB DUP2 ADD SWAP1 PUSH2 0x330 SWAP2 SWAP1 PUSH2 0x2724 JUMP JUMPDEST PUSH2 0xE70 JUMP JUMPDEST STOP JUMPDEST PUSH2 0x33F PUSH2 0x110D JUMP JUMPDEST STOP JUMPDEST PUSH2 0x349 PUSH2 0x11F2 JUMP JUMPDEST PUSH1 0x40 MLOAD PUSH2 0x356 SWAP2 SWAP1 PUSH2 0x2786 JUMP JUMPDEST PUSH1 0x40 MLOAD DUP1 SWAP2 SUB SWAP1 RETURN JUMPDEST PUSH2 0x367 PUSH2 0x1218 JUMP JUMPDEST PUSH1 0x40 MLOAD PUSH2 0x374 SWAP2 SWAP1 PUSH2 0x2216 JUMP JUMPDEST PUSH1 0x40 MLOAD DUP1 SWAP2 SUB SWAP1 RETURN JUMPDEST PUSH2 0x397 PUSH1 0x4 DUP1 CALLDATASIZE SUB DUP2 ADD SWAP1 PUSH2 0x392 SWAP2 SWAP1 PUSH2 0x27F7 JUMP JUMPDEST PUSH2 0x123C JUMP JUMPDEST PUSH1 0x40 MLOAD PUSH2 0x3A4 SWAP2 SWAP1 PUSH2 0x2936 JUMP JUMPDEST PUSH1 0x40 MLOAD DUP1 SWAP2 SUB SWAP1 RETURN JUMPDEST PUSH2 0x3C7 PUSH1 0x4 DUP1 CALLDATASIZE SUB DUP2 ADD SWAP1 PUSH2 0x3C2 SWAP2 SWAP1 PUSH2 0x2538 JUMP JUMPDEST PUSH2 0x13A5 JUMP JUMPDEST STOP JUMPDEST PUSH2 0x3D1 PUSH2 0x1465 JUMP JUMPDEST STOP JUMPDEST PUSH2 0x3DB PUSH2 0x14ED JUMP JUMPDEST PUSH1 0x40 MLOAD PUSH2 0x3E8 SWAP2 SWAP1 PUSH2 0x2216 JUMP JUMPDEST PUSH1 0x40 MLOAD DUP1 SWAP2 SUB SWAP1 RETURN JUMPDEST PUSH2 0x3F9 PUSH2 0x1511 JUMP JUMPDEST PUSH1 0x40 MLOAD PUSH2 0x406 SWAP2 SWAP1 PUSH2 0x2786 JUMP JUMPDEST PUSH1 0x40 MLOAD DUP1 SWAP2 SUB SWAP1 RETURN JUMPDEST PUSH2 0x417 PUSH2 0x153B JUMP JUMPDEST PUSH1 0x40 MLOAD PUSH2 0x424 SWAP2 SWAP1 PUSH2 0x2385 JUMP JUMPDEST PUSH1 0x40 MLOAD DUP1 SWAP2 SUB SWAP1 RETURN JUMPDEST PUSH2 0x435 PUSH2 0x15C9 JUMP JUMPDEST PUSH1 0x40 MLOAD PUSH2 0x442 SWAP2 SWAP1 PUSH2 0x2216 JUMP JUMPDEST PUSH1 0x40 MLOAD DUP1 SWAP2 SUB SWAP1 RETURN JUMPDEST PUSH2 0x465 PUSH1 0x4 DUP1 CALLDATASIZE SUB DUP2 ADD SWAP1 PUSH2 0x460 SWAP2 SWAP1 PUSH2 0x2538 JUMP JUMPDEST PUSH2 0x15ED JUMP JUMPDEST PUSH1 0x40 MLOAD PUSH2 0x472 SWAP2 SWAP1 PUSH2 0x2216 JUMP JUMPDEST PUSH1 0x40 MLOAD DUP1 SWAP2 SUB SWAP1 RETURN JUMPDEST PUSH2 0x495 PUSH1 0x4 DUP1 CALLDATASIZE SUB DUP2 ADD SWAP1 PUSH2 0x490 SWAP2 SWAP1 PUSH2 0x2984 JUMP JUMPDEST PUSH2 0x1605 JUMP JUMPDEST STOP JUMPDEST PUSH2 0x4B1 PUSH1 0x4 DUP1 CALLDATASIZE SUB DUP2 ADD SWAP1 PUSH2 0x4AC SWAP2 SWAP1 PUSH2 0x2565 JUMP JUMPDEST PUSH2 0x1702 JUMP JUMPDEST PUSH1 0x40 MLOAD PUSH2 0x4BE SWAP2 SWAP1 PUSH2 0x2216 JUMP JUMPDEST PUSH1 0x40 MLOAD DUP1 SWAP2 SUB SWAP1 RETURN JUMPDEST PUSH2 0x4E1 PUSH1 0x4 DUP1 CALLDATASIZE SUB DUP2 ADD SWAP1 PUSH2 0x4DC SWAP2 SWAP1 PUSH2 0x2565 JUMP JUMPDEST PUSH2 0x171F JUMP JUMPDEST PUSH1 0x40 MLOAD PUSH2 0x4EE SWAP2 SWAP1 PUSH2 0x2385 JUMP JUMPDEST PUSH1 0x40 MLOAD DUP1 SWAP2 SUB SWAP1 RETURN JUMPDEST PUSH2 0x4FF PUSH2 0x17BF JUMP JUMPDEST PUSH1 0x40 MLOAD PUSH2 0x50C SWAP2 SWAP1 PUSH2 0x2216 JUMP JUMPDEST PUSH1 0x40 MLOAD DUP1 SWAP2 SUB SWAP1 RETURN JUMPDEST PUSH2 0x51D PUSH2 0x17C4 JUMP JUMPDEST PUSH1 0x40 MLOAD PUSH2 0x52A SWAP2 SWAP1 PUSH2 0x2216 JUMP JUMPDEST PUSH1 0x40 MLOAD DUP1 SWAP2 SUB SWAP1 RETURN JUMPDEST PUSH2 0x53B PUSH2 0x17C9 JUMP JUMPDEST PUSH1 0x40 MLOAD PUSH2 0x548 SWAP2 SWAP1 PUSH2 0x2216 JUMP JUMPDEST PUSH1 0x40 MLOAD DUP1 SWAP2 SUB SWAP1 RETURN JUMPDEST PUSH2 0x559 PUSH2 0x17ED JUMP JUMPDEST PUSH1 0x40 MLOAD PUSH2 0x566 SWAP2 SWAP1 PUSH2 0x2216 JUMP JUMPDEST PUSH1 0x40 MLOAD DUP1 SWAP2 SUB SWAP1 RETURN JUMPDEST PUSH2 0x589 PUSH1 0x4 DUP1 CALLDATASIZE SUB DUP2 ADD SWAP1 PUSH2 0x584 SWAP2 SWAP1 PUSH2 0x29C4 JUMP JUMPDEST PUSH2 0x1811 JUMP JUMPDEST PUSH1 0x40 MLOAD PUSH2 0x596 SWAP2 SWAP1 PUSH2 0x22D1 JUMP JUMPDEST PUSH1 0x40 MLOAD DUP1 SWAP2 SUB SWAP1 RETURN JUMPDEST PUSH2 0x5B9 PUSH1 0x4 DUP1 CALLDATASIZE SUB DUP2 ADD SWAP1 PUSH2 0x5B4 SWAP2 SWAP1 PUSH2 0x2A04 JUMP JUMPDEST PUSH2 0x1840 JUMP JUMPDEST STOP JUMPDEST PUSH2 0x5D5 PUSH1 0x4 DUP1 CALLDATASIZE SUB DUP2 ADD SWAP1 PUSH2 0x5D0 SWAP2 SWAP1 PUSH2 0x2538 JUMP JUMPDEST PUSH2 0x1BF3 JUMP JUMPDEST STOP JUMPDEST PUSH2 0x5DF PUSH2 0x1CEB JUMP JUMPDEST PUSH1 0x40 MLOAD PUSH2 0x5EC SWAP2 SWAP1 PUSH2 0x2216 JUMP JUMPDEST PUSH1 0x40 MLOAD DUP1 SWAP2 SUB SWAP1 RETURN JUMPDEST PUSH1 0x0 PUSH1 0x20 MSTORE DUP2 PUSH1 0x0 MSTORE PUSH1 0x40 PUSH1 0x0 KECCAK256 PUSH1 0x20 MSTORE DUP1 PUSH1 0x0 MSTORE PUSH1 0x40 PUSH1 0x0 KECCAK256 PUSH1 0x0 SWAP2 POP SWAP2 POP POP SLOAD DUP2 JUMP JUMPDEST PUSH1 0x0 PUSH4 0x1FFC9A7 PUSH1 0xE0 SHL DUP3 PUSH28 0xFFFFFFFFFFFFFFFFFFFFFFFFFFFFFFFFFFFFFFFFFFFFFFFFFFFFFFFF NOT AND EQ DUP1 PUSH2 0x675 JUMPI POP PUSH4 0xD9B67A26 PUSH1 0xE0 SHL DUP3 PUSH28 0xFFFFFFFFFFFFFFFFFFFFFFFFFFFFFFFFFFFFFFFFFFFFFFFFFFFFFFFF NOT AND EQ JUMPDEST DUP1 PUSH2 0x6A5 JUMPI POP PUSH4 0xE89341C PUSH1 0xE0 SHL DUP3 PUSH28 0xFFFFFFFFFFFFFFFFFFFFFFFFFFFFFFFFFFFFFFFFFFFFFFFFFFFFFFFF NOT AND EQ JUMPDEST SWAP1 POP SWAP2 SWAP1 POP JUMP JUMPDEST PUSH1 0x3 DUP1 SLOAD PUSH2 0x6B9 SWAP1 PUSH2 0x2ACD JUMP JUMPDEST DUP1 PUSH1 0x1F ADD PUSH1 0x20 DUP1 SWAP2 DIV MUL PUSH1 0x20 ADD PUSH1 0x40 MLOAD SWAP1 DUP2 ADD PUSH1 0x40 MSTORE DUP1 SWAP3 SWAP2 SWAP1 DUP2 DUP2 MSTORE PUSH1 0x20 ADD DUP3 DUP1 SLOAD PUSH2 0x6E5 SWAP1 PUSH2 0x2ACD JUMP JUMPDEST DUP1 ISZERO PUSH2 0x732 JUMPI DUP1 PUSH1 0x1F LT PUSH2 0x707 JUMPI PUSH2 0x100 DUP1 DUP4 SLOAD DIV MUL DUP4 MSTORE SWAP2 PUSH1 0x20 ADD SWAP2 PUSH2 0x732 JUMP JUMPDEST DUP3 ADD SWAP2 SWAP1 PUSH1 0x0 MSTORE PUSH1 0x20 PUSH1 0x0 KECCAK256 SWAP1 JUMPDEST DUP2 SLOAD DUP2 MSTORE SWAP1 PUSH1 0x1 ADD SWAP1 PUSH1 0x20 ADD DUP1 DUP4 GT PUSH2 0x715 JUMPI DUP3 SWAP1 SUB PUSH1 0x1F AND DUP3 ADD SWAP2 JUMPDEST POP POP POP POP POP DUP2 JUMP JUMPDEST PUSH2 0x742 PUSH2 0x1D0F JUMP JUMPDEST PUSH20 0xFFFFFFFFFFFFFFFFFFFFFFFFFFFFFFFFFFFFFFFF AND PUSH2 0x760 PUSH2 0x1511 JUMP JUMPDEST PUSH20 0xFFFFFFFFFFFFFFFFFFFFFFFFFFFFFFFFFFFFFFFF AND EQ PUSH2 0x7B6 JUMPI PUSH1 0x40 MLOAD PUSH32 0x8C379A000000000000000000000000000000000000000000000000000000000 DUP2 MSTORE PUSH1 0x4 ADD PUSH2 0x7AD SWAP1 PUSH2 0x2B4B JUMP JUMPDEST PUSH1 0x40 MLOAD DUP1 SWAP2 SUB SWAP1 REVERT JUMPDEST DUP2 PUSH1 0x7 PUSH1 0x0 DUP4 DUP2 MSTORE PUSH1 0x20 ADD SWAP1 DUP2 MSTORE PUSH1 0x20 ADD PUSH1 0x0 KECCAK256 SWAP1 DUP1 MLOAD SWAP1 PUSH1 0x20 ADD SWAP1 PUSH2 0x7DD SWAP3 SWAP2 SWAP1 PUSH2 0x207C JUMP JUMPDEST POP POP POP JUMP JUMPDEST PUSH1 0x9 PUSH1 0x20 MSTORE DUP1 PUSH1 0x0 MSTORE PUSH1 0x40 PUSH1 0x0 KECCAK256 PUSH1 0x0 SWAP2 POP SWAP1 POP SLOAD DUP2 JUMP JUMPDEST PUSH1 0x60 PUSH1 0x0 PUSH1 0x7 PUSH1 0x0 DUP5 DUP2 MSTORE PUSH1 0x20 ADD SWAP1 DUP2 MSTORE PUSH1 0x20 ADD PUSH1 0x0 KECCAK256 DUP1 SLOAD PUSH2 0x81C SWAP1 PUSH2 0x2ACD JUMP JUMPDEST SWAP1 POP EQ ISZERO PUSH2 0x83B JUMPI PUSH1 0x40 MLOAD DUP1 PUSH1 0x20 ADD PUSH1 0x40 MSTORE DUP1 PUSH1 0x0 DUP2 MSTORE POP SWAP1 POP PUSH2 0x8DA JUMP JUMPDEST PUSH1 0x7 PUSH1 0x0 DUP4 DUP2 MSTORE PUSH1 0x20 ADD SWAP1 DUP2 MSTORE PUSH1 0x20 ADD PUSH1 0x0 KECCAK256 DUP1 SLOAD PUSH2 0x859 SWAP1 PUSH2 0x2ACD JUMP JUMPDEST DUP1 PUSH1 0x1F ADD PUSH1 0x20 DUP1 SWAP2 DIV MUL PUSH1 0x20 ADD PUSH1 0x40 MLOAD SWAP1 DUP2 ADD PUSH1 0x40 MSTORE DUP1 SWAP3 SWAP2 SWAP1 DUP2 DUP2 MSTORE PUSH1 0x20 ADD DUP3 DUP1 SLOAD PUSH2 0x885 SWAP1 PUSH2 0x2ACD JUMP JUMPDEST DUP1 ISZERO PUSH2 0x8D2 JUMPI DUP1 PUSH1 0x1F LT PUSH2 0x8A7 JUMPI PUSH2 0x100 DUP1 DUP4 SLOAD DIV MUL DUP4 MSTORE SWAP2 PUSH1 0x20 ADD SWAP2 PUSH2 0x8D2 JUMP JUMPDEST DUP3 ADD SWAP2 SWAP1 PUSH1 0x0 MSTORE PUSH1 0x20 PUSH1 0x0 KECCAK256 SWAP1 JUMPDEST DUP2 SLOAD DUP2 MSTORE SWAP1 PUSH1 0x1 ADD SWAP1 PUSH1 0x20 ADD DUP1 DUP4 GT PUSH2 0x8B5 JUMPI DUP3 SWAP1 SUB PUSH1 0x1F AND DUP3 ADD SWAP2 JUMPDEST POP POP POP POP POP SWAP1 POP JUMPDEST SWAP2 SWAP1 POP JUMP JUMPDEST PUSH2 0x8E7 PUSH2 0x1D0F JUMP JUMPDEST PUSH20 0xFFFFFFFFFFFFFFFFFFFFFFFFFFFFFFFFFFFFFFFF AND PUSH2 0x905 PUSH2 0x1511 JUMP JUMPDEST PUSH20 0xFFFFFFFFFFFFFFFFFFFFFFFFFFFFFFFFFFFFFFFF AND EQ PUSH2 0x95B JUMPI PUSH1 0x40 MLOAD PUSH32 0x8C379A000000000000000000000000000000000000000000000000000000000 DUP2 MSTORE PUSH1 0x4 ADD PUSH2 0x952 SWAP1 PUSH2 0x2B4B JUMP JUMPDEST PUSH1 0x40 MLOAD DUP1 SWAP2 SUB SWAP1 REVERT JUMPDEST PUSH2 0x9B6 DUP2 PUSH32 0x0 PUSH32 0x0 PUSH1 0x40 MLOAD DUP1 PUSH1 0x20 ADD PUSH1 0x40 MSTORE DUP1 PUSH1 0x0 DUP2 MSTORE POP PUSH2 0x1D17 JUMP JUMPDEST PUSH2 0xA11 DUP2 PUSH32 0x0 PUSH32 0x0 PUSH1 0x40 MLOAD DUP1 PUSH1 0x20 ADD PUSH1 0x40 MSTORE DUP1 PUSH1 0x0 DUP2 MSTORE POP PUSH2 0x1D17 JUMP JUMPDEST POP JUMP JUMPDEST DUP4 DUP4 SWAP1 POP DUP7 DUP7 SWAP1 POP EQ PUSH2 0xA5C JUMPI PUSH1 0x40 MLOAD PUSH32 0x8C379A000000000000000000000000000000000000000000000000000000000 DUP2 MSTORE PUSH1 0x4 ADD PUSH2 0xA53 SWAP1 PUSH2 0x2BB7 JUMP JUMPDEST PUSH1 0x40 MLOAD DUP1 SWAP2 SUB SWAP1 REVERT JUMPDEST DUP8 PUSH20 0xFFFFFFFFFFFFFFFFFFFFFFFFFFFFFFFFFFFFFFFF AND CALLER PUSH20 0xFFFFFFFFFFFFFFFFFFFFFFFFFFFFFFFFFFFFFFFF AND EQ DUP1 PUSH2 0xB1C JUMPI POP PUSH1 0x1 PUSH1 0x0 DUP10 PUSH20 0xFFFFFFFFFFFFFFFFFFFFFFFFFFFFFFFFFFFFFFFF AND PUSH20 0xFFFFFFFFFFFFFFFFFFFFFFFFFFFFFFFFFFFFFFFF AND DUP2 MSTORE PUSH1 0x20 ADD SWAP1 DUP2 MSTORE PUSH1 0x20 ADD PUSH1 0x0 KECCAK256 PUSH1 0x0 CALLER PUSH20 0xFFFFFFFFFFFFFFFFFFFFFFFFFFFFFFFFFFFFFFFF AND PUSH20 0xFFFFFFFFFFFFFFFFFFFFFFFFFFFFFFFFFFFFFFFF AND DUP2 MSTORE PUSH1 0x20 ADD SWAP1 DUP2 MSTORE PUSH1 0x20 ADD PUSH1 0x0 KECCAK256 PUSH1 0x0 SWAP1 SLOAD SWAP1 PUSH2 0x100 EXP SWAP1 DIV PUSH1 0xFF AND JUMPDEST PUSH2 0xB5B JUMPI PUSH1 0x40 MLOAD PUSH32 0x8C379A000000000000000000000000000000000000000000000000000000000 DUP2 MSTORE PUSH1 0x4 ADD PUSH2 0xB52 SWAP1 PUSH2 0x2C23 JUMP JUMPDEST PUSH1 0x40 MLOAD DUP1 SWAP2 SUB SWAP1 REVERT JUMPDEST PUSH1 0x0 DUP1 PUSH1 0x0 JUMPDEST DUP9 DUP9 SWAP1 POP DUP2 LT ISZERO PUSH2 0xC7B JUMPI DUP9 DUP9 DUP3 DUP2 DUP2 LT PUSH2 0xB7F JUMPI PUSH2 0xB7E PUSH2 0x2C43 JUMP JUMPDEST JUMPDEST SWAP1 POP PUSH1 0x20 MUL ADD CALLDATALOAD SWAP3 POP DUP7 DUP7 DUP3 DUP2 DUP2 LT PUSH2 0xB9B JUMPI PUSH2 0xB9A PUSH2 0x2C43 JUMP JUMPDEST JUMPDEST SWAP1 POP PUSH1 0x20 MUL ADD CALLDATALOAD SWAP2 POP DUP2 PUSH1 0x0 DUP1 DUP14 PUSH20 0xFFFFFFFFFFFFFFFFFFFFFFFFFFFFFFFFFFFFFFFF AND PUSH20 0xFFFFFFFFFFFFFFFFFFFFFFFFFFFFFFFFFFFFFFFF AND DUP2 MSTORE PUSH1 0x20 ADD SWAP1 DUP2 MSTORE PUSH1 0x20 ADD PUSH1 0x0 KECCAK256 PUSH1 0x0 DUP6 DUP2 MSTORE PUSH1 0x20 ADD SWAP1 DUP2 MSTORE PUSH1 0x20 ADD PUSH1 0x0 KECCAK256 PUSH1 0x0 DUP3 DUP3 SLOAD PUSH2 0xC03 SWAP2 SWAP1 PUSH2 0x2CA1 JUMP JUMPDEST SWAP3 POP POP DUP2 SWAP1 SSTORE POP DUP2 PUSH1 0x0 DUP1 DUP13 PUSH20 0xFFFFFFFFFFFFFFFFFFFFFFFFFFFFFFFFFFFFFFFF AND PUSH20 0xFFFFFFFFFFFFFFFFFFFFFFFFFFFFFFFFFFFFFFFF AND DUP2 MSTORE PUSH1 0x20 ADD SWAP1 DUP2 MSTORE PUSH1 0x20 ADD PUSH1 0x0 KECCAK256 PUSH1 0x0 DUP6 DUP2 MSTORE PUSH1 0x20 ADD SWAP1 DUP2 MSTORE PUSH1 0x20 ADD PUSH1 0x0 KECCAK256 PUSH1 0x0 DUP3 DUP3 SLOAD PUSH2 0xC69 SWAP2 SWAP1 PUSH2 0x2CD5 JUMP JUMPDEST SWAP3 POP POP DUP2 SWAP1 SSTORE POP DUP1 PUSH1 0x1 ADD SWAP1 POP PUSH2 0xB61 JUMP JUMPDEST POP DUP9 PUSH20 0xFFFFFFFFFFFFFFFFFFFFFFFFFFFFFFFFFFFFFFFF AND DUP11 PUSH20 0xFFFFFFFFFFFFFFFFFFFFFFFFFFFFFFFFFFFFFFFF AND CALLER PUSH20 0xFFFFFFFFFFFFFFFFFFFFFFFFFFFFFFFFFFFFFFFF AND PUSH32 0x4A39DC06D4C0DBC64B70AF90FD698A233A518AA5D07E595D983B8C0526C8F7FB DUP12 DUP12 DUP12 DUP12 PUSH1 0x40 MLOAD PUSH2 0xCF6 SWAP5 SWAP4 SWAP3 SWAP2 SWAP1 PUSH2 0x2D8C JUMP JUMPDEST PUSH1 0x40 MLOAD DUP1 SWAP2 SUB SWAP1 LOG4 PUSH1 0x0 DUP10 PUSH20 0xFFFFFFFFFFFFFFFFFFFFFFFFFFFFFFFFFFFFFFFF AND EXTCODESIZE EQ PUSH2 0xDF3 JUMPI PUSH4 0xBC197C81 PUSH1 0xE0 SHL PUSH28 0xFFFFFFFFFFFFFFFFFFFFFFFFFFFFFFFFFFFFFFFFFFFFFFFFFFFFFFFF NOT AND DUP10 PUSH20 0xFFFFFFFFFFFFFFFFFFFFFFFFFFFFFFFFFFFFFFFF AND PUSH4 0xBC197C81 CALLER DUP14 DUP13 DUP13 DUP13 DUP13 DUP13 DUP13 PUSH1 0x40 MLOAD DUP10 PUSH4 0xFFFFFFFF AND PUSH1 0xE0 SHL DUP2 MSTORE PUSH1 0x4 ADD PUSH2 0xD8B SWAP9 SWAP8 SWAP7 SWAP6 SWAP5 SWAP4 SWAP3 SWAP2 SWAP1 PUSH2 0x2E05 JUMP JUMPDEST PUSH1 0x20 PUSH1 0x40 MLOAD DUP1 DUP4 SUB DUP2 PUSH1 0x0 DUP8 GAS CALL ISZERO DUP1 ISZERO PUSH2 0xDAA JUMPI RETURNDATASIZE PUSH1 0x0 DUP1 RETURNDATACOPY RETURNDATASIZE PUSH1 0x0 REVERT JUMPDEST POP POP POP POP PUSH1 0x40 MLOAD RETURNDATASIZE PUSH1 0x1F NOT PUSH1 0x1F DUP3 ADD AND DUP3 ADD DUP1 PUSH1 0x40 MSTORE POP DUP2 ADD SWAP1 PUSH2 0xDCE SWAP2 SWAP1 PUSH2 0x2E88 JUMP JUMPDEST PUSH28 0xFFFFFFFFFFFFFFFFFFFFFFFFFFFFFFFFFFFFFFFFFFFFFFFFFFFFFFFF NOT AND EQ PUSH2 0xE25 JUMP JUMPDEST PUSH1 0x0 PUSH20 0xFFFFFFFFFFFFFFFFFFFFFFFFFFFFFFFFFFFFFFFF AND DUP10 PUSH20 0xFFFFFFFFFFFFFFFFFFFFFFFFFFFFFFFFFFFFFFFF AND EQ ISZERO JUMPDEST PUSH2 0xE64 JUMPI PUSH1 0x40 MLOAD PUSH32 0x8C379A000000000000000000000000000000000000000000000000000000000 DUP2 MSTORE PUSH1 0x4 ADD PUSH2 0xE5B SWAP1 PUSH2 0x2F01 JUMP JUMPDEST PUSH1 0x40 MLOAD DUP1 SWAP2 SUB SWAP1 REVERT JUMPDEST POP POP POP POP POP POP POP POP POP POP JUMP JUMPDEST PUSH2 0xE78 PUSH2 0x1D0F JUMP JUMPDEST PUSH20 0xFFFFFFFFFFFFFFFFFFFFFFFFFFFFFFFFFFFFFFFF AND PUSH2 0xE96 PUSH2 0x1511 JUMP JUMPDEST PUSH20 0xFFFFFFFFFFFFFFFFFFFFFFFFFFFFFFFFFFFFFFFF AND EQ PUSH2 0xEEC JUMPI PUSH1 0x40 MLOAD PUSH32 0x8C379A000000000000000000000000000000000000000000000000000000000 DUP2 MSTORE PUSH1 0x4 ADD PUSH2 0xEE3 SWAP1 PUSH2 0x2B4B JUMP JUMPDEST PUSH1 0x40 MLOAD DUP1 SWAP2 SUB SWAP1 REVERT JUMPDEST PUSH32 0x0 DUP2 EQ DUP1 PUSH2 0xF39 JUMPI POP PUSH32 0x0 DUP2 EQ JUMPDEST PUSH2 0xF78 JUMPI PUSH1 0x40 MLOAD PUSH32 0x8C379A000000000000000000000000000000000000000000000000000000000 DUP2 MSTORE PUSH1 0x4 ADD PUSH2 0xF6F SWAP1 PUSH2 0x2F6D JUMP JUMPDEST PUSH1 0x40 MLOAD DUP1 SWAP2 SUB SWAP1 REVERT JUMPDEST PUSH32 0x0 DUP2 EQ ISZERO PUSH2 0x1056 JUMPI PUSH32 0x0 PUSH2 0xFEA PUSH32 0x0 PUSH2 0x1702 JUMP JUMPDEST DUP4 PUSH2 0xFF5 SWAP2 SWAP1 PUSH2 0x2CD5 JUMP JUMPDEST GT ISZERO PUSH2 0x1036 JUMPI PUSH1 0x40 MLOAD PUSH32 0x8C379A000000000000000000000000000000000000000000000000000000000 DUP2 MSTORE PUSH1 0x4 ADD PUSH2 0x102D SWAP1 PUSH2 0x2FFF JUMP JUMPDEST PUSH1 0x40 MLOAD DUP1 SWAP2 SUB SWAP1 REVERT JUMPDEST PUSH2 0x1051 DUP4 DUP3 DUP5 PUSH1 0x40 MLOAD DUP1 PUSH1 0x20 ADD PUSH1 0x40 MSTORE DUP1 PUSH1 0x0 DUP2 MSTORE POP PUSH2 0x1D17 JUMP JUMPDEST PUSH2 0x1108 JUMP JUMPDEST PUSH32 0x0 PUSH2 0x10A0 PUSH32 0x0 PUSH2 0x1702 JUMP JUMPDEST DUP4 PUSH2 0x10AB SWAP2 SWAP1 PUSH2 0x2CD5 JUMP JUMPDEST GT ISZERO PUSH2 0x10EC JUMPI PUSH1 0x40 MLOAD PUSH32 0x8C379A000000000000000000000000000000000000000000000000000000000 DUP2 MSTORE PUSH1 0x4 ADD PUSH2 0x10E3 SWAP1 PUSH2 0x2FFF JUMP JUMPDEST PUSH1 0x40 MLOAD DUP1 SWAP2 SUB SWAP1 REVERT JUMPDEST PUSH2 0x1107 DUP4 DUP3 DUP5 PUSH1 0x40 MLOAD DUP1 PUSH1 0x20 ADD PUSH1 0x40 MSTORE DUP1 PUSH1 0x0 DUP2 MSTORE POP PUSH2 0x1D17 JUMP JUMPDEST JUMPDEST POP POP POP JUMP JUMPDEST PUSH2 0x1115 PUSH2 0x1D0F JUMP JUMPDEST PUSH20 0xFFFFFFFFFFFFFFFFFFFFFFFFFFFFFFFFFFFFFFFF AND PUSH2 0x1133 PUSH2 0x1511 JUMP JUMPDEST PUSH20 0xFFFFFFFFFFFFFFFFFFFFFFFFFFFFFFFFFFFFFFFF AND EQ PUSH2 0x1189 JUMPI PUSH1 0x40 MLOAD PUSH32 0x8C379A000000000000000000000000000000000000000000000000000000000 DUP2 MSTORE PUSH1 0x4 ADD PUSH2 0x1180 SWAP1 PUSH2 0x2B4B JUMP JUMPDEST PUSH1 0x40 MLOAD DUP1 SWAP2 SUB SWAP1 REVERT JUMPDEST PUSH1 0x0 SELFBALANCE EQ ISZERO PUSH2 0x11C4 JUMPI PUSH1 0x40 MLOAD PUSH32 0xA8088F3800000000000000000000000000000000000000000000000000000000 DUP2 MSTORE PUSH1 0x4 ADD PUSH1 0x40 MLOAD DUP1 SWAP2 SUB SWAP1 REVERT JUMPDEST PUSH2 0x11F0 PUSH1 0x5 PUSH1 0x0 SWAP1 SLOAD SWAP1 PUSH2 0x100 EXP SWAP1 DIV PUSH20 0xFFFFFFFFFFFFFFFFFFFFFFFFFFFFFFFFFFFFFFFF AND SELFBALANCE PUSH2 0x1F63 JUMP JUMPDEST JUMP JUMPDEST PUSH1 0x5 PUSH1 0x0 SWAP1 SLOAD SWAP1 PUSH2 0x100 EXP SWAP1 DIV PUSH20 0xFFFFFFFFFFFFFFFFFFFFFFFFFFFFFFFFFFFFFFFF AND DUP2 JUMP JUMPDEST PUSH32 0x0 DUP2 JUMP JUMPDEST PUSH1 0x60 DUP3 DUP3 SWAP1 POP DUP6 DUP6 SWAP1 POP EQ PUSH2 0x1286 JUMPI PUSH1 0x40 MLOAD PUSH32 0x8C379A000000000000000000000000000000000000000000000000000000000 DUP2 MSTORE PUSH1 0x4 ADD PUSH2 0x127D SWAP1 PUSH2 0x2BB7 JUMP JUMPDEST PUSH1 0x40 MLOAD DUP1 SWAP2 SUB SWAP1 REVERT JUMPDEST DUP5 DUP5 SWAP1 POP PUSH8 0xFFFFFFFFFFFFFFFF DUP2 GT ISZERO PUSH2 0x12A3 JUMPI PUSH2 0x12A2 PUSH2 0x23B1 JUMP JUMPDEST JUMPDEST PUSH1 0x40 MLOAD SWAP1 DUP1 DUP3 MSTORE DUP1 PUSH1 0x20 MUL PUSH1 0x20 ADD DUP3 ADD PUSH1 0x40 MSTORE DUP1 ISZERO PUSH2 0x12D1 JUMPI DUP2 PUSH1 0x20 ADD PUSH1 0x20 DUP3 MUL DUP1 CALLDATASIZE DUP4 CALLDATACOPY DUP1 DUP3 ADD SWAP2 POP POP SWAP1 POP JUMPDEST POP SWAP1 POP PUSH1 0x0 JUMPDEST DUP6 DUP6 SWAP1 POP DUP2 LT ISZERO PUSH2 0x139C JUMPI PUSH1 0x0 DUP1 DUP8 DUP8 DUP5 DUP2 DUP2 LT PUSH2 0x12F8 JUMPI PUSH2 0x12F7 PUSH2 0x2C43 JUMP JUMPDEST JUMPDEST SWAP1 POP PUSH1 0x20 MUL ADD PUSH1 0x20 DUP2 ADD SWAP1 PUSH2 0x130D SWAP2 SWAP1 PUSH2 0x2538 JUMP JUMPDEST PUSH20 0xFFFFFFFFFFFFFFFFFFFFFFFFFFFFFFFFFFFFFFFF AND PUSH20 0xFFFFFFFFFFFFFFFFFFFFFFFFFFFFFFFFFFFFFFFF AND DUP2 MSTORE PUSH1 0x20 ADD SWAP1 DUP2 MSTORE PUSH1 0x20 ADD PUSH1 0x0 KECCAK256 PUSH1 0x0 DUP6 DUP6 DUP5 DUP2 DUP2 LT PUSH2 0x135C JUMPI PUSH2 0x135B PUSH2 0x2C43 JUMP JUMPDEST JUMPDEST SWAP1 POP PUSH1 0x20 MUL ADD CALLDATALOAD DUP2 MSTORE PUSH1 0x20 ADD SWAP1 DUP2 MSTORE PUSH1 0x20 ADD PUSH1 0x0 KECCAK256 SLOAD DUP3 DUP3 DUP2 MLOAD DUP2 LT PUSH2 0x1385 JUMPI PUSH2 0x1384 PUSH2 0x2C43 JUMP JUMPDEST JUMPDEST PUSH1 0x20 MUL PUSH1 0x20 ADD ADD DUP2 DUP2 MSTORE POP POP DUP1 PUSH1 0x1 ADD SWAP1 POP PUSH2 0x12D7 JUMP JUMPDEST POP SWAP5 SWAP4 POP POP POP POP JUMP JUMPDEST PUSH2 0x13AD PUSH2 0x1D0F JUMP JUMPDEST PUSH20 0xFFFFFFFFFFFFFFFFFFFFFFFFFFFFFFFFFFFFFFFF AND PUSH2 0x13CB PUSH2 0x1511 JUMP JUMPDEST PUSH20 0xFFFFFFFFFFFFFFFFFFFFFFFFFFFFFFFFFFFFFFFF AND EQ PUSH2 0x1421 JUMPI PUSH1 0x40 MLOAD PUSH32 0x8C379A000000000000000000000000000000000000000000000000000000000 DUP2 MSTORE PUSH1 0x4 ADD PUSH2 0x1418 SWAP1 PUSH2 0x2B4B JUMP JUMPDEST PUSH1 0x40 MLOAD DUP1 SWAP2 SUB SWAP1 REVERT JUMPDEST DUP1 PUSH1 0x5 PUSH1 0x0 PUSH2 0x100 EXP DUP2 SLOAD DUP2 PUSH20 0xFFFFFFFFFFFFFFFFFFFFFFFFFFFFFFFFFFFFFFFF MUL NOT AND SWAP1 DUP4 PUSH20 0xFFFFFFFFFFFFFFFFFFFFFFFFFFFFFFFFFFFFFFFF AND MUL OR SWAP1 SSTORE POP POP JUMP JUMPDEST PUSH2 0x146D PUSH2 0x1D0F JUMP JUMPDEST PUSH20 0xFFFFFFFFFFFFFFFFFFFFFFFFFFFFFFFFFFFFFFFF AND PUSH2 0x148B PUSH2 0x1511 JUMP JUMPDEST PUSH20 0xFFFFFFFFFFFFFFFFFFFFFFFFFFFFFFFFFFFFFFFF AND EQ PUSH2 0x14E1 JUMPI PUSH1 0x40 MLOAD PUSH32 0x8C379A000000000000000000000000000000000000000000000000000000000 DUP2 MSTORE PUSH1 0x4 ADD PUSH2 0x14D8 SWAP1 PUSH2 0x2B4B JUMP JUMPDEST PUSH1 0x40 MLOAD DUP1 SWAP2 SUB SWAP1 REVERT JUMPDEST PUSH2 0x14EB PUSH1 0x0 PUSH2 0x1FB6 JUMP JUMPDEST JUMP JUMPDEST PUSH32 0x0 DUP2 JUMP JUMPDEST PUSH1 0x0 PUSH1 0x2 PUSH1 0x0 SWAP1 SLOAD SWAP1 PUSH2 0x100 EXP SWAP1 DIV PUSH20 0xFFFFFFFFFFFFFFFFFFFFFFFFFFFFFFFFFFFFFFFF AND SWAP1 POP SWAP1 JUMP JUMPDEST PUSH1 0x4 DUP1 SLOAD PUSH2 0x1548 SWAP1 PUSH2 0x2ACD JUMP JUMPDEST DUP1 PUSH1 0x1F ADD PUSH1 0x20 DUP1 SWAP2 DIV MUL PUSH1 0x20 ADD PUSH1 0x40 MLOAD SWAP1 DUP2 ADD PUSH1 0x40 MSTORE DUP1 SWAP3 SWAP2 SWAP1 DUP2 DUP2 MSTORE PUSH1 0x20 ADD DUP3 DUP1 SLOAD PUSH2 0x1574 SWAP1 PUSH2 0x2ACD JUMP JUMPDEST DUP1 ISZERO PUSH2 0x15C1 JUMPI DUP1 PUSH1 0x1F LT PUSH2 0x1596 JUMPI PUSH2 0x100 DUP1 DUP4 SLOAD DIV MUL DUP4 MSTORE SWAP2 PUSH1 0x20 ADD SWAP2 PUSH2 0x15C1 JUMP JUMPDEST DUP3 ADD SWAP2 SWAP1 PUSH1 0x0 MSTORE PUSH1 0x20 PUSH1 0x0 KECCAK256 SWAP1 JUMPDEST DUP2 SLOAD DUP2 MSTORE SWAP1 PUSH1 0x1 ADD SWAP1 PUSH1 0x20 ADD DUP1 DUP4 GT PUSH2 0x15A4 JUMPI DUP3 SWAP1 SUB PUSH1 0x1F AND DUP3 ADD SWAP2 JUMPDEST POP POP POP POP POP DUP2 JUMP JUMPDEST PUSH32 0x0 DUP2 JUMP JUMPDEST PUSH1 0x8 PUSH1 0x20 MSTORE DUP1 PUSH1 0x0 MSTORE PUSH1 0x40 PUSH1 0x0 KECCAK256 PUSH1 0x0 SWAP2 POP SWAP1 POP SLOAD DUP2 JUMP JUMPDEST DUP1 PUSH1 0x1 PUSH1 0x0 CALLER PUSH20 0xFFFFFFFFFFFFFFFFFFFFFFFFFFFFFFFFFFFFFFFF AND PUSH20 0xFFFFFFFFFFFFFFFFFFFFFFFFFFFFFFFFFFFFFFFF AND DUP2 MSTORE PUSH1 0x20 ADD SWAP1 DUP2 MSTORE PUSH1 0x20 ADD PUSH1 0x0 KECCAK256 PUSH1 0x0 DUP5 PUSH20 0xFFFFFFFFFFFFFFFFFFFFFFFFFFFFFFFFFFFFFFFF AND PUSH20 0xFFFFFFFFFFFFFFFFFFFFFFFFFFFFFFFFFFFFFFFF AND DUP2 MSTORE PUSH1 0x20 ADD SWAP1 DUP2 MSTORE PUSH1 0x20 ADD PUSH1 0x0 KECCAK256 PUSH1 0x0 PUSH2 0x100 EXP DUP2 SLOAD DUP2 PUSH1 0xFF MUL NOT AND SWAP1 DUP4 ISZERO ISZERO MUL OR SWAP1 SSTORE POP DUP2 PUSH20 0xFFFFFFFFFFFFFFFFFFFFFFFFFFFFFFFFFFFFFFFF AND CALLER PUSH20 0xFFFFFFFFFFFFFFFFFFFFFFFFFFFFFFFFFFFFFFFF AND PUSH32 0x17307EAB39AB6107E8899845AD3D59BD9653F200F220920489CA2B5937696C31 DUP4 PUSH1 0x40 MLOAD PUSH2 0x16F6 SWAP2 SWAP1 PUSH2 0x22D1 JUMP JUMPDEST PUSH1 0x40 MLOAD DUP1 SWAP2 SUB SWAP1 LOG3 POP POP JUMP JUMPDEST PUSH1 0x0 PUSH1 0x6 PUSH1 0x0 DUP4 DUP2 MSTORE PUSH1 0x20 ADD SWAP1 DUP2 MSTORE PUSH1 0x20 ADD PUSH1 0x0 KECCAK256 SLOAD SWAP1 POP SWAP2 SWAP1 POP JUMP JUMPDEST PUSH1 0x7 PUSH1 0x20 MSTORE DUP1 PUSH1 0x0 MSTORE PUSH1 0x40 PUSH1 0x0 KECCAK256 PUSH1 0x0 SWAP2 POP SWAP1 POP DUP1 SLOAD PUSH2 0x173E SWAP1 PUSH2 0x2ACD JUMP JUMPDEST DUP1 PUSH1 0x1F ADD PUSH1 0x20 DUP1 SWAP2 DIV MUL PUSH1 0x20 ADD PUSH1 0x40 MLOAD SWAP1 DUP2 ADD PUSH1 0x40 MSTORE DUP1 SWAP3 SWAP2 SWAP1 DUP2 DUP2 MSTORE PUSH1 0x20 ADD DUP3 DUP1 SLOAD PUSH2 0x176A SWAP1 PUSH2 0x2ACD JUMP JUMPDEST DUP1 ISZERO PUSH2 0x17B7 JUMPI DUP1 PUSH1 0x1F LT PUSH2 0x178C JUMPI PUSH2 0x100 DUP1 DUP4 SLOAD DIV MUL DUP4 MSTORE SWAP2 PUSH1 0x20 ADD SWAP2 PUSH2 0x17B7 JUMP JUMPDEST DUP3 ADD SWAP2 SWAP1 PUSH1 0x0 MSTORE PUSH1 0x20 PUSH1 0x0 KECCAK256 SWAP1 JUMPDEST DUP2 SLOAD DUP2 MSTORE SWAP1 PUSH1 0x1 ADD SWAP1 PUSH1 0x20 ADD DUP1 DUP4 GT PUSH2 0x179A JUMPI DUP3 SWAP1 SUB PUSH1 0x1F AND DUP3 ADD SWAP2 JUMPDEST POP POP POP POP POP DUP2 JUMP JUMPDEST PUSH1 0x1 DUP2 JUMP JUMPDEST PUSH1 0x2 DUP2 JUMP JUMPDEST PUSH32 0x0 DUP2 JUMP JUMPDEST PUSH32 0x0 DUP2 JUMP JUMPDEST PUSH1 0x1 PUSH1 0x20 MSTORE DUP2 PUSH1 0x0 MSTORE PUSH1 0x40 PUSH1 0x0 KECCAK256 PUSH1 0x20 MSTORE DUP1 PUSH1 0x0 MSTORE PUSH1 0x40 PUSH1 0x0 KECCAK256 PUSH1 0x0 SWAP2 POP SWAP2 POP SWAP1 SLOAD SWAP1 PUSH2 0x100 EXP SWAP1 DIV PUSH1 0xFF AND DUP2 JUMP JUMPDEST DUP6 PUSH20 0xFFFFFFFFFFFFFFFFFFFFFFFFFFFFFFFFFFFFFFFF AND CALLER PUSH20 0xFFFFFFFFFFFFFFFFFFFFFFFFFFFFFFFFFFFFFFFF AND EQ DUP1 PUSH2 0x1900 JUMPI POP PUSH1 0x1 PUSH1 0x0 DUP8 PUSH20 0xFFFFFFFFFFFFFFFFFFFFFFFFFFFFFFFFFFFFFFFF AND PUSH20 0xFFFFFFFFFFFFFFFFFFFFFFFFFFFFFFFFFFFFFFFF AND DUP2 MSTORE PUSH1 0x20 ADD SWAP1 DUP2 MSTORE PUSH1 0x20 ADD PUSH1 0x0 KECCAK256 PUSH1 0x0 CALLER PUSH20 0xFFFFFFFFFFFFFFFFFFFFFFFFFFFFFFFFFFFFFFFF AND PUSH20 0xFFFFFFFFFFFFFFFFFFFFFFFFFFFFFFFFFFFFFFFF AND DUP2 MSTORE PUSH1 0x20 ADD SWAP1 DUP2 MSTORE PUSH1 0x20 ADD PUSH1 0x0 KECCAK256 PUSH1 0x0 SWAP1 SLOAD SWAP1 PUSH2 0x100 EXP SWAP1 DIV PUSH1 0xFF AND JUMPDEST PUSH2 0x193F JUMPI PUSH1 0x40 MLOAD PUSH32 0x8C379A000000000000000000000000000000000000000000000000000000000 DUP2 MSTORE PUSH1 0x4 ADD PUSH2 0x1936 SWAP1 PUSH2 0x2C23 JUMP JUMPDEST PUSH1 0x40 MLOAD DUP1 SWAP2 SUB SWAP1 REVERT JUMPDEST DUP3 PUSH1 0x0 DUP1 DUP9 PUSH20 0xFFFFFFFFFFFFFFFFFFFFFFFFFFFFFFFFFFFFFFFF AND PUSH20 0xFFFFFFFFFFFFFFFFFFFFFFFFFFFFFFFFFFFFFFFF AND DUP2 MSTORE PUSH1 0x20 ADD SWAP1 DUP2 MSTORE PUSH1 0x20 ADD PUSH1 0x0 KECCAK256 PUSH1 0x0 DUP7 DUP2 MSTORE PUSH1 0x20 ADD SWAP1 DUP2 MSTORE PUSH1 0x20 ADD PUSH1 0x0 KECCAK256 PUSH1 0x0 DUP3 DUP3 SLOAD PUSH2 0x199E SWAP2 SWAP1 PUSH2 0x2CA1 JUMP JUMPDEST SWAP3 POP POP DUP2 SWAP1 SSTORE POP DUP3 PUSH1 0x0 DUP1 DUP8 PUSH20 0xFFFFFFFFFFFFFFFFFFFFFFFFFFFFFFFFFFFFFFFF AND PUSH20 0xFFFFFFFFFFFFFFFFFFFFFFFFFFFFFFFFFFFFFFFF AND DUP2 MSTORE PUSH1 0x20 ADD SWAP1 DUP2 MSTORE PUSH1 0x20 ADD PUSH1 0x0 KECCAK256 PUSH1 0x0 DUP7 DUP2 MSTORE PUSH1 0x20 ADD SWAP1 DUP2 MSTORE PUSH1 0x20 ADD PUSH1 0x0 KECCAK256 PUSH1 0x0 DUP3 DUP3 SLOAD PUSH2 0x1A04 SWAP2 SWAP1 PUSH2 0x2CD5 JUMP JUMPDEST SWAP3 POP POP DUP2 SWAP1 SSTORE POP DUP5 PUSH20 0xFFFFFFFFFFFFFFFFFFFFFFFFFFFFFFFFFFFFFFFF AND DUP7 PUSH20 0xFFFFFFFFFFFFFFFFFFFFFFFFFFFFFFFFFFFFFFFF AND CALLER PUSH20 0xFFFFFFFFFFFFFFFFFFFFFFFFFFFFFFFFFFFFFFFF AND PUSH32 0xC3D58168C5AE7397731D063D5BBF3D657854427343F4C083240F7AACAA2D0F62 DUP8 DUP8 PUSH1 0x40 MLOAD PUSH2 0x1A81 SWAP3 SWAP2 SWAP1 PUSH2 0x301F JUMP JUMPDEST PUSH1 0x40 MLOAD DUP1 SWAP2 SUB SWAP1 LOG4 PUSH1 0x0 DUP6 PUSH20 0xFFFFFFFFFFFFFFFFFFFFFFFFFFFFFFFFFFFFFFFF AND EXTCODESIZE EQ PUSH2 0x1B7A JUMPI PUSH4 0xF23A6E61 PUSH1 0xE0 SHL PUSH28 0xFFFFFFFFFFFFFFFFFFFFFFFFFFFFFFFFFFFFFFFFFFFFFFFFFFFFFFFF NOT AND DUP6 PUSH20 0xFFFFFFFFFFFFFFFFFFFFFFFFFFFFFFFFFFFFFFFF AND PUSH4 0xF23A6E61 CALLER DUP10 DUP9 DUP9 DUP9 DUP9 PUSH1 0x40 MLOAD DUP8 PUSH4 0xFFFFFFFF AND PUSH1 0xE0 SHL DUP2 MSTORE PUSH1 0x4 ADD PUSH2 0x1B12 SWAP7 SWAP6 SWAP5 SWAP4 SWAP3 SWAP2 SWAP1 PUSH2 0x3048 JUMP JUMPDEST PUSH1 0x20 PUSH1 0x40 MLOAD DUP1 DUP4 SUB DUP2 PUSH1 0x0 DUP8 GAS CALL ISZERO DUP1 ISZERO PUSH2 0x1B31 JUMPI RETURNDATASIZE PUSH1 0x0 DUP1 RETURNDATACOPY RETURNDATASIZE PUSH1 0x0 REVERT JUMPDEST POP POP POP POP PUSH1 0x40 MLOAD RETURNDATASIZE PUSH1 0x1F NOT PUSH1 0x1F DUP3 ADD AND DUP3 ADD DUP1 PUSH1 0x40 MSTORE POP DUP2 ADD SWAP1 PUSH2 0x1B55 SWAP2 SWAP1 PUSH2 0x2E88 JUMP JUMPDEST PUSH28 0xFFFFFFFFFFFFFFFFFFFFFFFFFFFFFFFFFFFFFFFFFFFFFFFFFFFFFFFF NOT AND EQ PUSH2 0x1BAC JUMP JUMPDEST PUSH1 0x0 PUSH20 0xFFFFFFFFFFFFFFFFFFFFFFFFFFFFFFFFFFFFFFFF AND DUP6 PUSH20 0xFFFFFFFFFFFFFFFFFFFFFFFFFFFFFFFFFFFFFFFF AND EQ ISZERO JUMPDEST PUSH2 0x1BEB JUMPI PUSH1 0x40 MLOAD PUSH32 0x8C379A000000000000000000000000000000000000000000000000000000000 DUP2 MSTORE PUSH1 0x4 ADD PUSH2 0x1BE2 SWAP1 PUSH2 0x2F01 JUMP JUMPDEST PUSH1 0x40 MLOAD DUP1 SWAP2 SUB SWAP1 REVERT JUMPDEST POP POP POP POP POP POP JUMP JUMPDEST PUSH2 0x1BFB PUSH2 0x1D0F JUMP JUMPDEST PUSH20 0xFFFFFFFFFFFFFFFFFFFFFFFFFFFFFFFFFFFFFFFF AND PUSH2 0x1C19 PUSH2 0x1511 JUMP JUMPDEST PUSH20 0xFFFFFFFFFFFFFFFFFFFFFFFFFFFFFFFFFFFFFFFF AND EQ PUSH2 0x1C6F JUMPI PUSH1 0x40 MLOAD PUSH32 0x8C379A000000000000000000000000000000000000000000000000000000000 DUP2 MSTORE PUSH1 0x4 ADD PUSH2 0x1C66 SWAP1 PUSH2 0x2B4B JUMP JUMPDEST PUSH1 0x40 MLOAD DUP1 SWAP2 SUB SWAP1 REVERT JUMPDEST PUSH1 0x0 PUSH20 0xFFFFFFFFFFFFFFFFFFFFFFFFFFFFFFFFFFFFFFFF AND DUP2 PUSH20 0xFFFFFFFFFFFFFFFFFFFFFFFFFFFFFFFFFFFFFFFF AND EQ ISZERO PUSH2 0x1CDF JUMPI PUSH1 0x40 MLOAD PUSH32 0x8C379A000000000000000000000000000000000000000000000000000000000 DUP2 MSTORE PUSH1 0x4 ADD PUSH2 0x1CD6 SWAP1 PUSH2 0x3116 JUMP JUMPDEST PUSH1 0x40 MLOAD DUP1 SWAP2 SUB SWAP1 REVERT JUMPDEST PUSH2 0x1CE8 DUP2 PUSH2 0x1FB6 JUMP JUMPDEST POP JUMP JUMPDEST PUSH32 0x0 DUP2 JUMP JUMPDEST PUSH1 0x0 CALLER SWAP1 POP SWAP1 JUMP JUMPDEST DUP2 PUSH1 0x0 DUP1 DUP7 PUSH20 0xFFFFFFFFFFFFFFFFFFFFFFFFFFFFFFFFFFFFFFFF AND PUSH20 0xFFFFFFFFFFFFFFFFFFFFFFFFFFFFFFFFFFFFFFFF AND DUP2 MSTORE PUSH1 0x20 ADD SWAP1 DUP2 MSTORE PUSH1 0x20 ADD PUSH1 0x0 KECCAK256 PUSH1 0x0 DUP6 DUP2 MSTORE PUSH1 0x20 ADD SWAP1 DUP2 MSTORE PUSH1 0x20 ADD PUSH1 0x0 KECCAK256 PUSH1 0x0 DUP3 DUP3 SLOAD PUSH2 0x1D76 SWAP2 SWAP1 PUSH2 0x2CD5 JUMP JUMPDEST SWAP3 POP POP DUP2 SWAP1 SSTORE POP DUP4 PUSH20 0xFFFFFFFFFFFFFFFFFFFFFFFFFFFFFFFFFFFFFFFF AND PUSH1 0x0 PUSH20 0xFFFFFFFFFFFFFFFFFFFFFFFFFFFFFFFFFFFFFFFF AND CALLER PUSH20 0xFFFFFFFFFFFFFFFFFFFFFFFFFFFFFFFFFFFFFFFF AND PUSH32 0xC3D58168C5AE7397731D063D5BBF3D657854427343F4C083240F7AACAA2D0F62 DUP7 DUP7 PUSH1 0x40 MLOAD PUSH2 0x1DF4 SWAP3 SWAP2 SWAP1 PUSH2 0x301F JUMP JUMPDEST PUSH1 0x40 MLOAD DUP1 SWAP2 SUB SWAP1 LOG4 PUSH1 0x0 DUP5 PUSH20 0xFFFFFFFFFFFFFFFFFFFFFFFFFFFFFFFFFFFFFFFF AND EXTCODESIZE EQ PUSH2 0x1EEC JUMPI PUSH4 0xF23A6E61 PUSH1 0xE0 SHL PUSH28 0xFFFFFFFFFFFFFFFFFFFFFFFFFFFFFFFFFFFFFFFFFFFFFFFFFFFFFFFF NOT AND DUP5 PUSH20 0xFFFFFFFFFFFFFFFFFFFFFFFFFFFFFFFFFFFFFFFF AND PUSH4 0xF23A6E61 CALLER PUSH1 0x0 DUP8 DUP8 DUP8 PUSH1 0x40 MLOAD DUP7 PUSH4 0xFFFFFFFF AND PUSH1 0xE0 SHL DUP2 MSTORE PUSH1 0x4 ADD PUSH2 0x1E84 SWAP6 SWAP5 SWAP4 SWAP3 SWAP2 SWAP1 PUSH2 0x317A JUMP JUMPDEST PUSH1 0x20 PUSH1 0x40 MLOAD DUP1 DUP4 SUB DUP2 PUSH1 0x0 DUP8 GAS CALL ISZERO DUP1 ISZERO PUSH2 0x1EA3 JUMPI RETURNDATASIZE PUSH1 0x0 DUP1 RETURNDATACOPY RETURNDATASIZE PUSH1 0x0 REVERT JUMPDEST POP POP POP POP PUSH1 0x40 MLOAD RETURNDATASIZE PUSH1 0x1F NOT PUSH1 0x1F DUP3 ADD AND DUP3 ADD DUP1 PUSH1 0x40 MSTORE POP DUP2 ADD SWAP1 PUSH2 0x1EC7 SWAP2 SWAP1 PUSH2 0x2E88 JUMP JUMPDEST PUSH28 0xFFFFFFFFFFFFFFFFFFFFFFFFFFFFFFFFFFFFFFFFFFFFFFFFFFFFFFFF NOT AND EQ PUSH2 0x1F1E JUMP JUMPDEST PUSH1 0x0 PUSH20 0xFFFFFFFFFFFFFFFFFFFFFFFFFFFFFFFFFFFFFFFF AND DUP5 PUSH20 0xFFFFFFFFFFFFFFFFFFFFFFFFFFFFFFFFFFFFFFFF AND EQ ISZERO JUMPDEST PUSH2 0x1F5D JUMPI PUSH1 0x40 MLOAD PUSH32 0x8C379A000000000000000000000000000000000000000000000000000000000 DUP2 MSTORE PUSH1 0x4 ADD PUSH2 0x1F54 SWAP1 PUSH2 0x2F01 JUMP JUMPDEST PUSH1 0x40 MLOAD DUP1 SWAP2 SUB SWAP1 REVERT JUMPDEST POP POP POP POP JUMP JUMPDEST PUSH1 0x0 DUP1 PUSH1 0x0 DUP1 PUSH1 0x0 DUP6 DUP8 GAS CALL SWAP1 POP DUP1 PUSH2 0x1FB1 JUMPI PUSH1 0x40 MLOAD PUSH32 0x8C379A000000000000000000000000000000000000000000000000000000000 DUP2 MSTORE PUSH1 0x4 ADD PUSH2 0x1FA8 SWAP1 PUSH2 0x3220 JUMP JUMPDEST PUSH1 0x40 MLOAD DUP1 SWAP2 SUB SWAP1 REVERT JUMPDEST POP POP POP JUMP JUMPDEST PUSH1 0x0 PUSH1 0x2 PUSH1 0x0 SWAP1 SLOAD SWAP1 PUSH2 0x100 EXP SWAP1 DIV PUSH20 0xFFFFFFFFFFFFFFFFFFFFFFFFFFFFFFFFFFFFFFFF AND SWAP1 POP DUP2 PUSH1 0x2 PUSH1 0x0 PUSH2 0x100 EXP DUP2 SLOAD DUP2 PUSH20 0xFFFFFFFFFFFFFFFFFFFFFFFFFFFFFFFFFFFFFFFF MUL NOT AND SWAP1 DUP4 PUSH20 0xFFFFFFFFFFFFFFFFFFFFFFFFFFFFFFFFFFFFFFFF AND MUL OR SWAP1 SSTORE POP DUP2 PUSH20 0xFFFFFFFFFFFFFFFFFFFFFFFFFFFFFFFFFFFFFFFF AND DUP2 PUSH20 0xFFFFFFFFFFFFFFFFFFFFFFFFFFFFFFFFFFFFFFFF AND PUSH32 0x8BE0079C531659141344CD1FD0A4F28419497F9722A3DAAFE3B4186F6B6457E0 PUSH1 0x40 MLOAD PUSH1 0x40 MLOAD DUP1 SWAP2 SUB SWAP1 LOG3 POP POP JUMP JUMPDEST DUP3 DUP1 SLOAD PUSH2 0x2088 SWAP1 PUSH2 0x2ACD JUMP JUMPDEST SWAP1 PUSH1 0x0 MSTORE PUSH1 0x20 PUSH1 0x0 KECCAK256 SWAP1 PUSH1 0x1F ADD PUSH1 0x20 SWAP1 DIV DUP2 ADD SWAP3 DUP3 PUSH2 0x20AA JUMPI PUSH1 0x0 DUP6 SSTORE PUSH2 0x20F1 JUMP JUMPDEST DUP3 PUSH1 0x1F LT PUSH2 0x20C3 JUMPI DUP1 MLOAD PUSH1 0xFF NOT AND DUP4 DUP1 ADD OR DUP6 SSTORE PUSH2 0x20F1 JUMP JUMPDEST DUP3 DUP1 ADD PUSH1 0x1 ADD DUP6 SSTORE DUP3 ISZERO PUSH2 0x20F1 JUMPI SWAP2 DUP3 ADD JUMPDEST DUP3 DUP2 GT ISZERO PUSH2 0x20F0 JUMPI DUP3 MLOAD DUP3 SSTORE SWAP2 PUSH1 0x20 ADD SWAP2 SWAP1 PUSH1 0x1 ADD SWAP1 PUSH2 0x20D5 JUMP JUMPDEST JUMPDEST POP SWAP1 POP PUSH2 0x20FE SWAP2 SWAP1 PUSH2 0x2102 JUMP JUMPDEST POP SWAP1 JUMP JUMPDEST JUMPDEST DUP1 DUP3 GT ISZERO PUSH2 0x211B JUMPI PUSH1 0x0 DUP2 PUSH1 0x0 SWAP1 SSTORE POP PUSH1 0x1 ADD PUSH2 0x2103 JUMP JUMPDEST POP SWAP1 JUMP JUMPDEST PUSH1 0x0 PUSH1 0x40 MLOAD SWAP1 POP SWAP1 JUMP JUMPDEST PUSH1 0x0 DUP1 REVERT JUMPDEST PUSH1 0x0 DUP1 REVERT JUMPDEST PUSH1 0x0 PUSH20 0xFFFFFFFFFFFFFFFFFFFFFFFFFFFFFFFFFFFFFFFF DUP3 AND SWAP1 POP SWAP2 SWAP1 POP JUMP JUMPDEST PUSH1 0x0 PUSH2 0x215E DUP3 PUSH2 0x2133 JUMP JUMPDEST SWAP1 POP SWAP2 SWAP1 POP JUMP JUMPDEST PUSH2 0x216E DUP2 PUSH2 0x2153 JUMP JUMPDEST DUP2 EQ PUSH2 0x2179 JUMPI PUSH1 0x0 DUP1 REVERT JUMPDEST POP JUMP JUMPDEST PUSH1 0x0 DUP2 CALLDATALOAD SWAP1 POP PUSH2 0x218B DUP2 PUSH2 0x2165 JUMP JUMPDEST SWAP3 SWAP2 POP POP JUMP JUMPDEST PUSH1 0x0 DUP2 SWAP1 POP SWAP2 SWAP1 POP JUMP JUMPDEST PUSH2 0x21A4 DUP2 PUSH2 0x2191 JUMP JUMPDEST DUP2 EQ PUSH2 0x21AF JUMPI PUSH1 0x0 DUP1 REVERT JUMPDEST POP JUMP JUMPDEST PUSH1 0x0 DUP2 CALLDATALOAD SWAP1 POP PUSH2 0x21C1 DUP2 PUSH2 0x219B JUMP JUMPDEST SWAP3 SWAP2 POP POP JUMP JUMPDEST PUSH1 0x0 DUP1 PUSH1 0x40 DUP4 DUP6 SUB SLT ISZERO PUSH2 0x21DE JUMPI PUSH2 0x21DD PUSH2 0x2129 JUMP JUMPDEST JUMPDEST PUSH1 0x0 PUSH2 0x21EC DUP6 DUP3 DUP7 ADD PUSH2 0x217C JUMP JUMPDEST SWAP3 POP POP PUSH1 0x20 PUSH2 0x21FD DUP6 DUP3 DUP7 ADD PUSH2 0x21B2 JUMP JUMPDEST SWAP2 POP POP SWAP3 POP SWAP3 SWAP1 POP JUMP JUMPDEST PUSH2 0x2210 DUP2 PUSH2 0x2191 JUMP JUMPDEST DUP3 MSTORE POP POP JUMP JUMPDEST PUSH1 0x0 PUSH1 0x20 DUP3 ADD SWAP1 POP PUSH2 0x222B PUSH1 0x0 DUP4 ADD DUP5 PUSH2 0x2207 JUMP JUMPDEST SWAP3 SWAP2 POP POP JUMP JUMPDEST PUSH1 0x0 PUSH32 0xFFFFFFFF00000000000000000000000000000000000000000000000000000000 DUP3 AND SWAP1 POP SWAP2 SWAP1 POP JUMP JUMPDEST PUSH2 0x2266 DUP2 PUSH2 0x2231 JUMP JUMPDEST DUP2 EQ PUSH2 0x2271 JUMPI PUSH1 0x0 DUP1 REVERT JUMPDEST POP JUMP JUMPDEST PUSH1 0x0 DUP2 CALLDATALOAD SWAP1 POP PUSH2 0x2283 DUP2 PUSH2 0x225D JUMP JUMPDEST SWAP3 SWAP2 POP POP JUMP JUMPDEST PUSH1 0x0 PUSH1 0x20 DUP3 DUP5 SUB SLT ISZERO PUSH2 0x229F JUMPI PUSH2 0x229E PUSH2 0x2129 JUMP JUMPDEST JUMPDEST PUSH1 0x0 PUSH2 0x22AD DUP5 DUP3 DUP6 ADD PUSH2 0x2274 JUMP JUMPDEST SWAP2 POP POP SWAP3 SWAP2 POP POP JUMP JUMPDEST PUSH1 0x0 DUP2 ISZERO ISZERO SWAP1 POP SWAP2 SWAP1 POP JUMP JUMPDEST PUSH2 0x22CB DUP2 PUSH2 0x22B6 JUMP JUMPDEST DUP3 MSTORE POP POP JUMP JUMPDEST PUSH1 0x0 PUSH1 0x20 DUP3 ADD SWAP1 POP PUSH2 0x22E6 PUSH1 0x0 DUP4 ADD DUP5 PUSH2 0x22C2 JUMP JUMPDEST SWAP3 SWAP2 POP POP JUMP JUMPDEST PUSH1 0x0 DUP2 MLOAD SWAP1 POP SWAP2 SWAP1 POP JUMP JUMPDEST PUSH1 0x0 DUP3 DUP3 MSTORE PUSH1 0x20 DUP3 ADD SWAP1 POP SWAP3 SWAP2 POP POP JUMP JUMPDEST PUSH1 0x0 JUMPDEST DUP4 DUP2 LT ISZERO PUSH2 0x2326 JUMPI DUP1 DUP3 ADD MLOAD DUP2 DUP5 ADD MSTORE PUSH1 0x20 DUP2 ADD SWAP1 POP PUSH2 0x230B JUMP JUMPDEST DUP4 DUP2 GT ISZERO PUSH2 0x2335 JUMPI PUSH1 0x0 DUP5 DUP5 ADD MSTORE JUMPDEST POP POP POP POP JUMP JUMPDEST PUSH1 0x0 PUSH1 0x1F NOT PUSH1 0x1F DUP4 ADD AND SWAP1 POP SWAP2 SWAP1 POP JUMP JUMPDEST PUSH1 0x0 PUSH2 0x2357 DUP3 PUSH2 0x22EC JUMP JUMPDEST PUSH2 0x2361 DUP2 DUP6 PUSH2 0x22F7 JUMP JUMPDEST SWAP4 POP PUSH2 0x2371 DUP2 DUP6 PUSH1 0x20 DUP7 ADD PUSH2 0x2308 JUMP JUMPDEST PUSH2 0x237A DUP2 PUSH2 0x233B JUMP JUMPDEST DUP5 ADD SWAP2 POP POP SWAP3 SWAP2 POP POP JUMP JUMPDEST PUSH1 0x0 PUSH1 0x20 DUP3 ADD SWAP1 POP DUP2 DUP2 SUB PUSH1 0x0 DUP4 ADD MSTORE PUSH2 0x239F DUP2 DUP5 PUSH2 0x234C JUMP JUMPDEST SWAP1 POP SWAP3 SWAP2 POP POP JUMP JUMPDEST PUSH1 0x0 DUP1 REVERT JUMPDEST PUSH1 0x0 DUP1 REVERT JUMPDEST PUSH32 0x4E487B7100000000000000000000000000000000000000000000000000000000 PUSH1 0x0 MSTORE PUSH1 0x41 PUSH1 0x4 MSTORE PUSH1 0x24 PUSH1 0x0 REVERT JUMPDEST PUSH2 0x23E9 DUP3 PUSH2 0x233B JUMP JUMPDEST DUP2 ADD DUP2 DUP2 LT PUSH8 0xFFFFFFFFFFFFFFFF DUP3 GT OR ISZERO PUSH2 0x2408 JUMPI PUSH2 0x2407 PUSH2 0x23B1 JUMP JUMPDEST JUMPDEST DUP1 PUSH1 0x40 MSTORE POP POP POP JUMP JUMPDEST PUSH1 0x0 PUSH2 0x241B PUSH2 0x211F JUMP JUMPDEST SWAP1 POP PUSH2 0x2427 DUP3 DUP3 PUSH2 0x23E0 JUMP JUMPDEST SWAP2 SWAP1 POP JUMP JUMPDEST PUSH1 0x0 PUSH8 0xFFFFFFFFFFFFFFFF DUP3 GT ISZERO PUSH2 0x2447 JUMPI PUSH2 0x2446 PUSH2 0x23B1 JUMP JUMPDEST JUMPDEST PUSH2 0x2450 DUP3 PUSH2 0x233B JUMP JUMPDEST SWAP1 POP PUSH1 0x20 DUP2 ADD SWAP1 POP SWAP2 SWAP1 POP JUMP JUMPDEST DUP3 DUP2 DUP4 CALLDATACOPY PUSH1 0x0 DUP4 DUP4 ADD MSTORE POP POP POP JUMP JUMPDEST PUSH1 0x0 PUSH2 0x247F PUSH2 0x247A DUP5 PUSH2 0x242C JUMP JUMPDEST PUSH2 0x2411 JUMP JUMPDEST SWAP1 POP DUP3 DUP2 MSTORE PUSH1 0x20 DUP2 ADD DUP5 DUP5 DUP5 ADD GT ISZERO PUSH2 0x249B JUMPI PUSH2 0x249A PUSH2 0x23AC JUMP JUMPDEST JUMPDEST PUSH2 0x24A6 DUP5 DUP3 DUP6 PUSH2 0x245D JUMP JUMPDEST POP SWAP4 SWAP3 POP POP POP JUMP JUMPDEST PUSH1 0x0 DUP3 PUSH1 0x1F DUP4 ADD SLT PUSH2 0x24C3 JUMPI PUSH2 0x24C2 PUSH2 0x23A7 JUMP JUMPDEST JUMPDEST DUP2 CALLDATALOAD PUSH2 0x24D3 DUP5 DUP3 PUSH1 0x20 DUP7 ADD PUSH2 0x246C JUMP JUMPDEST SWAP2 POP POP SWAP3 SWAP2 POP POP JUMP JUMPDEST PUSH1 0x0 DUP1 PUSH1 0x40 DUP4 DUP6 SUB SLT ISZERO PUSH2 0x24F3 JUMPI PUSH2 0x24F2 PUSH2 0x2129 JUMP JUMPDEST JUMPDEST PUSH1 0x0 DUP4 ADD CALLDATALOAD PUSH8 0xFFFFFFFFFFFFFFFF DUP2 GT ISZERO PUSH2 0x2511 JUMPI PUSH2 0x2510 PUSH2 0x212E JUMP JUMPDEST JUMPDEST PUSH2 0x251D DUP6 DUP3 DUP7 ADD PUSH2 0x24AE JUMP JUMPDEST SWAP3 POP POP PUSH1 0x20 PUSH2 0x252E DUP6 DUP3 DUP7 ADD PUSH2 0x21B2 JUMP JUMPDEST SWAP2 POP POP SWAP3 POP SWAP3 SWAP1 POP JUMP JUMPDEST PUSH1 0x0 PUSH1 0x20 DUP3 DUP5 SUB SLT ISZERO PUSH2 0x254E JUMPI PUSH2 0x254D PUSH2 0x2129 JUMP JUMPDEST JUMPDEST PUSH1 0x0 PUSH2 0x255C DUP5 DUP3 DUP6 ADD PUSH2 0x217C JUMP JUMPDEST SWAP2 POP POP SWAP3 SWAP2 POP POP JUMP JUMPDEST PUSH1 0x0 PUSH1 0x20 DUP3 DUP5 SUB SLT ISZERO PUSH2 0x257B JUMPI PUSH2 0x257A PUSH2 0x2129 JUMP JUMPDEST JUMPDEST PUSH1 0x0 PUSH2 0x2589 DUP5 DUP3 DUP6 ADD PUSH2 0x21B2 JUMP JUMPDEST SWAP2 POP POP SWAP3 SWAP2 POP POP JUMP JUMPDEST PUSH1 0x0 DUP1 REVERT JUMPDEST PUSH1 0x0 DUP1 REVERT JUMPDEST PUSH1 0x0 DUP1 DUP4 PUSH1 0x1F DUP5 ADD SLT PUSH2 0x25B2 JUMPI PUSH2 0x25B1 PUSH2 0x23A7 JUMP JUMPDEST JUMPDEST DUP3 CALLDATALOAD SWAP1 POP PUSH8 0xFFFFFFFFFFFFFFFF DUP2 GT ISZERO PUSH2 0x25CF JUMPI PUSH2 0x25CE PUSH2 0x2592 JUMP JUMPDEST JUMPDEST PUSH1 0x20 DUP4 ADD SWAP2 POP DUP4 PUSH1 0x20 DUP3 MUL DUP4 ADD GT ISZERO PUSH2 0x25EB JUMPI PUSH2 0x25EA PUSH2 0x2597 JUMP JUMPDEST JUMPDEST SWAP3 POP SWAP3 SWAP1 POP JUMP JUMPDEST PUSH1 0x0 DUP1 DUP4 PUSH1 0x1F DUP5 ADD SLT PUSH2 0x2608 JUMPI PUSH2 0x2607 PUSH2 0x23A7 JUMP JUMPDEST JUMPDEST DUP3 CALLDATALOAD SWAP1 POP PUSH8 0xFFFFFFFFFFFFFFFF DUP2 GT ISZERO PUSH2 0x2625 JUMPI PUSH2 0x2624 PUSH2 0x2592 JUMP JUMPDEST JUMPDEST PUSH1 0x20 DUP4 ADD SWAP2 POP DUP4 PUSH1 0x1 DUP3 MUL DUP4 ADD GT ISZERO PUSH2 0x2641 JUMPI PUSH2 0x2640 PUSH2 0x2597 JUMP JUMPDEST JUMPDEST SWAP3 POP SWAP3 SWAP1 POP JUMP JUMPDEST PUSH1 0x0 DUP1 PUSH1 0x0 DUP1 PUSH1 0x0 DUP1 PUSH1 0x0 DUP1 PUSH1 0xA0 DUP10 DUP12 SUB SLT ISZERO PUSH2 0x2668 JUMPI PUSH2 0x2667 PUSH2 0x2129 JUMP JUMPDEST JUMPDEST PUSH1 0x0 PUSH2 0x2676 DUP12 DUP3 DUP13 ADD PUSH2 0x217C JUMP JUMPDEST SWAP9 POP POP PUSH1 0x20 PUSH2 0x2687 DUP12 DUP3 DUP13 ADD PUSH2 0x217C JUMP JUMPDEST SWAP8 POP POP PUSH1 0x40 DUP10 ADD CALLDATALOAD PUSH8 0xFFFFFFFFFFFFFFFF DUP2 GT ISZERO PUSH2 0x26A8 JUMPI PUSH2 0x26A7 PUSH2 0x212E JUMP JUMPDEST JUMPDEST PUSH2 0x26B4 DUP12 DUP3 DUP13 ADD PUSH2 0x259C JUMP JUMPDEST SWAP7 POP SWAP7 POP POP PUSH1 0x60 DUP10 ADD CALLDATALOAD PUSH8 0xFFFFFFFFFFFFFFFF DUP2 GT ISZERO PUSH2 0x26D7 JUMPI PUSH2 0x26D6 PUSH2 0x212E JUMP JUMPDEST JUMPDEST PUSH2 0x26E3 DUP12 DUP3 DUP13 ADD PUSH2 0x259C JUMP JUMPDEST SWAP5 POP SWAP5 POP POP PUSH1 0x80 DUP10 ADD CALLDATALOAD PUSH8 0xFFFFFFFFFFFFFFFF DUP2 GT ISZERO PUSH2 0x2706 JUMPI PUSH2 0x2705 PUSH2 0x212E JUMP JUMPDEST JUMPDEST PUSH2 0x2712 DUP12 DUP3 DUP13 ADD PUSH2 0x25F2 JUMP JUMPDEST SWAP3 POP SWAP3 POP POP SWAP3 SWAP6 SWAP9 POP SWAP3 SWAP6 SWAP9 SWAP1 SWAP4 SWAP7 POP JUMP JUMPDEST PUSH1 0x0 DUP1 PUSH1 0x0 PUSH1 0x60 DUP5 DUP7 SUB SLT ISZERO PUSH2 0x273D JUMPI PUSH2 0x273C PUSH2 0x2129 JUMP JUMPDEST JUMPDEST PUSH1 0x0 PUSH2 0x274B DUP7 DUP3 DUP8 ADD PUSH2 0x217C JUMP JUMPDEST SWAP4 POP POP PUSH1 0x20 PUSH2 0x275C DUP7 DUP3 DUP8 ADD PUSH2 0x21B2 JUMP JUMPDEST SWAP3 POP POP PUSH1 0x40 PUSH2 0x276D DUP7 DUP3 DUP8 ADD PUSH2 0x21B2 JUMP JUMPDEST SWAP2 POP POP SWAP3 POP SWAP3 POP SWAP3 JUMP JUMPDEST PUSH2 0x2780 DUP2 PUSH2 0x2153 JUMP JUMPDEST DUP3 MSTORE POP POP JUMP JUMPDEST PUSH1 0x0 PUSH1 0x20 DUP3 ADD SWAP1 POP PUSH2 0x279B PUSH1 0x0 DUP4 ADD DUP5 PUSH2 0x2777 JUMP JUMPDEST SWAP3 SWAP2 POP POP JUMP JUMPDEST PUSH1 0x0 DUP1 DUP4 PUSH1 0x1F DUP5 ADD SLT PUSH2 0x27B7 JUMPI PUSH2 0x27B6 PUSH2 0x23A7 JUMP JUMPDEST JUMPDEST DUP3 CALLDATALOAD SWAP1 POP PUSH8 0xFFFFFFFFFFFFFFFF DUP2 GT ISZERO PUSH2 0x27D4 JUMPI PUSH2 0x27D3 PUSH2 0x2592 JUMP JUMPDEST JUMPDEST PUSH1 0x20 DUP4 ADD SWAP2 POP DUP4 PUSH1 0x20 DUP3 MUL DUP4 ADD GT ISZERO PUSH2 0x27F0 JUMPI PUSH2 0x27EF PUSH2 0x2597 JUMP JUMPDEST JUMPDEST SWAP3 POP SWAP3 SWAP1 POP JUMP JUMPDEST PUSH1 0x0 DUP1 PUSH1 0x0 DUP1 PUSH1 0x40 DUP6 DUP8 SUB SLT ISZERO PUSH2 0x2811 JUMPI PUSH2 0x2810 PUSH2 0x2129 JUMP JUMPDEST JUMPDEST PUSH1 0x0 DUP6 ADD CALLDATALOAD PUSH8 0xFFFFFFFFFFFFFFFF DUP2 GT ISZERO PUSH2 0x282F JUMPI PUSH2 0x282E PUSH2 0x212E JUMP JUMPDEST JUMPDEST PUSH2 0x283B DUP8 DUP3 DUP9 ADD PUSH2 0x27A1 JUMP JUMPDEST SWAP5 POP SWAP5 POP POP PUSH1 0x20 DUP6 ADD CALLDATALOAD PUSH8 0xFFFFFFFFFFFFFFFF DUP2 GT ISZERO PUSH2 0x285E JUMPI PUSH2 0x285D PUSH2 0x212E JUMP JUMPDEST JUMPDEST PUSH2 0x286A DUP8 DUP3 DUP9 ADD PUSH2 0x259C JUMP JUMPDEST SWAP3 POP SWAP3 POP POP SWAP3 SWAP6 SWAP2 SWAP5 POP SWAP3 POP JUMP JUMPDEST PUSH1 0x0 DUP2 MLOAD SWAP1 POP SWAP2 SWAP1 POP JUMP JUMPDEST PUSH1 0x0 DUP3 DUP3 MSTORE PUSH1 0x20 DUP3 ADD SWAP1 POP SWAP3 SWAP2 POP POP JUMP JUMPDEST PUSH1 0x0 DUP2 SWAP1 POP PUSH1 0x20 DUP3 ADD SWAP1 POP SWAP2 SWAP1 POP JUMP JUMPDEST PUSH2 0x28AD DUP2 PUSH2 0x2191 JUMP JUMPDEST DUP3 MSTORE POP POP JUMP JUMPDEST PUSH1 0x0 PUSH2 0x28BF DUP4 DUP4 PUSH2 0x28A4 JUMP JUMPDEST PUSH1 0x20 DUP4 ADD SWAP1 POP SWAP3 SWAP2 POP POP JUMP JUMPDEST PUSH1 0x0 PUSH1 0x20 DUP3 ADD SWAP1 POP SWAP2 SWAP1 POP JUMP JUMPDEST PUSH1 0x0 PUSH2 0x28E3 DUP3 PUSH2 0x2878 JUMP JUMPDEST PUSH2 0x28ED DUP2 DUP6 PUSH2 0x2883 JUMP JUMPDEST SWAP4 POP PUSH2 0x28F8 DUP4 PUSH2 0x2894 JUMP JUMPDEST DUP1 PUSH1 0x0 JUMPDEST DUP4 DUP2 LT ISZERO PUSH2 0x2929 JUMPI DUP2 MLOAD PUSH2 0x2910 DUP9 DUP3 PUSH2 0x28B3 JUMP JUMPDEST SWAP8 POP PUSH2 0x291B DUP4 PUSH2 0x28CB JUMP JUMPDEST SWAP3 POP POP PUSH1 0x1 DUP2 ADD SWAP1 POP PUSH2 0x28FC JUMP JUMPDEST POP DUP6 SWAP4 POP POP POP POP SWAP3 SWAP2 POP POP JUMP JUMPDEST PUSH1 0x0 PUSH1 0x20 DUP3 ADD SWAP1 POP DUP2 DUP2 SUB PUSH1 0x0 DUP4 ADD MSTORE PUSH2 0x2950 DUP2 DUP5 PUSH2 0x28D8 JUMP JUMPDEST SWAP1 POP SWAP3 SWAP2 POP POP JUMP JUMPDEST PUSH2 0x2961 DUP2 PUSH2 0x22B6 JUMP JUMPDEST DUP2 EQ PUSH2 0x296C JUMPI PUSH1 0x0 DUP1 REVERT JUMPDEST POP JUMP JUMPDEST PUSH1 0x0 DUP2 CALLDATALOAD SWAP1 POP PUSH2 0x297E DUP2 PUSH2 0x2958 JUMP JUMPDEST SWAP3 SWAP2 POP POP JUMP JUMPDEST PUSH1 0x0 DUP1 PUSH1 0x40 DUP4 DUP6 SUB SLT ISZERO PUSH2 0x299B JUMPI PUSH2 0x299A PUSH2 0x2129 JUMP JUMPDEST JUMPDEST PUSH1 0x0 PUSH2 0x29A9 DUP6 DUP3 DUP7 ADD PUSH2 0x217C JUMP JUMPDEST SWAP3 POP POP PUSH1 0x20 PUSH2 0x29BA DUP6 DUP3 DUP7 ADD PUSH2 0x296F JUMP JUMPDEST SWAP2 POP POP SWAP3 POP SWAP3 SWAP1 POP JUMP JUMPDEST PUSH1 0x0 DUP1 PUSH1 0x40 DUP4 DUP6 SUB SLT ISZERO PUSH2 0x29DB JUMPI PUSH2 0x29DA PUSH2 0x2129 JUMP JUMPDEST JUMPDEST PUSH1 0x0 PUSH2 0x29E9 DUP6 DUP3 DUP7 ADD PUSH2 0x217C JUMP JUMPDEST SWAP3 POP POP PUSH1 0x20 PUSH2 0x29FA DUP6 DUP3 DUP7 ADD PUSH2 0x217C JUMP JUMPDEST SWAP2 POP POP SWAP3 POP SWAP3 SWAP1 POP JUMP JUMPDEST PUSH1 0x0 DUP1 PUSH1 0x0 DUP1 PUSH1 0x0 DUP1 PUSH1 0xA0 DUP8 DUP10 SUB SLT ISZERO PUSH2 0x2A21 JUMPI PUSH2 0x2A20 PUSH2 0x2129 JUMP JUMPDEST JUMPDEST PUSH1 0x0 PUSH2 0x2A2F DUP10 DUP3 DUP11 ADD PUSH2 0x217C JUMP JUMPDEST SWAP7 POP POP PUSH1 0x20 PUSH2 0x2A40 DUP10 DUP3 DUP11 ADD PUSH2 0x217C JUMP JUMPDEST SWAP6 POP POP PUSH1 0x40 PUSH2 0x2A51 DUP10 DUP3 DUP11 ADD PUSH2 0x21B2 JUMP JUMPDEST SWAP5 POP POP PUSH1 0x60 PUSH2 0x2A62 DUP10 DUP3 DUP11 ADD PUSH2 0x21B2 JUMP JUMPDEST SWAP4 POP POP PUSH1 0x80 DUP8 ADD CALLDATALOAD PUSH8 0xFFFFFFFFFFFFFFFF DUP2 GT ISZERO PUSH2 0x2A83 JUMPI PUSH2 0x2A82 PUSH2 0x212E JUMP JUMPDEST JUMPDEST PUSH2 0x2A8F DUP10 DUP3 DUP11 ADD PUSH2 0x25F2 JUMP JUMPDEST SWAP3 POP SWAP3 POP POP SWAP3 SWAP6 POP SWAP3 SWAP6 POP SWAP3 SWAP6 JUMP JUMPDEST PUSH32 0x4E487B7100000000000000000000000000000000000000000000000000000000 PUSH1 0x0 MSTORE PUSH1 0x22 PUSH1 0x4 MSTORE PUSH1 0x24 PUSH1 0x0 REVERT JUMPDEST PUSH1 0x0 PUSH1 0x2 DUP3 DIV SWAP1 POP PUSH1 0x1 DUP3 AND DUP1 PUSH2 0x2AE5 JUMPI PUSH1 0x7F DUP3 AND SWAP2 POP JUMPDEST PUSH1 0x20 DUP3 LT DUP2 EQ ISZERO PUSH2 0x2AF9 JUMPI PUSH2 0x2AF8 PUSH2 0x2A9E JUMP JUMPDEST JUMPDEST POP SWAP2 SWAP1 POP JUMP JUMPDEST PUSH32 0x4F776E61626C653A2063616C6C6572206973206E6F7420746865206F776E6572 PUSH1 0x0 DUP3 ADD MSTORE POP JUMP JUMPDEST PUSH1 0x0 PUSH2 0x2B35 PUSH1 0x20 DUP4 PUSH2 0x22F7 JUMP JUMPDEST SWAP2 POP PUSH2 0x2B40 DUP3 PUSH2 0x2AFF JUMP JUMPDEST PUSH1 0x20 DUP3 ADD SWAP1 POP SWAP2 SWAP1 POP JUMP JUMPDEST PUSH1 0x0 PUSH1 0x20 DUP3 ADD SWAP1 POP DUP2 DUP2 SUB PUSH1 0x0 DUP4 ADD MSTORE PUSH2 0x2B64 DUP2 PUSH2 0x2B28 JUMP JUMPDEST SWAP1 POP SWAP2 SWAP1 POP JUMP JUMPDEST PUSH32 0x4C454E4754485F4D49534D415443480000000000000000000000000000000000 PUSH1 0x0 DUP3 ADD MSTORE POP JUMP JUMPDEST PUSH1 0x0 PUSH2 0x2BA1 PUSH1 0xF DUP4 PUSH2 0x22F7 JUMP JUMPDEST SWAP2 POP PUSH2 0x2BAC DUP3 PUSH2 0x2B6B JUMP JUMPDEST PUSH1 0x20 DUP3 ADD SWAP1 POP SWAP2 SWAP1 POP JUMP JUMPDEST PUSH1 0x0 PUSH1 0x20 DUP3 ADD SWAP1 POP DUP2 DUP2 SUB PUSH1 0x0 DUP4 ADD MSTORE PUSH2 0x2BD0 DUP2 PUSH2 0x2B94 JUMP JUMPDEST SWAP1 POP SWAP2 SWAP1 POP JUMP JUMPDEST PUSH32 0x4E4F545F415554484F52495A4544000000000000000000000000000000000000 PUSH1 0x0 DUP3 ADD MSTORE POP JUMP JUMPDEST PUSH1 0x0 PUSH2 0x2C0D PUSH1 0xE DUP4 PUSH2 0x22F7 JUMP JUMPDEST SWAP2 POP PUSH2 0x2C18 DUP3 PUSH2 0x2BD7 JUMP JUMPDEST PUSH1 0x20 DUP3 ADD SWAP1 POP SWAP2 SWAP1 POP JUMP JUMPDEST PUSH1 0x0 PUSH1 0x20 DUP3 ADD SWAP1 POP DUP2 DUP2 SUB PUSH1 0x0 DUP4 ADD MSTORE PUSH2 0x2C3C DUP2 PUSH2 0x2C00 JUMP JUMPDEST SWAP1 POP SWAP2 SWAP1 POP JUMP JUMPDEST PUSH32 0x4E487B7100000000000000000000000000000000000000000000000000000000 PUSH1 0x0 MSTORE PUSH1 0x32 PUSH1 0x4 MSTORE PUSH1 0x24 PUSH1 0x0 REVERT JUMPDEST PUSH32 0x4E487B7100000000000000000000000000000000000000000000000000000000 PUSH1 0x0 MSTORE PUSH1 0x11 PUSH1 0x4 MSTORE PUSH1 0x24 PUSH1 0x0 REVERT JUMPDEST PUSH1 0x0 PUSH2 0x2CAC DUP3 PUSH2 0x2191 JUMP JUMPDEST SWAP2 POP PUSH2 0x2CB7 DUP4 PUSH2 0x2191 JUMP JUMPDEST SWAP3 POP DUP3 DUP3 LT ISZERO PUSH2 0x2CCA JUMPI PUSH2 0x2CC9 PUSH2 0x2C72 JUMP JUMPDEST JUMPDEST DUP3 DUP3 SUB SWAP1 POP SWAP3 SWAP2 POP POP JUMP JUMPDEST PUSH1 0x0 PUSH2 0x2CE0 DUP3 PUSH2 0x2191 JUMP JUMPDEST SWAP2 POP PUSH2 0x2CEB DUP4 PUSH2 0x2191 JUMP JUMPDEST SWAP3 POP DUP3 PUSH32 0xFFFFFFFFFFFFFFFFFFFFFFFFFFFFFFFFFFFFFFFFFFFFFFFFFFFFFFFFFFFFFFFF SUB DUP3 GT ISZERO PUSH2 0x2D20 JUMPI PUSH2 0x2D1F PUSH2 0x2C72 JUMP JUMPDEST JUMPDEST DUP3 DUP3 ADD SWAP1 POP SWAP3 SWAP2 POP POP JUMP JUMPDEST PUSH1 0x0 DUP1 REVERT JUMPDEST PUSH1 0x0 PUSH2 0x2D3C DUP4 DUP6 PUSH2 0x2883 JUMP JUMPDEST SWAP4 POP PUSH32 0x7FFFFFFFFFFFFFFFFFFFFFFFFFFFFFFFFFFFFFFFFFFFFFFFFFFFFFFFFFFFFFF DUP4 GT ISZERO PUSH2 0x2D6F JUMPI PUSH2 0x2D6E PUSH2 0x2D2B JUMP JUMPDEST JUMPDEST PUSH1 0x20 DUP4 MUL SWAP3 POP PUSH2 0x2D80 DUP4 DUP6 DUP5 PUSH2 0x245D JUMP JUMPDEST DUP3 DUP5 ADD SWAP1 POP SWAP4 SWAP3 POP POP POP JUMP JUMPDEST PUSH1 0x0 PUSH1 0x40 DUP3 ADD SWAP1 POP DUP2 DUP2 SUB PUSH1 0x0 DUP4 ADD MSTORE PUSH2 0x2DA7 DUP2 DUP7 DUP9 PUSH2 0x2D30 JUMP JUMPDEST SWAP1 POP DUP2 DUP2 SUB PUSH1 0x20 DUP4 ADD MSTORE PUSH2 0x2DBC DUP2 DUP5 DUP7 PUSH2 0x2D30 JUMP JUMPDEST SWAP1 POP SWAP6 SWAP5 POP POP POP POP POP JUMP JUMPDEST PUSH1 0x0 DUP3 DUP3 MSTORE PUSH1 0x20 DUP3 ADD SWAP1 POP SWAP3 SWAP2 POP POP JUMP JUMPDEST PUSH1 0x0 PUSH2 0x2DE4 DUP4 DUP6 PUSH2 0x2DC7 JUMP JUMPDEST SWAP4 POP PUSH2 0x2DF1 DUP4 DUP6 DUP5 PUSH2 0x245D JUMP JUMPDEST PUSH2 0x2DFA DUP4 PUSH2 0x233B JUMP JUMPDEST DUP5 ADD SWAP1 POP SWAP4 SWAP3 POP POP POP JUMP JUMPDEST PUSH1 0x0 PUSH1 0xA0 DUP3 ADD SWAP1 POP PUSH2 0x2E1A PUSH1 0x0 DUP4 ADD DUP12 PUSH2 0x2777 JUMP JUMPDEST PUSH2 0x2E27 PUSH1 0x20 DUP4 ADD DUP11 PUSH2 0x2777 JUMP JUMPDEST DUP2 DUP2 SUB PUSH1 0x40 DUP4 ADD MSTORE PUSH2 0x2E3A DUP2 DUP9 DUP11 PUSH2 0x2D30 JUMP JUMPDEST SWAP1 POP DUP2 DUP2 SUB PUSH1 0x60 DUP4 ADD MSTORE PUSH2 0x2E4F DUP2 DUP7 DUP9 PUSH2 0x2D30 JUMP JUMPDEST SWAP1 POP DUP2 DUP2 SUB PUSH1 0x80 DUP4 ADD MSTORE PUSH2 0x2E64 DUP2 DUP5 DUP7 PUSH2 0x2DD8 JUMP JUMPDEST SWAP1 POP SWAP10 SWAP9 POP POP POP POP POP POP POP POP POP JUMP JUMPDEST PUSH1 0x0 DUP2 MLOAD SWAP1 POP PUSH2 0x2E82 DUP2 PUSH2 0x225D JUMP JUMPDEST SWAP3 SWAP2 POP POP JUMP JUMPDEST PUSH1 0x0 PUSH1 0x20 DUP3 DUP5 SUB SLT ISZERO PUSH2 0x2E9E JUMPI PUSH2 0x2E9D PUSH2 0x2129 JUMP JUMPDEST JUMPDEST PUSH1 0x0 PUSH2 0x2EAC DUP5 DUP3 DUP6 ADD PUSH2 0x2E73 JUMP JUMPDEST SWAP2 POP POP SWAP3 SWAP2 POP POP JUMP JUMPDEST PUSH32 0x554E534146455F524543495049454E5400000000000000000000000000000000 PUSH1 0x0 DUP3 ADD MSTORE POP JUMP JUMPDEST PUSH1 0x0 PUSH2 0x2EEB PUSH1 0x10 DUP4 PUSH2 0x22F7 JUMP JUMPDEST SWAP2 POP PUSH2 0x2EF6 DUP3 PUSH2 0x2EB5 JUMP JUMPDEST PUSH1 0x20 DUP3 ADD SWAP1 POP SWAP2 SWAP1 POP JUMP JUMPDEST PUSH1 0x0 PUSH1 0x20 DUP3 ADD SWAP1 POP DUP2 DUP2 SUB PUSH1 0x0 DUP4 ADD MSTORE PUSH2 0x2F1A DUP2 PUSH2 0x2EDE JUMP JUMPDEST SWAP1 POP SWAP2 SWAP1 POP JUMP JUMPDEST PUSH32 0x434343323A204E6F6E6578697374656E7420746F6B656E2049442E0000000000 PUSH1 0x0 DUP3 ADD MSTORE POP JUMP JUMPDEST PUSH1 0x0 PUSH2 0x2F57 PUSH1 0x1B DUP4 PUSH2 0x22F7 JUMP JUMPDEST SWAP2 POP PUSH2 0x2F62 DUP3 PUSH2 0x2F21 JUMP JUMPDEST PUSH1 0x20 DUP3 ADD SWAP1 POP SWAP2 SWAP1 POP JUMP JUMPDEST PUSH1 0x0 PUSH1 0x20 DUP3 ADD SWAP1 POP DUP2 DUP2 SUB PUSH1 0x0 DUP4 ADD MSTORE PUSH2 0x2F86 DUP2 PUSH2 0x2F4A JUMP JUMPDEST SWAP1 POP SWAP2 SWAP1 POP JUMP JUMPDEST PUSH32 0x434343323A20416D6F756E74206973206C6172676572207468616E20746F7461 PUSH1 0x0 DUP3 ADD MSTORE PUSH32 0x6C537570706C792E000000000000000000000000000000000000000000000000 PUSH1 0x20 DUP3 ADD MSTORE POP JUMP JUMPDEST PUSH1 0x0 PUSH2 0x2FE9 PUSH1 0x28 DUP4 PUSH2 0x22F7 JUMP JUMPDEST SWAP2 POP PUSH2 0x2FF4 DUP3 PUSH2 0x2F8D JUMP JUMPDEST PUSH1 0x40 DUP3 ADD SWAP1 POP SWAP2 SWAP1 POP JUMP JUMPDEST PUSH1 0x0 PUSH1 0x20 DUP3 ADD SWAP1 POP DUP2 DUP2 SUB PUSH1 0x0 DUP4 ADD MSTORE PUSH2 0x3018 DUP2 PUSH2 0x2FDC JUMP JUMPDEST SWAP1 POP SWAP2 SWAP1 POP JUMP JUMPDEST PUSH1 0x0 PUSH1 0x40 DUP3 ADD SWAP1 POP PUSH2 0x3034 PUSH1 0x0 DUP4 ADD DUP6 PUSH2 0x2207 JUMP JUMPDEST PUSH2 0x3041 PUSH1 0x20 DUP4 ADD DUP5 PUSH2 0x2207 JUMP JUMPDEST SWAP4 SWAP3 POP POP POP JUMP JUMPDEST PUSH1 0x0 PUSH1 0xA0 DUP3 ADD SWAP1 POP PUSH2 0x305D PUSH1 0x0 DUP4 ADD DUP10 PUSH2 0x2777 JUMP JUMPDEST PUSH2 0x306A PUSH1 0x20 DUP4 ADD DUP9 PUSH2 0x2777 JUMP JUMPDEST PUSH2 0x3077 PUSH1 0x40 DUP4 ADD DUP8 PUSH2 0x2207 JUMP JUMPDEST PUSH2 0x3084 PUSH1 0x60 DUP4 ADD DUP7 PUSH2 0x2207 JUMP JUMPDEST DUP2 DUP2 SUB PUSH1 0x80 DUP4 ADD MSTORE PUSH2 0x3097 DUP2 DUP5 DUP7 PUSH2 0x2DD8 JUMP JUMPDEST SWAP1 POP SWAP8 SWAP7 POP POP POP POP POP POP POP JUMP JUMPDEST PUSH32 0x4F776E61626C653A206E6577206F776E657220697320746865207A65726F2061 PUSH1 0x0 DUP3 ADD MSTORE PUSH32 0x6464726573730000000000000000000000000000000000000000000000000000 PUSH1 0x20 DUP3 ADD MSTORE POP JUMP JUMPDEST PUSH1 0x0 PUSH2 0x3100 PUSH1 0x26 DUP4 PUSH2 0x22F7 JUMP JUMPDEST SWAP2 POP PUSH2 0x310B DUP3 PUSH2 0x30A4 JUMP JUMPDEST PUSH1 0x40 DUP3 ADD SWAP1 POP SWAP2 SWAP1 POP JUMP JUMPDEST PUSH1 0x0 PUSH1 0x20 DUP3 ADD SWAP1 POP DUP2 DUP2 SUB PUSH1 0x0 DUP4 ADD MSTORE PUSH2 0x312F DUP2 PUSH2 0x30F3 JUMP JUMPDEST SWAP1 POP SWAP2 SWAP1 POP JUMP JUMPDEST PUSH1 0x0 DUP2 MLOAD SWAP1 POP SWAP2 SWAP1 POP JUMP JUMPDEST PUSH1 0x0 PUSH2 0x314C DUP3 PUSH2 0x3136 JUMP JUMPDEST PUSH2 0x3156 DUP2 DUP6 PUSH2 0x2DC7 JUMP JUMPDEST SWAP4 POP PUSH2 0x3166 DUP2 DUP6 PUSH1 0x20 DUP7 ADD PUSH2 0x2308 JUMP JUMPDEST PUSH2 0x316F DUP2 PUSH2 0x233B JUMP JUMPDEST DUP5 ADD SWAP2 POP POP SWAP3 SWAP2 POP POP JUMP JUMPDEST PUSH1 0x0 PUSH1 0xA0 DUP3 ADD SWAP1 POP PUSH2 0x318F PUSH1 0x0 DUP4 ADD DUP9 PUSH2 0x2777 JUMP JUMPDEST PUSH2 0x319C PUSH1 0x20 DUP4 ADD DUP8 PUSH2 0x2777 JUMP JUMPDEST PUSH2 0x31A9 PUSH1 0x40 DUP4 ADD DUP7 PUSH2 0x2207 JUMP JUMPDEST PUSH2 0x31B6 PUSH1 0x60 DUP4 ADD DUP6 PUSH2 0x2207 JUMP JUMPDEST DUP2 DUP2 SUB PUSH1 0x80 DUP4 ADD MSTORE PUSH2 0x31C8 DUP2 DUP5 PUSH2 0x3141 JUMP JUMPDEST SWAP1 POP SWAP7 SWAP6 POP POP POP POP POP POP JUMP JUMPDEST PUSH32 0x4554485F5452414E534645525F4641494C454400000000000000000000000000 PUSH1 0x0 DUP3 ADD MSTORE POP JUMP JUMPDEST PUSH1 0x0 PUSH2 0x320A PUSH1 0x13 DUP4 PUSH2 0x22F7 JUMP JUMPDEST SWAP2 POP PUSH2 0x3215 DUP3 PUSH2 0x31D4 JUMP JUMPDEST PUSH1 0x20 DUP3 ADD SWAP1 POP SWAP2 SWAP1 POP JUMP JUMPDEST PUSH1 0x0 PUSH1 0x20 DUP3 ADD SWAP1 POP DUP2 DUP2 SUB PUSH1 0x0 DUP4 ADD MSTORE PUSH2 0x3239 DUP2 PUSH2 0x31FD JUMP JUMPDEST SWAP1 POP SWAP2 SWAP1 POP JUMP INVALID LOG2 PUSH5 0x6970667358 0x22 SLT KECCAK256 PUSH15 0xFEF7072B3BC3116529633859FD3BD7 LOG4 MSTORE PUSH6 0x74BBEF4F2531 PUSH23 0x3593E11972F864736F6C634300080B0033697066733A2F 0x2F MLOAD PUSH14 0x5342564736627841626E50704737 CHAINID 0x4B JUMPI CALLDATASIZE PUSH3 0x753755 0x4C BASEFEE CHAINID BASEFEE GASLIMIT CODECOPY PUSH23 0x4A4D394737655563594D6D744A6E7A697066733A2F2F51 PUSH14 0x526D4C634B376D61455535557877 CALLVALUE PUSH19 0x507679775677696F445A6A33505659684D7755 GASLIMIT NUMBER CALLDATALOAD PUSH4 0x4C744C73 0x4E "
				},
				"gasEstimates": {
					"creation": {
						"codeDepositCost": "2583600",
						"executionCost": "infinite",
						"totalCost": "infinite"
					},
					"external": {
						"TestMintPassBlackMinted(address)": "2882",
						"TestMintPassBlueMinted(address)": "2859",
						"Test_Mint_Pass_Black()": "374",
						"Test_Mint_Pass_BlackMaxSupply()": "infinite",
						"Test_Mint_Pass_BlackScholarshipTotal()": "infinite",
						"Test_Mint_Pass_BlackTokenId()": "infinite",
						"Test_Mint_Pass_Blue()": "396",
						"Test_Mint_Pass_BlueMaxSupply()": "infinite",
						"Test_Mint_Pass_BlueScholarshipTotal()": "infinite",
						"Test_Mint_Pass_BlueTokenId()": "infinite",
						"balanceOf(address,uint256)": "infinite",
						"balanceOfBatch(address[],uint256[])": "infinite",
						"isApprovedForAll(address,address)": "infinite",
						"mintScholarship(address)": "infinite",
						"name()": "infinite",
						"owner()": "2590",
						"ownerMint(address,uint256,uint256)": "infinite",
						"renounceOwnership()": "30485",
						"safeBatchTransferFrom(address,address,uint256[],uint256[],bytes)": "infinite",
						"safeTransferFrom(address,address,uint256,uint256,bytes)": "infinite",
						"setApprovalForAll(address,bool)": "infinite",
						"setTokenURI(string,uint256)": "infinite",
						"setVault(address)": "27051",
						"supportsInterface(bytes4)": "790",
						"symbol()": "infinite",
						"tokenURI(uint256)": "infinite",
						"totalSupply(uint256)": "infinite",
						"transferOwnership(address)": "30811",
						"uri(uint256)": "infinite",
						"vaultAddress()": "2626",
						"withdraw()": "infinite"
					}
				},
				"methodIdentifiers": {
					"TestMintPassBlackMinted(address)": "0b22f540",
					"TestMintPassBlueMinted(address)": "9fa3cda1",
					"Test_Mint_Pass_Black()": "cbf99084",
					"Test_Mint_Pass_BlackMaxSupply()": "f48deaaa",
					"Test_Mint_Pass_BlackScholarshipTotal()": "dec125ba",
					"Test_Mint_Pass_BlackTokenId()": "9e3cf643",
					"Test_Mint_Pass_Blue()": "cc2851c6",
					"Test_Mint_Pass_BlueMaxSupply()": "45114990",
					"Test_Mint_Pass_BlueScholarshipTotal()": "df52fa84",
					"Test_Mint_Pass_BlueTokenId()": "71d05aec",
					"balanceOf(address,uint256)": "00fdd58e",
					"balanceOfBatch(address[],uint256[])": "4e1273f4",
					"isApprovedForAll(address,address)": "e985e9c5",
					"mintScholarship(address)": "16473cf7",
					"name()": "06fdde03",
					"owner()": "8da5cb5b",
					"ownerMint(address,uint256,uint256)": "388b9fe0",
					"renounceOwnership()": "715018a6",
					"safeBatchTransferFrom(address,address,uint256[],uint256[],bytes)": "2eb2c2d6",
					"safeTransferFrom(address,address,uint256,uint256,bytes)": "f242432a",
					"setApprovalForAll(address,bool)": "a22cb465",
					"setTokenURI(string,uint256)": "09a3beef",
					"setVault(address)": "6817031b",
					"supportsInterface(bytes4)": "01ffc9a7",
					"symbol()": "95d89b41",
					"tokenURI(uint256)": "c87b56dd",
					"totalSupply(uint256)": "bd85b039",
					"transferOwnership(address)": "f2fde38b",
					"uri(uint256)": "0e89341c",
					"vaultAddress()": "430bf08a",
					"withdraw()": "3ccfd60b"
				}
			},
			"storageLayout": {
				"storage": [
					{
						"astId": 816,
						"contract": "contracts/Test Mint Pass v12A.sol:TestMintPassv12A",
						"label": "balanceOf",
						"offset": 0,
						"slot": "0",
						"type": "t_mapping(t_address,t_mapping(t_uint256,t_uint256))"
					},
					{
						"astId": 822,
						"contract": "contracts/Test Mint Pass v12A.sol:TestMintPassv12A",
						"label": "isApprovedForAll",
						"offset": 0,
						"slot": "1",
						"type": "t_mapping(t_address,t_mapping(t_address,t_bool))"
					},
					{
						"astId": 1842,
						"contract": "contracts/Test Mint Pass v12A.sol:TestMintPassv12A",
						"label": "_owner",
						"offset": 0,
						"slot": "2",
						"type": "t_address"
					},
					{
						"astId": 2049,
						"contract": "contracts/Test Mint Pass v12A.sol:TestMintPassv12A",
						"label": "name",
						"offset": 0,
						"slot": "3",
						"type": "t_string_storage"
					},
					{
						"astId": 2051,
						"contract": "contracts/Test Mint Pass v12A.sol:TestMintPassv12A",
						"label": "symbol",
						"offset": 0,
						"slot": "4",
						"type": "t_string_storage"
					},
					{
						"astId": 2053,
						"contract": "contracts/Test Mint Pass v12A.sol:TestMintPassv12A",
						"label": "vaultAddress",
						"offset": 0,
						"slot": "5",
						"type": "t_address"
					},
					{
						"astId": 2081,
						"contract": "contracts/Test Mint Pass v12A.sol:TestMintPassv12A",
						"label": "_totalSupply",
						"offset": 0,
						"slot": "6",
						"type": "t_mapping(t_uint256,t_uint256)"
					},
					{
						"astId": 2085,
						"contract": "contracts/Test Mint Pass v12A.sol:TestMintPassv12A",
						"label": "tokenURI",
						"offset": 0,
						"slot": "7",
						"type": "t_mapping(t_uint256,t_string_storage)"
					},
					{
						"astId": 2089,
						"contract": "contracts/Test Mint Pass v12A.sol:TestMintPassv12A",
						"label": "TestMintPassBlueMinted",
						"offset": 0,
						"slot": "8",
						"type": "t_mapping(t_address,t_uint256)"
					},
					{
						"astId": 2093,
						"contract": "contracts/Test Mint Pass v12A.sol:TestMintPassv12A",
						"label": "TestMintPassBlackMinted",
						"offset": 0,
						"slot": "9",
						"type": "t_mapping(t_address,t_uint256)"
					}
				],
				"types": {
					"t_address": {
						"encoding": "inplace",
						"label": "address",
						"numberOfBytes": "20"
					},
					"t_bool": {
						"encoding": "inplace",
						"label": "bool",
						"numberOfBytes": "1"
					},
					"t_mapping(t_address,t_bool)": {
						"encoding": "mapping",
						"key": "t_address",
						"label": "mapping(address => bool)",
						"numberOfBytes": "32",
						"value": "t_bool"
					},
					"t_mapping(t_address,t_mapping(t_address,t_bool))": {
						"encoding": "mapping",
						"key": "t_address",
						"label": "mapping(address => mapping(address => bool))",
						"numberOfBytes": "32",
						"value": "t_mapping(t_address,t_bool)"
					},
					"t_mapping(t_address,t_mapping(t_uint256,t_uint256))": {
						"encoding": "mapping",
						"key": "t_address",
						"label": "mapping(address => mapping(uint256 => uint256))",
						"numberOfBytes": "32",
						"value": "t_mapping(t_uint256,t_uint256)"
					},
					"t_mapping(t_address,t_uint256)": {
						"encoding": "mapping",
						"key": "t_address",
						"label": "mapping(address => uint256)",
						"numberOfBytes": "32",
						"value": "t_uint256"
					},
					"t_mapping(t_uint256,t_string_storage)": {
						"encoding": "mapping",
						"key": "t_uint256",
						"label": "mapping(uint256 => string)",
						"numberOfBytes": "32",
						"value": "t_string_storage"
					},
					"t_mapping(t_uint256,t_uint256)": {
						"encoding": "mapping",
						"key": "t_uint256",
						"label": "mapping(uint256 => uint256)",
						"numberOfBytes": "32",
						"value": "t_uint256"
					},
					"t_string_storage": {
						"encoding": "bytes",
						"label": "string",
						"numberOfBytes": "32"
					},
					"t_uint256": {
						"encoding": "inplace",
						"label": "uint256",
						"numberOfBytes": "32"
					}
				}
			},
			"userdoc": {
				"kind": "user",
				"methods": {
					"mintScholarship(address)": {
						"notice": "function for owner to mint (LC)"
					},
					"ownerMint(address,uint256,uint256)": {
						"notice": "function for owner to mint the token, just in case it's needed, mintScholarship() will be used to mint all the scholarships"
					},
					"setTokenURI(string,uint256)": {
						"notice": "function to change the tokenURI"
					},
					"setVault(address)": {
						"notice": "changing vault address"
					},
					"totalSupply(uint256)": {
						"notice": "totalSupply of a token ID"
					},
					"uri(uint256)": {
						"notice": "returns the token URI"
					},
					"withdraw()": {
						"notice": "Withdraw all ETH from the contract to the vault address."
					}
				},
				"version": 1
			}
		}
	}
}